:020000040000FA
:060000009DEF7DF01200EF
:0600080004EF50F01200AD
:060018000CEF50F0120095
:06A000009DEF7DF012004F
:02A00600120046
:06A00800A9EF63F0120055
:02A00E0012003E
:04A01000000000004C
:02A0140000004A
:02A01600000543
:06A01800ACEF63F0120042
:02A01E00080038
:10A020009CFB0000CE0000000100000015F10000C4
:10A03000CD0000000100000016A00000C9000000D3
:10A040000200000091FB00008E0000000B000000E9
:10A0500014A00000FE010000020000008CFB0000C4
:10A06000BC0000000500000083FB0000AD00000004
:10A070000900000010A00000C10000000400000062
:10A08000DADB5EEC55F087EC55F058EC55F012EC4D
:10A0900057F058EC55F0AEEF56F0CDDB58EC55F0DC
:10A0A00087EC55F05EEC55F012EC57F05EEC55F095
:10A0B000AEEF56F0F6EC56F090EC55F010EC56F092
:10A0C000DCEC55F073EC55F06AE096EC55F055EC8D
:10A0D00056F0DCEC55F076EC55F061E09CEC55F078
:10A0E00026EC56F0DCEC55F02FEC56F0B8EC56F0C0
:10A0F00056E0A2EC55F038EC56F0DCEC55F02FECC5
:10A1000056F0BCEC56F04BE0E5EC55F0B8EC56F0F0
:10A110000EE0F6EC55F0BCEC56F009E090EC55F092
:10A1200027EC55F05EEC56F00001B58138D0E5EC37
:10A1300055F0BCEC56F00EE0F6EC55F0B8EC56F0ED
:10A1400009E096EC55F027EC55F05EEC56F0000176
:10A15000B58325D0E5EC55F0BCEC56F00EE1F6ECFD
:10A1600055F0BCEC56F009E1A2EC55F030EC55F09E
:10A1700063EC56F00001B58512D0E5EC55F0B8EC73
:10A1800056F00DE1F6EC55F0B8EC56F008E19CEC19
:10A1900055F030EC55F063EC56F00001B587FBEF5D
:10A1A00056F0F6EC56F0020EE126CCEC55F0030E1C
:10A1B00050EC55F000010010606F01C061F0200EFE
:10A1C000426E436A60C03DF001C03EF00CEC6AF0A4
:10A1D0003DC060F03EC061F0040ECCEC55F0050EC1
:10A1E00050EC55F000010010626F01C063F0200ECA
:10A1F000426E436A62C03DF001C03EF00CEC6AF072
:10A200003DC062F03EC063F0060ECCEC55F0070E88
:10A21000C0EC56F0020EE15C02E2E16AE552E16E4A
:10A22000FBEF56F0F6EC56F00A0EE126FB0EDBCF04
:10A2300000F0FC0EDBCF01F0FD0EDBCF02F0FE0ED6
:10A24000DBCF03F000C041F001C042F002C043F098
:10A2500003C044F0C1C03CF0C2C03DF0C3C03EF0FA
:10A26000C4C03FF0B6EC68F03CC0C1F03DC0C2F0E5
:10A270003EC0C3F03FC0C4F094DFFA0EDB5001E1F2
:10A28000BAD00001AF510001625D046E635100015C
:10A29000B055D4DB3CC07EF03DC07FF03EC080F0C6
:10A2A0003FC081F00001AD510001605D046E61515D
:10A2B0000001AE55C3DB3CC082F03DC083F03EC020
:10A2C00084F03FC085F074DBA8DB68EC56F0D1DB8E
:10A2D0007EC03CF07FC03DF080C03EF081C03FF0CA
:10A2E0000EDBC9EC56F0A4DB6CDBDFCF66F0010EB1
:10A2F000DBCF67F0020EDBCF68F0030EDBCF69F037
:10A3000069DB8BDB2FEC56F0B4DB82C03CF083C002
:10A310003DF084C03EF085C03FF0F1DAD2EC56F05B
:10A3200087DB61DBDFCF6AF0010EDBCF6BF0020E63
:10A33000DBCF6CF0030EDBCF6DF0416A426A400E5A
:10A34000436EE2DBBCEC56F00FE000016A6B6B6B16
:10A35000400E6C6F6D6F63EC56F0080E0001B51582
:10A36000080802E1010EB36F416A426A540E436E5F
:10A37000420ECADBB8EC56F010E000016A6B6B6B62
:10A38000540E6C6F420E6D6F63EC56F0040E0001BC
:10A39000B515040802E1010EB36F416A426A400E2E
:10A3A000436E446EA3DB0FE00001666B676B400EEB
:10A3B000686F696F5EEC56F0020E0001B515020879
:10A3C00002E1010EB36F416A426AEC0E436E420E27
:10A3D000446E89DB10E00001666B676BEC0E686F02
:10A3E000420E696F5EEC56F0010E0001B5150108D2
:10A3F00002E1010EB36F080EDB6A0101E8517DDB5B
:10A4000054E2090EDB6A0101E951F36E090EDBCF5C
:10A41000F4FFF350F45C46E207EC56F0EF50F36EB5
:10A42000080EDB50F35C3BE1F2DB030EE926000E85
:10A43000EA22EF5004E129DB07E04FDB03D025DB04
:10A4400003E14EDB73D90DD048DB70D9EA22EE521E
:10A45000E552E750EF6E44DB69D9EA22020EE926A5
:10A46000000EEA22E552E750EF6E7AEC56F09ADBE6
:10A47000EFCFE6FF080EDB50080DF3CF00F0F4CF6E
:10A4800001F0380E0026010E012200C0E6FF01C0D7
:10A49000E6FF3AEC57F0026E060EE15E0250090E3E
:10A4A000DB2AB1D7080EDB2AA8D7FA0EDB5001E170
:10A4B000F9D00001B56B080EDB6A0101E8511DDB24
:10A4C00015E2080EDB50080D32EC57F0380EE92685
:10A4D000010E68DB95EC56F0EECFE6FFEBDD006E8B
:10A4E000080EE15E0050080EDB2AE7D7030E0001DC
:10A4F000B515030804E00C0EB5150C0802E1010EB9
:10A50000B36F080EDB6A0101EA51F7DA01E380D08C
:10A510002FDAEECF10F0EFCF11F010C03EF08FEC3D
:10A5200068F024EC57F024DAEECF1AF0EFCF1BF0EE
:10A53000A1EC56F061DADBEC56F000DA19DAEECF76
:10A5400028F0EFCF29F029C03EF08FEC68F000DB57
:10A5500056DA07DB0DDAEECF32F0EFCF33F033C04F
:10A560003EF08FEC68F03CC02EF03DC02FF03EC0B6
:10A5700030F03FC031F043DA3CC02AF03DC02BF050
:10A580003EC02CF03FC02DF017DB20C03CF021C0B6
:10A590003DF022C03EF023C03FF09FEC69F0EADAC4
:10A5A000DAD9F1D9436A410E78DAE2DB16E106EC3A
:10A5B00057F00CC03EF09DDA1FDA24DAF9D9B6EC78
:10A5C00068F0FFD906EC57F00DC03EF092DA17DACA
:10A5D00019DA00DAB6EC68F006DA98DB800E436E22
:10A5E000400E5BDAC5DB11E10CEC57F000C03EF029
:10A5F0008FEC68F02CDA0CEC57F001C03EF08FECD9
:10A6000068F02EDA0001010EB36F080EDB2A7BD74B
:10A61000CBDA24EC57F0C8DA3CC014F03DC015F09A
:10A620003EC016F03FC017F0E7D9CEDB87D9C0DABD
:10A6300098DAE5D99FDABCDA3CC028F03DC029F0B1
:10A640003EC02AF03FC02BF0DAD982DAB5DA1CC05E
:10A650003CF01DC03DF01EC03EF01FC03FF09FEC1F
:10A6600069F03CC018F03DC019F03EC01AF03FC080
:10A670001BF071D988D9A00E436E400E0EDA7CDB38
:10A6800007E092DAE4D994DAEBD90001010EB46F55
:10A690007ADA8ED99FEC69F094D975DA9BD99FEC60
:10A6A00069F0A1D90A0EE15C02E2E16AE552E16ECD
:10A6B000A2D30001666B676B800E686F420E696FF4
:10A6C0006A6B6B6B6C6B6D6F6E6B6F6B706B716BC2
:10A6D0007A6B7B6B7C6B7D6B7AC076F07BC077F09E
:10A6E0007CC078F07DC079F07AC072F07BC073F0E6
:10A6F0007CC074F07DC075F0866B876B886B896B4E
:10A7000086C082F087C083F088C084F089C085F05D
:10A7100086C07EF087C07FF088C080F089C081F05D
:10A720008A6B8B6B8C6B3F0E8D6F1200E926000ECF
:10A73000EA22EFCF04F004C03EF08FEC68F070DA4C
:10A7400066DAEE52EFCF0DF00DC03EF08FEC68F000
:10A750003CC009F03DC00AF03EC00BF03FC00CF019
:10A7600000C0E6FF01C0E6FF02C0E6FF03C0E6FF4F
:10A77000DFDA4DDA020EE926000EEA22EFCF1AF0F8
:10A78000E0DAC1C041F0C2C042F0C3C043F0C4C06F
:10A7900044F09FEC69F00FDBCBDA19EC7DF0E55269
:10A7A000E552E552E552E552E7CF0CF0E552E7CF2E
:10A7B0000BF0E552E7CF0AF0E552E7CF09F0E5529A
:10A7C000E7CF03F0E552E7CF02F0E552E7CF01F023
:10A7D000E552E7CF00F03BC00EF03CC00FF03DC0AB
:10A7E00010F03EC011F0F9DA09C03CF00AC03DF0AB
:10A7F0000BC03EF00CC03FF09FEC69F03CC005F090
:10A800003DC006F03EC007F03FC008F021DB5FEC22
:10A810006AF03E50E66E7AEF56F0D950F70FE96EC7
:10A82000FF0EDA20EA6E81DA80DA52DA5FEC6AF043
:10A830003E50E66E1200DADAFE0EDBCF14F014C0E2
:10A840003EF08FEC68F0C0DA07DB3CC015F03DC08D
:10A8500016F03EC017F03FC018F0AED910C03CF063
:10A8600011C03DF012C03EF013C03FF0B5EC68F0EF
:10A87000FFD9F80EDBCF3DF0F90E44DA3CC01DF0F5
:10A880003DC01EF03EC01FF03FC020F0E5DA3CC0E6
:10A8900021F03DC022F03EC023F03FC024F08CD90F
:10A8A0001DC03CF01EC03DF01FC03EF020C03FF078
:10A8B000B5EC68F03CC019F03DC01AF03EC01BF08A
:10A8C0003FC01CF079D90CC03CF00DC03DF00EC06B
:10A8D0003EF00FC03FF04CEC69F026EF56F09FECD5
:10A8E00069F09ED99A0E416E990E426E190E436E12
:10A8F0003F0E446E9FEF69F070DA2FEF56F04CEC8C
:10A9000069F0B5DAB4DAB4D97ADAA0D9A1DA3CC000
:10A91000DEFF3DC0DEFF3EC0DEFF3FC0DDFFDD529B
:10A92000DD52D9CFE9FFDACFEAFFEECF00F0EECF6C
:10A9300001F0EECF02F0EFCF03F012003DD908C0D6
:10A940003CF009C03DF00AC03EF00BC03FF09FEC68
:10A9500069F055EF56F030D904C03CF005C03DF029
:10A9600006C03EF007C03FF0B6EC68F010EF56F0BE
:10A97000080EEA6ADB34FE0BEA36E96EBA0EE92607
:10A98000010EEA221200D4D92EEC73F0E552E55202
:10A99000E552E552040E3BC0DBFF050E3CC0DBFF79
:10A9A000060E3DC0DBFF070E3EC0DBFF86EF56F014
:10A9B00072C03CF073C03DF074C03EF075C03FF013
:10A9C00012003CC072F03DC073F03EC074F03FC056
:10A9D00075F0120076C03CF077C03DF078C03EF0D4
:10A9E00079C03FF012003CC076F03DC077F03EC029
:10A9F00078F03FC079F01200CCD9B5EF68F0D2D929
:10AA0000B5EF68F052D9416A426A436A3F0E446E1C
:10AA10009FEC69F005D9DCEF55F029DA46D9DCEF77
:10AA200055F0416A426A800E436EBF0E446E1200BA
:10AA300058D9B5EC68F0FDD84CEF69F0056E04C04C
:10AA40003DF03E6EA2EC68F0EBD8FFEF56F03CC054
:10AA500066F03DC067F03EC068F03FC069F012008C
:10AA60003CC06AF03DC06BF03EC06CF03FC06DF082
:10AA70001200B6EC68F0D4D88AC041F08BC042F026
:10AA80008CC043F08DC044F0120034D9EA22030E8A
:10AA9000E926000EEA22EF501200446E71EF56F0E4
:10AAA0006FD9DBCF00F000C001F0006ADF50120068
:10AAB000FC0EDBCF3DF0FD0E82EF56F0FA0EDBCF41
:10AAC0003DF0FB0E82EF56F03CC03BF03DC03CF049
:10AAD0003EC03DF03FC03EF08ED199D8040E12002A
:10AAE00096D8050E1200F4D8B8EF56F0F1D8BCEFA6
:10AAF00056F08FEC68F026EF56F0F36E080EDBCFC1
:10AB0000F4FFF350F45C1200446E2FEF56F03CC09B
:10AB100029F03DC02AF03EC02BF03FC02CF01200BF
:10AB2000F70EDBCF3DF0F80E82EF56F0F90EDBCFDB
:10AB30003DF0FA0E82EF56F0FB0EDBCF3DF0FC0E3F
:10AB400082EF56F0FD0EDBCF3DF0FE0E82EF56F0A9
:10AB50003CC024F03DC025F03EC026F03FC027F0A9
:10AB600012003CC020F03DC021F03EC022F03FC0AA
:10AB700023F012003CC01CF03DC01DF03EC01EF092
:10AB80003FC01FF01200F60E416E280E426E7C0E82
:10AB9000436E3F0E446E1200E66E32EC76F0E552E4
:10ABA000DF6E1200EA2249D1ECC13EF08FEF68F06F
:10ABB000EDC13EF08FEF68F03CC041F03DC042F087
:10ABC0003EC043F03FC044F0120027DE4DEC50F091
:10ABD000046E090EE15E04503BC000F03CC001F081
:10ABE0003DC002F03EC003F07CEF54F016DE40ECB6
:10ABF00050F0096E090EE15E09503BC005F03CC003
:10AC000006F03DC007F03EC008F07CEF54F0090E9E
:10AC1000DB50060D27D9A80EE926010EEA22120004
:10AC20003CC000F03DC001F03EC002F03FC003F068
:10AC30001200FB0EDBCF41F0FC0EDBCF42F0FD0E2D
:10AC4000DBCF43F0FE0EDBCF44F012003CC008F037
:10AC50003DC009F03EC00AF03FC00BF012006AC0D0
:10AC60003CF06BC03DF06CC03EF06DC03FF0120098
:10AC70003CC00CF03DC00DF03EC00EF03FC00FF0E8
:10AC8000120029C03CF02AC03DF02BC03EF02CC081
:10AC90003FF0B5EC68F03CC025F03DC026F03EC06A
:10ACA00027F03FC028F09EEF54F03CC004F03DC0B8
:10ACB00005F03EC006F03FC007F01200B2DE78DEBD
:10ACC0000EDEE1EF54F0ADDE85DE09DEF3EF54F089
:10ACD00066C03CF067C03DF068C03EF069C03FF020
:10ACE000120000C03CF001C03DF002C03EF003C0C5
:10ACF0003FF01200080EDB50040DB4D8000EE92618
:10AD0000010E1200DBCF3EF0A2EF68F0040EDBCFA5
:10AD100000F0050EDBCF01F0060EDBCF02F0070ED0
:10AD2000DBCF03F0416A426A1200EECFE6FF85D026
:10AD30003CC0E6FF3DC0E6FF3EC0E6FF3FC0E6FF89
:10AD400012001AC03EF08FEC68F03CC016F03DC017
:10AD500017F03EC018F03FC019F012003CC031F0AF
:10AD60003DC032F03EC033F03FC034F0F4DDACD62D
:10AD70008FEC6AF0010A120086EC6AF0010A1200F8
:10AD8000E66E32EC76F0E552E76E010EE7CFDBFFC0
:10AD9000120066C041F067C042F068C043F069C06D
:10ADA00044F012006AC041F06BC042F06CC043F046
:10ADB0006DC044F012003CC012F03DC013F03EC024
:10ADC00014F03FC015F012003CC010F03DC011F06F
:10ADD0003EC012F03FC013F012003BC041F03CC037
:10ADE00042F03DC043F03EC044F01200D9CFE6FF30
:10ADF000E1CFD9FF1200E552E7CFD9FF1200416A37
:10AE0000426A436A400E446E4CEF69F0B1DDEECF0A
:10AE10000CF0EFCF0DF01200ABDDEECF00F0EFCF76
:10AE200001F012003CC02DF03DC02EF03EC02FF0CE
:10AE30003FC030F0C1DE41EF56F0EECFE6FFEECF7F
:10AE4000E6FFEECFE6FF120013DFD6DD26EF56F069
:10AE5000B3DE47DFB6EF68F0F60EDBCF3DF0F70E5E
:10AE600082EF56F0F3CFE9FFF4CFEAFF1200E1DE04
:04AE70009FEF69F0F7
:0CAE740079EC5CF0FC0EDB5035E1FA0ECE
:10AE800000EC5DF029EC5DF0FB0EDB5019EC5DF0A1
:10AE9000F90EDB50006E016AD890015002E6AEEC6C
:10AEA0005CF003E21EEC5DF006D0F90E00EC5DF004
:10AEB000040E74EC5CF0F90EDB50030F24EC5DF033
:10AEC000FA0EDB5005E16DEC5CF0E20EEE6EED6823
:10AED000FB0EDB507F0836E16DEC5CF0020EE926DC
:10AEE000000EEA22960E2CD0F90E00EC5DF029EC53
:10AEF0005DF0F90EDB50030F19EC5DF0FA0EDB503C
:10AF0000006E016AD890015002E6AEEC5CF003E2FC
:10AF10001EEC5DF006D0FA0E00EC5DF0040E74EC51
:10AF20005CF0FB0EDB5024EC5DF0FB0EDB503F08C9
:10AF300009E16DEC5CF0060EE926000EEA22500EE7
:10AF4000EE6EED6A7EEF5CF015EC5DF0DF6A080EE8
:10AF5000DF5C21E2010EDB6AFE0EDB50F36E010EB8
:10AF6000DBCFF4FFF350F45C14E2DF50800D0001FE
:10AF7000C951F324006ECA51F420016E010EDB505A
:10AF80000024E96E000E0120EA6EEF68010EDB2A54
:10AF9000E3D7DF2ADCD7020EE15C02E2E16AE55288
:10AFA000E16E7EEF5CF079EC5CF0040EE126020EBF
:10AFB000DB6A030EDB6AA0EC5CF0D890015002E67D
:10AFC000AEEC5CF03CE2A0EC5CF0B00E0024B3EC24
:10AFD0005CF0020EB3EC5CF0100EB3EC5CF0DE6AD9
:10AFE000DD6AA7EC5CF004E6800E005C000E015800
:10AFF00020E2DECF02F0DDCF03F0800E3D6E3E6A30
:10B00000020EDBCF42F0030EDBCF43F032EC6AF0EE
:10B0100002503B24006E03503C2005EC5DF0EF50E5
:10B02000E66E8DEC71F0E552DF2A010EDAE3DB2AE1
:10B03000D8D7020EDB2A030EBEE3DB2ABCD7040EF0
:10B04000E15C02E2E16AE552E16E7EEF5CF015EC54
:10B050005DF0DE6ADD6AA7EC5CF004E6000E005CE1
:10B06000040E01580FE2DE500001C925E96EDD50E3
:10B07000CA21EA6EFE0EDBCFEFFFDF2A010EEBE303
:10B08000DB2AE9D7020EE15C02E2E16AE552E16EF9
:10B090007EEF5CF07AEC5DF003E065EC5CF0FDE1E6
:10B0A000E5EC5CF0020F7FEC5DF003E065EC5CF03A
:10B0B000FDE1E5EC5CF0030F40EC5DF003E065ECD6
:10B0C0005CF0FDE1E5EC5CF0040F89EC5DF003E081
:10B0D00065EC5CF0FDE1E5EC5CF049EC5DF002E074
:10B0E000F4DBFEE1C9EC5CF0020F7FEC5DF002E006
:10B0F000ECDBFEE1C9EC5CF0030F40EC5DF002E03C
:10B10000E4DBFEE1C9EC5CF0040F89EC5DF002E0E9
:10B11000DCDBFEE1C9EC5CF0050F43EC5DF002E026
:10B12000D4DBFEE15EEC5DF0C6DB02E0CEDBFEE1EF
:10B130004CEC5DF0C0DB02E0C8DBFEE162EC5DF0F0
:10B14000BADB02E0C2DBFEE166EC5DF0FAEC5CF03B
:10B1500002E0BBDBFEE1D1EC5CF092EC5DF002E0E2
:10B16000B4DBFEE1D5EC5CF092EC5DF002E0ADDB2F
:10B17000FEE1CDEC5CF092EC5DF002E0A6DBFEE1DE
:10B18000D9EC5CF0070FC4EC5CF002E09EDBFEE162
:10B19000E8EC5CF0FD0EDB28C4EC5CF002E095DB33
:10B1A000FEE185EC5DF0FDEC5CF002E08EDBFEE1A3
:10B1B000DCEC5CF050EC5DF002E087DBFEE1E0EC03
:10B1C0005CF0060F2EEF5DF094DBFC0EDB50030805
:10B1D00001E37BD0FD0EDB50EEEC5CF002E075DBB2
:10B1E000FEE1F3DB82EC5DF002E06FDBFEE1EDDB24
:10B1F00053EC5DF002E069DBFEE1CBDB3DEC5DF0A2
:10B2000002E063DBFEE1C5DB050F43EC5DF002E02D
:10B210005CDBFEE15EEC5DF04EDB02E056DBFEE166
:10B2200062EC5DF0E7DB02E050DBFEE1BEDB92ECBE
:10B230005DF002E04ADBFEE16CEC5DF002E045DB34
:10B24000FEE1C3DB3DEC5DF002E03FDBFEE1BDDB98
:10B25000050F43EC5DF002E038DBFEE14CEC5DF005
:10B26000BDDB02E032DBFEE194DB020F46EC5DF079
:10B2700002E02BDBFEE191DB070F43EC5DF002E027
:10B2800024DBFEE166EC5DF0AFDB02E01EDBFEE1FD
:10B2900080DB040F43EC5DF002E017DBFEE14CECD9
:10B2A0005DF009DB02E011DBFEE166EC5DF0A2DBA4
:10B2B00002E00BDBFEE175DB92EC5DF002E005DB0A
:10B2C000FEE16BDB070FE840E9DAFC0EDB50020819
:10B2D00001E38DD0FD0EDB28EEDA02E0F6DAFEE1C6
:10B2E000E8DB02E0F2DAFEE16BDBC7DB02E0EDDA7D
:10B2F000FEE166DBCEDB02E0E8DAFEE15DDB82EC5C
:10B300005DF002E0E2DAFEE157DBD0DB02E0DDDAFD
:10B31000FEE152DBC5DB02E0D8DAFEE142DBC0DB56
:10B3200002E0D3DAFEE139DB060F2EDB02E0CDDAF4
:10B33000FEE1CFDA030F026E036AFD0EDB2824DB89
:10B3400002E0C3DAFEE1F1DB92DB57DB02E0BDDABB
:10B35000FEE136DB060F18DB02E0B7DAFEE1D5DBF3
:10B360003DDB02E0B2DAFEE12BDBCCDB02E0ADDA62
:10B37000FEE126DB040F08DB02E0A7DAFEE1A9DA32
:10B38000020F75DB3ADB02E0A0DAFEE10EDB88DBC0
:10B3900002E09BDAFEE10DDB060FF6DA02E095DA59
:10B3A000FEE197DA040F63DB22DB02E08EDAFEE1D6
:10B3B00003DB050FA4DB02E088DAFEE1FDDA5DDBEA
:10B3C00002E083DAFEE1EDDA64DB02E07EDAFEE140
:10B3D000F0DA020FA1DB02E078DAFEE1E2DA79DBF3
:10B3E00002E073DAFEE1E5DA050FE84057DAFC0E19
:10B3F000DB50010830E2FD0EDB50F3DA02E065DAE3
:10B40000FEE1CFDA030F3CDB02E05FDAFEE1C9DAEE
:10B41000040F82DB02E059DAFEE1C7DA5ADB02E010
:10B4200054DAFEE1C2DA35DB02E04FDAFEE1B5DAEA
:10B4300050DB02E04ADAFEE1B0DA050F21DB02E080
:10B4400044DAFEE1B6DA2FDB02E03FDAFEE1B1DA00
:10B45000030FE84023DAFD0EDB50C6DA02E035DAEE
:10B46000FEE1A3DA20DB02E030DAFEE19EDA030F30
:10B4700046DB02E02ADAFEE190DA030F01DB02E0AC
:10B4800024DAFEE18ADA040FE9D234DB02E01DDAC5
:10B49000FEE19BDA37DB02E018DAFEE196DA03DB45
:10B4A00002E013DAFEE175DAE8DA02E00EDAFEE134
:10B4B00070DA050F69DA02E008DAFEE1FADA02E092
:10B4C00004DAFEE17DDAD9DA02E0FFD9FEE178DACA
:10B4D000E0DA02E0FAD9FEE16FDA14DB02E0F5D936
:10B4E000FEE16ADAE3DA02E0F0D9FEE165DA060F9E
:10B4F000CADA02E0EAD9FEE1E1DA70DA02E0E5D97F
:10B50000FEE14FDAFFDA02E0E0D9FEE14ADACEDA14
:10B5100002E0DBD9FEE145DA060FB5DA02E0D5D963
:10B52000FEE1D0DA5BDA02E0D0D9FEE136DAEADA1F
:10B5300002E0CBD9FEE131DAB9DA02E0C6D9FEE1A8
:10B540002CDA060F21DA02E0C0D9FEE1C2D9030FDE
:10B550008EDA47DA02E0B9D9FEE127DA8EDA02E0C4
:10B56000B4D9FEE122DA050F91DA02E0AED9FEE1AC
:10B570001CDA070F09DA02E0A8D9FEE1D6DA77DA99
:10B5800030DA02E0A2D9FEE114DA77DA02E09DD9DE
:10B59000FEE10FDA050F7ADA02E097D9FEE19CDAD4
:10B5A00002E093D9FEE111DA68DA02E08ED9FEE119
:10B5B0000CDA050FB4DA02E088D9FEE101DA060FF1
:10B5C00065DA02E082D9FEE1ECD9070F5CDA02E02D
:10B5D0007CD9FEE161DA0EDA02E077D9FEE1DDD94D
:10B5E000070F51DA02E071D9FEE19FDA79DADB2840
:10B5F00062D902E06AD9FEE188DAF0D902E065D9C1
:10B60000FEE1C7D97FDA02E060D9FEE1C2D9040FBA
:10B6100025D20BDAFD0EDB50DF6EFC0EDB50D8803E
:10B62000DF5422E3FE0EDB5046D902E04ED9FEE1A4
:10B630009FD9FE0EDB4032D9FE0EDB50CFD902E09F
:10B6400044D9FEE195D9FE0EDB50020F50DADFA09F
:10B6500009D006DA02E039D9FEE18AD9FE0EDB28EC
:10B66000E8401CD9DF2AD9D7FBD902E02ED9FEE168
:10B67000046EFD0ED3D9F4D902E027D9FEE1046EA1
:10B68000FC0ECCD9020EE15C02E2E16AE552E16E09
:10B6900035D1CBD9FD0EDB50DF6EFC0EDB50D880F0
:10B6A000DF541BE343D902E010D9FEE112D9026E48
:10B6B000036ADAD93BD902E008D9FEE10AD9020FC0
:10B6C000026E036AD1D9DFA006D030D902E0FDD8DE
:10B6D000FEE17ED9C9D9DF2AE0D7FD0EDB50EBD8D9
:10B6E00002E0F3D8FEE174D9FD0EDB40D7D8FC0EA2
:10B6F000DB50E1D802E0E9D8FEE16AD9FC0EDB407C
:10B70000CDD8020EE15C02E2E16AE552E16EF6D0CC
:10B71000F0D8FE0EDB5003E1F5D87BDF02D0F2D883
:10B72000B8DF0AD9EBD0E5D8E652E66A90DCE552FC
:10B730007F0EE66EE66AE66A6CDFFED87F0EE66E86
:10B74000E66A3D0EE66E65DFF7D83F0EE66EE66A06
:10B75000E66A9FDFF1D83F0EE66EE66A7D0EE66E82
:10B7600098DFEAD80001B35102E1040E0FD0B32BE9
:10B77000050EB35D02E2030E09D00A0EB35D02E2CC
:10B78000020E04D00F0EB35D1DE2010EE66E6AC01C
:10B790003CF06BC03DF06CC03EF06DC03FF05FEC24
:10B7A0006AF03E50E66E66C03CF067C03DF068C08F
:10B7B0003EF069C03FF05FEC6AF03E50E66E04DD9B
:10B7C000BBD811D0B36BEBC1E6FFB8EC70F0E5521B
:10B7D000E66AE66AE66AE66AE66A12EC51F0006E2C
:10B7E000050EE15E0050EDC1E6FFECC1E6FF4DDE67
:10B7F000E552E552DF6A0101E851DF5C17E2DF50F4
:10B80000040DF3CFE9FFF4CFEAFF000EE926010EA5
:10B81000EA22EECFE6FFEECFE6FFEECFE6FFEFCF78
:10B82000E6FF76DFE55288D8DF2AE5D7DF6A010137
:10B83000EA51DF5C0CE270D8EE52EF50E66E6CD845
:10B84000EF50E66E27DCE552E552DF2AF0D7000123
:10B85000B45120E0100EB45D03E2080EB40304D02E
:10B86000200ED880B455080DF304E66EA4EC57F012
:10B87000E5520001B42B100EB45D08E10101EB2B81
:10B88000EBC1E6FFB8EC70F0E55204D0200EB45DD9
:10B8900001E1B46BD3EC57F0E55230D0E840E8401A
:10B8A0001F0B800D0250F324006E0350F420ADD81E
:10B8B0000450EF121200070B056E010E0552120024
:10B8C000026E036AFD0EDB501200E846FE0B050611
:10B8D0001200046EFE0EDB501200FD0EDBCFE9FFFE
:10B8E000FE0EDBCFEAFF1200E926000EEA2229EF66
:10B8F0005DF0D9CFE6FFE1CFD9FF1200E552E7CFE7
:10B90000D9FF1200FD0EDBCFE6FFFC0EDBCFE6FF1A
:10B91000FB0EDBCFE6FF1200EA6ADF34FE0BEA36ED
:10B92000E96EBA0EE926010EEA221200070EDF14B4
:10B93000056E010E05521200E552E552E552120065
:10B94000020EDBCF00F0030EDBCF01F01200DECFE2
:10B9500000F0DDCF01F0D89001501200080E005C1D
:10B96000000E01581200E66E8AEC71F0E5521200EA
:10B97000046EDF50026E036A1200B9D8FD0EDB5070
:10B980001200AED8DB501200B2D8FD0EDB285BEF00
:10B990005CF09FDF070F60EF5CF09BDF040F60EF50
:10B9A0005CF097DF020F60EF5CF093DF030F60EF56
:10B9B0005CF0BBD860EF5CF08CDF060F60EF5CF0F2
:10B9C000046EFE0EDB2860EF5CF083DF60EF5CF05E
:10B9D000046EFE0EDB28026E036A1200020F5BEF9C
:10B9E0005CF0030F5BEF5CF0040F5BEF5CF0050FA6
:10B9F0005BEF5CF0070F5BEF5CF0060F5BEF5CF05A
:10BA0000DB50F80FE66E6DEF5CF0016E0001C9517E
:10BA10000024E96ECA510120EA6E1200DB50026E6A
:10BA2000036AFE0EDB2877EF5DF063DF020EE1268E
:10BA30001200E66E52DF020E74EF5CF04EDF040E71
:10BA4000EB6A050EEB6A1200E66E47DF060E74EF36
:10BA50005CF0E552E750EE6EED6A120048D84ED722
:10BA6000FE0EDB285BEF5CF0DF5077EF5DF0026EDF
:10BA7000036AFD0EDB28BDEF5CF0030F89EF5DF07C
:10BA80007CDFF4EF5CF079DF5BEF5CF076DFFAEF00
:10BA90005CF0050F8CEF5DF01CDF030FC1EF5CF075
:10BAA000060F8FEF5DF0040F7FEF5DF0040F8FEF57
:10BAB0005DF08EDFFD0EDB287FEF5DF00ADF020F09
:10BAC000C1EF5CF006DF040FC1EF5CF02ED8C1EFD0
:10BAD0005CF0020F89EF5DF06CDF070F7FEF5DF028
:10BAE000026E036AFD0EDB40D9DEFD0E1200E84057
:10BAF0004EEF5CF0FEDEFD0EDB50EEEF5CF03DDF66
:10BB0000F1EF5CF0020F40EF5DF0E3DE060F37EF80
:10BB10005DF033DFF7EF5CF030DFEEEF5CF02DDF50
:10BB2000FDEF5CF0070F46EF5DF0D3DE050F12006E
:10BB3000D4EC62F0FB0EDBCFF3FFDB06F350000921
:10BB40000AE022EC63F0FA0E8DEC63F0F3E1011CE5
:10BB5000F1E1010E01D0000E03EF63F0D4EC62F0CE
:10BB60003B0EE12402E3E168E652E16E010EDB6A7E
:10BB7000020EDB6AF90EDBCFF6FFFA0EDBCFF7FF22
:10BB8000FB0EDBCFF8FF0800F550DF6EDF5002E15F
:10BB900027EF62F0250EDF5C02E01AEF62F0030E81
:10BBA000DB6A040EDB6A050EDB6A060EDB6A070E33
:10BBB000DB6A3CEC62F02D0EDF5C0CE02B0EDF5CF0
:10BBC00009E0200EDF5C06E0230EDF5C03E0300EB0
:10BBD000DF5C1AE1DF50300A14E0130A0FE0030AB9
:10BBE0000AE00B0A05E0060AE4E1030EDB80E1D778
:10BBF000030EDB82DED7030EDB84DBD7030EDB868E
:10BC0000D8D7030EDB88D5D72A0EDF5C1BE138ECD2
:10BC100062F086EC62F010E0030EDB803D683E6867
:10BC2000130EDBCF42F0140EDBCF43F032EC6AF0A0
:10BC3000040E3BC0DBFF03D0130E6FEC62F03CEC54
:10BC400062F00BD0090EDB6ADDEC62F003E051EC30
:10BC500063F0FAD7090E6FEC62F0030EDBB0DB98ED
:10BC60002E0EDF5C1BE13CEC62F02A0EDF5C0BE188
:10BC700038EC62F086EC62F003E1130EC1EC62F086
:10BC80003CEC62F00BD0090EDB6ADDEC62F003E005
:10BC900051EC63F0FAD7090EC1EC62F0680EDF5C7C
:10BCA00007E13CEC62F0680EDF5C1DE1030E18D08A
:10BCB000740EDF5C17E07A0EDF5C14E0480EDF5C88
:10BCC00006E0540EDF5C03E05A0EDF5C02E1020E78
:10BCD00007D06C0EDF5C03E06A0EDF5C04E1010E4E
:10BCE00014EC63F0C9DBDF506E0A01E17FD31E0A5A
:10BCF00001E192D1200A01E18FD13F0A01E149D14E
:10BD00001A0A01E146D10D0A01E143D1200A01E1FD
:10BD100040D13A0A01E13DD1200A01E13AD1260A97
:10BD200001E135D10D0A01E132D11A0A01E1D9D080
:10BD3000200A4AE0300A1FE0460A0EE0250A01E028
:10BD400083D3D950F90FE96EFF0EDA20EA6E010EA7
:10BD5000EE5E000EEE5AEE5A22EC63F0250EE66E11
:10BD600095DB03E1011C01E169D31EEC63F001E204
:10BD70006BD3DB2A69D3080EDB6A040EDB500108A3
:10BD800006E2040EDB04E6EC62F0DB508BDB080E0F
:10BD9000DB5009E0030EDB50010B05E172DB01E033
:10BDA0004DD3080EDB6A64DBEFCFDFFF96EC63F068
:10BDB00003E1011C01E142D31EEC63F001E3DB2A45
:10BDC00060DB01E141D33AD3070EDB5002080FE1FB
:10BDD00062EC63F0030E29EC63F00E0EEECFDBFF96
:10BDE0000F0EEECFDBFF100EEECFDBFF20D0F70EF5
:10BDF000DBCF03F0F80EDBCF04F0020E035E000E83
:10BE0000045AF70E03C0DBFFF80E04C0DBFF03C0CB
:10BE1000E9FF04C0EAFF19EC63F0026A0E0E00C0ED
:10BE2000DBFF0F0E01C0DBFF100E02C0DBFF0E0EAA
:10BE3000DBCFE6FF0F0EDBCFE6FF100EDBCFE6FF1A
:10BE4000C1EC7CF0E552E552E552130E3CC0DBFF3D
:10BE5000140E3DC0DBFF060EDB5005E0130E5DEC5B
:10BE600063F001E26ADB81EC63F002E2130E37DB80
:10BE700044EC63F006E0040E5DEC63F002E2050EB4
:10BE80002EDB030EDBB005D0FCDA01E0D7D2080EC2
:10BE9000DB6A090EDB6A0E0EDBCFF6FF0F0EDBCF7F
:10BEA000F7FF100EDBCFF8FF0800F550DF6EDF5014
:10BEB00014E087EC63F011E296EC63F003E1011CFF
:10BEC00001E1BCD2BBDB01E3DB2A090EDB2AD9503E
:10BED0000E0FE96E000ECBDBE7D7D3DA01E1B4D267
:10BEE000ADD2C6DA110EEECFDBFF120EEDCFDBFFC7
:10BEF000110EDBCFE6FF120EDBCFE6FFB3EC7CF0DA
:10BF0000E552E552130EF3CFDBFF140EF4CFDBFF47
:10BF1000060EDB5004E0130ED0DB01E20EDB81ECF9
:10BF200063F002E2130EDBDAAFDB05E0040EC5DBE3
:10BF300002E2050ED4DA030EDBB005D0A2DA01E08E
:10BF40007DD2080EDB6A090EDB6A110EDBCFE9FF3A
:10BF5000120EDBCFEAFFEFCFDFFFDF5014E0D7DBBD
:10BF600012E2E4DB03E1011C01E168D267DB01E3DB
:10BF7000DB2A090EDB2A110EDB2ADBCFE9FF120ECA
:10BF8000E8E3DB2AE6D77DDA01E15ED257D2030E81
:10BF9000DB8E070EDB0410E195DB040E5ADB0A0E84
:10BFA000EECFDBFF0B0EEECFDBFF0C0EEECFDBFF99
:10BFB0000D0EEECFDBFF6CD0070EDB5003082CE13B
:10BFC000030EDBAE0DD0B2DA020E76DAEFCF00F060
:10BFD000016A026A036A00AE39D00168026835D08E
:10BFE000F70EDBCF01F0F80EDBCF02F0020E015EA0
:10BFF000000E025AF70E01C0DBFFF80E02C0DBFF95
:10C0000001C0E9FF02C0EAFFEFCF00F00A0E00C056
:10C01000DBFF0B0EDB6A38D0070EDB50020809E1AC
:10C02000030EDBAE04D059DB02AE10D00ED055DBD0
:10C030000DD0030EDBAE12D079DA020E3DDAF9DA5A
:10C04000026A036A01AE02D002680368E2DA0C0EEB
:10C0500002C0DBFF0D0E03C0DBFF1AD0F70EDBCFF3
:10C0600002F0F80EDBCF03F0020E025E000E035A60
:10C07000F70E02C0DBFFF80E03C0DBFF02C0E9FFD2
:10C0800003C0EAFFD6DAC5DA0C0EDB6A0D0EDB6AF6
:10C09000060EDB5005E1010EF36E050EF3CFDBFF5C
:10C0A000150EDB6A160EDB6AD950370F006E000ED4
:10C0B000DA20016E390E00C0DBFF3A0E01C0DBFF53
:10C0C000380EDB6A080EDB6A0A0EAEDADF50780A39
:10C0D00012E0200A10E0280A0CE0200A0AE03F0AD9
:10C0E00006E00D0A02E0200A08E1020E05D0080E63
:10C0F00003D0080EDF26100E97DA030EDBBE02D047
:10C10000DB92DB94DB50800B24E08ADAD890030EBC
:10C11000EB50000A08E6000EEE5C000EEE58000E32
:10C12000EE58000EEE5815E213DA40684168426896
:10C1300043687BEC7CF00A0E37C0DBFF0B0E38C087
:10C14000DBFF0C0E39C0DBFF0D0E3AC0DBFF2D0EFE
:10C1500008D0030EDBA202D02B0E03D0DBA408D044
:10C16000200EF36E170EF3CFDBFF150EDB2A02D085
:10C17000170EDB6A050EDB5003E1B7D901E189D068
:10C18000720E006EFB0E016E000E026E070EDBCF0C
:10C1900003F0046A056A066A03C040F004C041F077
:10C1A00005C042F006C043F0D3D941EC7DF0005009
:10C1B0003724F36E01503820F46E02503920F86EA7
:10C1C000F4CFF7FFF3CFF6FF0800090EF5CFDBFF42
:10C1D000580EDF5C0FE1610EF36E090E7BD90AE3A6
:10C1E000200E006E090EDBCFE7FF0050E75E090E60
:10C1F000E7CFDBFF070EDBCF00F0016A026A036ABC
:10C200000FDA00C040F001C041F002C042F003C0AC
:10C2100043F0EECF3BF0EECF3CF0EECF3DF0EFCF72
:10C220003EF041EC7DF03EC0EDFF3DC0EDFF3CC077
:10C23000EDFF3BC0EFFF390EDBCFE9FFDB063A0E27
:10C24000DBCFEAFF01E2DB06090EDBCFEFFF150EC5
:10C25000DB2A4BD995E1030EDBA61DD06F0EDF5C08
:10C2600006E1C1D918E3150EDB285BDA14D0780E8D
:10C27000DF5C09E0580EDF5C06E0620EDF5C03E085
:10C28000420EDF5C08E1020EF36E160EF3CFDBFF09
:10C2900002D0150EDB6A030EDB50100B0EE0040E0D
:10C2A000DBCF00F0050EDB50D880005406E2060E0E
:10C2B000DB5003E1040EDB5034DA95D90AE2050EB7
:10C2C000DBCFE7FF150EDB50E75E050EE7CFDBFFA8
:10C2D00002D0050EDB6A040EDBCF00F0160E45D946
:10C2E000D880005414E2160EDBCFE6FF150EDBCF2C
:10C2F000E6FF040EDBCFE6FF050EDB50E552E75C00
:10C30000E552D880E754E552D880E7545FD9030E50
:10C31000DB50010B0BE1080EDB5008E0B2D801E066
:10C320008DD0080EDB50BED8080EDB6A170EDB502E
:10C3300007E088D9170EF1D903E1011C01E17ED095
:10C34000160EDB5016E07ED9300EE66E9FD802E165
:10C35000011C74E077D9DFCFE6FF39EC7CF0E552C1
:10C36000E552E552F4CF01F00001F31C02E1011C9B
:10C3700065E0050EDBCF00F0160EDB50D8800054D0
:10C3800009E2050EDBCFE7FF160EDB50E75E050E78
:10C39000E7CFDBFF300EE66E050ECBD94FE1390E4D
:10C3A000DB2ADBCFE9FF3A0E01E3DB2ADBCFEAFF32
:10C3B000090EEFCFDBFFDB500EE044D9090EADD9FB
:10C3C00002E1011C3BE0390EDB2ADBCFE9FF3A0E2C
:10C3D000EDE3DB2AEBD755D831E1160EDBCFE6FFD4
:10C3E000080EC3D8E552E7245DD82ED0070EDB50E7
:10C3F000030A1CE0010A14E0030A07E07BD9DBCF43
:10C40000EEFF020EDBCFEDFF1FD0F5D8056A03AEBD
:10C4100002D0046805682CD8BCD805C0EEFF14D043
:10C42000EAD803BE046824D8B4D80ED063D9DBCFD1
:10C43000EFFF0AD07BD905E1011C03E1F368F46842
:10C4400010D0FCD801E3DB2A79D9C3EF5DF0010EEF
:10C45000DBCF00F0020EDBCF01F000C0F3FF01C024
:10C46000F4FF3B0EE15C02E2E16AE552E16ECBD003
:10C4700029D9020E29EF63F061D90800F550DF6E6B
:10C480001200200EE66E080E99EF63F039EC7CF096
:10C49000E552E552E552F3CF00F0F4CF01F0000190
:10C4A000F31C1200006E016AD950010F4DD90050E3
:10C4B000EE260150ED221200045E000E055AF70E22
:10C4C00004C0DBFFF80E05C0DBFF04C0E9FF05C0B8
:10C4D000EAFF1200DBCFF4FFF350F45C1200DB50F4
:10C4E000E76E040EE7CFDBFF12000A0EDBCF00F091
:10C4F0000B0EDBCF01F00C0EDBCF02F00D0EDBCF0D
:10C5000003F000500110021003101200130EEECFC2
:10C51000DBFF140EEDCFDBFF130EDBCF00F0140EAC
:10C52000DBCF01F00001800E01141200F70EDBCF0B
:10C5300004F0F80EDBCF05F01200050EDB50E66EBE
:10C54000D950130F01D9E552E750EE6EED6A120093
:10C550000A0EDBCF3BF00B0EDBCF3CF00C0EDBCF3B
:10C560003DF00D0EDBCF3EF01200DBCFE6FF150EE7
:10C57000DBCFE6FF050EDB50E552E724E552E7246A
:10C580001200DB50CED8010EF36E060EF3CFDBFFA8
:10C590001200EE50EFCFEAFFE96E02C0EEFF03C0DB
:10C5A000EEFF04C0EEFF1200D9CFE6FFDACFE6FFC0
:10C5B000E1CFD9FFE2CFDAFF1200DFCFE6FFE66A74
:10C5C0007BEC7DF0E552E552F3501200E76E080E69
:10C5D000E7CFDBFF1200EECF00F0EECF01F0EFCFA0
:10C5E00002F0036A1200050EDBCF00F0150EDB50DF
:10C5F000D88000541200010EDBCF02F0020EDBCF18
:10C6000003F0046A1200E552E5CFDAFFE7CFD9FF65
:10C6100012000A0E00C0DBFF0B0E01C0DBFF120090
:10C62000D9500A0FA4EF63F0F36E070EF3CFDBFFD0
:10C630001200EECF00F0EFCF01F01200010EDB2A66
:10C64000020E1200FC0EDBCFE6FFFD0EDBCFE6FF95
:10C650001200005E000E015AF70E00C0DBFFF80E5C
:10C6600001C0DBFF00C0E9FF01C0EAFF1200DA20D1
:10C67000EA6EEF2AEECFF6FF000EEF22EECFF7FFC5
:10C68000EF22EECFF8FF1200040EDBCFE6FF130E11
:10C69000DB50E552E75C9ADFDB5004DF060EDB502F
:10C6A0001200090EDB500A0DF350DF24D00FE76EA5
:10C6B000090EE7CFDBFF3CEF62F0DB50F36E050EB7
:10C6C0006AEF62F0F70EDBCF00F0F80EDBCF01F07F
:10C6D0001200DFCFE6FF46EF62F028DF030EECDE4C
:10C6E000EBEF62F098EC5DF0E552E552E552E55271
:10C6F00000091200BDDEEE50EFCFEAFFE96E010E39
:10C700001200130EDB50F36E040E6AEF62F0040E9B
:10C71000DB50F36E090E6AEF62F0DBCFE6FF46EF07
:10C7200062F0E76E050EE7CFDBFF12008BDF69EFEB
:10C7300063F0DBCFE6FF86DF72EF63F0D950F90FCD
:10C74000E96EFF0E37EF63F0E96E000EDA20EA6E55
:02C750001200D5
:0EC7520068EC68F01100D8CFE4FFE0CFE4FF00
:10C76000E46E68EC68F0E550E5CFE0FFE5CFD8FF78
:10C770001000CBDBBBEC67F0FDD75EEC68F06FEC34
:10C7800068F0BC0E005C020E015807E376EC68F01E
:10C79000BC0E025C020E03580DE26FEC68F076EC02
:10C7A00068F00250005C0350015802E2010E03D011
:10C7B000020E01D0000EE552E7CFD9FF12005EEC69
:10C7C00068F0420EE126D1EC50F00001AD510001BD
:10C7D000605D006E61510001AE55016E00500001B8
:10C7E0009D2701509E230001AF510001625D006E44
:10C7F00063510001B055016E005000019F270150A8
:10C80000A0230101C80EFE1939E1FF5137E1E66AA4
:10C81000E66A0E0EE66EEF0E63EC68F09DC000F067
:10C820009EC001F0C80E426E436A9DC03DF09EC09E
:10C830003EF053EC68F0F70E026EEE0EEBDB020EEC
:10C8400036EC68F09FC000F0A0C001F0C80E426E48
:10C85000436A9FC03DF0A0C03EF053EC68F0E00E8C
:10C86000026EEE0ED7DB030E36EC68F000019D6B16
:10C870009E6B9F6BA06B0101FE6BFF6BE66ABADBE0
:10C8800008E260C0ADF061C0AEF062C0AFF063C05E
:10C89000B0F0030EE66EAEDB03E20001060E8F6F12
:10C8A0000101FE2B000EFF23420EE15C02E2E16A71
:10C8B000E552F4D3010EE66E87EC68F0020EE66EE8
:10C8C000C5EC78F0E552F3CF9BF0F4CF9CF0F3CFBA
:10C8D000E6FFF4CFE6FF99C0E6FF9AC0E6FF4DDF22
:10C8E0007DEC68F000018E6FE85005E0945103E1A3
:10C8F000010E946FA1DB8E5102E1946B000C9451F8
:10C900000AE0A5DBE83407E200506408000E015499
:10C9100002E292DB020C94510BE099DBD880E850E4
:10C9200004E79C0E005CFF0E015802E285DB010E5D
:10C930001200C4DB230EE126E66AE66ACA0EE66E42
:10C94000EE0EC1DBB7DFE76E020EE7CFDBFFDB5099
:10C95000020806E10001905100080AE2900708D0A1
:10C96000020EDB0405E1050E0001905D01E2902B53
:10C9700000019151905D030804E1020E915D01E216
:10C98000912B9151905D04E19151000801E29107D2
:10C99000010EDB6A91C0DFFF040E00019125DF5C10
:10C9A00026E2DFCFE6FFE66AB40E006EEE0E016E01
:10C9B000026A00C0E6FFE66E02C0E6FFD950030F30
:10C9C000A1DB94EC7BF0036E070EE15E0350DF50B9
:10C9D0000001905D04E159DB25EC72F003D055DBDA
:10C9E00016EC72F08ADB010EDB2ADF2AD5D7030EA4
:10C9F000E66E44DB05E20001060E8F6F010E906FBC
:10CA0000E66A3CDB09E200018F6990C0EBF190C05F
:10CA1000E6FFB8EC70F0E552230EE15C02E2E16A59
:10CA2000E5523CD3D9CFE6FFE1CFD9FF060EE12690
:10CA300000018F51090A01E12AD2010A01E1DCD18A
:10CA40000F0A01E1D7D1010A01E1CCD0030A01E1CB
:10CA5000C3D0010A63E0050A5AE0010A01E019D2D5
:10CA60002FEC71F0E66A90EC71F0E552E66AE66A46
:10CA70009E0EE66EEE0EE66EF8EC71F0E552E552B3
:10CA8000E552E552E66A010EE66E880EE66EEE0E9F
:10CA9000E66EF8EC71F0E552E552E552E552E66AD1
:10CAA000020EE66E240EE66EEF0EE66EF8EC71F006
:10CAB000E552E552E552E552E66A030EE66E720E65
:10CAC000E66EEE0EE66EF8EC71F0E552E552E552D8
:10CAD000E552E66A040EE66E5C0EE66EEE0EE66E5B
:10CAE000F8EC71F0E552E552E552E552E66A060EC1
:10CAF000E66E460EE66EEE0EE66EF8EC71F0E5526E
:10CB0000E552E552E5520001010E8F6FC3D1CCD939
:10CB1000010803E10001040E8F6FBCD1E66AE66AEA
:10CB2000300EE66EEE0EE66EF8EC71F0E552E55270
:10CB3000E552E552E66A010EE66E1A0EE66EEE0E5C
:10CB4000E66EF8EC71F0E552E552E552E552E66A20
:10CB5000020EE66E040EE66EEE0EE66EF8EC71F076
:10CB6000E552E552E552E552E66A030EE66EEE0E38
:10CB7000E66EED0EE66EF8EC71F0E552E552E55228
:10CB8000E552E66A040EE66ED80EE66EED0EE66E2F
:10CB9000F8EC71F0E552E552E552E552E66A050E11
:10CBA000E66E240EE66EEF0EE66EF8EC71F0E552DE
:10CBB000E552E552E552E66A060EE66E460EE66E70
:10CBC000EE0EE66EF8EC71F0E552E552E552E552F4
:10CBD0000001050E8F6F5ED167D9010802E10001E7
:10CBE0008F2B58D167DEE76E050EE7CFDBFF050E12
:10CBF000DB50020807E100019051000802E2000149
:10CC0000900709D0050EDB0406E1030E0001905DDC
:10CC100002E20001902BE66AE66AC20EE66EED0EB5
:10CC2000E66EF8EC71F0E552E552E552E552E66A3F
:10CC3000010EE66E97C0E6FF98C0E6FFF8EC71F0D3
:10CC4000E552E552E552E552000190510EE1E66AE7
:10CC5000020EE66EAC0EE66EED0EE66E07EC72F0BE
:10CC6000E552E552E552E5520DD0E66A020EE66E57
:10CC7000AC0EE66EED0EE66EF8EC71F0E552E552A4
:10CC8000E552E552000190050EE1E66A030EE66EFC
:10CC9000960EE66EED0EE66E07EC72F0E552E5528A
:10CCA000E552E5520DD0E66A030EE66E960EE66E8C
:10CCB000ED0EE66EF8EC71F0E552E552E552E55204
:10CCC000020E0001905D0EE1E66A040EE66E800E33
:10CCD000E66EED0EE66E07EC72F0E552E552E552B7
:10CCE000E5520DD0E66A040EE66E800EE66EED0E9D
:10CCF000E66EF8EC71F0E552E552E552E552030EAE
:10CD00000001905D0EE1E66A050EE66E6A0EE66EC3
:10CD1000ED0EE66E07EC72F0E552E552E552E55293
:10CD20000DD0E66A050EE66E6A0EE66EED0EE66E54
:10CD3000F8EC71F0E552E552E552E552E66A060E6E
:10CD4000E66E97C0E6FF98C0E6FFF8EC71F0E5529A
:10CD5000E552E552E552E66AC5EC78F0E552DE525E
:10CD6000F3CFDEFFF4CFDDFFDD52010EDBCF00F0AD
:10CD7000020EDBCF01F0580E005C020E015839E2C2
:10CD800000019051030A33E0010A22E0030A0DE09A
:10CD9000010A01E02ED000018F690101EB6BEBC1AC
:10CDA000E6FFB8EC70F0E55224D00001090E8F6F59
:10CDB000640EE66EE66A0BEC71F0E552E552E66A47
:10CDC00090EC71F0E5520001906B0001916B11D075
:10CDD0000001070E8F6F640EE66EE66A0BEC71F0D1
:10CDE000E552E552E66A90EC71F0E55202D0FF00A0
:10CDF00000D050D0E4DC4ED0E66890EC71F0E55203
:10CE0000E66AE66A540EE66EED0EE66E07EC72F028
:10CE1000E552E552E552E552E66A020EE66E3E0E36
:10CE2000E66EED0EE66E07EC72F0E552E552E55265
:10CE3000E552E66A030EE66E280EE66EED0EE66E2D
:10CE400007EC72F0E552E552E552E552E66A040E4F
:10CE5000E66E120EE66EED0EE66E07EC72F0E5522F
:10CE6000E552E552E552D00EE66E070EE66E0BEC8B
:10CE700071F0E552E5520001060E8F6FE66A90EC04
:10CE800071F0E5520101EB6B0001B46B03D051DD91
:10CE900001D000D0060EE15C02E2E16AE552E16EEB
:10CEA000E552E7CFD9FF120081B01FD00001BDC00D
:10CEB00000F0BEC001F0BFC002F0C0C003F0BD2B47
:10CEC000000EBE23BF23C023D880D00E0054070E0F
:10CED0000154000E0254000E035416E2BD6BBE6BEB
:10CEE000BF6BC06B010EBC6F000C0001BC050CE1F8
:10CEF000BD51BE11BF11C01102E1BC6B010CBD07D9
:10CF0000000EBE5BBF5BC05B000CD8D8020EE126F2
:10CF1000580EDE6E020EDD6E9B8CDFCF00F0DF065A
:10CF2000010EDBCF01F001E2DB0600500110F5E15C
:10CF30000F0148693F0E496F06D8020EE15C02E21C
:10CF4000E16AE552ABD0949C8B8C828CB1EC78F08A
:10CF500001EC79F04FEC75F08B8E828EE66A27EC4F
:10CF600058F0E5520101EB6BEBC1E6FFB8EC70F055
:10CF7000E55259EF53F0A2D8020EE126FF0E000150
:10CF80008F5D2DE10001B35106E10001B45103E1D1
:10CF9000010EE66E01D0E66A0A0EE66ED70EE66E68
:10CFA000230EE66E3D0EE66E12EC51F0006E050E9D
:10CFB000E15E005093EC5BF00001CE0504E1CE6B26
:10CFC0000001080E8F6F030EE66E14D808E2000110
:10CFD000060E8F6F906BE66A90EC71F0E55248ECAC
:10CFE0007BF0000901E01EDD020EE15C02E2E16A75
:10CFF000E55254D0C5EC78F0E552F3CFDEFFF4CF24
:10D00000DDFFDECF00F0DDCF01F0580E005C020E38
:10D0100001581200036E046A02C0E6FFE66E04C007
:10D02000E6FFD950020F6ED894EC7BF0056E070E28
:10D03000E15E0550E66A120000019B51995D000116
:10D04000926F00019C519A590001936F12000001E8
:10D050009B51995D026E9A519C55036E00010250DE
:10D06000925D006E03509359016E1200E66ED95026
:10D07000020F48D816EC72F07DEF68F048D8000136
:10D08000580EF35C020EF4581200E66A010EDB50F3
:10D09000020FE66ED950030F82EF68F0E16EE552A1
:10D0A000E7CFD9FF12000CEC6AF03DC000F03EC0A3
:10D0B00001F03DC0E6FF3EC0E6FF1200D9CFE6FF1B
:10D0C000E1CFD9FF1200E66EF8EC71F07DEF68F069
:10D0D000DACFE4FFE652E552E5CFDAFF1200FD0EAB
:10D0E000DBCF00F0FE0EDBCF01F01200FB0EDBCF3A
:10D0F00002F0FC0EDBCF03F01200E552E552E552E0
:10D10000E5521200E66E000EDA20E66E1200C5EC63
:0ED1100078F0E552F3CF99F0F4CF9AF01200C8
:02D11E00369E3B
:10D1200005D0369E3EAE02D03E6C368E3EC038F004
:10D13000376A486A476A860E396E3A6A09EF6BF0B9
:10D14000369E08D0369E3EAE05D03D6C3E1EE86A47
:10D150003E22368E3EC038F03DC037F0486A476AFE
:10D160008E0E396E3A6A09EF6BF0447E366A45ECF2
:10D170006BF05DEC6BF036B6EDEF6AF036A20AD0DC
:10D1800036AA03D036BEEDEF6AF036A4F9EF6AF0A6
:10D19000F6EF6AF036AA05D036ACF9EF6AF0F6EF92
:10D1A0006AF036A00AD036A808D036BE04D036A41D
:10D1B00002D002EF6BF006EF6BF0476A3A6A445018
:10D1C0003F5C466E10E33CC048F03DC037F03EC0C7
:10D1D00038F03FC045F041C03CF042C03DF043C094
:10D1E0003EF0363A09D041C048F042C037F043C063
:10D1F00038F044C045F0466C369E36BC368E45C08D
:10D2000039F036B035EF6BF01A0E466035EF6BF043
:10D21000396A3F6A36A408D03C6C3D1E3E1E3F1E54
:10D22000E86A3D223E223F2236AC08D0486C371EC9
:10D23000381E391EE86A3722382239223B6A4652A4
:10D2400007E03F343E323D323C323B32462EF9D786
:10D250003C5048263D5037223E5038223F5039221C
:10D260003BC047F0369E39AE0BD0476C481E371E88
:10D27000381E391EE86A4822372238223922368E73
:10D2800039A006D0D8803832373248324732452A62
:10D2900045C039F009EF6BF0366A45EC6BF05DEC98
:10D2A0006BF036B6EDEF6AF036A205D036BAEDEF88
:10D2B0006AF0F4EF6AF036BA00EF6BF036A005D0F2
:10D2C00036B8EDEF6AF000EF6BF036B8F4EF6AF0C5
:10D2D0003A6A7F0E3F24396EE86A3A224450395E3A
:10D2E000E86A3A5A1A0E456E3F6A476A486A376AD0
:10D2F000386A41503C5E42503D5A43503E5A000EFF
:10D300003F5A09E741503C2642503D2243503E22BD
:10D31000000E3F2201D0478AD8903C363D363E363B
:10D320003F36D8904736483637363836452EE1D71F
:10D330003E503D103C10D8A4478A09EF6BF0366A86
:10D3400045EC6BF05DEC6BF036B6EDEF6AF036A2B3
:10D3500005D036B8EDEF6AF0F4EF6AF036AA05D0E2
:10D3600036B0EDEF6AF0F4EF6AF036B002D036A8CE
:10D3700002D000EF6BF03A6A44503F24396EE86AFD
:10D380003A227E0E395EE86A3A5A476A486A376A34
:10D39000386A43503E02F4CF38F0F3CF37F04250B2
:10D3A0003E02F3504826F4503722000E38224350F4
:10D3B0003D02F3504826F4503722000E38224150E7
:10D3C0003E02F3504726F4504822000E37223822FE
:10D3D00042503D02F3504726F4504822000E3722B7
:10D3E000382243503C02F3504726F4504822000EA6
:10D3F0003722382241503D02F4504726000E482281
:10D400003722382242503C02F4504726000E482270
:10D410003722382209EF6BF0356A43AE15EF6AF018
:10D42000426C431EE86A4322351E3EAE1DEF6AF091
:10D430003D6C3E1EE86A3E22351E65EC7DF03EBE28
:10D440002DEF6AF035AE000C3D6C3E1EE86A3E22C0
:10D45000396C3A1EE86A3A22000C35BE24EF6AF0B5
:10D460003688FF0C3EC048F03DC047F03D504202B8
:10D47000F4CF3CF0F3CF3BF03E504302F4CF3EF00C
:10D48000F3CF3DF04202F3503C26F4503D22E86ACF
:10D490003E2247504302F3503C26F4503D22E86AB6
:10D4A0003E2243AE58EF6AF047503D5E48503E5A28
:10D4B00048AE000C42503D5E43503E5A000C366A66
:10D4C00045EC6BF036B669EF6AF036A20AD036B496
:10D4D00003D07F0E3E6E19D0800E3E6E16D03E6A8F
:10D4E00014D036B0FCD7870E3F60F1D77E0E3F6474
:10D4F000F6D7860E3F5C04E0D8903E323F2AF9D73B
:10D5000036A403D03E6C3EAEEAD7120098EC6AF027
:10D5100036B6000C36B0000C36B4000C010C98EC9A
:10D520006AF036B6000C36B0000C36A4000C010CC4
:10D53000366A45EC6BF05DEC6BF036B6120036AE39
:10D5400008D036A004D036A802D03680120036901B
:10D55000120044503F5C0BE143503E5C08E14250F6
:10D560003D5C05E141503C5C02E136801200D8A0F0
:10D5700002D0368E10D03F5044C03FF0446E3E5033
:10D5800043C03EF0436E3D5042C03DF0426E3C50C1
:10D5900041C03CF0416E44503F5C10E0FF0F09E099
:10D5A000369036B403D036AE3684120036AE36949A
:10D5B0001200442AD89043324232413241503C5EFC
:10D5C00042503D5A43503E5A3EBEEAD7D8903C3670
:10D5D0003D363E363F2EF8D7C8D77F0E3F6EFF0E42
:10D5E0003E6E3D6E3C6E12007F0E36BEFF0E3F6EED
:10D5F00002D07F0E3F6E800E3E6E3D6A3C6AF3D7CE
:10D6000036AE04D0800E3F6E3E6AF7D73F6A3E6A60
:10D61000F4D73850371048104710F8E03ABEF0D72A
:10D6200038BE0CD039503A10EBE0D8904736483627
:10D63000373638363906D8A03A06F2D73A50D4E110
:10D640003928D2E047AE11D07F0E471402E148A03E
:10D650000CD0482AE86A3722382207E3D8803832CB
:10D6600037324832392A3928BFE03950C9E048C03A
:10D670003CF037C03DF038343E6E39303F6E3E32BC
:10D680003F9E36BE3F8EF3EF6AF03E363F3602E3F2
:10D690003684367E06E136803F6A3E6A3D6A3C6AE1
:10D6A00012003F2803E0D8803E321200D8903E326C
:10D6B00002E136821200368612004336443602E317
:10D6C000368C367E06E13688446A436A426A416A8D
:10D6D0001200442803E0D88043321200D89043322D
:10D6E000EAE1368A1200369E0CD0369E3EAE09D054
:10D6F0003B6C3C1E3D1E3E1EE86A3C223D223E2203
:10D70000368E3EC038F03DC037F03CC048F03BC0DC
:10D7100047F09E0E396E3A6A09EF6BF0366A45ECB7
:10D720006BF036B698EF6BF036A20ED036B405D05B
:10D730007F0E3E6EFF0E3D6E1FD0800E3E6E3D6A28
:10D740001BD03E6A3D6A18D036B0FBD78F0E3F60C3
:10D75000EDD77E0E3F64F5D78E0E3F5C05E0D89086
:10D760003E323D323F2AF8D736A406D03D6C3E1EED
:10D77000E86A3E223EAEE5D71200366A45EC6BF011
:10D7800036B6C7EF6BF036A20FD036B407D07F0E97
:10D790003E6EFF0E3D6E3C6E3B6E25D0800E3E6EA3
:10D7A00001D03E6A000EF6D736B0FBD73B6A9F0E1B
:10D7B0003F60EBD77E0E3F64F4D79E0E3F5C07E0E0
:10D7C000D8903E323D323C323B323F2AF6D736A427
:10D7D0000AD03B6C3C1E3D1E3E1EE86A3C223D22A8
:08D7E0003E223EAEDED712002E
:08D7E800D9CFE6FFDACFE6FF1E
:10D7F000E1CFD9FFE2CFDAFF220EE12402E3E168B4
:10D80000E652E16ED950130FE66E000EDA20E66E96
:10D81000A8DA00EC7AF0006E060EE15C02E2E16A42
:10D82000E552E16E0050E76E0E0EE7CFDBFFDB50F6
:10D83000840B0CE0210E0001CB6FCC6B0F0EDB686C
:10D84000100EDB68110EDB687F0E6ED08ADA36DAD6
:10D85000020E3BC0DBFF030E3CC0DBFF040E3DC0ED
:10D86000DBFF050E3EC0DBFF87DA416A100E426E19
:10D87000490E436E460E14DA8FEC6AF0010A32E06C
:10D880007BDA67DA0DDA4CEC69F0BFD9060EDBCF34
:10D890003CF0070EDBCF3DF0080EDBCF3EF0090E6B
:10D8A000DBCF3FF0BDEC6BF075EC6BF0AED964DA1A
:10D8B000060EDBCF08F0070EDBCF09F0080EDBCF3A
:10D8C0000AF0090EDBCF0BF044DA446E08C03CF0DE
:10D8D00009C03DF00AC03EF00BC03FF048DAB5EC9D
:10D8E00068F0C4D9F90EDB5012E00E0EDB040BE138
:10D8F000FA0EDBCF00F0FB0EDBCF01F0FC0EDBCF2E
:10D9000002F0FD0E52D167D9436AF8D947D00E0E06
:10D91000DB0419E10F0EDB6A100EDB6A800EF36E7A
:10D92000110EF3CFDBFF3F0EF36E120EF3CFDBFFD2
:10D930000F0EDBCF00F0100EDBCF01F0110EDBCFAE
:10D9400002F0120E32D1190EDB6A45D9800E436EF9
:10D95000D5D9006A016A026A3F0E036ED950060FDC
:10D96000E96E000EDA20EA6EEECF3CF0EECF3DF02D
:10D97000EECF3EF0EFCF3FF000C041F001C042F0EB
:10D9800002C043F003C044F0B5EC68F03FC0EDFFC7
:10D990003EC0EDFF3DC0EDFF3CC0EFFFDF50010B8F
:10D9A0000AE0190EDB5002E0000E01D0010EE76E16
:10D9B000190EE7CFDBFF8CD9060EDBCF0CF0070E7C
:10D9C000DBCF0DF0080EDBCF0EF0090EDBCF0FF032
:10D9D000416A426A490E436E400E446E0CC03CF0F0
:10D9E0000DC03DF00EC03EF00FC03FF09FEC69F05F
:10D9F0005CD9A6D995D9B5EC68F077D9060EDBCFFE
:10DA000014F0070EDBCF15F0080EDBCF16F0090E71
:10DA1000DBCF17F0220E416EAA0E426E7D0E436ED2
:10DA20003A0E446E14C03CF015C03DF016C03EF0F6
:10DA300017C03FF09FEC69F03CC010F03DC011F002
:10DA40003EC012F03FC013F0EDD8B5EC68F00A0EFE
:10DA50003CC0DBFF0B0E3DC0DBFF0C0E3EC0DBFF0E
:10DA60000D0E3FC0DBFFD9500A0FE96E000EEAD859
:10DA700025D93BC000F03CC001F03DC002F03EC0E3
:10DA800003F0416A426A800E436E390E446E3BC019
:10DA90003CF04FD98FEC6AF0010A13E1D9500A0F1C
:10DAA000E96E000EDA20EA6E020EEECFDBFF030E07
:10DAB000EECFDBFF040EEECFDBFF050EEECFDBFF7C
:10DAC00068D0E1D80A0EDBCF41F00B0EDBCF42F07D
:10DAD0000C0EDBCF43F00D0EDBCF44F09FEC69F072
:10DAE0001A0E3CC0DBFF1B0E3DC0DBFF1C0E3EC010
:10DAF000DBFF1D0E3FC0DBFF5B0E3C6E9C0E3D6EE0
:10DB00002E0E3E6E360E3F6E72D8CFD8220E416E6C
:10DB1000B20E426E4F0E436EB90E32D99ED83E0EF3
:10DB2000416E870E426E080E436E3C0E29D9DDD839
:10DB3000A40E416EAA0E426E2A0E436EBE0E20D96E
:10DB40001E0E3CC0DBFF1F0E3DC0DBFF200E3EC0A3
:10DB5000DBFF210E3FC0DBFF0A0EDBCF00F00B0E18
:10DB6000DBCF01F00C0EDBCF02F00D0EDBCF03F0AC
:10DB70008AD81E0EDBCF41F01F0EDBCF42F0200E05
:10DB8000DBCF43F0210EDBCF44F0F1D8B6EC68F0E8
:10DB90006DD8190EDB5008E09BD8416A426A800EAE
:10DBA000436EBF0EF0D803D042D8DBCF03F000C0E5
:10DBB0003BF001C03CF002C03DF003C03EF0220E3D
:10DBC000E15C02E2E16AE552E16EE552E5CFDAFF9F
:10DBD000E7CFD9FF12007CD8830E416EF90E426E5A
:10DBE000A20E436E3E0ECFD8416A426A12001A0E50
:10DBF000DBCF41F01B0EDBCF42F01C0EDBCF43F03E
:10DC00001D0EDBCF44F09FEF69F0060E3CC0DBFF3A
:10DC1000070E3DC0DBFF080E3EC0DBFF090E3FC014
:10DC2000DBFF12008DD800C03CF099EF6EF0020EC1
:10DC3000DBCF00F0030EDBCF01F0040EDBCF02F0F0
:10DC4000050E1200DA20EA6EEECFE6FFEECFE6FF19
:10DC5000EECFE6FFEFCFE6FF12003CC004F03DC080
:10DC600005F03EC006F03FC007F01200020E3CC0B7
:10DC7000DBFF030E3DC0DBFF040E3EC0DBFF050EE5
:10DC80003FC0DBFF12000A0EDBCF3CF00B0EDBCFF8
:10DC90003DF00C0EDBCF3EF00D0EDBCF3FF012005F
:10DCA000446E00C03CF099EF6EF03CC008F03DC0FF
:10DCB00009F03EC00AF03FC00BF01200E6EC7CF029
:10DCC000E552E552E552E5521200446EB6EF68F0B7
:10DCD000020EDBCF04F0030EDBCF05F0040EDBCF2A
:10DCE00006F0050EDBCF07F012003CC000F03DC08F
:10DCF00001F03EC002F03FC003F012003F0EE5DF2E
:10DD00008EEC6BF03DC0DEFF3EC0DDFF000EDFCFCE
:10DD10003DF0010EDBCF3EF0A2EC68F005EF6EF0B7
:10DD200004C03CF005C03DF006C03EF007C03FF027
:10DD3000120001C03DF002C03EF003C03FF01200EF
:10DD40003CC041F03DC042F03EC043F03FC044F013
:10DD50001200DB0E416E0F0E426EC90E436E400E76
:10DD60001200D950FA0FE96EFF0E22EF6EF09FEC11
:10DD700069F073DF12EF6EF05ADFDBCF03F01200B1
:10DD8000A4DFF7EF6DF0446ECBDF9FEC69F075EF29
:02DD90006EF033
:0EDD920025DAE652DF6A0101E851DF5C28E283
:10DDA000DF50040DF3CFE9FFF4CFEAFF000EE926C0
:10DDB000010EEA22EECFE6FFEECFE6FFEECFE6FF62
:10DDC000EFCFE6FFDF50080DF3CF00F0F4CF01F006
:10DDD000380E0026010E012200C0E6FF01C0E6FF5A
:10DDE0003AEC57F0026E060EE15E0250DF2AD4D7FD
:10DDF000E552FAD1F4D9FE0EECD93CC066F03DC034
:10DE000067F03EC068F03FC069F0FD0EE2D93CC04B
:10DE10006AF03DC06BF03EC06CF03FC06DF0000199
:10DE20006E6B6F6B706B716B00017A6B7B6B7C6BD5
:10DE30007D6B7AC076F07BC077F07CC078F07DC0D7
:10DE400079F07AC072F07BC073F07CC074F07DC052
:10DE500075F00001866B876B886B896B86C082F0DA
:10DE600087C083F088C084F089C085F086C07EF0CA
:10DE700087C07FF088C080F089C081F0B5D10101F2
:10DE8000020EE86FEA6BE96BB8D9016B460EE1EF61
:10DE900070F00101020EE86F060EEA6FE96B070EE3
:10DEA000EC6FED6F310E86D90101036B1F0E006F11
:10DEB000280E016F570E026F010E076F3D0E046FA3
:10DEC0001A0E056F260E066F3A0EBA6F070EBB6F5D
:10DED0003A0EBC6F310EBD6F6E0EBE6F1C0EBF6F63
:10DEE000070EC06F1C0EC16F6E0EC26F070EC36FA0
:10DEF000C46F310EC56F120001010A0EE86F030EE8
:10DF0000EA6FE96B070E81D973D91E0E016F7F0E80
:10DF1000026F076B280E046F056B610E066F0B6BAB
:10DF2000120E086F4D0E096F610E0A6F0F6B100E07
:10DF30000C6F4D0E0D6F610E0E6F136B020E106F96
:10DF40002F0E116F430E126F176B040E146F2F0EEE
:10DF5000156F430E166F1B6B260E186F390E196F57
:10DF60004D0E1A6F1F6B240E1C6F390E1D6F4D0E58
:10DF70001E6F236B160E206F6B0E216F7F0E226FAC
:10DF8000276B180E246F6B0E256F7F0E266F070E02
:10DF9000BA6FBB6F6E0EBC6F310EBD6F070EBE6FDA
:10DFA000190EBF6F12000101E86B160EEA6FE96BE4
:10DFB0002CD90101070EBA6F060EBB6F070EBC6F9E
:10DFC000110EBD6F070EBE6F1C0EBF6F070EC06F28
:10DFD000270EC16F070EC26F320EC36F160EC46FCD
:10DFE000060EC56F250EC66F060EC76F340EC86FBE
:10DFF000060EC96F430ECA6F060ECB6F520ECC6F62
:10E00000060ECD6F620ECE6F060ECF6F6F0ED06F05
:10E010001C0ED16F6F0ED26F270ED36F6F0ED46FA1
:10E02000320ED56F250ED66F320ED76F340ED86FE5
:10E03000320ED96F430EDA6F320EDB6F520EDC6F89
:10E04000320EDD6F620EDE6F320EDF6F430EE06F59
:10E05000110EE16F430EE26F1C0EE36F250EE46FAD
:10E06000270EE56F12000101030EE86FEA6B010E47
:10E07000E96FC3D8280E016F800EA3D80B6B1E0E5C
:10E08000086F096B500E0A6F1F0EAD6F020EA86F5E
:10E09000010EAB6F080EA96F010EAA6F12000101ED
:10E0A000060EE86F020EEA6F030EE96F0A0EEC6FC0
:10E0B000340EED6F7FD80101010E036F1E0E006F4D
:10E0C000200E016F3F0E026F010E076F3E0E046FB0
:10E0D000056B200E066F010E0B6F5E0E086F200E93
:10E0E000096F400E0A6F010E0F6F1E0E0C6F0D0EA2
:10E0F0000D6F150E0E6F010E136F3E0E106F2C0E6E
:10E10000116F340E126F010E176F5E0E146F0D0E2D
:10E11000156F150E166F0D0EAC6F150EAD6F030E4D
:10E12000A86F010EAB6F090EA96F030EAA6F0D0E3B
:10E13000B26F150EB36F050EAE6F010EB16F090E03
:10E14000AF6F010EB06F2B0EB86F330EB96F040EA8
:10E15000B46F010EB76F090EB56F020EB66F2C0EBD
:10E16000BA6F1C0EBB6F4C0EBC6F1C0EBD6F120045
:10E1700036D8FE0EDB50060A18E0030A14E0010A46
:10E1800010E0070A0CE0010A08E0030A04E0010AB3
:10E190000FE175DE0DD07DDE0BD0AEDE09D003DFE2
:10E1A00007D061DF05D07BDF03D00001010ECE6F09
:10E1B000F0DD1AD0E66E6E0EE66E1CDEE552E5521C
:10E1C0001200026F076B280E046F056F800E066F3A
:10E1D0001200DBCF00F000C03EF08FEF68F0D9CF27
:10E1E000E6FFE1CFD9FF1200E552E7CFD9FF1200D9
:10E1F0000101036B140E006F12000A0EEC6F070E84
:10E20000ED6F340ED7DFF8EF70F0EC6F310EED6F7D
:06E21000070EDAEF70F0CA
:0AE21600CED9FD0EDBCF00F0DB06D1
:10E22000FE0EDBCF01F001E2DB060050011010E032
:10E23000DE6ADD6ADECF00F0DDCF01F0E30E005CC8
:10E240000D0E0158E9E2DF2A010EF4E3DB2AF2D7D2
:10E25000020EE15C02E2E16AE552E16E6BD1F6D9B1
:10E26000040EE1268D9296928D9096908D849694D0
:10E270008A9A939A8A8893988A98A0D97CD902E23C
:10E280008FD9FCD78A889AD976D902E289D9FCD766
:10E29000AE0E3AD9DB0E38D9230E36D9D90E34D981
:10E2A000220E32D9A10E30D9C80E2ED9DA0E2CD9B1
:10E2B000120E2AD9A80E28D93F0E26D9D50E24D958
:10E2C000A00E22D9810E20D9600E1ED9D30E1CD9E2
:10E2D000E66AC1D9A60E18D9AD0E16D98B0E14D97F
:10E2E000E66A1ED8E552AF0E0FD9960EE66EE66AC4
:10E2F00092DFE552E552A40E07D9400E05D9020E71
:10E3000003D9100E01D9040EE15C02E2E16AE55284
:10E31000E16E10D13DD98A9A93D13AD98A8A90D1A7
:10E3200095D90101B00EF96FB80EF95D1EE2F9C181
:10E33000E6FF91D9E66A8FD9100EE6D80101FA6B93
:10E34000FA51006E016AD890015004E6840E005C18
:10E35000000E015808E2FE0EDBCFE6FFDEDFE552DD
:10E360000101FA2BEDD7F92BDFD7E4D033D9F6BE74
:10E37000F768BCD80800F550CAD8F6BEF768B6D81A
:10E38000010E52D9F6BEF768B1D8020E4DD9F6BECD
:10E39000F768ACD8030E48D9F6BEF768A7D8040EC4
:10E3A000DED8F55049D9E66AB8DFE552C3D012D9B4
:10E3B000F6BEF7689BD80800F51CA9D8F6BEF7682A
:10E3C00095D8010E35D9F6BEF76890D8020E30D92F
:10E3D000F6BEF7688BD8030E2BD9F6BEF76886D841
:10E3E000040EBDD8F51C28D9E66897DFE552A2D007
:10E3F00094D8A4D80AE012D9A1D8E66EB7DFB4D871
:10E4000001E3DB2A060EDF26F4D7E55293D085D848
:10E4100095D80AE003D992D8E66EC9DFA5D801E302
:10E42000DB2A060EDF26F4D7E55284D076D88FD8C3
:10E430000AE0F4D88CD8E66E99DF96D801E3DB2A9F
:10E44000060EDF26F4D7E55275D067D880D80AE0EB
:10E45000E5D87DD8E66EABDF87D801E3DB2A060E70
:10E46000DF26F4D7E55266D0A5D8DE6ADD6A006EF5
:10E47000FA0EABD8FA0EE7CFDBFFF90EDB50B00F88
:10E480000101FB6FFB0EDB50B00FFB5D28E2FBC10F
:10E49000E6FFE1D8FA0EDB500F0B36D8FA0EDB3868
:10E4A0000F0B0F0B100930D80101FC6BFC0EDB5079
:10E4B000FC5D13E2DF2A010E01E3DB2AFD0EDBCF58
:10E4C000F6FFDB2AFE0EDBCFF7FF01E3DB2A0800B5
:10E4D000F550B2D80101FC2BE9D7FB2BD3D7020EA4
:10E4E000E15C02E2E16AE552E16E24D0050EF7023A
:10E4F000F3CFF7FFF602F3CFF6FFF450F7263A0E0C
:10E50000F626EF0EF7221200E66E2BEF73F094D88A
:10E51000FE0EDBCFF6FFF76A120098D8E652FB0E2C
:10E52000DB50DF6EFC0EDB50B10FE76EFC0EE7CF69
:10E53000DBFF1200E552E7CFD9FF1200FD0EDBCF63
:10E54000F6FFFE0EDBCFF7FF0800F5501200FD0EC0
:10E55000DBCFE9FFFE0EDBCFEAFFEF501200F6261D
:10E56000000EF72208001200E552E552E552FD0EBA
:10E57000DB2AFE0E1200D9CFE9FFDACFEAFF640EE4
:10E58000EE5C000EEE58000EEE58000EEE58120033
:10E590005DD8956AFE0EDB508C6E8D808D821200E8
:10E5A000D9CFE9FFDACFEAFFEE2A000EEE22EE2203
:10E5B000EE2212004BD8020EE1261200DE6ADE6A5D
:10E5C000DE6ADD6ADD52DD521200DBCFE7FF00506C
:10E5D000E72612003BD8200E006EFE0EDBCFE7FFD1
:10E5E0000050E75EFE0EE7CFDBFFFD0EDBCFE6FF60
:10E5F00032D8020E006EFC0EE8DFFC0EE7CFDBFF28
:10E60000DB500F0B81DFFC0EDB380F0B0F0B100FF5
:10E610007BDFFE0EDBCFF6FFF76A1200DFCFE6FFEF
:10E62000FC0EDBCFE6FF12009ADFF55087EF72F0A9
:10E6300096DFF51C87EF72F0E66E6FDEE552120092
:10E640008D948D928D828D84956874D7D9CFE6FF95
:0CE65000E1CFD9FF12005EDEE55212009F
:04E65C00D9CFE6FF2D
:10E66000DACFE6FFE1CFD9FFE2CFDAFF240EE124D3
:10E6700002E3E168E652E16ED950FA0FE96EFF0E4F
:10E68000DA20EA6E020EEECFDBFF030EEECFDBFFE9
:10E69000040EEECFDBFF050EEECFDBFFE8D9F2D99B
:10E6A00000EC7AF0006E060EE15C02E2E16AE552EF
:10E6B000E16E0050E76E0D0EE7CFDBFFDB50800808
:10E6C00015E0A0D9416A426A436A446A00C03CF03E
:10E6D00001C03DF002C03EF003C03FF08FEC6AF095
:10E6E000010A10E1210E0001CB6FCC6B020EDB683A
:10E6F000030EDB68040EDB687F0EF36E050EF3CFAE
:10E70000DBFF66D10D0EDB50050B01E061D10A0E77
:10E71000DBCF00F00B0EDBCF01F0830E0026FF0EE7
:10E72000012200C0DEFF01C0DDFFD950060F65D910
:10E7300076D9DF50010B0FE0DF06010E01E2DB06A8
:10E74000D950180F5AD9D890EF36010EEB36020E79
:10E75000EB36030EEB36D9CFE9FFDACFEAFF020E34
:10E76000426E436AEECF3DF0EDCF3EF00CEC6AF026
:10E770003DC0EEFF3EC0EDFF140EDB6A150EDB6AF6
:10E78000160EDB6A170EDB6A1C0EDB6A1D0EDB6AD7
:10E790001E0EDB6A010EF36E1F0EF3CFDBFF010EC0
:10E7A000F36E0E0EF3CFDBFF0F0EDB6A0E0EDBCF28
:10E7B00000F00F0EDBCF01F0D890015004E61A0EE6
:10E7C000005C000E015801E398D0180EDBCF00F07A
:10E7D000190EDBCF01F01A0EDBCF02F01B0EDBCFE0
:10E7E00003F0010E1F0B07E0D89000360136023609
:10E7F0000336E806F9E1180E00C0DBFF190E01C070
:10E80000DBFF1A0E02C0DBFF1B0E03C0DBFF140E82
:10E81000DBCF08F0150EDBCF09F0160EDBCF0AF0C8
:10E82000170EDBCF0BF0010E1F0B07E0D890083658
:10E8300009360A360B36E806F9E1D9501C0FDDD847
:10E840000850EE24046E0950EE20056E0A50EE20AA
:10E85000066E0B50EE20076ED950180FCED804501C
:10E86000EE5C006E0550EE58016E0650EE58026EDA
:10E870000750EE58036E200E00C0DBFF210E01C0D2
:10E88000DBFF220E02C0DBFF230E03C0DBFF200EE6
:10E89000DBCF3CF0210EDBCF3DF0220EDBCF3EF094
:10E8A000230EDBCF3FF03F34000E3F1809E6D8803F
:10E8B000000E3C54000E3D54000E3E54000E3F54DA
:10E8C00011E2D950200F99D8AAD8D8D81C0EDB5005
:10E8D000EE121D0EDB50EE121E0EDB50EE121F0E5E
:10E8E000DB50EE12D9501C0F88D8AFD80E0EDB2AA1
:10E8F0000F0E01E25BD7DB2A59D7C9D8100E00C032
:10E90000DBFF110E01C0DBFF180EDBCF3DF0190E4F
:10E91000DBCF3EF0120E3DC0DBFF130E3EC0DBFF2F
:10E92000ADD893D8D950100F68D8EE50ED1012E042
:10E93000D950120F62D8EE50ED1006E1A8D8005061
:10E9400001100210031006E099D8EE2A000EEE2204
:10E95000EE22EE220C0EDB6A91D8060EEECFDBFF24
:10E96000070EEECFDBFF080EEECFDBFF090EEECF7A
:10E97000DBFF7E0EF36E0A0EF3CFDBFF0B0EDB6ABE
:10E98000D950020FE66E000EDA20E66E70D88EECDB
:10E990007AF0E552E552E552E552DECFE6FFDDCFF3
:10E9A000E6FF70D864EC79F0006E060EE15C02E2DE
:10E9B000E16AE552E16E0050020E3BC0DBFF030E40
:10E9C0003CC0DBFF040E3DC0DBFF050E3EC0DBFF9D
:10E9D00019D800C03BF001C03CF002C03DF003C0BC
:10E9E0003EF0240EE15C02E2E16AE552E16EE5529E
:10E9F000E5CFDAFFE7CFD9FF1200E96E000EDA208B
:10EA0000EA6E1200020EDBCF00F0030EDBCF01F046
:10EA1000040EDBCF02F0050EDBCF03F01200180E60
:10EA2000EECFDBFF190EEECFDBFF1A0EEECFDBFFD2
:10EA30001B0EEECFDBFF1200EECFE6FFEECFE6FFC0
:10EA4000EECFE6FFEFCFE6FF1200D890030EEB32D9
:10EA5000020EEB32010EEB32EF321200EE500016D6
:10EA6000EE500116EE500216EE5003161200D95069
:10EA7000060FE66E000EDA20E66E1200D950140F73
:10EA8000FDEF74F0D950020FB8DF1CEF75F0010EE6
:0EEA9000006E016A026A036AF1DF2EEF75F074
:02EA9E00D9CFCE
:10EAA000E6FFE1CFD9FF030EE12659D8736A820E43
:10EAB000726E739C94949396958C7288728A949ECD
:10EAC000E66AD0D8E552E76E020EE7CFDBFF000022
:10EAD000D950020FE96EDACFEAFFEF50070B0208B8
:10EAE00001E00000140EE66EBDD8E552E76E020E9E
:10EAF000E7CFDBFF020EDB96DB88020EDB80DB92CA
:10EB0000DB94020EDBCFE6FF140EE66E3AD8E55238
:10EB1000E552010EE66EA6D8E552DE6EDD6A000013
:10EB2000110EE66E9FD8E552DE6EDD6A0000E66AE1
:10EB3000110EE66E26D8E552E5520000110EE66E83
:10EB400091D8E552DE6EDD6A0000030EE15C02E260
:10EB5000E16AE552E16EE552E7CFD9FF1200550EAA
:10EB6000A76EAA0EA76E0E01FF91090ECC6F0A0EBA
:10EB7000D36F170EFB6F550EA76EAA0EA76EFF81FF
:10EB80001200D9CFE6FFE1CFD9FFE652DF6AFE0ED1
:10EB9000DB50140804E0FE0EDB50340806E1140ECE
:10EBA000E66E60D8E552E00BDF6E8B9EA49EFE0EF3
:10EBB000DB50756EA4AEFED7000000000000000020
:10EBC0000000000000000000000000000000000045
:10EBD0000000000000000000000000000000000035
:10EBE0000000000000000000000000000000000025
:10EBF0000000000000000000000000000000000015
:10EC00000000000000000000000000000000000004
:10EC100000000000000000000000000000000000F4
:10EC200000000000000000000000000000000000E4
:10EC30000000000000000000A49EFE0EDB500A0849
:10EC400005E1FD0EDB507F0B756E04D0FD0EDB5031
:10EC5000DF10756EA4AEFED78B8EE552E552E7CF7E
:10EC6000D9FF1200D9CFE6FFE1CFD9FF8B9EA49E3A
:10EC7000FE0EDB508009756EA4AEFED700000000CA
:10EC80000000000000000000000000000000000084
:10EC90000000000000000000000000000000000074
:10ECA0000000000000000000000000000000000064
:10ECB0000000000000000000000000000000000054
:10ECC0000000000000000000000000000000000044
:10ECD0000000000000000000000000000000000034
:10ECE0000000000000000000000000000000000024
:10ECF000000000000000000000000000A49E756AF3
:10ED0000A4AEFED78B8E755000D0E552E7CFD9FF69
:02ED10001200EF
:0EED120020202050524543494F55532074692C
:10ED20006D65203A2920200020596F75206A75737F
:10ED30007420776173746520796F757220002020CC
:10ED400020596F7520776F6E206E6F7468696E67DB
:10ED5000202020002020434F524E47524154554C12
:10ED60004154494F4E5321202000202020202020B4
:10ED7000515549542047414D452020202020200056
:10ED800020202020202043414C494252415445201C
:10ED9000202020202000202020202053454C4543C7
:10EDA00054204C4556454C20202020002020202077
:10EDB00020204E4557202047414D4520202020202F
:10EDC00020002020204C41424952594E54482020D6
:10EDD0004D454E552020200020332E204861766579
:10EDE000206120676F6F642074696D652E00207448
:10EDF0006F206D6F7665207468652062616C6C2E83
:10EE00002020200020322E2054696C742074686504
:10EE100020626F617264202020002073656C65633E
:10EE200074206D656E75206974656D732E202000E9
:10EE300020312E20557365207363726F6C6C2074C3
:10EE40006F20202020005072657373204D656E7511
:10EE500020746F2070726F6365656400206D62744A
:10EE600075726E6B657964657369676E2E636F6D1D
:10EE7000200020204D42205475726E6B657920442D
:10EE8000657369676E20200020202062792044612C
:10EE90006E69656C20537A6F742020202000204C0E
:10EEA00061627972696E74682044656D6F20763195
:10EEB0002E302000202020202020204C6576656CFC
:10EEC00020256420202020202000202020205345C1
:10EED0004C45435420204C4556454C2020202000D2
:10EEE000202020593A202025642020202020202086
:10EEF00020202020202000202020583A2020256497
:10EF00002020202020202020202020202000202021
:10EF10002043414C4942524154452053454E534FA2
:10EF200052202000202020202020202020202020CF
:0AEF300020202020202020202000B7
:06EF3A00000000000000D1
:10EF4000004F00000007000700147F147F14242ADC
:10EF50007F2A1223130864623649552250000503A4
:10EF60000000001C2241000041221C0014083E0841
:10EF70001408083E08080050300000080808080877
:10EF8000006060000020100804023E5149453E0028
:10EF9000427F400042615149462141454B3118149E
:10EFA000127F1027454545393C4A494930017109CE
:10EFB00005033649494936064949291E00363600B7
:10EFC00000005636000008142241001414141414D2
:10EFD00000412214080201510906324979413E7E5E
:10EFE0001111117E7F494949363E414141227F41FD
:10EFF00041221C7F494949417F090909013E414994
:10F00000497A7F0808087F00417F41002040413F46
:10F01000017F081422417F404040407F020C027F64
:10F020007F0408107F3E4141413E7F090909063EA9
:10F030004151215E7F09192946464949493101015B
:10F040007F01013F4040403F1F2040201F3F40388C
:10F05000403F63140814630708700807615149456D
:10F0600043007F41410002040810200041417F001D
:10F07000040201020440404040400001020400201C
:10F08000545454787F4844443838444444203844E5
:10F0900044487F3854545418087E0901020C5252D7
:10F0A000523E7F0804047800447D40002040443DE7
:10F0B000007F1028440000417F40007C0418047841
:10F0C0007C0804047838444444387C141414080838
:10F0D0001414187C7C080404084854545420043F39
:10F0E0004440203C4040207C1C2040201C3C4030C0
:10F0F000403C44281028440C5050503C4464544C2C
:10F1000044000836410000007F000000413608003E
:05F110000201020402EF
:01F1150000F9
:0AF11600030EB16EB392B390B396EE
:10F12000B288B28EB290B292A494B38E12002F0E17
:10F13000926E0F01E00E486F1F0E496FC18EC19C89
:10F14000C70EC1140809C16EF80EC1140209C16EC0
:10F15000498FC29CC29EC30EC2140809C26EC280EF
:10F160001200D9DF97EF78F00000000000000000E7
:10F17000000000000000000000000000000000008F
:10F1800000000000000000001200D9CFE6FFE1CF30
:10F19000D9FF020EE126FE0EDB500F0BF36EF34695
:10F1A000F346C30EC214F310C26EFE0E86D8EF50A3
:10F1B0003F0BF36EF346F346030EB114F310B16E3A
:10F1C000B38EB382D1DFB392B280CEDFB2909E9C79
:10F1D000C2829EACFED7C3CFDEFFC4CFDDFFDECF41
:10F1E00000F0DDCF01F000C0F3FF01C0F4FF020E1C
:10F1F000E15C02E2E16AE552E16EE552E7CFD9FF58
:10F200001200D9CFE6FFE1CFD9FF030EE126020EAF
:10F21000DB6A040EF36E020EDBCFF4FFF350F45CF6
:10F2200021E22AD8EF6A2BD80CE226D8EF501F082B
:10F2300003E122D8EF6A13D01FD8EF2A20D8F5E3D4
:10F240000ED027D80CE218D8EF50E10803E114D80B
:10F25000EF6A05D011D8EF0626D81BD8F4E3020ECA
:10F26000DB2AD7D7030EE15C02E2E16AE552E16EE8
:10F27000E552E7CFD9FF1200020E5DEF79F013D807
:10F28000DECF00F0DDCF01F0200E005C030E015850
:10F290001200D9CFE9FFDACFEAFF200ED880EE5472
:10F2A000030EED541200020EDBCFE6FF6EDFE552D7
:10F2B000F3CFDEFFF4CFDDFF1200DB50EA6AC50FAB
:08F2C000E96E000EEA221200C3
:08F2C80096D8E1CFD9FFE2CF97
:10F2D000DAFF0C0EE12402E3E168E652E16ED95058
:10F2E000FA0FE96EFF0EDA20EA6E080EEECFDBFFB2
:10F2F000090EEECFDBFF0A0EEECFDBFF0B0EEECFDB
:10F30000DBFF79D8D950080FE96E000EDA20EA6EDB
:10F31000EECFE6FFEECFE6FFEECFE6FFEFCFE6FF64
:10F3200000EC7AF0006E060EE15C02E2E16AE55262
:10F33000E16E0050E76E070EE7CFDBFFDB50840B7A
:10F340003AE1070EDB041AE1060EDB5006E0006A24
:10F35000016A026A800E036E04D0006A016A026AC2
:10F36000036A080E00C0DBFF090E01C0DBFF0A0EB6
:10F3700002C0DBFF0B0E03C0DBFF1DD0F80EDBCF9E
:10F3800000F0F90EDBCF01F0D950040FE96E000E4A
:10F39000DA20EA6E0050EE260150ED22D950080F17
:10F3A000E66E000EDA20E66E26D88EEC7AF0E55294
:10F3B000E552E552E552080EDBCF00F0090EDBCF37
:10F3C00001F00A0EDBCF02F00B0EDBCF03F000C022
:10F3D0003BF001C03CF002C03DF003C03EF00C0E1B
:10F3E000E15C02E2E16AE552E16EE552E5CFDAFF67
:10F3F000E7CFD9FF1200D9CFE6FFDACFE6FF120040
:10F40000D9CFE6FFDACFE6FFE1CFD9FFE2CFDAFFCF
:10F41000E652006801687F0E026E036AD950FA0F47
:10F42000E96EFF0EDA20EA6EEE500016EE5001167D
:10F43000EE500216EE5003166AD800C0EEFF01C06F
:10F44000EEFF02C0EEFF03C0EEFFFD0EDB50800BAF
:10F4500002E0010E01D0000EE66E59D8060EE92634
:10F46000000EEA22E552E750EF6EFC0EDBCF00F013
:10F47000FD0EDBCF01F0D89000360136FC0E00C047
:10F48000DBFFFD0E01C0DBFFDB50E66E40D8040E53
:10F49000E926000EEA22E552E750EE6EED6AFD0E17
:10F4A000DB50006E016AFF0E001818E1015016E1F2
:10F4B0002ED8EECF00F0EECF01F0EECF02F0EFCF7E
:10F4C00003F0005001100210031006E0210E0001AD
:10F4D000CB6FCC6B800E0BD0040E09D0FD0EDB5031
:10F4E00008E115D8EE6AEE6AEE6AEE6A010EDF6E8A
:10F4F00006D0020EDF6E0BD8EE52EE52EE8EDF50CB
:10F50000E552E552E5CFDAFFE7CFD9FF1200F80E5A
:0CF51000DBCFE9FFF90EDBCFEAFF1200B1
:04F51C00D9CFE6FF5E
:10F52000DACFE6FFE1CFD9FFE2CFDAFF5BD80134D3
:10F5300011E20050FE08000E01540CE276D805E0FE
:10F540006CD8800EEE6EEE6847D067D8800EEE6EF7
:10F550007F0E0ED047D8D890015004E6010E005C13
:10F56000000E01580BE261D805E057D8EE6A800E14
:10F57000EE6E32D052D8EE6AEE6A2ED047D8EECF79
:10F5800000F0EECF01F0EECF02F0EFCF03F032D873
:10F5900000C0EEFF01C0EEFF02C0EEFF03C0EEFFB1
:10F5A00021D80050010B05E025D8020E3AD8EF8E85
:10F5B00004D020D8020E35D8EF9E14D8D89001324E
:10F5C000003218D8030E2DD800C0EFFF1AD804E07F
:10F5D00011D8030E26D8EF8EE552E5CFDAFFE7CF3C
:10F5E000D9FF120013D8040E1CD8EECF00F0EFCFD5
:10F5F00001F01200FA0EDBCFE9FFFB0EDBCFEAFFD2
:10F60000120004D8060E0DD8EF501200FC0EDBCF0E
:10F61000E9FFFD0EDBCFEAFF1200ECDFEE6AEE6AD7
:10F620001200E926000EEA221200220E0001CB6F22
:06F63000CC6B01EF7BF042
:0AF636000001CDB123D0CD838B80FD
:10F640009490550EA76EAA0EA76E0E01FF910E0E96
:10F65000D16F550EA76EAA0EA76EFF810F0EBA6E60
:10F66000CF0EBA140009BA6E100EBB6E0F01526BAA
:10F67000800ECB6E040ECA6EA4960A0E776E7F0EB5
:10F68000766E12000001CD91CD938B809490120084
:10F690000001CDA109D08B50010B04E19450010B66
:10F6A00001E1010CCD91C7DF0001CDA3C4DFA4A609
:10F6B0003AD0A496BA50300BE842E842E842E84219
:10F6C000030819E1500EBB5C10E18B909490BA6A6C
:10F6D000CA6A0E01D16B0F01526BCB68766A7768EC
:10F6E000A4960001CD81CD93010CBB2ACF0EBA1494
:10F6F0000009BA6E000CBA0EE96E0F0EEA6EEF50FA
:10F70000300BE842E842E842E842E82AE850030BBE
:10F71000F36EF46EF346F346F346F346CF0EEF1462
:08F72000F310EF6EF450000C31
:08F72800D9CFE6FFDACFE6FFBE
:10F73000E1CFD9FFE2CFDAFFE652E652E652E652D7
:10F74000D950F90F006EFF0EDA20016E020E00C0D4
:10F75000DBFF030E01C0DBFF020EDBCFE6FF030E73
:10F76000DBCFE6FFF90EDBCFE6FFFA0EDBCFE6FFDD
:10F77000FB0EDBCFE6FFD950FC0FE66EFF0EDA2062
:10F78000E66EAEEC5DF0006E070EE15C02E2E16A4F
:10F79000E552E16E0050F3CFDEFFF4CFDDFFFC0E4B
:10F7A000DBCFE9FFFD0EDBCFEAFFEF6ADECF00F033
:10F7B000DDCF01F000C0F3FF01C0F4FF040EE15CF7
:10F7C00002E2E16AE552E16EE552E5CFDAFFE7CF0A
:04F7D000D9FF12004B
:0CF7D4001E0EF66EA00EF76E000EF86E12
:10F7E00000010900F550A86F0900F550A96F03E169
:10F7F000A86701D03DD00900F550A36F0900F5506E
:10F80000A46F0900F550A56F09000900F550E96ED5
:10F810000900F550EA6E090009000900F550A66FCD
:10F820000900F550A76F09000900F6CFAAF0F7CF3D
:10F83000ABF0F8CFACF0A3C0F6FFA4C0F7FFA5C0B3
:10F84000F8FF0001A65302E1A75307E00900F550B5
:10F85000EE6EA607F8E2A707F9D7AAC0F6FFABC07D
:10F86000F7FFACC0F8FF0001A807000EA95BBFD7E7
:02F87000120084
:0EF87200D9CFE6FFDACFE6FFE1CFD9FFE2CF34
:10F88000DAFFFB0EDBCF00F0FC0EDBCF01F0000156
:10F89000800E01141AE1FB0EDBCFE9FFFC0EDBCF7B
:10F8A000EAFFEECFF3FFEDCFF4FFEE2A000EEF22DA
:10F8B000F3CFE9FFF4CFEAFFFD0EDBCFEFFFEF5010
:10F8C000016AF36E01C0F4FF10D0FB0EDB50FE089E
:10F8D00006E1FD0EDBCFE6FFABEC7DF005D0FD0EC3
:10F8E000DBCFE6FF03EC50F0E552E552E5CFDAFF5F
:06F8F000E7CFD9FF120072
:0AF8F6003B504002F3CF37F0F4CF8F
:10F9000038F04102F3503826000EF420396E3B5097
:10F910004202F3503926000EF4203A6E3B50430267
:10F92000F3503A263C504002F3503826F450392226
:10F93000000E3A223C504102F3503926F4503A224C
:10F940003C504202F3503A263D504002F3503926D3
:10F95000F4503A223D504102F3503A263E504002C4
:06F96000F3503A261200EC
:0AF96600FE0EE3CFE9FFFF0EE3CF32
:10F97000EAFFF36AF46AEE5203E0F34AF42AFBD793
:10F980001200FF0EE3CFF8FFE552FF0EE3CFF7FFC3
:10F99000E552FF0EE3CFF6FFE552E66AE66AE66A55
:10F9A0000900F55209E0FD0EE32A05E1FE0EE32A07
:10F9B00002E1FF0EE32AF4D7FD0EE3CF3CF0FE0E8A
:0CF9C000E3CF3DF0FF0EE3CF3EF012005D
:04F9CC00D9CFE6FFAA
:10F9D000DACFE6FFE1CFD9FFE2CFDAFFE652E65217
:10F9E000D950FD0F006EFF0EDA2000C0DEFFDD6E85
:10F9F000DECFE9FFDDCFEAFFEF9EFA0EDBCF00F0AE
:10FA0000FB0EDBCF01F0FC0EDBCF02F0FD0EDBCFF7
:10FA100003F000C03BF001C03CF002C03DF003C069
:10FA20003EF0E552E552E552E5CFDAFFE7CFD9FFE8
:02FA30001200C2
:0EFA3200D9CFE6FFDACFE6FFE1CFD9FFE2CF72
