:020000040000fa
:080000000002040000000000f2
:020000040000fa
:10000800f8030000f8030000f8030000f8030000fc
:10001800f8030000f8030000f8030000f8030000ec
:10002800f8030000f8030000f8030000f8030000dc
:10003800f8030000f8030000f8030000f8030000cc
:100048002e030000f8030000f8030000f803000086
:10005800f8030000f8030000f8030000f8030000ac
:10006800f8030000f8030000f8030000f80300009c
:10007800f8030000f8030000f8030000f80300008c
:10008800f8030000f8030000f8030000f80300007c
:10009800f8030000f8030000f8030000f80300006c
:1000a800f8030000f8030000f8030000f80300005c
:1000b800f8030000f8030000f8030000f80300004c
:1000c800f8030000f8030000f8030000f80300003c
:1000d800f8030000f8030000f8030000f80300002c
:1000e800f8030000f8030000f8030000f80300001c
:1000f800f8030000f8030000f8030000f80300000c
:10010800f8030000f8030000f8030000f8030000fb
:10011800f8030000f8030000f8030000f8030000eb
:10012800f8030000f8030000f8030000f8030000db
:10013800f8030000f8030000f8030000f8030000cb
:10014800f8030000f8030000f8030000f8030000bb
:10015800f8030000f8030000f8030000f8030000ab
:10016800f8030000f8030000f8030000f80300009b
:10017800f8030000f8030000f8030000f80300008b
:10018800f8030000f8030000f8030000f80300007b
:10019800f8030000f8030000f8030000f80300006b
:1001a800f8030000f8030000f8030000f80300005b
:1001b8002c370000f8030000f8030000f8030000e3
:1001c800f8030000f8030000f8030000f80300003b
:1001d800f8030000f8030000f8030000f80300002b
:1001e800f8030000f8030000f8030000f80300001b
:0801f800f8030000f803000009
:020000040000fa
:10020800f8030000f8030000f8030000f8030000fa
:10021800f8030000f8030000f8030000f8030000ea
:10022800f8030000f8030000f8030000f8030000da
:10023800f8030000f8030000f8030000f8030000ca
:100248002e030000f8030000f8030000f803000084
:10025800f8030000f8030000f8030000f8030000aa
:10026800f8030000f8030000f8030000f80300009a
:10027800f8030000f8030000f8030000f80300008a
:10028800f8030000f8030000f8030000f80300007a
:10029800f8030000f8030000f8030000f80300006a
:1002a800f8030000f8030000f8030000f80300005a
:1002b800f8030000f8030000f8030000f80300004a
:1002c800f8030000f8030000f8030000f80300003a
:1002d800f8030000f8030000f8030000f80300002a
:1002e800f8030000f8030000f8030000f80300001a
:1002f800f8030000f8030000f8030000f80300000a
:10030800f8030000f8030000f8030000f8030000f9
:10031800f8030000f8030000f8030000f8030000e9
:10032800f8030000f8030000f8030000f8030000d9
:10033800f8030000f8030000f8030000f8030000c9
:10034800f8030000f8030000f8030000f8030000b9
:10035800f8030000f8030000f8030000f8030000a9
:10036800f8030000f8030000f8030000f803000099
:10037800f8030000f8030000f8030000f803000089
:10038800f8030000f8030000f8030000f803000079
:10039800f8030000f8030000f8030000f803000069
:1003a800f8030000f8030000f8030000f803000059
:1003b8002c370000f8030000f8030000f8030000e1
:1003c800f8030000f8030000f8030000f803000039
:1003d800f8030000f8030000f8030000f803000029
:1003e800f8030000f8030000f8030000f803000019
:0803f800f8030000f803000007
:020000040000fa
:100400006fac21000eaf24000e0188000000000038
:10041000000020000000e000020032000001200087
:10042000200288000c00070060fa2600010020006e
:100430000f000700000020000000e0000200320072
:1004400000000200000000000a6c02000000000032
:100450000040da000000fe00e0b720000000e000ed
:1004600002003200002020009001880000000600f9
:10047000a1028800800078000000eb001a0037001d
:10048000e280400054a0b4009101ba00e280400034
:1004900054a0b4009102ba00e280400054a0b4001d
:1004a0000002eb00472bde00f507b200a601880032
:1004b000602ce10008003a000049eb000201e8006e
:1004c000020039003420ec0002f0a0008301e900b2
:1004d000f9ff3e00040037006128e100010032000e
:1004e0000082eb00040007001101ba000200e000e6
:1004f000e3ff3a000000060004d0a300e20f490029
:100500001c003900810278003549ba000201e80078
:10051000020039003420ec0002f0a0008301e90061
:100520000f0032002549ba000201e800020039003c
:100530003420ec0002f0a0008301e9000800320042
:100540000400e0000600320015c9ba000201e8000c
:10055000020039003420ec0002f0a0008301e90021
:100560008180e80054a0b4000300e000e2ff3a00fc
:10057000000006009102ba00055978008301e900e5
:10058000f7ff3200c82ade00055978008301e90030
:10059000f3ff32000400e000f1ff320011d9ba008d
:1005a000eeff3700586f0400000000008a37040097
:1005b00000000000905a040000000000be59040032
:1005c000000000009859040000000000f0680400da
:1005d00000000000be68040000000000f43f0400ba
:1005e00000000000063f040000000000fc4504007d
:1005f000000000006443040000000000ae49040055
:10060000000000006c46040000000000de4c040006
:100610000000000092640400000000005664040022
:1006200000000000fc66040000000000ca66040030
:1006300000000000ac600400000000001260040034
:1006400000000000225f040000000000c26b0400f4
:1006500000000000b06a04000000000000a0fe00de
:100660003600f800849fbe00869fbe003200f8006e
:100670003400f80014002000a401880004202000a9
:1006800094018800c04b8000d14b80006100400085
:10069000e0804800c04b8800d14b88000a21ef0061
:1006a0008500a90072540200000000003400f90027
:1006b0003200f9004f03be004f02be003600f900c1
:1006c0000080fe00004006000a21ef00e039200013
:1006d000700888008500a9009500a80013e1a80013
:1006e00000000600d802a900c0a2a900dc02a800f0
:1006f000ed04a900e924a900e2a4a900f102a800e0
:10070000e122a800c8a2a800c002a900c402a80053
:10071000e204a900c802a900cc02a800d902a900dd
:10072000dd02a900e224a900c822a900cc22a80069
:10073000c002a900c402a800f435020000000000b5
:10074000c1c2a900c5c2a800d902a900c822a90037
:10075000c802a800e204a900e224a900f00b2000ce
:100760004207b600610420007205200023742000b7
:1007700081497800824978008049780003fc2f0085
:100780001436800004806100b000b3001036880089
:10079000f40f2c00003680000002620000a0200050
:1007a0000400700000368800c46a2000148a6100ca
:1007b000103a80000060a000237420008149780076
:1007c0008249780080497800c0122900305e02001a
:1007d00000000000bcff07008001eb00c20a2600f9
:1007e0002101260020f2250006640400000000001c
:1007f0000040da000000fe00889fbe008004780000
:10080000205980000000e00004003a000e000700bc
:100810000084eb000000e00008003500285980004b
:100820000900e0000500320009004400060007004e
:100830000000e00001003d000084eb0008007800ab
:100840004f04be0000000600800078000100e000b8
:1008500003003a0060b22000205988000000050023
:100860000080eb0062ac2100828f500002003e004d
:10087000215988000000eb0000000600839f6800fb
:100880000100e00002003d0060001000e080180060
:100890000300e00002003d0060011100e08119004a
:1008a000050007004f00e00002003b006000100060
:1008b000e0801800000006006022b8000602200058
:1008c0000000d0008180d2000482d2008582d20054
:1008d0000000a0000202520083825a00030031008f
:1008e0000202420083824a000000a1000603e900e0
:1008f000f3ff3a0000000600020ab900001bb9002d
:100900000200b800810042008100430000000600a0
:100910000000e0002f003200c0017800e38f51009a
:100920002c0036000308a3002a003a00f15880008a
:100930000100e00002003200810f5000040031008d
:1009400011009800f05888001600370082007800e7
:10095000110190000200e00002003200800f5100ff
:10096000faff39001102780084824000850f5000a0
:1009700018003900808f520003003a0083084200bb
:1009800001007800070037000200e0000300320099
:1009900083014000830f51000e00390012009800bf
:1009a00090009800900090000100e00009003200e3
:1009b00010014000828f500006003a00c2b12000b2
:1009c0000009eb001001780011084100910090002f
:1009d0001100980000000600889fbe000004780007
:1009e000e15880000100e0000200320001007800c0
:1009f0000d003700f1588000e0b1200004003700fe
:100a0000910f5400250036000180e800910090000d
:100a10000100e000faff3a0010003700920f540086
:100a20001e0036000280e800100178000200e0009d
:100a3000faff3a0011017800f1588000e0b120007f
:100a400004003700910f5400140036000180e800c4
:100a500091009000828f5000faff3a0019598000ef
:100a6000888f540001003100880478000900780064
:100a7000360007000000e00004003a00888f5400b0
:100a8000050032008904d100f5ff3700091878000d
:100a90009fff0700d2ff37000000eb004f04be00ad
:100aa00000000600881f7800630440000800a100d1
:100ab0008000eb00800f540021003600e30f54004b
:100ac00001003e004800200008007800c2ff070037
:100ad0008000eb000000e000190032009000780078
:100ae0009101780064815100880f510003003100aa
:100af00011019000020878000700370008814000cb
:100b0000020878009101900013019800100178000c
:100b10001109140088087800100178000000eb002b
:100b20000200e00004003200920190000300e000a7
:100b3000010032000280e800e05888008180e8006f
:100b4000010078004f047800000006008000780063
:100b50000000eb000100e000050034000100780017
:100b600025ff0700e10f400001003a000000eb0004
:040b7000000006007b
:020000040000fa
:100b740000000000200000007e00000011000000c2
:100b8400048400000100000004950000010000003e
:100b940006a600000100000009b7000001000000e3
:100ba40008d90000010000000cea00000100000068
:100bb4000a0c000002000000032e000002000000e6
:100bc400043f000002000000045000000200000086
:100bd400086100000200000008720000020000002a
:100be40004830000020000000594000002000000dd
:100bf40004a500000200000005b600000200000089
:100c040008c700000200000008d80000020000002d
:100c140008e900000200000008fa000002000000d9
:100c2400080b000003000000081c00000300000083
:100c3400082d000003000000083e0000030000002f
:100c4400084f0000030000000860000003000000db
:100c5400047100000300000004820000030000008f
:100c6400089300000300000008a400000300000033
:100c740008b500000300000006c6000003000000e1
:100c84000cd700000300000009f900000300000075
:100c9400091b000004000000083d000004000000df
:100ca4000a4e000004000000077000000400000069
:100cb40007810000040000000a9200000400000004
:100cc4000ab400000400000005d60000040000007f
:100cd40004e700000400000008f80000040000001d
:100ce40007090000050000000c1a000005000000c0
:100cf4000a3c0000050000000b5e00000500000037
:100d040008800000050000000b91000005000000b1
:100d140008b300000500000007c40000050000003f
:100d240007d50000050000000ae6000005000000e9
:100d340008080000060000000d190000060000006d
:100d4400083b000006000000074c000006000000fd
:100d5400085d000006000000046e000006000000ac
:100d6400057f00000600000004900000060000005b
:100d740007a100000600000006b200000600000003
:100d840008c300000600000007d4000006000000ad
:100d940008e500000600000007f600000600000059
:100da4000807000007000000081800000700000002
:100db4000529000007000000073a000007000000b2
:100dc400084b000007000000045c0000070000005e
:100dd400046d000007000000077e0000070000000b
:100de400048f0000070000000da0000007000000b1
:100df40008c200000700000008d30000070000003c
:100e040008e400000700000008f5000007000000e7
:100e14000506000008000000071700000800000095
:100e24000528000008000000083900000800000040
:100e3400074a0000080000000a5b000008000000e8
:100e4400077d000008000000078e00000800000075
:100e5400079f00000800000005b000000800000023
:100e640007c100000800000005d2000008000000cf
:100e740008e300000800000000000000000000007b
:100e8400000000000000000000000000000000005e
:100e9400000000000000000000000000000000004e
:100ea4000202000002020000020200000200000030
:100eb400020200000000000000000000000000002a
:100ec40000120000121200001200000000000000d6
:100ed400000000000000000000000000000000000e
:100ee400000000000000000000480000004800006e
:100ef4000048000000ff000000240000002400005f
:100f040000ff0000001200000012000000120000a8
:100f140000000000000000000000000000000000cd
:100f24000000000000100000107c000016120000f9
:100f34001c700000505000003e1000001000000023
:100f4400000000000000000000000000000000009d
:100f54000c0100009200000092000000520000000a
:100f640052030000ac040000a00400009004000040
:100f740090040000080300000000000000000000ce
:100f8400000000000000000000000000000000005d
:100f9400000000003800000044000000440000008d
:100fa4002c000000180000003c0200006201000058
:100fb400c2010000c60100003c0300000000000064
:100fc400000000000000000000000000000000001d
:100fd4000002000002020000020000000000000005
:100fe40000000000000000000000000000000000fd
:100ff40000000000080400000406000002020000d3
:1010040002020000060400000408000000000000c2
:1010140000000000000100000202000006040000bd
:1010240004040000040600000202000001000000a5
:101034000000000000080000087e00000814000002
:101044001400000000000000000000000000000088
:101054000000000000000000000000000008000084
:10106400080800007f0800000808000000000000d5
:10107400000000000000000000000000000000006c
:101084000000000000000000000000000606000050
:10109400020000000000000000000000000000004a
:1010a4000000000000000000000e0000000000002e
:1010b400000000000000000000000000000000002c
:1010c400000000000000000000000000000000001c
:1010d4000606000000000000000000000000000000
:1010e40000100000080800000c04000004020000c6
:1010f40002030000010000000000000000000000e6
:10110400000000003c240000624200004242000053
:1011140042660000243c00000000000000000000c3
:10112400000000000010000018140000101000005f
:10113400101000001010000010000000000000005b
:1011440000000000000000003c620000404000007d
:1011540020300000180c0000067e00000000000093
:101164000000000000000000003c0000624000009d
:10117400601c000060400000406000003e00000071
:10118400000000000000000000000000203000000b
:10119400302800002424000022fe0000202000004b
:1011a400000000000000000000000000003c0000ff
:1011b40004060000023e00006040000040600000a1
:1011c4003e000000000000000000000000000000dd
:1011d400380c0000060200003a660000424200009b
:1011e400643800000000000000000000000000005f
:1011f400007e0000402000002010000010180000b5
:10120400080c0000040000000000000000000000c2
:10121400000000003c660000426600001c24000040
:1012240042420000663c0000000000000000000094
:1012340000000000003c000026420000426600005e
:101244005c400000603000001c0000000000000052
:10125400000000000000000000000000060600007e
:10126400000000000000000006060000000000006e
:101274000000000000000000000000000006000064
:101284000600000000000000000600000602000046
:10129400000000000000000000000000000000004a
:1012a400403000000c0200000c3000004000000040
:1012b400000000000000000000000000000000002a
:1012c400000000007e000000007e0000000000001e
:1012d400000000000000000000000000000000000a
:1012e40000000000020c000030400000300c000040
:1012f40002000000000000000000000000000000e8
:10130400000f000019100000100800000c04000079
:1013140000040000040000000000000000000000c1
:10132400000000000000000000f0000001080000c0
:101334000304000006e2000004920000049200008e
:10134400049200000462000003040000000c00008a
:1013540000f0000001000000000000000000000098
:101364000000000000000000000000000010000069
:101374000028000000280000006c00000044000069
:101384000044000000fe0000008200000083000012
:101394000101000001000000000000000000000046
:1013a4000000000000000000000000000000000039
:1013b400007e000000c200000082000000c20000a5
:1013c400003e000000c20000008200000082000015
:1013d40000c20000007e00000000000000000000c9
:1013e40000000000000000000000000000000000f9
:1013f400f88c000006020000020200000206000051
:101404000cf80000000000000000000000000000d4
:1014140000000000000000003e000000c2000000c8
:10142400820100000201000002010000020100002c
:101434000201000082000000c20000003e00000023
:101444000000000000000000000000000000000098
:1014540000000000003e000002020000023e000006
:1014640002020000020200003e0000000000000032
:1014740000000000000000007e02000002020000e4
:101484007e020000020200000202000000000000d0
:101494000000000000000000000000000000000048
:1014a400f00100000c000000040000000200000035
:1014b40002000000c201000002010000040100005b
:1014c4000c010000f8010000000000000000000012
:1014d4000000000000000000000000000000000008
:1014e40000000000020100000201000002010000ef
:1014f40002010000fe0100000201000002010000e0
:1015040002010000020100000201000000000000ce
:1015140000000000000000000000000000000000c7
:10152400000e000004040000040400000404000091
:10153400040400000e000000000000000000000091
:101544000000000008080000080800000808000067
:101554000808000008080000080800000700000050
:101564000000000000c2000062220000120a000015
:101574001632000022420000c200000000000000f9
:10158400000000000000000002020000020200004f
:101594000202000002020000027e000000000000bf
:1015a4000000000000000000000000000000000037
:1015b40006060000060600000a0500000a050000f1
:1015c4009a040000920400009204000062040000e7
:1015d400620400006204000000000000000000003b
:1015e40000000000000000000000000000000000f7
:1015f4000000000006010000060100000a010000ce
:101604001a01000012010000220100006201000022
:10161400420100008201000082010000000000007d
:1016240000000000000000000000000000000000b6
:101634000000000000000000f80000008c01000021
:101644000603000002020000020200000202000081
:1016540002020000060300008c010000f8000000f4
:101664000000000000000000000000000000000076
:1016740000000000003e00006242000042620000e0
:101684003e02000002020000020000000000000010
:1016940000000000000000000000000000f800004e
:1016a400008c00000106000003020000020200009a
:1016b400020200000202000002060000038c000087
:1016c40001f8000000c000000080000001000000dc
:1016d4000100000000000000000000003e62000065
:1016e40042420000621e000012220000224200005a
:1016f400000000000000000000000000003c0000aa
:1017040026020000060c0000182000002030000013
:101714001e000000000000000000000000000000a7
:101724007f080000080800000808000008080000fe
:101734000808000000000000000000000000000095
:10174400000000000000000002010000020100008f
:101754000201000002010000020100000201000079
:101764000201000002010000840000007800000073
:101774000000000000000000000000000000000065
:101784000000000000810000c34200004266000027
:10179400242400003c180000180000000000000091
:1017a40000000000000000000000000000410000f4
:1017b40010a3000018a2000008a2000008a2000064
:1017c400081600000d1400000514000005140000a4
:1017d40005080000020000000000000000000000f6
:1017e4000000000000000000000000008142000032
:1017f400243c0000181800002466000042c10000c8
:101804000000000000000000000000000041000093
:101814002222000014140000080800000808000038
:1018240008000000000000000000000000000000ac
:101834007e60000020300000100800000c0400004e
:10184400067e000000000000000000000000000010
:10185400000e00000202000002020000020200006a
:1018640002020000020200000e000000000000005e
:101874000000000001030000020200000404000054
:101884000c08000018100000000000000000000018
:10189400000000000007000004040000040400002d
:1018a4000404000004040000040400000700000015
:1018b40000000000000000000814000014220000d2
:1018c40022410000000000000000000000000000b1
:1018d4000000000000000000000000000000000004
:1018e40000000000000000000000000000000000f4
:1018f4003f0000000000000000180000300000005d
:1019040000000000000000000000000000000000d3
:1019140000000000000000000000000000000000c3
:10192400001c0000202000003c26000022320000a1
:101934002c00000000000000000000000002000075
:10194400020200003a6600004242000042420000e7
:10195400663a0000000000000000000000000000e3
:1019640000000000003c000004020000020200002d
:10197400020400003c000000000000000000000021
:1019840000400000404000005c660000424200004d
:1019940042420000665c00000000000000000000fd
:1019a4000000000000000000003c00006442000051
:1019b4007e020000024400007800000000000000e5
:1019c40000000000001c0000020200000f020000e2
:1019d40002020000020200000202000000000000f7
:1019e400000000000000000000000000007c000077
:1019f40022220000261c0000043c00004642000095
:101a0400623c00000000000000020000020200002e
:101a14003a66000042420000424200004242000096
:101a240000000000000000000000000002020000ae
:101a34000002000002020000020200000202000094
:101a4400020000000000000000000000000400008c
:101a54000400000004040000040400000404000066
:101a6400040400000404000007000000000000005b
:101a74000202000002620000321a00000a1e000086
:101a840012220000620000000000000000000000bc
:101a94000002000002020000020200000202000034
:101aa400020200000202000000000000000000002a
:101ab4000000000000000000000000000000000022
:101ac400000000003a070000e60c00004208000095
:101ad40042080000420800004208000042080000da
:101ae40042080000000000000000000000000000a8
:101af400000000000000000000000000003a0000a8
:101b040066420000424200004242000042000000df
:101b140000000000000000000000000000000000c1
:101b24003c2400004242000042420000243c0000e9
:101b340000000000000000000000000000000000a1
:101b4400003a000066420000424200004266000083
:101b54003a02000002020000000000000000000041
:101b6400000000005c6600004242000042420000a7
:101b7400665c0000404000004000000000000000df
:101b840000000000001a000006020000020200002b
:101b9400020200000200000000000000000000003b
:101ba40000000000000000003c020000020c0000e5
:101bb40038200000201e000000000000000000008b
:101bc4000000000000020000021f000002020000ea
:101bd40002020000020200001c00000000000000dd
:101be400000000000000000000000000424200006d
:101bf4004242000042420000665c00000000000017
:101c0400000000000000000000000000004100008f
:101c140063220000223600001414000008000000b3
:101c240000000000000000000000000000000000b0
:101c3400000000000000000000310000023100003c
:101c440002330000034a0000014a0000014a000078
:101c5400014a0000018400000000000000000000b0
:101c64000000000000000000000000000000000070
:101c74000000000063220000140800001c1400008f
:101c840022630000000000000000000000000000cb
:101c94000000000000410000632200002234000024
:101ca40014140000080800000c07000000000000e5
:101cb40000000000000000003e300000100800009a
:101cc40008040000063e00000000000000000000c0
:101cd40000000000001800000404000004040000d8
:101ce40003040000040400000404000018000000c1
:101cf40000000000000800000808000008080000b8
:101d0400080800000808000008080000080800008f
:101d140008000000000000000003000004040000ac
:101d2400040400001804000004040000040400007b
:101d3400030000000000000000000000000000009c
:101d4400000000000e700000000000000000000011
:101d5400000000000000000000000000a3fe0000de
:101d64000020000000000000784d00000001000089
:101d7400510000004f0000005e0100000000000060
:101d84006803000000000000011000002597000017
:101d94000020000000000000d64e000000010000fa
:101da400500000004f000000e900000000000000a7
:101db4001c03000000000000011000002597000033
:101dc4000020000000000000c04f000000010000df
:101dd400500000004f000000d80000000000000088
:101de4001c03000000000000011000002597000003
:101df40000200000000000009850000000010000d6
:101e0400510000004f0000006301000000000000ca
:101e14006803000000000000011000002597000086
:101e24000020000000000000fc5100000001000040
:101e34008c0000008c000000730100000000000012
:101e4400e0090000000000000100000000000000a4
:101e5400002000000000000070530000000100009a
:101e64008c0000008c000000020100000000000053
:101e7400e009000000000000010000000000000074
:101e84000003000000000000ba850000000000000c
:101e940000000000200000007e000000110000008f
:101ea400000000000000000000000000000000002e
:101eb4000004000000000000ae8e000000000000de
:101ec4000200000025970000000000000000000050
:101ed40000000000000000000000000000000000fe
:101ee40000010000000100000001000000010000ea
:101ef400ff000000ff000000ff000000fe000000e3
:101f0400fe000000fd000000fc000000fb000000db
:101f1400fa000000f9000000f8000000f7000000db
:101f2400f6000000f5000000f3000000f2000000dd
:101f3400f1000000ef000000ed000000ec000000e4
:101f4400ea000000e8000000e6000000e4000000f1
:101f5400e2000000e0000000de000000db00000002
:101f6400d9000000d7000000d4000000d200000017
:101f7400cf000000cc000000ca000000c700000031
:101f8400c4000000c1000000be000000bb0000004f
:101f9400b8000000b5000000b2000000af0000006f
:101fa400ab000000a8000000a5000000a100000094
:101fb4009e0000009a0000009600000093000000bc
:101fc4008f0000008b0000008800000084000000e7
:101fd400800000007c000000780000007400000015
:101fe400700000006c000000680000006400000045
:101ff400600000005c000000580000005300000076
:102004004f0000004b0000004700000042000000a9
:102014003e0000003a0000003500000031000000de
:102024002c00000028000000240000001f00000015
:102034001b00000016000000120000000d0000004c
:10204400090000000400000000000000707200009d
:102054006f6d00007074000020610000707000005b
:1020640065610000727300002e000000756e0000b0
:10207400746900006c200000746800006520000092
:10208400636100006c69000062720000617400000a
:10209400696f00006e00000070720000657300003c
:1020a400736900006e670000206f00006e2000005e
:1020b400746800006520000073630000726500000e
:1020c400656500006e000000726500007365000025
:1020d400742000007468000065200000626f000036
:1020e400617200006420000077680000696c0000e1
:1020f40065000000546f00002052000045500000ad
:102104004541000054200000636100006c69000038
:102114006272000061740000696f00006e2c0000a0
:10212400006300006f6e0000746900006e750000ab
:10213400652e0000005400006f7500006368000005
:102144002073000063720000656500006e200000cb
:10215400746f000000730000637200006565000086
:102164006e200000636100006c6900006272000070
:1021740061740000696f00006e2e000000500000c2
:1021840065720000666f0000726d0000696e0000e9
:1021940067200000746f0000756300006800000091
:1021a40014f1000052650000747200007900000010
:1021b40050720000657300007320000026200000a8
:1021c400526500006c65000061730000650000004a
:1021d40063690000726300006c650000006f00001a
:1021e4006e2000007468000065200000666900002d
:1021f4006c6c0000656400000000000031200000e9
:1022040042500000502000002d200000436f0000c9
:102214006d70000072650000737300006564000057
:1022240000000000000100000001000000000000a8
:1022340001000000428f0000000b000000000000bd
:10224400000000000000000000000000000000008a
:10225400010000000200000003000000060000006e
:0c2264000000000053000000000000001b
:020000040000fa
:10227000a09a2000000006001c2b040000000000b3
:10228000b7e8b70000000600b7c8bf0000000600ae
:10229000b6e8b70010002000a04588000000060046
:1022a000b428ef0010000500b6c8bf00000006000b
:1022b000a045800000000600904588000000060050
:1022c0008045880000000600704588000000060078
:1022d0006045880000000600904580000000060070
:1022e0008045800000000600704580000000060068
:1022f0006045800000000600889fbe008a9fbe00e7
:102300008c1f78000004be000205780003067800e8
:102310001c2b020000000000800078000000eb0091
:10232000e48f50000a003a000f003700890078005f
:102330000b00780066280200000000008b05e80012
:102340000a00e800808f5500f8ff39008904e80092
:102350000c00e800808f54000200310088057800ee
:10236000f7ff3700100020004f0678004f05be0031
:102370004f04be0000000600504588001000050014
:102380005045800000000600304580000000060037
:102390004045800000000600304588004145880027
:1023a00010000500a628b40001007800a828b40099
:1023b00010000500889fbe008a9fbe0000047800c0
:1023c000010578008204780083057800524c800073
:1023d00000272f00f1ff2f0000004100e08048009f
:1023e000e50f5000e08f5800f9ff3e00006001004b
:1023f000050037002f0037003e0037006e00370021
:10240000810037003500370050458000e70060004c
:10241000314488007000600040448800890f5400f7
:102420000800320020d920008b0f550097003a0099
:10243000890f540003003600a944880088448800ae
:1024400007003700a8448800894488008b0f550096
:10245000030036009b4488007a448800020037005d
:102460009a4488007b4488008808e2000f0032000c
:10247000890f540004003a001000200060448800d6
:102480008a28ef00030037008c28ef00100020009e
:1024900050448800604480009428b5009028b4001f
:1024a000504480009228b5008e28b40010d9200036
:1024b000760037007344800082448000914480009d
:1024c000a0448000c62902000000000080007800bf
:1024d0000000eb000100e0006f0032003945880089
:1024e0004b45880000d92000504c88001000200087
:1024f00069003700088054002045880004003b0034
:102500000000ea00204588009aa8ef00020037008a
:1025100010002000d04488000a8055001045880033
:1025200004003b000000ea001045880098a8ef0076
:102530000200370010002000c04488009628ef00f9
:102540002145800012458000828f50000d003d0023
:1025500010002000b0448800224588001145880002
:10256000aa44880098448800d14480009808f80064
:102570009a08f900c1448800604488008a28ef0066
:1025800005003700a84488009a4488008c28ef0092
:10259000100020005044880020458000800040004a
:1025a000e14488001145800081804000f1448800aa
:1025b0000080500000458800a408ed0020458800f8
:1025c0000f003300014580000100e00005003500e8
:1025d000c04480009228b400e04480008080500015
:1025e00001458800d04480009428b400f044800065
:1025f000a028b40040d92000504c880002003700c9
:1026000050d9200021003700b04480008808e20043
:102610001400320063448000a644800055448000ca
:10262000944480000000e000050032000481420074
:1026300083005300050052008681410004003700ea
:10264000068141008500520003005300848142004e
:10265000c6290200000000000000e0000a003a0065
:102660000c0037000000e00003003200a1448000ad
:10267000904480000200370091448000a044800014
:10268000662802000000000030d92000504c88006d
:102690004eff37000000eb004f05be004f04be00a8
:1026a00000000600f2874700889fbe008a9fbe0098
:1026b0008c9fbe008e1f78000004be0002057800cb
:1026c0008306780050458000e7006000e1b79f0076
:1026d00070006000f0b79f008a0f540025003a0098
:1026e0008d8f540003003600890578008d04780032
:1026f000010037008d0578001c0020000005eb006c
:10270000170037000a05e8006fb09700800f5500ea
:1027100002003a000c00a2000005eb000c00e000f3
:102720000e0032000800be00662802000000000013
:10273000ffb097000100e000080032000800e90047
:102740008900780066280200000000000800e80008
:102750008900780066280200000000008904e80073
:102760000b00e800808f5400e6ff3900080678006f
:10277000850037008d8f540025003a008a0f5400e1
:1027800003003600080678000a04780001003700cc
:102790000a0678001b0020000005eb001700370038
:1027a0000a05e8006fb09700800f550002003a005c
:1027b0000b00a2000005eb000b00e0000e00320051
:1027c0000800be006628020000000000ffb097006d
:1027d0000100e000080032008900e90008007800ec
:1027e00066280200000000008900e8000800780068
:1027f00066280200000000000804e8000c00e80061
:10280000800f5400e6ff3900890578005e0037002c
:10281000880555001e00200002003b008b05ea00e1
:102820000087eb00098056001100200081bf9f0047
:1028300003003b000000ea008080eb0081bf9f00a6
:10284000808f55000a003d000806780009047800d2
:102850008e0078000fbf970081bf9f008b0078002b
:102860008005780001007800110020000200370088
:10287000090678008000eb00d1b79f008b804500ef
:10288000b1b79f0000004000c0b79f008b0450000c
:10289000120020008000eb00aab79f00010578001d
:1028a0009db79f0082067800320037000d00e000df
:1028b000200032005fb097000000e0000e00320000
:1028c000880078000c0078006628020000000000f4
:1028d000ffb097000100e000160032000c00e90094
:1028e0008800780066280200000000000c00e80064
:1028f000880078000d0037008c0078000800780010
:1029000066280200000000007fb097000000e00091
:10291000080032008c00e9000800780066280200f8
:10292000000000008c00e800080078006628020023
:10293000000000000900e000040035008fb8970097
:10294000010646003fb09700808454000e04440006
:10295000cfb09700818444000a05e8006fb097006b
:10296000800f550002003a000d00a2000005eb00a8
:102970008b05e9000b00e000ccff3d002fb5970070
:102980009fb597000a0678003c4588004b458800b3
:10299000100020004f0778004f06be004f05be0014
:1029a0004f04be002f01b10000000600889fbe004a
:1029b0000204be00524580006701610004003a0035
:1029c00008017800da11020000000000030037005f
:1029d000080178001e2b020000000000e10f5000eb
:1029e00002003a0038458800494588004f04be007f
:1029f000000006000001be00414580003045800017
:102a0000d6140400000000000001be004145800013
:102a1000304580000001410081814100d61404004e
:102a200000000000889fbe00800478000104780048
:102a30001c2b020000000000800078000000eb006a
:102a4000e48f500024003200204480000000e000a9
:102a500003003200e10f50001d003a00160037005d
:102a60008228ef0089844400094488001000200077
:102a70002044880010003700e300400081814000be
:102a80000081e800020141008000e80081804000f0
:102a900000004000e881790068017900e880780052
:102aa00068007800d6140200000000000000e0007a
:102ab0000800320082a8ec00104480008008e30087
:102ac000edff3c008428ef001000200002003700da
:102ad0008428ef000000eb004f04be000000060059
:102ae000f043880010000500f0438000000006005d
:102af0007de8b700c087200001487800100005007d
:102b00007dc8bf00000006007cc8bf0000000600b2
:102b1000c043800000000600d04380000000060093
:102b2000c0438800d143880010000500889fbe0084
:102b30008a9fbe008c1f7800010478008204780010
:102b40000006e900030646007b8b20009b457800c9
:102b50000005780008003700b9407800708b20002d
:102b600001487800880078000a0078006628020092
:102b7000000000000a05e8008c0f5500f6ff360043
:102b8000708b20000b4878000a0078004f06780010
:102b90004f05be004f04be0000000600889fbe0027
:102ba0008a9fbe008c1f78000004be0002057800da
:102bb0000306780088057800060037008900780051
:102bc0000b007800d428020000000000005d7800af
:102bd0008b05e80008004600808f5500f7ff39009c
:102be000088055004f0678004f05be004f04be0018
:102bf00000000600881f7800f843800010b0200015
:102c0000f0438800f30e2000f21320006000b800ab
:102c1000c6290200000000000000e000f9ff3200b9
:102c2000a628ef00a828ef00f84388001000200035
:102c30004f047800000006000400fa00889fbe00e0
:102c40008a9fbe008c1f7800800578000104780000
:102c50000205780083047800040678006160b800fb
:102c6000c000dd000000200002002400130020004e
:102c7000000251008182590094bf9f00a5bf9f00b0
:102c800000262f00f1ff2f00424c80000000410081
:102c9000e0804800e70f5000e08f580011013e002f
:102ca000006001000700370018003700c600370039
:102cb00027003700d5003700e5003700fc0037005b
:102cc000ee0037000c00e0001f00320050502b00d7
:102cd0000060b8000100e80070438800afba9700b8
:102ce000454388005c4388007228ef0010002000f4
:102cf0008043880050458000e7006000b1438800b1
:102d000070006000a04388006c28ef0070438000d2
:102d10006c08e3000c003c007208ec009043880053
:102d20007608e30002003a007008aa007228ef005b
:102d300020da20007008e200c300320030da200000
:102d4000404c88000200370040da2000be00370007
:102d50005143800081005400604380000000450022
:102d600066280200000000006143800081005400da
:102d7000504380000000450066280200000000006b
:102d80005143800081804400604380000000450082
:102d9000662802000000000061438000818044003a
:102da000504380000000450066280200000000003b
:102db00051438000818044006043800000805500c2
:102dc000662802000000000061438000818044000a
:102dd000504380000080550066280200000000007b
:102de0006143800081005400504380000080550002
:102df000662802000000000051438000810054005a
:102e0000604380000080550066280200000000003a
:102e10007408e2006c003200514380008180ea00b7
:102e20008880400060438000000045006628020062
:102e30000000000051438000e180100088804000c5
:102e4000604380000000450066280200000000008a
:102e500061438000810054006a08ec000a004000d1
:102e600066280200000000006143800081005400d9
:102e70006a08ed000a004000662802000000000019
:102e8000514380008100e900898040006043800058
:102e90000000450066280200000000005143800049
:102ea0008100e80089804000604380000000450008
:102eb0006628020000000000614380008180440019
:102ec0006a08ec000a0040006628020000000000ca
:102ed00061438000818044006a08ed000a004000e0
:102ee0006628020000000000514380008100e900d4
:102ef0008980400060438000008055006628020001
:102f000000000000514380008100e80089804000fb
:102f10006043800000805500662802000000000029
:102f20006143800081804400504380000080550050
:102f30000000e800662802000000000061438000f5
:102f40008180440050438000008055000000e9006b
:102f500066280200000000006143800081005400e8
:102f600050438000008055000000e8006628020001
:102f70000000000061438000810054005043800045
:102f8000008055000000e9006628020000000000f3
:102f900051438000e1801000888040006043800041
:102fa00000805500662802000000000051438000a8
:102fb0008180ea00888040006043800000805500e6
:102fc000662802000000000041438000604380004a
:102fd0000100e00006003400524380000201e900d5
:102fe00052438800e5804000020050000100370095
:102ff000e380400000004000008040004043880023
:103000006c28ec0010da20000f0037008b0f550001
:103010000c0032008c0154000a0178008300780013
:103020000b007800d6140200000000008000eb00c6
:103030000000e0002c00320050da2000404c8800f4
:103040000300370070da2000404c88000cff370086
:10305000890146000a017800830078000b0078009f
:10306000d6140200000000008000eb000000e00029
:103070001d00320070da2000404c8800888f540018
:103080000b0032000c81550089017800880078001f
:1030900002007800d6140200000000008000eb005f
:1030a0000000e0001000320060da2000404c880090
:1030b0000a01460089017800880078000200780043
:1030c000d6140200000000008000eb000000e000c9
:1030d0000500320000da2000404c8800110020007a
:1030e000010037008000eb00010078004f067800f7
:1030f0004f05be004f04be000080fa00000006002d
:10310000f443800005b02000850f52000400320017
:103110008582e800850f52000b003a000800370056
:103120000002eb001c1602000000000000f0a700e7
:103130000000ea000000ea004f00de000000060088
:10314000c629040000000000c62904000000000099
:103150003043880000000600304380000000060075
:103160000002eb001c1602000000000000f0a700a7
:103170000000ea000000ea004f00de000000060048
:103180001c1602000000000000f0a7000000ea008a
:103190000000ea004f00de00000006008101780018
:1031a00002027800000178000200be001c16020036
:1031b0000000000000f0a7000000ea000000ea00a4
:1031c0004f00de00000006000400fa00889fbe00e9
:1031d0008a9fbe008c9fbe00000578000104780025
:1031e00082057800830478000406780088865400fd
:1031f0008d06d100888646006160b800c000dd0001
:1032000000002000020024001300200000025100f2
:103210008182590084bf9f0095bf9f001c2b020034
:1032200000000000e40f5000e400320090428000f3
:103230008000eb00e90f5000e08f5800f7ff3e00e0
:1032400000600100090037001f0037002f00370021
:103250009100370075003700440037005e003700ea
:10326000a6003700ba003700cc0037003143800099
:103270000b014600f00f2000808f500003003a0041
:103280000c00550089017800050037000c0055003e
:10329000030f2000838f500003003a008d01780057
:1032a0008800780002003700890178008d007800de
:1032b000c6290200000000000000e000bf0032004c
:1032c00010002000a00037000c00e0009d0032003c
:1032d00050502b000060b8000100e8001043880047
:1032e0009fba9700254388000c4388005e28ef00b2
:1032f00010002000d0428800ec4288005828ef00df
:10330000f00e2000b04288005428ef00f042800008
:103310006208e30004003d00700020000c00e000a3
:1033200089003a0087003700c042880021438000ae
:103330000100e00006003400024380000201e900c1
:1033400002438800e5804000020050000100370081
:10335000e3804000000040000080400020438800df
:103360005e28ec005000200090428800e04280007f
:103370006008e3005f00320031438000ef806000ae
:1033800013003200c342800083814400b2428000b7
:10339000d1428000828f51000600390081804400b4
:1033a0008201e900838f500009003e000081450042
:1033b0000200370000814500818044000000550074
:1033c000c6290200000000000000e0007b0032007f
:1033d000600020005c003700304380006f00600018
:1033e00010003200e342800083814400c04280002c
:1033f00080804400818f51000a0036000081450022
:103400000000550083007800c6290200000000007b
:103410000000e00069003200e042800000804400cb
:10342000b042880040002000470037003043800051
:10343000000fb20016003200c1428000810054002b
:10344000a0428000d3428000808f500008003e00e0
:103450008000e80083015400838f50000c003e0080
:10346000e042800000814500000055000400370064
:10347000e0428000008145000000550083015400b7
:10348000c6290200000000000000e0004b003200ee
:10349000300020002c00370030438000000fb200c5
:1034a00010003200e342800083015400c0428000db
:1034b00080005400818f51000a00310000814500d6
:1034c0000000550083007800c629020000000000bb
:1034d0000000e00039003200e042800000005400ab
:1034e000a04288006008f8005c08f9005e08f80057
:1034f0005a08f9002000200013003700c042800065
:10350000034380008301540080005400838f5000e7
:103510000c00360031438000010fb200070032007a
:10352000008145000000550083007800c629020094
:10353000000000000000e0002000320080002000b9
:1035400001003700900020009042880033ff3700d0
:10355000c042800003438000838144008084440093
:10356000838f54000b00310031438000ef806000f6
:1035700008003200008145000000550083007800fb
:10358000c6290200000000008000eb000000e000ff
:103590000b00320090002000904288001c2b02009b
:1035a000000000008000eb00e40f50000400320037
:1035b0005228ef0011002000010037008000eb00ce
:1035c000010078004f06be004f05be004f04be004c
:1035d0000080fa000000060005b02000f6438000dd
:1035e000850f530007003a001c160200000000007f
:1035f00000f0a7000000ea000000ea004f00de0033
:1036000000000600f0fe3700810178000202780019
:1036100001b02000f2438000810f510009003a0000
:10362000000178000200be001c160200000000002d
:1036300000f0a7000000ea000000ea004f00de00f2
:1036400000000600000178000200be00defe370028
:10365000000006000000050080428800281b0200d0
:1036600000000000100005008042800000000600fd
:1036700083428000430190004a11de006301610033
:10368000140020000221dd00c24098004302900097
:10369000230190000080fb00d30190000488a30068
:1036a000150032008381fb00030050006c02b9005a
:1036b000680042000000410010014100c200980073
:1036c00030019000b2009800a00190000301510069
:1036d000f200980040019000d20098005000900045
:1036e000e00098000000e00001003c000000ea005b
:1036f00080089800000006008381fb000300500052
:103700000080e8004200dd0000004100104290000f
:103710000482fb0090019000c819dd008301420083
:1037200003014100c20098001080fb00b000980027
:103730000000060000000600e6874700889fbe00e4
:103740008a9fbe008c9fbe008e1f78000104780007
:103750008042800070019000680090007a08b400f8
:10376000000778000005eb008046eb0026003700dc
:10377000d80190000e064500814580008c8f5000d6
:1037800020003100614580008c8f50001d00360004
:10379000830140008005eb008044eb0016003700f9
:1037a0000904e00004003a0048009000b0467800a8
:1037b0004004980019c0b30003804500b208e3003c
:1037c0000b003100ae08e300090036008dc0640034
:1037d000070032008c007800f2b79f0083bf9f0083
:1037e00066280200000000008fb997007fb19700a3
:1037f00089c444008b05e80038009000808f550094
:10380000e7ff35000a05e8008808900081004100c4
:10381000c0438000810f5500d5ff3500b8019000ee
:1038200003004000f800900001005000d1438000e8
:103830009015020000000000100020004f077800e3
:103840004f06be004f05be004f04be006f00b10022
:1038500000000600881f7800004478007042800055
:103860008000eb00e60f5000e08f580060003e0043
:1038700000600100060037001d00370026003700f9
:10388000460037003e003700480037004d00370043
:1038900010002000504288008042800030428800a2
:1038a000ea4f540002003a0060002000390037005f
:1038b000d0009000814f540008003900e0009000d3
:1038c000814f540005003e00400090004a00de0099
:1038d00063006000e10f500002003400200020006f
:1038e0004042880040428000e20f50004300320016
:1038f00040af20000008eb000080e8000008eb006b
:103900000080e8000008eb000080e8000008eb0001
:1039100020002000704288001c2b020000000000e4
:10392000e40f500032003200304280001000780076
:1039300011302000810f500009003200e480400067
:10394000810f500008003200e5805000810f5000c8
:1039500009003a00a1ae20000840780044ff0700ab
:103960003000200001003700400020007042880035
:1039700060428800b9ff37004e28ef001f00370073
:10398000084078002a1b0200000000005042880016
:103990005000200070428800b0ff3700a1ae200028
:1039a0000840780064ff07005042880050428000c1
:1039b000e10f50000c0032004c08f8004e08f900ee
:1039c0000f00370030428000700090007a08b40089
:1039d00080007800c04380009015020000000000c5
:1039e00010002000504288004e28ef0004003700ed
:1039f0004e28ef000000eb0001003700100020000f
:103a00004f04780000000600889fbe000204be003c
:103a10008649e20003003200901502000000000019
:103a20008669ef002042800068407800ea4f50002d
:103a300002003200ef4f5000050036002a1c020041
:103a4000000000000000e00003003a000900370019
:103a50000004e000060032004408ec002042880028
:103a60000900e000efff3200890f5000edff3a003f
:103a7000100020004428ef0011c0b300629820001d
:103a8000014978004f04be00000006000000050058
:103a9000881f78008a9fbe00a1009000a14290007c
:103aa000414490000610200011036300e8814000ab
:103ab0000002eb000600e000020032000302780082
:103ac0008001eb008000eb0012003700854f5100b1
:103ad00010003900884f51000e003e000281fb00ab
:103ae0008583fb000600e00005003200070151005d
:103af0006c15b9000a014200220190000400370051
:103b0000070151004211dd00028141001281fb00da
:103b10008280400030417800ef4f5100ebff3e00c3
:103b2000010078004f05be004f0478000000060039
:103b3000000005000000050011017800133020008e
:103b4000830f51001000320004003c008301e900a3
:103b5000830f510010003a00090037004330200065
:103b6000830f5100040032008301e800830f5100ed
:103b700009003a0006003700461d0400000000005e
:103b8000481d040000000000981d04000000000013
:103b90009a1d04000000000000000500e6874700b1
:103ba000889fbe008a9fbe008c9fbe008e1f78003b
:103bb00080047800010478000205be000406be00ff
:103bc000060778000b00e9000000d1000800400063
:103bd00080bf9f000a00d100f0b79f001242800012
:103be0006110b800e40f5000e08f5800fcff3e0069
:103bf00000600100040037005300370073003700f5
:103c0000900037009b003700d9418800c8418800e8
:103c10000d00e00003003a0010c0b3002ce8b7002c
:103c2000010037002c68ef008900e9008a8040001d
:103c3000b1418800f0132000808f50000100360051
:103c4000b04188008800e9008b804000a1418800d5
:103c5000f00e2000808f500001003600a041880047
:103c60002a28ef002828ef001100200001428800d8
:103c700099458800884588003608f800ae08f900a4
:103c8000a34180006345880080428000700190005d
:103c900092418800f1418800ec4188002e28ef0015
:103ca000c4822000144278000000eb000b003700b3
:103cb000eacf520001003a008100e8000000e8006d
:103cc0000404e00005003a008d0f500003003a00a4
:103cd000f14188007d41880005003700ec42780002
:103ce0000504e000f2ff3a00f141880070418800cd
:103cf00001c720008100670000c12000808f5000b4
:103d000005003200f041800004c42000848f500080
:103d100006003a00020037000800e80007003700fc
:103d20000090b90000805100040037000090b900f5
:103d30000000d1008fb897000080500040418800fb
:103d40001000200010428800814280000c007800a2
:103d500079ff07008041880071c020008100670062
:103d600012c02000828f5000040032006301410025
:103d7000828f500007003a0004003700d2418000d3
:103d80000201e80052418800080037003608b500fb
:103d900005003700d14180007fb1970081004100cc
:103da0000000d10000805000504188004141800057
:103db000504180009015020000000000ec41880096
:103dc0002e28ef0020002000104288002c48e2003e
:103dd00003003a00704180008d0f50000d0032004a
:103de000e041800090407800eacf500007003a00a0
:103df0000006e800ec4188002e28ec00904180008d
:103e00002828b40010002000180037000104e0004a
:103e100005003a00400020001042880010002000f9
:103e2000004288006dff3700eecf500003003e00d7
:103e30000000e800e04188000a0037003000200060
:103e400010428800e0418000104078002a1c0200e7
:103e500000000000004288000000e0000e00320078
:103e60003c28ec002e28ec002000200010428800a6
:103e70005aff3700b228ef00b028ef00f0132000ff
:103e800070458800f00e2000604588004228ef0051
:103e900000428000010037000000eb004f0778006f
:103ea0004f06be004f05be004f04be006f00b100bc
:103eb00000000600f0874700889fbe008a9fbe0072
:103ec0008c9fbe008e1f7800b0b79f00a1b79f00e7
:103ed000520290004205900022049000b20490002b
:103ee00064044400e0844c00670765000e07ea00a4
:103ef0004f77de0043d0de00000747001300780054
:103f00001c0020000000e0000e0032003302900090
:103f100004f2b9008002eb000404440085844c00e4
:103f2000a3009000430ade008002eb00040444007a
:103f300085844c00e78060000166dd00130290007c
:103f400000057800e8b79f00f9b79f008046eb00b6
:103f50008005eb0046003700e10f56000a003200f2
:103f6000900180000801780002f0a4008981d2004d
:103f70009301880092467800900188006101440016
:103f8000e0814c00020037006fb19700ffb197004d
:103f90000c4078008a00e90018003700e14f50001b
:103fa00009003a00950180000203780006f0a400a1
:103fb0008383d20097018800964678009501880097
:103fc00061014100e081490000c366000683fb00f7
:103fd0000603ea004f33de00a59a200086f278003f
:103fe0008100e90005c8b300854f5000020032008f
:103ff000004040000100370010c0b3000100e000a5
:10400000e6ff3d006170b8000004440081844c006c
:1040100030418000e10f5000170032002fb19700af
:10402000828045008a017800a29a20003fb0970064
:1040300084bf9f0054290200000000008b05e800a7
:10404000ceb79f000000eb00d0b79f006fb1970084
:10405000ffb197004fb09700dfb09700000141001b
:1040600081814900e2b79f00f3b79f000fba970024
:10407000848f5500b8ff39004f0778004f06be0007
:104080004f05be004f04be000f01b1000000060046
:10409000ec874700889fbe008a9fbe008c9fbe00b1
:1040a0008e1f780000047800820478008305780071
:1040b00004067800050778008606780081bf9f0017
:1040c0001c2b020000000000000178000000eb0043
:1040d0008fb89700e40f5100230032007a8b200044
:1040e0001a4578004d519000e9b79f00fbb79f003b
:1040f000ccb79f00deb79f001d007800e50f500091
:104100001100320003003e000000e0000600320013
:104110001200370002002e0002004000e10f5000a4
:104120000e003e0008003700e14f51000b003a003e
:10413000f88157000d017800080078003c33020038
:104140000000000005003700f88157000d017800dd
:10415000080078006830020000000000708b20002a
:104160000a487800100020004f0778004f06be0074
:104170004f05be004f04be00cf00b1000000060096
:10418000020378006022b8006011b800c0ff370059
:104190000000e00001003d008016b000e2102000a9
:1041a000820f500009003400e010b1000100e0006f
:1041b0000e003200a10520000080500000004000e9
:1041c00021f728006100780000000600420b200063
:1041d000820f500009003400400bb1000100e000e4
:1041e00002003a00a10520000080500000004000bd
:1041f00021f72800610078000a003700a20520009e
:10420000820f500009003400a005b10023f72800f8
:104210000100e000090032000000510000004000f1
:10422000630078000000ea000000060023f7280081
:104230000100e00004003a000000510000004000ce
:104240006300780000000600000040006300780072
:1042500000000600004d8800114d8800809a200063
:1042600003487800324d88000000060000a02000be
:10427000504588001010b000f04388007d68ef00c2
:104280007ce8ef00a628ef00a828ef008041eb00b3
:104290000001eb006000b800eeff07002628ef00e9
:1042a000b228ef00b028ef00f0132000704588001e
:1042b000f00e200060458800700040003043880008
:1042c00000000600e9ff3700204d880000000600ce
:1042d000204d800000000600304d800000000600e8
:1042e000809a20001040780000000600004d8000f9
:1042f00000000600104d800000000600889fbe00f0
:104300008a9fbe008c9fbe000006780001047800e2
:104310008204780003057800d20220001100090011
:104320000204d8008000fd00800578000108a30089
:10433000010032008b055100cfe6de0011002000a5
:104340000b00780092ff070000017800cf91de009b
:104350004818dd00c810de00810070004810dd0044
:104360000c01be007c04020000000000810c7800fb
:104370008000eb000b00780085ff0700000178004b
:10438000cf91de004818dd00c810de00810070000b
:104390004810dd000c01be007c040200000000009b
:1043a00001017800010d780021fd2f008880400078
:1043b00080052000808f500004003600e1f12f00be
:1043c00088804000808f500003003e001900780074
:1043d000820c7800000d780051fa2f008880400090
:1043e000200b2000808f500001003e00990cea0055
:1043f000580bb100200b2000800f540001003e003c
:104400001a0dea004f06be004f05be004f04be0065
:104410000000060010002000304188000000060067
:104420002628ef0000000600304180000000060052
:10443000ee874700889fbe008a9fbe008c9fbe000b
:104440008e1f7800800478000105780082057800ce
:104450000304780084067800050678000647780093
:104460006169b800c011dd000200200000002400d6
:10447000110020000202500083825800d4b79f0030
:10448000e5b79f006161b800c011dd0002002000a7
:104490000202500083825800b4b79f00c5b79f0046
:1044a0000a0044000000d10080bf9f000980450041
:1044b0000000d100f0b79f001c2b0200000000009c
:1044c000e40f50009e013200104080008000eb009d
:1044d000f10f5000e08f5800f7ff3e000060010030
:1044e000110037005d0037002201370078003700e7
:1044f000370137008d00370041013700a200370037
:104500004b013700b700370071013700cc0037008e
:104510007c013700e100370054013700f600370016
:104520005e0137001400370050502b000069b800be
:10453000234188000060b80011418800efb2970065
:10454000b54088004fb09700a04088000d4188001a
:10455000fc4088001c28ef001a28ef009d408800ce
:1045600010002000804088000e28ef006c4088007a
:104570000a28ef000828ef00d14080001241800097
:10458000810f51000700310009805500304088003c
:104590000a005400204088002000200010408800bd
:1045a000f4003700e04080007040880041408800ff
:1045b000024180002408e30011003900b14080006e
:1045c0000100e000080034000201e9000241880017
:1045d0000201500002014100e5804000010141005c
:1045e000b240880004003700e38040000000400033
:1045f00000804000b04088001c28ec000500370017
:104600000000e800e0408800800f51000100310008
:1046100000418800a1408000d04080000100e000ff
:1046200007003400f24080000201e900f2408800f7
:104630000200500000004000e5804000020037000a
:10464000e38040000000400000804000a04088005f
:104650001a28ec00100020001040880090408000d4
:104660002008e30004003a00f1408000644080002c
:10467000810f5200c0ff32000e08a300120032006a
:10468000800055007240800002005500808f50006d
:1046900002003100c140880001003700c04088009e
:1046a000028145006140800081005500504080003b
:1046b00000804500c3408000c629020000000000c1
:1046c0000000e0001e01320030002000fe00370034
:1046d0000e18a300130032009240800002814500b2
:1046e0007140800001804500800f510002003600bb
:1046f000c240880001003700c0408800624080004e
:10470000028145008100550053408000830155001f
:10471000c0408000c6290200000000000000e00048
:104720000701320050002000e70037000e28a300e8
:10473000130032009140800081804500434080009a
:1047400003804500808f500002003600c140880081
:1047500001003700c04088006240800002814500af
:10476000814080008100440083014400c0408000fb
:10477000c6290200000000000000e000f000320046
:1047800070002000d00037000e38a3001300320064
:1047900091408000810044004240800002004400bb
:1047a000808f500002003600c140880001003700b1
:1047b000c0408800028145008040800000804500a4
:1047c0006340800083014400c1408000c62902008c
:1047d000000000000000e000d9003200900020003e
:1047e000b90037000e48a300130032009240800049
:1047f000020144007040800080004400810f51009d
:1048000002003600c240880001003700c140880025
:1048100052408000028154000080540063408000b8
:1048200083014400c1408000c6290200000000004e
:104830000000e000c2003200b0002000a2003700fb
:104840000e58a30013003200914080008180540074
:104850007340800003805400808f500002003100bc
:10486000c140880001003700c040880051408000ee
:1048700081004400604080000080540083014400b7
:10488000c2408000c6290200000000000000e000d5
:10489000ab003200d00020008b0037000e68a30070
:1048a0001300320092408000028154004140800099
:1048b00001805400800f510002003100c240880086
:1048c00001003700c0408800810055006040800032
:1048d000008054008340800083015500c240800066
:1048e000c6290200000000000000e0009400320031
:1048f000f0002000740037000e04e00013003d00bb
:104900009240800002015500404080008000550028
:10491000810f510002003100c240880001003700c1
:10492000c1408800824080000281540061408000c4
:104930008100550000805400c3408000c629020059
:10494000000000000000e0007d0032002008f800b8
:104950001208f9001c08f8001008f9001e08f800f9
:104960000c08f9001a08f8000a08f90010012000e4
:10497000550037002040800031408000e18f50001a
:1049800002003c00e10f50006a003400e10f5000cb
:104990000b0034000e18a3000b0032000b01460080
:1049a0000b8046008fb997008a007800c629020064
:1049b000000000000000e00003003a006000370043
:1049c000e000200040003700400020003e0037009b
:1049d0000e28a300080032000b0146000b804600a1
:1049e000880178008fb89700c629020000000000f7
:1049f0000000e0005200320060002000320037006a
:104a00000e68a300080032000d8154000c80540091
:104a10008fb997008a007800c629020000000000c4
:104a20000000e00046003200800020002600370031
:104a30000e58a300080032000d8154000c80540071
:104a4000880178008fb89700c62902000000000096
:104a50000000e0003a00320030408000e10f5000da
:104a600034003400e0002000104088000e48a3000d
:104a70000800320088804600880146007fb1970018
:104a800009007800c6290200000000000000e000d4
:104a90002b003200000120000b0037000e38a3006d
:104aa0000800320088804600880146000b0178002b
:104ab0007fb09700c6290200000000000000e0005f
:104ac0001f003200a0002000104088007afe37004e
:104ad0000e04e00009003d008c0055008d015500da
:104ae0007fb1970009007800c6290200000000008d
:104af0008000eb000000e00012003200c000200047
:104b0000104088000e0178000208a300090032005e
:104b10008c0055008d0155000b0178007fb0970087
:104b2000c6290200000000008000eb000000e00049
:104b3000040032000228ef001100200001003700bd
:104b40008000eb00010078004f0778004f06be00a0
:104b50004f05be004f04be00ef00b100000006008c
:104b60000a87a9000887a800a080a8000000060006
:104b7000000006000000e00002003200dc02a90094
:104b800000000600dc02a800000006000400fa0095
:104b9000889fbe008a9fbe008c9fbe0086bf9f007c
:104ba00097bf9f004fb49700bfb39700afb4970073
:104bb000263880007f03630070031300ef0f53005b
:104bc000fbff36000607e200feff35006d3880006f
:104bd0007c3880008b3880009a38800060388800ec
:104be00071388800823888009338880000002000df
:104bf00001202600000272008182720004388800c1
:104c00001538880000000000000020000130260058
:104c10000fb997009fb99700000071008180710063
:104c20000038880011388800000000007fa8970035
:104c30008000eb004c09dd00c401de00830171003f
:104c40004c01dd006fa897008000eb0000007100b0
:104c500081807100020020000340260002007000e5
:104c60008380700000388800113888000000000040
:104c700000302000808f5400020032000900e00064
:104c80000a003a000fb09700610060008000eb005e
:104c90000200200003602600020070008380700084
:104ca0000038880011388800000000000800e0008b
:104cb00001003200280020000700e000010032005f
:104cc000470020006149b800000020000170260064
:104cd00000007100818071001fb197008001eb001e
:104ce00002007000838070008004eb0008047000f4
:104cf000898470006138b8000004740081847400f5
:104d0000083888001938880000000000203880002a
:104d10007f00600070001000ef0f5000fbff3600b6
:104d20000607e200feff35006d3888007c388800f9
:104d30008b3888009a388800100020004f06be008b
:104d40004f05be004f04be000080fa0000000600c0
:104d50000400fa00889fbe008a9fbe008c9fbe00a0
:104d600086bf9f0097bf9f004fb49700bfb39700c7
:104d7000afb49700263880007f03630070031300f0
:104d8000ef0f5300fbff36000607e200feff350081
:104d90006d3880007c3880008b3880009a38800025
:104da000603888007138880082388800933888001d
:104db00000002000012026000002720081827200a3
:104dc000043888001538880000000000000020002a
:104dd000013026000fb997009fb9970000007100bd
:104de00081807100003888001138880000000000c0
:104df0007fa897008000eb004c09dd00c401de00b5
:104e0000830171004c01dd006fa897008000eb006a
:104e10000000710081807100020020000340260024
:104e2000020070008380700000388800113888000c
:104e30000000000000302000808f5400020032008b
:104e40000900e0000a003a000fb09700610060001e
:104e50008000eb00020020000360260002007000ca
:104e6000838070000038880011388800000000003e
:104e70000800e00001003200280020000700e000e8
:104e800001003200470020006149b8000000200006
:104e90000170260000007100818071001fb1970031
:104ea0008001eb0002007000838070008004eb0042
:104eb00008047000898470006138b8000004740030
:104ec00081847400083888001938880000000000c8
:104ed000203880007f00600070001000ef0f50004d
:104ee000fbff36000607e200feff35006d38880044
:104ef0007c3888008b3888009a38880010002000a1
:104f00004f06be004f05be004f04be000080fa00f1
:104f1000000006000000fa00889fbe008a1f78008b
:104f20008c9fbe000606be00263880007f0363000b
:104f300070031300ef0f5300fbff36000607e2007b
:104f4000feff35006a38800079388000883880009c
:104f5000973880006038880071388800823888006f
:104f60009338880000002000012026000002720013
:104f70008182720004388800153888000000000023
:104f800000002000013026000000760081807600bd
:104f90000038880011388800000000007fb09700ba
:104fa0008000eb004c09dd00c401de0083017100cc
:104fb0004c01dd006fb097008000eb000000710035
:104fc0008180710002002000034026000200700072
:104fd00083807000003888001138880000000000cd
:104fe000000e20000170260000388800113888006b
:104ff00000000000203880007f006000700010007a
:10500000ef0f5000fbff36000607e200feff350001
:105010006a3888007938880088388800973888008e
:10502000100020004f06be004f0578004f04be0060
:105030000080fa00000006000000fa00889fbe0011
:105040008a9fbe008c9fbe006fb497000606ea00e0
:105050000c14b00008065600090f20000966b800bd
:105060000405ea000a14b000080555000955b80007
:10507000881f78004fb29700841f78000002eb0071
:10508000841f780006062000861f7800060820008e
:10509000861f7800841f7800841f78000c834300eb
:1050a000e0834e000a824200e0824d0028ff0700a4
:1050b000ee875700100020004f06be004f05be00cf
:1050c0004f04be000080fa0000000600889fbe006a
:1050d0008a9fbe008c9fbe0081057800fc132000d3
:1050e00000065600203880007f006000700010002d
:1050f000e30f5000fbff36004411020000000000e7
:1051000018002000090020000080fb0088006000db
:105110000138880044110200000000000080fb00fc
:10512000080060008000eb00020020000360260001
:1051300002007000838070001138880000000000b9
:10514000000f20000066b8000c864500e0864e0087
:1051500000002000013026000006760081867600df
:105160000c3888001d388800000000001000210065
:105170000140260000388800113888000000000037
:1051800000062000017026000038880011388800d1
:1051900000000000080078004f06be004f05be006a
:1051a0004f04be00000006000200fa000001eb0000
:1051b000f2bf9f00f3132000830f500037003e0022
:1051c000f40e2000848f500034003e000080510017
:1051d000223880007f01610070011100ef0f510043
:1051e000fbff36000607e200feff35000f82e900f4
:1051f0006121b8008238880093388800020f2000af
:105200000201b80002804000e08049000200200056
:1052100003202600020070008380700000388800a0
:105220001138880000000000000020000130260036
:1052300000388800113888000000000010002100ac
:105240000140260000388800113888000000000066
:10525000000e2000017026000038880011388800f8
:1052600000000000203880007f0060007000100007
:10527000ef0f5000fbff36000607e200feff35008f
:10528000104680002146800080388800104680004b
:1052900021468000913888007fb99700024078004d
:1052a0000080fa00000006000000ea000014b000d0
:1052b00003005000243880007f0262007002120058
:1052c000e30f5200fbff36000f003700203880004c
:1052d0007f00600070001000ef0f5000fbff3600f1
:1052e0000607e200feff35001046800021468000e0
:1052f00060388800104680002146800071388800a0
:1053000003007800000006006112b80064388800cd
:105310007538880004002000052026000438880025
:105320001538880000000000020f20000202b800bb
:1053300004804000e0804a00040020000530260080
:1053400004007000858070000038880011388800e3
:1053500000000000611ab800000021000140260092
:1053600000007200818072000038880011388800c7
:1053700000000000200e2000017026000038880088
:105380001138880000000000d0ff3700889fbe0061
:105390008a9fbe008c9fbe008e1f78000004be0056
:1053a00003077800203880007f0060007000100044
:1053b000e30f500006003e000000eb004f077800ae
:1053c0004f06be004f05be004f04be0000000600a1
:1053d00061061400020646004411020000000000ad
:1053e0001a0020000b0020000080fb008a006000f3
:1053f0000138880044110200000000000080fb001a
:105400000a0060008000eb0002002000036026001c
:1054100002007000838070001138880000000000d6
:1054200000142000080050000c005000010f200064
:105430000100b80000804400e08048000200200025
:10544000033026000200700083807000003888005e
:1054500011388800000000008006eb0000002000ea
:1054600001402600000676008186760061811400e6
:105470000e0141008001eb004c18dd00c410de007d
:10548000810070004c10dd000006760081867600f9
:105490000c3888001d38880000000000000620003d
:1054a00001702600003888001138880000000000d4
:1054b0000a007800c1ff3700889fbe008a9fbe00a7
:1054c00074150200000000000005780010b02000f4
:1054d0007015020000000000203880007f0060008e
:1054e00070001000e30f5000fbff36004411020073
:1054f0000000000018002000090020000080fb00d0
:10550000880060000138880044110200000000009b
:105510000080fb00080060008000eb00020020001b
:10552000036026000200700083807000113888003c
:10553000000000000938880000002000013026002b
:10554000113888000000000000142000f1402600ff
:105550000038880011388800000000004006200054
:105560000170260000388800113888000000000013
:105570006000b800cc110200000000000a007800b2
:105580007015020000000000080078004f05be0002
:105590004f04be0000000600263880007f03630031
:1055a00070031300ef0f5300fbff36000607e20005
:1055b000feff350060388800713888000000200048
:1055c0000110270000388800113888000000000012
:1055d0008238880093388800003888000000200056
:1055e0000120270011388800000000000000200082
:1055f0000140270000027200818272000438880096
:10560000153888000000000006003700e0398000ef
:10561000c003b20003003200e0398000c043b20092
:10562000000006003c27ab00f8ff3200e0398000a4
:10563000c043b2000000060080000500889fbe0045
:105640008a9fbe000004be000205be00faff0700ec
:10565000800078000000eb00e48f5000e70032008b
:10566000c011020000000000670060008046880052
:10567000c011020000000000700060009046880029
:1056800000282f00f1ff2f00c24c800000004100d5
:10569000e0804800e50f5000e08f5800d2003e0047
:1056a0000060010005003700cf00370057003700c9
:1056b00075003700c7003700cb0037008a0f540051
:1056c0000e003a0058468800784688008b8f5400b8
:1056d000030036006b468800494688000200370008
:1056e000694688004b468800d628ef00100020004d
:1056f000a046880020d82000b90037008b8f5400c6
:105700000e003a0049468800694688008a0f540016
:10571000030036007a4688005846880002003700a9
:10572000784688005a468800d628ef0010002000ee
:10573000a046880030d82000a90037000800550096
:105740003047880004003b000000ea003047880032
:10575000dca8ef000200370010002000e0468800bf
:10576000098055002047880004003b000000ea0043
:1057700020478800daa8ef00020037001000200060
:10578000d0468800d828ef003047800021478000ad
:10579000810f50000c003d0012002000c24688001e
:1057a0003147880020478800e04680003046880066
:1057b000da08f800dc08f900d0468800794688004d
:1057c00068468800020037007846880069468800ed
:1057d0005a4688004b4688003047800080004000d1
:1057e000f146880021478000818040000147880001
:1057f0000080500010478800d628ef0010002000dd
:10580000a046880040d8200075003700cc08f8007a
:10581000c608f90017003700d608ec00b04688002b
:10582000d008e30002003a00d408aa00d628ef000e
:10583000d408e2000e00320090468000f00f5000c5
:1058400008003a00704680000001e8000000e9000e
:1058500083007800cdfe07000000e00004003a005d
:1058600065003700830078007046800017fe07004f
:10587000c628ec0033468000c808ec00808f510039
:10588000e5ff390055003700ce08f800c608f900da
:1058900019003700b14680008100e800b146880059
:1058a00082468000810f510002003a00d408aa000d
:1058b000d628ef00d408e2000e00320091468000a6
:1058c000f08f500009003a00634680008300e90031
:1058d0008301e8000001780002007800abfe0700b9
:1058e0000000e00003003a004300370061468000fa
:1058f000f6fd0700c628ec003046800051468000c7
:105900008100e800810f5000e2ff390033003700ca
:10591000d408e2001c00320090468000d808e20063
:105920000b003200f00f500006003a006046800085
:105930000001e8000000e900734680008300780061
:105940000a00370071468000604680000d00370075
:10595000f00f500009003a00634680008300e90020
:105960008301e800724680000200780087fe07008d
:105970000000e00004003a001f003700614680008c
:1059800070468000d1fd0700114780000100e00053
:1059900005003500d0468000cc28b400f0468000d9
:1059a0008080500011478800e0468000ce28b40077
:1059b00000478000e228b400d608ec00b04688001a
:1059c000d008e30002003a00d408aa00d628ef006d
:1059d000e628ed00e608e200cdff3d0050d82000ab
:1059e000c04c880026ff370000d82000c04c88003b
:1059f00010002000010037000000eb004f05be0042
:105a00004f04be0000000600889fbe008a9fbe00b3
:105a10000004be000205be0007ff0700e40f5000af
:105a2000340032006150b800803888009138880016
:105a3000000020000130260000388800113888005e
:105a4000000000000800ea000014b0000b00500045
:105a5000010f20000100b80000804400e0804800f1
:105a600002002000032026000200700083807000e6
:105a70000038880011388800000000006159b80023
:105a800000002100014026000000710081807100ab
:105a9000003888001138880000000000400e200007
:105aa00001702600003888001138880000000000ce
:105ab000203880007f00600070001000ef0f500061
