:020000040000fa
:080000000002040000000000f2
:020000040000fa
:10000800f8030000f8030000f8030000f8030000fc
:10001800f8030000f8030000f8030000f8030000ec
:10002800f8030000f8030000f8030000f8030000dc
:10003800f8030000f8030000f8030000f8030000cc
:100048002e030000f8030000f8030000f803000086
:10005800f8030000f8030000f8030000f8030000ac
:10006800f8030000f8030000f8030000f80300009c
:10007800f8030000f8030000f8030000f80300008c
:10008800f8030000f8030000f8030000f80300007c
:10009800f8030000f8030000f8030000f80300006c
:1000a800f8030000f8030000f8030000f80300005c
:1000b800f8030000f8030000f8030000f80300004c
:1000c800f8030000f8030000f8030000f80300003c
:1000d800f8030000f8030000f8030000f80300002c
:1000e800f8030000f8030000f8030000f80300001c
:1000f800f8030000f8030000f8030000f80300000c
:10010800f8030000f8030000f8030000f8030000fb
:10011800f8030000f8030000f8030000f8030000eb
:10012800f8030000f8030000f8030000f8030000db
:10013800f8030000f8030000f8030000f8030000cb
:10014800f8030000f8030000f8030000f8030000bb
:10015800f8030000f8030000f8030000f8030000ab
:10016800f8030000f8030000f8030000f80300009b
:10017800f8030000f8030000f8030000f80300008b
:10018800f8030000f8030000f8030000f80300007b
:10019800f8030000f8030000f8030000f80300006b
:1001a800f8030000f8030000f8030000f80300005b
:1001b8002aeb0000f8030000f8030000f803000031
:1001c800f8030000f8030000f8030000f80300003b
:1001d800f8030000f8030000f8030000f80300002b
:1001e800f8030000f8030000f8030000f80300001b
:0801f800f8030000f803000009
:020000040000fa
:10020800f8030000f8030000f8030000f8030000fa
:10021800f8030000f8030000f8030000f8030000ea
:10022800f8030000f8030000f8030000f8030000da
:10023800f8030000f8030000f8030000f8030000ca
:100248002e030000f8030000f8030000f803000084
:10025800f8030000f8030000f8030000f8030000aa
:10026800f8030000f8030000f8030000f80300009a
:10027800f8030000f8030000f8030000f80300008a
:10028800f8030000f8030000f8030000f80300007a
:10029800f8030000f8030000f8030000f80300006a
:1002a800f8030000f8030000f8030000f80300005a
:1002b800f8030000f8030000f8030000f80300004a
:1002c800f8030000f8030000f8030000f80300003a
:1002d800f8030000f8030000f8030000f80300002a
:1002e800f8030000f8030000f8030000f80300001a
:1002f800f8030000f8030000f8030000f80300000a
:10030800f8030000f8030000f8030000f8030000f9
:10031800f8030000f8030000f8030000f8030000e9
:10032800f8030000f8030000f8030000f8030000d9
:10033800f8030000f8030000f8030000f8030000c9
:10034800f8030000f8030000f8030000f8030000b9
:10035800f8030000f8030000f8030000f8030000a9
:10036800f8030000f8030000f8030000f803000099
:10037800f8030000f8030000f8030000f803000089
:10038800f8030000f8030000f8030000f803000079
:10039800f8030000f8030000f8030000f803000069
:1003a800f8030000f8030000f8030000f803000059
:1003b8002aeb0000f8030000f8030000f80300002f
:1003c800f8030000f8030000f8030000f803000039
:1003d800f8030000f8030000f8030000f803000029
:1003e800f8030000f8030000f8030000f803000019
:0803f800f8030000f803000007
:020000040000fa
:100400006fac21000eff27000e01880000000000e5
:10041000000020000000e000020032000001200087
:10042000200288000c000700202f2300110020006c
:100430000f000700000020000000e0000200320072
:100440000000020000000000562f02000100000022
:100450000040da000000fe0020f920000000e0006b
:1004600002003200002020009001880000000600f9
:10047000a1028800800078000000eb001a0037001d
:10048000e280400054a0b4009101ba00e280400034
:1004900054a0b4009102ba00e280400054a0b4001d
:1004a0000002eb00472bde00f507b200a601880032
:1004b000602ce10008003a000049eb000201e8006e
:1004c000020039003420ec0002f0a0008301e900b2
:1004d000f9ff3e00040037006128e100010032000e
:1004e0000082eb00040007001101ba000200e000e6
:1004f000e3ff3a000000060004d0a300e20f490029
:100500001c003900810278003549ba000201e80078
:10051000020039003420ec0002f0a0008301e90061
:100520000f0032002549ba000201e800020039003c
:100530003420ec0002f0a0008301e9000800320042
:100540000400e0000600320015c9ba000201e8000c
:10055000020039003420ec0002f0a0008301e90021
:100560008180e80054a0b4000300e000e2ff3a00fc
:10057000000006009102ba00055978008301e900e5
:10058000f7ff3200c82ade00055978008301e90030
:10059000f3ff32000400e000f1ff320011d9ba008d
:1005a000eeff3700a4320400010000002210040016
:1005b00001000000061d040001000000341c0400be
:1005c000010000000e1c040001000000242a0400a9
:1005d00001000000f2290400010000009e02040056
:1005e00001000000b001040001000000a6080400a2
:1005f000010000000e06040001000000580c040079
:10060000010000001609040001000000880f04002a
:10061000010000002627040001000000ea26040073
:10062000010000003a2c040001000000082c040026
:10063000010000004023040001000000a622040085
:1006400001000000b6210400010000000e2f04008c
:1006500001000000fc2d04000100000000a0fe00cd
:100660003600f800849fbe00869fbe003200f8006e
:100670003400f80014002000a401880004202000a9
:1006800094018800c04b8000d14b80006100400085
:10069000e0804800c04b8800d14b88000a21ef0061
:1006a0008500a900e8160200010000003400f900ee
:1006b0003200f9004f03be004f02be003600f900c1
:1006c0000080fe00004006000a21ef00e039200013
:1006d000700888008500a9009500a80013e1a80013
:1006e00000000600d802a900c0a2a900dc02a800f0
:1006f000ed04a900e924a900e2a4a900f102a800e0
:10070000e122a800c8a2a800c002a900c402a80053
:10071000e204a900c802a900cc02a800d902a900dd
:10072000dd02a900e224a900c822a900cc22a80069
:10073000c002a900c402a800e6e90200000000000f
:10074000c1c2a900c5c2a800d902a900c822a90037
:10075000c802a800e204a900e224a900f00b2000ce
:100760004207b600610420007205200023742000b7
:1007700081497800824978008049780003fc2f0085
:100780001436800004806100b000b3001036880089
:10079000f40f2c00003680000002620000a0200050
:1007a0000400700000368800c46a2000148a6100ca
:1007b000103a80000060a000237420008149780076
:1007c000824978008049780000542900c420020042
:1007d00001000000bcff07008001eb00a2312000f7
:1007e000e1312000203220009a26040001000000a0
:1007f0000040da000000fe00889fbe008004780000
:10080000205980000000e00004003a000e000700bc
:100810000084eb000000e00008003500285980004b
:100820000900e0000500320009004400060007004e
:100830000000e00001003d000084eb0008007800ab
:100840004f04be0000000600800078000100e000b8
:1008500003003a0060b22000205988000000050023
:100860000080eb0062ac2100828f500002003e004d
:10087000215988000000eb0000000600839f6800fb
:100880000100e00002003d0060001000e080180060
:100890000300e00002003d0060011100e08119004a
:1008a000050007004f00e00002003b006000100060
:1008b000e0801800000006006022b8000602200058
:1008c0000000d0008180d2000482d2008582d20054
:1008d0000000a0000202520083825a00030031008f
:1008e0000202420083824a000000a1000603e900e0
:1008f000f3ff3a0000000600020ab900001bb9002d
:100900000200b800810042008100430000000600a0
:100910000000e0002f003200c0017800e38f51009a
:100920002c0036000308a3002a003a00f15880008a
:100930000100e00002003200810f5000040031008d
:1009400011009800f05888001600370082007800e7
:10095000110190000200e00002003200800f5100ff
:10096000faff39001102780084824000850f5000a0
:1009700018003900808f520003003a0083084200bb
:1009800001007800070037000200e0000300320099
:1009900083014000830f51000e00390012009800bf
:1009a00090009800900090000100e00009003200e3
:1009b00010014000828f500006003a00c2b12000b2
:1009c0000009eb001001780011084100910090002f
:1009d0001100980000000600889fbe000004780007
:1009e000e15880000100e0000200320001007800c0
:1009f0000d003700f1588000e0b1200004003700fe
:100a0000910f5400250036000180e800910090000d
:100a10000100e000faff3a0010003700920f540086
:100a20001e0036000280e800100178000200e0009d
:100a3000faff3a0011017800f1588000e0b120007f
:100a400004003700910f5400140036000180e800c4
:100a500091009000828f5000faff3a0019598000ef
:100a6000888f540001003100880478000900780064
:100a7000360007000000e00004003a00888f5400b0
:100a8000050032008904d100f5ff3700091878000d
:100a90009fff0700d2ff37000000eb004f04be00ad
:100aa00000000600881f7800630440000800a100d1
:100ab0008000eb00800f540021003600e30f54004b
:100ac00001003e004800200008007800c2ff070037
:100ad0008000eb000000e000190032009000780078
:100ae0009101780064815100880f510003003100aa
:100af00011019000020878000700370008814000cb
:100b0000020878009101900013019800100178000c
:100b10001109140088087800100178000000eb002b
:100b20000200e00004003200920190000300e000a7
:100b3000010032000280e800e05888008180e8006f
:100b4000010078004f047800000006008000780063
:100b50000000eb000100e000050034000100780017
:100b600025ff0700e10f400001003a000000eb0004
:040b7000000006007b
:020000040000fa
:100b740000000000200000007e00000011000000c2
:100b8400048400000100000004950000010000003e
:100b940006a600000100000009b7000001000000e3
:100ba40008d90000010000000cea00000100000068
:100bb4000a0c000002000000032e000002000000e6
:100bc400043f000002000000045000000200000086
:100bd400086100000200000008720000020000002a
:100be40004830000020000000594000002000000dd
:100bf40004a500000200000005b600000200000089
:100c040008c700000200000008d80000020000002d
:100c140008e900000200000008fa000002000000d9
:100c2400080b000003000000081c00000300000083
:100c3400082d000003000000083e0000030000002f
:100c4400084f0000030000000860000003000000db
:100c5400047100000300000004820000030000008f
:100c6400089300000300000008a400000300000033
:100c740008b500000300000006c6000003000000e1
:100c84000cd700000300000009f900000300000075
:100c9400091b000004000000083d000004000000df
:100ca4000a4e000004000000077000000400000069
:100cb40007810000040000000a9200000400000004
:100cc4000ab400000400000005d60000040000007f
:100cd40004e700000400000008f80000040000001d
:100ce40007090000050000000c1a000005000000c0
:100cf4000a3c0000050000000b5e00000500000037
:100d040008800000050000000b91000005000000b1
:100d140008b300000500000007c40000050000003f
:100d240007d50000050000000ae6000005000000e9
:100d340008080000060000000d190000060000006d
:100d4400083b000006000000074c000006000000fd
:100d5400085d000006000000046e000006000000ac
:100d6400057f00000600000004900000060000005b
:100d740007a100000600000006b200000600000003
:100d840008c300000600000007d4000006000000ad
:100d940008e500000600000007f600000600000059
:100da4000807000007000000081800000700000002
:100db4000529000007000000073a000007000000b2
:100dc400084b000007000000045c0000070000005e
:100dd400046d000007000000077e0000070000000b
:100de400048f0000070000000da0000007000000b1
:100df40008c200000700000008d30000070000003c
:100e040008e400000700000008f5000007000000e7
:100e14000506000008000000071700000800000095
:100e24000528000008000000083900000800000040
:100e3400074a0000080000000a5b000008000000e8
:100e4400077d000008000000078e00000800000075
:100e5400079f00000800000005b000000800000023
:100e640007c100000800000005d2000008000000cf
:100e740008e300000800000000000000000000007b
:100e8400000000000000000000000000000000005e
:100e9400000000000000000000000000000000004e
:100ea4000202000002020000020200000200000030
:100eb400020200000000000000000000000000002a
:100ec40000120000121200001200000000000000d6
:100ed400000000000000000000000000000000000e
:100ee400000000000000000000480000004800006e
:100ef4000048000000ff000000240000002400005f
:100f040000ff0000001200000012000000120000a8
:100f140000000000000000000000000000000000cd
:100f24000000000000100000107c000016120000f9
:100f34001c700000505000003e1000001000000023
:100f4400000000000000000000000000000000009d
:100f54000c0100009200000092000000520000000a
:100f640052030000ac040000a00400009004000040
:100f740090040000080300000000000000000000ce
:100f8400000000000000000000000000000000005d
:100f9400000000003800000044000000440000008d
:100fa4002c000000180000003c0200006201000058
:100fb400c2010000c60100003c0300000000000064
:100fc400000000000000000000000000000000001d
:100fd4000002000002020000020000000000000005
:100fe40000000000000000000000000000000000fd
:100ff40000000000080400000406000002020000d3
:1010040002020000060400000408000000000000c2
:1010140000000000000100000202000006040000bd
:1010240004040000040600000202000001000000a5
:101034000000000000080000087e00000814000002
:101044001400000000000000000000000000000088
:101054000000000000000000000000000008000084
:10106400080800007f0800000808000000000000d5
:10107400000000000000000000000000000000006c
:101084000000000000000000000000000606000050
:10109400020000000000000000000000000000004a
:1010a4000000000000000000000e0000000000002e
:1010b400000000000000000000000000000000002c
:1010c400000000000000000000000000000000001c
:1010d4000606000000000000000000000000000000
:1010e40000100000080800000c04000004020000c6
:1010f40002030000010000000000000000000000e6
:10110400000000003c240000624200004242000053
:1011140042660000243c00000000000000000000c3
:10112400000000000010000018140000101000005f
:10113400101000001010000010000000000000005b
:1011440000000000000000003c620000404000007d
:1011540020300000180c0000067e00000000000093
:101164000000000000000000003c0000624000009d
:10117400601c000060400000406000003e00000071
:10118400000000000000000000000000203000000b
:10119400302800002424000022fe0000202000004b
:1011a400000000000000000000000000003c0000ff
:1011b40004060000023e00006040000040600000a1
:1011c4003e000000000000000000000000000000dd
:1011d400380c0000060200003a660000424200009b
:1011e400643800000000000000000000000000005f
:1011f400007e0000402000002010000010180000b5
:10120400080c0000040000000000000000000000c2
:10121400000000003c660000426600001c24000040
:1012240042420000663c0000000000000000000094
:1012340000000000003c000026420000426600005e
:101244005c400000603000001c0000000000000052
:10125400000000000000000000000000060600007e
:10126400000000000000000006060000000000006e
:101274000000000000000000000000000006000064
:101284000600000000000000000600000602000046
:10129400000000000000000000000000000000004a
:1012a400403000000c0200000c3000004000000040
:1012b400000000000000000000000000000000002a
:1012c400000000007e000000007e0000000000001e
:1012d400000000000000000000000000000000000a
:1012e40000000000020c000030400000300c000040
:1012f40002000000000000000000000000000000e8
:10130400000f000019100000100800000c04000079
:1013140000040000040000000000000000000000c1
:10132400000000000000000000f0000001080000c0
:101334000304000006e2000004920000049200008e
:10134400049200000462000003040000000c00008a
:1013540000f0000001000000000000000000000098
:101364000000000000000000000000000010000069
:101374000028000000280000006c00000044000069
:101384000044000000fe0000008200000083000012
:101394000101000001000000000000000000000046
:1013a4000000000000000000000000000000000039
:1013b400007e000000c200000082000000c20000a5
:1013c400003e000000c20000008200000082000015
:1013d40000c20000007e00000000000000000000c9
:1013e40000000000000000000000000000000000f9
:1013f400f88c000006020000020200000206000051
:101404000cf80000000000000000000000000000d4
:1014140000000000000000003e000000c2000000c8
:10142400820100000201000002010000020100002c
:101434000201000082000000c20000003e00000023
:101444000000000000000000000000000000000098
:1014540000000000003e000002020000023e000006
:1014640002020000020200003e0000000000000032
:1014740000000000000000007e02000002020000e4
:101484007e020000020200000202000000000000d0
:101494000000000000000000000000000000000048
:1014a400f00100000c000000040000000200000035
:1014b40002000000c201000002010000040100005b
:1014c4000c010000f8010000000000000000000012
:1014d4000000000000000000000000000000000008
:1014e40000000000020100000201000002010000ef
:1014f40002010000fe0100000201000002010000e0
:1015040002010000020100000201000000000000ce
:1015140000000000000000000000000000000000c7
:10152400000e000004040000040400000404000091
:10153400040400000e000000000000000000000091
:101544000000000008080000080800000808000067
:101554000808000008080000080800000700000050
:101564000000000000c2000062220000120a000015
:101574001632000022420000c200000000000000f9
:10158400000000000000000002020000020200004f
:101594000202000002020000027e000000000000bf
:1015a4000000000000000000000000000000000037
:1015b40006060000060600000a0500000a050000f1
:1015c4009a040000920400009204000062040000e7
:1015d400620400006204000000000000000000003b
:1015e40000000000000000000000000000000000f7
:1015f4000000000006010000060100000a010000ce
:101604001a01000012010000220100006201000022
:10161400420100008201000082010000000000007d
:1016240000000000000000000000000000000000b6
:101634000000000000000000f80000008c01000021
:101644000603000002020000020200000202000081
:1016540002020000060300008c010000f8000000f4
:101664000000000000000000000000000000000076
:1016740000000000003e00006242000042620000e0
:101684003e02000002020000020000000000000010
:1016940000000000000000000000000000f800004e
:1016a400008c00000106000003020000020200009a
:1016b400020200000202000002060000038c000087
:1016c40001f8000000c000000080000001000000dc
:1016d4000100000000000000000000003e62000065
:1016e40042420000621e000012220000224200005a
:1016f400000000000000000000000000003c0000aa
:1017040026020000060c0000182000002030000013
:101714001e000000000000000000000000000000a7
:101724007f080000080800000808000008080000fe
:101734000808000000000000000000000000000095
:10174400000000000000000002010000020100008f
:101754000201000002010000020100000201000079
:101764000201000002010000840000007800000073
:101774000000000000000000000000000000000065
:101784000000000000810000c34200004266000027
:10179400242400003c180000180000000000000091
:1017a40000000000000000000000000000410000f4
:1017b40010a3000018a2000008a2000008a2000064
:1017c400081600000d1400000514000005140000a4
:1017d40005080000020000000000000000000000f6
:1017e4000000000000000000000000008142000032
:1017f400243c0000181800002466000042c10000c8
:101804000000000000000000000000000041000093
:101814002222000014140000080800000808000038
:1018240008000000000000000000000000000000ac
:101834007e60000020300000100800000c0400004e
:10184400067e000000000000000000000000000010
:10185400000e00000202000002020000020200006a
:1018640002020000020200000e000000000000005e
:101874000000000001030000020200000404000054
:101884000c08000018100000000000000000000018
:10189400000000000007000004040000040400002d
:1018a4000404000004040000040400000700000015
:1018b40000000000000000000814000014220000d2
:1018c40022410000000000000000000000000000b1
:1018d4000000000000000000000000000000000004
:1018e40000000000000000000000000000000000f4
:1018f4003f0000000000000000180000300000005d
:1019040000000000000000000000000000000000d3
:1019140000000000000000000000000000000000c3
:10192400001c0000202000003c26000022320000a1
:101934002c00000000000000000000000002000075
:10194400020200003a6600004242000042420000e7
:10195400663a0000000000000000000000000000e3
:1019640000000000003c000004020000020200002d
:10197400020400003c000000000000000000000021
:1019840000400000404000005c660000424200004d
:1019940042420000665c00000000000000000000fd
:1019a4000000000000000000003c00006442000051
:1019b4007e020000024400007800000000000000e5
:1019c40000000000001c0000020200000f020000e2
:1019d40002020000020200000202000000000000f7
:1019e400000000000000000000000000007c000077
:1019f40022220000261c0000043c00004642000095
:101a0400623c00000000000000020000020200002e
:101a14003a66000042420000424200004242000096
:101a240000000000000000000000000002020000ae
:101a34000002000002020000020200000202000094
:101a4400020000000000000000000000000400008c
:101a54000400000004040000040400000404000066
:101a6400040400000404000007000000000000005b
:101a74000202000002620000321a00000a1e000086
:101a840012220000620000000000000000000000bc
:101a94000002000002020000020200000202000034
:101aa400020200000202000000000000000000002a
:101ab4000000000000000000000000000000000022
:101ac400000000003a070000e60c00004208000095
:101ad40042080000420800004208000042080000da
:101ae40042080000000000000000000000000000a8
:101af400000000000000000000000000003a0000a8
:101b040066420000424200004242000042000000df
:101b140000000000000000000000000000000000c1
:101b24003c2400004242000042420000243c0000e9
:101b340000000000000000000000000000000000a1
:101b4400003a000066420000424200004266000083
:101b54003a02000002020000000000000000000041
:101b6400000000005c6600004242000042420000a7
:101b7400665c0000404000004000000000000000df
:101b840000000000001a000006020000020200002b
:101b9400020200000200000000000000000000003b
:101ba40000000000000000003c020000020c0000e5
:101bb40038200000201e000000000000000000008b
:101bc4000000000000020000021f000002020000ea
:101bd40002020000020200001c00000000000000dd
:101be400000000000000000000000000424200006d
:101bf4004242000042420000665c00000000000017
:101c0400000000000000000000000000004100008f
:101c140063220000223600001414000008000000b3
:101c240000000000000000000000000000000000b0
:101c3400000000000000000000310000023100003c
:101c440002330000034a0000014a0000014a000078
:101c5400014a0000018400000000000000000000b0
:101c64000000000000000000000000000000000070
:101c74000000000063220000140800001c1400008f
:101c840022630000000000000000000000000000cb
:101c94000000000000410000632200002234000024
:101ca40014140000080800000c07000000000000e5
:101cb40000000000000000003e300000100800009a
:101cc40008040000063e00000000000000000000c0
:101cd40000000000001800000404000004040000d8
:101ce40003040000040400000404000018000000c1
:101cf40000000000000800000808000008080000b8
:101d0400080800000808000008080000080800008f
:101d140008000000000000000003000004040000ac
:101d2400040400001804000004040000040400007b
:101d3400030000000000000000000000000000009c
:101d4400000000000e700000000000000000000011
:101d54000000000000000000ffff00000000000081
:101d6400c2100000c118000022390000e128000060
:101d74000231000040000000022900006108000058
:101d8400e1200000a3fe000081180000e220000012
:101d940042310000a2180000c220000002310000fd
:101da4000231000061100000eccc0000634100002f
:101db40063490000c459000002290000a12000006a
:101dc4006341000009b400008110000023410000b9
:101dd4006249000022290000435100004edd00004a
:101de40027930000eabb0000433100004341000098
:101df4004259000023390000eb5a00004edd000078
:101e04008592000066960000e3180000a9bb00005c
:101e1400a36100004fed0000024100000f7c0000b0
:101e240008420000cdd4000073f60000addc0000d1
:101e3400c1280000e238000024210000a63100007f
:101e4400a3690000c5820000858e000088c70000d9
:101e540087ab000069bc00004bd40000d1e5000052
:101e6400c5ae00006bc40000611800004fe500001f
:101e7400079b000044720000e12000008aa60000d5
:101e8400b0ed0000222100008bbc00008ac40000d9
:101e9400e6950000cab70000225a0000037a000049
:101ea40069af000089a30000f0ed0000718c000010
:101eb400e79e0000e8ae000012fe0000a99b0000af
:101ec40064850000e2850000c89b0000c674000021
:101ed4008375000087b60000a7a300008d6b000087
:101ee400c3950000237200008a520000e49e0000a3
:101ef400899f0000c11800006bc70000c0b3000038
:101f04004ccc000005860000a98e0000c3710000bf
:101f1400c6fe0000a7820000e27400000111000068
:101f240078ff0000877e000017c600006acf00001b
:101f3400868a0000813a000068ab0000e9fe0000d8
:101f44004364000013a50000098f00002aac0000c0
:101f5400257200007af70000878d000081210000bf
:101f6400289300008baf0000c34b0000cedc0000c0
:101f7400e5a2000024730000444200002265000032
:101f840095b50000667c0000448d000068ed0000fb
:101f940087b70000a6f40000077b0000a5b6000088
:101fa400e4510000e2790000e5b40000a331000030
:101fb400078f000087c60000a0dc0000a35b0000c0
:101fc400a2690000e66d00004adc0000466a0000d9
:101fd400a021000089ae00006ecf000086640000de
:101fe400c35c00003be70000249b0000a7750000d1
:101ff400089b000026e600008c970000e1530000d7
:10200400232100004221000023ee00008a9d0000ed
:102014006ae600006a7c0000e8b300006ee7000096
:10202400b9d60000645b000093e60000879d0000c1
:10203400249c00004ae7000081310000675300003f
:10204400e5f3000080300000d4bd000092e70000fa
:10205400024b0000844b0000847c000063cd000030
:10206400666a0000833a00006dbf000067d7000075
:102074008a85000051b5000084fb00004ad60000a8
:1020840028940000c14000006dc4000043520000c9
:102094006ca600006d9d00008fc600000483000044
:1020a40047630000c232000041510000e4fa00001e
:1020b4006bbe0000814a000081410000034a000019
:1020c400403b00002eb50000406200004231000099
:1020d4000cff0000829a000070e600000059000026
:1020e4004c940000008b000082ad000070c700001b
:1020f4002cbd0000c75c0000b7ef000026ad000057
:10210400ab6d000084cc0000468400008cad000060
:1021140071be000080100000a3ab00008f9400008b
:1021240015ce00006de60000638c000008bc0000c2
:102134002291000033d60000e2b1000085c3000004
:10214400acc500000d840000c0200000c9c200001e
:1021540000f8000000000000ffff00000000000085
:1021640000080000cb5a0000c2100000200000004c
:1021740020080000201000008048000064fc0000db
:102184004018000040180000c0600000a7fd0000d7
:102194006020000020200000f0f7000003fc000095
:1021a40020890000efff0000602800004038000094
:1021b400f1f7000081300000a2fb00006050000035
:1021c400403000008cff0000c1ea0000e070000015
:1021d4004bff0000a310000047fe000080a1000098
:1021e400adff000040100000eeff00000100000001
:1021f40063fb00002aff0000cb5a000027fe00000a
:1022040088fe0000e9fe0000a8fe00004040000037
:102214006040000007fe0000402800004028000045
:102224008030000022f30000f2f70000f3ff00000a
:102234004008000066fd00004120000080580000b6
:1022440046fd0000e5fc000021ba0000a1300000ba
:1022540006fd00006008000085fc00000079000015
:1022640007fd0000e0c10000aeff0000a5fc000077
:10227400cfff000082100000e4f30000ab52000026
:102284004dff000041e30000c0a9000025fc000050
:10229400a631000040c200008dff0000a0700000c5
:1022a400211800004aff0000c6fd0000cdf7000021
:1022b4004128000061810000442100000842000020
:1022c400e188000020000000a2d20000a038000035
:1022d400e2fe000061da0000a1990000c260000083
:1022e4006260000087fe000081080000009a000080
:1022f40040910000f4f7000080da0000c0500000b4
:1023040005f40000f6ff000020ca0000e3180000f6
:102314008018000060b10000aa52000000690000ab
:10232400a2480000e2c10000437900008068000078
:10233400e3dd000062ac000060890000e29300006d
:1023440000990000e2ca0000abfe0000a3a1000057
:10235400ef7b0000d9f70000f5f700006d6b00007b
:1023640062f6000041a90000fcff0000014a0000e1
:10237400718c0000e9830000c0180000e0da00005e
:10238400c3580000a2fe000013a50000e380000073
:102394006b4a000002c50000e0ab000044b200003c
:1023a400e2900000e0900000a0200000e4c10000e2
:1023b400b1ff0000cafe000044a900008af7000033
:1023c400a2b20000227b0000e6b400008268000094
:1023d400628300008168000060390000eef60000ae
:1023e40044e30000ccf7000081620000a18b0000f0
:1023f40009f600002329000084a40000d3ff000094
:10240400f7ff000067c5000042180000635a00008f
:1024140095b500002a6b0000489c0000c4600000d1
:1024240045f30000c341000000290000e250000011
:1024340086a40000034900008010000027fb000070
:1024440084e2000081690000a6fb000069730000bb
:10245400dad60000833100004330000065fd00003f
:10246400c292000004730000ead50000c16a0000b3
:10247400c4900000c3b40000ea5a0000679c000046
:10248400c5a1000017c600004251000062cb000045
:10249400249a0000a08900002059000067f400007d
:1024a4004093000028db00006be60000a831000028
:1024b400058100005ce7000034f700004df60000e1
:1024c400887b0000e5910000e2380000e21800007b
:1024d40026fe000024ea0000e6b90000a072000015
:1024e4000ae50000b7d60000e8f3000032ff000060
:1024f400a5fa000089c30000c3cb0000ecbc0000b7
:10250400a5710000aaec00004200000066c30000b0
:1025140033ce0000865a000007bc000084d40000bb
:102524002dde0000c6cc0000230000004320000084
:102534004ff60000e518000086fe0000e2180000d7
:10254400b1cd0000044a000000f80000ffff0000c5
:1025540000f800000000000000200000000000005f
:102564004c15000000010000bb0000008c000000be
:102574009a550000000000004866000000000000ba
:1025840008100000c9430000002000000000000003
:10259400e66a000000010000500000004f00000047
:1025a400f902000000000000b41800000000000060
:1025b40008100000c94300000020000000000000d3
:1025c400e06d000000010000500000004f0000001a
:1025d4007905000000000000b418000000000000ad
:1025e40008100000c94300000020000000000000a3
:1025f4005a73000000010000500000004f0000006a
:10260400ca09000000000000b41800000000000027
:1026140008100000ca430000002000000000000071
:10262400247d000000010000bb0000008c000000bd
:10263400f54a0000000000004866000000000000a9
:1026440008100000ca430000002000000000000041
:102654001ac8000000010000500000004f000000f4
:10266400b806000000000000b418000000000000dc
:1026740008100000ca43000000030000000000002e
:10268400ba850000000000000000000020000000e7
:102694007e000000110000000000000000000000a7
:1026a4000000000000000000000400000000000022
:1026b400ae8e00000000000000010000c9430000cd
:1026c4000000000000000000000000000000000006
:1026d40000000000000000000004000000000000f2
:1026e400ae9000000000000000010000ca4300009a
:1026f40000000000000000000000000000000000d6
:1027040000000000000000000001000000010000c3
:102714000001000000010000ff000000ff000000b5
:10272400ff000000fe000000fe000000fd000000ad
:10273400fc000000fb000000fa000000f9000000ab
:10274400f8000000f7000000f6000000f5000000ab
:10275400f3000000f2000000f1000000ef000000b0
:10276400ed000000ec000000ea000000e8000000ba
:10277400e6000000e4000000e2000000e0000000c9
:10278400de000000db000000d9000000d7000000dc
:10279400d4000000d2000000cf000000cc000000f4
:1027a400ca000000c7000000c4000000c10000000f
:1027b400be000000bb000000b8000000b50000002f
:1027c400b2000000af000000ab000000a800000051
:1027d400a5000000a10000009e0000009a00000077
:1027e40096000000930000008f0000008b000000a2
:1027f4008800000084000000800000007c000000cd
:102804007800000074000000700000006c000000fc
:102814006800000064000000600000005c0000002c
:1028240058000000530000004f0000004b0000005f
:1028340047000000420000003e0000003a00000093
:1028440035000000310000002c00000028000000ca
:10285400240000001f0000001b0000001600000000
:10286400120000000d000000090000000400000038
:1028740000000000707200006f6d000070740000b2
:102884002061000070700000656100007273000038
:102894002e000000756e0000746900006c200000ba
:1028a4007468000065200000636100006c6900002a
:1028b4006272000061740000696f00006e00000025
:1028c4007072000065730000736900006e67000099
:1028d400206f00006e200000746800006520000076
:1028e4007363000072650000656500006e000000ff
:1028f40072650000736500007420000074680000b5
:1029040065200000626f0000617200006420000016
:1029140077680000696c000065000000546f0000d7
:1029240020520000455000004541000054200000a2
:10293400636100006c690000627200006174000051
:10294400696f00006e2c0000006300006f6e0000d1
:10295400746900006e750000652e000000540000cc
:102964006f7500006368000020730000637200004c
:10297400656500006e200000746f000000730000a5
:1029840063720000656500006e2000006361000052
:102994006c6900006272000061740000696f0000dd
:1029a4006e2e00000050000065720000666f00008b
:1029b400726d0000696e000067200000746f0000f3
:1029c400756300006800000014f100005265000007
:1029d40074720000790000005072000065730000fa
:1029e4007320000026200000526500006c65000082
:1029f40061730000650000006369000072630000f9
:102a04006c650000006f00006e2000007468000018
:102a140065200000666900006c6c000065640000bd
:102a24000000000038200000425000005020000048
:102a34002d200000436f00006d70000072650000df
:102a440073730000656400000000000000010000d2
:102a54000001000000000000010000003e9300009f
:102a6400000b000000000000000000000000000057
:102a7400000000000000000001000000020000004f
:102a840003000000060000000000000053000000e6
:042a9400000000003e
:020000040000fa
:102a98003ae900002cc3000029c30000ccc600009e
:102aa80062c00000c7c70000c2a10000c2c2000087
:102ab800c2c6000022ca0000c2260000cfc600001d
:102ac800c6ca0000014600006c48000000c20000b1
:102ad80061010000b19800009999000025b9000033
:102ae800d8d8000038e40000d9cc0000cd2100007f
:102af80092e60000e62a00001c60000006070000bd
:102b08002b1b00001f9b00003c170000973c000097
:102b18008b9a00009a9c0000982800008bb900004e
:102b28002c1b00009799000019a7000030bb00007b
:102b3800b0a800009c55000072a000009bf900009e
:102b480064a50000e4b20000c9930000cd3800007d
:102b58006584000063a700003537000037170000c0
:102b6800dbd800004cd400000e0a00007f7d000076
:102b7800e24400006f5c0000f1b400006936000018
:102b880036d10000050500003de50000f3e6000031
:102b9800bd970000e184000001760000204000009d
:102ba80050320000fcfc0000402900001920000001
:102bb80000920000cc5c000020a70000b3000000d9
:102bc800810100008860000003320000d5d90000b0
:102bd800c00e00006165000005ba000004e60000b0
:102be800649000009bd80000383800008032000054
:102bf800acac00000266000020310000a0420000da
:102c080003590000599000001e550000a08f0000d5
:102c1800f9f8000080020000400500002c200000a8
:102c280075ac00006cb2000010a70000b39900005a
:102c3800b159000005aa0000999b0000f1b80000f6
:102c4800188800005b0500008acb0000c9da000084
:102c5800e5cb00009bd50000b59d00007671000013
:102c6800610d0000b7690000ce010000bad600006f
:102c7800c9090000e8e200006dbb00004eec00004e
:102c88007a3900001be80000721b00009b820000dc
:102c980082ce0000aa0e00006f610000b0eb0000b9
:102ca80080ce0000e3e1000044050000321000007f
:102cb800007400003f3f00003f3f0000b3bc00002d
:102cc800a8a8000028d000006e200000290a0000f3
:102cd800f681000028100000abc80000835c0000eb
:102ce800cbca0000cb0a00000c410000a023000062
:102cf800f9400000a10d0000f60e00000798000042
:102d0800e2000000fb86000045560000960d00001a
:102d1800e87c0000032000001203000029000000e6
:102d2800fa9b000003a8000017a800009a8500007d
:102d38004d4100000fe80000743100000336000028
:102d480033050000adb60000c96a00000a6600003d
:102d580002a2000072e2000056e2000066a2000033
:102d6800f90a000006a7000073ed0000e424000043
:102d780059af000087a5000085a50000015d00008f
:102d8800ae1d000066930000569c0000bd75000053
:102d9800ca070000bfe20000d9360000b33b0000bc
:102da800e3e200000aa200006616000076b4000004
:102db800ef70000011e6000091e40000e7e1000078
:102dc800e1170000868600003d0400008323000010
:102dd80003180000f2c00000b0170000666600008b
:102de800e6e200001313000085010000163e000013
:102df80016310000315100005920000003940000f2
:102e0800688000004e670000e6e50000e505000068
:102e18008637000007c80000a1600000b7810000e5
:102e2800c31f000094b60000546500008121000013
:102e38000e44000062500000200b0000f6b40000b1
:102e48000a9f0000a8a800003a1f00008b8a000013
:102e5800a8b80000959a000082a80000810200002e
:102e68009fb90000559b00006e5b0000e015000054
:102e780083dd000006e200006a0a00000aa70000dd
:102e8800dddd00001f96000069b50000cd320000ae
:102e980057dd0000d1d000009c960000566300006a
:102ea80063e30000943a0000ad06000004660000e9
:102eb800e714000017770000024100008176000047
:102ec800cbcc00007dd70000bf3c0000d9d6000065
:102ed8007efd0000faf500001df20000fce0000095
:102ee800a00700003b1c000001c0000009470000cb
:102ef80046f80000fd7b00002e3e0000168800000a
:102f0800bbc50000e4200000a10f0000e1b20000f2
:102f18007070000009f00000f2320000f333000086
:102f2800330b000000c300009dc5000040140000e2
:102f380014190000e66c0000e62c0000a038000020
:102f480000ca0000ab0200009d2b00002a2a0000e6
:102f58006b0000007539000030880000450d000046
:102f680058f80000806900008c4300004585000087
:102f78004f5e0000aece00004ac100000014000001
:102f8800577200005aba0000ba6d000093af0000f3
:102f980098cb0000ca890000a929000058690000e0
:102fa80059e9000059cd0000b29b0000a3b500000c
:102fb800dbfd0000655a0000509800008d4d0000b0
:102fc80098760000eab4000069c5000035c5000025
:102fd800b38b0000c12000000e140000e6b700000b
:102fe800caf700007df9000032710000faf4000011
:102ff800e94f0000a66c000013e5000001ba0000cc
:1030080091530000460600009a540000202e00004c
:1030180017860000267c00002e6000005207000082
:10302800ba4c0000540c000012f400007c6200004e
:10303800e2a20000c0b400000a6200007280000032
:10304800dccd0000c50a0000740c0000382d00001b
:10305800009d0000210b000074a200002a28000037
:103068004ac00000de0300000534000088040000a8
:1030780003a000007a390000393900003116000039
:1030880033330000562e00000e5e00007936000033
:10309800712b00000505000073600000a605000004
:1030a800ba7c0000ce1c0000dd400000731e00004a
:1030b8001e56000039850000591b0000ec14000062
:1030c800f4b40000966c000008910000debd00001a
:1030d80039a30000391c0000985a0000e2b500002e
:1030e800c3800000010e0000747b000071710000b5
:1030f8004e4e0000f1ec0000b8d900009d510000d0
:10310800b1970000cbaf00007f4900004a020000e1
:103118003b7d0000f912000036ae0000c2f7000047
:103128008585000010c70000cb30000083490000ef
:1031380019660000661e000061900000db0b0000ad
:1031480081a50000011b00002cdc0000814e00005e
:10315800179d00003b0900009ce50000d8580000be
:10316800f96500009825000079390000d481000035
:103178002905000018cc0000b262000040240000bd
:10318800067400009c280000d0950000aac000002a
:103198001037000010050000a616000068d80000cf
:1031a80043dc00000e0e00007850000092970000eb
:1031b80097e70000e0930000533b00006d600000bb
:1031c800ce26000009760000f91c00005d710000a1
:1031d800a0550000327200007a81000091a2000020
:1031e8006c4a0000f626000026ae0000e61d00002e
:1031f8009ed300007b7300006ac200006c5300007d
:10320800c3a60000d5140000af9b0000e237000001
:103218007b4500000dd00000fdd90000b33d000043
:103228000b0a0000f6cd00006b6c00004f8a00000e
:103238004f9a000098f4000065db0000f2ed0000f2
:103248004fae000097ef00002b2f00009ff7000003
:103258009e93000099190000e466000090b30000f6
:1032680099b90000e4b9000078c000006e070000ba
:103278003a1d000004800000c10a0000723f0000ef
:103288001f28000078e5000039800000908b0000be
:1032980097950000559e000003980000d8990000fb
:1032a800b9400000590f00009286000064550000e4
:1032b800812e0000945500005505000073c50000dc
:1032c80080050000123800005f03000085800000c0
:1032d800e9060000c8000000963b0000a03400008a
:1032e800c60b0000d4a1000097ab000076da0000fe
:1032f800dc4c000017e40000708700007c0e000022
:1033080076a000004dc200002c7a00008157000012
:10331800e4c4000093950000927700008bce000073
:10332800dcd80000bfab0000372c00004c5b00006d
:103338003ba70000a6c6000073ca0000d513000012
:1033480057fb00003d6b00008a17000065770000fe
:10335800ae8c0000aaba00007cb90000636b0000c4
:10336800d28100009e890000494900004e130000e8
:10337800bf7c000099720000e04000008fdf000071
:10338800a2960000f27d0000dd1d00005ccc00006c
:1033980085de00005cc00000e40b000006e00000d1
:1033a800cceb0000ed0d000074380000302f000059
:1033b800f202000093060000b8d4000066e10000a5
:1033c800630300003a1b0000e86400006601000087
:1033d8000e360000a0e3000025790000b940000087
:1033e800ee030000177c0000a0cc00000af60000e5
:1033f80006300000cc55000020f9000016ec000053
:103408000b5000006a9200009707000017eb0000bd
:10341800acc000002cc20000cc0c00004a300000f8
:1034280006e600000a7300001c4c00001d94000012
:10343800ddb900002049000093430000afcd000033
:103448004dd900002e44000044690000f2b6000087
:103458008cde000013bd0000d3c300006d6c0000bb
:1034680072560000d4d40000646f0000053a0000d2
:103478007dd70000cbec0000e2ce0000a5b3000031
:103488003bab0000b696000097970000f768000075
:1034980027f50000f4f800003d790000327d0000b7
:1034a80062cf000094f80000f8a40000a4b800005f
:1034b800aa9900002dfb000076000000533600009a
:1034c800333f000028a90000839c00000e2e000056
:1034d80032bd0000bdbd0000812100000c2a0000a3
:1034e80048800000040700003088000055380000bc
:1034f800f8b800000458000059990000f9f90000d4
:1035080005400000899c00000fe4000017a000009f
:10351800db4500000d0c0000c02500000c38000041
:103528009845000059d40000398000004080000010
:103538008b8b00001514000025b20000aa200000a3
:103548003f0300002b2500000e560000609000008d
:10355800730100000d66000013d7000053900000af
:10356800136f00009be30000e0a0000024ca0000e5
:103578000b760000393b00000f8b0000b85d00009f
:1035880053a00000b2a20000bdf50000b6f800008c
:10359800f0930000ebc20000d3fc0000c3d200008f
:1035a8006a560000ac58000091930000f3730000c5
:1035b800d7890000fe930000b3b3000067cf000076
:1035c8008e5b0000ba7f000066790000e3e6000029
:1035d8009e02000060b00000f7c40000f72400005d
:1035e800259500007e390000109f0000e4170000b8
:1035f800db1200005bb000007207000033300000ef
:10360800b1700000300b0000b32300000a1b00005b
:10361800a0d3000081fe0000e16200009567000071
:103628000306000034af00008c0c00000f3f0000c0
:10363800a8d4000004460000890b00003fa8000041
:10364800546500000696000083a00000bc680000d6
:10365800002c00003f80000065210000d00700001a
:10366800a2b200002c7c00002a1c000002bc000052
:10367800c0a40000210000008c2e0000608900001a
:10368800022d0000e74100009e010000c525000052
:103698008f30000033a70000819500009e9a00003b
:1036a8009a1b000030b9000028890000b2ca000047
:1036b800409c00002e2900006e9700006c2d000031
:1036c8002d220000adbb0000646b0000c691000015
:1036d800233900002bd200006ca60000d5e40000be
:1036e800d4ac0000282e00009e1d0000fff2000050
:1036f800f5eb0000ad9e00004b8100002e2f00006e
:1037080068990000595e0000b8b90000a7a700003a
:10371800e7c00000caa40000f8820000aaa40000c4
:10372800f8970000554900001951000055b70000ee
:10373800b2630000f7790000cbb00000730200000c
:103748004b0d00001e6100006052000081ba0000ad
:103758001fe40000745e0000508d0000c90a0000dc
:103768004c380000a0520000544600009853000056
:103778005898000087870000871900005836000015
:103788004ab20000822a000024900000db410000b9
:10379800894400004c15000058fa0000b1b0000040
:1037a800005d0000c8c500002cc000002a200000f1
:1037b80009f400002a30000043000000ddac0000de
:1037c80002ae0000770500009825000005040000ff
:1037d80040610000eec20000c32f000017a80000df
:1037e80067a50000d5a600006b9700002fca00004f
:1037f80025090000b4130000e4f20000497300003a
:10380800dddd0000941500004ddd0000444e000091
:10381800663400001f6900009e3600002d2c000051
:103828007e7e000033b0000034cf0000c9a900003c
:1038380029ce0000f19b0000ef190000d7d9000045
:10384800191b0000bba80000aa7c00001ef30000a2
:10385800e6d8000006a00000db810000e1de0000e1
:10386800131f00007fe000005a410000524f000083
:103878004b4b0000c1cc00001dcc0000a034000060
:1038880027030000ab5b000065780000808500001e
:103898008db70000bcbc00003ca8000078640000a4
:1038a8000396000034c00000c0e700009214000036
:1038b8000026000029500000b003000005cd0000dc
:1038c800d9440000211500003c2800005d83000059
:1038d8005ccd0000a20200004ec900004037000085
:1038e8000b8000003388000000300000cc8100000d
:1038f800f5160000d0d9000002bc0000ccc00000c2
:103908008800000026170000608900002acc00000b
:10391800c32c00001e3800002b5000004b4b000049
:103928004b0e00009802000099c10000a53000006d
:10393800a7c100002c39000071ad00000a45000045
:1039480091b60000379e0000cd390000d92b000049
:10395800802e0000efed00009fe20000092a000021
:10396800cf6b00008a970000ce2e0000cece00005c
:1039780089aa0000aa6a000068d900007f780000c0
:10398800b5cc0000f5ad00002d2b0000ab0e0000fb
:103998001cb80000d6530000d0730000a0aa000095
:1039a80007580000e4dc00002a580000d901000094
:1039b8000c740000614800002b460000869f000040
:1039c8005992000055800000979f0000875300001f
:1039d8007eaa0000bc3c00001fc80000e9100000df
:1039e8000fa8000080b200001a170000a8380000d5
:1039f800073500004d80000041cd000002aa0000fc
:103a08003d810000a10a000054cd0000c5c100009e
:103a180061c600002c000000740c0000289f000004
:103a2800001100000fbf0000243000008079000062
:103a3800410900008b070000d8aa000060060000ba
:103a4800555f0000408e00000c8f0000249b000092
:103a580078600000a05600009d82000002af0000c0
:103a6800243300002f300000a080000091cc00001b
:103a78006ea0000035d900003a5800003724000035
:103a880064ca0000b5230000cdcd0000d9cd0000e8
:103a9800d3b400009f9c000038710000e2f50000dc
:103aa800fce20000152b000066770000ce9e0000a7
:103ab800bda20000336e0000e9ca00005bb7000039
:103ac80066020000cb410000fecd000033cf0000ad
:103ad80079ce00003c7000006edf00008195000088
:103ae80007b60000ced40000f6dc0000ba2f0000b4
:103af800aa13000058be000080aa000050b00000c1
:103b0800c3250000271d000072170000379700002a
:103b180014900000e47900000f2a0000d6d90000b4
:103b28005841000065040000a82d0000280f00007f
:103b38004c0e0000ac1c0000f2a000007600000053
:103b48008b3a000028470000aa82000064cc0000dd
:103b5800802500000e0f0000301b0000031d000030
:103b68000e4c000044ac0000929200004006000099
:103b7800d0bd0000c260000027830000691e00005d
:103b88007e30000002620000176000003b41000028
:103b9800cc3d00003010000058c40000980100001f
:103ba800bdc50000cb0f0000b251000098a700006f
:103bb8006eb200009b560000e0fd0000250f0000db
:103bc800323200009a9b000073d20000c2c200008b
:103bd8006c4e0000029d00007ea20000d71300007a
:103be80098c20000737200003a1700001dc9000057
:103bf8009e9d00001d5b00003eb300009c4b000032
:103c080046660000dead00005b2d0000b133000009
:103c1800f7bd00009db9000035b60000ea5c000061
:103c2800cf810000f21600003fbf0000795c000061
:103c38005ce00000fcc20000c9230000c066000070
:103c480030290000df350000d21d000054ac000010
:103c5800b1f30000005300000cc80000c16c000064
:103c6800ea7c0000e0f40000ce2c000009ca000045
:103c7800b5ac0000a05c0000c8a600000e2e000035
:103c88005040000015140000305d000048f20000ac
:103c9800039b000043cc0000fca000008c2900001e
:103ca80009540000040a000061500000804b000025
:103cb8004af20000324b0000baf000004b820000cc
:103cc800d20c00003025000081b200000d870000f2
:103cd8009cd500002ca00000cb810000ed5d000009
:103ce80060310000c52f00000c720000ba640000ab
:103cf800be5b0000a4bb0000d29c0000de8d00006b
:103d0800fe190000cd3500006936000061e10000b1
:103d180061f10000c0c60000e2d5000013270000d2
:103d28008155000068710000ceec0000d9b3000096
:103d3800b3ab000056ae0000ecde0000d951000025
:103d480028c30000d9b10000b6bb00007ce6000023
:103d5800666000005db400006fe60000bef200007f
:103d6800d8ee0000f25b0000515500001de0000095
:103d7800640700006c4d00000a880000ce75000042
:103d880077cf0000cfb700004ece0000cf1700005d
:103d98005760000067e7000092070000d6dd0000ca
:103da80066ac0000f2e0000064c10000054a0000b3
:103db800efc00000440b000072150000a869000065
:103dc800062a000040f80000206d0000720e000076
:103dd8000150000070030000530a0000d05f00008b
:103de800029200001c92000040c7000042920000ae
:103df8003d2f00002f280000c70200005d2d0000a5
:103e080000ca0000d4c00000b69a0000ac9c0000b4
:103e18009e9e000082020000b034000005b500003c
:103e280081780000804900009d9300005dae00008d
:103e380029780000ae810000eeeb000093a5000099
:103e4800eb7a0000af0100009d0e00002c5d000021
:103e5800564c0000d9750000e2ea000089290000ec
:103e6800c0f600004b360000308b00002ecd00005d
:103e780099b900002f36000076de00006aa0000025
:103e880013df0000977700006fde0000b7790000ad
:103e98001eb0000080bf00005e5e0000bef00000a3
:103ea800fabc0000d8820000d81d00005cfc0000ad
:103eb800a03200008587000043ce00003d3f00008f
:103ec80052a9000056a900004929000072420000ca
:103ed80064130000d8e90000a072000002d80000b6
:103ee800c3500000e7830000f72b000080e50000c6
:103ef800078f00000c3f00002f3000000e800000ec
:103f0800e10800008c150000153e000050b20000ca
:103f1800017a00008497000099130000e8760000f9
:103f2800606b000018e800007e700000c5c5000046
:103f38000b6a00009f310000831200000b8800000c
:103f4800676000000e4c00006f0600000ac0000009
:103f580066a30000828200009c2c0000300800004c
:103f680078c0000065230000bf7500007053000092
:103f7800fedc0000af27000017f40000eeea0000a6
:103f88009f9e00009666000093660000535c000048
:103f9800d37c0000b2b70000bf7f00007acd0000dc
:103fa800ecce000086380000608a0000895d0000c1
:103fb800b8bf00007ce600006170000003ab0000a1
:103fc8007173000077f70000cccd00008dde000093
:103fd800f3e60000355e00006af400006ee90000b8
:103fe800acda0000cce500000d4a0000753c00008a
:103ff8006c720000c9d600004a4a0000d2ae000028
:10400800d23e0000c6b5000091b500008aec000061
:10401800ecbc00002057000083eb00004b78000048
:10402800530a0000d4d80000027a000087d50000a7
:104038000c5800008c70000081200000a4a900002a
:104048000e620000b10a0000000b00007b4900006e
:10405800688e000004130000923c0000a064000079
:104068000f4c000014320000c2c00000bac80000a3
:104078000c1800005f5c0000e2750000c030000012
:104088005710000097e3000002160000043c0000ef
:10409800c05c00002a2c00006e6d00006dbd0000a1
:1040a800c4ed0000e582000075bb000076f5000055
:1040b800c6a70000a586000037d70000d40000007e
:1040c800c33d0000273e00001ed80000d45d00005c
:1040d80094bd000068690000dcca00009645000035
:1040e800e58d00008d1d0000ef4100004e640000ca
:1040f8006ebc0000dcbd00006ff300008e7900008c
:104108008d850000cc85000085e50000559d0000e8
:10411800fb76000078030000234300009857000056
:10412800543c00005f4900003a4100005ada0000a0
:10413800ce580000c4b80000b6560000c495000070
:104148005d180000dcfd000091050000b7fd0000cf
:104158001480000018d800009a920000155500003d
:10416800055600003cc00000940e00004c3f0000c3
:10417800c09c0000cb0600000a620000605a0000e4
:1041880002d60000953c00003ce00000ca8a00000e
:10419800199c000033810000990f0000e4620000c0
:1041a80010000000b7e80000404200006c2c00003e
:1041b8002efc00003cac0000e2810000a0400000a2
:1041c800973300000046000007330000b074000079
:1041d80061e70000720f0000b4b600004b900000c9
:1041e800ce380000d9df00000f74000079da000033
:1041f800b49c00001a08000000560000a5710000d9
:10420800b38b0000e36600002ff20000cc590000d9
:10421800d4d00000d2b800007a3500003324000062
:10422800d881000089a500001c180000ecc000001f
:1042380026570000e1fe0000ced800000e6f0000f7
:104248002e500000b3910000433400005f290000a5
:10425800d24700004451000064890000b4fd00000a
:10426800066b0000a5c8000040500000366500003d
:10427800e3020000b601000040ed000047600000c6
:104288005d2e00000a6d000059b10000b1f2000077
:104298004a820000b22a000028c4000079c1000048
:1042a80035260000a8800000043a000017e400004a
:1042b8004261000050b90000022c00004e6400006a
:1042c80080ae000006fa000002e400006a17000051
:1042d8001e17000066600000f267000053300000ff
:1042e80067160000607300000725000018390000f9
:1042f800393600007e5e000050730000835d0000c8
:10430800584c000049b90000acc90000f5990000fc
:104318007ffc0000c9f800007060000063710000b5
:10432800451a0000d0d50000c5200000a783000072
:104338001c5f00009c0300000a7300006045000039
:10434800eabd00001a98000049410000c15e000063
:10435800d8d80000386f0000677900007723000084
:10436800e7fb0000c27900002db10000e5de000087
:1043780085cc0000c03600003a3300005f00000022
:1043880030b5000028290000d9f900008a3800005b
:104398002a6e000048500000b28e000064e700005a
:1043a800052700007016000031500000ef0c0000d7
:1043b80094430000418500000ca80000edc50000f2
:1043c8002a090000ea680000b24000003ba1000092
:1043d8007c6c00001ca0000072c700008c4d00001f
:1043e8001d98000057250000998100005d4b0000d2
:1043f80060210000c90b00004a38000002c000001c
:10440800ecca00000a6a000004b0000081db00006a
:10441800996c00000a0600006c5600005a810000e2
:1044280040a70000abca0000b2f0000080120000f4
:104438003b270000275b0000adb50000b89d0000d9
:10444800f4b50000a0e60000b09c0000694100003f
:10445800d1f10000cb7b00004f2e0000689e0000c9
:1044680066b30000624500000da8000046ca0000bf
:10447800e98c000006260000f586000086f20000a0
:1044880079dd00008de00000ceb400000cbb000018
:10449800ca210000efc20000d5f30000f66f00004b
:1044a8006e2c0000dfb70000b21c0000d4b400007e
:1044b80005a50000462e000016b90000642500007e
:1044c8006745000045af0000081100005f110000bb
:1044d800c5250000d64a0000d6ec0000cce000005c
:1044e800261f00001bb000008ee70000037b0000c1
:1044f800025c0000cf8300003afd000002c000000b
:10450800b20200005c36000082bb0000ac7c0000f8
:104518007c1c0000ac6600001cea0000c02a0000f9
:104528000bd800004000000096240000c0240000c2
:10453800046a000055b20000720800000001000083
:10454800b83b0000026c0000d903000073030000b0
:10455800ab8200009e9c000038b00000505700005d
:10456800136700006133000010660000063b00007e
:104578005ddc00002d5f000059fa00004b78000058
:1045880058d00000b4b4000069360000f1bd000046
:10459800bb760000edea00005fe700005953000019
:1045a80003ee000061d8000034cf0000d62e0000d2
:1045b800885d0000d4b20000afa50000fc700000c8
:1045c8002133000024c10000a8340000c9150000f0
:1045d800ae6e0000dc5900000e0c0000faf200007c
:1045e800467000007d2c000023cc00002f3a00000c
:1045f800214100004951000044440000d158000006
:10460800d10e0000484a0000d7d60000d6020000ac
:104618009d0e00001a7c000050610000811400000b
:104628002d2c0000b2e00000e60c0000300800006d
:1046380039540000803d0000093e0000b0a300008e
:10464800f9540000804d00005e56000070640000c0
:1046580000cb00001b50000041220000c90b0000e5
:104668006e68000001330000ab24000030b9000080
:1046780000130000be0b0000a82500000daa0000d2
:104688006f39000058800000356900009db80000af
:104698001cd00000e9a2000072c200003cc000006b
:1046a800ecc10000e902000074ba0000e2db00007f
:1046b8000c7f0000ff20000060370000bae6000011
:1046c800e4ae00001327000080450000fa3a00001d
:1046d800704e00009d3d0000bb180000d8930000fc
:1046e800ce59000079ab0000e5720000f7e6000043
:1046f800c3de000085850000e0ee0000be68000013
:1047080093f500008ec200008e460000efc2000044
:10471800a9c00000f6150000179700000c30000033
:10472800cc650000b8260000484b00004b8b000009
:10473800f8c40000242800006f880000f1f500008c
:104748004d50000012110000f161000067060000e2
:10475800d5370000a0ce00003317000017b00000c6
:10476800f50400006a6f0000037900005c02000095
:10477800c0fe000031380000eb8a0000811a0000fa
:10478800b4c0000036b0000000c80000a93c00001a
:1047980020570000f3330000839b000094a0000022
:1047a800340f0000aafd00008124000090070000db
:1047b800aa070000f8c100001d01000001b10000b7
:1047c80040ad0000327100003971000071600000d6
:1047d80037110000d8da0000e0e20000e79400009a
:1047e8009cab0000a5b400006d810000bf7f0000f5
:1047f80069100000b03f00003a2d00000358000087
:10480800260200005ddf00007f320000270e000056
:1048180058bc0000009d00009e1300001dd700003a
:10482800d91200007bab0000fb5800007923000080
:10483800d0e90000de530000b9980000f3950000ad
:10484800ca44000041cd0000426f000060c500006e
:104858000272000039b0000008e00000679900000b
:10486800e0630000bf410000da2e000041c40000f0
:104878005e4b0000493a0000c63a00005949000062
:10488800c95a0000189c0000d6b9000078f800004a
:10489800b9c000002d76000060c800003183000018
:1048a8002c64000015e000000007000038a8000094
:1048b80027c10000a70e00002ace000099b9000009
:1048c800401500002617000097240000aca7000040
:1048d80002ca000095020000bca000006a17000090
:1048e800542f000000f3000001b000005b0a000034
:1048f8004ced00006ce200005a8100005a81000073
:10490800e2e2000072e00000111b00009087000046
:10491800e5960000295d00000ccf0000883f0000ec
:10492800d93b00003d2c0000282d0000ad260000da
:104938002d680000fbf200007e6000002199000055
:1049480033bb000038a7000019e80000f2d90000c6
:104958009ecd000036d900002b5b0000404d0000c2
:10496800f5d500008d8d00003b260000784b000037
:10497800368900009799000003bb0000e6c00000dc
:1049880096210000b07c00006306000015050000b9
:104998003cac0000f93e0000222100008a8a000099
:1049a800c0140000b3c100003a32000026c600005f
:1049b800daba000036210000529800001968000099
:1049c80021b00000a6040000b671000041f5000007
:1049d8000f17000028f100009a810000da83000018
:1049e800c02e0000910a00001f080000805200003d
:1049f8000db80000fb03000084400000a540000043
:104a080075a00000a6180000b8c00000040a000045
:104a18008333000028a80000320300008fc0000084
:104a280000b30000825c0000b2560000b29600009d
:104a380056b20000bb9c000019b00000dd06000063
:104a48006c020000f3880000056b0000c56c0000d4
:104a58000585000075ff0000c9a00000b49c000097
:104a6800b46900003535000069c0000066630000c5
:104a7800ef74000060f9000012970000d3dc00001a
:104a8800bcc80000735100004e4e0000865f000055
:104a980041cb0000beee0000f2cb00006fda000050
:104aa800dbdb0000d9580000ae880000078b00004f
:104ab800034b000004900000bdc00000a6340000b5
:104ac800b018000003d6000046b500008a20000098
:104ad80087fb0000d8d90000c55c0000f4890000fd
:104ae800b938000061420000a4b400003427000077
:104af800b0950000ce0b00006c350000ca830000a2
:104b08000a42000060f5000009ce0000845c000045
:104b180092c0000054cb0000662600000fea000097
:104b280077aa0000824a00004af00000e01c00005a
:104b38009b99000019d000005fc000001a8c00008b
:104b48000dd800005a070000790f00003c3e000015
:104b5800260b0000542900000f6a00000eb3000065
:104b6800a8aa000082320000b47800006072000039
:104b780060990000b87800006e9d000038b0000011
:104b88007d2c0000c3cf0000c9670000a7550000b6
:104b9800f6d200007f390000306b0000ee2a0000da
:104ba8004d03000096e90000c03e00001d8800008b
:104bb80058b1000002340000081000001757000028
:104bc800bc2200002c7600005f6c000076460000d6
:104bd800b4e70000ccee0000f90b0000aebd000009
:104be800b9d000003ee9000050930000b59b0000da
:104bf80038b0000055b400005bd600009c8d000062
:104c080003d20000996300009ea00000289d0000c8
:104c180090b0000041c400005839000021c60000cf
:104c2800d7de000077490000f2040000a5980000d4
:104c3800187e00000e500000a384000003d400007a
:104c48003de3000003560000f5a000009e1e000092
:104c5800308e000041fd00003d50000078f2000059
:104c6800011b0000665c0000a0ee000013070000b6
:104c78001f90000009aa00005b4100008520000089
:104c880024a00000814500000a7800001489000073
:104c980085050000d48700006251000007c60000a7
:104ca8000fb000009d290000e70e00004c2f000007
:104cb800d6c9000072a20000e2750000b9b3000076
:104cc800e4990000d9ae0000444a0000c76c000017
:104cd8004d6b0000debe0000bc770000f9c4000088
:104ce800a0b00000e29a0000689b0000b4e6000053
:104cf800e6b40000152b00006c80000085630000fe
:104d08007176000076e70000d2a500009e3600000c
:104d18009eb70000629700002ed000003e7200008f
:104d2800e4e90000da370000eda7000002dc00002b
:104d38008397000028cd00002db3000012970000d3
:104d48001513000063e3000005b60000aaf900008f
:104d58008125000001ab00009cb50000aff5000004
:104d6800ac6400001f47000045e9000018a50000da
:104d7800c8c8000009c0000050570000b206000073
:104d88006504000060480000b34200002a7a000071
:104d98000156000060670000821f0000dc1e000052
:104da800e70500008d200000718000001a01000056
:104db800ac900000360e0000a8dc0000640500007e
:104dc800a6080000f028000023a80000dc6100000d
:104dd800813400008a550000c5c40000c5410000a8
:104de80003340000e06e000089bc00003830000089
:104df800ad5800002b2500008bcb000019180000cf
:104e080088e70000eb2e0000015600007a5a0000e7
:104e1800db320000c28200004a4b00004b27000032
:104e280066a40000d5340000c737000003eb00007b
:104e3800a3150000d3400000a54b000071f100004d
:104e48000a600000b8770000569d00006b8e0000d5
:104e58008b2a0000888d00003ad70000706000009f
:104e6800e6fa0000f6070000cf2600009d7100005a
:104e7800d3aa0000532b0000cb57000030370000a6
:104e88003737000093e40000006700007f19000036
:104e9800de49000093260000898a0000e50300002f
:104ea8005b010000f7ad0000af4c0000923b000032
:104eb800140900006c58000044820000fbc1000087
:104ec800cc3c00005ca000000e060000d0cd000025
:104ed800ac400000b7700000084000000b13000051
:104ee8007e500000af07000034340000011a0000b3
:104ef8008891000005d700004bc00000e253000075
:104f0800550c00005cce000003bb000025ea000041
:104f1800500f000080f80000e0810000011500003b
:104f28000e7900007777000039390000adc0000025
:104f3800646000000163000066ce0000e2a6000085
:104f48005c510000a1fc00006c8100007f90000013
:104f5800bf7f0000dab40000d4a0000015190000db
:104f6800bdbd000027330000d2d2000080690000d8
:104f780006340000160000002c5e00008079000056
:104f8800346a000051830000a776000076430000d1
:104f9800550b0000b0b50000d8f10000f6ed000098
:104fa80029f1000065ca000076560000e26500009d
:104fb800e2b2000002020000b26c0000fcac00008b
:104fc800e03e0000002700008f9900009c9c000034
:104fd800dc840000fc040000df040000eb7c00001f
:104fe80071330000b60900004a4a0000172f00007c
:104ff8005a4300008661000098810000c9800000c3
:1050080017540000b8b100008282000090450000eb
:1050180012a400001ed8000056010000ba1b0000b0
:10502800d806000066060000b57c00000d6400008c
:105038004143000016c000002a09000058e800009b
:1050480080f200000f300000fdf30000a98300008b
:105058007d0100002cf60000d9400000438d0000bf
:105068002ca0000052560000ce5a0000dc40000080
:105078001c9800004bc50000c5590000cc0d00006d
:10508800cce600002ecb0000f27a0000002c0000d5
:10509800168100006e0f0000f207000026f40000e1
:1050a80075bb0000fafb0000e3d300008a5700003c
:1050b80000fb0000a3c00000164000004e76000070
:1050c80074360000b0630000b7320000b62a000052
:1050d8003bc70000b3e00000f2b10000eef60000ac
:1050e800ee0b0000edee0000ce6e00006ec1000079
:1050f80081ee000075400000a7f30000b002000038
:105108009d0e0000ee150000c87000001daa0000ea
:1051180075b60000f39500008ef100008d010000c7
:1051280086cc0000a4090000a77c0000a46300004e
:1051380062940000807d000052360000d0780000a4
:105148000ba80000770400004cde0000acaa0000a9
:1051580040a70000ab72000080f200002cb30000f2
:10516800242800003e38000040ed0000776600006b
:10517800d018000013a80000752900000b1e0000bd
:10518800d00000000d330000198000008b4e000095
:1051980055550000100f0000d856000063010000ac
:1051a8008f9200008af20000b96b000089cb0000e2
:1051b800598100009c2e0000c7260000ab6000004b
:1051c800a0a500001bf1000060630000867f0000be
:1051d8005010000028d800006b9a0000d38000000f
:1051e800cdaf0000fee90000c02c00003a3b0000f3
:1051f80067450000716700009c670000f36c0000c1
:1052080060d90000ee590000b5680000618b00000d
:10521800e7110000cf6300000d0d0000d72e00003d
:10522800bc3d000015690000ecb600000cd8000079
:105238003b540000105700001770000011e00000f8
:1052480060060000b52d000080a10000281a0000ab
:10525800e36b0000670d00002ccf00007d620000aa
:1052680022810000edf50000181f000047600000d3
:10527800a2570000e20200000d140000c9f300006c
:10528800718000004a48000060a90000c72500009e
:105298002fca0000074a000033c00000dc090000e4
:1052a8000c6b00002e500000880300001beb000070
:1052b800c066000031b00000d3c70000072e000010
:1052c80025810000ee07000095380000e03a000054
:1052d800960f0000180b000040f70000023900008c
:1052e8006c2a000040df0000abb00000a89400006a
:1052f800698900002b280000048200009d6e0000d0
:10530800a020000007ec00008b6e000004060000df
:10531800785a00005a100000b03a00004a6b0000aa
:105328005eb10000bd7f000057ff0000f6e60000f8
:10533800e61a0000608b00002b3b0000bcf3000065
:10534800086800009411000098640000fc960000b2
:105358002eec00006e880000ddba000075eb00003e
:10536800d3b70000a76e00003beb0000bab90000fd
:10537800cf55000098a50000a00a00002ccf00001f
:10538800d481000085310000a802000091110000be
:1053980098140000e32b00001da9000014e9000088
:1053a8002e2e00003e410000c4c70000d747000071
:1053b800d1c40000c4770000490c0000b0550000bb
:1053c800cbc50000c10700006ebf000080da0000f6
:1053d8002ea00000e1730000f0d00000281b0000a0
:1053e800b8930000ca050000aa640000814a0000c2
:1053f80080a5000009680000d09c0000033400006c
:1054080067a00000a202000072aa00003c78000019
:105418007c49000005d40000420300003b1d000049
:10542800d83b0000e405000036e40000dd41000040
:10543800bde90000c040000090d300001514000032
:10544800f41c0000428000001dba0000eda5000019
:10545800fe4100004eb60000614000002f0400002d
:105468006def0000ed5d0000bebd0000795a000040
:1054780058460000b89f00009f760000f622000002
:10548800cf6c0000a0170000b2b500008fc4000068
:1054980036c40000563500003cbd0000b0f60000e0
:1054a80042fb0000a9180000e5b6000040390000e2
:1054b800712b00003d73000060ef00005295000062
:1054c8000d580000b2810000aa4900007e49000082
:1054d8007160000097ce00003a3900003970000072
:1054e80096b5000034b0000001230000022c000033
:1054f8006994000094220000c1dd000051600000a2
:105508007604000075f00000d4550000c0030000c8
:1055180016a00000612c00000e500000c29500008b
:1055280067630000059700008d2000005f80000081
:10553800062f0000202d00004a600000390a0000f4
:105548006c2a000008700000801b000035a00000d5
:1055580072140000d4470000828e0000209b0000d7
:1055680005d6000019b00000682d00000185000074
:10557800ba810000dc150000b7070000e1cb00008d
:10558800fb81000001bd00007c7b0000bcb6000070
:105598007f5a0000905300005f9f0000bfad0000dd
:1055a800ad9300002d1000003b4d00004cd20000d0
:1055b800eecc0000f18c00008b030000b6d4000094
:1055c800819d0000fe6b0000e70e00006c3e0000ad
:1055d8007b760000ea840000dbb500004aee00009c
:1055e8000ab20000e2d600006a6600006c92000071
:1055f8002e6c0000aa6c00002ea00000ee30000007
:10560800b0810000c49600001fa3000024ed000034
:105618000b6c000031fa0000f8020000814800001d
:105628008cb4000038300000c12b000081860000d7
:1056380043c10000401e00009802000038800000ae
:105648001d250000557500001515000090f3000099
:10565800c1a3000042c00000b2120000d44f0000f5
:10566800028600003a68000000150000343e000081
:10567800c40f00006af30000704000005bc6000021
:10568800e082000008d80000fa6500009574000068
:1056980001f500003684000065c40000c445000020
:1056a800b9440000b5dc0000404e00003717000088
:1056b800b37200002bf5000007a50000eede000025
:1056c800defe0000de930000a5d30000d2820000b9
:1056d800800e000007390000db760000e2c40000fd
:1056e800894e000013e3000073aa000062fd000069
:1056f80032c200000b620000fd0e0000cc04000066
:1057080082f200008e4b0000932e00004d700000c6
:10571800cfbf0000a2a60000aa2a00006e20000049
:10572800292900002c690000ae2e00002900000085
:10573800ea8f000001dd00007ea8000056c90000c5
:10574800ba16000018dc0000f6be00002222000095
:105758008e220000be3e0000d2d20000eeee000015
:1057680091c000006cca0000210f00009e89000053
:10577800910700004d21000081e7000025f8000096
:10578800c0c3000018b00000c14f0000d04800009e
:105798002a28000011c90000825200008a00000077
:1057a80068c400004b120000320e0000c30c000059
:1057b80036170000582c000009b00000b1010000a5
:1057c80005400000fd0d000049600000c1620000b6
:1057d80026e70000e6160000086e000007e4000057
:1057e8006e000000962d000019db0000b7f70000de
:1057f80082420000beb70000342d00002cc8000013
:1058080036d5000009140000e0490000139d00008f
:105818006c9d00008e360000377b00002eca000009
:105828003e720000ee5a0000ecfc0000f827000071
:105838005fa600007bbe00007d7b0000e9500000f1
:10584800beb80000b89a000082b900008282000049
:10585800b98b00008bb000000b1b00001bb00000d0
:1058680098e3000062160000065a0000556b00001d
:10587800ac6c0000a72400002d6200006f1f000020
:105888000374000037280000c5f8000046460000f1
:10589800c69c0000620300008d65000000930000b4
:1058a8003a8700003cb8000039c20000071a00001f
:1058b800a7830000543a0000a07600002f380000ab
:1058c800a5700000812b000024510000d01c0000ae
:1058d80005a800002f0d0000ea900000ca80000013
:1058e800db5f0000bce00000e804000096fe00005a
:1058f800e0660000a50c0000bf0c0000abbb000078
:1059080095010000ab7800009b160000c8e9000074
:10591800ac6c0000c927000041650000a22d000002
:10592800b0220000ed070000952c00006936000049
:10593800dac00000c43200003169000022d0000043
:10594800ed490000b647000027860000038b0000e1
:1059580095a500004f3d00003d9f0000ee9d000012
:10596800bf600000c1f40000e96f0000da27000002
:1059780028050000d7d50000a9c90000ee360000b0
:105988003713000016760000e10400000df2000055
:10599800f0080000700000003b610000fcbc000043
:1059a800c1760000c1ce000009d20000228a0000a2
:1059b800be3e00003e220000c03c00002a2200003b
:1059c800bd440000491a0000984d000041e3000062
:1059d800751c0000a05100000c5e0000c8d000003b
:1059e800042b0000680400004c850000033200000e
:1059f800600d0000743e0000686000000f34000075
:105a0800250300008c0b0000709f000004d40000e8
:105a180040e600000225000075d00000e402000006
:105a2800b073000007ec00007b010000c305000014
:105a380034520000c9c3000069e600005ea70000f8
:105a4800600600006c390000066a0000b9cb00004f
:105a5800b1990000bf010000e6cf000054600000cb
:105a6800da2e00009d3e0000bdb700007fb900009f
:105a780053da0000346d00006062000079320000e3
:105a880011180000eea00000b09f0000d8ec000044
:105a9800e9790000e4e9000011cf0000d8630000b4
:105aa8006b370000afed0000de7a000061470000b0
