:020000040000fa
:080000000002040000000000f2
:020000040000fa
:10000800f8030000f8030000f8030000f8030000fc
:10001800f8030000f8030000f8030000f8030000ec
:10002800f8030000f8030000f8030000f8030000dc
:10003800f8030000f8030000f8030000f8030000cc
:100048002e030000f8030000f8030000f803000086
:10005800f8030000f8030000f8030000f8030000ac
:10006800f8030000f8030000f8030000f80300009c
:10007800f8030000f8030000f8030000f80300008c
:10008800f8030000f8030000f8030000f80300007c
:10009800f8030000f8030000f8030000f80300006c
:1000a800f8030000f8030000f8030000f80300005c
:1000b800f8030000f8030000f8030000f80300004c
:1000c800f8030000f8030000f8030000f80300003c
:1000d800f8030000f8030000f8030000f80300002c
:1000e800f8030000f8030000f8030000f80300001c
:1000f800f8030000f8030000f8030000f80300000c
:10010800f8030000f8030000f8030000f8030000fb
:10011800f8030000f8030000f8030000f8030000eb
:10012800f8030000f8030000f8030000f8030000db
:10013800f8030000f8030000f8030000f8030000cb
:10014800f8030000f8030000f8030000f8030000bb
:10015800f8030000f8030000f8030000f8030000ab
:10016800f8030000f8030000f8030000f80300009b
:10017800f8030000f8030000f8030000f80300008b
:10018800f8030000f8030000f8030000f80300007b
:10019800f8030000f8030000f8030000f80300006b
:1001a800f8030000f8030000f8030000f80300005b
:1001b8003c550000f8030000f8030000f8030000b5
:1001c800f8030000f8030000f8030000f80300003b
:1001d800f8030000f8030000f8030000f80300002b
:1001e800f8030000f8030000f8030000f80300001b
:0801f800f8030000f803000009
:020000040000fa
:10020800f8030000f8030000f8030000f8030000fa
:10021800f8030000f8030000f8030000f8030000ea
:10022800f8030000f8030000f8030000f8030000da
:10023800f8030000f8030000f8030000f8030000ca
:100248002e030000f8030000f8030000f803000084
:10025800f8030000f8030000f8030000f8030000aa
:10026800f8030000f8030000f8030000f80300009a
:10027800f8030000f8030000f8030000f80300008a
:10028800f8030000f8030000f8030000f80300007a
:10029800f8030000f8030000f8030000f80300006a
:1002a800f8030000f8030000f8030000f80300005a
:1002b800f8030000f8030000f8030000f80300004a
:1002c800f8030000f8030000f8030000f80300003a
:1002d800f8030000f8030000f8030000f80300002a
:1002e800f8030000f8030000f8030000f80300001a
:1002f800f8030000f8030000f8030000f80300000a
:10030800f8030000f8030000f8030000f8030000f9
:10031800f8030000f8030000f8030000f8030000e9
:10032800f8030000f8030000f8030000f8030000d9
:10033800f8030000f8030000f8030000f8030000c9
:10034800f8030000f8030000f8030000f8030000b9
:10035800f8030000f8030000f8030000f8030000a9
:10036800f8030000f8030000f8030000f803000099
:10037800f8030000f8030000f8030000f803000089
:10038800f8030000f8030000f8030000f803000079
:10039800f8030000f8030000f8030000f803000069
:1003a800f8030000f8030000f8030000f803000059
:1003b8003c550000f8030000f8030000f8030000b3
:1003c800f8030000f8030000f8030000f803000039
:1003d800f8030000f8030000f8030000f803000029
:1003e800f8030000f8030000f8030000f803000019
:0803f800f8030000f803000007
:020000040000fa
:100400006fac21000eaf24000e0188000000000038
:10041000000020000000e000020032000001200087
:10042000200288000c000700c06b2800010020009b
:100430000f000700000020000000e0000200320072
:100440000000020000000000208302000000000005
:100450000040da000000fe0000b720000000e000cd
:1004600002003200002020009001880000000600f9
:10047000a1028800800078000000eb001a0037001d
:10048000e280400054a0b4009101ba00e280400034
:1004900054a0b4009102ba00e280400054a0b4001d
:1004a0000002eb00472bde00f507b200a601880032
:1004b000602ce10008003a000049eb000201e8006e
:1004c000020039003420ec0002f0a0008301e900b2
:1004d000f9ff3e00040037006128e100010032000e
:1004e0000082eb00040007001101ba000200e000e6
:1004f000e3ff3a000000060004d0a300e20f490029
:100500001c003900810278003549ba000201e80078
:10051000020039003420ec0002f0a0008301e90061
:100520000f0032002549ba000201e800020039003c
:100530003420ec0002f0a0008301e9000800320042
:100540000400e0000600320015c9ba000201e8000c
:10055000020039003420ec0002f0a0008301e90021
:100560008180e80054a0b4000300e000e2ff3a00fc
:10057000000006009102ba00055978008301e900e5
:10058000f7ff3200c82ade00055978008301e90030
:10059000f3ff32000400e000f1ff320011d9ba008d
:1005a000eeff37006e860400000000009a5504003c
:1005b00000000000a671040000000000d4700400d8
:1005c00000000000ae70040000000000068004007f
:1005d00000000000d47f040000000000045e04005e
:1005e00000000000165d0400000000000c64040020
:1005f000000000007461040000000000be670400f9
:10060000000000007c64040000000000ee6a0400aa
:1006100000000000a87b0400000000006c7b0400c8
:1006200000000000127e040000000000e07d0400d5
:1006300000000000c27704000000000028770400da
:10064000000000003876040000000000d88204009a
:1006500000000000c68104000000000000a0fe00b1
:100660003600f800849fbe00869fbe003200f8006e
:100670003400f80014002000a401880004202000a9
:1006800094018800c04b8000d14b80006100400085
:10069000e0804800c04b8800d14b88000a21ef0061
:1006a0008500a900886b0200000000003400f900fa
:1006b0003200f9004f03be004f02be003600f900c1
:1006c0000080fe00004006000a21ef00e039200013
:1006d000700888008500a9009500a80013e1a80013
:1006e00000000600d802a900c0a2a900dc02a800f0
:1006f000ed04a900e924a900e2a4a900f102a800e0
:10070000e122a800c8a2a800c002a900c402a80053
:10071000e204a900c802a900cc02a800d902a900dd
:10072000dd02a900e224a900c822a900cc22a80069
:10073000c002a900c402a800045402000000000086
:10074000c1c2a900c5c2a800d902a900c822a90037
:10075000c802a800e204a900e224a900f00b2000ce
:100760004207b600610420007205200023742000b7
:1007700081497800824978008049780003fc2f0085
:100780001436800004806100b000b3001036880089
:10079000f40f2c00003680000002620000a0200050
:1007a0000400700000368800c46a2000148a6100ca
:1007b000103a80000060a000237420008149780076
:1007c0008249780080497800e011290046750200ce
:1007d00000000000bcff07008001eb00227c270026
:1007e00081722700806327001c7b0400000000004a
:1007f0000040da000000fe00889fbe008004780000
:10080000205980000000e00004003a000e000700bc
:100810000084eb000000e00008003500285980004b
:100820000900e0000500320009004400060007004e
:100830000000e00001003d000084eb0008007800ab
:100840004f04be0000000600800078000100e000b8
:1008500003003a0060b22000205988000000050023
:100860000080eb0062ac2100828f500002003e004d
:10087000215988000000eb0000000600839f6800fb
:100880000100e00002003d0060001000e080180060
:100890000300e00002003d0060011100e08119004a
:1008a000050007004f00e00002003b006000100060
:1008b000e0801800000006006022b8000602200058
:1008c0000000d0008180d2000482d2008582d20054
:1008d0000000a0000202520083825a00030031008f
:1008e0000202420083824a000000a1000603e900e0
:1008f000f3ff3a0000000600020ab900001bb9002d
:100900000200b800810042008100430000000600a0
:100910000000e0002f003200c0017800e38f51009a
:100920002c0036000308a3002a003a00f15880008a
:100930000100e00002003200810f5000040031008d
:1009400011009800f05888001600370082007800e7
:10095000110190000200e00002003200800f5100ff
:10096000faff39001102780084824000850f5000a0
:1009700018003900808f520003003a0083084200bb
:1009800001007800070037000200e0000300320099
:1009900083014000830f51000e00390012009800bf
:1009a00090009800900090000100e00009003200e3
:1009b00010014000828f500006003a00c2b12000b2
:1009c0000009eb001001780011084100910090002f
:1009d0001100980000000600889fbe000004780007
:1009e000e15880000100e0000200320001007800c0
:1009f0000d003700f1588000e0b1200004003700fe
:100a0000910f5400250036000180e800910090000d
:100a10000100e000faff3a0010003700920f540086
:100a20001e0036000280e800100178000200e0009d
:100a3000faff3a0011017800f1588000e0b120007f
:100a400004003700910f5400140036000180e800c4
:100a500091009000828f5000faff3a0019598000ef
:100a6000888f540001003100880478000900780064
:100a7000360007000000e00004003a00888f5400b0
:100a8000050032008904d100f5ff3700091878000d
:100a90009fff0700d2ff37000000eb004f04be00ad
:100aa00000000600881f7800630440000800a100d1
:100ab0008000eb00800f540021003600e30f54004b
:100ac00001003e004800200008007800c2ff070037
:100ad0008000eb000000e000190032009000780078
:100ae0009101780064815100880f510003003100aa
:100af00011019000020878000700370008814000cb
:100b0000020878009101900013019800100178000c
:100b10001109140088087800100178000000eb002b
:100b20000200e00004003200920190000300e000a7
:100b3000010032000280e800e05888008180e8006f
:100b4000010078004f047800000006008000780063
:100b50000000eb000100e000050034000100780017
:100b600025ff0700e10f400001003a000000eb0004
:040b7000000006007b
:020000040000fa
:100b740000000000200000007e00000011000000c2
:100b8400048400000100000004950000010000003e
:100b940006a600000100000009b7000001000000e3
:100ba40008d90000010000000cea00000100000068
:100bb4000a0c000002000000032e000002000000e6
:100bc400043f000002000000045000000200000086
:100bd400086100000200000008720000020000002a
:100be40004830000020000000594000002000000dd
:100bf40004a500000200000005b600000200000089
:100c040008c700000200000008d80000020000002d
:100c140008e900000200000008fa000002000000d9
:100c2400080b000003000000081c00000300000083
:100c3400082d000003000000083e0000030000002f
:100c4400084f0000030000000860000003000000db
:100c5400047100000300000004820000030000008f
:100c6400089300000300000008a400000300000033
:100c740008b500000300000006c6000003000000e1
:100c84000cd700000300000009f900000300000075
:100c9400091b000004000000083d000004000000df
:100ca4000a4e000004000000077000000400000069
:100cb40007810000040000000a9200000400000004
:100cc4000ab400000400000005d60000040000007f
:100cd40004e700000400000008f80000040000001d
:100ce40007090000050000000c1a000005000000c0
:100cf4000a3c0000050000000b5e00000500000037
:100d040008800000050000000b91000005000000b1
:100d140008b300000500000007c40000050000003f
:100d240007d50000050000000ae6000005000000e9
:100d340008080000060000000d190000060000006d
:100d4400083b000006000000074c000006000000fd
:100d5400085d000006000000046e000006000000ac
:100d6400057f00000600000004900000060000005b
:100d740007a100000600000006b200000600000003
:100d840008c300000600000007d4000006000000ad
:100d940008e500000600000007f600000600000059
:100da4000807000007000000081800000700000002
:100db4000529000007000000073a000007000000b2
:100dc400084b000007000000045c0000070000005e
:100dd400046d000007000000077e0000070000000b
:100de400048f0000070000000da0000007000000b1
:100df40008c200000700000008d30000070000003c
:100e040008e400000700000008f5000007000000e7
:100e14000506000008000000071700000800000095
:100e24000528000008000000083900000800000040
:100e3400074a0000080000000a5b000008000000e8
:100e4400077d000008000000078e00000800000075
:100e5400079f00000800000005b000000800000023
:100e640007c100000800000005d2000008000000cf
:100e740008e300000800000000000000000000007b
:100e8400000000000000000000000000000000005e
:100e9400000000000000000000000000000000004e
:100ea4000202000002020000020200000200000030
:100eb400020200000000000000000000000000002a
:100ec40000120000121200001200000000000000d6
:100ed400000000000000000000000000000000000e
:100ee400000000000000000000480000004800006e
:100ef4000048000000ff000000240000002400005f
:100f040000ff0000001200000012000000120000a8
:100f140000000000000000000000000000000000cd
:100f24000000000000100000107c000016120000f9
:100f34001c700000505000003e1000001000000023
:100f4400000000000000000000000000000000009d
:100f54000c0100009200000092000000520000000a
:100f640052030000ac040000a00400009004000040
:100f740090040000080300000000000000000000ce
:100f8400000000000000000000000000000000005d
:100f9400000000003800000044000000440000008d
:100fa4002c000000180000003c0200006201000058
:100fb400c2010000c60100003c0300000000000064
:100fc400000000000000000000000000000000001d
:100fd4000002000002020000020000000000000005
:100fe40000000000000000000000000000000000fd
:100ff40000000000080400000406000002020000d3
:1010040002020000060400000408000000000000c2
:1010140000000000000100000202000006040000bd
:1010240004040000040600000202000001000000a5
:101034000000000000080000087e00000814000002
:101044001400000000000000000000000000000088
:101054000000000000000000000000000008000084
:10106400080800007f0800000808000000000000d5
:10107400000000000000000000000000000000006c
:101084000000000000000000000000000606000050
:10109400020000000000000000000000000000004a
:1010a4000000000000000000000e0000000000002e
:1010b400000000000000000000000000000000002c
:1010c400000000000000000000000000000000001c
:1010d4000606000000000000000000000000000000
:1010e40000100000080800000c04000004020000c6
:1010f40002030000010000000000000000000000e6
:10110400000000003c240000624200004242000053
:1011140042660000243c00000000000000000000c3
:10112400000000000010000018140000101000005f
:10113400101000001010000010000000000000005b
:1011440000000000000000003c620000404000007d
:1011540020300000180c0000067e00000000000093
:101164000000000000000000003c0000624000009d
:10117400601c000060400000406000003e00000071
:10118400000000000000000000000000203000000b
:10119400302800002424000022fe0000202000004b
:1011a400000000000000000000000000003c0000ff
:1011b40004060000023e00006040000040600000a1
:1011c4003e000000000000000000000000000000dd
:1011d400380c0000060200003a660000424200009b
:1011e400643800000000000000000000000000005f
:1011f400007e0000402000002010000010180000b5
:10120400080c0000040000000000000000000000c2
:10121400000000003c660000426600001c24000040
:1012240042420000663c0000000000000000000094
:1012340000000000003c000026420000426600005e
:101244005c400000603000001c0000000000000052
:10125400000000000000000000000000060600007e
:10126400000000000000000006060000000000006e
:101274000000000000000000000000000006000064
:101284000600000000000000000600000602000046
:10129400000000000000000000000000000000004a
:1012a400403000000c0200000c3000004000000040
:1012b400000000000000000000000000000000002a
:1012c400000000007e000000007e0000000000001e
:1012d400000000000000000000000000000000000a
:1012e40000000000020c000030400000300c000040
:1012f40002000000000000000000000000000000e8
:10130400000f000019100000100800000c04000079
:1013140000040000040000000000000000000000c1
:10132400000000000000000000f0000001080000c0
:101334000304000006e2000004920000049200008e
:10134400049200000462000003040000000c00008a
:1013540000f0000001000000000000000000000098
:101364000000000000000000000000000010000069
:101374000028000000280000006c00000044000069
:101384000044000000fe0000008200000083000012
:101394000101000001000000000000000000000046
:1013a4000000000000000000000000000000000039
:1013b400007e000000c200000082000000c20000a5
:1013c400003e000000c20000008200000082000015
:1013d40000c20000007e00000000000000000000c9
:1013e40000000000000000000000000000000000f9
:1013f400f88c000006020000020200000206000051
:101404000cf80000000000000000000000000000d4
:1014140000000000000000003e000000c2000000c8
:10142400820100000201000002010000020100002c
:101434000201000082000000c20000003e00000023
:101444000000000000000000000000000000000098
:1014540000000000003e000002020000023e000006
:1014640002020000020200003e0000000000000032
:1014740000000000000000007e02000002020000e4
:101484007e020000020200000202000000000000d0
:101494000000000000000000000000000000000048
:1014a400f00100000c000000040000000200000035
:1014b40002000000c201000002010000040100005b
:1014c4000c010000f8010000000000000000000012
:1014d4000000000000000000000000000000000008
:1014e40000000000020100000201000002010000ef
:1014f40002010000fe0100000201000002010000e0
:1015040002010000020100000201000000000000ce
:1015140000000000000000000000000000000000c7
:10152400000e000004040000040400000404000091
:10153400040400000e000000000000000000000091
:101544000000000008080000080800000808000067
:101554000808000008080000080800000700000050
:101564000000000000c2000062220000120a000015
:101574001632000022420000c200000000000000f9
:10158400000000000000000002020000020200004f
:101594000202000002020000027e000000000000bf
:1015a4000000000000000000000000000000000037
:1015b40006060000060600000a0500000a050000f1
:1015c4009a040000920400009204000062040000e7
:1015d400620400006204000000000000000000003b
:1015e40000000000000000000000000000000000f7
:1015f4000000000006010000060100000a010000ce
:101604001a01000012010000220100006201000022
:10161400420100008201000082010000000000007d
:1016240000000000000000000000000000000000b6
:101634000000000000000000f80000008c01000021
:101644000603000002020000020200000202000081
:1016540002020000060300008c010000f8000000f4
:101664000000000000000000000000000000000076
:1016740000000000003e00006242000042620000e0
:101684003e02000002020000020000000000000010
:1016940000000000000000000000000000f800004e
:1016a400008c00000106000003020000020200009a
:1016b400020200000202000002060000038c000087
:1016c40001f8000000c000000080000001000000dc
:1016d4000100000000000000000000003e62000065
:1016e40042420000621e000012220000224200005a
:1016f400000000000000000000000000003c0000aa
:1017040026020000060c0000182000002030000013
:101714001e000000000000000000000000000000a7
:101724007f080000080800000808000008080000fe
:101734000808000000000000000000000000000095
:10174400000000000000000002010000020100008f
:101754000201000002010000020100000201000079
:101764000201000002010000840000007800000073
:101774000000000000000000000000000000000065
:101784000000000000810000c34200004266000027
:10179400242400003c180000180000000000000091
:1017a40000000000000000000000000000410000f4
:1017b40010a3000018a2000008a2000008a2000064
:1017c400081600000d1400000514000005140000a4
:1017d40005080000020000000000000000000000f6
:1017e4000000000000000000000000008142000032
:1017f400243c0000181800002466000042c10000c8
:101804000000000000000000000000000041000093
:101814002222000014140000080800000808000038
:1018240008000000000000000000000000000000ac
:101834007e60000020300000100800000c0400004e
:10184400067e000000000000000000000000000010
:10185400000e00000202000002020000020200006a
:1018640002020000020200000e000000000000005e
:101874000000000001030000020200000404000054
:101884000c08000018100000000000000000000018
:10189400000000000007000004040000040400002d
:1018a4000404000004040000040400000700000015
:1018b40000000000000000000814000014220000d2
:1018c40022410000000000000000000000000000b1
:1018d4000000000000000000000000000000000004
:1018e40000000000000000000000000000000000f4
:1018f4003f0000000000000000180000300000005d
:1019040000000000000000000000000000000000d3
:1019140000000000000000000000000000000000c3
:10192400001c0000202000003c26000022320000a1
:101934002c00000000000000000000000002000075
:10194400020200003a6600004242000042420000e7
:10195400663a0000000000000000000000000000e3
:1019640000000000003c000004020000020200002d
:10197400020400003c000000000000000000000021
:1019840000400000404000005c660000424200004d
:1019940042420000665c00000000000000000000fd
:1019a4000000000000000000003c00006442000051
:1019b4007e020000024400007800000000000000e5
:1019c40000000000001c0000020200000f020000e2
:1019d40002020000020200000202000000000000f7
:1019e400000000000000000000000000007c000077
:1019f40022220000261c0000043c00004642000095
:101a0400623c00000000000000020000020200002e
:101a14003a66000042420000424200004242000096
:101a240000000000000000000000000002020000ae
:101a34000002000002020000020200000202000094
:101a4400020000000000000000000000000400008c
:101a54000400000004040000040400000404000066
:101a6400040400000404000007000000000000005b
:101a74000202000002620000321a00000a1e000086
:101a840012220000620000000000000000000000bc
:101a94000002000002020000020200000202000034
:101aa400020200000202000000000000000000002a
:101ab4000000000000000000000000000000000022
:101ac400000000003a070000e60c00004208000095
:101ad40042080000420800004208000042080000da
:101ae40042080000000000000000000000000000a8
:101af400000000000000000000000000003a0000a8
:101b040066420000424200004242000042000000df
:101b140000000000000000000000000000000000c1
:101b24003c2400004242000042420000243c0000e9
:101b340000000000000000000000000000000000a1
:101b4400003a000066420000424200004266000083
:101b54003a02000002020000000000000000000041
:101b6400000000005c6600004242000042420000a7
:101b7400665c0000404000004000000000000000df
:101b840000000000001a000006020000020200002b
:101b9400020200000200000000000000000000003b
:101ba40000000000000000003c020000020c0000e5
:101bb40038200000201e000000000000000000008b
:101bc4000000000000020000021f000002020000ea
:101bd40002020000020200001c00000000000000dd
:101be400000000000000000000000000424200006d
:101bf4004242000042420000665c00000000000017
:101c0400000000000000000000000000004100008f
:101c140063220000223600001414000008000000b3
:101c240000000000000000000000000000000000b0
:101c3400000000000000000000310000023100003c
:101c440002330000034a0000014a0000014a000078
:101c5400014a0000018400000000000000000000b0
:101c64000000000000000000000000000000000070
:101c74000000000063220000140800001c1400008f
:101c840022630000000000000000000000000000cb
:101c94000000000000410000632200002234000024
:101ca40014140000080800000c07000000000000e5
:101cb40000000000000000003e300000100800009a
:101cc40008040000063e00000000000000000000c0
:101cd40000000000001800000404000004040000d8
:101ce40003040000040400000404000018000000c1
:101cf40000000000000800000808000008080000b8
:101d0400080800000808000008080000080800008f
:101d140008000000000000000003000004040000ac
:101d2400040400001804000004040000040400007b
:101d3400030000000000000000000000000000009c
:101d4400000000000e700000000000000000000011
:101d5400000000000000000000000000a3fe0000de
:101d640000000000000000002a1100000001000033
:101d7400510000004f0000000000000000000000bf
:101d8400680300000000000001100000d9570000a3
:101d94000000000000000000921400000001000098
:101da400500000004f000000000000000000000090
:101db4001c0300000000000001100000d9570000bf
:101dc4000000000000000000aa170000000100004d
:101dd400500000004f000000000000000000000060
:101de4001c0300000000000001100000d95700008f
:101df4000000000000000000c21a00000001000002
:101e0400510000004f00000000000000000000002e
:101e1400680300000000000001100000d957000012
:101e240000000000000000002a1e00000001000065
:101e34008c0000008c000000000000000000000086
:101e4400e0090000000000000100000000000000a4
:101e5400000000000000000006280000000100004f
:101e64008c0000008c000000000000000000000056
:101e7400e009000000000000010000000000000074
:101e84000003000000000000ba850000000000000c
:101e940000000000200000007e000000110000008f
:101ea400000000000000000000000000000000002e
:101eb4000004000000000000ae8e000000000000de
:101ec40002000000d95700000000000000000000dc
:101ed40000000000000000000000000000000000fe
:101ee40000010000000100000001000000010000ea
:101ef400ff000000ff000000ff000000fe000000e3
:101f0400fe000000fd000000fc000000fb000000db
:101f1400fa000000f9000000f8000000f7000000db
:101f2400f6000000f5000000f3000000f2000000dd
:101f3400f1000000ef000000ed000000ec000000e4
:101f4400ea000000e8000000e6000000e4000000f1
:101f5400e2000000e0000000de000000db00000002
:101f6400d9000000d7000000d4000000d200000017
:101f7400cf000000cc000000ca000000c700000031
:101f8400c4000000c1000000be000000bb0000004f
:101f9400b8000000b5000000b2000000af0000006f
:101fa400ab000000a8000000a5000000a100000094
:101fb4009e0000009a0000009600000093000000bc
:101fc4008f0000008b0000008800000084000000e7
:101fd400800000007c000000780000007400000015
:101fe400700000006c000000680000006400000045
:101ff400600000005c000000580000005300000076
:102004004f0000004b0000004700000042000000a9
:102014003e0000003a0000003500000031000000de
:102024002c00000028000000240000001f00000015
:102034001b00000016000000120000000d0000004c
:10204400090000000400000000000000707200009d
:102054006f6d00007074000020610000707000005b
:1020640065610000727300002e000000756e0000b0
:10207400746900006c200000746800006520000092
:10208400636100006c69000062720000617400000a
:10209400696f00006e00000070720000657300003c
:1020a400736900006e670000206f00006e2000005e
:1020b400746800006520000073630000726500000e
:1020c400656500006e000000726500007365000025
:1020d400742000007468000065200000626f000036
:1020e400617200006420000077680000696c0000e1
:1020f40065000000546f00002052000045500000ad
:102104004541000054200000636100006c69000038
:102114006272000061740000696f00006e2c0000a0
:10212400006300006f6e0000746900006e750000ab
:10213400652e0000005400006f7500006368000005
:102144002073000063720000656500006e200000cb
:10215400746f000000730000637200006565000086
:102164006e200000636100006c6900006272000070
:1021740061740000696f00006e2e000000500000c2
:1021840065720000666f0000726d0000696e0000e9
:1021940067200000746f0000756300006800000091
:1021a40014f1000052650000747200007900000010
:1021b40050720000657300007320000026200000a8
:1021c400526500006c65000061730000650000004a
:1021d40063690000726300006c650000006f00001a
:1021e4006e2000007468000065200000666900002d
:1021f4006c6c0000656400000000000031200000e9
:1022040042500000500000000001000000010000e6
:102214000000000001000000428f0000000b0000dd
:1022240000000000000000000000000000000000aa
:102234000000000001000000020000000300000094
:102244000600000000000000530000000000000031
:020000040000fa
:10225400d95700000000000000000000000000004a
:10226400000000000000000000000000000000006a
:10227400000000000000000000000000000000005a
:10228400000000000000000000000000000000004a
:10229400000000000000000000000000000000003a
:1022a400000000000000000000000000000000002a
:1022b400000000000000000000000000000000001a
:1022c400000000000000000000000000000000000a
:1022d40000000000000000000000000000000000fa
:1022e40000000000000000000000000000000000ea
:1022f40000000000000000000000000000000000da
:1023040000000000000000000000000000000000c9
:1023140000000000000000000000000000000000b9
:1023240000000000000000000000000000000000a9
:102334000000000000000000fc3f0000000000005e
:102344000000000000000000000000000004000085
:102354002000000000000000000000000000000059
:1023640000000000f62f0000000000000000000044
:10237400000000000000000000f600006f000000f4
:102384000000000000000000000000000000000049
:10239400f66f0000000000000000000000000000d4
:1023a4000060000000f30000cf0000000600000001
:1023b4000000000000000000f0c10000fbdf00008e
:1023c400870f00000000000000000000001800005b
:1023d4007ff800001ffe000018000000000000004d
:1023e400000000004c1c0000ffff00003832000019
:1023f400000000000000000000e60000c1ff000033
:10240400ff830000670000000000000000000000df
:10241400f3ff0000ffff0000ffcf000000000000fa
:102424000000000080f90000ffff0000ffff000033
:102434009f0100000000000000800000fdff00007c
:10244400ffff0000ff3f000001000000000000004b
:1024540000fd0000ffff0000ffff0000bf000000c0
:102464000000000000000000f9ff0000ffff000072
:10247400ff9f0000000000000000000000fa0000c0
:10248400ffff0000ffff00005f00000000000000ed
:1024940000000000f2ff00003ff80000ff4f0000c2
:1024a400000000000000000000f40000ff0700002e
:1024b40080ff00006f00000000000000000000002a
:1024c400f6ff0000c1070000fe6f000000000000de
:1024d4000000000000f200007fe000003ffc00006c
:1024e4004f0000000000000000000000fb3f00005f
:1024f400c0ff0000f0df000000000000000000004a
:1025040000fb00001fc00000fff10000df0000001e
:102514000000000000800000f90f000000fe000031
:10252400e39f00000100000000000000f0fd000037
:1025340007000000fcc700003f0f0000000000007f
:1025440000780000fc07000000fc0000c77f0000ca
:102554003c0000000000000008ff00000300000031
:10256400f88f0000ff2000000000000000e80000d9
:10257400ff03000000f800008fff000027000000a8
:1025840000000000e8ff000063000000f88f000076
:10259400ff2f00000000000000e80000fff300002f
:1025a40000f800009fff00002f0000000000000062
:1025b400e8ff0000f3010000f89f0000ff2f000077
:1025c4000000000000e80000fff3000003fc00002e
:1025d4009fff00002f00000000000000e8ff000043
:1025e400e30f0000fe9f0000ff2f0000000000002a
:1025f40000e80000ffe30000ffff00008fff000081
:102604002f00000000000000c8ff0000e7ff0000ea
:10261400ff9f0000ff2300000000000000180000de
:10262400fec70000ffff0000ff7f0000180000004d
:1026340000000000e0fc0000c7ff0000ffff0000f6
:102644003f0700000000000000800000fd8f000034
:10265400ffff0000ffbf00000100000000000000b9
:1026640000f900000fff0000ffff0000bf000000a2
:102674000000000000000000fb1f0000feff00003f
:10268400ff9f0000000000000000000000f20000b6
:102694003ffc0000ffff00005f000000000000009e
:1026a40000000000f67f0000f0ff0000ff4f000074
:1026b400000000000000000000f40000ff01000022
:1026c400e0ff00006f0000000000000000000000b8
:1026d400f6ff000007c00000ff4f000000000000ec
:1026e4000000000000f20000ff3f0000f8ff0000bf
:1026f400df0000000000000000000000f3ff000005
:10270400ffff0000ff9f0000000000000000000029
:1027140000f90000ffff0000ffff0000bf01000000
:102724000000000000800000fcff0000ffff00002c
:10273400ff3f0000010000000000000000f900005d
:10274400ffff0000ffff00003f0100000000000049
:1027540000000000f3ff0000ffff0000ff9f0000e7
:10276400000000000000000000e60000c3ff0000bd
:10277400ff8300004f000000000000000000000084
:10278400cc180000ffff0000382700000000000004
:10279400000000000018000076fc00003f6e0000fe
:1027a400100000000000000000000000b0c10000a4
:1027b400f99f0000830900000000000000000000f1
:1027c4000060000000fb0000df00000006000000c5
:1027d400000000000000000000000000fa5f00009c
:1027e40000000000000000000000000000000000e5
:1027f40000f200005f000000000000000000000084
:102804000000000000000000f44f00000000000081
:1028140000000000000000000000000000040000b0
:102824002000000000000000000000000000000084
:1028340000000000f83f000000000000000000005d
:102844000000000000000000000000000000000084
:102854000000000000000000000000000000000074
:102864000000000000000000000000000000000064
:102874000000000000000000000000000000000054
:102884000000000000000000000000000000000044
:102894000000000000000000000000000000000034
:1028a4000000000000000000000000000000000024
:1028b4000000000000000000000000000000000014
:1028c4000000000000000000000000000000000004
:1028d40000000000000000000000000000000000f4
:1028e40000000000000000000000000000000000e4
:1028f40000000000000000000000000000000000d4
:1029040000000000000000000000000000000000c3
:1029140000000000000000000000000000000000b3
:10292400d957000000000000000000000000000073
:102934000000000000000000000000000000000093
:102944000000000000000000000000000000000083
:102954000000000000000000000000000000000073
:102964000000000000000000000000000000000063
:102974000000000000000000000000000000000053
:102984000000000000000000000000000000000043
:102994000000000000000000000000000000000033
:1029a4000000000000000000000000000000000023
:1029b4000000000000000000000000000000000013
:1029c4000000000000000000000000000000000003
:1029d40000000000000000000000000000000000f3
:1029e400c003000000000000000000000000000020
:1029f400000000006006000000000000000000006d
:102a04000000000000000000900900000000000029
:102a1400000000000000000000000000cc330000b3
:102a240000000000000000000000000000000000a2
:102a3400e667000000000000000000000000000045
:102a440000000000f3cf00000000000000000000c0
:102a54000000000000800000f99f00000100000059
:102a6400000000000000000000c000007c3e0000e8
:102a740003000000000000000000000000600000ef
:102a84003e7c000006000000000000000000000082
:102a9400009000001ff80000090000000000000082
:102aa4000000000000c800000ff000001300000048
:102ab400000000000000000000e4000007e0000047
:102ac40027000000000000000000000000f20000e9
:102ad40003c000004f0000000000000000000000e0
:102ae40080f90000018000009f0100000000000048
:102af40000000000c0fc0000000000003f030000d4
:102b04000000000000000000607e000000000000e3
:102b14007e0600000000000000000000303f0000be
:102b240000000000fc0c0000000000000000000099
:102b3400980f000000000000f019000000000000e1
:102b440000000000cc07000000000000e03300009b
:102b54000000000000000000f2030000000000007c
:102b6400c04f00000000000000000000f901000058
:102b740000000000809f00000000000000800000b2
:102b8400fc00000000000000003f00000100000005
:102b9400004000007e00000000000000007e0000f5
:102ba40002000000002000003f00000000000000c0
:102bb40000fc000004000000009000001f00000062
:102bc4000000000000f800000900000000c8000038
:102bd4000f0000000000000000f0000013000000df
:102be40000e40000070000000000000000e0000016
:102bf4002700000000f600000300000000000000b1
:102c040000c000006f00000000f40000000000009d
:102c140000000000000000002f000000007c000005
:102c24000000000000000000000000003e00000062
:102c340000f000000100000000000000008000001f
:102c44000f00000000000000010000000000000070
:102c5400008000000000000000000000019e000051
:102c640007000000008000000000000000000000d9
:102c7400019e00000700000000800000000000002a
:102c840000000000019e000007000000008000001a
:102c94000000000000000000019e0000070000008a
:102ca400008000000000000000000000010000009f
:102cb4000000000000800000000000000000000090
:102cc400010000000000000000800000000000007f
:102cd40000000000019e000007f800003f80000093
:102ce4000000000000000000019e000007f8000042
:102cf4003f8000000000000000000000019e000072
:102d040007f800003f800000000000000000000001
:102d1400019e000007f800003f8000000000000052
:102d2400000000000100000000f800003f800000e7
:102d340000000000000000000100000000f8000096
:102d44003f800000000000000000000001000000bf
:102d540000f800003f8000000000000000000000b8
:102d64000100000000f800003f80000000000000a7
:102d7400000000000100000000f800003f80000097
:102d840000000000000000000100000000f8000046
:102d94003f8000000000000000000000010000006f
:102da40000f800003f800000000000000000000068
:102db4000100000000f800003f8000000000000057
:102dc400000000000100000000f800003f80000047
:102dd40000000000000000000100000000f80000f6
:102de4003f8000000000000000000000010000001f
:102df40000f800003f800000000000000000000018
:102e04000100000000f800003f8000000000000006
:102e1400000000000100000000f800003f800000f6
:102e240000000000000000000300000000f80000a3
:102e34003f800000000000000000000002000000cd
:102e440000f800003fc00000000000000000000087
:102e54000200000000f800003f40000000000000f5
:102e6400000000000200000000000000004000001c
:102e740000000000000000003c0000000000000012
:102e8400003c00000000000000000000e0ff000023
:102e9400ffff0000ff07000000000000000000002a
:102ea400000000000000000000000000000000001e
:102eb400000000000000000000000000000000000e
:102ec40000000000000000000000000000000000fe
:102ed40000000000000000000000000000000000ee
:102ee40000000000000000000000000000000000de
:102ef40000000000000000000000000000000000ce
:102f040000000000000000000000000000000000bd
:102f140000000000000000000000000000000000ad
:102f2400000000000000000000000000000000009d
:102f3400000000000000000000000000000000008d
:102f4400000000000000000000000000000000007d
:102f5400d95700000000000000000000000000003d
:102f6400000000000000000000000000000000005d
:102f7400000000000000000000000000000000004d
:102f8400000000000000000000000000000000003d
:102f9400000000000000000000000000000000002d
:102fa400000000000000000000000000000000001d
:102fb400000000000000000000000000000000000d
:102fc40000000000000000000000000000000000fd
:102fd40000000000000000000000000000000000ed
:102fe40000000000000000000000000000000000dd
:102ff40000000000000000000000000000000000cd
:1030040000000000000000000000000000000000bc
:10301400c0030000000000000000000000000000e9
:103024000000000060060000000000000000000036
:1030340000000000000000009009000000000000f3
:10304400000000000000000000000000cc3300007d
:10305400000000000000000000000000000000006c
:10306400e66700000000000000000000000000000f
:1030740000000000f3cf000000000000000000008a
:103084000000000000800000f99f00000100000023
:10309400000000000000000000c00000fc3f000031
:1030a40003000000000000000000000000600000b9
:1030b400fe7f000006000000000000000000000089
:1030c40000900000ffff0000090000000000000065
:1030d4000000000000c80000ffff00001300000013
:1030e400000000000000000000e40000ffff0000fa
:1030f40027000000000000000000000000f20000b3
:10310400ffff00004f00000000000000000000006e
:1031140080f90000ffff00009f0100000000000094
:1031240000000000c0fc0000ffff00003f0300009f
:10313400000000000000000060fe0000ffff00002f
:103144007f060000000000000000000030ff0000c7
:10315400ffff0000ff0c0000000000000000000062
:1031640098ff0000ffff0000ff19000000000000ae
:1031740000000000ccff0000ffff0000ff33000050
:103184000000000000000000f2ff0000ffff00004c
:10319400ff4f00000000000000000000f9ff0000e5
:1031a400ffff0000ff9f00000000000000800000ff
:1031b400fcff0000ffff0000ff3f000001000000d3
:1031c40000400000feff0000ffff0000ff7f000042
:1031d4000200000000200000ffff0000ffff0000cd
:1031e400ffff00000400000000900000ffff00004b
:1031f400ffff0000ffff00000900000000c80000fe
:10320400ffff0000ffff0000ffff000013000000ad
:1032140000e40000ffff0000ffff0000ffff0000cc
:103224002700000000f60000ffff0000ffff000081
:10323400ffff00006f00000000f40000ffff00002b
:10324400ffff0000ffff00002f00000000fc000053
:10325400ffff0000ffff0000ffff00003f00000031
:1032640000f00000ffff0000ffff0000ffff000070
:103274000f00000000000000ffff0000ffff00003f
:10328400ffff00000000000000000000ff610000dc
:10329400f8ff0000ffff0000000000000000000035
:1032a400ff610000f8ff0000ffff000000000000c5
:1032b40000000000ff610000f8ff0000ffff0000b5
:1032c4000000000000000000ff610000f8ff0000a3
:1032d400ffff00000000000000000000ffff0000ee
:1032e400ffff0000ffff00000000000000000000de
:1032f400ffff0000ffff0000ffff000000000000d0
:1033040000000000ff610000f8070000c0ff00009b
:103314000000000000000000ff610000f80700004a
:10332400c0ff00000000000000000000ff6100007a
:10333400f8070000c0ff00000000000000000000cb
:10334400ff610000f8070000c0ff0000000000005b
:1033540000000000ffff0000ff070000c0ff0000a6
:103364000000000000000000ffff0000ff07000055
:10337400c0ff00000000000000000000ffff00008c
:10338400ff070000c0ff0000000000000000000074
:10339400ffff0000ff070000c0ff00000000000066
:1033a40000000000ffff0000ff070000c0ff000056
:1033b4000000000000000000ffff0000ff07000005
:1033c400c0ff00000000000000000000ffff00003c
:1033d400ff070000c0ff0000000000000000000024
:1033e400ffff0000ff070000c0ff00000000000016
:1033f40000000000ffff0000ff070000c0ff000006
:103404000000000000000000ffff0000ff070000b4
:10341400c0ff00000000000000000000ffff0000eb
:10342400ff070000c0ff00000000000000000000d3
:10343400ffff0000ff070000c0ff000000000000c5
:1034440000000000ffff0000ff070000c0ff0000b5
:103454000000000000000000ffff0000ff07000064
:10346400c0ff00000000000000000000feff00009c
:10347400ff070000c0ff0000000000000000000083
:10348400feff0000ff070000c07f000000000000f6
:1034940000000000feff0000ffff0000ff7f0000af
:1034a4000000000000000000fcff0000ffff00001f
:1034b400ff3f00000000000000000000e0ff0000eb
:1034c400ffff0000ff0700000000000000000000f4
:1034d40000000000000000000000000000000000e8
:1034e40000000000000000000000000000000000d8
:1034f40000000000000000000000000000000000c8
:1035040000000000000000000000000000000000b7
:1035140000000000000000000000000000000000a7
:103524000000000000000000000000000000000097
:103534000000000000000000000000000000000087
:103544000000000000000000000000000000000077
:103554000000000000000000000000000000000067
:103564000000000000000000000000000000000057
:103574000000000000000000000000000000000047
:10358400d957000000000000000000000000000007
:103594000000000000000000000000000000000027
:1035a4000000000000000000000000000000000017
:1035b4000000000000000000000000000000000007
:1035c40000000000000000000000000000000000f7
:1035d40000000000000000000000000000000000e7
:1035e40000000000000000000000000000000000d7
:1035f40000000000000000000000000000000000c7
:1036040000000000000000000000000000000000b6
:1036140000000000000000000000000000000000a6
:103624000000000000000000000000000000000096
:103634000000000000000000000000000000000086
:103644000000000000000000000000000000000076
:103654000000000000000000000000000000000066
:103664000000000000000000fc3f0000000000001b
:103674000000000000000000000000000004000042
:103684002000000000000000000000000000000016
:103694000000000006200000000000000000000000
:1036a40000000000000000000006000060000000b0
:1036b4000000000000000000000000000000000006
:1036c4000660000000000000000000000000000090
:1036d4000060000000030000c000000006000000bd
:1036e4000000000000000000f0c1000003c0000062
:1036f400870f000000000000000000000018000018
:103704007f00000000fe0000180000000000000020
:10371400000000000c1c0000000000003830000015
:10372400000000000000000000060000000000008f
:103734000000000060000000000000000000000025
:10374400030000000000000000c0000000000000b2
:1037540000000000800100000000000000000000e4
:103764008001000000000000008000000100000053
:10377400f87f0000000000000100000000000000cd
:103784000001000000ff0000ff01000080000000b5
:10379400000000000000000001800000ffff0000a6
:1037a400078000000000000000000000000200008c
:1037b400e0ff0000ff0f00004000000000000000d8
:1037c4000000000002f000003ff800003f4000004d
:1037d400000000000000000000040000f8070000e2
:1037e400803f0000600000000000000000000000b6
:1037f40006fc0000c10700007e600000000000001d
:1038040000000000000200007ce000003ffc00001b
:10381400400000000000000000000000033e000023
:1038240040e00000f0c100000000000000000000c3
:10383400000300001fc0000081f10000c10000006f
:103844000000000000800000010f000000020000e2
:10385400e38300000100000000000000f08100008c
:103864000700000004c60000030f00000000000071
:103874000078000080070000000c0000c403000072
:103884003c0000000000000008800000030000006d
:10389400088c000007200000000000000008000061
:1038a40080030000000800008807000020000000da
:1038b4000000000008c00000630000000888000049
:1038c400072000000000000000080000c0f3000012
:1038d400001800009807000020000000000000000d
:1038e40008c00000b3010000189000000720000089
:1038f4000000000000080000c0330000030c0000ba
:1039040090070000200000000000000008c0000034
:10391400230e0000069800000720000000000000ad
:103924000008000080230000fc030000880700005a
:1039340020000000000000000880000027000000b4
:1039440000900000032000000000000000180000a8
:103954008047000000000000e003000018000000a1
:1039640000000000e00000004700000000e000004c
:10397400030700000000000000800000018f000029
:1039840000000000c08300000100000000000000ef
:10399400000100000f010000008000008100000011
:1039a4000000000000000000031e000006000000ec
:1039b4000080000000000000000000000002000081
:1039c4003c0c00000000000040000000000000006b
:1039d40000000000067c0000f01f00000040000012
:1039e400000000000000000000040000f8010000d6
:1039f4006000000060000000000000000000000003
:103a040006f0000007c000000040000000000000b5
:103a14000000000000020000e03f0000f801000088
:103a2400c00000000000000000000000038000004f
:103a3400ffff000001800000000000000000000003
:103a44000001000000fe0000ff01000080010000f2
:103a5400000000000080000000000000f83f0000ab
:103a64000000000001000000000000000001000050
:103a74000000000000000000000100000000000041
:103a840000000000030000000000000000800000af
:103a9400000000000000000000060000000000001c
:103aa40000000000400000000000000000000000d2
:103ab4000c18000000000000382000000000000086
:103ac400000000000018000076000000006e0000f6
:103ad400100000000000000000000000b0c1000061
:103ae40001800000830900000000000000000000c5
:103af4000060000000030000c00000000600000099
:103b0400000000000000000000000000024000006f
:103b140000000000000000000000000000000000a1
:103b2400000200004000000000000000000000004f
:103b3400000000000000000004400000000000003d
:103b4400000000000000000000000000000400006d
:103b54002000000000000000000000000000000041
:103b640000000000f83f000000000000000000001a
:103b74000000000000000000000000000000000041
:103b84000000000000000000000000000000000031
:103b94000000000000000000000000000000000021
:103ba4000000000000000000000000000000000011
:103bb4000000000000000000000000000000000001
:103bc40000000000000000000000000000000000f1
:103bd40000000000000000000000000000000000e1
:103be40000000000000000000000000000000000d1
:103bf40000000000000000000000000000000000c1
:103c040000000000000000000000000000000000b0
:103c140000000000000000000000000000000000a0
:103c24000000000000000000000000000000000090
:103c34000000000000000000000000000000000080
:103c44000000000000000000000000000000000070
:103c540000000000ffff0000ffff0000ffff000066
:103c6400ffff0000ffff0000ffff0000ffff000058
:103c7400ffff0000ffff0000ff0f0000ffff000038
:103c8400ffff0000ffff0000ffff0000ffff000038
:103c9400ffff0000ffff0000ffff0000ff0f000018
:103ca400ffff0000ffff0000ffff0000ffff000018
:103cb400ffff0000ffff0000ffff0000ffff000008
:103cc400ff0f0000ffff0000ffff0000ffff0000e8
:103cd400ffff0000ffff0000ffff0000ffff0000e8
:103ce400ffff0000ff0f0000ffff0000ffff0000c8
:103cf400ffff0000ffff0000ffff0000ffff0000c8
:103d0400ffff0000ffff0000ff0f0000ffff0000a7
:103d1400ffff0000ffff0000ffff0000ffff0000a7
:103d2400ffff0000ffff0000ffff0000ff0f000087
:103d3400ffff0000ffff0000ffff0000ffff000087
:103d4400ffff0000ffff0000ffff0000ffff000077
:103d5400ff0f0000ffff0000ffff0000ffff000057
:103d6400ffff0000ffff0000ffff0000ffff000057
:103d7400ffff0000ff0f0000ffff0000ffff000037
:103d8400ffff0000ffff0000ffff0000ffff000037
:103d9400ffff0000ffff0000ff0f0000ffff000017
:103da400ffff0000ffff0000ffff0000ffff000017
:103db400ffff0000ffff0000ffff0000ff0f0000f7
:103dc400ffff0000ffff0000ffff0000ffff0000f7
:103dd400ffff0000ffff0000ffff0000ffff0000e7
:103de400ff0f0000ffff0000ffff0000ffff0000c7
:103df400ffff0000ffff0000ffff0000ffff0000c7
:103e0400ffff0000ff0f0000ffff0000ffff0000a6
:103e1400ffff0000ffff0000ffff0000ffff0000a6
:103e2400ffff0000ffff0000ff0f0000ffff000086
:103e3400ffff0000ffff0000ffff0000ffff000086
:103e4400ffff0000ffff0000ffff0000ff0f000066
:103e5400ffff0000ffff0000ffff0000ffff000066
:103e6400ffff0000ffff0000ffff0000ffff000056
:103e7400ff0f0000ffff0000ffff0000ffff000036
:103e8400ffff0000ffff0000ffff0000ffff000036
:103e9400ffff0000ff0f0000ffff0000ffff000016
:103ea400ffff0000ffff0000ffff0000ffff000016
:103eb400ffff0000ffff0000ff0f0000ffff0000f6
:103ec400ffff0000ffff0000ffff0000ffff0000f6
:103ed400ffff0000ffff0000ffff0000ff0f0000d6
:103ee400ffff0000ffff0000ffff0000ffff0000d6
:103ef400ffff0000ffff0000ffff0000ffff0000c6
:103f0400ff0f0000ffff0000ffff0000ffff0000a5
:103f1400ffff0000ffff0000ffff0000ffff0000a5
:103f2400ffff0000ff0f0000ffff0000ffff000085
:103f3400ffff0000ffff0000ffff0000ffff000085
:103f4400ffff0000ffff0000ff0f0000ffff000065
:103f5400ffff0000ffff0000ffff0000ffff000065
:103f6400ffff0000ffff0000ffff0000ff0f000045
:103f7400ffff0000ffff0000ffff0000ffff000045
:103f8400ffff0000ffff0000ffff0000ffff000035
:103f9400ff0f0000ffff0000ffff0000ffff000015
:103fa400ffff0000ffff0000ffff0000ffff000015
:103fb400ffff0000ff0f0000ffff0000ffff0000f5
:103fc400ffff0000ffff0000ffff0000ffff0000f5
:103fd400ffff0000ffff0000ff0f0000ffff0000d5
:103fe400ffff0000ffff0000ffff0000ffff0000d5
:103ff400ffff0000ffff0000ffff0000ff0f0000b5
:10400400ffff0000ff0300000080000003ff00002a
:104014007f000000000e000000000000feff000012
:10402400ff0f0000ffff0000ff03000000800000fe
:1040340003ff00007f000000000e000000000000ed
:10404400feff0000ff0f0000ffff0000ff03000061
:104054000080000003ff00007f000000000e00004d
:1040640000000000feff0000ff0f0000ffff000043
:10407400ffe30000ff8f0000ffff00000ffc0000c3
:10408400f88f0000ff3f0000feff0000ff0f00005c
:10409400ffff0000ffe30000ff8f0000ffff0000b0
:1040a4000ffc0000f88f0000ff3f0000feff00003f
:1040b400ff0f0000ffff0000ffe30000ff8f000080
:1040c400ffff00000ffc0000f88f0000ff3f00001e
:1040d400feff0000ff0f0000ffff0000ffe30000f1
:1040e400008e0000e307000000fc0000f88f0000d1
:1040f40003380000feff0000ff0f0000ffff000078
:10410400ffe30000008e0000e307000000fc000055
:10411400f88f000003380000feff0000ff0f0000ce
:10412400ffff0000ffe30000008e0000e307000033
:1041340000fc0000f88f000003380000feff0000c0
:10414400ff0f0000ffff0000ffe30000008e0000ef
:1041540003c70000ff030000ff8f000003380000c6
:10416400feff0000ff0f0000ffff0000ffe3000060
:10417400008e000003c70000ff030000ff8f000053
:1041840003380000feff0000ff0f0000ffff0000e7
:10419400ffe30000008e000003c70000ff030000df
:1041a400ff8f000003380000feff0000ff0f000037
:1041b400ffff0000ffe30000008e000003c00000ca
:1041c400f1ff0000c78f000003380000feff00006d
:1041d400ff0f0000ffff0000ffe30000008e00005f
:1041e40003c00000f1ff0000c78f00000338000087
:1041f400feff0000ff0f0000ffff0000ffe30000d0
:10420400008e000003c00000f1ff0000c78f000013
:1042140003380000feff0000ff0f0000ffff000056
:10422400ffe30000ff8f00001f3f00008eff00002f
:10423400c08f0000ff3f0000feff0000ff0f0000e2
:10424400ffff0000ffe30000ff8f00001f3f00009e
:104254008eff0000c08f0000ff3f0000feff000043
:10426400ff0f0000ffff0000ffe30000ff8f0000ce
:104274001f3f00008eff0000c08f0000ff3f0000c2
:10428400feff0000ff0f0000ffff0000ff0300001f
:1042940000800000e33800008ee30000380e0000c8
:1042a40000000000feff0000ff0f0000ffff000001
:1042b400ff03000000800000e33800008ee30000ec
:1042c400380e000000000000feff0000ff0f000099
:1042d400ffff0000ff03000000800000e33800003f
:1042e4008ee30000380e000000000000feff000016
:1042f400ff0f0000ffff0000ffff0000ffff0000b2
:104304001fc70000811f0000c0ff0000ffff000066
:10431400ffff0000ff0f0000ffff0000ffff000091
:10432400ffff00001fc70000811f0000c0ff000046
:10433400ffff0000ffff0000ff0f0000ffff000071
:10434400ffff0000ffff00001fc70000811f0000e7
:10435400c0ff0000ffff0000ffff0000ff0f000090
:10436400ffff0000ff030000c08f0000e3ff000018
:1043740081030000fff1000003380000feff00008d
:10438400ff0f0000ffff0000ff030000c08f0000cc
:10439400e3ff000081030000fff100000338000088
:1043a400feff0000ff0f0000ffff0000ff030000fe
:1043b400c08f0000e3ff000081030000fff1000054
:1043c40003380000feff0000ff0f0000ffff0000a5
:1043d400ff1f00003f7e000000ff00007f00000080
:1043e400c0010000e03f0000feff0000ff0f0000de
:1043f400ffff0000ff1f00003f7e000000ff0000e1
:104404007f000000c0010000e03f0000feff00004c
:10441400ff0f0000ffff0000ff1f00003f7e0000b1
:1044240000ff00007f000000c0010000e03f00002a
:10443400feff0000ff0f0000ffff0000ff1f000051
:1044440038800000ffff00000ffc0000388e0000e1
:10445400ffc00000ffff0000ff0f0000ffff00008f
:10446400ff1f000038800000ffff00000ffc000069
:10447400388e0000ffc00000ffff0000ff0f0000a7
:10448400ffff0000ff1f000038800000ffff000056
:104494000ffc0000388e0000ffc00000ffff00008a
:1044a400ff0f0000ffff0000ff030000ff7f00007c
:1044b400fc07000000fc0000c0010000003f0000f9
:1044c400feff0000ff0f0000ffff0000ff030000dd
:1044d400ff7f0000fc07000000fc0000c00100009a
:1044e400003f0000feff0000ff0f0000ffff000080
:1044f400ff030000ff7f0000fc07000000fc000039
:10450400c0010000003f0000feff0000ff0f00009c
:10451400ffff0000ffe30000078000001fc700004a
:10452400ff1f00003ffe00001ff80000ffff000017
:10453400ff0f0000ffff0000ffe300000780000002
:104544001fc70000ff1f00003ffe00001ff800000f
:10455400ffff0000ff0f0000ffff0000ffe300006b
:10456400078000001fc70000ff1f00003ffe00007f
:104574001ff80000ffff0000ff0f0000ffff000016
:10458400ff030000f87f0000e0c00000f11f0000fe
:10459400c78f0000ff070000feff0000ff0f0000b0
:1045a400ffff0000ff030000f87f0000e0c00000f0
:1045b400f11f0000c78f0000ff070000feff00008e
:1045c400ff0f0000ffff0000ff030000f87f000062
:1045d400e0c00000f11f0000c78f0000ff070000cb
:1045e400feff0000ff0f0000ffff0000ffe30000dc
:1045f400380e0000fc3800008e1f0000008e000002
:1046040003000000feff0000ff0f0000ffff00009a
:10461400ffe30000380e0000fc3800008e1f00008d
:10462400008e000003000000feff0000ff0f0000ea
:10463400ffff0000ffe30000380e0000fc3800001c
:104644008e1f0000008e000003000000feff00002b
:10465400ff0f0000ffff0000ffff0000c771000014
:10466400fc380000f0ff0000ff0f0000fcc7000052
:10467400ffff0000ff0f0000ffff0000ffff00002e
:10468400c7710000fc380000f0ff0000ff0f0000bd
:10469400fcc70000ffff0000ff0f0000ffff000049
:1046a400ffff0000c7710000fc380000f0ff0000ad
:1046b400ff0f0000fcc70000ffff0000ff0f000019
:1046c400ffff0000ff1f0000c0010000fcc000004d
:1046d400ffe3000000700000e0c70000ffff0000df
:1046e400ff0f0000ffff0000ff1f0000c0010000db
:1046f400fcc00000ffe3000000700000e0c7000001
:10470400ffff0000ff0f0000ffff0000ff1f00007d
:10471400c0010000fcc00000ffe3000000700000c6
:10472400e0c70000ffff0000ff0f0000ffff0000d4
:10473400ffff00003ff00000e33f000070fc0000ba
:1047440038f00000ffc00000ffff0000ff0f000072
:10475400ffff0000ffff00003ff00000e33f000008
:1047640070fc000038f00000ffc00000ffff0000f4
:10477400ff0f0000ffff0000ffff00003ff00000fc
:10478400e33f000070fc000038f00000ffc00000b0
:10479400ffff0000ff0f0000ffff0000ffe3000029
:1047a400c78f00001f0000007e000000f8710000a9
:1047b4001cf80000ffff0000ff0f0000ffff0000d7
:1047c400ffe30000c78f00001f0000007e00000010
:1047d400f87100001cf80000ffff0000ff0f00004c
:1047e400ffff0000ffe30000c78f00001f00000070
:1047f4007e000000f87100001cf80000ffff0000bc
:10480400ff0f0000ffff0000ffff0000007000002a
:10481400003f00007e1c00003f8e0000fff80000f7
:10482400ffff0000ff0f0000ffff0000ffff00007c
:1048340000700000003f00007e1c00003f8e00005e
:10484400fff80000ffff0000ff0f0000ffff000063
:10485400ffff000000700000003f00007e1c00000d
:104864003f8e0000fff80000ffff0000ff0f000074
:10487400ffff0000ff1f000007000000000700000a
:10488400f00300003800000000f80000ffff000003
:10489400ff0f0000ffff0000ff1f000007000000e3
:1048a40000070000f00300003800000000f80000da
:1048b400ffff0000ff0f0000ffff0000ff1f0000cc
:1048c4000700000000070000f003000038000000ab
:1048d40000f80000ffff0000ff0f0000ffff0000d2
:1048e400ffff0000ffff0000e338000080e300004a
:1048f40038fe000003000000feff0000ff0f000070
:10490400ffff0000ffff0000ffff0000e33800008e
:1049140080e3000038fe000003000000feff0000fa
:10492400ff0f0000ffff0000ffff0000ffff00007b
:10493400e338000080e3000038fe000003000000bc
:10494400feff0000ff0f0000ffff0000ff03000058
:10495400008000001f000000f0030000078e00002c
:1049640003c70000ffff0000ff0f0000ffff00006f
:10497400ff030000008000001f000000f00300009f
:10498400078e000003c70000ffff0000ff0f0000b8
:10499400ffff0000ff030000008000001f00000074
:1049a400f0030000078e000003c70000ffff0000b3
:1049b400ff0f0000ffff0000ffe30000ff8f000077
:1049c400ffff0000ffe3000038fe0000e3070000e3
:1049d400feff0000ff0f0000ffff0000ffe30000e8
:1049e400ff8f0000ffff0000ffe3000038fe00001f
:1049f400e3070000feff0000ff0f0000ffff0000c0
:104a0400ffe30000ff8f0000ffff0000ffe3000052
:104a140038fe0000e3070000feff0000ff0f000067
:104a2400ffff0000ffe30000008e0000ff380000dd
:104a34008e1f00003f00000000c00000ffff0000c8
:104a4400ff0f0000ffff0000ffe30000008e0000e6
:104a5400ff3800008e1f00003f00000000c000006f
:104a6400ffff0000ff0f0000ffff0000ffe3000056
:104a7400008e0000ff3800008e1f00003f00000081
:104a840000c00000ffff0000ff0f0000ffff000058
:104a9400ffe30000008e0000030000000e00000091
:104aa400c0f1000003380000feff0000ff0f00000b
:104ab400ffff0000ffe30000008e00000300000081
:104ac4000e000000c0f1000003380000feff0000eb
:104ad400ff0f0000ffff0000ffe30000008e000056
:104ae400030000000e000000c0f1000003380000c5
:104af400feff0000ff0f0000ffff0000ffe30000c7
:104b0400008e0000e3c70000f1e30000c77f00004f
:104b1400fc380000feff0000ff0f0000ffff000054
:104b2400ffe30000008e0000e3c70000f1e3000093
:104b3400c77f0000fc380000feff0000ff0f0000ec
:104b4400ffff0000ffe30000008e0000e3c7000049
:104b5400f1e30000c77f0000fc380000feff000006
:104b6400ff0f0000ffff0000ffe30000ff8f0000c5
:104b7400e3c000000ffc0000380e00001cc700005a
:104b8400ffff0000ff0f0000ffff0000ffe3000035
:104b9400ff8f0000e3c000000ffc0000380e00008f
:104ba4001cc70000ffff0000ff0f0000ffff000014
:104bb400ffe30000ff8f0000e3c000000ffc0000d3
:104bc400380e00001cc70000ffff0000ff0f0000ac
:104bd400ffff0000ff03000000800000e33f00002f
:104be4000efc0000008000001fc70000ffff000053
:104bf400ff0f0000ffff0000ff0300000080000023
:104c0400e33f00000efc0000008000001fc700000e
:104c1400ffff0000ff0f0000ffff0000ff03000084
:104c240000800000e33f00000efc00000080000054
:104c34001fc70000ffff0000ff0f0000ffff000080
:104c4400ffff0000ffff0000ffff0000ffff000068
:104c5400ffff0000ffff0000ffff0000ff0f000048
:104c6400ffff0000ffff0000ffff0000ffff000048
:104c7400ffff0000ffff0000ffff0000ffff000038
:104c8400ff0f0000ffff0000ffff0000ffff000018
:104c9400ffff0000ffff0000ffff0000ffff000018
:104ca400ffff0000ff0f0000ffff0000ffff0000f8
:104cb400ffff0000ffff0000ffff0000ffff0000f8
:104cc400ffff0000ffff0000ff0f0000ffff0000d8
:104cd400ffff0000ffff0000ffff0000ffff0000d8
:104ce400ffff0000ffff0000ffff0000ff0f0000b8
:104cf400ffff0000ffff0000ffff0000ffff0000b8
:104d0400ffff0000ffff0000ffff0000ffff0000a7
:104d1400ff0f0000ffff0000ffff0000ffff000087
:104d2400ffff0000ffff0000ffff0000ffff000087
:104d3400ffff0000ff0f0000ffff0000ffff000067
:104d4400ffff0000ffff0000ffff0000ffff000067
:104d5400ffff0000ffff0000ff0f0000ffff000047
:104d6400ffff0000ffff0000ffff0000ffff000047
:104d7400ffff0000ffff0000ffff0000ff0f000027
:104d8400ffff0000ffff0000ffff0000ffff000027
:104d9400ffff0000ffff0000ffff0000ffff000017
:104da400ff0f0000ffff0000ffff0000ffff0000f7
:104db400ffff0000ffff0000ffff0000ffff0000f7
:104dc400ffff0000ff0f0000ffff0000ffff0000d7
:104dd400ffff0000ffff0000ffff0000ffff0000d7
:104de400ffff0000ffff0000ff0f0000ffff0000b7
:104df400ffff0000ffff0000ffff0000ffff0000b7
:104e0400ffff0000ffff0000ffff0000ff0f000096
:104e1400ffff0000ffff0000ffff0000ffff000096
:104e2400ffff0000ffff0000ffff0000ffff000086
:104e3400ff0f0000ffff0000ffff0000ffff000066
:104e4400ffff0000ffff0000ffff0000ffff000066
:104e5400ffff0000ff0f0000ffff0000ffff000046
:104e6400ffff0000ffff0000ffff0000ffff000046
:104e7400ffff0000ffff0000ff0f0000ffff000026
:104e8400ffff0000ffff0000ffff0000ffff000026
:104e9400ffff0000ffff0000ffff0000ff0f000006
:104ea400ffff0000ffff0000ffff0000ffff000006
:104eb400ffff0000ffff0000ffff0000ffff0000f6
:104ec400ff0f0000ffff0000ffff0000ffff0000d6
:104ed400ffff0000ffff0000ffff0000ffff0000d6
:104ee400ffff0000ff0f0000ffff0000ffff0000b6
:104ef400ffff0000ffff0000ffff0000ffff0000b6
:104f0400ffff0000ffff0000ff0f0000ffff000095
:104f1400ffff0000ffff0000ffff0000ffff000095
:104f2400ffff0000ffff0000ffff0000ff0f000075
:104f3400ffff0000ffff0000ffff0000ffff000075
:104f4400ffff0000ffff0000ffff0000ffff000065
:104f5400ff0f0000ffff0000ffff0000ffff000045
:104f6400ffff0000ffff0000ffff0000ffff000045
:104f7400ffff0000ff0f0000ffff0000ffff000025
:104f8400ffff0000ffff0000ffff0000ffff000025
:104f9400ffff0000ffff0000ff0f0000ffff000005
:104fa400ffff0000ffff0000ffff0000ffff000005
:104fb400ffff0000ffff0000ffff0000ff0f0000e5
:104fc400ffff0000ffff0000ffff0000ffff0000e5
:104fd400ffff0000ffff0000ffff0000ffff0000d5
:104fe400ff0f0000ffff0000ffff0000ffff0000b5
:104ff400ffff0000ffff0000ffff0000ffff0000b5
:10500400ffff0000ff0f000000000000ffff000092
:10501400ffff0000ffff0000ffff0000ffff000094
:10502400ffff0000ffff0000ffff0000ffff000084
:10503400ff0f0000ffff0000ffff0000ffff000064
:10504400ffff0000ffff0000ffff0000ffff000064
:10505400ffff0000ff0f0000ffff0000ffff000044
:10506400ffff0000ffff0000ffff0000ffff000044
:10507400ffff0000ffff0000ff0f0000ffff000024
:10508400ffff0000ffff0000ffff0000ffff000024
:10509400ffff0000ffff0000ffff0000ff0f000004
:1050a400ffff0000ffff0000ffff0000ffff000004
:1050b400ffff0000ffff0000ffff0000ffff0000f4
:1050c400ff0f0000ffff0000ffff0000ffff0000d4
:1050d400ffff0000ffff0000ffff0000ffff0000d4
:1050e400ffff0000ff0f0000ffff0000ffff0000b4
:1050f400ffff0000ffff0000ffff0000ffff0000b4
:10510400ffff0000ffff0000ff0f0000ffff000093
:10511400ffff0000ffff0000ffff0000ffff000093
:10512400ffff0000ffff0000ffff0000ff0f000073
:10513400ffff0000ffff0000ffff0000ffff000073
:10514400ffff0000ffff0000ffff0000ffff000063
:10515400ff0f0000ffff0000ffff0000ffff000043
:10516400ffff0000ffff0000ffff0000ffff000043
:10517400ffff0000ff0f0000ffff0000ffff000023
:10518400ffff0000ffff0000ffff0000ffff000023
:10519400ffff0000ffff0000ff0f0000ffff000003
:1051a400ffff0000ffff0000ffff0000ffff000003
:1051b400ffff0000ffff0000ffff0000ff0f0000e3
:1051c400ffff0000ffff0000ffff0000ffff0000e3
:1051d400ffff0000ffff0000ffff0000ffff0000d3
:1051e400ff0f0000ffff0000ffff0000ffff0000b3
:1051f400ffff0000ffff0000ffff0000ffff0000b3
:10520400ffff0000ff0f0000ffff0000ffff000092
:10521400ffff0000ffff0000ffff0000ffff000092
:10522400ffff0000ffff0000ff0f0000ffff000072
:10523400ffff0000ffff0000ffff0000ffff000072
:10524400ffff0000ffff0000ffff0000ff0f000052
:10525400ffff0000ffff0000ffff0000ffff000052
:10526400ffff0000ffff0000ffff0000ffff000042
:10527400ff0f0000ffff0000ffff0000ffff000022
:10528400ffff0000ffff0000ffff0000ffff000022
:10529400ffff0000ff0f0000ffff0000ffff000002
:1052a400ffff0000ffff0000ffff0000ffff000002
:1052b400ffff0000ffff0000ff0f0000ffff0000e2
:1052c400ffff0000ffff0000ffff0000ffff0000e2
:1052d400ffff0000ffff0000ffff0000ff0f0000c2
:1052e400ffff00000f000000000000000f0000009e
:1052f400f00f0000ff0f00000000000000ff00009e
:10530400ff0f0000ffff00000f000000000000007e
:105314000f000000f00f0000ff0f0000000000006d
:1053240000ff0000ff0f0000ffff00000f0000005f
:10533400000000000f000000f00f0000ff0f00004d
:105344000000000000ff0000ff0f0000ffff00004e
:105354000f000000000000000f000000f00f00002c
:10536400ff0f00000000000000ff0000ff0f00001e
:10537400ffff00000fff0000ff0f0000ffff000011
:10538400000000000f0f0000ffff00000fff0000ef
:10539400ff0f0000ffff00000fff0000ff0f0000e1
:1053a400ffff0000000000000f0f0000ffff0000df
:1053b4000fff0000ff0f0000ffff00000fff0000c1
:1053c400ff0f0000ffff0000000000000f0f0000af
:1053d400ffff00000fff0000ff0f0000ffff0000b1
:1053e4000fff0000ff0f0000ffff0000000000009f
:1053f4000f0f0000ffff00000fff0000ff0f000071
:10540400ffff00000f0f0000000f0000fff000007e
:10541400f0f000000f0f00000f0000000fff00006d
:10542400ff0f0000ffff00000f0f0000000f00003f
:10543400fff00000f0f000000f0f00000f0000006c
:105444000fff0000ff0f0000ffff00000f0f000020
:10545400000f0000fff00000f0f000000f0f00004c
:105464000f0000000fff0000ff0f0000ffff00000f
:105474000f0f0000000f0000fff00000f0f000002c
:105484000f0f00000f0000000fff0000ff0f0000cf
:10549400ffff00000f0f0000000f0000ff0f0000cf
:1054a400f0f000000f0f00000f0000000fff0000dd
:1054b400ff0f0000ffff00000f0f0000000f0000af
:1054c400ff0f0000f0f000000f0f00000f000000bd
:1054d4000fff0000ff0f0000ffff00000f0f000090
:1054e400000f0000ff0f0000f0f000000f0f00009d
:1054f4000f0000000fff0000ff0f0000ffff00007f
:105504000f0f0000000f0000ff0f0000f0f000007c
:105514000f0f00000f0000000fff0000ff0f00003e
:10552400ffff00000f0f0000000f0000ff0f00003e
:10553400000000000f0f00000f0000000fff00002c
:10554400ff0f0000ffff00000f0f0000000f00001e
:10555400ff0f0000000000000f0f00000f0000000c
:105564000fff0000ff0f0000ffff00000f0f0000ff
:10557400000f0000ff0f0000000000000f0f0000ec
:105584000f0000000fff0000ff0f0000ffff0000ee
:105594000f0f0000000f0000ff0f000000000000cc
:1055a4000f0f00000f0000000fff0000ff0f0000ae
:1055b400ffff00000fff0000ff0f0000fff00000de
:1055c400f0ff0000ff0f0000ffff00000fff0000ce
:1055d400ff0f0000ffff00000fff0000ff0f00009f
:1055e400fff00000f0ff0000ff0f0000ffff0000cd
:1055f4000fff0000ff0f0000ffff00000fff00007f
:10560400ff0f0000fff00000f0ff0000ff0f00009c
:10561400ffff00000fff0000ff0f0000ffff00006e
:105624000fff0000ff0f0000fff00000f0ff00007c
:10563400ff0f0000ffff00000fff0000ff0f00003e
:10564400ffff00000f000000000000000f0f00002b
:105654000f0f00000f0f00000000000000ff00000b
:10566400ff0f0000ffff00000f000000000000001b
:105674000f0f00000f0f00000f0f000000000000cc
:1056840000ff0000ff0f0000ffff00000f000000fc
:10569400000000000f0f00000f0f00000f0f0000ac
:1056a4000000000000ff0000ff0f0000ffff0000eb
:1056b4000f000000000000000f0f00000f0f00009b
:1056c4000f0f00000000000000ff0000ff0f0000ab
:1056d400ffff0000ffff0000ffff00000ff00000cd
:1056e4000ff0000000ff0000ffff0000ffff0000bc
:1056f400ff0f0000ffff0000ffff0000ffff00009e
:105704000ff000000ff0000000ff0000ffff00009a
:10571400ffff0000ff0f0000ffff0000ffff00007d
:10572400ffff00000ff000000ff0000000ff00007a
:10573400ffff0000ffff0000ff0f0000ffff00005d
:10574400ffff0000ffff00000ff000000ff000005b
:1057540000ff0000ffff0000ffff0000ff0f00003c
:10576400ffff00000ff00000000f0000fff000003a
:105774000f0f00000f0f0000ffff00000fff0000dd
:10578400ff0f0000ffff00000ff00000000f0000fb
:10579400fff000000f0f00000f0f0000ffff0000dc
:1057a4000fff0000ff0f0000ffff00000ff00000dc
:1057b400000f0000fff000000f0f00000f0f0000ab
:1057c400ffff00000fff0000ff0f0000ffff0000bd
:1057d4000ff00000000f0000fff000000f0f0000aa
:1057e4000f0f0000ffff00000fff0000ff0f00007d
:1057f400ffff00000fff0000ffff0000f00f00009c
:10580400ffff0000f0f0000000000000f0ff0000c7
:10581400ff0f0000ffff00000fff0000ffff00006c
:10582400f00f0000ffff0000f0f000000000000097
:10583400f0ff0000ff0f0000ffff00000fff00005b
:10584400ffff0000f00f0000ffff0000f0f0000079
:1058540000000000f0ff0000ff0f0000ffff000049
:105864000fff0000ffff0000f00f0000ffff00002b
:10587400f0f0000000000000f0ff0000ff0f000047
:10588400ffff0000fff00000ff0f00000ff000001a
:105894000f0f0000f00f0000f0f000000fff0000f9
:1058a400ff0f0000ffff0000fff00000ff0f0000eb
:1058b4000ff000000f0f0000f00f0000f0f00000e8
:1058c4000fff0000ff0f0000ffff0000fff00000cb
:1058d400ff0f00000ff000000f0f0000f00f00009a
:1058e400f0f000000fff0000ff0f0000ffff0000ba
:1058f400fff00000ff0f00000ff000000f0f00008a
:10590400f00f0000f0f000000fff0000ff0f000098
:10591400ffff0000ffff0000f0ff00000fff00008a
:10592400ffff000000ff0000f000000000ff000087
:10593400ff0f0000ffff0000ffff0000f0ff00006a
:105944000fff0000ffff000000ff0000f000000058
:1059540000ff0000ff0f0000ffff0000ffff00003a
:10596400f0ff00000fff0000ffff000000ff000039
:10597400f000000000ff0000ff0f0000ffff000028
:10598400ffff0000f0ff00000fff0000ffff00001a
:1059940000ff0000f000000000ff0000ff0f000007
:1059a400ffff00000ff000000f0000000f000000d8
:1059b400ff0f0000f0000000ffff00000fff0000d9
:1059c400ff0f0000ffff00000ff000000f000000b9
:1059d4000f000000ff0f0000f0000000ffff0000b8
:1059e4000fff0000ff0f0000ffff00000ff000009a
:1059f4000f0000000f000000ff0f0000f000000087
:105a0400ffff00000fff0000ff0f0000ffff00007a
:105a14000ff000000f0000000f000000ff0f000057
:105a2400f0000000ffff00000fff0000ff0f000068
:105a3400ffff00000ff0000000f00000000f000066
:105a44000f0f000000ff00000fff0000f0ff000038
:105a5400ff0f0000ffff00000ff0000000f0000047
:105a6400000f00000f0f000000ff00000fff0000f8
:105a7400f0ff0000ff0f0000ffff00000ff0000028
:105a840000f00000000f00000f0f000000ff0000f6
:105a94000fff0000f0ff0000ff0f0000ffff0000f9
:105aa4000ff0000000f00000000f00000f0f0000d6
:105ab40000ff00000fff0000f0ff0000ff0f0000d8
