:020000040000fa
:080000000002040000000000f2
:020000040000fa
:10000800f8030000f8030000f8030000f8030000fc
:10001800f8030000f8030000f8030000f8030000ec
:10002800f8030000f8030000f8030000f8030000dc
:10003800f8030000f8030000f8030000f8030000cc
:100048002e030000f8030000f8030000f803000086
:10005800f8030000f8030000f8030000f8030000ac
:10006800f8030000f8030000f8030000f80300009c
:10007800f8030000f8030000f8030000f80300008c
:10008800f8030000f8030000f8030000f80300007c
:10009800f8030000f8030000f8030000f80300006c
:1000a800f8030000f8030000f8030000f80300005c
:1000b800f8030000f8030000f8030000f80300004c
:1000c800f8030000f8030000f8030000f80300003c
:1000d800f8030000f8030000f8030000f80300002c
:1000e800f8030000f8030000f8030000f80300001c
:1000f800f8030000f8030000f8030000f80300000c
:10010800f8030000f8030000f8030000f8030000fb
:10011800f8030000f8030000f8030000f8030000eb
:10012800f8030000f8030000f8030000f8030000db
:10013800f8030000f8030000f8030000f8030000cb
:10014800f8030000f8030000f8030000f8030000bb
:10015800f8030000f8030000f8030000f8030000ab
:10016800f8030000f8030000f8030000f80300009b
:10017800f8030000f8030000f8030000f80300008b
:10018800f8030000f8030000f8030000f80300007b
:10019800f8030000f8030000f8030000f80300006b
:1001a800f8030000f8030000f8030000f80300005b
:1001b80040cd0000f8030000f8030000f803000039
:1001c800f8030000f8030000f8030000f80300003b
:1001d800f8030000f8030000f8030000f80300002b
:1001e800f8030000f8030000f8030000f80300001b
:0801f800f8030000f803000009
:020000040000fa
:10020800f8030000f8030000f8030000f8030000fa
:10021800f8030000f8030000f8030000f8030000ea
:10022800f8030000f8030000f8030000f8030000da
:10023800f8030000f8030000f8030000f8030000ca
:100248002e030000f8030000f8030000f803000084
:10025800f8030000f8030000f8030000f8030000aa
:10026800f8030000f8030000f8030000f80300009a
:10027800f8030000f8030000f8030000f80300008a
:10028800f8030000f8030000f8030000f80300007a
:10029800f8030000f8030000f8030000f80300006a
:1002a800f8030000f8030000f8030000f80300005a
:1002b800f8030000f8030000f8030000f80300004a
:1002c800f8030000f8030000f8030000f80300003a
:1002d800f8030000f8030000f8030000f80300002a
:1002e800f8030000f8030000f8030000f80300001a
:1002f800f8030000f8030000f8030000f80300000a
:10030800f8030000f8030000f8030000f8030000f9
:10031800f8030000f8030000f8030000f8030000e9
:10032800f8030000f8030000f8030000f8030000d9
:10033800f8030000f8030000f8030000f8030000c9
:10034800f8030000f8030000f8030000f8030000b9
:10035800f8030000f8030000f8030000f8030000a9
:10036800f8030000f8030000f8030000f803000099
:10037800f8030000f8030000f8030000f803000089
:10038800f8030000f8030000f8030000f803000079
:10039800f8030000f8030000f8030000f803000069
:1003a800f8030000f8030000f8030000f803000059
:1003b80040cd0000f8030000f8030000f803000037
:1003c800f8030000f8030000f8030000f803000039
:1003d800f8030000f8030000f8030000f803000029
:1003e800f8030000f8030000f8030000f803000019
:0803f800f8030000f803000007
:020000040000fa
:100400006fac21000eaf24000e0188000000000038
:10041000000020000000e000020032000001200087
:10042000200288000c000700e0e92f0001002000f6
:100430000f000700000020000000e0000200320072
:10044000000002000000000002fb020000000000ab
:100450000040da000000fe0040bc20000000e00088
:1004600002003200002020009001880000000600f9
:10047000a1028800800078000000eb001a0037001d
:10048000e280400054a0b4009101ba00e280400034
:1004900054a0b4009102ba00e280400054a0b4001d
:1004a0000002eb00472bde00f507b200a601880032
:1004b000602ce10008003a000049eb000201e8006e
:1004c000020039003420ec0002f0a0008301e900b2
:1004d000f9ff3e00040037006128e100010032000e
:1004e0000082eb00040007001101ba000200e000e6
:1004f000e3ff3a000000060004d0a300e20f490029
:100500001c003900810278003549ba000201e80078
:10051000020039003420ec0002f0a0008301e90061
:100520000f0032002549ba000201e800020039003c
:100530003420ec0002f0a0008301e9000800320042
:100540000400e0000600320015c9ba000201e8000c
:10055000020039003420ec0002f0a0008301e90021
:100560008180e80054a0b4000300e000e2ff3a00fc
:10057000000006009102ba00055978008301e900e5
:10058000f7ff3200c82ade00055978008301e90030
:10059000f3ff32000400e000f1ff320011d9ba008d
:1005a000eeff370050fe04000000000010dc0400e5
:1005b00000000000f4e804000000000022e804004d
:1005c00000000000fce7040000000000e8f7040061
:1005d00000000000b6f70400000000008cce04000c
:1005e000000000009ecd04000000000094d4040030
:1005f00000000000fcd104000000000046d8040008
:100600000000000004d504000000000076db0400b8
:1006100000000000f6f2040000000000baf204003e
:1006200000000000f4f5040000000000c2f5040022
:100630000000000010ef04000000000076ee04004f
:100640000000000086ed040000000000bafa04007b
:1006500000000000a8f904000000000000a0fe0057
:100660003600f800849fbe00869fbe003200f8006e
:100670003400f80014002000a401880004202000a9
:1006800094018800c04b8000d14b80006100400085
:10069000e0804800c04b8800d14b88000a21ef0061
:1006a0008500a900d6e20200000000003400f90035
:1006b0003200f9004f03be004f02be003600f900c1
:1006c0000080fe00004006000a21ef00e039200013
:1006d000700888008500a9009500a80013e1a80013
:1006e00000000600d802a900c0a2a900dc02a800f0
:1006f000ed04a900e924a900e2a4a900f102a800e0
:10070000e122a800c8a2a800c002a900c402a80053
:10071000e204a900c802a900cc02a800d902a900dd
:10072000dd02a900e224a900c822a900cc22a80069
:10073000c002a900c402a800facb02000000000019
:10074000c1c2a900c5c2a800d902a900c822a90037
:10075000c802a800e204a900e224a900f00b2000ce
:100760004207b600610420007205200023742000b7
:1007700081497800824978008049780003fc2f0085
:100780001436800004806100b000b3001036880089
:10079000f40f2c00003680000002620000a0200050
:1007a0000400700000368800c46a2000148a6100ca
:1007b000103a80000060a000237420008149780076
:1007c00082497800804978002017290094ec0200c3
:1007d00000000000bcff07008001eb0002f12e00ca
:1007e00061e72e0060d82e006af2040000000000cd
:1007f0000040da000000fe00889fbe008004780000
:10080000205980000000e00004003a000e000700bc
:100810000084eb000000e00008003500285980004b
:100820000900e0000500320009004400060007004e
:100830000000e00001003d000084eb0008007800ab
:100840004f04be0000000600800078000100e000b8
:1008500003003a0060b22000205988000000050023
:100860000080eb0062ac2100828f500002003e004d
:10087000215988000000eb0000000600839f6800fb
:100880000100e00002003d0060001000e080180060
:100890000300e00002003d0060011100e08119004a
:1008a000050007004f00e00002003b006000100060
:1008b000e0801800000006006022b8000602200058
:1008c0000000d0008180d2000482d2008582d20054
:1008d0000000a0000202520083825a00030031008f
:1008e0000202420083824a000000a1000603e900e0
:1008f000f3ff3a0000000600020ab900001bb9002d
:100900000200b800810042008100430000000600a0
:100910000000e0002f003200c0017800e38f51009a
:100920002c0036000308a3002a003a00f15880008a
:100930000100e00002003200810f5000040031008d
:1009400011009800f05888001600370082007800e7
:10095000110190000200e00002003200800f5100ff
:10096000faff39001102780084824000850f5000a0
:1009700018003900808f520003003a0083084200bb
:1009800001007800070037000200e0000300320099
:1009900083014000830f51000e00390012009800bf
:1009a00090009800900090000100e00009003200e3
:1009b00010014000828f500006003a00c2b12000b2
:1009c0000009eb001001780011084100910090002f
:1009d0001100980000000600889fbe000004780007
:1009e000e15880000100e0000200320001007800c0
:1009f0000d003700f1588000e0b1200004003700fe
:100a0000910f5400250036000180e800910090000d
:100a10000100e000faff3a0010003700920f540086
:100a20001e0036000280e800100178000200e0009d
:100a3000faff3a0011017800f1588000e0b120007f
:100a400004003700910f5400140036000180e800c4
:100a500091009000828f5000faff3a0019598000ef
:100a6000888f540001003100880478000900780064
:100a7000360007000000e00004003a00888f5400b0
:100a8000050032008904d100f5ff3700091878000d
:100a90009fff0700d2ff37000000eb004f04be00ad
:100aa00000000600881f7800630440000800a100d1
:100ab0008000eb00800f540021003600e30f54004b
:100ac00001003e004800200008007800c2ff070037
:100ad0008000eb000000e000190032009000780078
:100ae0009101780064815100880f510003003100aa
:100af00011019000020878000700370008814000cb
:100b0000020878009101900013019800100178000c
:100b10001109140088087800100178000000eb002b
:100b20000200e00004003200920190000300e000a7
:100b3000010032000280e800e05888008180e8006f
:100b4000010078004f047800000006008000780063
:100b50000000eb000100e000050034000100780017
:100b600025ff0700e10f400001003a000000eb0004
:040b7000000006007b
:020000040000fa
:100b740000000000200000007e00000011000000c2
:100b8400048400000100000004950000010000003e
:100b940006a600000100000009b7000001000000e3
:100ba40008d90000010000000cea00000100000068
:100bb4000a0c000002000000032e000002000000e6
:100bc400043f000002000000045000000200000086
:100bd400086100000200000008720000020000002a
:100be40004830000020000000594000002000000dd
:100bf40004a500000200000005b600000200000089
:100c040008c700000200000008d80000020000002d
:100c140008e900000200000008fa000002000000d9
:100c2400080b000003000000081c00000300000083
:100c3400082d000003000000083e0000030000002f
:100c4400084f0000030000000860000003000000db
:100c5400047100000300000004820000030000008f
:100c6400089300000300000008a400000300000033
:100c740008b500000300000006c6000003000000e1
:100c84000cd700000300000009f900000300000075
:100c9400091b000004000000083d000004000000df
:100ca4000a4e000004000000077000000400000069
:100cb40007810000040000000a9200000400000004
:100cc4000ab400000400000005d60000040000007f
:100cd40004e700000400000008f80000040000001d
:100ce40007090000050000000c1a000005000000c0
:100cf4000a3c0000050000000b5e00000500000037
:100d040008800000050000000b91000005000000b1
:100d140008b300000500000007c40000050000003f
:100d240007d50000050000000ae6000005000000e9
:100d340008080000060000000d190000060000006d
:100d4400083b000006000000074c000006000000fd
:100d5400085d000006000000046e000006000000ac
:100d6400057f00000600000004900000060000005b
:100d740007a100000600000006b200000600000003
:100d840008c300000600000007d4000006000000ad
:100d940008e500000600000007f600000600000059
:100da4000807000007000000081800000700000002
:100db4000529000007000000073a000007000000b2
:100dc400084b000007000000045c0000070000005e
:100dd400046d000007000000077e0000070000000b
:100de400048f0000070000000da0000007000000b1
:100df40008c200000700000008d30000070000003c
:100e040008e400000700000008f5000007000000e7
:100e14000506000008000000071700000800000095
:100e24000528000008000000083900000800000040
:100e3400074a0000080000000a5b000008000000e8
:100e4400077d000008000000078e00000800000075
:100e5400079f00000800000005b000000800000023
:100e640007c100000800000005d2000008000000cf
:100e740008e300000800000000000000000000007b
:100e8400000000000000000000000000000000005e
:100e9400000000000000000000000000000000004e
:100ea4000202000002020000020200000200000030
:100eb400020200000000000000000000000000002a
:100ec40000120000121200001200000000000000d6
:100ed400000000000000000000000000000000000e
:100ee400000000000000000000480000004800006e
:100ef4000048000000ff000000240000002400005f
:100f040000ff0000001200000012000000120000a8
:100f140000000000000000000000000000000000cd
:100f24000000000000100000107c000016120000f9
:100f34001c700000505000003e1000001000000023
:100f4400000000000000000000000000000000009d
:100f54000c0100009200000092000000520000000a
:100f640052030000ac040000a00400009004000040
:100f740090040000080300000000000000000000ce
:100f8400000000000000000000000000000000005d
:100f9400000000003800000044000000440000008d
:100fa4002c000000180000003c0200006201000058
:100fb400c2010000c60100003c0300000000000064
:100fc400000000000000000000000000000000001d
:100fd4000002000002020000020000000000000005
:100fe40000000000000000000000000000000000fd
:100ff40000000000080400000406000002020000d3
:1010040002020000060400000408000000000000c2
:1010140000000000000100000202000006040000bd
:1010240004040000040600000202000001000000a5
:101034000000000000080000087e00000814000002
:101044001400000000000000000000000000000088
:101054000000000000000000000000000008000084
:10106400080800007f0800000808000000000000d5
:10107400000000000000000000000000000000006c
:101084000000000000000000000000000606000050
:10109400020000000000000000000000000000004a
:1010a4000000000000000000000e0000000000002e
:1010b400000000000000000000000000000000002c
:1010c400000000000000000000000000000000001c
:1010d4000606000000000000000000000000000000
:1010e40000100000080800000c04000004020000c6
:1010f40002030000010000000000000000000000e6
:10110400000000003c240000624200004242000053
:1011140042660000243c00000000000000000000c3
:10112400000000000010000018140000101000005f
:10113400101000001010000010000000000000005b
:1011440000000000000000003c620000404000007d
:1011540020300000180c0000067e00000000000093
:101164000000000000000000003c0000624000009d
:10117400601c000060400000406000003e00000071
:10118400000000000000000000000000203000000b
:10119400302800002424000022fe0000202000004b
:1011a400000000000000000000000000003c0000ff
:1011b40004060000023e00006040000040600000a1
:1011c4003e000000000000000000000000000000dd
:1011d400380c0000060200003a660000424200009b
:1011e400643800000000000000000000000000005f
:1011f400007e0000402000002010000010180000b5
:10120400080c0000040000000000000000000000c2
:10121400000000003c660000426600001c24000040
:1012240042420000663c0000000000000000000094
:1012340000000000003c000026420000426600005e
:101244005c400000603000001c0000000000000052
:10125400000000000000000000000000060600007e
:10126400000000000000000006060000000000006e
:101274000000000000000000000000000006000064
:101284000600000000000000000600000602000046
:10129400000000000000000000000000000000004a
:1012a400403000000c0200000c3000004000000040
:1012b400000000000000000000000000000000002a
:1012c400000000007e000000007e0000000000001e
:1012d400000000000000000000000000000000000a
:1012e40000000000020c000030400000300c000040
:1012f40002000000000000000000000000000000e8
:10130400000f000019100000100800000c04000079
:1013140000040000040000000000000000000000c1
:10132400000000000000000000f0000001080000c0
:101334000304000006e2000004920000049200008e
:10134400049200000462000003040000000c00008a
:1013540000f0000001000000000000000000000098
:101364000000000000000000000000000010000069
:101374000028000000280000006c00000044000069
:101384000044000000fe0000008200000083000012
:101394000101000001000000000000000000000046
:1013a4000000000000000000000000000000000039
:1013b400007e000000c200000082000000c20000a5
:1013c400003e000000c20000008200000082000015
:1013d40000c20000007e00000000000000000000c9
:1013e40000000000000000000000000000000000f9
:1013f400f88c000006020000020200000206000051
:101404000cf80000000000000000000000000000d4
:1014140000000000000000003e000000c2000000c8
:10142400820100000201000002010000020100002c
:101434000201000082000000c20000003e00000023
:101444000000000000000000000000000000000098
:1014540000000000003e000002020000023e000006
:1014640002020000020200003e0000000000000032
:1014740000000000000000007e02000002020000e4
:101484007e020000020200000202000000000000d0
:101494000000000000000000000000000000000048
:1014a400f00100000c000000040000000200000035
:1014b40002000000c201000002010000040100005b
:1014c4000c010000f8010000000000000000000012
:1014d4000000000000000000000000000000000008
:1014e40000000000020100000201000002010000ef
:1014f40002010000fe0100000201000002010000e0
:1015040002010000020100000201000000000000ce
:1015140000000000000000000000000000000000c7
:10152400000e000004040000040400000404000091
:10153400040400000e000000000000000000000091
:101544000000000008080000080800000808000067
:101554000808000008080000080800000700000050
:101564000000000000c2000062220000120a000015
:101574001632000022420000c200000000000000f9
:10158400000000000000000002020000020200004f
:101594000202000002020000027e000000000000bf
:1015a4000000000000000000000000000000000037
:1015b40006060000060600000a0500000a050000f1
:1015c4009a040000920400009204000062040000e7
:1015d400620400006204000000000000000000003b
:1015e40000000000000000000000000000000000f7
:1015f4000000000006010000060100000a010000ce
:101604001a01000012010000220100006201000022
:10161400420100008201000082010000000000007d
:1016240000000000000000000000000000000000b6
:101634000000000000000000f80000008c01000021
:101644000603000002020000020200000202000081
:1016540002020000060300008c010000f8000000f4
:101664000000000000000000000000000000000076
:1016740000000000003e00006242000042620000e0
:101684003e02000002020000020000000000000010
:1016940000000000000000000000000000f800004e
:1016a400008c00000106000003020000020200009a
:1016b400020200000202000002060000038c000087
:1016c40001f8000000c000000080000001000000dc
:1016d4000100000000000000000000003e62000065
:1016e40042420000621e000012220000224200005a
:1016f400000000000000000000000000003c0000aa
:1017040026020000060c0000182000002030000013
:101714001e000000000000000000000000000000a7
:101724007f080000080800000808000008080000fe
:101734000808000000000000000000000000000095
:10174400000000000000000002010000020100008f
:101754000201000002010000020100000201000079
:101764000201000002010000840000007800000073
:101774000000000000000000000000000000000065
:101784000000000000810000c34200004266000027
:10179400242400003c180000180000000000000091
:1017a40000000000000000000000000000410000f4
:1017b40010a3000018a2000008a2000008a2000064
:1017c400081600000d1400000514000005140000a4
:1017d40005080000020000000000000000000000f6
:1017e4000000000000000000000000008142000032
:1017f400243c0000181800002466000042c10000c8
:101804000000000000000000000000000041000093
:101814002222000014140000080800000808000038
:1018240008000000000000000000000000000000ac
:101834007e60000020300000100800000c0400004e
:10184400067e000000000000000000000000000010
:10185400000e00000202000002020000020200006a
:1018640002020000020200000e000000000000005e
:101874000000000001030000020200000404000054
:101884000c08000018100000000000000000000018
:10189400000000000007000004040000040400002d
:1018a4000404000004040000040400000700000015
:1018b40000000000000000000814000014220000d2
:1018c40022410000000000000000000000000000b1
:1018d4000000000000000000000000000000000004
:1018e40000000000000000000000000000000000f4
:1018f4003f0000000000000000180000300000005d
:1019040000000000000000000000000000000000d3
:1019140000000000000000000000000000000000c3
:10192400001c0000202000003c26000022320000a1
:101934002c00000000000000000000000002000075
:10194400020200003a6600004242000042420000e7
:10195400663a0000000000000000000000000000e3
:1019640000000000003c000004020000020200002d
:10197400020400003c000000000000000000000021
:1019840000400000404000005c660000424200004d
:1019940042420000665c00000000000000000000fd
:1019a4000000000000000000003c00006442000051
:1019b4007e020000024400007800000000000000e5
:1019c40000000000001c0000020200000f020000e2
:1019d40002020000020200000202000000000000f7
:1019e400000000000000000000000000007c000077
:1019f40022220000261c0000043c00004642000095
:101a0400623c00000000000000020000020200002e
:101a14003a66000042420000424200004242000096
:101a240000000000000000000000000002020000ae
:101a34000002000002020000020200000202000094
:101a4400020000000000000000000000000400008c
:101a54000400000004040000040400000404000066
:101a6400040400000404000007000000000000005b
:101a74000202000002620000321a00000a1e000086
:101a840012220000620000000000000000000000bc
:101a94000002000002020000020200000202000034
:101aa400020200000202000000000000000000002a
:101ab4000000000000000000000000000000000022
:101ac400000000003a070000e60c00004208000095
:101ad40042080000420800004208000042080000da
:101ae40042080000000000000000000000000000a8
:101af400000000000000000000000000003a0000a8
:101b040066420000424200004242000042000000df
:101b140000000000000000000000000000000000c1
:101b24003c2400004242000042420000243c0000e9
:101b340000000000000000000000000000000000a1
:101b4400003a000066420000424200004266000083
:101b54003a02000002020000000000000000000041
:101b6400000000005c6600004242000042420000a7
:101b7400665c0000404000004000000000000000df
:101b840000000000001a000006020000020200002b
:101b9400020200000200000000000000000000003b
:101ba40000000000000000003c020000020c0000e5
:101bb40038200000201e000000000000000000008b
:101bc4000000000000020000021f000002020000ea
:101bd40002020000020200001c00000000000000dd
:101be400000000000000000000000000424200006d
:101bf4004242000042420000665c00000000000017
:101c0400000000000000000000000000004100008f
:101c140063220000223600001414000008000000b3
:101c240000000000000000000000000000000000b0
:101c3400000000000000000000310000023100003c
:101c440002330000034a0000014a0000014a000078
:101c5400014a0000018400000000000000000000b0
:101c64000000000000000000000000000000000070
:101c74000000000063220000140800001c1400008f
:101c840022630000000000000000000000000000cb
:101c94000000000000410000632200002234000024
:101ca40014140000080800000c07000000000000e5
:101cb40000000000000000003e300000100800009a
:101cc40008040000063e00000000000000000000c0
:101cd40000000000001800000404000004040000d8
:101ce40003040000040400000404000018000000c1
:101cf40000000000000800000808000008080000b8
:101d0400080800000808000008080000080800008f
:101d140008000000000000000003000004040000ac
:101d2400040400001804000004040000040400007b
:101d3400030000000000000000000000000000009c
:101d4400000000000e700000000000000000000011
:101d5400000000000000000000000000c3180000a4
:101d640024210000a631000028420000cb5a0000c4
:101d74002c630000cf7b0000518c0000b294000063
:101d840034a50000b6b5000059ce0000bad6000054
:101d94007def0000ffff000000000000a210000023
:101da40045290000a631000028420000cb5a00005b
:101db4002c630000ae73000030840000b294000075
:101dc40055ad0000f7bd000059ce0000bad60000a2
:101dd4003ce70000ffff00000010000000000000ce
:101de4007e11000000010000500000004f000000c0
:101df400ce070000000000005c0c000000000000a2
:101e0400041000001707000000000000000000009c
:101e14002819000000010000500000004f000000dd
:101e240000000000000000005c0c00000000000046
:101e3400041000001707000000000000000000006c
:101e44008225000000010000bb0000008c0000009f
:101e540000000000000000006c33000000000000df
:101e6400041000001707000000000000000000003c
:101e7400ec58000000010000bb0000008c000000d2
:101e840000000000000000006c33000000000000af
:101e9400041000001807000000000000000000000b
:101ea400568c000000010000500000004f000000ac
:101eb40000000000000000005c0c000000000000b6
:101ec40004100000180700000010000000000000cb
:101ed400b098000000010000500000004f00000016
:101ee40002090000000000005c0c0000000000007b
:101ef40004100000180700000003000000000000a8
:101f0400ba8500000000000000000000200000006e
:101f14007e0000001100000000000000000000002e
:101f240000000000000000000004000000000000a9
:101f3400ae8e000000000000100000001707000033
:101f4400000000000000000000000000000000008d
:101f54000000000000000000000400000000000079
:101f6400ce8e0000000000001000000018070000e2
:101f7400000000000000000000000000000000005d
:101f8400000000000000000000010000000100004b
:101f94000001000000010000ff000000ff0000003d
:101fa400ff000000fe000000fe000000fd00000035
:101fb400fc000000fb000000fa000000f900000033
:101fc400f8000000f7000000f6000000f500000033
:101fd400f3000000f2000000f1000000ef00000038
:101fe400ed000000ec000000ea000000e800000042
:101ff400e6000000e4000000e2000000e000000051
:10200400de000000db000000d9000000d700000063
:10201400d4000000d2000000cf000000cc0000007b
:10202400ca000000c7000000c4000000c100000096
:10203400be000000bb000000b8000000b5000000b6
:10204400b2000000af000000ab000000a8000000d8
:10205400a5000000a10000009e0000009a000000fe
:1020640096000000930000008f0000008b00000029
:102074008800000084000000800000007c00000054
:102084007800000074000000700000006c00000084
:102094006800000064000000600000005c000000b4
:1020a40058000000530000004f0000004b000000e7
:1020b40047000000420000003e0000003a0000001b
:1020c40035000000310000002c0000002800000052
:1020d400240000001f0000001b0000001600000088
:1020e400120000000d0000000900000004000000c0
:1020f40000000000707200006f6d0000707400003a
:1021040020610000707000006561000072730000bf
:102114002e000000756e0000746900006c20000041
:102124007468000065200000636100006c690000b1
:102134006272000061740000696f00006e000000ac
:102144007072000065730000736900006e67000020
:10215400206f00006e2000007468000065200000fd
:102164007363000072650000656500006e00000086
:10217400726500007365000074200000746800003c
:1021840065200000626f000061720000642000009e
:1021940077680000696c000065000000546f00005f
:1021a400205200004550000045410000542000002a
:1021b400636100006c6900006272000061740000d9
:1021c400696f00006e2c0000006300006f6e000059
:1021d400746900006e750000652e00000054000054
:1021e4006f750000636800002073000063720000d4
:1021f400656500006e200000746f0000007300002d
:1022040063720000656500006e20000063610000d9
:102214006c6900006272000061740000696f000064
:102224006e2e00000050000065720000666f000012
:10223400726d0000696e000067200000746f00007a
:10224400756300006800000014f10000526500008e
:102254007472000079000000507200006573000081
:102264007320000026200000526500006c65000009
:102274006173000065000000636900007263000080
:102284006c650000006f00006e20000074680000a0
:1022940065200000666900006c6c00006564000045
:1022a40000000000342000004250000050000000f4
:1022b4000001000000010000000000000100000017
:1022c4007e8f0000000b00000000000000000000f2
:1022d40000000000000000000000000001000000f9
:1022e40002000000030000000600000000000000df
:0822f40053000000000000008f
:020000040000fa
:1022fc0017070000500000005000000050000000c4
:10230c00240000000611000002010000240000005f
:10231c002200000000040000112100000422000033
:10232c000004000011010000220000002000000049
:10233c0000060000112100003204000033000000f0
:10234c000623000012010000200000001e00000007
:10235c000008000010210000335400000455000058
:10236c00000600004423000011200000001e0000a5
:10237c0000000000141100003254000076880000a8
:10238c007867000035220000011e0000001c0000d0
:10239c0000000000181000002153000086a9000066
:1023ac00cbbc00008957000034120000011c000057
:1023bc00001c0000000000000a2100004275000013
:1023cc00a9dc000004ee0000000a0000bd7900004a
:1023dc0046230000111c0000001a00000000000041
:1023ec001c1000003254000097db0000eebc000013
:1023fc00dbee0000ac68000034120000011a000093
:10240c00001a0000000000001c21000043760000b0
:10241c00caee0000bdb90000abeb0000de8a000084
:10242c0056230000111a00000018000000000000e4
:10243c002011000032640000a8ec0000de890000ce
:10244c00ecce0000a9ed0000bd68000035120000c4
:10245c00011800000016000000000000221000000f
:10246c002143000086da0000ee8c0000b8de00008c
:10247c00ee8c0000d9de00009b57000023110000f9
:10248c0018000000160000000010000011320000bf
:10249c0064a80000edce000088dc000004dd000024
:1024ac0000100000cd980000ecbe00007935000053
:1024bc0012010000160000001400000000260000ad
:1024cc001021000053860000dbee00007bc80000ea
:1024dc00ddcd0000dcdd00008cc90000ee9b0000af
:1024ec00572400001116000000140000000000002a
:1024fc001611000032750000b9ed0000ae87000027
:10250c00dcdd00005aa5000004dd0000000e000018
:10251c0089ec0000ce790000452200000114000077
:10252c0000120000000000002a10000021530000df
:10253c0097db0000ee7a0000c8dd0000ad1500004e
:10254c0052da0000dd9d0000b8ee00009c57000040
:10255c00341200001400000012000000000e0000f5
:10256c001142000075b90000eeae000097040000a7
:10257c00dd0200004a04000011020000a404000067
:10258c00dd0000000e890000ebce00008a46000042
:10259c0023110000120000001000000000160000c3
:1025ac001021000054970000ebde00007ad90000e7
:1025bc00dd8d000013040000110000001641000026
:1025cc00d8dd00009db80000eeac000068340000bf
:1025dc0012010000100000001000000000140000a8
:1025ec002143000075c90000ee9d000097dd00003e
:1025fc00cd380000081100000283000004dd00004b
:10260c00000e00008aea0000de8a0000462300006b
:10261c0011100000000e0000000000001610000059
:10262c0032640000a7ec0000de790000dadd000067
:10263c008c130000081100000016000031c80000c7
:10264c00ddad0000a8ed0000ad6800003412000004
:10265c00010e0000000c000000000000161000002d
:10266c002143000086ca0000ee9d0000a7dd00009b
:10267c00cd2800000c1100000014000082dc0000ca
:10268c00dd8b0000dade00008b5600002311000009
:10269c000e0000000c0000000016000011320000bb
:1026ac0064a80000ecce000078dc0000dd7c0000ab
:1026bc00120c00001100000016210000c7dd000004
:1026cc00cd980000edbd000079350000120100002e
:1026dc000c0000000a000000001600001021000091
:1026ec0043860000daee00008cb80000ddbd00006f
:1026fc00271000001100000014720000dbdd000048
:10270c008bc90000ee9b000057230000110c000049
:10271c00000a0000000000001411000032650000e7
:10272c00b8ed0000be870000dcdd00005b1200008d
:10273c001100000016210000b5dd0000cd9800004e
:10274c00ecbe000079450000120100000a000000f8
:10275c000800000000160000102100005386000045
:10276c00dbee00007bc80000ddad0000151400009e
:10277c001100000014520000dadd00009cc80000bb
:10278c00ee9b000057240000110a00000008000016
:10279c00000000000e11000032750000b9ed0000c1
:1027ac00ae87000004dd0000025a00001811000082
:1027bc0002a5000004dd0000000e000089ec000002
:1027cc00ce79000045220000010800000006000040
:1027dc0000000000161000002153000097eb0000d1
:1027ec00ee7a0000c9dd0000ad14000018110000e5
:1027fc000014000041da0000dd9d0000b8ee00007e
:10280c00ac57000034120000080000000600000065
:10281c00000e00001132000075b90000eead000092
:10282c0097040000dd0200003a1c000011000000bb
:10283c0014a40000dcdd000089eb0000ce7a00005f
:10284c004512000001060000000600000000000018
:10285c001421000053970000ebde000079d9000032
:10286c00dd8d0000131c000011000000143100006d
:10287c00d8dd0000ada80000eeac0000572400002d
:10288c0011060000000400000000000014100000fd
:10289c0032640000b8ee00009d970000ddcd000012
:1028ac00382000001100000012830000dcdd000065
:1028bc008aea0000ce790000351200000600000004
:1028cc0004000000001400001032000085da000043
:1028dc00de790000dbdd00008c120000201100000e
:1028ec000014000021c80000ddbd0000a8ee0000af
:1028fc008b460000130100000400000004000000df
:10290c00001200001143000096eb0000adb800006f
:10291c00ddcd000027240000110000001272000021
:10292c00dcdd00009beb0000ad5700002301000034
:10293c0004000000040000000012000021530000fd
:10294c00a7ed00009bdc0000dd7c000012240000e1
:10295c001100000012210000c7dd0000ceca0000eb
:10296c00ce58000023010000040000000400000009
:10297c000010000021530000b7de0000cbde000089
:10298c00cd2700002611000000120000217200006b
:10299c00dcee0000cded0000692400000104000015
:1029ac0000040000000000001021000053d70000bc
:1029bc00cdec0000de7c000022260000110000009f
:1029cc001221000032c70000eede0000dd6c0000ba
:1029dc0024010000040000000400000000120000ac
:1029ec0021530000b7de0000ecce000037230000be
:1029fc0012240000110000001221000032740000ab
:102a0c00ecde0000ed5a0000240100000400000080
:102a1c0004000000001200001143000096ed0000bd
:102a2c00cd8a000057230000122400001100000082
:102a3c001222000033850000b9dd0000ce570000e3
:102a4c00230100000400000004000000001200003c
:102a5c001032000075d90000eedd00007c3400005f
:102a6c0022240000110000001222000043c60000c6
:102a7c00edee00008c460000120100000400000086
:102a8c0004000000001200001032000054a70000e7
:102a9c00ecee00007e340000222400001100000047
:102aac001032000054e70000eebd00006834000056
:102abc0012060000000400000000000020100000be
:102acc002143000086da0000ee8e00004523000052
:102adc0011d10000dd1d0000d1dd00001d1400002f
:102aec00110000001221000032540000e7ee00003b
:102afc009b57000023110000060000000600000098
:102b0c00001e00001132000064b90000ee9e0000af
:102b1c004523000011d10000dd1d0000d1dd0000b7
:102b2c001d1400001100000012210000326400008e
:102b3c00e8ce00007a35000012010000060000000b
:102b4c0006000000001e00001021000053a700002a
:102b5c00ed9e00004623000011d10000dd1d000099
:102b6c00d1dd00001d140000110000001021000038
:102b7c0032650000e9be0000682400001108000066
:102b8c0000080000000000001c100000429600002d
:102b9c00eb9e00004623000011d10000dd1d00005b
:102bac00d1dd00001d1400001100000010210000f8
:102bbc0042750000e9ad0000572300000108000039
:102bcc0000080000000000001c100000328500000e
:102bdc00eb9e000046230000112100002212000091
:102bec002122000012140000110000000e21000030
:102bfc0043750000ea9d0000461200000a00000028
:102c0c000a000000000c000031750000eaae000064
:102c1c005623000022110000000e0000214300008a
:102c2c0075ea00009c460000120a0000000a000031
:102c3c00000000001a31000075ea0000ae560000da
:102c4c0023110000d1dd00001dd10000dd1d0000ae
:102c5c000611000002c1000008dd00000012000097
:102c6c00cd1100002143000075ea00009c460000d5
:102c7c00120a0000000a0000000000001a310000d7
:102c8c0075ea0000ae56000023110000d1dd0000f3
:102c9c001dd10000dd1d00000611000002d1000056
:102cac000add000000100000112100004375000037
:102cbc00ea9c0000461200000a0000000a00000016
:102ccc00001a000031750000eaae00005623000027
:102cdc0011d10000dd1d0000d1dd00001d0600003b
:102cec0011020000d10a0000dd00000010110000ec
:102cfc002143000075ea00009c460000120a000007
:102d0c00000a0000000000001a31000075ea000003
:102d1c00ae56000023110000d1dd00002dd20000c2
:102d2c00dd1d00000611000002d100000add0000cc
:102d3c00001000001121000043750000ea9c000007
:102d4c00461200000a0000000a000000000c0000ff
:102d5c0031750000eaae000056230000141100008b
:102d6c0002d100000add000000100000112100005b
:102d7c0043750000ea9c0000461200000a000000a7
:102d8c000a000000000c000031750000eaae0000e3
:102d9c00562300001411000002d100000add0000cf
:102dac00001000001121000043750000ea9c000097
:102dbc00461200000a0000000a000000000c00008f
:102dcc0031750000eaae000056230000141100001b
:102ddc0002d100000add00000010000011210000eb
:102dec0043750000ea9c0000461200000a00000037
:102dfc000a000000000c000031750000eaae000073
:102e0c00562300001411000002d100000add00005e
:102e1c00001000001121000043750000ea9c000026
:102e2c00461200000a0000000a000000000c00001e
:102e3c0031750000eaae00005623000014110000aa
:102e4c0002d100000add000000100000112100007a
:102e5c0043750000ea9c0000461200000a000000c6
:102e6c000a000000000c000031750000eaae000002
:102e7c00562300001411000002d100000add0000ee
:102e8c00001000001121000043750000ea9c0000b6
:102e9c00461200000a0000000a000000000c0000ae
:102eac0031750000eaae000056230000141100003a
:102ebc0002d100000add000000100000112100000a
:102ecc0043750000ea9c0000461200000a00000056
:102edc000a000000000c000031750000eaae000092
:102eec00562300001411000002d100000add00007e
:102efc00001000001121000043750000ea9c000046
:102f0c00461200000a0000000a000000000c00003d
:102f1c0031750000eaae00005623000014110000c9
:102f2c0002d100000add0000001000001121000099
:102f3c0043750000ea9c0000461200000a000000e5
:102f4c000a000000000c000031750000daae000031
:102f5c00572300001411000002d100000add00000c
:102f6c00001000001121000043760000ea8c0000e4
:102f7c00361200000a0000000a000000000e0000db
:102f8c0021740000daae000057230000121200007a
:102f9c0011020000d10a0000dd0000001011000039
:102fac002143000086ea00008b350000120a000065
:102fbc00000a0000000000000e21000064d900008f
:102fcc00ae570000341200001211000002d10000b4
:102fdc000add0000001000001122000053860000e2
:102fec00eb8b0000351200000a0000000a00000004
:102ffc00000c000021640000c9be000088780000ad
:10300c00126600000004000036d200000add000049
:10301c00001000002276000087990000eb7a000077
:10302c00350100000a0000000a000000000e00003c
:10303c0021530000b8ce00009988000077100000e2
:10304c006600000004460000d30a0000dd0000000a
:10305c001033000077980000aaed000079340000ce
:10306c00010a0000000a0000000000000e21000010
:10307c0053a70000ed9a000099880000107700001b
:10308c000004000057d400000add0000001000000e
:10309c0044880000a9ba0000dd680000240100008b
:1030ac000a0000000a000000000e000010420000a0
:1030bc0096eb0000ab99000089100000880000001e
:1030cc0004680000e60a0000ee0000001066000034
:1030dc0098a90000cbae000057230000010a0000a5
:1030ec00000a0000000000000e1000003275000005
:1030fc00e9cd0000ab89000020880000000e000024
:10310c0099ba0000dc8d000046120000010a000094
:10311c00000a0000000000000e10000021640000f6
:10312c00a8ee0000decc000020bb0000000c00006c
:10313c00dced0000de680000351200000c00000021
:10314c000c000000000a00002143000076b90000ca
:10315c00ed240000ee0000000ace00008a560000ac
:10316c00231100000c0000000c000000000c0000fb
:10317c00113200005486000099ba000020bb0000f8
:10318c00000c0000aa890000673400001201000046
:10319c000c0000000c000000000c000010210000ce
:1031ac00435400007687000020880000000a0000cd
:1031bc007766000045230000110e0000000e000091
:1031cc00000000000811000022330000442200001f
:1031dc00550000000a4500004423000012010000c5
:1031ec000e0000001000000000060000112100007d
:1031fc0022240000330000000622000012110000ff
:10320c001000000012000000061100000221000056
:10321c001c22000002120000041100000201000038
:10322c001200000018000000021000001c11000029
:10323c0002010000180000005000000050000000c7
:10324c005000000017070000000000000000000004
:10325c000000000000000000000000000000000062
:10326c000000000000000000000000000000000052
:10327c000000000000000000000000000000000042
:10328c000000000000000000000000000000000032
:1034ec0000000000000000000000000000300000a0
:1034fc0003000000000000000000000000000000bd
:10350c0000000000000000000000000000000000af
:10351c00000000000000000000000000000000009f
:10352c00000000000000000000000000000000008f
:10353c0000000000000000000000000020770000e8
:10354c0077020000000000000000000000000000f6
:10355c00000000000000000000000000000000005f
:10356c00000000000000000000000000000000004f
:10357c00000000000000000000000000000000003f
:10358c000000000000000000000000008315000097
:10359c005138000000000000000000000000000096
:1035ac00000000000000000000000000000000000f
:1035bc0000000000000000000000000000000000ff
:1035cc0000000000000000000000000000000000ef
:1035dc0000000000000000000040000048620000f5
:1035ec002684000004000000000000000000000021
:1035fc0000000000000000000000000000000000bf
:10360c0000000000000000000000000000000000ae
:10361c00000000000000000000000000000000009e
:10362c0000000000000000000075000032d900000e
:10363c009d23000057000000000000000000000067
:10364c00000000000000000000000000000000006e
:10365c00000000000000000000000000000000005e
:10366c00000000000000000000000000000000004e
:10367c00000000000000000060270000a3dd000037
:10368c00dd3a00007206000000000000000000009f
:10369c00000000000000000000000000000000001e
:1036ac00000000000000000000000000000000000e
:1036bc0000000000000000000000000000000000fe
:1036cc00000000000010000077420000dadd00006e
:1036dc00ddad0000247700000100000000000000b8
:1036ec0000000000000000000000000000000000ce
:1036fc0000000000000000000000000000000000be
:10370c0000000000000000000000000000000000ad
:10371c00000000000071000027a40000ddbd0000c7
:10372c00dbdd00004a720000170000000000000002
:10373c00000000000000000000000000000000007d
:10374c00000000000000000000000000000000006d
:10375c00000000000000000000000000000000005d
:10376c00000000001067000052db0000dd5b000071
:10377c00b5dd0000bd250000760100000000000052
:10378c00000000000000000000000000000000002d
:10379c00000000000000000000000000000000001d
:1037ac00000000000000000000000000000000000d
:1037bc000000000081260000b5dd0000bd150000f2
:1037cc0051db0000dd5b000062180000000000000f
:1037dc0000000000000000000000000000000000dd
:1037ec0000000000000000000000000000000000cd
:1037fc0000000000000000000000000000000000bd
:10380c000020000059620000dddd00004a110000bc
:10381c0011a40000dddd0000269500000200000070
:10382c00000000000000000000000000000000008c
:10383c00000000000000000000000000000000007c
:10384c00000000000000000000000000000000006c
:10385c000092000024b70000dd9d00001311000051
:10386c0011310000d9dd00007b420000290000006e
:10387c00000000000000000000000000000000003c
:10388c00000000000000000000000000000000002c
:10389c00000000000000000000000000000000001c
:1038ac003049000072dd0000dd380000111100000d
:1038bc001111000083dd0000dd27000094030000df
:1038cc0000000000000000000000000000000000ec
:1038dc0000000000000000000000000000000000dc
:1038ec0000000000000000000000000000000000cc
:1038fc0084230000d8dd00008d120000111100009f
:10390c001111000021d80000dd8d000032480000ac
:10391c00000000000000000000000000000000009b
:10392c00000000000000000000000000000000008b
:10393c00000000000000000000000000005000002b
:10394c0038820000ddbd00002711000011110000bd
:10395c001111000011720000dbdd00002883000053
:10396c000500000000000000000000000000000046
:10397c00000000000000000000000000000000003b
:10398c0000000000000000000000000000760000b5
:10399c0032da0000dd7b0000121100001111000072
:1039ac001111000011210000b7dd0000ad23000053
:1039bc006700000000000000000000000000000094
:1039cc0000000000000000000000000000000000eb
:1039dc000000000000000000000000007127000043
:1039ec0093dd0000bd270000111100001111000033
:1039fc00111100001111000072db0000dd39000014
:103a0c007217000000000000000000000000000021
:103a1c00000000000000000000000000000000009a
:103a2c0000000000000000000010000077420000c1
:103a3c00dbdd00006b110000111100001111000002
:103a4c00111100001111000011b60000ddbd0000c5
:103a5c0024770000010000000000000000000000be
:103a6c00000000000000000000000000000000004a
:103a7c0000000000000000000071000026b50000ee
:103a8c00ddbd000015110000111100001111000026
:103a9c00111100001111000011510000dbdd0000bc
:103aac005b62000017000000000000000000000036
:103abc0000000000000000000000000000000000fa
:103acc0000000000000000001068000052db000045
:103adc00dd5b00001111000011110000111100003c
:103aec00111100001111000011110000b5dd0000d2
:103afc00bd25000086010000000000000000000051
:103b0c0000000000000000000000000000000000a9
:103b1c00000000000000000082250000b6dd00005f
:103b2c00ad14000011110000111100001111000062
:103b3c0011110000111100001111000041da0000f8
:103b4c00dd6b0000522800000000000000000000a7
:103b5c000000000000000000000000000000000059
:103b6c00000000000020000059620000dddd0000b4
:103b7c003a11000011110000111100001111000088
:103b8c0011110000111100001111000011a300000f
:103b9c00dddd0000269500000200000000000000a2
:103bac000000000000000000000000000000000009
:103bbc00000000000093000023d70000dd9d0000f2
:103bcc00131100001111000011110000111100005f
:103bdc001111000011110000111100001131000031
:103bec00d9dd00007d32000039000000000000002b
:103bfc0000000000000000000000000000000000b9
:103c0c00000000003049000072dd0000dd280000db
:103c1c001111000011110000111100001111000010
:103c2c001111000011110000111100001111000000
:103c3c0082dd0000dd27000094030000000000007e
:103c4c000000000000000000000000000000000068
:103c5c000000000084220000d9dd00007b1200006f
:103c6c0011110000111100001111000011110000c0
:103c7c0011110000111100001111000011110000b0
:103c8c0021b70000dd9d000022480000000000006c
:103c9c000000000000000000000000000000000018
:103cac000040000038830000ddbd0000271100003b
:103cbc001111000011110000111100001111000070
:103ccc001111000011110000111100001111000060
:103cdc0011720000dbdd00003883000004000000de
:103cec0000000000000000000000000000000000c8
:103cfc000084000032da0000dd7b000012110000ad
:103d0c00111100001111000011110000111100001f
:103d1c00111100001111000011110000111100000f
:103d2c0011210000b7dd0000ad23000048000000a9
:103d3c000000000000000000000000000000000077
:103d4c0020370000a3dd0000bd260000111100008b
:103d5c0011110000111100001111000011110000cf
:103d6c0011110000111100001111000011110000bf
:103d7c001111000062db0000dd3a0000730200004c
:103d8c000000000000000000000000000000000027
:103d9c0060160000d7dd00005b110000111100005f
:103dac00111100001111000011110000111100007f
:103dbc00111100001111000011110000111100006f
:103dcc001111000011b50000dd7d0000610600003e
:103ddc0000000000000000000000000000000000d7
:103dec0040270000b6ad00001511000011110000b5
:103dfc00111100001111000011110000111100002f
:103e0c00111100001111000011110000111100001e
:103e1c001111000011510000da6b00007204000057
:103e2c000000000000000000000000000000000086
:103e3c0000760000654600003411000011110000ee
:103e4c0011110000111100001111000011110000de
:103e5c0011110000111100001111000011110000ce
:103e6c0011110000115200006456000067000000a0
:103e7c000000000000000000000000000000000036
:103e8c0000300000979900004a1100001111000049
:103e9c00111100001111000011110000111100008e
:103eac00111100001111000011110000111100007e
:103ebc001111000011a2000098790000030000000d
:103ecc0000000000000000000000000000000000e6
:103edc00000000001011000047110000111100003b
:103eec00111100001111000011110000111100003e
:103efc00111100001111000011110000111100002e
:103f0c001111000011a200001101000000000000be
:103f1c000000000000000000000000000000000095
:103f2c00000000000000000047110000111100000b
:103f3c00d1dd00002dd20000dd1d000011110000ac
:103f4c0011110000111100001111000011110000dd
:103f5c001111000011a20000000000000000000080
:103f6c000000000000000000000000000000000045
:103f7c0000000000000000004711000011110000bb
:103f8c00d1dd00002dd20000dd1d0000111100005c
:103f9c00111100001111000011110000111100008d
:103fac001111000011a20000000000000000000030
:103fbc0000000000000000000000000000000000f5
:103fcc00000000000000000047110000111100006b
:103fdc00d1dd00002dd20000dd1d0000111100000c
:103fec00111100001111000011110000111100003d
:103ffc001111000011a200000000000000000000e0
:10400c0000000000000000000000000000000000a4
:10401c00000000000000000047110000111100001a
:10402c00d1dd00002dd20000dd1d000011110000bb
:10403c0011110000111100001111000011110000ec
:10404c001111000011a2000000000000000000008f
:10405c000000000000000000000000000000000054
:10406c0000000000000000004711000011110000ca
:10407c002122000012210000221200001111000068
:10408c00111100001111000011110000111100009c
:10409c001111000011a2000000000000000000003f
:1040ac000000000000000000000000000000000004
:1040bc00000000000000000047110000111100007a
:1040cc00111100001111000011110000111100005c
:1040dc00111100001111000011110000111100004c
:1040ec001111000011a200000000000000000000ef
:1040fc0000000000000000000000000000000000b4
:10410c000000000000000000471100001111000029
:10411c00d1dd00002dd20000dd1d000011110000ca
:10412c0011d10000dddd0000dddd0000dd1100003f
:10413c001111000011a2000000000000000000009e
:10414c000000000000000000000000000000000063
:10415c0000000000000000004711000011110000d9
:10416c00d1dd00002dd20000dd1d0000111100007a
:10417c0011d10000dddd0000dddd0000dd110000ef
:10418c001111000011a2000000000000000000004e
:10419c000000000000000000000000000000000013
:1041ac000000000000000000471100001111000089
:1041bc00d1dd00002dd20000dd1d0000111100002a
:1041cc0011d10000dddd0000dddd0000dd1100009f
:1041dc001111000011a200000000000000000000fe
:1041ec0000000000000000000000000000000000c3
:1041fc000000000000000000471100001111000039
:10420c00d1dd00002dd20000dd1d000011110000d9
:10421c0011d10000dddd0000dddd0000dd1100004e
:10422c001111000011a200000000000000000000ad
:10423c000000000000000000000000000000000072
:10424c0000000000000000004711000011110000e8
:10425c0011110000111100001111000011110000ca
:10426c0011d10000dddd0000dddd0000dd110000fe
:10427c001111000011a2000000000000000000005d
:10428c000000000000000000000000000000000022
:10429c000000000000000000471100001111000098
:1042ac00111100001111000011110000111100007a
:1042bc0011d10000dddd0000dddd0000dd110000ae
:1042cc001111000011a2000000000000000000000d
:1042dc0000000000000000000000000000000000d2
:1042ec000000000000000000471100001111000048
:1042fc00111100001111000011110000111100002a
:10430c0011d10000dddd0000dddd0000dd1100005d
:10431c001111000011a200000000000000000000bc
:10432c000000000000000000000000000000000081
:10433c0000000000000000004711000011110000f7
:10434c0011110000111100001111000011110000d9
:10435c0011d10000dddd0000dddd0000dd1100000d
:10436c001111000011a2000000000000000000006c
:10437c000000000000000000000000000000000031
:10438c0000000000000000004711000011110000a7
:10439c001111000011110000111100001111000089
:1043ac0011d10000dddd0000dddd0000dd110000bd
:1043bc001111000011a2000000000000000000001c
:1043cc0000000000000000000000000000000000e1
:1043dc000000000000000000471100001111000057
:1043ec001111000011110000111100001111000039
:1043fc0011d10000dddd0000dddd0000dd1100006d
:10440c001111000011a200000000000000000000cb
:10441c000000000000000000000000000000000090
:10442c000000000000000000471100001111000006
:10443c0011110000111100001111000011110000e8
:10444c0011d10000dddd0000dddd0000dd1100001c
:10445c001111000011a2000000000000000000007b
:10446c000000000000000000000000000000000040
:10447c0000000000000000004711000011110000b6
:10448c001111000011110000111100001111000098
:10449c0011d10000dddd0000dddd0000dd110000cc
:1044ac001111000011a2000000000000000000002b
:1044bc0000000000000000000000000000000000f0
:1044cc000000000000000000471100001111000066
:1044dc001111000011110000111100001111000048
:1044ec0011d10000dddd0000dddd0000dd1100007c
:1044fc001111000011a200000000000000000000db
:10450c00000000000000000000000000000000009f
:10451c000000000000000000471100001111000015
:10452c0011110000111100001111000011110000f7
:10453c0011d10000dddd0000dddd0000dd1100002b
:10454c001111000011a2000000000000000000008a
:10455c00000000000000000000000000000000004f
:10456c0000000000000000004711000011110000c5
:10457c0011110000111100001111000011110000a7
:10458c0011d10000dddd0000dddd0000dd110000db
:10459c001111000011a2000000000000000000003a
:1045ac0000000000000000000000000000000000ff
:1045bc000000000000000000471100001111000075
:1045cc001111000011110000111100001111000057
:1045dc0011d10000dddd0000dddd0000dd1100008b
:1045ec001111000011a200000000000000000000ea
:1045fc0000000000000000000000000000000000af
:10460c00000000000000000047410000555500006c
:10461c0055550000555500005555000055550000e6
:10462c0025d10000dddd0000dddd0000dd11000026
:10463c005555000015a2000000000000000000000d
:10464c00000000000000000000000000000000005e
:10465c00000000000000000057310000555500001c
:10466c005555000055550000555500005555000096
:10467c0025d10000dddd0000dddd0000dd110000d6
:10468c0055550000148300000000000000000000dd
:10469c00000000000000000000000000000000000e
:1046ac0000000000000000007421000055550000bf
:1046bc005555000055550000555500005555000046
:1046cc0025d10000dddd0000dddd0000dd11000086
:1046dc0055550000126600000000000000000000ac
:1046ec0000000000000000000000000000000000be
:1046fc000000000000000000a01100003244000087
:10470c00444400004444000044440000444400007d
:10471c0024d10000dddd0000dddd0000dd21000026
:10472c0044230000111a00000000000000000000eb
:10473c00000000000000000000000000000000006d
:10474c0000000000000000007015000011110000b6
:10475c0011110000111100001111000011110000c5
:10476c0011210000121100001111000011110000a4
:10477c0011110000510700000000000000000000b3
:10478c00000000000000000000000000000000001d
:10479c00000000000000000000b7000068440000aa
:1047ac0044440000444400004444000044440000dd
:1047bc0044440000444400004444000044440000cd
:1047cc00447500007b0000000000000000000000a9
:1047dc0000000000000000000000000000000000cd
:1047ec0000000000000000000000000063770000e3
:1047fc0077770000777700007777000077770000f5
:10480c0077770000777700007777000077770000e4
:10481c0077360000000000000000000000000000df
:10482c00000000000000000000000000000000007c
:10483c00000000000000000000000000000000006c
:10484c00000000000000000000000000000000005c
:10485c00000000000000000000000000000000004c
:104afc00000000000000000017070000001000007c
:104b0c002222000022220000222200002222000089
:104b1c0012210000122200002112000022220000ab
:104b2c002222000012220000122200002222000089
:104b3c00111100002122000022220000222100007d
:104b4c002222000022220000222200002222000049
:104b5c001221000032330000332200002211000029
:104b6c0001000000214300004426000063540000b3
:104b7c004401000000b40000ddbd0000bbbc00001f
:104b8c00bd88000098a90000cbbb00007a8800000b
:104b9c0033020000001000000000000000000000c4
:104bac0000000000000000000000000010010000e8
:104bbc000001000000000000101100002222000083
:104bcc0022220000222200002222000022220000c9
:104bdc0022120000221200001222000022220000e9
:104bec0012220000222200002212000011210000db
:104bfc002222000022220000222200003232000079
:104c0c002222000022220000222200002211000099
:104c1c003233000033220000215300001301000046
:104c2c0020530000442300005612000064010000d1
:104c3c0031ca0000cccb0000dccb0000ab890000fb
:104c4c0078a90000abab00009b8800003612000076
:104c5c000000000000000000000000000000000048
:104c6c000000000000000000000000000111000026
:104c7c00110100001121000032230000222200004b
:104c8c0033220000222200002222000022220000f7
:104c9c00121100001221000022220000222200002a
:104cac0022220000221200002122000022220000f9
:104cbc0022220000222200002232000022220000c8
:104ccc0022220000222200002222000033330000a6
:104cdc002222000031650000341200002133000054
:104cec0034310000352200006412000072dc000038
:104cfc00dccc0000cbbc0000bdaa000089b90000d0
:104d0c00aa8a000099870000246500001410000096
:104d1c001100000011000000000000000000000065
:104d2c000000000010000000111100000100000044
:104d3c001121000033330000333300003322000014
:104d4c00322200002222000022210000111100005a
:104d5c001121000022220000222200002222000049
:104d6c002212000022220000322200002222000027
:104d7c0032330000333300002222000022220000d4
:104d8c0022330000223200003433000023220000c2
:104d9c00317600004623000021330000334300002d
:104dac003465000038320000c7dd0000cdbb0000c8
:104dbc00cccc0000cbbb0000baaa00009898000035
:104dcc00b855000065bb00008a6600003511000074
:104ddc0000000000000000000000000000000000c7
:104dec000000000000100000000000001121000075
:104dfc002232000033330000332200002222000054
:104e0c0022330000231200001111000011110000c8
:104e1c002122000032230000222200002222000066
:104e2c002222000033330000232300003333000020
:104e3c003333000033230000221200001122000043
:104e4c00223200004423000022220000528800007d
:104e5c005712000022330000434600004374000048
:104e6c005a610000dccd0000bbbc0000ccbc0000d3
:104e7c00bcba0000baba00009a990000984400002d
:104e8c0086ca0000cbbc0000891400001001000091
:104e9c000000000000000000010000000000000005
:104eac000000000000000000112100002222000080
:104ebc003333000033230000432300002232000070
:104ecc0023120000111100002222000022220000f7
:104edc0022220000322200002223000022220000a5
:104eec003222000032330000333300003333000031
:104efc003333000033220000112100002132000066
:104f0c0023220000223100007588000048010000b7
:104f1c00213300007337000074a800005ba300006d
:104f2c00cdcc0000cccc0000ccbb0000cbcb000027
:104f3c00aabb00009a8a000069330000a5bb0000e0
:104f4c00bb9b0000ba3800002222000012100000a7
:104f5c000000000001000000001100000100000032
:104f6c000000000011210000223200003333000049
:104f7c0033230000333300003222000012110000f2
:104f8c001121000022220000222200002332000006
:104f9c003333000033320000223300003222000091
:104fac003222000022320000333300002333000091
:104fbc0032220000222200002232000023220000b4
:104fcc0022630000889900002700000020330000b5
:104fdc0054220000959b000015d90000bbcb0000ab
:104fec00dccd0000ccab0000a8db0000acbb0000ab
:104ffc009b7a000039420000b89b0000cb8b00006c
:10500c00da4b00006555000024110000011000006f
:10501c00011100001121000011010000000000002e
:10502c001121000011320000222200003322000066
:10503c002222000023220000111100002111000087
:10504c001122000022220000322300002233000033
:10505c003322000023220000222200002222000022
:10506c002222000022220000222200002122000025
:10507c0011110000224200002312000041860000a2
:10508c00a979000003000000103300003431000047
:10509c007426000061bd0000b9cc0000bccc00003f
:1050ac00cb8b000087cb0000aba900007a69000015
:1050bc004793000089a90000bbbc0000a96a00004e
:1050cc0097790000455300001321000012110000d5
:1050dc00111100001101000000000000221100005d
:1050ec0011110000112100002222000022220000d8
:1050fc0011110000111100002212000011210000fa
:10510c002222000022220000222200002222000083
:10511c003332000022220000222200002222000052
:10512c002222000022220000221200001111000095
:10513c0011420000342200007498000099370000de
:10514c000000000000420000666600008926000096
:10515c00b68b0000bacc0000bbcc0000bc7a0000bf
:10516c0078b90000ba9900007a98000044a40000b5
:10517c009aa80000aac900008bb90000a98a0000f7
:10518c005655000014110000110000000011000021
:10519c00110000000000000022220000111100008c
:1051ac001111000021110000222200001111000039
:1051bc0011210000222200002222000022220000e5
:1051cc0022220000222200002222000023220000c2
:1051dc0022220000112100002222000022220000c5
:1051ec0022220000221100001112000001420000d6
:1051fc0033420000869900005802000000000000b5
:10520c000052000077750000ab660000dbba0000ae
:10521c00dccd0000cccd0000bc7b000088aa0000d7
:10522c00989a0000a976000034950000aa99000015
:10523c00a9ba0000cb970000ac8a00006668000099
:10524c00131100002100000000000000000000000d
:10525c0000000000221200001111000021110000ba
:10526c0011000000111100001111000011110000bb
:10527c000111000022320000332300003322000011
:10528c002232000022220000221200001111000024
:10529c001111000022220000222200002222000014
:1052ac0022110000110000000142000033630000d5
:1052bc008899000025000000000000001075000017
:1052cc005696000079950000ddcc0000ddcc000086
:1052dc00cccc0000bbaa000099b90000aa9a00002f
:1052ec009966000014a7000099880000b9790000a5
:1052fc00ba790000cb790000967a00000300000018
:10530c00110100000000000000000000000000007f
:10531c0022120000112200001211000011100000d6
:10532c00110000000000000010110000111100001d
:10533c00212200003333000033320000222200000f
:10534c0022220000121100001111000011110000a6
:10535c002122000022110000121100001111000086
:10536c001111000010430000337500007747000056
:10537c0012000000000000004155000075a900005b
:10538c0097db0000ddbd0000cccc0000ccba0000e7
:10539c00cbac0000bbaa0000898900007857000044
:1053ac00139600009988000087990000cbb8000084
:1053bc00a8690000974700000200000000000000f0
:1053cc00000000000000000000000000222200008d
:1053dc002122000012210000111100001111000007
:1053ec0011110000112200002222000022220000d4
:1053fc0022220000222200002222000011110000b3
:10540c0011110000111100001121000012110000f7
:10541c0012110000111100001111000011110000f7
:10542c00114300005455000045130000110000000a
:10543c00000000004343000065aa000076dd000078
:10544c00bccc0000bc9b0000caba0000bbcc000066
:10545c00aabb0000ab8800006a4600001295000051
:10546c0066980000b88a00008997000078650000f3
:10547c008924000000000000000000000011000062
:10548c000011000001000000222200002222000076
:10549c002221000022220000221200001111000023
:1054ac0021220000322300002212000022110000f1
:1054bc001111000022110000111100001111000047
:1054cc001111000011110000111100000011000059
:1054dc001111000011110000010000002154000006
:1054ec0055340000131100001100000000000000f2
:1054fc005365000077db0000d9dd0000bccd000057
:10550c00bb89000098ab0000dd9a0000ba9c00003b
:10551c00995700006534000011760000ac43000080
:10552c007a67000098b600009c9600008825000061
:10553c000000000000000000215400004512000093
:10554c001101000011220000222100002222000083
:10555c00222200002212000022220000122200004f
:10556c002232000023220000121100001111000051
:10557c0011110000111100001111000011010000a7
:10558c0001000000000100001011000011110000ca
:10559c0000110000102100003254000034230000e0
:1055ac0011110000110000000020000054660000e2
:1055bc0055b60000dddd0000dcbc0000ab8800004f
:1055cc0089ba00009aca00007bd90000899a0000b1
:1055dc006414000011530000758a000095a70000a8
:1055ec00789c000046b700005a1200000000000032
:1055fc000010000032640000892500003202000017
:10560c0010220000221100002222000012110000c2
:10561c0011110000111100001121000022220000c4
:10562c0022220000222200001111000011110000a2
:10563c0011210000121100001111000011110000c5
:10564c0011110000111100001111000011110000c6
:10565c00212200002243000033220000121100001e
:10566c0011000000002000006656000075da0000f2
:10567c00ddcc0000bdcc0000bc8a000088b8000066
:10568c009bb90000ab9a000079760000581400001a
:10569c0001a6000047670000355300004684000057
:1056ac005796000046120000000000000031000078
:1056bc005465000055550000350300000021000022
:1056cc001112000022220000111100001211000022
:1056dc001111000011100000112100002222000005
:1056ec0022220000221200001111000011110000f2
:1056fc001111000012110000111100001111000015
:10570c0011110000111100001121000022220000d3
:10571c00323300002322000012110000110000009f
:10572c00004000006733000096dc0000cccc000089
:10573c00bdcb0000dcac000088b80000bca90000a8
:10574c0099a900007a750000391200000050000081
:10575c005765000034540000456400004388000085
:10576c003612000000000000204300007698000074
:10577c00677700007607000000110000112200007e
:10578c00222200002222000022220000221100000e
:10579c001111000011110000112100002222000043
:1057ac002212000011220000110000001111000053
:1057bc001111000011110000111100001111000055
:1057cc0011110000112100002221000032340000d0
:1057dc0022320000121100001100000000620000d3
:1057ec0067550000b7bd0000a9dd0000ccbd00006e
:1057fc00cbcc0000abb90000ab980000b97800002e
:10580c00884600004501000000300000766700006b
:10581c0037320000221400007368000013020000ed
:10582c00001000004266000076a90000999a000062
:10583c00970b000000210000222200002222000011
:10584c00323300002222000022220000222100001c
:10585c001111000011210000112100002222000072
:10586c0011110000111100001111000011010000b4
:10587c0010110000111100001000000000000000c9
:10588c00001100001211000031340000223300001e
:10589c001211000011000000005400006677000097
:1058ac00c99c0000a9dc0000dccd0000bccc0000d1
:1058bc00cccb0000baa90000a87a00009725000004
:1058cc004200000000100000525700004533000059
:1058dc00111000008538000021010000003100008b
:1058ec005497000099780000a979000097090000ee
:1058fc00002200002222000022320000333300007c
:10590c003333000033220000222200001211000069
:10591c0022220000121100001121000011010000d0
:10592c001111000011000000000000000000000038
:10593c00000000000000000000000000011000004a
:10594c00121100004134000032330000111100002c
:10595c00010000002055000076990000dcaa000030
:10596c00bbdd0000cccc0000cccc0000ccbb0000dc
:10597c00aaab000079a900007638000022010000d3
:10598c0000000000324400006425000001100000fb
:10599c0087260000210000001032000065870000ff
:1059ac00a98900009968000066050000002200002b
:1059bc00111100002112000011110000223300000f
:1059cc00232200002211000011110000111100000f
:1059dc002222000012210000110100001011000011
:1059ec000110000010100000011100000000000068
:1059fc000110000011110000111100002311000012
:105a0c0042340000222300001211000001000000ab
:105a1c004078000075ca0000ddcd0000dccc000031
:105a2c00ddcc0000bbdc0000cccc0000bcb900001d
:105a3c00798600005757000012000000000000009b
:105a4c0021320000433700001043000067130000b0
:105a5c0022000000104200007667000075a90000cb
:105a6c00bb9b000066080000102200002112000001
:105a7c002212000011110000111100001111000080
:105a8c00211100002222000012110000222200002d
:105a9c002211000011210000111100001111000051
:105aac001111000011110000111100002122000041
:105abc0022120000111100003222000053340000a9
:105acc00222200001211000011000000714700009a
:105adc0086db0000ddbc0000bdcc0000dccd00008e
:105aec00cbdd0000acbb0000bab800007b97000017
:105afc004874000013000000000000002222000087
:105b0c003255000042750000241200001200000003
:105b1c00104200006599000099aa0000aa8c0000b0
:105b2c006506000010220000222200002222000044
:105b3c00222200002212000011110000112100008d
:105b4c002222000022220000232200002212000048
:105b5c00212200002211000011210000112100005f
:105b6c00111100001111000011210000222200006f
:105b7c0012110000212300004434000033220000e5
:105b8c00021000000100000073650000a8dc00009a
:105b9c00cdcc0000bcab0000aacb0000cccc0000ec
:105bac00bbbb0000caa90000897800007853000034
:105bbc0012110000000000005312000011450000fb
:105bcc00525400001311000000000000205300008c
:105bdc0085ba0000bb8a0000998b00007707000093
:105bec0010220000122100002222000022220000bc
:105bfc002222000011220000222200003322000089
:105c0c0022220000222200001211000011110000bb
:105c1c0022120000111100001111000011110000de
:105c2c0011110000101100001111000011110000e1
:105c3c002243000045340000333200000210000003
:105c4c000100000064a50000cadd0000ddcc0000ee
:105c5c00bb99000099a90000cdcb0000ccaa000094
:105c6c00bb9900007a560000754600001211000026
:105c7c0001100000642400002123000031230000e7
:105c8c00110100000011000041870000a7890000ed
:105c9c008888000099790000a909000010220000f2
:105cac00121100001111000011110000211100004f
:105cbc0011210000222300003333000023220000b6
:105ccc00121100001111000011110000111100003f
:105cdc001111000011010000101100001110000042
:105cec0010110000111100001111000011520000e0
:105cfc005534000033320000131100001110000065
:105d0c0054770000dddd0000ddcc0000dcab0000d2
:105d1c00a9990000cbac0000bbab0000ab9b000012
:105d2c008977000064590000121100002221000044
:105d3c006645000022120000121100001101000043
:105d4c00001100005198000088880000897500003f
:105d5c0088460000760600001022000012010000a8
:105d6c0010110000111100001111000011110000a0
:105d7c002122000022220000322200002212000008
:105d8c00111100001111000011110000111100007f
:105d9c00111100001111000011110000112100005f
:105dac0011110000111100001153000055350000b5
:105dbc0034220000121100001120000066c5000002
:105dcc00ddcc0000ccdd0000cddd0000bd98000076
:105ddc00b9ad0000caad0000baca0000ab68000043
:105dec0066560000122100005322000046350000c8
:105dfc0021220000222200001200000000100000ee
:105e0c0083ba0000bbaa00007a8600007756000017
:105e1c007707000010110000211100001111000083
:105e2c00111100002111000021120000212200009c
:105e3c002222000022230000222200002112000056
:105e4c0012110000121100001111000011110000bc
:105e5c002122000022220000222200002222000027
:105e6c00222200002255000055550000251100008b
:105e7c00211100000172000075da0000bc9a0000cc
:105e8c00dbcd0000cdcc0000cdab0000cadc0000a7
:105e9c00acdb00008d8b0000cd9c00007875000001
:105eac0045680000552100005346000012210000f7
:105ebc00221200001111000000100000b6bb0000ff
:105ecc00aa79000068970000676500008808000048
:105edc00101100001121000012110000111100001e
:105eec0011110000111100002212000022320000da
:105efc003323000022220000222200001122000085
:105f0c0012220000221100002112000022110000b8
:105f1c002222000022220000223200003322000044
:105f2c0032440000554400004412000011110000de
:105f3c0010560000b6bd000099aa0000dcdd000080
:105f4c00dccc0000cdcd0000dcbc0000cca90000f6
:105f5c00db7c000094cc0000a8780000db9b0000e8
:105f6c006c54000056560000011100001222000073
:105f7c00110000000040000089770000a88a000092
:105f8c0087a900006a540000760700002111000068
