:020000040000fa
:080000000002040000000000f2
:020000040000fa
:04000800b804000038
:020000040000fa
:04000c00b804000034
:020000040000fa
:04001000b804000030
:020000040000fa
:04001400b80400002c
:020000040000fa
:04001800b804000028
:020000040000fa
:04001c00b804000024
:020000040000fa
:04002000b804000020
:020000040000fa
:04002400b80400001c
:020000040000fa
:04002800b804000018
:020000040000fa
:04002c00b804000014
:020000040000fa
:04003000b804000010
:020000040000fa
:04003400780300004d
:020000040000fa
:04003800b804000008
:020000040000fa
:04003c00b804000004
:020000040000fa
:04004000b804000000
:020000040000fa
:040044003404000080
:020000040000fa
:04004800760400003a
:020000040000fa
:04004c00b8040000f4
:020000040000fa
:04005000b8040000f0
:020000040000fa
:04005400180300008d
:020000040000fa
:04005800fa020000a8
:020000040000fa
:04005c00b8040000e4
:020000040000fa
:04006000b8040000e0
:020000040000fa
:04006400b8040000dc
:020000040000fa
:04006800b8040000d8
:020000040000fa
:04006c00b8040000d4
:020000040000fa
:04007000b8040000d0
:020000040000fa
:04007400b8040000cc
:020000040000fa
:04007800b8040000c8
:020000040000fa
:04007c00b8040000c4
:020000040000fa
:04008000b8040000c0
:020000040000fa
:04008400b8040000bc
:020000040000fa
:04008800b8040000b8
:020000040000fa
:04008c00b8040000b4
:020000040000fa
:04009000b8040000b0
:020000040000fa
:04009400b8040000ac
:020000040000fa
:04009800b8040000a8
:020000040000fa
:04009c00b8040000a4
:020000040000fa
:0400a000b8040000a0
:020000040000fa
:0400a400b80400009c
:020000040000fa
:0400a800b804000098
:020000040000fa
:0400ac00b804000094
:020000040000fa
:0400b000b804000090
:020000040000fa
:0400b400b80400008c
:020000040000fa
:0400b800b804000088
:020000040000fa
:0400bc00b804000084
:020000040000fa
:0400c000b804000080
:020000040000fa
:0400c400b80400007c
:020000040000fa
:0400c800b804000078
:020000040000fa
:0400cc00b804000074
:020000040000fa
:0400d000b804000070
:020000040000fa
:0400d400b80400006c
:020000040000fa
:0400d800b804000068
:020000040000fa
:0400dc00b804000064
:020000040000fa
:0400e000b804000060
:020000040000fa
:0400e400b80400005c
:020000040000fa
:0400e800b804000058
:020000040000fa
:0400ec00b804000054
:020000040000fa
:0400f000b804000050
:020000040000fa
:0400f400b80400004c
:020000040000fa
:0400f800b804000048
:020000040000fa
:0400fc00b804000044
:020000040000fa
:04010000b80400003f
:020000040000fa
:04010400b80400003b
:020000040000fa
:04010800b804000037
:020000040000fa
:04010c00b804000033
:020000040000fa
:04011000b80400002f
:020000040000fa
:04011400b80400002b
:020000040000fa
:04011800b804000027
:020000040000fa
:04011c00b804000023
:020000040000fa
:04012000b80400001f
:020000040000fa
:04012400b80400001b
:020000040000fa
:04012800b804000017
:020000040000fa
:04012c00b804000013
:020000040000fa
:04013000b80400000f
:020000040000fa
:04013400b80400000b
:020000040000fa
:04013800b804000007
:020000040000fa
:04013c00b804000003
:020000040000fa
:04014000b8040000ff
:020000040000fa
:04014400b8040000fb
:020000040000fa
:04014800b8040000f7
:020000040000fa
:04014c00b8040000f3
:020000040000fa
:04015000b8040000ef
:020000040000fa
:04015400b8040000eb
:020000040000fa
:04015800b8040000e7
:020000040000fa
:04015c00b8040000e3
:020000040000fa
:04016000b8040000df
:020000040000fa
:04016400b8040000db
:020000040000fa
:04016800b8040000d7
:020000040000fa
:04016c00b8040000d3
:020000040000fa
:04017000b8040000cf
:020000040000fa
:04017400b8040000cb
:020000040000fa
:04017800b8040000c7
:020000040000fa
:04017c00b8040000c3
:020000040000fa
:04018000b8040000bf
:020000040000fa
:04018400b8040000bb
:020000040000fa
:04018800b8040000b7
:020000040000fa
:04018c00b8040000b3
:020000040000fa
:04019000b8040000af
:020000040000fa
:04019400b8040000ab
:020000040000fa
:04019800b8040000a7
:020000040000fa
:04019c00b8040000a3
:020000040000fa
:0401a000b80400009f
:020000040000fa
:0401a400b80400009b
:020000040000fa
:0401a800b804000097
:020000040000fa
:0401ac00b804000093
:020000040000fa
:0401b000b80400008f
:020000040000fa
:0401b400b80400008b
:020000040000fa
:0401b800b804000087
:020000040000fa
:0401bc00b804000083
:020000040000fa
:0401c000b80400007f
:020000040000fa
:0401c400b80400007b
:020000040000fa
:0401c800b804000077
:020000040000fa
:0401cc00b804000073
:020000040000fa
:0401d000b80400006f
:020000040000fa
:0401d400b80400006b
:020000040000fa
:0401d800b804000067
:020000040000fa
:0401dc00b804000063
:020000040000fa
:0401e000b80400005f
:020000040000fa
:0401e400b80400005b
:020000040000fa
:0401e800b804000057
:020000040000fa
:0401ec00b804000053
:020000040000fa
:0401f000b80400004f
:020000040000fa
:0401f400b80400004b
:020000040000fa
:0401f800b804000047
:020000040000fa
:0401fc00b804000043
:020000040000fa
:04020000b80400003e
:020000040000fa
:04020400b80400003a
:020000040000fa
:04020800b804000036
:020000040000fa
:04020c00b804000032
:020000040000fa
:04021000b80400002e
:020000040000fa
:04021400b80400002a
:020000040000fa
:04021800b804000026
:020000040000fa
:04021c00b804000022
:020000040000fa
:04022000b80400001e
:020000040000fa
:04022400b80400001a
:020000040000fa
:04022800b804000016
:020000040000fa
:04022c00b804000012
:020000040000fa
:04023000b80400000e
:020000040000fa
:04023400b80400000a
:020000040000fa
:04023800b804000006
:020000040000fa
:04023c00b804000002
:020000040000fa
:04024000b8040000fe
:020000040000fa
:04024400b8040000fa
:020000040000fa
:04024800b8040000f6
:020000040000fa
:04024c00b8040000f2
:020000040000fa
:04025000b8040000ee
:020000040000fa
:04025400b8040000ea
:020000040000fa
:04025800b8040000e6
:020000040000fa
:04025c00b8040000e2
:020000040000fa
:04026000b8040000de
:020000040000fa
:04026400b8040000da
:020000040000fa
:04026800b8040000d6
:020000040000fa
:04026c00b8040000d2
:020000040000fa
:04027000b8040000ce
:020000040000fa
:04027400b8040000ca
:020000040000fa
:04027800b8040000c6
:020000040000fa
:04027c00b8040000c2
:020000040000fa
:04028000b8040000be
:020000040000fa
:100400002f7621000eff27000e018800000000005b
:10041000000020000000e000020032000001200087
:100420002002880014000700e10107000000e0003e
:1004300003003a00c0a321000100200002003700a1
:100440000000200001002000810f70000100320038
:100450000f000700000020000000e0000200320052
:1004600000000200000000008e19020000000000e1
:100470000040da000000fe00a00020000000e000c4
:1004800002003200002020009001880000000600d9
:10049000a1028800800478000000eb001f003700f4
:1004a000e284440054a0b4009905ba00e2844400f8
:1004b00054a0b4009906ba00e284440054a0b400e9
:1004c0000006eb00476fde00fd07b200ae018800ba
:1004d000636ce10003003a000ad801000000eb0061
:1004e0000e003700606ce10008003a00004deb00a0
:1004f0000a05e800020039003420ec000af0a000f0
:100500008b05e900f9ff3e00040037006168e10057
:10051000010032000086eb000b00070019c7ba008b
:100520000e04e0001905ba0003003a000a00e000da
:10053000dbff3a0000000600fe07b200ae028800b2
:100540008a047800f5ff37000cd0a300e20f4d00bd
:100550001c00390089027800354dba000a05e80010
:10056000020039003420ec000af0a0008b05e900fd
:100570000f003200254dba000a05e80002003900dc
:100580003420ec000af0a0008b05e90008003200de
:100590000c00e0000600320015cdba000a05e800a4
:1005a000020039003420ec000af0a0008b05e900bd
:1005b0008984e80054a0b4000b00e000e2ff3a0098
:1005c000000006009902ba00055d78008b05e9007d
:1005d000f7ff3200c82ade00055d78008b05e900d0
:1005e000f3ff32000c00e000f1ff320019ddba0029
:1005f000eeff37003200f8003400f800881f780062
:1006000018002000a8018800082020009801880018
:10061000000000004f0478000000fa000188a900e3
:100620000080fa003400f9003200f90000400600b2
:10063000809fbe00821f78003200f8003400f8006e
:1006400010002000a00188000020200090018800f8
:10065000000000000000fa000168a900006e2100ff
:10066000104078000004e00004003a00e1b6800089
:10067000f0b68000808f500014003200e0b6800099
:10068000311180006300400000014000c06d210076
:100690000000410001087800e0b680000000e8009a
:1006a000e0b68800e1b6800000042000808f500092
:1006b00002003a000000eb00e0b68800006e210066
:1006c0008040eb000148780003003700106e2100e5
:1006d00011c0b300014878000080fa003400f9002e
:1006e0003200f9004f0178004f00be0000400600c4
:1006f0003600f800809fbe00829fbe00849fbe002f
:10070000869fbe00889fbe008a9fbe003200f80010
:100710003400f80010002000a00188000020200014
:1007200090018800000000000600fa000068a9009f
:1007300003d0bf000004a2000004e0000300320068
:1007400010c0b30002f0b7003c0037000180800009
:1007500050102000808f500003003e0010c0b300f6
:1007600002f0b70035003700008080005010b10063
:10077000008088000180800040102000808f5000a1
:100780002d003e0000808000e60f500005003e0076
:100790008000200010079800f0fd2f00000f780067
:1007a0000d00370001808000f0032000808f500092
:1007b00005003e000004200010079800f0fe2f0006
:1007c000000f780004003700001020001007980088
:1007d0000080eb00000f7800008080008000eb00bc
:1007e000cc0207006022b80006002400f70e2400a7
:1007f000270307000205be000004be001e00900093
:100800008000eb00c30207000203be000002be002e
:100810000800be000a01be0051010700790207006e
:100820002007980090fb2f001e006000ae00900093
:100830008f00070001003700000000000080fa0070
:100840003400f9003200f9004f05be004f04be002d
:100850004f03be004f02be004f01be004f00be005e
:100860003600f900004006003600f800809fbe0008
:10087000829fbe00849fbe00869fbe003200f800ab
:100880003400f80010002000a001880000202000a3
:1008900090018800000000000000fa003080800015
:1008a0000000e800308088003180800020808000d7
:1008b000808f500003003a0040808000000001005b
:1008c0000630ef0000e8a9000080fa003400f900cb
:1008d0003200f9004f03be004f02be004f01be00c0
:1008e0004f00be003600f900004006003600f80058
:1008f000809fbe00829fbe00849fbe00869fbe0078
:100900003200f8003400f80010002000a001880038
:100910000020200090018800000000000000fa0084
:10092000608080000000e8006080880061808000b6
:1009300050808000808f500003003a00708080005b
:10094000000001000c30ef000108a9000080fa004f
:100950003400f9003200f9004f03be004f02be0020
:100960004f01be004f00be003600f90000400600f7
:100970000040da000000fe002068a90005e1a9009f
:100980000068a9000000060020e8a90011e1a90004
:1009900000e8a900000006002108a90013e1a90051
:1009a0000108a900000006000068a900e700600037
:1009b000f2ff2800cc08dd00034280000301610043
:1009c000680060000281700071ff2f000242880001
:1009d0000241800082806000810070000141880037
:1009e0000000060000e8a900e7006000f2ff280010
:1009f000cc08dd0013428000030161006800600044
:100a0000028170004300de00124288006100600035
:100a1000f1f72f004700dd00024180008280600076
:100a20008100700001418800000006000108a90053
:100a3000e700600082ff2f00680060002342800012
:100a4000030161004300de0002817000610060006c
:100a5000224288004800dd00f1ef2f0002418000b3
:100a60008280600081007000014188000000060063
:100a70000021ef001108880020088800000006000f
:100a80000621ef0061088800800888001061a90035
:100a9000000006000a21ef00710888009008880015
:100aa000000006001421ef001821ef00d208880092
:100ab000e3088800f00888001e61a8000000060016
:100ac000a2088000b00880008001eb008000eb00ed
:100ad000c000dd0000002000020070008380700074
:100ae00000000600000888000000060030088800aa
:100af000000006005008880000000600b1088800c9
:100b0000a00888000000060021e2a9002168a900d1
:100b10002188a9000168a9000188a9000000060039
:100b20000168a900e70060000188a900cc08dd0089
:100b300000017800f3ff28000207b2002442800081
:100b4000848161004411de0083817000e800600050
:100b500023428800c308de0083ff2f00e18060008d
:100b60003442800084816100cb08dd008301710084
:100b70000008b20033428800f27f2f004700de00f9
:100b80000341800003016100610060000281700088
:100b90004c00dd0002418800f1ff2e00044180007e
:100ba0008480600081007000014188000000060020
:100bb0000000050003f0a200889fbe008a9fbe00cf
:100bc0008c1f78001a020700210233006450e100f4
:100bd0004f0032006420e1005200320003826c00ba
:100be00007003b000905d0000306d000820f540027
:100bf0000c065d0002003900020032008901780015
:100c0000030678008582550004003d000003fd00c6
:100c10008103fd008502ea008b854200840f72008b
:100c200002003b0060001000e08018006011b80076
:100c30000005eb007a28e1000a0039000600780080
:100c4000c75ddd00f707b200878075002d00370013
:100c5000828171000a017800610560008180d10005
:100c60000080d3008502e900f9ff3b000604400044
:100c70008784480002003b0060041400e0841c00ec
:100c80000988a300070032008a8171008281710007
:100c9000610164008904d1000884d3008b05e80059
:100ca000170037000978a30013003a000b00e0009a
:100cb000130034008b05e9000804440089844c00cb
:100cc0000a4474000978a3000d003a000b00e0000c
:100cd000070034008b05e9000804440089844c00b7
:100ce00001003a000b0020000978a300f7ff320052
:100cf0000001eb0002003700828171000a017800d8
:100d0000900107000cf0a70001f0a000d901370006
:100d10006420e10002003a00838f6c00d9013300a7
:100d20000801be000200be00d20137000001eb0046
:100d30000b010700040032000200200003f823002a
:100d400001f0a6009cff0700000006008f1fd100e5
:100d5000250307008f87e9000000e000000006007f
:100d60002800fa00889fbe008a9fbe008c9fbe00ac
:100d700003866b00c20007006400e10044003200fb
:100d80006408e1004a0032006100e10046003200e0
:100d90006108e10049003200ec0647006000b8003d
:100da0003d02be003d03be00f48657006011b8004e
:100db0003d04be003d05be007d0320000b00370052
:100dc0000000a0008d06e90013003200040242007a
:100dd00085824a0006034b0087834b0000004000d9
:100de00081804800020149008381490008025200c5
:100df00089825a000a035b008b835b00f0ff3b0093
:100e00000802420089824a000a034b008b834b0090
:100e10008d06e900edff3a0084827200868272003e
:100e2000f707b2008782720001003200150020002f
:100e30001e0490003e0b900006035400e63fb000f5
:100e40000368a300070032000000a7000500a0000f
:100e50008301d1000281d3008180d3000080d300c0
:100e60000603e8008301d1000281d3008180d30012
:100e70000080d3000002eb000482d200540007007f
:100e800003f0a1000cf0a70003f0a00090003700d1
:100e9000640247006408e1008a0032003400be00aa
:100ea0003401be00f6ff37006108e1008500320022
:100eb0006011b8006000b800f1ff370003ff2700a1
:100ec00002002000fbff3700889fbe008a9fbe0003
:100ed0008c1f7800560107005d01330003866c000b
:100ee0006450e1002e0032006420e1003300320043
:100ef0006150e1002f0032006120e100310032003a
:100f000085855500eb07b00009002000080420008b
:100f1000050037000804440089844c000a003100b1
:100f20000603430087834b000001530081815b006f
:100f3000f8ff33000203be000800a00008044400cc
:100f400089844c00f6ff3900c639dd008301730047
:100f500001003200130020008904d1000884d3006e
:100f60000998a300050032000800a7000300a000b4
:100f70008904d1000884d3008b05e8008904d100de
:100f80000884d3000001eb000281d200ed000700cd
:100f900001f0a1000cf0a70001f0a000350137001e
:100fa0006420e100370132000801be000200be00eb
:100fb000f7ff37006120e100320132006000b80025
:100fc000f3ff37000000200001f82700f0ff370092
:100fd0001800200057002000080453000d003d00b9
:100fe0000600200097fc2f000740e1001e0034009f
:100ff00084827200610260008301d1000281d3000b
:101000008180d3000080d3000804e800f8ff3a0094
:1010100047002000610460000504740004046400bb
:101020000d00320061004000e0804800600149008e
:10103000e081490003b8a500070032000603e8007c
:101040006538e10004003a008301d1000281d30039
:101050008180d3000080d300f87f20000830e100b9
:1010600003003500080378006000b8006011b80084
:101070004433dd00f300b20083017300000006007a
:10108000680447000294be000094be00fc044700c0
:101090008694be008494be00090078009c0207007c
:1010a000080078009a02070099007800814f7000cc
:1010b0000b003b000800be00740207004f00b100a7
:1010c00003003700f3ff2700f2ff2f006110b90083
:1010d0004f06be004f05be004f04be000080fa0060
:1010e0000000060081037800bc0007000001be007c
:1010f0006000b8000478a30013003a006220e10009
:1011000015003e000d0039008301d1000281d3009b
:101110008180d3008301d1000281d3008180d3007c
:101120008301d1000281d3008180d3000538b00053
:10113000c42add00f300b2008381720007f0a7002b
:1011400003f0a00000000600f3ff2700f2ff2f00cd
:101150006110b900fbff370003ff2700f7ff3700de
:10116000889fbe008a9fbe000003be009b00070050
:101170008505780082815200020020006220e10093
:1011800004003a00f307b100040035007718e100cd
:10119000040035000600be00140037006000b800ef
:1011a0000f003700f50f2000faff2f008502d10055
:1011b0000a85d3008301e900fcff3b0081846200c3
:1011c00000046500890f7400f2ff32008582ea0096
:1011d0000a85ea0081846200000465005900070066
:1011e00007f0a70001f0a0000081eb000200e00082
:1011f0004f05be004f04be0000000600f4ff2f00a4
:101200006a0237001400fa00889fbe008a9fbe0061
:101210008c9fbe000004be000205be0068004700af
:101220000a90be000890be00390207000070a700b7
:101230000bf0a1000bf8a30016003a009e029000ec
:101240003043200080825200b0fe2f000028e100d1
:101250000d003c00b0fc2f000028e1000d00340020
:101260001e0990008e0890007e0090000501b000dd
:101270000201d1008180d3000080d3008502e80004
:10128000fbff3a0092ff3700010028000000200019
:101290008fff37006000b8008dff37000001be00ef
:1012a0004e0007000470a70003f0a10003f8a3009c
:1012b00013003a006509b100100032000900350042
:1012c0006928e10002003500010028000000050047
:1012d00000004000818048008502e900fcff3a00e0
:1012e00000000600f88f4200050035008100d100a3
:1012f0000080d3008502e800fcff3a0000000600f1
:101300008000eb00000005004f89de0082017800bc
:10131000410237006011b8004f0237006011b80079
:10132000780237000001eb008dff07000400320057
:101330000200200003f8230001f0a7001dfe0700b3
:101340000000060081002000618055000b003d0078
:101350000b00200061fe2f000100e1001d003400a1
:1013600082817100610164008904d1000884d30086
:101370000000e800faff3a007100200061006400fc
:1013800003007000020060000900320061044400a4
:10139000e0844c000988a500050032008b05e800b8
:1013a0006808e10002003a008904d1000884d300f3
:1013b000f20f20000258e10005003d00c75ddd008e
:1013c000f907b20089807500080078000000060067
:1013d0000bf827008b00780000000500c70ade002c
:1013e000f107b200f50fb20008003200e1cf420071
:1013f000020032000170a00024000500810f70007f
:10140000010032000408050044000500810f70004f
:1014100002003a00140005008502e90000004000c7
:1014200081c04800fcff3b000170a00024000500c3
:101430000004be00e9ff07000003be000405be0073
:101440000200be00e5ff0700844f750000000600a3
:101450000200be006450e100050036006420e10097
:10146000020036000968a30001003a000800be002f
:101470000160a0004f0678004f05be004f04be007b
:1014800000000600f0ff2f00f1ff2700f9ff3700f2
:101490002800fa00889fbe008a9fbe008c9fbe0075
:1014a00003866b00f6fe07000028a30064003a00e4
:1014b0000128a30068003a000008a30062003a0077
:1014c0000108a30066003a001e009000be089000cc
:1014d00081064000ed3fb100f4805700ee0190001e
:1014e000111ab8008e099000311bb8009e099000b7
:1014f000311cb800511db800f485570046000700a4
:10150000fe0190003a0007008b85e8003e000700ce
:101510008e09900040000700ee01900034000700a3
:101520008b85e800380007008e0990004000070016
:101530009e0990001b18b800890440000a854800e5
:10154000fe019000340007008b85e800380007009a
:10155000ee019000300007008e0990001b18b800c3
:10156000890440000a8548000a98a30008003a0050
:101570000402420085824a0006034b0087834b0029
:1015800008044c0089844c000a054d008d06e900d2
:1015900084827200850273004c3add00850272007d
:1015a0000100320015002000443ade001400b200b1
:1015b0004538de00cb45dd000b007000c540de0085
:1015c000cb4ddd008b8070004549de00cb55dd0042
:1015d0000b017100c551de000d0378007cfe070091
:1015e00003f0a1000cf0a70003f0a000b8fe370044
:1015f0001b18b8008502400006834800e0834b00ba
:1016000060044c00070037001b18b80006034000b8
:1016100087834800faff37001b18b8008703400093
:1016200008844800e0844c0060054d00000006007e
:101630001b18b8000804400089844800faff3700ee
:101640000108a3009ffe3a005800be000000000001
:101650005801be00e2ff37000008a30099fe3a00df
:1016600009047800f8ff3700889fbe008a9fbe00fb
:101670008c1f78006eff070075ff330003866c0037
:101680006450e100240032006420e10027003200b1
:101690006150e100220032006120e10021003200af
:1016a0008b854200eb07b1000134b800003ab80066
:1016b0000804420089844a00013ab8000030b800aa
:1016c0008880400009014a00040033000000400007
:1016d00081804800020149008b05e900c909dd004d
:1016e000830170000100320013002000c814de00e6
:1016f0004814dd004709de001200b200c808de0011
:10170000088470000fff070001f0a1000cf0a70093
:1017100001f0a00057ff37006120e10059ff3200bf
:101720000801be000200be00f7ff37006150e10073
:10173000fcff3a0053ff370007f0a2002c003700ef
:101740001400fa00889fbe008a9fbe008c9fbe00d6
:101750000005be000206be00680047000c90be00f7
:101760000a90be00ea0007006400e1001a0032009f
:1017700016003e006100e1001a0032006e04900085
:10178000fe0490000e0b90009e0b90006011b800bc
:101790009e0590000b38b100d501200082817100b8
:1017a000610164008703d1000683d3008984d300dc
:1017b0000884d3008502e900f8ff3a00e1fe070043
:1017c0000df0a70001f0a00041fe3700f1ff270057
:1017d000f0ff2f003efe370001f827000000200038
:1017e000f7ff37006000b800f5ff37000000000089
:1017f0002800fa00889fbe008a9fbe008c9fbe0012
:1018000007067800878669000c003b000304780017
:101810008704780008f0a10009f0a100840f5000af
:10182000858f5800860f5900890f5c000300330034
:101830000cf0a20001003a000cf0a10010fe07001d
:101840006400e1005f003200780147006408e100b5
:10185000610032006c014700748557003200be0001
:101860001201be003a04be001a05be001e0390001d
:10187000be0a90008503530006003d000004fd00f1
:101880008104fd000205fd008305fd008703ea00d9
:10189000050378000df8a300040032006004140072
:1018a000e0841c0060051d00e0851d006022b8007a
:1018b0007d0320000d38e1008006eb000b003900ad
:1018c0004433dd00f300b2008301730039003700b8
:1018d000848272000d027800e10664008b85d100dd
:1018e0000a85d3008984d3000884d3008703e900e4
:1018f000f7ff3b0008004000898048000a014900ca
:101900008b81490004003b0060001000e08018005b
:1019100060011900e08119000358a300090032009a
:101920008d82720084827200610260008301d100a6
:101930000281d3008180d3000080d3000603e80039
:101940001b0037000348a30017003a000600e00020
:10195000170034000603e9000d00a3000000480052
:101960008180480002014900838149000348a300a7
:101970000f003a000600e000090034000603e90009
:101980000000400081804800020149008381490035
:1019900001003a000003eb000348a300f5ff32000a
:1019a0006022b80002003700848272006182660003
:1019b00087fd070003f0a1000cf0a70003f0a000d2
:1019c000c3fd3700640147006408e10002003a00eb
:1019d0000df8a300bbfd3a0032007800b200780099
:1019e0001201be00bafd3700889fbe008a9fbe006c
:1019f0008c9fbe000404be000605be00809fbe0092
:101a0000829fbe0030000700040678000800be0078
:101a10000a01be002c000700840678004f03be00b8
:101a20004f02be008d4f76007fb097001300330049
:101a3000f0ff2f008b8f6b0006003b000d06660049
:101a40000c00a7000a00370007f0a60010002000d5
:101a50000a003700880f5200898f5a008a0f5b00f6
:101a60008b8f5b00030039001000200001003e0056
:101a70000000200007f0a7000000ea004f06be00ab
:101a80004f05be004f04be0000000600e482400087
:101a90001078a30007003200640240001178a30010
:101aa0003400be001401be00050032000330a70060
:101ab0000000060035007800b50078001501be0072
:101ac0000330a0000000060005ff2700058261002a
:101ad000070032000428e100010032002400050064
:101ae0000600070001003a00440005000408050054
:101af00002000700f9ff3a00140005006f82610040
:101b000081027000850271008502720000000600eb
:101b10005002be00e40050005003be004439de0015
:101b2000f700b200f37f20000301610009003200da
:101b30000218e10016003a0085017200830173006b
:101b4000838173000008200015003a004000200047
:101b500013003700850172008301730083817300d5
:101b600005003a0004a8be0006a8be001000200030
:101b70000b0037000201e9000402420085824a009e
:101b800006034b0087834b000748a300f9ff320090
:101b90000740a00004a8be0006a8be002000200048
:101ba000800098009200980000000600889fbe0008
:101bb0008a9fbe00841f78001dfe07004f0078003a
:101bc00011003300f0ff2f00838f6c0006003b00f4
:101bd000040565000a00a7000800370009f0a60008
:101be0001000200008003700820f5400838f5c0033
:101bf000030039001000200001003e00000020001a
:101c000009f0a7000000ea004f05be004f04be0027
:101c10000000e00000000600881f78000304780040
:101c20000300e00007003d0060001000e0801800a5
:101c300060011900e081190002003b0001f02d0055
:101c4000030037002f00070008f0a70001f0a000f4
:101c50004f04780000000600889fbe0000827000dc
:101c60000402710004827100240032003643200017
:101c7000c50020008383cf000a0039000541b10070
:101c80008283cf00070039000541b1008183cf0076
:101c9000040039000541b1008083cf000100390004
:101ca0000541b10085c353006022b8001200320024
:101cb0000a003b0084827200610260008301d1004f
:101cc0000281d3008180d3000080d3000603e800a6
:101cd0008743e800f7ff3a000700370000004000a4
:101ce0008180480002014900838149000603e90020
:101cf0008743e900f9ff3a00b5fc07004f04be0036
:101d000000000600889fbe008a9fbe00008270000f
:101d10000402710004827100260032000004be003b
:101d20000200be006011b8006b092000950220007f
:101d30000182cf000a0039000541b1000082cf00c6
:101d4000070039000541b1000982cf0004003900c5
:101d50000541b1000882cf00010039000541b10002
:101d600005425200120032000a003b0082817100dd
:101d7000610164008100d1000080d3008984d30018
:101d80000884d3008b05e8000442e800f7ff3a001e
:101d9000070037000804440089844c000000480014
:101da000818048008b05e9000442e900f9ff3a0010
:101db00064fd07004f05be004f04be000000060092
:020000040000fa
:101dc00034010000403400000160000034010000d4
:041dd00040000000cf
:020000040000fa
:101dd4003c00fa00889fbe00301f9800411f980005
:101de400521f980047fb07003e189000ce18900041
:101df40047fd07000203be000002be006000b800f9
:101e040002482800e3142400d4fb07006022b80031
:101e14000600200007ff230046fe07005007980035
:101e24006107980072079800030f98005e00900005
:101e3400ee0090007e0190008e0990003ffe0700a6
:101e440037fd070014fd0700100f98005e00900096
:101e5400ee0090007e0190008e09900037fe07008e
:101e6400b1fb07000cfd0700200f98001e0890002e
:101e74000000e8008000eb0025fd07000203be001f
:101e84000002be006000b80002482800e3142400e9
:101e9400b2fb0700300f9800410f9800520f9800d2
:101ea400630f98002e0890000000e8008000eb000b
:101eb40017fd07000203be000002be006000b80068
:101ec40002482800e3142400a4fb0700700f9800c4
:101ed4000117980012179800231798003e189000d5
:101ee400ce1890000afd07000203be000002be00e7
:101ef4003e089000ce0890005e099000ee09900024
:101f04000cfe07000dfe07000004be0009f0a1004e
:101f14003e189000ce189000fffc07000001be00a0
:101f24000800be00e7fb07006dfc070030179800af
:101f34004117980052179800631798003e189000b4
:101f4400ce189000f2fc07000203be000002be009f
:101f54007e0890008e1090001e119000ae1190002b
:101f6400f4fd0700f5fd07000004be0009f0a10020
:101f74003e189000ce189000e7fc07000001be0058
:101f84000800be00cffb070055fc0700701798003f
:101f9400011f9800121f9800231f98009e089000ac
:101fa400010f78003e0a9000ce0a90005e0b90006c
:101fb400ee0b900014079800250798003607980048
:101fc400470798005e189000e10f500005003200aa
:101fd400e10f500019003900e20f50000c003200ec
:101fe4003b003700ae0a9000050f78007e0a90008f
:101ff4008e1290001e139000ae13900014079800e8
:1020040025079800360798004707980030003700e6
:102014009e0a9000050f78003e0a9000ce0a9000b8
:102024005e0b9000ee0b90001407980025079800b3
:1020340036079800470798002500370018c0b300fa
:102044003e129000ce1290005e139000ee139000aa
:102054007e1090008e1890001e199000ae1990000a
:1020640039fb07000000e000010035000044eb00ec
:102074000804e0000b003200ae0a9000050f78005f
:102084007e0a90008e1290001e139000ae139000f2
:10209400140798002507980036079800470798000a
:1020a4000b0037009e0a9000050f78003e0a90004e
:1020b400ce0a90005e0b9000ee0b9000140798007f
:1020c400250798003607980047079800000000008d
:1020d400b0f22f0091fa07009e02780045118800a3
:1020e40000802000001188000010280010118800d2
:1020f40021e2a8002342a8001e009000ae00900038
:102104003e019000ce0190004f04be000080fa0012
:10211400000006000000fa00000000001111800019
:1021240000102000008060000000e000fbff32008f
:102134000080fa00000006000a00fa002007980058
:1021440031079800024f9800ae00900011079800e4
:102154000000eb00000f78000e00370000000000c4
:102164001111800000202000008060000000e000c9
:10217400fbff3a001e009000104078000080fb0036
:10218400201188001e0fe8001e0090000000e800e7
:10219400100798003e0090009e007800808f500049
:1021a400eeff39000e4890000004e0000100320008
:1021b400d8ff07000080fa00000006000a00fa00b9
:1021c4002007980031079800024f98000000eb00a8
:1021d400000f7800ae009000110798000000eb009b
:1021e400000f7800340037000e4890000004e0002f
:1021f40004003200006e2100104078000004e0006a
:10220400f9ff3a00ff3ffc001e0090000000e000d0
:102214000c003200f0b680006300400080004000f3
:10222400c06d2100008040001000780080407800dc
:102234001e009000014878001e0090000000e80095
:1022440010079800f1b68000f0032000808f500042
:1022540003003200f0b680000000e80001003700ff
:102264000000eb00f0b68800e1b68000f0b6800014
:102274000080680000f0a7000000ea000000e90008
:102284004f00de0080407800006e21000148780095
:10229400006e2100104078000004e00004003200c9
:1022a4000000eb00e0b688000000eb00f0b6880008
:1022b4000000fc001e0fe8003e0090009e00780025
:1022c400808f500008003100006e2100104078001b
:1022d4000004a2000004e000c3ff3a000e4890008e
:1022e4000004e000c0ff3a001e0078000080fa00fd
:1022f400000006000200fa00e1b68000f0b680009b
:10230400008050000104200080804000f003200081
:10231400008f60001e0078000000e00007003a0013
:10232400006e2100104078000004a2000004e000c8
:102334000200320000042000010037001e00780073
:102344000080fa00000006000600fa00200798004a
:102354000000eb00000f78000000eb00100798006d
:10236400040037001e0fe8001e0090000000e80083
:10237400100798001e009000ae00900000804000fe
:10238400104078000004e000060032001e009000b7
:10239400ae0090000080400010407800ea4f5000ea
:1023a400f0ff3a001e00e8000080fa00000006007a
:1023b4000a00fa00889fbe00400798000f047800c6
:1023c4000f007800800478004e009000deff0700c4
:1023d400100798001e0090008000e9002107980073
:1023e4000000e8000000e8000000d1008000400088
:1023f4000f007800818747000000e8000000d1004a
:1024040000004000300798000000eb00000f780047
:10241400090037001e007800ce00900000804000c4
:1024240010407800804078003e0090001e0040007c
:10243400014878001e0fe8001e0090009e007800fe
:10244400808f5000f3ff35009e0090003e00900006
:1024540012c0b30038ff07008907780088077800a6
:102464004f04be000080fa00000006000200fa00db
:1024740000202c0011002000540107004006200019
:10248400a002070010c0b300004f780010c0b300d2
:1024940010479800230020000e01780081c0b3008b
:1024a400e0cfb30051010700400620009502070069
:1024b4008001eb000001eb0091c0b300e0cfb3005a
:1024c4004a010700401f20008e0207000080fa0026
:1024d400000006000c00fa0030079800410798003d
:1024e400520798005e009000804078005e009000e3
:1024f4004800de000040780002c1b3002247980083
:1025040022c0b300324798004147980050479800d2
:102514000000eb00000f78000a0037001e0078006e
:10252400be00900000804000104078008e80e800db
:10253400430020000101780031c0b3002b010700e3
:102544001e0fe8009e0078004e009000808f50001f
:10255400f2ff39000080fa0000000600f200fa00e1
:10256400889fbe0040b7980051b7980062b79800a2
:1025740063ef990074ef990005f7990016f7990035
:102584000f0478000000eb00000f78003a003700d9
:102594000ef091000004e000070032004eb09000fd
:1025a4001e004000104078003300200032ee280066
:1025b40031c0b3000d0107001e007800e501b90029
:1025c4001e00780000004000eeb090000080400043
:1025d4001000780080407800400121000200400093
:1025e400014878001e007800e500b9000001e80009
:1025f4001e00780000004000eeb090000080400013
:10260400100078004800de0080407800400121007e
:1026140002004000014878001e007800e500b9007f
:102624000080e800410121000080400041c0b30067
:10263400014878001e007800e500b90063004000fe
:10264400ceb090009e80400091407800420121006d
:1026540000004100014878001e007800e500b90040
:10266400640040004101210000804000eee8910038
:10267400014878001e0fe8005eb090009e007800cc
:10268400808f5000c2ff39005eb09000e500b900b1
:10269400800178004201210051c0b300e0cfb300b3
:1026a400d20007007ee891000004e0005b003200e5
:1026b4000f007800800478005eb0900080007800fd
:1026c4008100e900210798000000e8000000e8000c
:1026d4000000d100800040000f007800818747008f
:1026e4000000e8000000d10000004000300798001e
:1026f4000000eb00100798000000eb00000f7800ca
:10270400050037003e0090001e0040008040eb00b2
:10271400014878001e0fe8005eb090009e0078002b
:10272400808f5000f7ff3900370037000000eb00be
:10273400000f7800300037003e0090001e0040007b
:10274400104078000004a2000004e00029003200d8
:1027540010c0b300304f98004eb090001e004000ef
:10276400104078008001eb000001eb0071c0b30061
:102774009e000700680047005b0107003e48900088
:102784000080fb00630060000010a20000f0a700be
:102794000000ea000000e9004f00de0080407800fd
:1027a4003e0090001e004000014878003e0090006a
:1027b4001e004000104078000004e0000d003200cc
:1027c4001e0090000000e800100798001ef0910021
:1027d4000004e000070032004eb090001e004000ec
:1027e400104078003300200062ee280031c0b300ae
:1027f4007e0007001e0fe8005eb090009e00780087
:10280400808f5000ccff39009e0090005eb0900095
:10281400808f5000c5ff3a00890778008807780048
:102824004f04be000080fa0000000600ee00fa002b
:10283400889fbe0040b7980051b7980042ef9900b6
:102844000f0478000f007800800478005eb09000d8
:10285400800078008100e900210798000000e8006a
:102864000000e8000000d100800040000f00780064
:10287400818747000000e8000000d100000040000c
:10288400300798000000eb00000f78000000eb0018
:102894001007980008003700be0090001e0090004a
:1028a400008040008040eb00014878001e0090004a
:1028b4000000e800100798009e0090005eb09000b1
:1028c400808f5000f4ff39000000eb0010079800df
:1028d4002e00370010c0b300304f98001e00900047
:1028e400ceb0900000804000104078008001eb00e2
:1028f4000001eb0071c0b3003c0007006800470012
:10290400f90007003e4890000080fb00630060006f
:102914000010a20000f0a7000000ea000000e90097
:102924004f00de00804078003e0190001e009000c1
:102934000000410001487800be0090001e00900095
:1029440000804000104078000004e0000c003200d9
:102954001e0fe8004ee891000004e0000800320079
:102964001e009000ceb0900000804000104078001f
:102974003300200002ee280031c0b3001b00070022
:102984001e0090000000e800100798009e009000d0
:102994005eb09000808f5000ceff39005eb0900092
:1029a4001e00680000f0a7000000ea000000e90033
:1029b4004f00de000040780089077800880778001f
:1029c4004f04be000080fa00000006000400fa0074
:1029d400008fbe000001eb001e0078009e009000f6
:1029e400fbfc07000080fa00000006000a00fa0061
:1029f40040479800514798003207980043079800d1
:102a04005e409000e54f5000030032005e409000ad
:102a1400e64f50001b003a005e409000e54f500026
:102a240002003a002000200001003700300020009e
:102a3400000f78000f0037001e007800be009000e1
:102a440000804000104078000080fb0062006000bd
:102a54000000e00059003a005e409000e54f50004d
:102a640002003a005000200001003700400020001e
:102a74001e0f40004e0090009e007800808f500092
:102a8400edff35005051210080c0eb000148780073
:102a940050512100904078004051210001487800b5
:102aa4004e00900000407800e74040006051210053
:102ab4000148780070512100ce4090000148780010
:102ac40080512100de409000014878000000eb00b6
:102ad400100798000c0037001e00900067004000ab
:102ae4009e0090003e0190008100410091407800da
:102af4004251210000004100014878001e0090006e
:102b04000000e800100798009e0090004e0090001e
:102b1400808f5000f0ff35004e00900067004000a9
:102b24008000780040512100270007004e009000eb
:102b3400670040000041eb00800078004051210014
:102b44007dfd07005e409000e24f50000600320019
:102b54005e409000e44f5000030032005e4090005d
:102b6400e74f500016003a006afd0700908080008d
:102b7400de409000e7cf500005003200be00900018
:102b84008100e80091407800ebc04000010037006c
:102b940091c0b300226d2100000141000149780079
:102ba4000000e8009080880090808000ea0f5000c8
:102bb40003003a001230ef0001003700000000006b
:102bc4000080fa00000006000800fa0020079800c0
:102bd400310798002e0090000080e80090407800b3
:102be4002e009000630040001040780080c0680010
:102bf4002e009000640040001040780000cf680070
:102c04007000200010079800080037001e00900094
:102c1400ae00900000804000104078001e4f680015
:102c24001e0090000000e800100798009e0090002d
:102c34003e009000808f5000f4ff35002e0090007d
:102c440065004000e1cfb3001ecf60001e4878004d
:102c54002e009000660040001ec1ea00e1cfb300e0
:102c640081406100014878000080fa0000000600fd
:102c74000600fa0010079800210798001e00900033
:102c840065004000104f78001e0090006600400070
:102c94009040780011479800ae0090001e0090000c
:102ca400c9ff07001e009000650040001040780036
:102cb4009e4f500008003a001e009000660040003d
:102cc400904078001e40900080cf500002003a00ef
:102cd40010002000010037000000eb0000407800e5
:102ce4000080fa00000006000600fa0020079800a1
:102cf40080808000216d2100008040001040780019
:102d04000004e00002003a000000eb005700370026
:102d1400500020007b00070080808000216d21008e
:102d24000080400090407800214798008080800017
:102d3400216d2100808040000041eb008248780032
:102d44000000e8008080880080808000ea0f500046
:102d540001003a001030ef0066fd0700ae4090001d
:102d64008180fb00810f5000020031000000eb0065
:102d74003e0037002e4090000080fb0012c0b300dc
:102d840080007800305f21000cfd0700305f2100d7
:102d940010407800e14f400009003a00405f2100f4
:102da40010407800e14f400005003a00505f2100d8
:102db400904078002e40900080cf500002003200f6
:102dc4000000eb0029003700505f2100104078001c
:102dd4000080fb0080007800305f2100a4ff070022
:102de4000004a2000004e000020032000000eb0036
:102df4001e003700605f2100904078002e00900094
:102e0400014878002e0090000000e800715f210066
:102e1400914078000148780070002000000f78008d
:102e2400090037001e00780065005000ae009000d5
:102e340000804000315f21009e8040009140780076
:102e4400014878001e0fe800505f21001040780010
:102e54000080fb009e0f5000f2ff3c00505f2100f9
:102e6400104078000080fb00650050000080fa00ec
:102e7400000006000200fa001230ef00908080008b
:102e8400808088000000eb00000f78000500370008
:102e9400206d21001e0040008040eb0001487800b6
:102ea4001e0fe8001e007800e90f5000f8ff3600fe
:102eb4000400370012c0b300110020000000eb0032
:102ec400befc07000bfd07000000e000f9ff3a001c
:102ed4000080fa00000006000000fa0080808000f4
:102ee400216d210000804000104078000080fb002c
:102ef4000000ea004f00de00004078000080fa0085
:102f0400000006000800fa00889fbe008a9fbe00e9
:102f14003007980097f607000370ef000270ef0087
:102f24000068a900c0ff2f009ef607003e00900035
:102f3400e60f500005003e008000200010079800b6
:102f4400f0fd2f00000f780017003700be0090003e
:102f5400f0032000808f500005003e000004200094
:102f640010079800f0fe2f00000f78000e003700c5
:102f740000102000100798000080eb00000f78007c
:102f8400be00900040102000808f500006003600e4
:102f9400be00900001808800501020003007980087
:102fa40010c0b30003f0b7000000eb00ccf607003c
:102fb4003e0090008000eb00d5f807006022b800c6
:102fc40006002400f70e240030f907000205be00b5
:102fd4000004be001e0090008000eb00ccf8070047
:102fe4000203be000002be000800be000a01be00cb
:102ff4005af7070082f807002007980090fb2f007b
:103004001e006000ae00900098f60700000000006b
:1030140002d0bf000004a2000004e000fcff3a005c
:1030240054f6070070ff2f005ef607008000eb00e7
:10303400f0ff27008df607000000eb00a8f607005c
:103044004f05be004f04be000080fa0000000600d9
:103054000e00fa00881f7800404f9800514f9800e6
:103064004e4890000080fb00cf80de00a5f80700ea
:1030740002002000032824007af90700008fbe0014
:10308400d00020002007980020012000300798007d
:103094003e0090008000eb009ff8070018c0b300ca
:1030a4001e0178009e01900053f807000000e00024
:1030b40001003d000044eb000804e000020032007f
:1030c4000000eb001a0037002e0090008000eb0097
:1030d40091f807000001be001e0078009e009000d9
:1030e400b3f6070002002000030c240075f7070064
:1030f40040079800510798005e4890000004e000e3
:10310400060032004e009000de00900006f7070033
:1031140061f8070000007800050037004e009000b9
:10312400de0090007ef807005bf8070000007800de
:103134004f0478000080fa00000006000000fa0046
:1031440010f60700c0ff2f0025f607000080fa00e4
:10315400000006000400fa00000f78001107980030
:103164009e009000218088000630ef009e007800c9
:10317400418088000000eb005bf6070001a02f00ef
:10318400d0f82f003df607000080fa00000006008a
:103194000000fa008000eb00f0ff270037f607007c
:1031a4000080fa00000006000000fa00f9f50700ac
:1031b400c0ff2f001cf607000080fa000000060084
:1031c4000400fa00000f7800110798009e00900098
:1031d400518088000c30ef009e00780071808800d8
:1031e4000000eb0042f6070001a02f00d0f82f00ea
:1031f40027f607000080fa00000006000000fa002d
:103204008000eb00f0ff270021f607000080fa00a1
:10321400000006000000fa000081eb008081eb0052
:10322400d0fb2f001ef607006000b80032f607003e
:103234000080fa00000006000c00fa001ff60700e8
:10324400008fbe001e0078009e00900030f807003a
:103254006022b80006482800e7192400bff60700da
:103264006022b80006002400f711240087f8070044
:1032740020079800310798004207980053079800e8
:103284002e009000be0090004e019000de019000e0
:103294000080fa00000006000000fa00000ea800fa
:1032a4000e0ea8002043a80021198000f00f2e0064
:1032b400008060000080a00020198800f0c3b300e3
:1032c40024e3b7002603a9002643a90021e3a800ac
:1032d400400620000bff07000080fa0000000600f3
:1032e4000000fa002043a8004006200005ff070064
:1032f4002023a90000000000001980006100600084
:103304000000e000fcff32002003a9000018800048
:103314000080fa00000006001000fa006007980020
:103324007107980042c7bf008080fb00f00b2000ab
:1033340000816000600420007105200023742000d7
:1033440080497800814978008249780021368000dc
:1033540000f82f0080806000a002200001007000af
:103364002036880041348000f00f2c00008060007b
:103374000080a0004034880042c7bf000064a00061
:103384000081fb00600420007105200023742000ec
:1033940080497800814978008249780000582200e9
:1033a40001002000008fbe000001eb001e00780029
:1033b4009e00900086fa0700213a800000fe2f004c
:1033c400008060006000b300203a8800213a800049
:1033d400f0f32f0000806000203a8800313a80002a
:1033e40000e02f0080806000e007200001007000f2
:1033f400303a8800b0c0b300004f9800100020009d
:10340400200798000000eb005007980017fc070005
:1034140068004700f23f2000ae0090002dfc07003a
:103424009dff0700aeff0700300798003e009000a4
:103434000000d100f01fb0003007980040062000c3
:10344400b0fe0700be00900051079800ea00470054
:10345400680047000043eb0015c0b3000042eb00d6
:10346400a3c0b30001017800ae0090003bfc07004c
:04347400ecff370032
:020000040000fa
:1034780014150000c80100008000000010100000b2
:103488000400000080000000141000000005000087
:1034980080000000dc1600008600000082000000aa
:1034a8000000000000010000000000000000000013
:1034b8000000000000000000000000000000000004
:1034c80000000000000000000000000000000000f4
:1034d80000000000000000000000000000000000e4
:1034e80000000000000000000000000000000000d4
:1034f80000000000000000000000000000000000c4
:1035080000000000000000000000000000000000b3
:1035180000000000000000000000000000000000a3
:103528000000000000000000000000000000000093
:103538000000000000000000000000000000000083
:103548000000000000000000000000000000000073
:1035580000000000001000001000000080000000c3
:04356800000000005f
:020000040000fa
:020000040005f5
:045fe000cfff0000ef
:020000040000fa
:020000040005f5
:045fe400efff0000cb
:020000040000fa
:020000040005f5
:045fe8007fff000037
:020000040000fa
:020000040005f5
:045fec003eff000074
:020000040000fa
:020000040005f5
:045ff000bbff0000f3
:020000040000fa
:020000040005f5
:045ff400ffff0000ab
:00000001FF
