:020000040000FA
:0600000076EF62F0120031
:0600080004EF50F01200AD
:060018000CEF50F0120095
:06A0000076EF62F0120091
:02A00600120046
:06A00800ADEF56F012005E
:06A01800AFEF56F012004C
:02A01E0002003E
:10A0200008C50000F10000000B000000E3BD0000C7
:08A03000400E000001000000D9
:08A0380078EC56F0A098636A71
:10A04000626A0F01266B72EC56F00F010DEC56F0B0
:10A05000DF6ADF500B6E0C6A080E0B5C000E0C58AA
:10A0600010E2DF50040DF3CFE9FFF4CFEAFF000E5A
:10A07000E926040EEA22EE6AEE6AEE6AEE6ADF2A4A
:10A08000E8D7658C0F01386B6598659C62A607D090
:10A0900062960E01136B186B196B1A6BF7D70E01D2
:10A0A000010E2A6F2B6F2C6B2D6B206BDF6A020E5B
:10A0B000DF5C11E2EA6ADF347BEC56F0EA22EE6AFA
:10A0C000ED6AEA6ADF3482EC56F0EA22EE6AED6A63
:10A0D000C6EC55F0ECD70E01080E0B6F040E0C6F9A
:10A0E0000F01160E266F0401200E026F040E036F7F
:10A0F000080E016F840E006F0E01016B006BE552BC
:10A1000098EF55F078EC56F00E0100510CE1656ABD
:10A110000F01366B0DEC56F065B602D06586FCD7A4
:10A120000E01010E006F00050AE165BA08D0626AEF
:10A130000F01366B368136890E01020E006F6250B8
:10A14000040B06E00F013651040B02E0629430DB91
:10A1500065B249D06250010B09E00F013651010B85
:10A1600005E06ADF0E01040E006F62906250100B72
:10A1700006E00F013651100B02E00FDB629862AC73
:10A1800010D00F0136AD05D014EC56F0730E85ECEF
:10A1900055F0629C0E01285101E02807285101E189
:10A1A000F3D86250200B05E00F013651200B01E07F
:10A1B000E3DA6250020B0CE00F013651020B08E0AB
:10A1C00014EC56F0E6687F0EE66E89EC56F0636A92
:10A1D000040E0E01E76E0019E8AE02D0E73402D09B
:10A1E000E750005D02E2A1982FD00F0136A72BD0D7
:10A1F000DF6A040EDF5C27E262A625D064CF21FE71
:10A200000E012151780BE842E842E842226F629643
:10A2100021B504D0225190EC56F003D0225195EC98
:10A2200056F0EA22EF70225102E1CFDA0AD0000E96
:10A23000E66EE66A210EE66E0E0EE66E720E85EC96
:10A2400055F0DF2AD6D7A198E55298EF55F04CEC9F
:10A2500056F0FD0EDBA403D0E66AFDEC55F0FD0ED2
:10A26000DBA204D0010EE66EFDEC55F0FE0EDB50D5
:10A270000C6A260F0B6E0F0EF7EC55F089EC55F0BB
:10A28000FD0EDBCFEFFF020EE15C02E2E16AE55278
:10A29000E16E98EF55F04CEC56F0FD0EDB5003E00C
:10A2A00080EC55F002D0B7EC55F0E3EC55F0D9CF87
:10A2B000E9FFDACFEAFFEE50ED1003E1F36AF46A4A
:10A2C00028D089EC55F0A4EC56F0FB0EDBCFEEFF66
:10A2D000FC0EDBCFEDFF89EC55F0EE52FA0EDBCF32
:10A2E000EFFF400E9AEC56F0880EA9EC56F0FD0EEA
:10A2F000DB5003E080EC55F002D0B7EC55F0EA22D9
:10A30000EF74DECF0BF0DDCF0CF00BC0F3FF0CC011
:10A31000F4FF020EE15C02E2E16AE552E16E98EFC1
:10A3200055F04CEC56F0FE0EDB5003E15AEC56F0C3
:10A3300009D0BCEC55F03AEC56F0BCEC55F0010FEE
:10A340003AEC56F0020EE15C02E2E16AE552E16E9F
:10A3500098EF55F0E8DB65A816D06BEC56F0400E90
:10A36000EE16EE6AEE6AEE6A6BEC56F0EE7CC8DB37
:10A37000EA22EF74400E0B6E6BEC56F00B50EF16AA
:10A380006BEC56F0EF7CD4D30E012A5122E1010E82
:10A390002A6F2B511EE1010E2B6F020E105D07E19B
:10A3A000BDDBEE52EF6ABADBC80EEF6E120010058D
:10A3B00010E1236BC9DBEE52080EEF6EC5DB46ECF5
:10A3C00056F0C2DB840EEF6E010E236F95DB800E1C
:10A3D000EF6E12000E012C6B2D6B020E105D06E16C
:10A3E0009EEC56F0B6DB35EC56F010D0145104015B
:10A3F000265D0E0115510401275904E226C414FEFE
:10A4000027C415FE61D88ADBA4DB88DBC80EEF6E9B
:10A4100012004CEC56F0000EDE6E040EDD6EACDB6E
:10A42000040DF4CF0CF0D9CFE9FFDACFEAFFF350F7
:10A43000EE260C50ED226DDBEF9EFD0EDB5002E1AF
:10A4400096DB01D05DDBEA22DECFEEFFDDCFEDFF54
:10A4500060DBEF9C5EDB040EE926000EEA22EF8C47
:10A46000020EE15C02E2E16AE552E16E61D36598B9
:10A470000E0113BF0DD018AF09D0020E106F2D5171
:10A4800001E1A8DF0E012B6B2A6B12005AEF56F088
:10A49000040120AF0DD00E01010E106F2C5101E10F
:10A4A00099DF0E012B6B2A6B29510DE1C4EF51F09E
:10A4B0000E01020E106F20DB840EEF6E2B6B2A6BE9
:10A4C000295101E161DF120078EC56F0080EDF6ED1
:10A4D0000E01145D000E15590AE214CEDFFF0F5174
:10A4E00002E1010E03D00F0502E1020E0F6FDF50F3
:10A4F0000C6AE850145D146F0C501559156F0EDB83
:10A50000EE52DFCFEFFF280E1D6F040E1E6F13B14A
:10A510000DD0DF5017E011CEF6FF12CEF7FF112B52
:10A52000000E12230800F55041DBF3D7DF500AE09C
:10A5300011CEE9FF12CEEAFF112B000E1223EF50CD
:10A5400035DBF4D7E552F4D2A7DBFEDAEE52EFCFDB
:10A55000DFFFDFCF0BF00B500E01195D000E1A5913
:10A5600002E219CEDFFFDF500B6E0C6AE850195D76
:10A57000196F0C501A591A6F010EDB6ADF50F36E17
:10A58000010EDBCFF4FFF350F45C16E2010EDB505A
:10A59000EA6A280FE96E040EEA22EF50E66E16CE44
:10A5A000E9FF17CEEAFF162B000E1723E552E750FE
:10A5B000EF6E010EDB2AE2D7000ED8801955000E8F
:10A5C0001A550DE2BBDBC5DABFDAEF50400B03E1F1
:10A5D0004CDBC80E02D049DB880EEF6E12D08CDA4D
:10A5E000840EEF6E1B511C1107E005D01CCEFAFF44
:10A5F0000E011B51F96EFADF0E01189F295101E17E
:10A60000C3DE020EE15C02E2E16AE552E16E90D245
:10A610006FDB0E01138F66DB200EE66EE66AE66ADC
:10A62000000EE66E040E9BDA658CDF6A020EDF5CBC
:10A6300002E2ACDAFBD714DB020EE66E0E0E8FDA06
:10A64000659C0E01080E0B6F040E0C6F000E036F5D
:10A65000040E046F03CE05FE066F22C401FE0151F5
:10A6600002E1100E0BD0010EE66EE66A010EE66EF8
:10A670000E0EE66E010E49DA0E01200E006FE55255
:10A6800057D2800E0401205D3BE10E01C00E136F16
:10A6900004012351030A1DE0010A09E0030A2EE127
:10A6A0000E01720E116FC20E126F120E21D0010E2A
:10A6B000225D21E2C7DA300EF626C30EA6DA020EBC
:10A6C0000E01B9DAF5CF14FE030EB5DAF5CF15FE9B
:10A6D0001200030E225D0FE2B5DA320EF626C30E2B
:10A6E00094DA11CEF6FF12CEF7FF0800F5500E01F6
:10A6F000146F156B12000E01136B12000E01136B19
:10A700001200CADA0401286B296B20511F0B020AC0
:10A7100011E0030A0CE0010A1EE10E01138F04018F
:10A7200028810E011F0517E10401288314D00E01B2
:10A73000138F11D00E01138F040124BF02D0C1DA90
:10A7400001D0C4DA40DACADA06E0E3D9EF50040BEC
:10A7500002E0010E286F0E0113AF07D0280E116F13
:10A76000040E126F1381020E146F020EE15C02E2FE
:10A77000E16AE552E16EDCD10F0126A10CD0E4D9EB
:10A78000EF50800807E1CAD9EF50840803E1DCD913
:10A790008C0EEF6E2691629A12000F013685629838
:10A7A00065820E01010E206F14DA750E85EF55F0EB
:10A7B0000E01206B0EDA740EA8D965920F01369542
:10A7C00062A402D06294FCD7120092DA0E012D0E20
:10A7D000286FFD0E211539E17E0E2115E8407F0B13
:10A7E000040DF3CF03FEF4CF04FE000E0327040E86
:10A7F000042303CE05FE04CE06FE0575A5D9EF5051
:10A800003C0BE842E8420D081EE1DF6A080EDF5CFF
:10A8100016E29AD9020EE926000EC2D9EF50E66E72
:10A82000DF50EA6A200FE96E040EEA22E552E75093
:10A83000EF6E8AD989DAEE2AEF22DF2AE7D784D9A8
:10A8400025DA0AD807D023D805D0FD0E2115040833
:10A8500001E12CD8E5526CD10E010F6B296B2C6BEA
:10A860002D6B236B106B5AD9EF9E0B7557D9EF9E4A
:10A870000B75FBD9EF9E136B146B156B186B196B73
:10A880001A6B51D8A6D9030E40D937EF52F0020EF9
:10A890000E01105D02E1A4EF52F0106B235104E1B0
:10A8A0002BD98C0EEF6E1200236B120021DA36D9F1
:10A8B000EF50400B01E0010EDF6E0E010B75080E2C
:10A8C000005D0BE122C438FF0F01385103E00E0197
:10A8D000100E02D00E01040E006F100513E11ED9F8
:10A8E00038D9F2DD020E0E010F5D03E117D9840E97
:10A8F00007D0DF5003E112D9C80E02D00FD9880E5D
:10A90000EF6E0FD018AF0CD01B511C1107E005D013
:10A910001CCEFAFF0E011B51F96EFADF0E01189FD3
:10A92000106BE55205D104012051600BE842E8426A
:10A93000E842E842E842000901E0120021510C0A15
:10A9400045E00B0A3FE00C0A31E0010A22E00B0A65
:10A950001EE0020A1CE0030A18E0080A10E0010ADF
:10A960000CE00F0A08E0030A01E012000E01138F49
:10A97000080E006F120041EF53F008EF53F00E0184
:10A98000010E116F0E0E126F0CD081EF53F0E7EF36
:10A9900054F024510E01116F126B020E11270E0E8E
:10A9A00012231381010E146F138F12000E01138FE7
:10A9B00004012451EA6A020FE96E0E0EEA2222C453
:10A9C000EFFF120006D9020E85EF55F01200ABD84A
:10A9D000050EE1260401220510E120511F0B00099C
:10A9E0000CE10E01138F030E0401215D04E10E0141
:10A9F000010E1F6F02D00E011F6B0401225101E0F6
:10AA000074D020511F0B020870E124510F0B000974
:10AA10006CE024510F0B010868E3200E0E01005D6D
:10AA200064E1138F040124BF04D04BD9CCD8D7D80C
:10AA300003D04CD9C8D8D7D8EA22020EEFCFDBFF1B
:10AA400008D9010B03E1000EDF9401D0DF8424BF9D
:10AA500002D037D901D03AD9EA22DECFEEFFDDCFDE
:10AA6000EDFF030E215D0CE139D907E024BF02D0D0
:10AA7000B6D801D0B8D8EA22EF82840E6AD935D090
:10AA8000DF742CD906E045D8EF9E43D8EF8C08D967
:10AA900002D03FD8EF8CDF74DCD8020B02E11ED964
:10AAA0000DE0040124BF02D09AD801D09CD8EA223C
:10AAB000EF923B0E0B6E3ED9F3D802D03B0E3AD943
:10AAC000040124510F0B0C6A260F0B6E0F0E0C2283
:10AAD000030E0BC0DBFF040E0CC0DBFF030EDBCF4D
:10AAE000E9FF040EDBCFEAFFEF90050EE15C02E226
:10AAF000E16AE552E16E1CD021D9C8D835EF56F095
:10AB0000FE0EEA6ADB347BEF56F0E66EE66A89EF0A
:10AB100056F0DECFE9FFDDCFEAFF12000BCEE9FFF2
:10AB20000CCEEAFF1200D9CFE6FFE1CFD9FF120029
:10AB3000E552E7CFD9FF120024510F0BE96EEA6A04
:10AB4000D890E936EA36120003CEE9FF04CEEAFFD8
:10AB50001200FAD8280EEE6E040EED6E1200E66EAC
:10AB60004CEC62F00B6E050EE15E0B501200FE0E17
:10AB7000EA6ADB3482EF56F0FD0EDB50E8240D6EFE
:10AB8000FE0EDB50040DF3500D241200DF50CDD823
:10AB9000EA22EF6ADF50C4D8EA22EF6ADF2A120005
:10ABA000EA22EE50EFCFEAFFE96E1200E66E1DCE0C
:10ABB000E9FF1ECEEAFF1D2B000E1E23E552E750D3
:10ABC000EF6EDF061200EA22EECFDEFFEDCFDDFFF3
:10ABD0001200000EE66EE66AE66EE66A1200245186
:10ABE0000F0B90EF56F024510F0B95EF56F00C22FF
:10ABF0000BC0DEFF0CC0DDFF1200FE0EDBCFE6FF58
:10AC000009EC52F0E552E5521200F7220900F5CFA7
:10AC100011FE0A00F5CF12FE1200160E396F9F0EBC
:10AC2000376F7B0E366F1200010EE66EE66A000E7D
:10AC3000E66EE66A1200F76A1125F66E1251F722E7
:10AC4000080012002251F66EF76AD890F636F736F1
:10AC50001200D950020FE96EDACFEAFFEF5012006E
:10AC6000010EE66EE66AE66A120005CEE9FF06CE40
:10AC7000EAFF1200040DF3CF0BF0F4CF0CF0000E3E
:10AC80000B26040EB4DF840EA9EF56F05DD8200E1B
:10AC9000EE6E040EED6E120046DF020EE12612008B
:10ACA000020EE66EE66ADECFE6FFDDCFE6FF050EBA
:10ACB00085EF55F021DF8C0EEF6E30DF840EEF6EE6
:10ACC00012003ADF070EE9260E0E120035DF0B0EDA
:10ACD000E9260E0E120014DFD0EF55F01ADFEF5008
:10ACE000800B1200BDDF270EE66E0F0EAFEF55F0A2
:10ACF0001ADFE6521200FE0BEA36E96E0B0EE92669
:10AD00000E0E1200FE0BEA36E96E070EE9260E0E55
:10AD1000120059EC59F00B6E060EE15E0B5012005A
:10AD2000EA6A260FE96E0E0E1200EA6A240FE96E37
:10AD30000E0E1200EEDEE850EF16120096DFEE5215
:10AD4000080EEF6E35EF56F0020EE926000EEA22ED
:0AAD50001200DFDEE850EF121200DF
:06AD5A001CDB1100D8CF44
:10AD6000E4FFE0CFE4FFE46E15DBE550E5CFE0FF64
:10AD7000E5CFD8FF1000D9D882EC50F005D9FCD728
:10AD80000001F651080A01E17CD00F0A74E0010AC3
:10AD900055E0030A4FE0010A35E0070A2FE0010AF7
:10ADA00018E0030A12E0010A01E0120032EC5AF046
:10ADB000E9DA6A0EE66EC10E15DB540EE66EC10EC0
:10ADC000B7DAC1DA0001010E33D078D8010875E195
:10ADD00055D0D8DA280EE66EC10E04DB120EE66EF0
:10ADE000C10E04DBFC0EE66EC00E04DBE60EE66E62
:10ADF000C00EEADAA8DA0001030E1AD05FD8010803
:10AE00005CE13CD0E66AE66AE66ABA0EE66EC00E1F
:10AE1000E9DAA40EE66EC00EE9DA8E0EE66EC00E1A
:10AE2000E9DA780EE66EC00ECFDA8DDA0001050E93
:10AE3000F66F120043D8010840E120D0E66AE66AC6
:10AE4000E66A620EE66EC00ECDDA4C0EE66EC00EFD
:10AE5000CDDA360EE66EC00ECDDA200EE66EC00EEE
:10AE600067DA040EE66E0A0EE66EC00E61DA050EB3
:10AE7000CDDA69DA03D022D801081FE10001F62BF0
:10AE80001200E66AE66AE66AF40EE66EBF0EAADA19
:10AE9000DE0EE66EBF0EAADAC80EE66EBF0EAADAA6
:10AEA000D00EE66EC00E90DA060EE66ED00EE66E9E
:10AEB000C00E90DA0001F6691200120081B01FD0B6
:10AEC0000001F8C00BF0F9C00CF0FAC00DF0FBC0A7
:10AED0000EF0F82B000EF923FA23FB23D880580E2E
:10AEE0000B541B0E0C54000E0D54000E0E5416E2A3
:10AEF000F86BF96BFA6BFB6B010EF76F000C00013E
:10AF0000F7050CE1F851F911FA11FB1102E1F76BA9
:10AF1000010CF807000EF95BFA5BFB5B000CCEDF5F
:10AF2000010801E1FF0000D012003BDA020EE12629
:10AF30000F0EC112580EDE6E020EDD6E9B8CDFCF3F
:10AF40000BF0DF06010EDBCF0CF001E2DB060B504D
:10AF50000C10F5E10F0148693F0E496F09D81CEC50
:10AF600050F0020EE15C02E2E16AE552E16E1ED2AF
:10AF700018EC5FF083EC5FF090EC5CF00001F26B9A
:10AF8000F36BF46BF56B12000CDA110EE126FF0E79
:10AF90000001F65D01E1C3DF200E0E01E76E00192E
:10AFA000E8AE02D0E73402D0E750005D01E259D1AB
:10AFB0006550020B01E055D1EDEC60F0000901E1B4
:10AFC00050D1DEDE0001F251F31102E1000E08D093
:10AFD000F2C0E9FFF3C0EAFFEF50800B01E0010E81
:10AFE000000901E03ED100016451430A01E117D19B
:10AFF000010A01E1EFD0030A01E1C9D0010A01E130
:10B00000A2D0730A01E17ED0010A62E0030A46E0A1
:10B01000010A28E0100A06E0A00A01E021D183EC31
:10B020005FF01ED1ABD902E1000E03D085D901E05B
:10B03000010E000901E014D1C30EC2141009C26E42
:10B040009E9CC2829EACFED7C3CFDEFFC4CFDDFF85
:10B050000001200EA46FDFCFA5F0DECF0BF0DDCF17
:10B060000CF06BD08BD902E1000E03D065D901E062
:10B07000010E000901E0F4D0E66A1BEC5FF0E55236
:10B08000020EF3CFDBFF030EF4CFDBFF0001300E27
:10B09000A46F020EDBCFA5F0030E4DD06FD902E1F5
:10B0A000000E03D049D901E0010E000901E0D8D01B
:10B0B000010E80D9040EF3CFDBFF050EF4CFDBFFCA
:10B0C0000001310EA46F040EDBCFA5F0050E33D0C6
:10B0D00055D902E1000E03D02FD901E0010E00097D
:10B0E00001E0BED0020E66D9060EF3CFDBFF070EDD
:10B0F000F4CFDBFF0001320EA46F060EDBCFA5F00C
:10B10000070E19D03BD902E1000E03D015D901E09A
:10B11000010E000901E0A4D0030E4CD9080EF3CFB4
:10B12000DBFF090EF4CFDBFF0001330EA46F080E26
:10B13000DBCFA5F0090EDBCF0CF00CC00BF00C6AD6
:10B140000BC0A6F080D01AD902E1000E03D0F4D8CB
:10B1500001E0010E000901E083D0020EFBD80B0EC6
:10B16000E7CFDBFF030EF6D80A0EE7CFDBFF0001C7
:10B17000400EA46F060E0B6E0B0E21D904E0E842C0
:10B180007F0BE706FCE10001A56F0A0E45D0F6D85B
:10B1900002E1000E03D0D0D801E0010E000960E109
:10B1A000040ED8D80D0EE7CFDBFF050ED3D80C0E5A
:10B1B000E7CFDBFF0001410EA46F060E0B6E0D0EF4
:10B1C000FED804E0E8427F0BE706FCE10001A56F32
:10B1D0000C0E22D0D3D802E1000E03D0ADD801E08E
:10B1E000010E00093DE1060EB5D80F0EE7CFDBFFDB
:10B1F000070EB0D80E0EE7CFDBFF0001420EA46FA2
:10B20000060E0B6E0F0EDBD804E0E8427F0BE7065C
:10B21000FCE10001A56F0E0EDBCFA6F014D0AED876
:10B2200002E1000E03D088D801E0010E000918E108
:10B23000080E90D8100EE7CFDBFF0001430EA46F7D
:10B24000100EDBCFA5F0400EE66EA40EE66E000EEB
:10B25000E66E010EE66ED2D8F3CFF4F0F4CFF5F03F
:10B260007FD8110EE15C02E2E16AE552E16E9ED008
:10B27000E7EF60F0EDEF60F0120012009CEF61F07C
:10B2800012001E0EE66E010EE66E27EC51F0E5523E
:10B29000E552B0EF59F065840001080EE46F070E27
:10B2A000E56FE407000EE55BE451E511FAE1659412
:10B2B000120077D8FD0EDBCF06F0FE0EDBCF07F0D5
:10B2C000720E061801E1075031E0E868061802E145
:10B2D0007F0E07182AE0740E061801E1075023E0DC
:10B2E000750E061801E107501CE0730E061801E107
:10B2F000075015E0030E061801E107500EE0020E9C
:10B30000061801E1075007E0010E06180FE107508B
:10B310000DE1B7DF0BD0B4DF09D0B0DF07D0ACDF71
:10B3200005D0A6DF03D0A6DF01D0A7DF010E3ED0F7
:10B3300051D8E66AE66A1200F4C0E9FFF5C0EAFFF8
:10B34000EF50800B1200060EE66E3E0EE66EC10E4A
:10B35000EAEF59F0E66E73EC5DF0E552E76E12002D
:10B36000400EE66E640EE66E000EE66EE66A010EB4
:10B3700045D8F3CFF2F0F4CFF3F012000001F4510E
:10B38000F5111200E66ADDEC5AF0E552E66AE66A6B
:10B39000E66A1200DACFE4FFE652E552E5CFDAFFC3
:10B3A0001200D9CFE6FFE1CFD9FF1200E552E7CF77
:10B3B000D9FF1200E66E1BEC5FF0E5521200DB5085
:10B3C0000BC0E7FFE7521200B3DF040E1FD8050ED3
:10B3D00006EF5AF0E66E67EC5BF00B6E050EE15E71
:10B3E0000B501200A5DF010EE66E1200A1DF020E67
:10B3F000E66E12009DDF030EE66E1200E66E4BEC69
:10B4000051F00B6E050EE15E0B501200E66ED00E91
:08B41000E66EC00E98EF59F042
:08B418000FDA020EE126FD0E21
:10B42000DBCF0BF0DB06FE0EDBCF0CF001E2DB0620
:10B430000B500C1010E0DE6ADD6ADECF0BF0DDCFC2
:10B440000CF0E30E0B5C0D0E0C58E9E2DF2A010E46
:10B45000F4E3DB2AF2D7020EE15C02E2E16AE55294
:10B46000E16EEFD1E9D9040EE1268D9296928D908E
:10B4700096908D8496948A9A939A8A8893988A98BB
:10B4800017DAE3D902E2F8D9FCD78A8811DADDD9D4
:10B4900002E2F2D9FCD7AE0EBAD9DB0EB8D9230E30
:10B4A000B6D9D90EB4D9220EB2D9A10EB0D9C80ED0
:10B4B000AED9DA0EACD9120EAAD9A80EA8D93F0E71
:10B4C000A6D9D50EA4D9A00EA2D9810EA0D9600EFE
:10B4D0009ED9D30E9CD9E66A0BDAA60E98D9AD0E8A
:10B4E00096D98B0E94D9E66A68D8E552AF0E8FD9FB
:10B4F000960EE66EE66A90DFE552E552A40E87D915
:10B50000400E85D9020E83D9100E81D9040EE15C5C
:10B5100002E2E16AE552E16E94D1D9CFE6FFE1CFD4
:10B52000D9FF956AFE0EDB508C6E8D808D828A9AD3
:10B530008D9400008D9200008D8200008D840000AB
:10B540009568E552E7CFD9FF1200D9CFE6FFE1CFEA
:10B55000D9FF956AFE0EDB508C6E8D808D828A9AA3
:10B560008D9400008D9200008D820000FD0EDB5056
:10B570008C6E00008D9200008D8200008D84000092
:10B580009568E552E7CFD9FF1200D9CFE6FFE1CFAA
:10B59000D9FF956AFE0EDB508C6E8D808D828A8A73
:10B5A0008D9400008D9200008D8200008D8400003B
:10B5B0009568E552E7CFD9FF12003ED9020EE12689
:10B5C000B00EDF6EB80EDF5C18E2DFCFE6FF90D979
:10B5D000E66A8ED9100E1BD9010EDB6ADB5076D9D4
:10B5E00001E679D908E2FE0EDBCFE6FFCEDFE552B9
:10B5F000010EDB2AF3D7DF2AE5D7020EE15C02E277
:10B60000E16AE552E16E1DD117D9200E0B6EFE0ED8
:10B61000DBCFE7FF0B50E75EFE0EE7CFDBFF020E4E
:10B6200001D9FD0EDBCFE6FF63D9FC0EDB500F0B1B
:10B63000EED8FC0EDB380F0B0F0B100FE8D8FB0E0B
:10B64000DB5022E064D9F6BEF768D3D80800F51CB9
:10B65000E1D8F6BEF768CDD8010E42D9F6BEF7683C
:10B66000C8D8020E3DD9F6BEF768C3D8030E38D944
:10B67000F6BEF768BED8040E33D9F6BEF768B9D85F
:10B68000050ECBD8F51C21D042D9F6BEF768B1D84B
:10B690000800F550BFD8F6BEF768ABD8010E24D924
:10B6A000F6BEF768A6D8020E1FD9F6BEF768A1D875
:10B6B000030E1AD9F6BEF7689CD8040E15D9F6BE4B
:10B6C000F76897D8050EA9D8F55026D9BAD013D95E
:10B6D00011E317D9FD0EE4D80DE0DF50F7D801E6ED
:10B6E000FAD808E2D3D8DCD8BDD801E3DB2A060EAD
:10B6F000DF26F0D7E552A5D0FED811E302D9FD0E22
:10B70000DED80DE0DF50E2D801E6E5D808E2BED889
:10B71000D6D8A8D801E3DB2A060EDF26F0D7E552FB
:10B7200090D08AD8050EE126030EDB6A040EDB6A90
:10B73000FC0EDB500B6E0C6A0C340AE20B508408D2
:10B74000000E0C5405E2840EF36EFC0EF3CFDBFF0B
:10B75000FB0EDB50400805E2400EF36EFB0EF3CF0C
:10B76000DBFF020E0B6EFA0EDBCFE7FF0B50E72676
:10B77000FA0EE7CFDBFFF90EDB50B00FDF6EFB0EEA
:10B78000DB50B00FDF5C2EE2DFCFE6FFB1D8FA0E60
:10B79000DB500F0B3CD8FA0EDB380F0B0F0B1009E8
:10B7A00036D8010EDB6AFC0EDB50F36E010EDBCFE8
:10B7B000F4FFF350F45C14E2030EDB2A040E01E301
:10B7C000DB2AFD0EDBCFF6FFDB2AFE0EDBCFF7FF19
:10B7D00001E3DB2A0800F5509FD8010EDB2AE3D7EE
:10B7E000DF2ACDD7050EE15C02E2E16AE552E16EA7
:10B7F00028D0060EF702F3CFF7FFF602F3CFF6FFDD
:10B80000F450F726940EF626BB0EF7221200E66ED1
:10B8100078EF5CF081D887EF5CF0F626000EF72217
:10B82000080012000B6EFC0EDBCFE7FF0B50E72683
:10B83000FC0EE7CFDBFF1200D9CFE6FFE1CFD9FF47
:10B840001200E552E7CFD9FF1200D9CFE9FFDACFD6
:10B85000EAFF640EEE5C000EEE58000EEE58000E8D
:10B86000EE581200E66ED0DEE552E552E552E552A2
:10B87000FD0EDB2AFE0E1200D9CFE9FFDACFEAFF78
:10B88000EE2A000EEE22EE22EE221200FA0EDBCF9E
:10B89000E6FFDFCFE6FFFC0EDBCFE6FFFD0E12007A
:10B8A000DBCFF6FFFE0EDBCFF7FF0800F5501200EE
:10B8B000DE6ADE6ADE6ADD6ADD52DD521200DBCF4F
:10B8C000E9FFFE0EDBCFEAFFEF5012000B6E0C6AB1
:10B8D000D8900C501200840E0B5C000E0C58120015
:10B8E0009CDFF51C0AEF5CF098DFF5500AEF5CF086
:10B8F00014DEE5521200A0DFE652FC0EDB50070812
:10B900001200FB0EDB50DF6EB00E12EF5CF0FE0E8D
:10B91000DBCFF6FFF76A1200E66E37DEE552120063
:10B92000D9CFE6FFE1CFD9FF030EE12659D8736ADC
:10B93000820E726E739C94949396958C7288728A20
:10B94000949EE66AD0D8E552E76E020EE7CFDBFFA1
:10B950000000D950020FE96EDACFEAFFEF50070B73
:10B96000020801E00000140EE66EBDD8E552E76E55
:10B97000020EE7CFDBFF020EDB96DB88020EDB80D8
:10B98000DB92DB94020EDBCFE6FF140EE66E3AD8B4
:10B99000E552E552010EE66EA6D8E552DE6EDD6A8E
:10B9A0000000110EE66E9FD8E552DE6EDD6A0000E3
:10B9B000E66A110EE66E26D8E552E5520000110E39
:10B9C000E66E91D8E552DE6EDD6A0000030EE15CA2
:10B9D00002E2E16AE552E16EE552E7CFD9FF1200DB
:10B9E000550EA76EAA0EA76E0E01FF91090ECC6F21
:10B9F0000A0ED36F170EFB6F550EA76EAA0EA76E19
:10BA0000FF811200D9CFE6FFE1CFD9FFE652DF6A0E
:10BA1000FE0EDB50140804E0FE0EDB50340806E195
:10BA2000140EE66E60D8E552E00BDF6E8B9EA49E8E
:10BA3000FE0EDB50756EA4AEFED7000000000000C5
:10BA400000000000000000000000000000000000F6
:10BA500000000000000000000000000000000000E6
:10BA600000000000000000000000000000000000D6
:10BA700000000000000000000000000000000000C6
:10BA800000000000000000000000000000000000B6
:10BA900000000000000000000000000000000000A6
:10BAA0000000000000000000000000000000000096
:10BAB00000000000000000000000A49EFE0EDB500D
:10BAC0000A0805E1FD0EDB507F0B756E04D0FD0EFC
:10BAD000DB50DF10756EA4AEFED78B8EE552E552BB
:10BAE000E7CFD9FF1200D9CFE6FFE1CFD9FF8B9E78
:10BAF000A49EFE0EDB508009756EA4AEFED700003A
:10BB00000000000000000000000000000000000035
:10BB10000000000000000000000000000000000025
:10BB20000000000000000000000000000000000015
:10BB30000000000000000000000000000000000005
:10BB400000000000000000000000000000000000F5
:10BB500000000000000000000000000000000000E5
:10BB600000000000000000000000000000000000D5
:10BB70000000000000000000000000000000A49E83
:10BB8000756AA4AEFED78B8E755000D0E552E7CF14
:04BB9000D9FF1200C7
:0CBB940000000000000000004F00000056
:10BBA000000700070000147F147F1400242A7F2A56
:10BBB0001200231308646200364955225000000524
:10BBC00003000000001C224100000041221C000074
:10BBD00014083E08140008083E0808000050300011
:10BBE000000008080808080000606000000020103D
:10BBF000080402003E5149453E0000427F400000DB
:10BC00004261514946002141454B31001814127FD1
:10BC100010002745454539003C4A4949300001712B
:10BC200009050300364949493600064949291E00DD
:10BC3000003636000000005636000000081422418D
:10BC4000000014141414140000412214080002010E
:10BC500051090600324979413E007E1111117E00E2
:10BC60007F49494936003E41414122007F414122FE
:10BC70001C007F49494941007F09090901003E41F3
:10BC800049497A007F0808087F0000417F41000091
:10BC90002040413F01007F08142241007F40404086
:10BCA00040007F020C027F007F0408107F003E41AD
:10BCB00041413E007F09090906003E4151215E00D5
:10BCC0007F091929460046494949310001017F0190
:10BCD00001003F4040403F001F2040201F003F40E8
:10BCE00038403F0063140814630007087008070019
:10BCF000615149454300007F4141000002040810A2
:10BD000020000041417F0000040201020400404085
:10BD100040404000000102040000205454547800C8
:10BD20007F48444438003844444420003844444860
:10BD30007F00385454541800087E090102000C5248
:10BD400052523E007F080404780000447D40000009
:10BD50002040443D00007F102844000000417F4007
:10BD600000007C04180478007C080404780038443F
:10BD7000444438007C1414140800081414187C007F
:10BD80007C0804040800485454542000043F4440F4
:10BD900020003C4040207C001C2040201C003C40F7
:10BDA00030403C004428102844000C5050503C00C7
:10BDB0004464544C440000083641000000007F00F9
:10BDC00000000041360800000201020402000000E9
:10BDD00000000000007F45454547444444447C0042
:03BDE0008081005F
:01BDE300005F
:0CBDE400030EB16EB392B390B396B28818
:10BDF000B28EB290B292A494B38E12002F0E926EB5
:10BE00000F01E00E486F1F0E496FC18EC19CC70E17
:10BE1000C1140809C16EF80EC1140209C16E498F20
:10BE2000C29CC29EC30EC2140809C26EC280120018
:10BE3000D9DFFEEF5EF0D9CFE6FFE1CFD9FF020EEA
:10BE4000E126FE0EDB500F0BF36EF346F346C30EF6
:10BE5000C214F310C26EFE0EDB50EA6AFC0FE96EEC
:10BE6000000EEA22EF503F0BF36EF346F346030E4B
:10BE7000B114F310B16EB38EB38200000000000065
:10BE800000000000000000000000000000000000B2
:10BE900000000000000000000000000000000000A2
:10BEA0000000B392B280000000000000000000001B
:10BEB0000000000000000000000000000000000082
:10BEC0000000000000000000000000000000B29030
:10BED0009E9CC2829EACFED7C3CFDEFFC4CFDDFFE7
:10BEE000DECF0BF0DDCF0CF00BC0F3FF0CC0F4FF86
:10BEF00000D0020EE15C02E2E16AE552E16EE55239
:10BF0000E7CFD9FF1200D9CFE6FFE1CFD9FF030E6B
:10BF1000E126020EDB6A040EF36E020EDBCFF4FFA5
:10BF2000F350F45C21E22AD8EF6A30D80CE226D82C
:10BF3000EF501F0803E122D8EF6A13D01FD8EF2A71
:10BF400025D8F5E30ED02CD80CE218D8EF50E10834
:10BF500003E114D8EF6A05D011D8EF062BD820D80A
:10BF6000F4E3020EDB2AD7D7030EE15C02E2E16ABA
:10BF7000E552E16EE552E7CFD9FF1200020EDB5029
:10BF8000EA6AFC0FE96E000EEA22120013D8DECF37
:10BF90000BF0DDCF0CF0200E0B5C030E0C581200E2
:10BFA000D9CFE9FFDACFEAFF200ED880EE54030E96
:10BFB000ED541200020EDBCFE6FF3DDFE552F3CF7A
:08BFC000DEFFF4CFDDFF1200EB
:08BFC800202064656D6F206DFF
:10BFD000656E752E2020202020202020200020208B
:10BFE000746F2072657475726E20746F207468654A
:10BFF00020202000486F6C6420746865206D656E99
:10C000007520627574746F6E20002020616E64204C
:10C01000706F74656E74696F6D657465722E200043
:10C020002020706164732C20616363656C65726F9E
:10C030006D6574657200202066726F6D207468658E
:10C0400020636170616369746976650020207265A0
:10C050006164696E67207261772064617461202079
:10C060002000546865205043206170706C696361E2
:10C0700074696F6E20697300202048494420506E17
:10C08000502044656D6F2E657865202020002020AB
:10C09000616E642072756E207468652020202020F7
:10C0A00020202000202074686520686F737420634E
:10C0B0006F6D7075746572202000436F6E6E6563DE
:10C0C000742074686520626F61726420746F200050
:10C0D0002020202020202020202020202020202060
:10C0E00020202020200020206465766963652E20B2
:10C0F000202020202020202020202000202061201F
:10C1000055534220637573746F6D20484944202055
:10C1100020002020626F6172642077696C6C20615E
:10C120006374206C696B6500496E207468697320C4
:10C1300064656D6F2C20746865202020200050728B
:10C14000657373204D656E7520746F2070726F6318
:10C150006565640048494420437573746F6D2044DD
:10C16000656D6F2076312E302000205049433138E4
:10C17000462053746172746572204B6974202000EC
:10C180000E0140B123D040838B809490550EA76E52
:10C19000AA0EA76E0E01FF910E0ED16F550EA76E5F
:10C1A000AA0EA76EFF810F0EBA6ECF0EBA14000949
:10C1B000BA6E100EBB6E0F01526B800ECB6E040E6A
:10C1C000CA6EA4960A0E776E7F0E766E12000E016E
:10C1D000409140938B80949012000E0140A109D0B1
:10C1E0008B50010B04E19450010B01E1010C4091D3
:10C1F000C7DF0E0140A3C4DFA4A63AD0A496BA506C
:10C20000300BE842E842E842E842030819E1500EE8
:10C21000BB5C10E18B909490BA6ACA6A0E01D16B34
:10C220000F01526BCB68766A7768A4960E01408145
:10C230004093010CBB2ACF0EBA140009BA6E000C51
:10C24000BA0EE96E0F0EEA6EEF50300BE842E8428C
:10C25000E842E842E82AE850030BF36EF46EF34636
:10C26000F346F346F346CF0EEF14F310EF6EF4509F
:02C27000000CC0
:0EC272001201000200000008D8045E00000166
:10C280000102000109022900010100809609040051
:10C29000000203000000092111010001221D000716
:10C2A0000581034000010705010340000104030963
:10C2B0000434034D006900630072006F006300687E
:10C2C0000069007000200054006500630068006E83
:10C2D000006F006C006F0067007900200049006E5D
:10C2E0000063002E002E03530069006D0070006C87
:10C2F000006500200048004900440020004400651B
:10C300000076006900630065002000440065006D50
:10C31000006F000600FF0901A10119012940150065
:10C3200026FF00750895408102190129409102C03D
:08C3300084C2ADC2B1C2E5C236
:08C33800040120511F0B010854
:10C3400001E01200245101E01200060E215D1BE104
:10C350002351230A18E0010A0CE0030A14E10E013C
:10C36000010511E10E01960E116FC20E126F090E3A
:10C3700006D00E01130E116FC30E126F1D0E146F37
:10C38000156BC00E136F04012051600BE842E842A8
:10C39000E842E842E842010801E0120021510B0A9C
:10C3A00026E0080A19E0090A11E0080A05E00B0A6C
:10C3B00023E0080A21E012000E013E0E116F0E0E5E
:10C3C000126F010E146F156BC10E0FD00E01800E8F
:10C3D000136F23C43EFE12000E013F0E116F0E0EAE
:10C3E000126F010E146F156B810E136F12000E0188
:0AC3F000800E136F22C43FFE1200FE
:06C3FA001E0EF66EA00EFF
:10C40000F76E000EF86E0E010900F550336F09004B
:10C41000F550346F03E1336701D03DD00900F5508A
:10C420002E6F0900F5502F6F0900F550306F09008D
:10C430000900F550E96E0900F550EA6E090009009F
:10C440000900F550316F0900F550326F09000900FD
:10C45000F6CF35FEF7CF36FEF8CF37FE2ECEF6FFFD
:10C460002FCEF7FF30CEF8FF0E01315302E13253E9
:10C4700007E00900F550EE6E3107F8E23207F9D710
:10C4800035CEF6FF36CEF7FF37CEF8FF0E01330775
:08C49000000E345BBFD712005F
:08C49800FE0EE3CFE9FFFF0EE9
:10C4A000E3CFEAFFE9CFF3FFEACFF4FFFB0EE3505F
:10C4B00003E1FC0EE35009E0FB0EE30602E2FC0E92
:0CC4C000E306FD0EE350EE6EF1D7120013
:04C4CC00C00EF36E3D
:10C4D00000EE00F00E0E01D81200EA6002D0EE6A03
:0CC4E000FCD7F350E9601200EE6AFCD7B4
:04C4EC001DEE00F051
:10C4F0002DEE00F0F86A0A9CFDEC61F003EC50F0C0
:08C50000BBEC56F0FBD7120062
:08C5080000000000000000002B
:03C5100000000028
:01FFF800AA5E
:01FFF900F710
:01FFFA001FE7
:01FFFB00FF06
:01FFFC0063A1
:01FFFD00F80B
:01FFFE008181
:01FFFF00F110
:00000001FF
