:020000040000FA
:060000008AEF63F012001C
:0600080004EF50F01200AD
:060018000CEF50F0120095
:06A000008AEF63F012007C
:02A00600120046
:06A00800A4EF56F0120067
:02A00E00000050
:02A0100000004E
:06A01800A6EF56F0120055
:02A01E0002003E
:10A020000EA00000CD00000004000000AFC300003F
:08A03000D30000000100000054
:08A038006FEC56F0A098636A7A
:10A04000626A0F01266B69EC56F00F0104EC56F0C2
:10A05000DF6ADF50106E116A080E105C000E115896
:10A0600010E2DF50040DF3CFE9FFF4CFEAFF000E5A
:10A07000E926040EEA22EE6AEE6AEE6AEE6ADF2A4A
:10A08000E8D7658C0F01386B6598659C62A607D090
:10A0900062960001736B786B796B7A6BF7D700016E
:10A0A000010E8A6F8B6F8C6B8D6B806BDF6A020E7B
:10A0B000DF5C11E2EA6ADF3472EC56F0EA22EE6A03
:10A0C000ED6AEA6ADF3479EC56F0EA22EE6AED6A6C
:10A0D000BDEC55F0ECD70001080E6B6F040E6C6FF1
:10A0E0000F01160E266F0401200E026F040E036F7F
:10A0F000080E016F840E006F0001616B606BE5520A
:10A100008FEF55F06FEC56F0000160510CE1656A7D
:10A110000F01366B04EC56F065B602D06586FCD7AD
:10A120000001010E606F60050AE165BA08D0626A3D
:10A130000F01366B368136890001020E606F625066
:10A14000040B06E00F013651040B02E0629429DB98
:10A1500065B242D06250010B09E00F013651010B8C
:10A1600005E06ADF0001040E606F62906250100B20
:10A1700006E00F013651100B02E008DB629862AC7A
:10A1800009D00F0136AD05D00BEC56F0730E7CEC08
:10A1900055F0629C6250200B05E00F013651200BF8
:10A1A00001E0E3DA6250020B0CE00F013651020BC2
:10A1B00008E00BEC56F0E6687F0EE66E80EC56F099
:10A1C000636A040E0001E76E6019E8AE02D0E7345E
:10A1D00002D0E750605D02E2A1982FD00F0136A7B0
:10A1E0002BD0DF6A040EDF5C27E262A625D064CFA5
:10A1F00081F000018151780BE842E842E842826F29
:10A20000629681B504D0825187EC56F003D082511A
:10A210008CEC56F0EA22EF70825102E1CFDA0AD0DC
:10A22000000EE66EE66A810EE66E000EE66E720EB7
:10A230007CEC55F0DF2AD6D7A198E5528FEF55F088
:10A2400043EC56F0FD0EDBA403D0E66AF4EC55F0C7
:10A25000FD0EDBA204D0010EE66EF4EC55F0FE0E0E
:10A26000DB50116A260F106E0F0EEEEC55F080ECED
:10A2700055F0FD0EDBCFEFFF020EE15C02E2E16A7A
:10A28000E552E16E8FEF55F043EC56F0FD0EDB50DA
:10A2900003E077EC55F002D0AEEC55F0DAEC55F077
:10A2A000D9CFE9FFDACFEAFFEE50ED1003E1F36A10
:10A2B000F46A28D080EC55F09BEC56F0FB0EDBCF17
:10A2C000EEFFFC0EDBCFEDFF80EC55F0EE52FA0E08
:10A2D000DBCFEFFF400E91EC56F0880EA0EC56F06D
:10A2E000FD0EDB5003E077EC55F002D0AEEC55F0FC
:10A2F000EA22EF74DECF10F0DDCF11F010C0F3FFD3
:10A3000011C0F4FF020EE15C02E2E16AE552E16E87
:10A310008FEF55F043EC56F0FE0EDB5003E151ECAD
:10A3200056F009D0B3EC55F031EC56F0B3EC55F0E3
:10A33000010F31EC56F0020EE15C02E2E16AE552F7
:10A34000E16E8FEF55F0E6DB65A816D062EC56F0B3
:10A35000400EEE16EE6AEE6AEE6A62EC56F0EE7CA5
:10A36000C6DBEA22EF74400E106E62EC56F010501D
:10A37000EF1662EC56F0EF7CD2D300018A5122E155
:10A38000010E8A6F8B511EE1010E8B6F020E705D04
:10A3900007E1BBDBEE52EF6AB8DBC80EEF6E1200CE
:10A3A000700510E1836BC7DBEE52080EEF6EC3DB66
:10A3B0003DEC56F0C0DB840EEF6E010E836F93DB35
:10A3C000800EEF6E120000018C6B8D6B020E705DC3
:10A3D00006E195EC56F0B4DB2CEC56F010D074513D
:10A3E0000401265D000175510401275904E226C4C9
:10A3F00074F027C475F061D888DBA2DB86DBC80E59
:10A40000EF6E120043EC56F0000EDE6E040EDD6EB1
:10A41000AADB040DF4CF11F0D9CFE9FFDACFEAFFC0
:10A42000F350EE261150ED226BDBEF9EFD0EDB505C
:10A4300002E194DB01D05BDBEA22DECFEEFFDDCF71
:10A44000EDFF5EDBEF9C5CDB040EE926000EEA22EA
:10A45000EF8C020EE15C02E2E16AE552E16E5FD34D
:10A460006598000173BF0DD078AF09D0020E706FF0
:10A470008D5101E1A8DF00018B6B8A6B120051EF57
:10A4800056F0040120AF0DD00001010E706F8C5109
:10A4900001E199DF00018B6B8A6B89510DE1BDEF02
:10A4A00051F00001020E706F1EDB840EEF6E8B6B9D
:10A4B0008A6B895101E161DF12006FEC56F0080EE2
:10A4C000DF6E0001745D000E75590AE274C0DFFF93
:10A4D0006F5102E1010E03D06F0502E1020E6F6FB2
:10A4E000DF50116AE850745D746F11507559756FC3
:10A4F0000CDBEE52DFCFEFFF280E7D6F040E7E6F78
:10A5000073B10DD0DF5017E071C0F6FF72C0F7FFD6
:10A51000712B000E72230800F5503FDBF3D7DF509C
:10A520000AE071C0E9FF72C0EAFF712B000E7223CE
:10A53000EF5033DBF4D7E552F2D2A5DBFCDAEE5272
:10A54000EFCFDFFFDFCF10F010500001795D000E7C
:10A550007A5902E279C0DFFFDF50106E116AE850CD
:10A56000795D796F11507A597A6F010EDB6ADF508D
:10A57000F36E010EDBCFF4FFF350F45C16E2010E34
:10A58000DB50EA6A280FE96E040EEA22EF50E66E0D
:10A5900076C0E9FF77C0EAFF762B000E7723E552FD
:10A5A000E750EF6E010EDB2AE2D7000ED880795516
:10A5B000000E7A550DE2B9DBC3DABDDAEF50400B7D
:10A5C00003E14ADBC80E02D047DB880EEF6E12D0E3
:10A5D0008ADA840EEF6E7B517C1107E005D07CC0D7
:10A5E000FAFF00017B51F96EFADF0001789F895173
:10A5F00001E1C3DE020EE15C02E2E16AE552E16ED6
:10A600008ED26DDB0001738F64DB200EE66EE66A8E
:10A61000E66A000EE66E040E99DA658CDF6A020EB9
:10A62000DF5C02E2AADAFBD712DB620EE66E000EF6
:10A630008DDA659C0001080E6B6F040E6C6F000EC6
:10A64000636F040E646F63C065F0666F22C461F0CF
:10A65000615102E1100E0BD0010EE66EE66A610E4A
:10A66000E66E000EE66E010E47DA0001200E606F06
:10A67000E55255D2800E0401205D3BE10001C00E81
:10A68000736F04012351030A1DE0010A09E0030A64
:10A690002EE10001BC0E716FC20E726F120E21D03E
:10A6A000010E225D21E2C5DA5D0EF626C30EA4DAA4
:10A6B000020E0001B7DAF5CF74F0030EB3DAF5CF6E
:10A6C00075F01200030E225D0FE2B3DA5F0EF6267C
:10A6D000C30E92DA71C0F6FF72C0F7FF0800F550A2
:10A6E0000001746F756B12000001736B12000001A2
:10A6F000736B1200C8DA0401286B296B20511F0B01
:10A70000020A11E0030A0CE0010A1EE10001738F46
:10A710000401288100017F0517E10401288314D07A
:10A720000001738F11D00001738F040124BF02D088
:10A73000BFDA01D0C2DA3EDAC8DA06E0E1D9EF507A
:10A74000040B02E0010E286F000173AF07D0280E42
:10A75000716F040E726F7381020E746F020EE15CF2
:10A7600002E2E16AE552E16EDAD10F0126A10CD0D6
:10A77000E2D9EF50800807E1C8D9EF50840803E11F
:10A78000DAD98C0EEF6E2691629A12000F0136858F
:10A79000629865820001010E806F12DA750E7CEFFF
:10A7A00055F00001806B0CDA740EA6D965920F018A
:10A7B000369562A402D06294FCD7120090DAFD0EA6
:10A7C0000001811539E17E0E8115E8407F0B040DF3
:10A7D000F3CF63F0F4CF64F0000E6327040E64231C
:10A7E00063C065F064C066F06575A5D9EF503C0B99
:10A7F000E842E8420D081EE1DF6A080EDF5C16E25F
:10A800009AD9020EE926000EC2D9EF50E66EDF504B
:10A81000EA6A200FE96E040EEA22E552E750EF6E75
:10A820008AD989DAEE2AEF22DF2AE7D784D925DA16
:10A830000AD807D023D805D0FD0E8115040801E100
:10A840002CD8E5526CD100016F6B896B8C6B8D6BD2
:10A85000836B706B5AD9EF9E6B7557D9EF9E6B75F2
:10A86000FBD9EF9E736B746B756B786B796B7A6B3E
:10A8700051D8A6D9030E40D930EF52F0020E000194
:10A88000705D02E19DEF52F0706B835104E12BD9B2
:10A890008C0EEF6E1200836B120021DA36D9EF5066
:10A8A000400B01E0010EDF6E00016B75080E605D6C
:10A8B0000BE122C438FF0F01385103E00001100EF4
:10A8C00002D00001040E606F700513E11ED938D963
:10A8D000F4DD020E00016F5D03E117D9840E07D08D
:10A8E000DF5003E112D9C80E02D00FD9880EEF6EE7
:10A8F0000FD078AF0CD07B517C1107E005D07CC025
:10A90000FAFF00017B51F96EFADF0001789F706B4E
:10A91000E55205D104012051600BE842E842E842CB
:10A92000E842E842000901E0120021510C0A45E02A
:10A930000B0A3FE00C0A31E0010A22E00B0A1EE09C
:10A94000020A1CE0030A18E0080A10E0010A0CE001
:10A950000F0A08E0030A01E012000001738F080EDD
:10A96000606F12003AEF53F001EF53F00001610EF7
:10A97000716F000E726F0CD07AEF53F0DEEF54F06F
:10A9800024510001716F726B620E7127000E7223E9
:10A990007381010E746F738F12000001738F0401B5
:10A9A0002451EA6A620FE96E000EEA2222C4EFFF28
:10A9B000120006D9020E7CEF55F01200ABD8050E3E
:10A9C000E1260401220510E120511F0B00090CE1D2
:10A9D0000001738F030E0401215D04E10001010EEB
:10A9E0007F6F02D000017F6B0401225101E074D01F
:10A9F00020511F0B020870E124510F0B00096CE07D
:10AA000024510F0B010868E3200E0001605D64E132
:10AA1000738F040124BF04D04BD9CCD8D7D803D02E
:10AA20004CD9C8D8D7D8EA22020EEFCFDBFF08D91D
:10AA3000010B03E1000EDF9401D0DF8424BF02D0BC
:10AA400037D901D03AD9EA22DECFEEFFDDCFEDFFD4
:10AA5000030E215D0CE139D907E024BF02D0B6D83E
:10AA600001D0B8D8EA22EF82840E6AD935D0DF74DB
:10AA70002CD906E045D8EF9E43D8EF8C08D902D0F8
:10AA80003FD8EF8CDF74DCD8020B02E11ED90DE059
:10AA9000040124BF02D09AD801D09CD8EA22EF92B8
:10AAA0003B0E106E3ED9F3D802D03B0E3AD90401CA
:10AAB00024510F0B116A260F106E0F0E1122030E78
:10AAC00010C0DBFF040E11C0DBFF030EDBCFE9FF7C
:10AAD000040EDBCFEAFFEF90050EE15C02E2E16AD3
:10AAE000E552E16E1CD021D9C8D82CEF56F0FE0EED
:10AAF000EA6ADB3472EF56F0E66EE66A80EF56F0F3
:10AB0000DECFE9FFDDCFEAFF12006BC0E9FF6CC0CA
:10AB1000EAFF1200D9CFE6FFE1CFD9FF1200E552DC
:10AB2000E7CFD9FF120024510F0BE96EEA6AD890E3
:10AB3000E936EA36120063C0E9FF64C0EAFF12009A
:10AB4000FAD8280EEE6E040EED6E1200E66E4AEC98
:10AB500063F0106E050EE15E10501200FE0EEA6A00
:10AB6000DB3479EF56F0FD0EDB50E824126EFE0E5A
:10AB7000DB50040DF35012241200DF50CDD8EA222E
:10AB8000EF6ADF50C4D8EA22EF6ADF2A1200EA2215
:10AB9000EE50EFCFEAFFE96E1200E66E7DC0E9FFEE
:10ABA0007EC0EAFF7D2B000E7E23E552E750EF6E5C
:10ABB000DF061200EA22EECFDEFFEDCFDDFF12004E
:10ABC000000EE66EE66AE66EE66A120024510F0B8E
:10ABD00087EF56F024510F0B8CEF56F0112210C066
:10ABE000DEFF11C0DDFF1200FE0EDBCFE6FF02EC40
:10ABF00052F0E552E5521200F7220900F5CF71F04C
:10AC00000A00F5CF72F01200160E396F9F0E376FE3
:10AC10007B0E366F1200010EE66EE66A000EE66EDF
:10AC2000E66A1200F76A7125F66E7251F722080083
:10AC300012002251F66EF76AD890F636F7361200F7
:10AC4000D950020FE96EDACFEAFFEF501200010E81
:10AC5000E66EE66AE66A120065C0E9FF66C0EAFFD2
:10AC60001200040DF3CF10F0F4CF11F0000E1026F7
:10AC7000040EB4DF840EA0EF56F05DD8200EEE6E09
:10AC8000040EED6E120046DF020EE1261200020EE7
:10AC9000E66EE66ADECFE6FFDDCFE6FF050E7CEF6F
:10ACA00055F021DF8C0EEF6E30DF840EEF6E120058
:10ACB0003ADF670EE926000E120035DF6B0EE9263B
:10ACC000000E120014DFC7EF55F01ADFEF50800BB3
:10ACD0001200BDDF270EE66E0F0EA6EF55F01ADF4D
:10ACE000E6521200FE0BEA36E96E6B0EE926000E04
:10ACF0001200FE0BEA36E96E670EE926000E12001E
:10AD00008FEC59F0106E060EE15E10501200EA6AE8
:10AD1000860FE96E000E1200EA6A840FE96E000EDB
:10AD20001200EEDEE850EF16120096DFEE52080E2B
:10AD3000EF6E2CEF56F0020EE926000EEA2212000A
:08AD4000DFDEE850EF12120003
:08AD4800B4DB1100D8CFE4FFD9
:10AD5000E0CFE4FFE46EADDBE550E5CFE0FFE5CF0B
:10AD6000D8FF1000C6D882EC50F0EFD8FCD7000115
:10AD7000CE51080A01E18BD00F0A01E182D0010A0D
:10AD80005EE0030A58E0010A31E0070A2BE0010AFD
:10AD900018E0030A11E0010A01E091D0BAEC5AF080
:10ADA00070DBC10EE66EC00EA2DBAB0EE66EC00E0F
:10ADB000B8DB0001010E3DD084D8010801E080D04D
:10ADC00063D05FDB7F0EE66EC00E91DB690EE66E30
:10ADD000C00E91DB530EE66EC00E79DBE6DA0001A1
:10ADE000030E27D06ED801086BE14ED0E66AE66A02
:10ADF000E66A270EE66EC00E7ADB110EE66EC00E16
:10AE00007ADBFB0EE66EBF0ECCDA030EE66EE50EC5
:10AE1000E66EBF0EC6DA040EE66ECF0EE66EBF0E0D
:10AE2000C0DA050EE66EB90EE66EBF0E7ADB0001E3
:10AE3000050ECE6F120045D8010842E125D0E66A22
:10AE4000E66AE66AA30EE66EBF0E51DB8D0EE66E75
:10AE5000BF0E51DB770EE66EBF0EA3DA030EE66E71
:10AE6000610EE66EBF0E9DDA040EE66E4B0EE66EC8
:10AE7000BF0E97DA050EE66E350EE66EBF0E51DB9D
:10AE800003D01FD801081CE10001CE2B1200E66A96
:10AE9000E66AE66A1F0EE66EBF0E29DB090EE66E55
:10AEA000BF0E29DBF30EE66EBE0E11DB060EE66E5C
:10AEB0003D0EE66EC00E13DB0001CE691200CE6BB4
:10AEC000120081B008D00001D06BCF5103E1010E18
:10AED000CF6F010C000C320E0001D05D02E2D02BCE
:10AEE000000CCF6B000CEDDF010801E1FF0000D08A
:10AEF0001200C2DA020EE1260F0EC112580EDE6EEB
:10AF0000020EDD6E9B8CDFCF10F0DF06010EDBCF73
:10AF100011F001E2DB0610501110F5E10F01486954
:10AF20003F0E496F08D81CEC50F0020EE15C02E2C3
:10AF3000E16AE5529CD292EC60F0FDEC60F018EC16
:10AF40005DF000019A6B9B6B1200FF0E0001CE5D5D
:10AF500001E1C9DF200E0001E76E6019E8AE02D002
:10AF6000E73402D0E750605D0BE36550020B01E06F
:10AF7000120005EC62F0000901E11200F8DE01D8D0
:10AF800012007ADA120EE126070EDB6A080EDB6A7F
:10AF9000090EDB6A0A0EDB6A0B0EDB6A0C0EDB6A3B
:10AFA000200E0001E76E6019E8AE02D0E73402D04F
:10AFB000E750605D01E26DD16550020B01E069D19F
:10AFC000020E3CDADF6E030E39DADF6E040E97DA1A
:10AFD000050E95DA060E99DA070E97DADF500CE1C6
:10AFE000010EDB5009E1020EDB5006E10001800E8C
:10AFF000946F936F926F8DD0020EDB5001E189D078
:10B000000001926B100EDB6ADFCF10F0103409E301
:10B01000FF0EDF02F350DF6E010EF36E100EF3CF62
:10B02000DBFF020EDBCF12F0136A12BE1368DFCF14
:10B0300010F0116A10BE1168070ED8901036113644
:10B04000E806FBE100DA030E08C0DBFF040E09C0CE
:10B05000DBFF0F0EDB6A1DDA17E2030EDBCF10F009
:10B06000040EAAD90EE2100EDB0405E1D0D928DACD
:10B0700010C094F009D0CBD9800E10240001946F39
:10B0800003D00F0EDB2AE7D7100EDB6A010EDBCFF1
:10B0900010F010340AE3010EDB50FF0D010EF3CF68
:10B0A000DBFFF36E100EF3CFDBFF020EDBCF12F0EF
:10B0B000136A12BE1368010EDBCF10F0116A10BEC6
:10B0C0001168070ED89010361136E806FBE1BBD99F
:10B0D000050E08C0DBFF060E09C0DBFF0F0EDB6AA2
:10B0E000D8D917E2050EDBCF10F0060E65D90EE2B7
:10B0F000100EDB0405E18BD9E3D910C093F009D021
:10B1000086D9800E10240001936F03D00F0EDB2A26
:10B11000E7D793C0A0F094C0A1F0110EDB6ADB501A
:10B1200010080BE3010E99D9070FBBD9020E95D970
:10B13000090FB7D9110EDB2AF2D7100E106E116A63
:10B14000070EDBCF08F0080E6AD9070E08C0DBFF38
:10B15000080E09C0DBFF100E106E116A090EDBCF5E
:10B1600008F00A0E5CD9090E08C0DBFF0A0E09C000
:10B17000DBFF090EDBCF12F00A0EDBCF13F0070E58
:10B18000DB50125C106E080EDB501358116E0B0E64
:10B1900010C0DBFF0C0E11C0DBFF49D9D890103670
:10B1A0001136030E0D6E0E6A10C008F011C009F0C2
:10B1B00001EC63F00B0E08C0DBFF0C0E09C0DBFFD7
:10B1C00036D911340DE310508108FF0E115408E3F5
:10B1D000810EF36E0B0EF3CFDBFF0C0EDB6810D08D
:10B1E00026D9D890115004E67F0E105C000E11583D
:10B1F00007E37F0EF36E0B0EF3CFDBFF0C0EDB6A63
:10B2000016D97F0E10240001A26F49D80D0EF3CF7E
:10B21000DBFF0E0EF4CFDBFF040E106E116A0D0E75
:10B22000DBCF08F00E0EFBD808C0A3F0E66ADBD82F
:10B2300003E300019D8302D000019D93030EE66E9F
:10B24000D2D803E300019D8102D000019D919D951C
:10B250009D979D999D9B9D9D9D9F9E919E939E8751
:10B260009E859E999F919F939F959F97070EE66E4F
:10B270009D0EE66E000EE66E010EE66EE66E44EC86
:10B2800051F0106E050EE15E1050F3CF9AF0F4CF3E
:10B290009BF0120EE15C02E2E16AE552E8D0ECD8E4
:10B2A000020EE126928A0F014899C30EC2141009BA
:10B2B000C26EC282C2B2FED7C350DF6E010EC4CFCF
:10B2C000DBFFDECF10F0DDCF11F010C0F3FF11C0B7
:10B2D000F4FF020EE15C02E2E16AE552C8D0FFEF42
:10B2E00061F005EF62F01200120051EF62F01200FF
:10B2F0001E0EE66E010EE66E20EC51F0E552E552B0
:10B30000120065840001080EAC6F070EAD6FAC072C
:10B31000000EAD5BAC51AD11FAE165941200ACD8F2
:10B32000FD0EDBCF08F0FE0EDBCF09F0720E081821
:10B3300001E1095031E0E868081802E17F0E0918C0
:10B340002AE0740E081801E1095023E0750E081870
:10B3500001E109501CE0730E081801E1095015E0E5
:10B36000030E081801E109500EE0020E081801E171
:10B37000095007E0010E08180FE109500DE1B8DF90
:10B380000BD0B5DF09D0B1DF07D0ADDF05D0A7DF27
:10B3900003D0A7DF01D0A8DF010EE552E7CFD9FF28
:10B3A00012009DD8E66AE66A1200060EE66E950E59
:10B3B000E66EC00E6FEF5AF0DBCF11F00F0EF76A9A
:10B3C000DB34FE0BF736F66E4E0EF626C60EF7226F
:10B3D0000900F5CF12F00800F5CF13F01250105C01
:10B3E00013501158120095EC60F0E552070EF3CFA0
:10B3F000DBFF080EF4CFDBFFD950070FE96EDACF81
:10B40000EAFF580ED880EE54020EED5412000F0ED3
:10B41000DB50070DF350FE0BE842106E1200DBCF3D
:10B4200009F010C00DF011C00EF064EF63F00B0EC8
:10B43000DBCF10F00C0EDBCF11F01200E66EFBEC50
:10B440005DF0E552120010C008F011C009F012C002
:10B450000DF013C00EF001EF63F0E66E95EC60F0B6
:10B46000E552F3CF10F0F4CF11F0D9501200E16E95
:10B47000E552E7CFD9FF1200D9CFE6FFE1CFD9FFE0
:10B480001200E66A65EC5BF0E552E66AE66AE66A97
:10B490001200230EF36E0F0EDBCFF4FFF350F45CBB
:10B4A0001200E96EDACFEAFFF350EE261150ED22DA
:10B4B0001200DACFE4FFE652E552E5CFDAFF1200E0
:10B4C000116A800ED8801056000E1156120069DFE6
:10B4D000030E21D8040E1FD8050E8BEF5AF0E66E2E
:10B4E000EFEC5BF0106E050EE15E1050120059DFBC
:10B4F000010EE66E120055DF020EE66E12009EDFB0
:10B50000E76E010EE7CFDBFF120098DFE76E020E59
:10B51000E7CFDBFF1200E66E3D0EE66EC00ED1EF08
:08B5200059F03FDFD5EF59F0AF
:08B528000FDA020EE126FD0E10
:10B53000DBCF10F0DB06FE0EDBCF11F001E2DB0605
:10B540001050111010E0DE6ADD6ADECF10F0DDCFA2
:10B5500011F0E30E105C0D0E1158E9E2DF2A010E26
:10B56000F4E3DB2AF2D7020EE15C02E2E16AE55283
:10B57000E16EEFD1E9D9040EE1268D9296928D907D
:10B5800096908D8496948A9A939A8A8893988A98AA
:10B5900017DAE3D902E2F8D9FCD78A8811DADDD9C3
:10B5A00002E2F2D9FCD7AE0EBAD9DB0EB8D9230E1F
:10B5B000B6D9D90EB4D9220EB2D9A10EB0D9C80EBF
:10B5C000AED9DA0EACD9120EAAD9A80EA8D93F0E60
:10B5D000A6D9D50EA4D9A00EA2D9810EA0D9600EED
:10B5E0009ED9D30E9CD9E66A0BDAA60E98D9AD0E79
:10B5F00096D98B0E94D9E66A68D8E552AF0E8FD9EA
:10B60000960EE66EE66A90DFE552E552A40E87D903
:10B61000400E85D9020E83D9100E81D9040EE15C4B
:10B6200002E2E16AE552E16E94D1D9CFE6FFE1CFC3
:10B63000D9FF956AFE0EDB508C6E8D808D828A9AC2
:10B640008D9400008D9200008D8200008D8400009A
:10B650009568E552E7CFD9FF1200D9CFE6FFE1CFD9
:10B66000D9FF956AFE0EDB508C6E8D808D828A9A92
:10B670008D9400008D9200008D820000FD0EDB5045
:10B680008C6E00008D9200008D8200008D84000081
:10B690009568E552E7CFD9FF1200D9CFE6FFE1CF99
:10B6A000D9FF956AFE0EDB508C6E8D808D828A8A62
:10B6B0008D9400008D9200008D8200008D8400002A
:10B6C0009568E552E7CFD9FF12003ED9020EE12678
:10B6D000B00EDF6EB80EDF5C18E2DFCFE6FF90D968
:10B6E000E66A8ED9100E1BD9010EDB6ADB5076D9C3
:10B6F00001E679D908E2FE0EDBCFE6FFCEDFE552A8
:10B70000010EDB2AF3D7DF2AE5D7020EE15C02E265
:10B71000E16AE552E16E1DD117D9200E106EFE0EC2
:10B72000DBCFE7FF1050E75EFE0EE7CFDBFF020E38
:10B7300001D9FD0EDBCFE6FF63D9FC0EDB500F0B0A
:10B74000EED8FC0EDB380F0B0F0B100FE8D8FB0EFA
:10B75000DB5022E064D9F6BEF768D3D80800F51CA8
:10B76000E1D8F6BEF768CDD8010E42D9F6BEF7682B
:10B77000C8D8020E3DD9F6BEF768C3D8030E38D933
:10B78000F6BEF768BED8040E33D9F6BEF768B9D84E
:10B79000050ECBD8F51C21D042D9F6BEF768B1D83A
:10B7A0000800F550BFD8F6BEF768ABD8010E24D913
:10B7B000F6BEF768A6D8020E1FD9F6BEF768A1D864
:10B7C000030E1AD9F6BEF7689CD8040E15D9F6BE3A
:10B7D000F76897D8050EA9D8F55026D9BAD013D94D
:10B7E00011E317D9FD0EE4D80DE0DF50F7D801E6DC
:10B7F000FAD808E2D3D8DCD8BDD801E3DB2A060E9C
:10B80000DF26F0D7E552A5D0FED811E302D9FD0E10
:10B81000DED80DE0DF50E2D801E6E5D808E2BED878
:10B82000D6D8A8D801E3DB2A060EDF26F0D7E552EA
:10B8300090D08AD8050EE126030EDB6A040EDB6A7F
:10B84000FC0EDB50106E116A11340AE210508408AD
:10B85000000E115405E2840EF36EFC0EF3CFDBFFF5
:10B86000FB0EDB50400805E2400EF36EFB0EF3CFFB
:10B87000DBFF020E106EFA0EDBCFE7FF1050E7265B
:10B88000FA0EE7CFDBFFF90EDB50B00FDF6EFB0ED9
:10B89000DB50B00FDF5C2EE2DFCFE6FFB1D8FA0E4F
:10B8A000DB500F0B3CD8FA0EDB380F0B0F0B1009D7
:10B8B00036D8010EDB6AFC0EDB50F36E010EDBCFD7
:10B8C000F4FFF350F45C14E2030EDB2A040E01E3F0
:10B8D000DB2AFD0EDBCFF6FFDB2AFE0EDBCFF7FF08
:10B8E00001E3DB2A0800F5509FD8010EDB2AE3D7DD
:10B8F000DF2ACDD7050EE15C02E2E16AE552E16E96
:10B9000028D0060EF702F3CFF7FFF602F3CFF6FFCB
:10B91000F450F726A40EF626BC0EF7221200E66EAF
:10B9200000EF5DF081D80FEF5DF0F626000EF722F4
:10B9300008001200106EFC0EDBCFE7FF1050E72668
:10B94000FC0EE7CFDBFF1200D9CFE6FFE1CFD9FF36
:10B950001200E552E7CFD9FF1200D9CFE9FFDACFC5
:10B96000EAFF640EEE5C000EEE58000EEE58000E7C
:10B97000EE581200E66ED0DEE552E552E552E55291
:10B98000FD0EDB2AFE0E1200D9CFE9FFDACFEAFF67
:10B99000EE2A000EEE22EE22EE221200FA0EDBCF8D
:10B9A000E6FFDFCFE6FFFC0EDBCFE6FFFD0E120069
:10B9B000DBCFF6FFFE0EDBCFF7FF0800F5501200DD
:10B9C000DE6ADE6ADE6ADD6ADD52DD521200DBCF3E
:10B9D000E9FFFE0EDBCFEAFFEF501200106E116A96
:10B9E000D89011501200840E105C000E11581200F5
:10B9F0009CDFF51C92EF5CF098DFF55092EF5CF065
:10BA000014DEE5521200A0DFE652FC0EDB50070800
:10BA10001200FB0EDB50DF6EB00E9AEF5CF0FE0EF4
:10BA2000DBCFF6FFF76A1200E66E37DEE552120052
:10BA3000D9CFE6FFE1CFD9FF030EE12659D8736ACB
:10BA4000820E726E739C94949396958C7288728A0F
:10BA5000949EE66AD0D8E552E76E020EE7CFDBFF90
:10BA60000000D950020FE96EDACFEAFFEF50070B62
:10BA7000020801E00000140EE66EBDD8E552E76E44
:10BA8000020EE7CFDBFF020EDB96DB88020EDB80C7
:10BA9000DB92DB94020EDBCFE6FF140EE66E3AD8A3
:10BAA000E552E552010EE66EA6D8E552DE6EDD6A7D
:10BAB0000000110EE66E9FD8E552DE6EDD6A0000D2
:10BAC000E66A110EE66E26D8E552E5520000110E28
:10BAD000E66E91D8E552DE6EDD6A0000030EE15C91
:10BAE00002E2E16AE552E16EE552E7CFD9FF1200CA
:10BAF000550EA76EAA0EA76E0E01FF91090ECC6F10
:10BB00000A0ED36F170EFB6F550EA76EAA0EA76E07
:10BB1000FF811200D9CFE6FFE1CFD9FFE652DF6AFD
:10BB2000FE0EDB50140804E0FE0EDB50340806E184
:10BB3000140EE66E60D8E552E00BDF6E8B9EA49E7D
:10BB4000FE0EDB50756EA4AEFED7000000000000B4
:10BB500000000000000000000000000000000000E5
:10BB600000000000000000000000000000000000D5
:10BB700000000000000000000000000000000000C5
:10BB800000000000000000000000000000000000B5
:10BB900000000000000000000000000000000000A5
:10BBA0000000000000000000000000000000000095
:10BBB0000000000000000000000000000000000085
:10BBC00000000000000000000000A49EFE0EDB50FC
:10BBD0000A0805E1FD0EDB507F0B756E04D0FD0EEB
:10BBE000DB50DF10756EA4AEFED78B8EE552E552AA
:10BBF000E7CFD9FF1200D9CFE6FFE1CFD9FF8B9E67
:10BC0000A49EFE0EDB508009756EA4AEFED7000028
:10BC10000000000000000000000000000000000024
:10BC20000000000000000000000000000000000014
:10BC30000000000000000000000000000000000004
:10BC400000000000000000000000000000000000F4
:10BC500000000000000000000000000000000000E4
:10BC600000000000000000000000000000000000D4
:10BC700000000000000000000000000000000000C4
:10BC80000000000000000000000000000000A49E72
:10BC9000756AA4AEFED78B8E755000D0E552E7CF03
:04BCA000D9FF1200B6
:0CBCA40000000000000000004F00000045
:10BCB000000700070000147F147F1400242A7F2A45
:10BCC0001200231308646200364955225000000513
:10BCD00003000000001C224100000041221C000063
:10BCE00014083E08140008083E0808000050300000
:10BCF000000008080808080000606000000020102C
:10BD0000080402003E5149453E0000427F400000C9
:10BD10004261514946002141454B31001814127FC0
:10BD200010002745454539003C4A4949300001711A
:10BD300009050300364949493600064949291E00CC
:10BD4000003636000000005636000000081422417C
:10BD500000001414141414000041221408000201FD
:10BD600051090600324979413E007E1111117E00D1
:10BD70007F49494936003E41414122007F414122ED
:10BD80001C007F49494941007F09090901003E41E2
:10BD900049497A007F0808087F0000417F41000080
:10BDA0002040413F01007F08142241007F40404075
:10BDB00040007F020C027F007F0408107F003E419C
:10BDC00041413E007F09090906003E4151215E00C4
:10BDD0007F091929460046494949310001017F017F
:10BDE00001003F4040403F001F2040201F003F40D7
:10BDF00038403F0063140814630007087008070008
:10BE0000615149454300007F414100000204081090
:10BE100020000041417F0000040201020400404074
:10BE200040404000000102040000205454547800B7
:10BE30007F4844443800384444442000384444484F
:10BE40007F00385454541800087E090102000C5237
:10BE500052523E007F080404780000447D400000F8
:10BE60002040443D00007F102844000000417F40F6
:10BE700000007C04180478007C080404780038442E
:10BE8000444438007C1414140800081414187C006E
:10BE90007C0804040800485454542000043F4440E3
:10BEA00020003C4040207C001C2040201C003C40E6
:10BEB00030403C004428102844000C5050503C00B6
:10BEC0004464544C440000083641000000007F00E8
:10BED00000000041360800000201020402000000D8
:10BEE00000000000007F45454547444444447C0031
:03BEF0008081004E
:0DBEF300202064656D6F206D656E752E203A
:10BF00002020202020202020002020746F20726517
:10BF10007475726E20746F2074686520202000484C
:10BF20006F6C6420746865206D656E752062757431
:10BF3000746F6E200020203173742F326E64206283
:10BF40007574746F6E2E2020202000202070616494
:10BF50007320746F20636F6E74726F6C20746865E9
:10BF6000002020746865204C2F522063617061634B
:10BF7000697469766520002020746865205A206104
:10BF80007865732C20746F756368202000202074FE
:10BF90006F20726F746174652061726F756E6420BA
:10BFA0002020005573652074686520706F74656E7D
:10BFB00074696F6D657465720020205A2061786520
:10BFC000732E202020202020202020202020002030
:10BFD00020746F206D6F7665206974206F6E2074F9
:10BFE00068652020002020757365207468652073C3
:10BFF00063726F6C6C20626172200020206F6E2073
:10C000007468652058206F72205920617865733BF1
:10C010000020206D6F766520746865206A6F7973E3
:10C020007469636B20200054696C74207468652007
:10C03000626F61726420746F202020200020202015
:10C0400020202020202020202020202020202020F0
:10C0500020200020206120555342206A6F7973749C
:10C0600069636B2E20202020002020626F617264A3
:10C070002077696C6C20616374206C696B65004982
:10C080006E20746869732064656D6F2C2074686518
:10C0900020202020005072657373204D656E75203E
:10C0A000746F2070726F6365656400204A6F7973E6
:10C0B0007469636B2044656D6F2076312E302020CB
:10C0C00000205049433138462053746172746572C0
:07C0D000204B6974202000E1
:08C0D800030EB16EB392B390A8
:10C0E000B396B288B28EB290B292A494B38E12007C
:10C0F0002F0E926E0F01E00E486F1F0E496FC18E1A
:10C10000C19CC70EC1140809C16EF80EC114020902
:10C11000C16E498FC29CC29EC30EC2140809C26E72
:10C12000C2801200D9DF78EF60F0D9CFE6FFE1CF0F
:10C13000D9FF020EE126FE0EDB500F0BF36EF34625
:10C14000F346C30EC214F310C26EFE0EDB50EA6A51
:10C15000C90FE96E000EEA22EF503F0BF36EF34673
:10C16000F346030EB114F310B16EB38EB382000028
:10C1700000000000000000000000000000000000BF
:10C1800000000000000000000000000000000000AF
:10C19000000000000000B392B28000000000000028
:10C1A000000000000000000000000000000000008F
:10C1B000000000000000000000000000000000007F
:10C1C0000000B2909E9CC2829EACFED7C3CFDEFF21
:10C1D000C4CFDDFFDECF10F0DDCF11F010C0F3FFD4
:10C1E00011C0F4FF00D0020EE15C02E2E16AE55208
:10C1F000E16EE552E7CFD9FF1200D9CFE6FFE1CFDC
:10C20000D9FF030EE126020EDB6A040EF36E020E66
:10C21000DBCFF4FFF350F45C21E22AD8EF6A30D888
:10C220000CE226D8EF501F0803E122D8EF6A13D0A2
:10C230001FD8EF2A25D8F5E30ED02CD80CE218D859
:10C24000EF50E10803E114D8EF6A05D011D8EF06EA
:10C250002BD820D8F4E3020EDB2AD7D7030EE15CFB
:10C2600002E2E16AE552E16EE552E7CFD9FF120042
:10C27000020EDB50EA6AC90FE96E000EEA221200D4
:10C2800013D8DECF10F0DDCF11F0200E105C030EBE
:10C2900011581200D9CFE9FFDACFEAFF200ED8807B
:10C2A000EE54030EED541200020EDBCFE6FF3DDF2D
:0CC2B000E552F3CFDEFFF4CFDDFF1200FB
:04C2BC001201000269
:10C2C00000000008D8040602010001020001090272
:10C2D0002900010100C096090400000203000000CB
:10C2E000092111010001224A0007058103400001D4
:10C2F000070501034000010403090434034D0069EC
:10C3000000630072006F0063006800690070002025
:10C310000054006500630068006E006F006C006FE1
:10C320000067007900200049006E0063002E002E97
:10C33000034A006F00790073007400690063006BAA
:10C34000002000440065006D006F00000000000048
:10C3500000000000000000000000000000CEC2F756
:10C36000C2FBC22FC305010905A101150025013536
:10C370000045017501950D05091901290D810295E9
:10C3800003810105012507463B01750495016514EC
:10C390000939814265009501810126FF0046FF00B1
:0FC3A0000930093109320935750895048102C049
:01C3AF00008D
:10C3B0000001D3B123D0D3838B809490550EA76E08
:10C3C000AA0EA76E0E01FF910E0ED16F550EA76E2D
:10C3D000AA0EA76EFF810F0EBA6ECF0EBA14000917
:10C3E000BA6E100EBB6E0F01526B800ECB6E040E38
:10C3F000CA6EA4960A0E776E7F0E766E120000014A
:10C40000D391D3938B80949012000001D3A109D0D3
:10C410008B50010B04E19450010B01E1010CD3910D
:10C42000C7DF0001D3A3C4DFA4A63AD0A496BA50B4
:10C43000300BE842E842E842E842030819E1500EB6
:10C44000BB5C10E18B909490BA6ACA6A0E01D16B02
:10C450000F01526BCB68766A7768A4960001D3818E
:10C46000D393010CBB2ACF0EBA140009BA6E000C8C
:10C47000BA0EE96E0F0EEA6EEF50300BE842E8425A
:10C48000E842E842E82AE850030BF36EF46EF34604
:10C49000F346F346F346CF0EEF14F310EF6EF4506D
:02C4A000000C8E
:0EC4A200040120511F0B010801E0120024517B
:10C4B00001E01200060E215D1BE12351230A18E062
:10C4C000010A0CE0030A14E10001610511E1000119
:10C4D000E00E716FC20E726F090E06D00001650E7C
:10C4E000716FC30E726F4A0E746F756BC00E736FEF
:10C4F00004012051600BE842E842E842E842E84289
:10C50000010801E0120021510B0A26E0080A19E097
:10C51000090A11E0080A05E00B0A23E0080A21E0F5
:10C5200012000001D10E716F000E726F010E746F58
:10C53000756BC10E0FD00001800E736F23C4D1F054
:10C5400012000001D20E716F000E726F010E746F37
:10C55000756B810E736F12000001800E736F22C421
:04C56000D2F0120003
:0CC564001E0EF66EA00EF76E000EF86EB4
:10C5700000010900F550BE6F0900F550BF6F03E1DF
:10C58000BE6701D03DD00900F550B96F0900F550E4
:10C59000BA6F0900F550BB6F09000900F550E96E4C
:10C5A0000900F550EA6E090009000900F550BC6F5A
:10C5B0000900F550BD6F09000900F6CFC0F0F7CFB4
:10C5C000C1F0F8CFC2F0B9C0F6FFBAC0F7FFBBC0E8
:10C5D000F8FF0001BC5302E1BD5307E00900F5502C
:10C5E000EE6EBC07F8E2BD07F9D7C0C0F6FFC1C0C8
:10C5F000F7FFC2C0F8FF0001BE07000EBF5BBFD748
:02C60000120026
:0EC60200006A0EAE0AEF63F00D6C0E1EE86AC1
:10C610000E22001E09AE12EF63F0086C091EE86AD4
:10C620000922001E64EC63F009BE22EF63F000AE45
:10C63000000C086C091EE86A0922046C051EE86AF1
:0EC640000522000C00BE19EF63F00188FF0C0C
:02C64E000600E4
:10C650000B00110017001C00220028002F003500DD
:10C660003C0043004A0052005A0062006B00750013
:10C6700080008C009900A700B700C900DE00F6001A
:10C680001201350160019601DE014102D602CC03A0
:04C69000B605710B6F
:0CC69400FE0EE3CFE9FFFF0EE3CFEAFF4C
:10C6A000E9CFF3FFEACFF4FFFB0EE35003E1FC0E0A
:10C6B000E35009E0FB0EE30602E2FC0EE306FD0E8A
:08C6C000E350EE6EF1D7120009
:08C6C800056A046A100EE76E1A
:10C6D000D89008360936043605360D50045C0E50E5
:10C6E000055805E30D50045E0E50055A082AE72E42
:04C6F000F0D712006D
:0CC6F400C00EF36E00EE00F00E0E01D838
:10C700001200EA6002D0EE6AFCD7F350E960120032
:04C71000EE6AFCD7FA
:0CC714001DEE00F02DEE00F0F86A019C14
:10C72000B2EC62F003EC50F0B2EC56F0FBD7120022
:01FFF800AA5E
:01FFF900F710
:01FFFA001FE7
:01FFFB00FF06
:01FFFC0063A1
:01FFFD00F80B
:01FFFE008181
:01FFFF00F110
:00000001FF
