:020000040000FA
:060000006DEF69F0120033
:0600080004EF50F01200AD
:060018000CEF50F0120095
:06A000006DEF69F0120093
:02A00600120046
:06A008009FEF59F0120069
:02A00E00000050
:05A0100000000000004B
:06A01800A8EF59F0120050
:02A01E0002003E
:10A020000EA00000B40000000700000049CE0000B0
:08A03000C70000000100000060
:08A03800D9CFE6FFE1CFD9FF0B
:10A04000E652A098636A626A0F01266B010EE66E03
:10A05000E66AE66A270EE66E0F0EE66E2DEC69F0F4
:10A06000106E050EE15E10500F01160E396F9F0E37
:10A07000376F7B0E366FDF6ADF50106E116A080E85
:10A08000105C000E115810E2DF50040DF3CFE9FF11
:10A09000F4CFEAFF000EE926040EEA22EE6AEE6A29
:10A0A000EE6AEE6ADF2AE8D7658C0F01386B659897
:10A0B000659C62A607D062960001736B786B796B22
:10A0C0007A6BF7D70001010E8A6F8B6F8C6B8D6BEB
:10A0D000806BDF6A020EDF5C26E2EA6ADF34FE0B89
:10A0E000EA36E96E6B0EE926000EEA22EE6AED6AA8
:10A0F000EA6ADF34FE0BEA36E96E670EE926000EE7
:10A10000EA22EE6AED6ADF50EA6A840FE96E000E19
:10A11000EA22EF6ADF50EA6A860FE96E000EEA2251
:10A12000EF6ADF2AD7D70001080E6B6F040E6C6F41
:10A130000F01160E266F0401200E026F040E036F2E
:10A14000080E016F840E006F0001616B606BE552B9
:10A15000E552E7CFD9FF1200D9CFE6FFE1CFD9FF13
:10A16000E6520001605118E107D0656A0F01366BB5
:10A170000001606BA198C0D0656A0F01366B160EA6
:10A18000396F9F0E376F7B0E366F65B602D06586CE
:10A19000FCD70001010E606F60050AE165BA08D0C6
:10A1A000626A0F01366B368136890001020E606FDC
:10A1B0006250040B07E00F013651040B03E0629478
:10A1C000C5EC56F065A202D0A19896D06250010B62
:10A1D00009E00F013651010B05E02EDF0001040EEE
:10A1E000606F62906250100B07E00F013651100B48
:10A1F00003E0AFEC56F0629862AC13D00F0136ADBD
:10A200000FD0010EE66EE66A000EE66EE66A730E89
:10A21000E66EE66A69EC5EF0106E060EE15E1050C6
:10A22000629C6250200B06E00F013651200B02E0C9
:10A2300095EC56F06250020B14E00F013651020B00
:10A2400010E0010EE66EE66A000EE66EE66AE6686B
:10A250007F0EE66E69EC5EF0106E060EE15E105049
:10A26000636A040E0001E76E6019E8AE02D0E734BD
:10A2700002D0E750605D02E2A1983ED00F0136A700
:10A280003AD0DF6A040EDF5C36E262A631D064CFDA
:10A2900081F000018151780BE842E842E842826F88
:10A2A000629681B508D08251EA6A860FE96E000E87
:10A2B000EA22EF7007D08251EA6A840FE96E000E3D
:10A2C000EA22EF70825103E1DDEC56F010D0000E6F
:10A2D000E66EE66A810EE66E000EE66E720EE66EC1
:10A2E000E66A69EC5EF0106E060EE15E105001D079
:10A2F00002D0DF2AC7D7A198E552E552E7CFD9FFB0
:10A300001200D9CFE6FFE1CFD9FF020EE126FD0E04
:10A31000DBA407D0E66AFE0EDBCFE6FF05DAE552E6
:10A32000E552FD0EDBA208D0010EE66EFE0EDBCF7D
:10A33000E6FFFAD9E552E552FE0EDB50116A260F10
:10A34000106E0F0E112210C0DEFF11C0DDFFDECF38
:10A35000E9FFDDCFEAFFFD0EDBCFEFFF020EE15C90
:10A3600002E2E16AE552E16EE552E7CFD9FF120061
:10A37000D9CFE6FFE1CFD9FF020EE126FD0EDB507B
:10A380000FE0FE0EEA6ADB34FE0BEA36E96E6B0E76
:10A39000E926000EEA22EECFDEFFEDCFDDFF0ED084
:10A3A000FE0EEA6ADB34FE0BEA36E96E670EE9263A
:10A3B000000EEA22EECFDEFFEDCFDDFFD9CFE9FFC1
:10A3C000DACFEAFFEE50ED1003E1F36AF46A49D008
:10A3D000DECFE9FFDDCFEAFF020EE926000EEA221A
:10A3E000FB0EDBCFEEFFFC0EDBCFEDFFDECFE9FF98
:10A3F000DDCFEAFFEE52FA0EDBCFEFFF400E106E1C
:10A40000DECFE9FFDDCFEAFF1050EF16880E106EA9
:10A41000DECFE9FFDDCFEAFF1050EF12FD0EDB507B
:10A420000CE0FE0EEA6ADB34FE0BEA36E96E6B0ED8
:10A43000E926000EEA22EF740BD0FE0EEA6ADB3446
:10A44000FE0BEA36E96E670EE926000EEA22EF748B
:10A45000DECF10F0DDCF11F010C0F3FF11C0F4FF1C
:10A4600000D0020EE15C02E2E16AE552E16EE552E3
:10A47000E7CFD9FF1200D9CFE6FFE1CFD9FF020E17
:10A48000E126FE0EDB5020E165C0E9FF66C0EAFF71
:10A49000EE52080EEF6E65C0E9FF66C0EAFF020EDD
:10A4A000E926000EEA22200EEE6E040EED6E65C067
:10A4B000E9FF66C0EAFF8C0EEF6E6BC0E9FF6CC06F
:10A4C000EAFF840EEF6E3DD0FD0EDB50E824126EE5
:10A4D000FE0EDB50040DF3501224040DF3CF10F0E8
:10A4E000F4CF11F0000E1026040E112210C0DEFF72
:10A4F00011C0DDFF840E106EDECFE9FFDDCFEAFF75
:10A500001050EF12FD0EDB50E824126EFE0EDB50F1
:10A51000040DF3501224010F040DF3CF10F0F4CF0B
:10A5200011F0000E1026040E112210C0DEFF11C023
:10A53000DDFF840E106EDECFE9FFDDCFEAFF1050A5
:10A54000EF12020EE15C02E2E16AE552E16EE552D1
:10A55000E7CFD9FF1200D9CFE6FFE1CFD9FF65A839
:10A560004ED0FE0EEA6ADB34FE0BEA36E96E6B0E65
:10A57000E926000EEA22EE50EFCFEAFFE96E400E28
:10A58000EE16EE6AEE6AEE6AFE0EEA6ADB34FE0B47
:10A59000EA36E96E6B0EE926000EEA22EE50EFCFA6
:10A5A000EAFFE96EEE7CFE0EEA6ADB34FE0BEA3669
:10A5B000E96E6B0EE926000EEA22EF74400E106E73
:10A5C000FE0EEA6ADB34FE0BEA36E96E6B0EE92614
:10A5D000000EEA22EE50EFCFEAFFE96E1050EF16C0
:10A5E000FE0EEA6ADB34FE0BEA36E96E6B0EE926F4
:10A5F000000EEA22EE50EFCFEAFFE96EEF7CE55263
:10A60000E7CFD9FF120000018A514DE1010E8A6F98
:10A610008B5149E1010E8B6F020E705D0DE16BC035
:10A62000E9FF6CC0EAFFEE52EF6A6BC0E9FF6CC055
:10A63000EAFFC80EEF6E37D0700535E1836B63C05B
:10A64000E9FF64C0EAFFEE52080EEF6E63C0E9FF57
:10A6500064C0EAFF020EE926000EEA22200EEE6E2A
:10A66000040EED6E63C0E9FF64C0EAFF840EEF6E76
:10A67000010E836F65C0E9FF66C0EAFFEE52080E67
:10A68000EF6E65C0E9FF66C0EAFF020EE926000E24
:10A69000EA22200EEE6E040EED6E65C0E9FF66C084
:10A6A000EAFF800EEF6E120000018C6B8D6B020EC4
:10A6B000705D1AE165C0E9FF66C0EAFFEE52080E60
:10A6C000EF6E65C0E9FF66C0EAFF020EE926000EE4
:10A6D000EA22280EEE6E040EED6E65C0E9FF66C03C
:10A6E000EAFFC80EEF6E1FD074510401265D000111
:10A6F00075510401275904E226C474F027C475F08B
:10A70000D1D86BC0E9FF6CC0EAFF020EE926000E4B
:10A71000EA22280EEE6E040EED6E6BC0E9FF6CC0EF
:10A72000EAFFC80EEF6E1200D9CFE6FFE1CFD9FFE6
:10A73000020EE126000EDE6E040EDD6EFD0EDB5015
:10A74000E824126EFE0EDB50040DF3501224040DAB
:10A75000F3CF10F0F4CF11F0D9CFE9FFDACFEAFF51
:10A760001050EE261150ED22DECFE9FFDDCFEAFFDB
:10A77000EF9EFD0EDB500FE1FE0EEA6ADB34FE0BAE
:10A78000EA36E96E670EE926000EEA22DECFEEFF1A
:10A79000DDCFEDFF0ED0FE0EEA6ADB34FE0BEA36AB
:10A7A000E96E6B0EE926000EEA22DECFEEFFDDCF6A
:10A7B000EDFFDECFE9FFDDCFEAFFEF9CDECFE9FF63
:10A7C000DDCFEAFF040EE926000EEA22EF8C020E2E
:10A7D000E15C02E2E16AE552E16EE552E7CFD9FFC2
:10A7E00012006598000173BF2BD078AF09D0020E1C
:10A7F000706F8D5101E158DF00018B6B8A6B1FD0A8
:10A8000065C0E9FF66C0EAFFEE52080EEF6E65C054
:10A81000E9FF66C0EAFF020EE926000EEA22200EDA
:10A82000EE6E040EED6E65C0E9FF66C0EAFF8C0EA9
:10A83000EF6E6BC0E9FF6CC0EAFF840EEF6E31D0A3
:10A84000040120AF0DD00001010E706F8C5101E1A9
:10A850002BDF00018B6B8A6B895101E1D4DE21D0A3
:10A860000001020E706F65C0E9FF66C0EAFFEE529C
:10A87000080EEF6E65C0E9FF66C0EAFF020EE9262A
:10A88000000EEA22200EEE6E040EED6E65C0E9FFAA
:10A8900066C0EAFF840EEF6E8B6B8A6B895101E113
:10A8A000B2DE1200D9CFE6FFE1CFD9FFE652080EA3
:10A8B000DF6E0001745D000E75590BE274C0DFFF9E
:10A8C0006F5103E1010E6F6F04D06F0502E1020EBC
:10A8D0006F6FDF50106E116A1050745D746F1150FD
:10A8E0007559756F6BC0E9FF6CC0EAFFEE52DFCFA0
:10A8F000EFFF280E7D6F040E7E6F73B119D0DF500D
:10A9000016E071C0F6FF72C0F7FF712B000E7223C4
:10A910000800F550E66E7DC0E9FF7EC0EAFF7D2BA2
:10A92000000E7E23E552E750EF6EDF06E8D717D022
:10A93000DF5015E071C0E9FF72C0EAFF712B000E15
:10A940007223EF50E66E7DC0E9FF7EC0EAFF7D2BEB
:10A95000000E7E23E552E750EF6EDF06E9D7E552A1
:10A96000E552E7CFD9FF1200D9CFE6FFE1CFD9FFFB
:10A97000020EE12663C0E9FF64C0EAFFEE52EFCFAA
:10A98000DFFFDFCF10F010500001795D000E7A5923
:10A9900002E279C0DFFFDF50106E116A1050795D5E
:10A9A000796F11507A597A6F010EDB6ADF50F36EBE
:10A9B000010EDBCFF4FFF350F45C16E2010EDB5026
:10A9C000EA6A280FE96E040EEA22EF50E66E76C0BE
:10A9D000E9FF77C0EAFF762B000E7723E552E750B8
:10A9E000EF6E010EDB2AE2D7000ED8807955000EFB
:10A9F0007A5528E265C0E9FF66C0EAFFEE52080E0C
:10AA0000EF6E65C0E9FF66C0EAFF020EE926000EA0
:10AA1000EA22280EEE6E040EED6E63C0E9FF64C0FC
:10AA2000EAFFEF50400B07E165C0E9FF66C0EAFFAF
:10AA3000C80EEF6E06D065C0E9FF66C0EAFF880E5B
:10AA4000EF6E28D065C0E9FF66C0EAFFEE52080E3F
:10AA5000EF6E65C0E9FF66C0EAFF020EE926000E50
:10AA6000EA22200EEE6E040EED6E65C0E9FF66C0B0
:10AA7000EAFF840EEF6E7B517C1107E005D07CC0AD
:10AA8000FAFF00017B51F96EFADF0001789F8951CE
:10AA900001E1B9DD020EE15C02E2E16AE552E16E3C
:10AAA000E552E7CFD9FF1200D9CFE6FFE1CFD9FFBA
:10AAB000E6520001738F010EE66EE66AE66A270E23
:10AAC000E66E0F0EE66E2DEC69F0106E050EE15E7F
:10AAD0001050200EE66EE66AE66A000EE66E040E80
:10AAE000E66E2DEC69F0106E050EE15E1050658C7F
:10AAF000DF6A020EDF5C10E2DF50EA6A840FE96E63
:10AB0000000EEA22EF6ADF50EA6A860FE96E000E55
:10AB1000EA22EF6ADF2AEDD7010EE66EE66AE66A00
:10AB2000620EE66E000EE66E2DEC69F0106E050EFC
:10AB3000E15E1050659C0001080E6B6F040E6C6F97
:10AB4000000E636F040E646F63C065F064C066F04E
:10AB500022C461F0615103E1100E606F13D0010E49
:10AB6000E66EE66A610EE66E000EE66E010EE66EB9
:10AB7000E66A69EC5EF0106E060EE15E10500001B0
:10AB8000200E606FE552E552E7CFD9FF1200800E2C
:10AB90000401205D61E10001C00E736F04012351C7
:10ABA000030A3AE0010A0EE0030A03E00001736BB6
:10ABB00053D00001200E716FD00E726F120E746FA1
:10ABC000756B4AD0010E225D24E22251F66EF76ABF
:10ABD000D890F636F736EE0EF626D00EF72209009C
:10ABE000F5CF71F00A00F5CF72F0020E0001F76A9E
:10ABF0007125F66E7251F7220800F5CF74F0030E3E
:10AC0000F76A7125F66E7251F7220800F5CF75F0DC
:10AC100002D00001736B20D0030E225D1AE2225194
:10AC2000F66EF76AD890F636F736F00EF626D00EA6
:10AC3000F7220900F5CF71F00A00F5CF72F071C06C
:10AC4000F6FF72C0F7FF0800F5500001746F756BD6
:10AC500002D00001736B00D01200D9CFE6FFE1CF24
:10AC6000D9FF020EE1260401286B296B20511F0B2E
:10AC7000020A12E0030A0DE0010A01E042D00001DD
:10AC8000738F0401288100017F0502E104012883FC
:10AC900038D00001738F35D00001738F040124BFB9
:10ACA00010D024510F0BE96EEA6AD890E936EA36E3
:10ACB000670EE926000EEA22EECFDEFFEDCFDDFFC4
:10ACC0000FD024510F0BE96EEA6AD890E936EA36C4
:10ACD0006B0EE926000EEA22EECFDEFFEDCFDDFFA0
:10ACE000DECFE9FFDDCFEAFFEF50800B09E0DECFDA
:10ACF000E9FFDDCFEAFFEF50040B02E0010E286F01
:10AD000000D0000173AF07D0280E716F040E726F70
:10AD10007381020E746F020EE15C02E2E16AE55299
:10AD2000E16EE552E7CFD9FF12000F0126A115D041
:10AD300063C0E9FF64C0EAFFEF5080080DE16BC01B
:10AD4000E9FF6CC0EAFFEF50840806E163C0E9FF49
:10AD500064C0EAFF8C0EEF6E2691629A12000F011A
:10AD60003685629865820001010E806F000EE66EE6
:10AD7000E66AE66EE66A750EE66EE66A69EC5EF015
:10AD8000106E060EE15E105012000001806B000E86
:10AD9000E66EE66AE66EE66A740EE66EE66A69ECF0
:10ADA0005EF0106E060EE15E105065920F01369552
:10ADB00062A402D06294FCD71200D9CFE6FFE1CFA3
:10ADC000D9FFE652FD0E0001811553E17E0E81157B
:10ADD000E8407F0B040DF3CF63F0F4CF64F0000E76
:10ADE0006327040E642363C065F064C066F0657574
:10ADF00063C0E9FF64C0EAFFEF503C0BE842E84261
:10AE00000D0835E1DF6A080EDF5C23E263C0E9FF6D
:10AE100064C0EAFF020EE926000EEA22EE50EFCFF0
:10AE2000EAFFE96EEF50E66EDF50EA6A200FE96E46
:10AE3000040EEA22E552E750EF6E63C0E9FF64C0FA
:10AE4000EAFF020EE926000EEA22EE2AEF22DF2AAE
:10AE5000DAD763C0E9FF64C0EAFF020EE926000EFC
:10AE6000EA22200EEE6E040EED6E0DD801D03AD817
:10AE700005D0FD0E8115040801E159D8E552E552CF
:10AE8000E7CFD9FF120000016F6B896B8C6B8D6B64
:10AE9000836B706B6BC0E9FF6CC0EAFFEF9E6B7554
:10AEA0006BC0E9FF6CC0EAFFEF9E6B7565C0E9FF00
:10AEB00066C0EAFFEF9E736B746B756B786B796B92
:10AEC0007A6B92D8000EE66EE66AE66EE66A030ECC
:10AED000E66EE66A69EC5EF0106E060EE15E1050FA
:10AEE000F1EF53F0020E0001705D02E13DDD1ED076
:10AEF000706B83511AE165C0E9FF66C0EAFFEE524C
:10AF0000080EEF6E65C0E9FF66C0EAFF020EE92693
:10AF1000000EEA22200EEE6E040EED6E65C0E9FF13
:10AF200066C0EAFF8C0EEF6E01D0836B1200D9CFA2
:10AF3000E6FFE1CFD9FFE6526BC0E9FF6CC0EAFF44
:10AF4000EF50400B01E0010EDF6E00016B75080E43
:10AF5000605D0CE122C438FF0F01385104E00001AC
:10AF6000100E606F03D00001040E606F700528E1C1
:10AF70006BC0E9FF6CC0EAFF020EE926000EEA2270
:10AF8000280EEE6E040EED6E8DDC020E00016F5D7C
:10AF900007E16BC0E9FF6CC0EAFF840EEF6E0FD0D3
:10AFA000DF5007E16BC0E9FF6CC0EAFFC80EEF6E2F
:10AFB00006D06BC0E9FF6CC0EAFF880EEF6E0FD0C1
:10AFC00078AF0CD07B517C1107E005D07CC0FAFF34
:10AFD00000017B51F96EFADF0001789F706BE5523A
:10AFE000E552E7CFD9FF120004012051600BE8427F
:10AFF000E842E842E842E842000901E058D0215125
:10B000000C0A54E00B0A43E00C0A35E0010A26E082
:10B010000B0A22E0020A20E0030A1CE0080A10E002
:10B02000010A0CE00F0A08E0030A01E03FD000012A
:10B03000738F080E606F3BD0AADD39D035DD37D075
:10B040000001610E716F000E726F7381010E746FDB
:10B05000738F2DD002DE2BD02BD829D024510001A4
:10B06000716F726B620E7127000E72237381010E75
:10B07000746F738F1CD00001738F04012451EA6A2E
:10B08000620FE96E000EEA2222C4EFFF10D0000E1C
:10B09000E66EE66AE66EE66A020EE66EE66A69EC5F
:10B0A0005EF0106E060EE15E105001D000D012006E
:10B0B000D9CFE6FFE1CFD9FF050EE1260401220535
:10B0C00010E120511F0B00090CE10001738F030EEA
:10B0D0000401215D04E10001010E7F6F02D0000137
:10B0E0007F6B0401225101E020D120511F0B020887
:10B0F00001E01BD124510F0B000901E116D12451AD
:10B100000F0B010801E211D1200E0001605D01E08A
:10B110000CD1738F040124BF1AD024510F0BE96E98
:10B12000EA6AD890E936EA36670EE926000EEA2286
:10B13000EECFDEFFEDCFDDFF24510F0BEA6A860F65
:10B14000E96E000EEA22020EEFCFDBFF19D0245188
:10B150000F0BE96EEA6AD890E936EA366B0EE926FB
:10B16000000EEA22EECFDEFFEDCFDDFF24510F0B04
:10B17000EA6A840FE96E000EEA22020EEFCFDBFFCF
:10B18000D950020FE96EDACFEAFFEF50010B03E16D
:10B19000000EDF9401D0DF8424BF10D024510F0BA8
:10B1A000E96EEA6AD890E936EA36670EE926000EBB
:10B1B000EA22DECFEEFFDDCFEDFF0FD024510F0BE3
:10B1C000E96EEA6AD890E936EA366B0EE926000E97
:10B1D000EA22DECFEEFFDDCFEDFF030E215D23E19E
:10B1E000DECFE9FFDDCFEAFFEF50800B13E024BF95
:10B1F00009D024510F0BEA6A860FE96E000EEA228D
:10B20000EF8208D024510F0BEA6A840FE96E000E1A
:10B21000EA22EF82840E106EDECFE9FFDDCFEAFF77
:10B220001050EF1282D0DF74DECFE9FFDDCFEAFFEE
:10B23000EF50800B1BE0DECFE9FFDDCFEAFFEF9E92
:10B24000DECFE9FFDDCFEAFFEF8C020EE66EE66AA5
:10B25000DECFE6FFDDCFE6FF050EE66EE66A69ECBF
:10B260005EF0106E060EE15E105005D0DECFE9FFF5
:10B27000DDCFEAFFEF8CDF74D950020FE96EDACF31
:10B28000EAFFEF50020B07E1DECFE9FFDDCFEAFF77
:10B29000EF50800B2DE0040124BF09D024510F0B87
:10B2A000EA6A860FE96E000EEA22EF9208D0245176
:10B2B0000F0BEA6A840FE96E000EEA22EF923B0E52
:10B2C000106EDECFE9FFDDCFEAFF1050EF16020E61
:10B2D000E66EE66ADECFE6FFDDCFE6FF050EE66E40
:10B2E000E66A69EC5EF0106E060EE15E105008D062
:10B2F0003B0E106EDECFE9FFDDCFEAFF1050EF16F8
:10B30000040124510F0B116A260F106E0F0E11222B
:10B31000030E10C0DBFF040E11C0DBFF030EDBCFFA
:10B32000E9FF040EDBCFEAFFEF90050EE15C02E2DD
:0EB33000E16AE552E16EE552E7CFD9FF120067
:02B33E00DACF64
:10B34000E4FFE2CFDAFFE652E552E5CFDAFF110083
:10B35000D8CFE4FFE0CFE4FFE46EDACFE4FFE2CF42
:10B36000DAFFE652E552E5CFDAFFE550E5CFE0FF40
:10B37000E5CFD8FF10001FDAACEC50F059DAFCD75B
:10B3800012000001B451080A01E193D10F0A01E152
:10B390008AD1010A01E123D1030A01E11AD1010A8C
:10B3A00001E1B2D0070A01E1A9D0010A3EE0030A97
:10B3B00036E0010A01E0E1D1DFEC5EF0E66AF1EC93
:10B3C0005FF0E552E66AE66AE66A330EE66ECE0E96
:10B3D000E66EA6EC61F0106E050EE15E1050E66AB6
:10B3E000E66A010EE66E1D0EE66ECE0EE66EA6EC69
:10B3F00061F0106E050EE15E1050E66AE66A060E18
:10B40000E66E070EE66ECE0EE66EA6EC61F0106EEE
:10B41000050EE15E10500001010EB46FAED1AED941
:10B42000010802E10001B42BA8D1E66AF1EC5FF05B
:10B43000E552E66AE66AE66AF10EE66ECD0EE66E63
:10B44000A6EC61F0106E050EE15E1050E66AE66A49
:10B45000010EE66EDB0EE66ECD0EE66EA6EC61F03A
:10B46000106E050EE15E1050E66AE66A020EE66EA8
:10B47000C50EE66ECD0EE66EA6EC61F0106E050E02
:10B48000E15E1050E66AE66A030EE66EAF0EE66E07
:10B49000CD0EE66EA6EC61F0106E050EE15E10506A
:10B4A000E66AE66A040EE66EAF0EE66ECD0EE66E56
:10B4B000A6EC61F0106E050EE15E1050E66AE66AD9
:10B4C000050EE66EAF0EE66ECD0EE66EA6EC61F0F2
:10B4D000106E050EE15E1050E66AE66A060EE66E34
:10B4E000070EE66ECE0EE66EA6EC61F0106E050E4F
:10B4F000E15E10500001030EB46F3FD13FD9010847
:10B5000002E10001B42B39D1E66AE66AE66A990ED7
:10B51000E66ECD0EE66EA6EC61F0106E050EE15EF5
:10B520001050E66AE66A010EE66E830EE66ECD0EF8
:10B53000E66EA6EC61F0106E050EE15E1050E66A54
:10B54000E66A020EE66E6D0EE66ECD0EE66EA6ECB7
:10B5500061F0106E050EE15E1050E66AE66A030EB9
:10B56000E66E570EE66ECD0EE66EA6EC61F0106E3E
:10B57000050EE15E1050E66AE66A040EE66E410EC4
:10B58000E66ECD0EE66EA6EC61F0106E050EE15E85
:10B590001050E66AE66A050EE66E2B0EE66ECD0EDC
:10B5A000E66EA6EC61F0106E050EE15E1050E66AE4
:10B5B000E66A060EE66E070EE66ECE0EE66EA6ECA8
:10B5C00061F0106E050EE15E10500001050EB46FC3
:10B5D000D4D0D4D8010802E10001B42BCED0E66A61
:10B5E000E66AE66A150EE66ECD0EE66EA6EC61F032
:10B5F000106E050EE15E1050E66AE66A010EE66E18
:10B60000FF0EE66ECC0EE66EA6EC61F0106E050E37
:10B61000E15E1050E66AE66A020EE66EE90EE66E3C
:10B62000CC0EE66EA6EC61F0106E050EE15E1050D9
:10B63000E66AE66A030EE66ED30EE66ECC0EE66EA2
:10B64000A6EC61F0106E050EE15E1050E66AE66A47
:10B65000040EE66EAF0EE66ECD0EE66EA6EC61F061
:10B66000106E050EE15E1050E66AE66A050EE66EA3
:10B67000AF0EE66ECD0EE66EA6EC61F0106E050E16
:10B68000E15E1050E66AE66A060EE66E070EE66EAA
:10B69000CE0EE66EA6EC61F0106E050EE15E105067
:10B6A0000001B42B6AD06AD8010802E10001B42B72
:10B6B00064D0E66AE66AE66ABD0EE66ECC0EE66E19
:10B6C000A6EC61F0106E050EE15E1050E66AE66AC7
:10B6D000010EE66EA70EE66ECC0EE66EA6EC61F0ED
:10B6E000106E050EE15E1050E66AE66A020EE66E26
:10B6F000910EE66ECC0EE66EA6EC61F0106E050EB5
:10B70000E15E1050E66AE66A030EE66EAF0EE66E84
:10B71000CD0EE66EA6EC61F0106E050EE15E1050E7
:10B72000E66AE66A040EE66EAF0EE66ECD0EE66ED3
:10B73000A6EC61F0106E050EE15E1050E66AE66A56
:10B74000050EE66EAF0EE66ECD0EE66EA6EC61F06F
:10B75000106E050EE15E1050E66AE66A060EE66EB1
:10B76000AF0EE66ECD0EE66EA6EC61F0106E050E25
:10B77000E15E10500001B46900D0120081B00BD01E
:10B780000001BA6BB95103E1010EB96F0DD0000E83
:10B790000BD0000E09D0320E0001BA5D02E2BA2BC6
:10B7A00001D0B96B000E00D01200E8DF010801E102
:10B7B000FF0000D01200D9CFE6FFE1CFD9FF020E83
:10B7C000E1260F0EC112580EDE6E020EDD6E9B8C4E
:10B7D000DFCF10F0DF06010EDBCF11F001E2DB0658
:10B7E0001050111001E0F4D70F0148693F0E496F66
:10B7F0000CD81CEC50F0020EE15C02E2E16AE5526A
:10B80000E16EE552E7CFD9FF120018EC64F083EC4B
:10B8100064F0B8EC62F00001916B91C090F091C0BF
:10B820008FF091C08EF0926B936B0001B66B12009B
:10B83000D9CFE6FFE1CFD9FF130EE126DE6ADD6A3C
:10B84000020EDB6A030EDB6A040EDB6A050EDB6A9E
:10B85000FF0E0001B45D01E1A8DF200E0001E76EDC
:10B860006019E8AE02D0E73402D0E750605D03E330
:10B870006550020B01E0CDD152EC67F0000901E107
:10B88000C8D17FDD640E0001B75D01E05ED1B76B0A
:10B89000020EE66E9BEC63F0E5520001946F030E1E
:10B8A000E66E9BEC63F0E5520001946F040EE66EC9
:10B8B0009BEC63F0E5520001956F050EE66E9BEC84
:10B8C00063F0E5520001956F060EE66E9BEC63F0A7
:10B8D000E5520001966F070EE66E9BEC63F0E552B1
:10B8E0000001966F965106E1906B90C08FF090C06A
:10B8F0008EF0EDD00E0EDB6A943506E3946D010EEA
:10B90000F36E0E0EF3CFDBFF96C012F0136A12BE79
:10B91000136894C010F0116A10BE1168070ED89019
:10B9200010361136E806FBE110C008F011C009F02E
:10B9300012C00DF013C00EF0E4EC68F0090E08C060
:10B94000DBFF0A0E09C0DBFF0D0EDB6ADBCF10F058
:10B95000230EE76E1018E8AE02D0E73402D0E750AD
:10B96000105C3EE2090EDBCF10F00A0EDBCF11F0C7
:10B970000D0EDBCFF6FFF76AF6BEF768D890F63605
:10B98000F736140EF626D20EF7220900F5CF12F084
:10B990000800F5CF13F01250105C135011581DE23F
:10B9A0000E0EDB040EE1040E106E10C00EF00D0E34
:10B9B000DBCF09F0CAEC68F00950FF0DF3CF90F02F
:10B9C0000BD0040E106E10C00EF00D0EDBCF09F080
:10B9D000CAEC68F009C090F003D00D0EDB2AB6D790
:10B9E0000E0EDB6A0001953506E3956D010EF36ED0
:10B9F0000E0EF3CFDBFF96C012F0136A12BE13686F
:10BA000095C010F0116A10BE1168070ED89010365C
:10BA10001136E806FBE110C008F011C009F012C0B1
:10BA20000DF013C00EF0E4EC68F00B0E08C0DBFF65
:10BA30000C0E09C0DBFF0D0EDB6ADBCF10F0230E0E
:10BA4000E76E1018E8AE02D0E73402D0E750105C81
:10BA50003EE20B0EDBCF10F00C0EDBCF11F00D0E23
:10BA6000DBCFF6FFF76AF6BEF768D890F636F73602
:10BA7000140EF626D20EF7220900F5CF12F00800B8
:10BA8000F5CF13F01250105C135011581DE20E0E3A
:10BA9000DB040EE1040E106E10C00EF00D0EDBCFB5
:10BAA00009F0CAEC68F00950FF0DF3CF8FF00BD00E
:10BAB000040E106E10C00EF00D0EDBCF09F0CAECB4
:10BAC00068F009C08FF003D00D0EDB2AB6D7030E45
:10BAD000E66E1BEC64F0E5520F0EF3CFDBFF100EA9
:10BAE000F4CFDBFF0F0EDBCF10F0100EDBCF11F029
:10BAF000580E105C020E115805E2010E00018E1165
:10BB00008E6F04D0FE0E00018E158E6FE66A1BEC60
:10BB100064F0E5520F0EF3CFDBFF100EF4CFDBFF26
:10BB20000F0EDBCF10F0100EDBCF11F0580E105CB3
:10BB3000020E115805E2020E00018E118E6F04D024
:10BB4000FD0E00018E158E6F06D00001916B91C025
:10BB500090F091C08FF00001B72B0001925193112A
:10BB600002E1000E08D092C0E9FF93C0EAFFEF5057
:10BB7000800B01E0010E00094CE18EC099F0FE0E31
:10BB8000E76E8F19E8AE02D08F3503D0E750D8802A
:10BB90008F550AE2020EE76E8F19E8AE02D0E73445
:10BBA00002D0E7508F5D04E38F51E8249A6F02D0F2
:10BBB0008FC09AF0FE0EE76E9019E8AE02D0903575
:10BBC00003D0E750D88090550AE2030EE76E901933
:10BBD000E8AE02D0E73402D0E750905D04E3905124
:10BBE000E8249B6F02D090C09BF09C6B040EE66E25
:10BBF000990EE66E000EE66E010EE66EE66EB8EC8D
:10BC000051F0106E050EE15E1050F3CF92F0F4CFBC
:10BC100093F0130EE15C02E2E16AE552E16EE55257
:10BC2000E7CFD9FF1200D9CFE6FFE1CFD9FFFD0E54
:10BC3000DBCF10F0FE0EDBCF11F0BC0E105C020E5D
:10BC400011580BE3FB0EDBCF12F0FC0EDBCF13F031
:10BC5000BC0E125C020E135816E2FD0EDBCF10F084
:10BC6000FE0EDBCF11F0FB0EDBCF12F0FC0EDBCFB4
:10BC700013F01250105C1350115803E2010E05D05E
:10BC800004D0020E02D0000E00D0E552E7CFD9FF5B
:10BC900012004CEF67F052EF67F012001200A4EFB1
:10BCA00067F012001A0EE66E010EE66E81EC51F09E
:10BCB000E552E552120065840001080E9D6F070EE3
:10BCC0009E6F9D07000E9E5B9D519E11FAE165944B
:10BCD0001200D9CFE6FFE1CFD9FFFD0EDBCF08F090
:10BCE000FE0EDBCF09F0720E081801E1095033E0B7
:10BCF000E868081802E17F0E09182BE0740E081896
:10BD000001E1095024E0750E081801E109501DE019
:10BD1000730E081801E1095016E0030E081801E13E
:10BD200009500FE0020E081801E1095008E0010E69
:10BD3000081801E1095001E00FD0B4DF0DD0B1DFE8
:10BD40000BD0ADDF09D0A9DF07D0A3DF05D0A3DF7B
:10BD500003D0A4DF01D000D0010E00D0E552E7CF20
:04BD6000D9FF1200F5
:0CBD6400D9CFE6FFE1CFD9FF020EE126A7
:10BD7000FD0EDBCF10F0DB06FE0EDBCF11F001E293
:10BD8000DB061050111011E0DE6ADD6ADECF10F024
:10BD9000DDCF11F0E30E105C0D0E115805E2DF2A25
:10BDA000010E01E3DB2AF2D7E3D7020EE15C02E2E7
:10BDB000E16AE552E16EE552E7CFD9FF1200D9CF33
:10BDC000E6FFE1CFD9FF040EE1268D9296928D9089
:10BDD00096908D8496948A9A939A8A8893988A9852
:10BDE000DE6ADE6ADE6ADD6ADD52DD52D9CFE9FF46
:10BDF000DACFEAFF640EEE5C000EEE58000EEE584D
:10BE0000000EEE580AE2D9CFE9FFDACFEAFFEE2AB8
:10BE1000000EEE22EE22EE22E9D78A88DE6ADE6A82
:10BE2000DE6ADD6ADD52DD52D9CFE9FFDACFEAFF03
:10BE3000640EEE5C000EEE58000EEE58000EEE584A
:10BE40000AE2D9CFE9FFDACFEAFFEE2A000EEE22AE
:10BE5000EE22EE22E9D7AE0EE66E73D8E552DB0E87
:10BE6000E66E6FD8E552230EE66E6BD8E552D90E1A
:10BE7000E66E67D8E552220EE66E63D8E552A10E53
:10BE8000E66E5FD8E552C80EE66E5BD8E552DA0E74
:10BE9000E66E57D8E552120EE66E53D8E552A80E5C
:10BEA000E66E4FD8E5523F0EE66E4BD8E552D50E02
:10BEB000E66E47D8E552A00EE66E43D8E552810EF5
:10BEC000E66E3FD8E552600EE66E3BD8E552D30EE3
:10BED000E66E37D8E552E66A34D8E552A60EE66E2D
:10BEE00030D8E552AD0EE66E2CD8E5528B0EE66EDC
:10BEF00028D8E552E66A75D8E552AF0EE66E21D82D
:10BF0000E552960EE66EE66A2DDFE552E552A40E86
:10BF1000E66E17D8E552400EE66E13D8E552020ED3
:10BF2000E66E0FD8E552100EE66E0BD8E552040E01
:10BF3000E15C02E2E16AE552E16EE552E7CFD9FF4A
:10BF40001200D9CFE6FFE1CFD9FF956AFE0EDB5094
:10BF50008C6E8D808D828A9A8D9400008D92000067
:10BF60008D8200008D8400009568E552E7CFD9FFEF
:10BF70001200D9CFE6FFE1CFD9FF956AFE0EDB5064
:10BF80008C6E8D808D828A9A8D9400008D92000037
:10BF90008D820000FD0EDB508C6E00008D92000043
:10BFA0008D8200008D8400009568E552E7CFD9FFAF
:10BFB0001200D9CFE6FFE1CFD9FF956AFE0EDB5024
:10BFC0008C6E8D808D828A8A8D9400008D92000007
:10BFD0008D8200008D8400009568E552E7CFD9FF7F
:10BFE0001200D9CFE6FFE1CFD9FF020EE126B00E55
:10BFF000DF6EB80EDF5C22E2DFCFE6FFA2DFE552A4
:10C00000E66A9FDFE552100EE66E9BDFE552010EF9
:10C01000DB6ADB50106E116AD890115004E6840E72
:10C02000105C000E115808E2FE0EDBCFE6FFC1DF08
:10C03000E552010EDB2AEDD7DF2ADBD7020EE15CE9
:10C0400003E200D0E16AE552E16EE552E7CFD9FFA5
:10C050001200D9CFE6FFE1CFD9FF200E106EFE0E01
:10C06000DBCFE7FF1050E75EFE0EE7CFDBFF020EEF
:10C07000106EFC0EDBCFE7FF1050E726FC0EE7CF7B
:10C08000DBFFFD0EDBCFE6FF5CDFE552FC0EDB5095
:10C090000F0BE66E56DFE552FC0EDB380F0B0F0B75
:10C0A000100FE66E4EDFE552FB0EDB5001E1A5D02E
:10C0B000FE0EDBCFF6FFF76AF6BEF768060EF70254
:10C0C000F3CFF7FFF602F3CFF6FFF450F726420E58
:10C0D000F626CA0EF7220800F51CE66E6ADFE55266
:10C0E000FE0EDBCFF6FFF76AF6BEF768060EF70224
:10C0F000F3CFF7FFF602F3CFF6FFF450F726420E28
:10C10000F626CA0EF722010EF626000EF7220800C8
:10C11000F51CE66E4EDFE552FE0EDBCFF6FFF76A4A
:10C12000F6BEF768060EF702F3CFF7FFF602F3CF7D
:10C13000F6FFF450F726420EF626CA0EF722020E3C
:10C14000F626000EF7220800F51CE66E32DFE552F7
:10C15000FE0EDBCFF6FFF76AF6BEF768060EF702B3
:10C16000F3CFF7FFF602F3CFF6FFF450F726420EB7
:10C17000F626CA0EF722030EF626000EF722080056
:10C18000F51CE66E16DFE552FE0EDBCFF6FFF76A12
:10C19000F6BEF768060EF702F3CFF7FFF602F3CF0D
:10C1A000F6FFF450F726420EF626CA0EF722040ECA
:10C1B000F626000EF7220800F51CE66EFADEE552C0
:10C1C000FE0EDBCFF6FFF76AF6BEF768060EF70243
:10C1D000F3CFF7FFF602F3CFF6FFF450F726420E47
:10C1E000F626CA0EF722050EF626000EF7220800E4
:10C1F000F51CE66EDEDEE552A4D0FE0EDBCFF6FFC8
:10C20000F76AF6BEF768060EF702F3CFF7FFF602FD
:10C21000F3CFF6FFF450F726420EF626CA0EF722A9
:10C220000800F550E66EC5DEE552FE0EDBCFF6FFE8
:10C23000F76AF6BEF768060EF702F3CFF7FFF602CD
:10C24000F3CFF6FFF450F726420EF626CA0EF72279
:10C25000010EF626000EF7220800F550E66EA9DE64
:10C26000E552FE0EDBCFF6FFF76AF6BEF768060E64
:10C27000F702F3CFF7FFF602F3CFF6FFF450F726FD
:10C28000420EF626CA0EF722020EF626000EF722FE
:10C290000800F550E66E8DDEE552FE0EDBCFF6FFB0
:10C2A000F76AF6BEF768060EF702F3CFF7FFF6025D
:10C2B000F3CFF6FFF450F726420EF626CA0EF72209
:10C2C000030EF626000EF7220800F550E66E71DE2A
:10C2D000E552FE0EDBCFF6FFF76AF6BEF768060EF4
:10C2E000F702F3CFF7FFF602F3CFF6FFF450F7268D
:10C2F000420EF626CA0EF722040EF626000EF7228C
:10C300000800F550E66E55DEE552FE0EDBCFF6FF77
:10C31000F76AF6BEF768060EF702F3CFF7FFF602EC
:10C32000F3CFF6FFF450F726420EF626CA0EF72298
:10C33000050EF626000EF7220800F550E66E39DEEF
:10C34000E55200D0E552E7CFD9FF1200D9CFE6FF82
:10C35000E1CFD9FFE652FC0EDB50070801E240D0E6
:10C36000FB0EDB50DF6EB00E106EFC0EDBCFE7FF76
:10C370001050E726FC0EE7CFDBFFFD0EDBCFF6FF0C
:10C38000FE0EDBCFF7FF0800F5502AE0DF50106EFD
:10C39000116AD890115004E6840E105C000E1158FA
:10C3A00001E31ED0FA0EDBCFE6FFDFCFE6FFFC0E87
:10C3B000DBCFE6FFFD0EDBCFF6FFFE0EDBCFF7FF98
:10C3C0000800F550E66E45DEE552E552E552E552CD
:10C3D000FD0EDB2AFE0E01E3DB2A060EDF26CDD79B
:10C3E000E552E552E7CFD9FF1200D9CFE6FFE1CF02
:10C3F000D9FFE652FC0EDB50070801E23ED0FB0EEF
:10C40000DB50DF6EB00E106EFC0EDBCFE7FF10507E
:10C41000E726FC0EE7CFDBFFFD0EDBCFE9FFFE0ECC
:10C42000DBCFEAFFEF5029E0DF50106E116AD890A1
:10C43000115004E6840E105C000E115801E31DD06B
:10C44000FA0EDBCFE6FFDFCFE6FFFC0EDBCFE6FF29
:10C45000FD0EDBCFE9FFFE0EDBCFEAFFEF50E66E0D
:10C46000F8DDE552E552E552E552FD0EDB2AFE0EFF
:10C4700001E3DB2A060EDF26CFD7E552E552E7CFF0
:10C48000D9FF1200D9CFE6FFE1CFD9FF050EE12693
:10C49000030EDB6A040EDB6AFC0EDB50106E116AC1
:10C4A000113404E210508408000E115405E2840E89
:10C4B000F36EFC0EF3CFDBFFFB0EDB50400805E212
:10C4C000400EF36EFB0EF3CFDBFF020E106EFA0E82
:10C4D000DBCFE7FF1050E726FA0EE7CFDBFFF90EC0
:10C4E000DB50B00FDF6EFB0EDB50B00FDF5C35E2D0
:10C4F000DFCFE6FF26DDE552FA0EDB500F0BE66ECE
:10C5000020DDE552FA0EDB380F0B0F0B1009E66E3B
:10C5100018DDE552010EDB6AFC0EDB50F36E010EF6
:10C52000DBCFF4FFF350F45C16E2030EDB2A040EBB
:10C5300001E3DB2AFD0EDBCFF6FFDB2AFE0EDBCFAD
:10C54000F7FF01E3DB2A0800F550E66E32DDE55225
:10C55000010EDB2AE1D7DF2AC6D7050EE15C03E234
:10C5600000D0E16AE552E16EE552E7CFD9FF120053
:10C57000D9CFE6FFE1CFD9FF030EE12659D8736A80
:10C58000820E726E739C94949396958C7288728AC4
:10C59000949EE66AD0D8E552E76E020EE7CFDBFF45
:10C5A0000000D950020FE96EDACFEAFFEF50070B17
:10C5B000020801E00000140EE66EBDD8E552E76EF9
:10C5C000020EE7CFDBFF020EDB96DB88020EDB807C
:10C5D000DB92DB94020EDBCFE6FF140EE66E3AD858
:10C5E000E552E552010EE66EA6D8E552DE6EDD6A32
:10C5F0000000110EE66E9FD8E552DE6EDD6A000087
:10C60000E66A110EE66E26D8E552E5520000110EDC
:10C61000E66E91D8E552DE6EDD6A0000030EE15C45
:10C6200002E2E16AE552E16EE552E7CFD9FF12007E
:10C63000550EA76EAA0EA76E0E01FF91090ECC6FC4
:10C640000A0ED36F170EFB6F550EA76EAA0EA76EBC
:10C65000FF811200D9CFE6FFE1CFD9FFE652DF6AB2
:10C66000FE0EDB50140804E0FE0EDB50340806E139
:10C67000140EE66E60D8E552E00BDF6E8B9EA49E32
:10C68000FE0EDB50756EA4AEFED700000000000069
:10C69000000000000000000000000000000000009A
:10C6A000000000000000000000000000000000008A
:10C6B000000000000000000000000000000000007A
:10C6C000000000000000000000000000000000006A
:10C6D000000000000000000000000000000000005A
:10C6E000000000000000000000000000000000004A
:10C6F000000000000000000000000000000000003A
:10C7000000000000000000000000A49EFE0EDB50B0
:10C710000A0805E1FD0EDB507F0B756E04D0FD0E9F
:10C72000DB50DF10756EA4AEFED78B8EE552E5525E
:10C73000E7CFD9FF1200D9CFE6FFE1CFD9FF8B9E1B
:10C74000A49EFE0EDB508009756EA4AEFED70000DD
:10C7500000000000000000000000000000000000D9
:10C7600000000000000000000000000000000000C9
:10C7700000000000000000000000000000000000B9
:10C7800000000000000000000000000000000000A9
:10C790000000000000000000000000000000000099
:10C7A0000000000000000000000000000000000089
:10C7B0000000000000000000000000000000000079
:10C7C0000000000000000000000000000000A49E27
:10C7D000756AA4AEFED78B8E755000D0E552E7CFB8
:04C7E000D9FF12006B
:0CC7E400030EB16EB392B390B396B2880E
:10C7F000B28EB290B292A494B38E12002F0E926EAB
:10C800000F01E00E486F1F0E496FC18EC19CC70E0D
:10C81000C1140809C16EF80EC1140209C16E498F16
:10C82000C29CC29EC30EC2140809C26EC28012000E
:10C83000D9DFFEEF63F0D9CFE6FFE1CFD9FF020EDB
:10C84000E126FE0EDB500F0BF36EF346F346C30EEC
:10C85000C214F310C26EFE0EDB50EA6AC10FE96E1D
:10C86000000EEA22EF503F0BF36EF346F346030E41
:10C87000B114F310B16EB38EB3820000000000005B
:10C8800000000000000000000000000000000000A8
:10C890000000000000000000000000000000000098
:10C8A0000000B392B2800000000000000000000011
:10C8B0000000000000000000000000000000000078
:10C8C0000000000000000000000000000000B29026
:10C8D0009E9CC2829EACFED7C3CFDEFFC4CFDDFFDD
:10C8E000DECF10F0DDCF11F010C0F3FF11C0F4FF68
:10C8F00000D0020EE15C02E2E16AE552E16EE5522F
:10C90000E7CFD9FF1200D9CFE6FFE1CFD9FF030E61
:10C91000E126020EDB6A040EF36E020EDBCFF4FF9B
:10C92000F350F45C01E383D0020EDB50EA6AC10FDE
:10C93000E96E000EEA22EF6A020EDBCFE6FF7BDF34
:10C94000E552F3CFDEFFF4CFDDFFDECF10F0DDCF19
:10C9500011F0200E105C030E11582EE2020EDB5077
:10C96000EA6AC10FE96E000EEA22EF501F0809E1E2
:10C97000020EDB50EA6AC10FE96E000EEA22EF6A8E
:10C980001AD0020EDB50EA6AC10FE96E000EEA22ED
:10C99000EF2A020EDBCFE6FF4EDFE552F3CFDEFFDC
:10C9A000F4CFDDFFDECF10F0DDCF11F0200E105CF4
:10C9B000030E1158D3E338D0D9CFE9FFDACFEAFF1D
:10C9C000200ED880EE54030EED542EE2020EDB5002
:10C9D000EA6AC10FE96E000EEA22EF50E10809E1B0
:10C9E000020EDB50EA6AC10FE96E000EEA22EF6A1E
:10C9F0001BD0020EDB50EA6AC10FE96E000EEA227C
:10CA0000EF06020EDBCFE6FF16DFE552F3CFDEFFC7
:10CA1000F4CFDDFFD9CFE9FFDACFEAFF200ED880CF
:10CA2000EE54030EED54D2E3020EDB2A74D7030E4C
:10CA3000E15C02E2E16AE552E16EE552E7CFD9FF3F
:02CA40001200E2
:0ECA420000000000000000004F000000000790
:10CA500000070000147F147F1400242A7F2A12008C
:10CA60002313086462003649552250000005030074
:10CA70000000001C224100000041221C000014089C
:10CA80003E08140008083E0808000050300000006E
:10CA90000808080808000060600000002010080472
:10CAA00002003E5149453E0000427F400000426185
:10CAB000514946002141454B31001814127F1000A6
:10CAC0002745454539003C4A49493000017109056F
:10CAD0000300364949493600064949291E000036F7
:10CAE0003600000000563600000008142241000005
:10CAF00014141414140000412214080002015109F6
:10CB00000600324979413E007E1111117E007F49B5
:10CB1000494936003E41414122007F4141221C00EB
:10CB20007F49494941007F09090901003E414949BE
:10CB30007A007F0808087F0000417F410000204004
:10CB4000413F01007F08142241007F4040404000E7
:10CB50007F020C027F007F0408107F003E414141AC
:10CB60003E007F09090906003E4151215E007F0910
:10CB70001929460046494949310001017F01010058
:10CB80003F4040403F001F2040201F003F403840B2
:10CB90003F00631408146300070870080700615120
:10CBA00049454300007F4141000002040810200075
:10CBB0000041417F00000402010204004040404067
:10CBC00040000001020400002054545478007F48C3
:10CBD00044443800384444442000384444487F00EA
:10CBE000385454541800087E090102000C52525265
:10CBF0003E007F080404780000447D40000020408F
:10CC0000443D00007F102844000000417F400000A8
:10CC10007C04180478007C080404780038444444F8
:10CC200038007C1414140800081414187C007C08C4
:10CC300004040800485454542000043F4440200099
:10CC40003C4040207C001C2040201C003C403040E8
:10CC50003C004428102844000C5050503C004464D0
:10CC6000544C440000083641000000007F000000E2
:10CC7000004136080000020102040200000000002A
:10CC80000000007F45454547444444447C00808182
:01CC900000A3
:0FCC9100202064656D6F206D656E752E2020204C
:10CCA000202020202020002020746F2072657475C1
:10CCB000726E20746F2074686520202000486F6CAD
:10CCC0006420746865206D656E7520627574746F7C
:10CCD0006E20002020726967687420636C69636B42
:10CCE0002E2020202020202000202074686520276E
:10CCF000522720627574746F6E20746F202000209C
:10CD000020746F206C65667420636C69636B2C20E3
:10CD1000616E64200050726573732074686520270B
:10CD20004C2720627574746F6E200020206D6F7622
:10CD3000656D656E742E202020202020202020206C
:10CD400000202067726F756E6420666F72206E6FB0
:10CD500020202020202000202072656C61746976DC
:10CD60006520746F207468652020202000486F6C57
:10CD7000642074686520626F61726420666C6174FF
:10CD800020200020206D6F76652074686520637513
:10CD900072736F722E2020200054696C74207468A6
:10CDA0006520626F61726420746F20202020002053
:10CDB0002020202020202020202020202020202073
:10CDC000202020200020206120555342206D6F75C7
:10CDD00073652E20202020202020002020626F61FB
:10CDE00072642077696C6C20616374206C696B6578
:10CDF00000496E20746869732064656D6F2C20741F
:10CE0000686520202020005072657373204D656E88
:10CE10007520746F2070726F636565640020202038
:10CE20004D6F7573652044656D6F2076312E30200F
:10CE300020200020504943313846205374617274D9
:09CE40006572204B69742020008A
:01CE490000E8
:06CE4A000001C7B123D076
:10CE5000C7838B809490550EA76EAA0EA76E0E0105
:10CE6000FF910E0ED16F550EA76EAA0EA76EFF8111
:10CE70000F0EBA6ECF0EBA140009BA6E100EBB6E4A
:10CE80000F01526B800ECB6E040ECA6EA4960A0E72
:10CE9000776E7F0E766E12000001C791C7938B806C
:10CEA000949012000001C7A10BD08B50010B06E13A
:10CEB0009450010B03E1010E46D002D0C791C5DFAB
:10CEC0000001C7A3C2DFA4A63CD0A496BA50300B81
:10CED000E842E842E842E84203081AE1500EBB5C2F
:10CEE00011E18B909490BA6ACA6A0E01D16B0F015E
:10CEF000526BCB68766A7768A4960001C781C793A6
:10CF0000010E21D0BB2ACF0EBA140009BA6E19D077
:10CF1000BA0EE96E0F0EEA6EEF50300BE842E842AF
:10CF2000E842E842E82AF36EF350030BF36EF46E26
:10CF3000F346F346F346F346CF0EEF14F310EF6ECD
:08CF4000F450000E00D01200B5
:08CF4800040120511F0B010838
:10CF500001E065D0245101E062D0060E215D22E19E
:10CF60002351230A1EE0010A11E0030A01E01AD04E
:10CF7000000161050AE10001440E716FD00E726F6D
:10CF8000090E746F756BC00E736F0CD00001BA0E72
:10CF9000716FD00E726F340E746F756BC00E736F3D
:10CFA00001D000D004012051600BE842E842E84281
:10CFB000E842E842010801E032D021510B0A29E0A1
:10CFC000080A1CE0090A14E0080A07E00B0A04E05A
:10CFD000080A01E024D023D022D00001C50E716FD1
:10CFE000000E726F010E746F756BC10E736F17D0E8
:10CFF0000001800E736F23C4C5F011D00001C60E6E
:10D00000716F000E726F010E746F756B810E736F0E
:10D0100006D00001800E736F22C4C6F000D012004B
:10D020001201000200000008D80400000300010201
:10D03000000109022200010100C09609040000015C
:10D0400003010200092111010001223400070581BA
:10D05000030400010403090434034D006900630064
:10D0600072006F00630068006900700020005400C7
:10D070006500630068006E006F006C006F00670061
:10D080007900200049006E0063002E002E034D0041
:10D090006F00750073006500200049006E002000DD
:10D0A0006100200043006900720063006C006500AD
:10D0B0002000440065006D006F0005010902A10118
:10D0C0000901A1000509190129031500250195038E
:10D0D000750181029501750581010501093009314C
:10D0E00009381581257F750895038106C0C032D0A7
:06D0F00054D058D08CD092
:0AD0F6001E0EF66EA00EF76E000E7F
:10D10000F86E00010900F550AF6F0900F550B06FDF
:10D1100003E1AF6701D03DD00900F550AA6F0900C7
:10D12000F550AB6F0900F550AC6F09000900F550E0
:10D13000E96E0900F550EA6E090009000900F55092
:10D14000AD6F0900F550AE6F09000900F6CFB1F0E0
:10D15000F7CFB2F0F8CFB3F0AAC0F6FFABC0F7FF3D
:10D16000ACC0F8FF0001AD5302E1AE5307E0090087
:10D17000F550EE6EAD07F8E2AE07F9D7B1C0F6FF95
:10D18000B2C0F7FFB3C0F8FF0001AF07000EB05BFD
:04D19000BFD71200F3
:0CD19400006A0EAED0EF68F00E6C001EBA
:10D1A00009AED5EF68F0096C001E7BEC69F009BE92
:10D1B000DFEF68F000AE000C096C056C000C00BEDF
:10D1C000DCEF68F00188FF0C006A0EAEEDEF68F04E
:10D1D0000D6C0E1EE86A0E22001E09AEF5EF68F017
:10D1E000086C091EE86A0922001E47EC69F009BEB6
:10D1F00005EF69F000AE000C086C091EE86A092210
:10D20000046C051EE86A0522000C00BEFCEF68F005
:04D210000188FF0C86
:0CD2140006000B00110017001C00220097
:10D2200028002F0035003C0043004A0052005A00FD
:10D2300062006B00750080008C009900A700B700A9
:10D24000C900DE00F6001201350160019601DE0121
:0AD250004102D602CC03B605710BB3
:06D25A00FE0EE3CFE9FF28
:10D26000FF0EE3CFEAFFE9CFF3FFEACFF4FFFB0EB7
:10D27000E35003E1FC0EE35009E0FB0EE30602E29B
:0ED28000FC0EE306FD0EE350EE6EF1D7120039
:02D28E00056A2F
:10D29000046A100EE76ED890083609360436053653
:10D2A0000D50045C0E50055805E30D50045E0E5001
:0AD2B000055A082AE72EF0D71200F5
:06D2BA00C00EF36E00EE51
:10D2C00000F00E0E01D81200EA6002D0EE6AFCD720
:0AD2D000F350E9601200EE6AFCD78B
:06D2DA001DEE00F02DEE38
:10D2E00000F0F86A019C7BEC68F003EC50F0BBECBA
:06D2F00059F0FBD712000B
:0AD2F600056A080EE76ED8900936AD
:10D3000005360E50055C02E3056E092AE72EF7D7B5
:02D31000120009
:01FFF800AA5E
:01FFF900F710
:01FFFA001FE7
:01FFFB00FF06
:01FFFC0063A1
:01FFFD00F80B
:01FFFE008181
:01FFFF00F110
:00000001FF
