:100000000C9435000C945D000C945D000C945D0024
:100010000C945D000C945D000C945D000C945D00EC
:100020000C945D000C945D000C945D000C945D00DC
:100030000C945D000C945D000C945D000C945D00CC
:100040000C945D000C945D000C945D000C945D00BC
:100050000C945D000C945D000C945D000C945D00AC
:100060000C945D000C945D00530111241FBECFEF72
:10007000D8E0DEBFCDBF11E0A0E0B1E0EAEEF3E0F2
:1000800002C005900D92AC31B107D9F721E0ACE187
:10009000B1E001C01D92A437B207E1F710E0C5E35B
:1000A000D0E004C02197FE010E947801C433D1073B
:1000B000C9F70E9465010C94F3010C940000CF93E2
:1000C000C82F873049F460917201709173018EE0FE
:1000D00091E00E947E010BC08A3019F48DE00E94ED
:1000E0005F008091C00085FFFCCFC093C60080E018
:1000F00090E0CF910895EF92FF920F931F93CF93CB
:10010000DF9320916C0130916D01232B09F0ACC07D
:10011000EC010CE111E08091C00087FFFCCF8091E1
:10012000C00084FDB4C08091C00083FDB3C0809145
:10013000C6008D3069F48AE0F8018083BE010E9418
:100140005F008CE191E090936D0180936C018CC015
:100150008A3089F3893009F480E290EE980F9F3558
:1001600010F0803AC0F0F1E00B361F0749F46091BF
:100170007201709173018EE091E00E947E01CBCFFD
:1001800078019FEFE91AF90AF8018083BE010E9405
:100190005F008701C0CF823129F130F4833009F448
:1001A00079C0883051F0B7CF873129F08F3729F0E7
:1001B000853159F1B0CF78014FC0F1E00C311F0704
:1001C00009F008F4A8CFBE0188E00E945F00BE01DC
:1001D00080E20E945F00BE0188E00E945F00015043
:1001E000110999CFBE018DE00E945F008CE1E82EDD
:1001F00081E0F82EE016F10608F08DCFBE01F70180
:1002000081917F010E945F00F5CFF1E00C311F0763
:1002100009F008F480CFBE0188E00E945F00BE01B3
:1002200080E20E945F00BE0188E00E945F000150F2
:100230001109EBCFF70182917F01803209F46BCF76
:10024000BE0188E00E945F00BE0180E20E945F0064
:10025000BE0188E00E945F0087018CE1E81681E022
:10026000F80609F038F757CFE0916C01F0916D0175
:10027000CF01019690936D0180936C0180818A304B
:1002800021F410926D0110926C0190E005C08EEF88
:100290009FEF02C08FEF9FEFDF91CF911F910F91E2
:1002A000FF90EF90089582E08093C00080E18093FA
:1002B000C40088E18093C100EEE6F1E080E091E0C7
:1002C00091838083938382830895569A84B5836053
:1002D00084BD84B58F73806884BD85B5887F816057
:1002E00085BD84E687BD86E191E00E94A801FBCF31
:1002F000EE0FFF1F0590F491E02D0994EF92FF920D
:100300000F931F93CF93DF93DB0113962C9121FF63
:1003100018C08B017C01D0E0C0E0F70181917F0122
:10032000882361F0D8011896ED91FC911997B801D6
:100330000995892B91F3DFEFCFEFEFCF8D2F9C2F16
:1003400002C08FEF9FEFCDB7DEB7E6E00C94E4017B
:100350000F931F93CF93DF93E0917001F0917101A0
:10036000238121FF1BC08C01D0E0C0E0F801819106
:100370008F016091700170917101DB011896ED9110
:10038000FC911997882331F00995892B79F3DFEFD8
:10039000CFEFECCF8AE00995892B19F08FEF9FEF13
:1003A00002C08D2F9C2FDF91CF911F910F91089547
:1003B0002A88398848885F846E847D848C849B84F5
:1003C000AA84B984C884DF80EE80FD800C811B8103
:1003D000AA81B981CE0FD11D0FB6F894DEBF0FBE32
:0A03E000CDBFED010895F894FFCFA2
:1003EA0000000003000000005F007B0000002A728A
:0C03FA00696E672A0A0068656C6C6F0071
:00000001FF
