:020000040000fa
:080000000002040000000000f2
:020000040000fa
:040008003e040000b2
:020000040000fa
:04000c003e040000ae
:020000040000fa
:040010003e040000aa
:020000040000fa
:040014003e040000a6
:020000040000fa
:040018003e040000a2
:020000040000fa
:04001c003e0400009e
:020000040000fa
:040020003e0400009a
:020000040000fa
:040024003e04000096
:020000040000fa
:040028003e04000092
:020000040000fa
:04002c003e0400008e
:020000040000fa
:040030003e0400008a
:020000040000fa
:04003400fa020000cc
:020000040000fa
:040038003e04000082
:020000040000fa
:04003c003e0400007e
:020000040000fa
:040040003e0400007a
:020000040000fa
:04004400ba030000fb
:020000040000fa
:04004800fc030000b5
:020000040000fa
:04004c003e0400006e
:020000040000fa
:040050003e0400006a
:020000040000fa
:040054003e04000066
:020000040000fa
:040058003e04000062
:020000040000fa
:04005c003e0400005e
:020000040000fa
:040060003e0400005a
:020000040000fa
:040064003e04000056
:020000040000fa
:040068003e04000052
:020000040000fa
:04006c003e0400004e
:020000040000fa
:040070003e0400004a
:020000040000fa
:040074003e04000046
:020000040000fa
:040078003e04000042
:020000040000fa
:04007c003e0400003e
:020000040000fa
:040080003e0400003a
:020000040000fa
:040084003e04000036
:020000040000fa
:040088003e04000032
:020000040000fa
:04008c003e0400002e
:020000040000fa
:040090003e0400002a
:020000040000fa
:040094003e04000026
:020000040000fa
:040098003e04000022
:020000040000fa
:04009c003e0400001e
:020000040000fa
:0400a0003e0400001a
:020000040000fa
:0400a4003e04000016
:020000040000fa
:0400a8003e04000012
:020000040000fa
:0400ac003e0400000e
:020000040000fa
:0400b0003e0400000a
:020000040000fa
:0400b4003e04000006
:020000040000fa
:0400b8003e04000002
:020000040000fa
:0400bc003e040000fe
:020000040000fa
:0400c0003e040000fa
:020000040000fa
:0400c4003e040000f6
:020000040000fa
:0400c8003e040000f2
:020000040000fa
:0400cc003e040000ee
:020000040000fa
:0400d0003e040000ea
:020000040000fa
:0400d4003e040000e6
:020000040000fa
:0400d8003e040000e2
:020000040000fa
:0400dc003e040000de
:020000040000fa
:0400e0003e040000da
:020000040000fa
:0400e4003e040000d6
:020000040000fa
:0400e8003e040000d2
:020000040000fa
:0400ec003e040000ce
:020000040000fa
:0400f0003e040000ca
:020000040000fa
:0400f4003e040000c6
:020000040000fa
:0400f8003e040000c2
:020000040000fa
:0400fc003e040000be
:020000040000fa
:040100003e040000b9
:020000040000fa
:040104003e040000b5
:020000040000fa
:040108003e040000b1
:020000040000fa
:04010c003e040000ad
:020000040000fa
:040110003e040000a9
:020000040000fa
:040114003e040000a5
:020000040000fa
:040118003e040000a1
:020000040000fa
:04011c003e0400009d
:020000040000fa
:040120003e04000099
:020000040000fa
:040124003e04000095
:020000040000fa
:040128003e04000091
:020000040000fa
:04012c003e0400008d
:020000040000fa
:040130003e04000089
:020000040000fa
:040134003e04000085
:020000040000fa
:040138003e04000081
:020000040000fa
:04013c003e0400007d
:020000040000fa
:040140003e04000079
:020000040000fa
:040144003e04000075
:020000040000fa
:040148003e04000071
:020000040000fa
:04014c003e0400006d
:020000040000fa
:040150003e04000069
:020000040000fa
:040154003e04000065
:020000040000fa
:040158003e04000061
:020000040000fa
:04015c003e0400005d
:020000040000fa
:040160003e04000059
:020000040000fa
:040164003e04000055
:020000040000fa
:040168003e04000051
:020000040000fa
:04016c003e0400004d
:020000040000fa
:040170003e04000049
:020000040000fa
:040174003e04000045
:020000040000fa
:040178003e04000041
:020000040000fa
:04017c003e0400003d
:020000040000fa
:040180003e04000039
:020000040000fa
:040184003e04000035
:020000040000fa
:040188003e04000031
:020000040000fa
:04018c003e0400002d
:020000040000fa
:040190003e04000029
:020000040000fa
:040194003e04000025
:020000040000fa
:040198003e04000021
:020000040000fa
:04019c003e0400001d
:020000040000fa
:0401a0003e04000019
:020000040000fa
:0401a4003e04000015
:020000040000fa
:0401a8003e04000011
:020000040000fa
:0401ac003e0400000d
:020000040000fa
:0401b0003e04000009
:020000040000fa
:0401b4003e04000005
:020000040000fa
:0401b8003e04000001
:020000040000fa
:0401bc003e040000fd
:020000040000fa
:0401c0003e040000f9
:020000040000fa
:0401c4003e040000f5
:020000040000fa
:0401c8003e040000f1
:020000040000fa
:0401cc003e040000ed
:020000040000fa
:0401d0003e040000e9
:020000040000fa
:0401d4003e040000e5
:020000040000fa
:0401d8003e040000e1
:020000040000fa
:0401dc003e040000dd
:020000040000fa
:0401e0003e040000d9
:020000040000fa
:0401e4003e040000d5
:020000040000fa
:0401e8003e040000d1
:020000040000fa
:0401ec003e040000cd
:020000040000fa
:0401f0003e040000c9
:020000040000fa
:0401f4003e040000c5
:020000040000fa
:0401f8003e040000c1
:020000040000fa
:0401fc003e040000bd
:020000040000fa
:040200003e040000b8
:020000040000fa
:040204003e040000b4
:020000040000fa
:040208003e040000b0
:020000040000fa
:04020c003e040000ac
:020000040000fa
:040210003e040000a8
:020000040000fa
:040214003e040000a4
:020000040000fa
:040218003e040000a0
:020000040000fa
:04021c003e0400009c
:020000040000fa
:040220003e04000098
:020000040000fa
:040224003e04000094
:020000040000fa
:040228003e04000090
:020000040000fa
:04022c003e0400008c
:020000040000fa
:040230003e04000088
:020000040000fa
:040234003e04000084
:020000040000fa
:040238003e04000080
:020000040000fa
:04023c003e0400007c
:020000040000fa
:040240003e04000078
:020000040000fa
:040244003e04000074
:020000040000fa
:040248003e04000070
:020000040000fa
:04024c003e0400006c
:020000040000fa
:040250003e04000068
:020000040000fa
:040254003e04000064
:020000040000fa
:040258003e04000060
:020000040000fa
:04025c003e0400005c
:020000040000fa
:040260003e04000058
:020000040000fa
:040264003e04000054
:020000040000fa
:040268003e04000050
:020000040000fa
:04026c003e0400004c
:020000040000fa
:040270003e04000048
:020000040000fa
:040274003e04000044
:020000040000fa
:040278003e04000040
:020000040000fa
:04027c003e0400003c
:020000040000fa
:040280003e04000038
:020000040000fa
:100400000f0121000eff27000e01880000000000f0
:10041000000020000000e000020032000001200087
:1004200020028800140007007a0107000000e000a5
:1004300003003a00c00b2100010020000200370039
:100440000000200001002000810f70000100320038
:100450000f000700000020000000e0000200320052
:100460000000020000000000ae10020000000000ca
:100470000040da000000fe00200020000000e00044
:1004800002003200100020009001880000000600e9
:10049000a1028800800478000000eb001f003700f4
:1004a000e284440054a0b4009905ba00e2844400f8
:1004b00054a0b4009906ba00e284440054a0b400e9
:1004c0000006eb00476fde00fd07b200ae018800ba
:1004d000636ce10003003a000ad801000000eb0061
:1004e0000e003700606ce10008003a00004deb00a0
:1004f0000a05e800020039003420ec000af0a000f0
:100500008b05e900f9ff3e00040037006168e10057
:10051000010032000086eb000b00070019c7ba008b
:100520000e04e0001905ba0003003a000a00e000da
:10053000dbff3a0000000600fe07b200ae028800b2
:100540008a047800f5ff37000cd0a300e20f4d00bd
:100550001c00390089027800354dba000a05e80010
:10056000020039003420ec000af0a0008b05e900fd
:100570000f003200254dba000a05e80002003900dc
:100580003420ec000af0a0008b05e90008003200de
:100590000c00e0000600320015cdba000a05e800a4
:1005a000020039003420ec000af0a0008b05e900bd
:1005b0008984e80054a0b4000b00e000e2ff3a0098
:1005c000000006009902ba00055d78008b05e9007d
:1005d000f7ff3200c82ade00055d78008b05e900d0
:1005e000f3ff32000c00e000f1ff320019ddba0029
:1005f000eeff37003600f800809fbe00829fbe00ed
:10060000849fbe00869fbe00889fbe008a9fbe005a
:100610003200f8003400f80010002000a00188002b
:100620001000200090018800000000000600fa0081
:100630000068a90003d0bf000004a2000004e0008d
:100640000300320010c0b30002f0b7003e003700d4
:100650000180800000832000808f500003003e0056
:1006600010c0b30002f0b7003700370001808000ef
:10067000007d2f0000804000008088000180800005
:10068000f0822000808f50002e003e00018080000c
:10069000f0032000808f500005003e008000200005
:1006a00010079800f0fd2f00000f78000d003700b4
:1006b00001808000a0202000808f500005003e00b7
:1006c0000004200010079800f0fe2f00000f7800b3
:1006d0000400370000102000100798000080eb0095
:1006e000000f7800008080008000eb007e02070091
:1006f0006022b80006002400f70b2400da0207008d
:100700000205be000004be001e0090008000eb0049
:10071000750207000203be000002be000800be0012
:100720000a01be00220107002b02070020079800e3
:1007300090fb2f001e006000ae0090008f000700ad
:1007400001003700000000000080fa003400f900ca
:100750003200f9004f05be004f04be004f03be003b
:100760004f02be004f01be004f00be003600f90030
:10077000004006003600f800809fbe00829fbe0049
:10078000849fbe00869fbe003200f8003400f8004f
:1007900010002000a00188001000200090018800b7
:1007a000000000000000fa00308080000000e80037
:1007b000308088003180800020808000808f500051
:1007c00003003a0040808000000001000630ef0086
:1007d00000e8a9000080fa003400f9003200f900b6
:1007e0004f03be004f02be004f01be004f00be00cf
:1007f0003600f900004006003600f800809fbe0079
:10080000829fbe00849fbe00869fbe003200f8001b
:100810003400f80010002000a00188001000200023
:1008200090018800000000000000fa006080800055
:100830000000e800608088006180800050808000b7
:10084000808f500003003a0070808000000001009b
:100850000c30ef000108a9000080fa003400f90014
:100860003200f9004f03be004f02be004f01be0030
:100870004f00be003600f900004006000040da00dc
:100880000000fe002068a90005e1a9000068a90099
:100890000000060020e8a90011e1a90000e8a90075
:1008a000000006002108a90013e1a9000108a90021
:1008b000000006000068a900e7006000f2ff2800c1
:1008c000cc08dd0003428000030161006800600085
:1008d0000281700071ff2f000242880002418000f7
:1008e00082806000810070000141880000000600e5
:1008f00000e8a900e7006000f2ff2800cc08dd0056
:1009000013428000030161006800600002817000f2
:100910004300de001242880061006000f1f72f0002
:100920004700dd000241800082806000810070008d
:1009300001418800000006000108a900e7006000ee
:1009400082ff2f00680060002342800003016100e5
:100950004300de00028170006100600022428800d6
:100960004800dd00f1ef2f0002418000828060002e
:100970008100700001418800000006000021ef00a6
:100980001108880020088800000006000621ef00fa
:1009900061088800800888001061a9000000060036
:1009a0000a21ef0071088800900888000000060006
:1009b0001421ef001821ef00d2088800e308880016
:1009c000f00888001e61a80000000600a208800050
:1009d000b00880008001eb008000eb00c000dd006b
:1009e00000002000020070008380700000000600fc
:1009f000000888000000060030088800000006009b
:100a00005008880000000600b1088800a00888008f
:100a1000000006000000050003f0a200889fbe0051
:100a20008a9fbe008c1f7800f6010700fd0133008d
:100a30006450e1004f0032006420e10052003200b7
:100a400003826c0007003b000905d0000306d000bc
:100a5000820f54000c065d000200390002003200d3
:100a600089017800030678008582550004003d0066
:100a70000003fd008103fd008502ea008b85420032
:100a8000840f720002003b0060001000e08018003c
:100a90006011b8000005eb007a28e1000a00390077
:100aa00006007800c75ddd00f707b200878075009b
:100ab0002d003700828171000a0178006105600015
:100ac0008180d1000080d3008502e900f9ff3b005e
:100ad000060440008784480002003b0060041400c4
:100ae000e0841c000988a300070032008a8171009d
:100af00082817100610164008904d1000884d300ff
:100b00008b05e800170037000978a30013003a00ae
:100b10000b00e000130034008b05e90008044400da
:100b200089844c000a4474000978a3000d003a003f
:100b30000b00e000070034008b05e90008044400c6
:100b400089844c0001003a000b0020000978a300c2
:100b5000f7ff32000001eb000200370082817100d4
:100b60000a0178006c0107000cf0a70001f0a0005a
:100b7000b50137006420e10002003a00838f6c0069
:100b8000b50133000801be000200be00ae0137000f
:100b90000001eb00e7000700040032000200200023
:100ba00003f8230001f0a6009cff070000000600e8
:100bb0002800fa00889fbe008a9fbe008c9fbe005e
:100bc00003866b00c20007006400e10044003200ad
:100bd0006408e1004a0032006100e1004600320092
:100be0006108e10049003200ec0647006000b800ef
:100bf0003d02be003d03be00f48657006011b80000
:100c00003d04be003d05be007d0320000b00370003
:100c10000000a0008d06e90013003200040242002b
:100c200085824a0006034b0087834b00000040008a
:100c30008180480002014900838149000802520076
:100c400089825a000a035b008b835b00f0ff3b0044
:100c50000802420089824a000a034b008b834b0042
:100c60008d06e900edff3a008482720086827200f0
:100c7000f707b200878272000100320015002000e1
:100c80001e0490003e0b900006035400e63fb000a7
:100c90000368a300070032000000a7000500a000c1
:100ca0008301d1000281d3008180d3000080d30072
:100cb0000603e8008301d1000281d3008180d300c4
:100cc0000080d3000002eb000482d2005400070031
:100cd00003f0a1000cf0a70003f0a0009000370083
:100ce000640247006408e1008a0032003400be005c
:100cf0003401be00f6ff37006108e10085003200d4
:100d00006011b8006000b800f1ff370003ff270052
:100d100002002000fbff3700889fbe008a9fbe00b4
:100d20008c1f7800370107003e01330003866c00fa
:100d30006450e1002e0032006420e10033003200f4
:100d40006150e1002f0032006120e10031003200eb
:100d500085855500eb07b00009002000080420003d
:100d6000050037000804440089844c000a00310063
:100d70000603430087834b000001530081815b0021
:100d8000f8ff33000203be000800a000080444007e
:100d900089844c00f6ff3900c639dd0083017300f9
:100da00001003200130020008904d1000884d30020
:100db0000998a300050032000800a7000300a00066
:100dc0008904d1000884d3008b05e8008904d10090
:100dd0000884d3000001eb000281d200ce0007009e
:100de00001f0a1000cf0a70001f0a00016013700ef
:100df0006420e100180132000801be000200be00bc
:100e0000f7ff37006120e100130132006000b800f5
:100e1000f3ff37000000200001f82700f0ff370043
:100e20001800200057002000080453000d003d006a
:100e30000600200097fc2f000740e1001e00340050
:100e400084827200610260008301d1000281d300bc
:100e50008180d3000080d3000804e800f8ff3a0046
:100e6000470020006104600005047400040464006d
:100e70000d00320061004000e08048006001490040
:100e8000e081490003b8a500070032000603e8002e
:100e90006538e10004003a008301d1000281d300eb
:100ea0008180d3000080d300f87f20000830e1006b
:100eb00003003500080378006000b8006011b80036
:100ec0004433dd00f300b20083017300000006002c
:100ed000680447000294be000094be00fc04470072
:100ee0008694be008494be00090078009701070034
:100ef000080078009501070099007800814f700084
:100f00000b003b000800be00810107004f00b1004c
:100f100003003700f3ff2700f2ff2f006110b90034
:100f20004f06be004f05be004f04be000080fa0011
:100f300000000600889fbe008a9fbe000003be001e
:100f40009b00070085057800828152000200200086
:100f50006220e10004003a00f307b100040035000c
:100f60007718e100040035000600be0014003700c9
:100f70006000b8000f003700f50f2000faff2f00c7
:100f80008502d1000a85d3008301e900fcff3b0004
:100f90008184620000046500890f7400f2ff320052
:100fa0008582ea000a85ea00818462000004650007
:100fb0005900070007f0a70001f0a0000081eb0036
:100fc0000200e0004f05be004f04be000000060016
:100fd000f4ff2f00840137001400fa00889fbe0040
:100fe0008a9fbe008c9fbe000004be000205be00aa
:100ff000680047000a90be000890be005301070039
:101000000070a7000bf0a1000bf8a30016003a0037
:101010009e0290003043200080825200b0fe2f00dc
:101020000028e1000d003c00b0fc2f000028e1008a
:101030000d0034001e0990008e0890007e00900084
:101040000501b0000201d1008180d3000080d300ef
:101050008502e800fbff3a00b1ff370001002800dd
:1010600000002000aeff37006000b800acff370082
:101070000001be004e0007000470a70003f0a100ad
:1010800003f8a30013003a006509b1001000320014
:10109000090035006928e100020035000100280040
:1010a0000000050000004000818048008502e90042
:1010b000fcff3a0000000600f88f420005003500f2
:1010c0008100d1000080d3008502e800fcff3a00d7
:1010d000000006008000eb00000005004f89de00e4
:1010e000820178005b0137006011b80069013700a8
:1010f0006011b800920137000001eb008dff07007e
:10110000040032000200200003f8230001f0a700d1
:1011100041fe0700000006008100200061805500ac
:101120000b003d000b00200061fe2f000100e100dc
:101130001d00340082817100610164008904d100c6
:101140000884d3000000e800faff3a007100200094
:1011500061006400030070000200600009003200ba
:1011600061044400e0844c000988a50005003200b9
:101170008b05e8006808e10002003a008904d1000c
:101180000884d300f20f20000258e10005003d0062
:10119000c75ddd00f907b20089807500080078009e
:1011a000000006000bf827008b0078000000050007
:1011b000c70ade00f107b200f50fb20008003200e6
:1011c000e1cf4200020032000170a00024000500bf
:1011d000810f700001003200040805004400050082
:1011e000810f700002003a00140005008502e9003a
:1011f0000000400081c04800fcff3b000170a000df
:10120000240005000004be00e9ff07000003be0043
:101210000405be000200be00e5ff0700844f750014
:10122000000006000200be006450e1000500360028
:101230006420e100020036000968a30001003a00c2
:101240000800be000160a0004f0678004f05be00f8
:101250004f04be0000000600f0ff2f00f1ff270042
:10126000f9ff3700000000002800fa00889fbe0048
:101270008a9fbe008c9fbe0003866b0014ff070090
:101280000028a30064003a000128a30068003a0087
:101290000008a30062003a000108a30066003a00bb
:1012a0001e009000be08900081064000ed3fb10096
:1012b000f4805700ee019000111ab8008e099000da
:1012c000311bb8009e099000311cb800511db800b8
:1012d000f485570046000700fe0190003a00070021
:1012e0008b85e8003e0007008e0990004000070053
:1012f000ee019000340007008b85e80038000700fd
:101300008e099000400007009e0990001b18b8004d
:10131000890440000a854800fe019000340007005f
:101320008b85e80038000700ee01900030000700d0
:101330008e0990001b18b800890440000a854800f7
:101340000a98a30008003a000402420085824a007d
:1013500006034b0087834b0008044c0089844c0033
:101360000a054d008d06e900848272008502730033
:101370004c3add00850272000100320015002000a9
:10138000443ade001400b2004538de00cb45dd00f3
:101390000b007000c540de00cb4ddd008b8070007f
:1013a0004549de00cb55dd000b017100c551de0063
:1013b0000d0378009afe070003f0a1000cf0a700cf
:1013c00003f0a000d6fe37001b18b80085024000cd
:1013d00006834800e0834b0060044c0007003700a0
:1013e0001b18b8000603400087834800faff370047
:1013f0001b18b8008703400008844800e0844c00b4
:1014000060054d00000006001b18b80008044000ed
:1014100089844800faff37000108a300bdfe3a00a6
:101420005800be00000000005801be00e2ff370077
:101430000008a300b7fe3a0009047800f8ff37005f
:10144000889fbe008a9fbe008c1f78006dff07003a
:1014500074ff330003866c006450e1002400320006
:101460006420e100270032006150e10022003200d8
:101470006120e100210032008b854200eb07b100c2
:101480000134b800003ab8000804420089844a00d8
:10149000013ab8000030b8008880400009014a00d5
:1014a0000400330000004000818048000201490030
:1014b0008b05e900c909dd008301700001003200dd
:1014c00013002000c814de004814dd004709de00c8
:1014d0001200b200c808de00088470000eff07008a
:1014e00001f0a1000cf0a70001f0a00056ff3700aa
:1014f0006120e10058ff32000801be000200be007a
:10150000f7ff37006150e100fcff3a0052ff37005f
:10151000e48240001078a30007003200640240001b
:101520001178a3003400be001401be000500320093
:101530000330a7000000060035007800b5007800f1
:101540001501be000330a000000006005002be00de
:10155000e40050005003be004439de00f700b20042
:10156000f37f200003016100090032000218e1004e
:1015700016003a00850172008301730083817300b5
:101580000008200015003a0040002000130037003a
:1015900085017200830173008381730005003a00a6
:1015a00004a8be0006a8be00100020000b003700f3
:1015b0000201e9000402420085824a0006034b0052
:1015c00087834b000748a300f9ff32000740a000c3
:1015d00004a8be0006a8be002000200080009800dd
:1015e0009200980000000600889fbe008a9fbe00ff
:1015f000841f780003ff07004f00780011003300bc
:10160000f0ff2f00838f6c0006003b00040565008f
:101610000a00a7000800370009f0a600100020000b
:1016200008003700820f5400838f5c0003003900ec
:101630001000200001003e000000200009f0a7007b
:101640000000ea004f05be004f04be000000e000ad
:1016500000000600881f7800030478000300e00003
:1016600007003d0060001000e080180060011900d4
:10167000e081190002003b0001f02d00030037005b
:101680002f00070008f0a70001f0a0004f04780029
:1016900000000600889fbe000082700004027100f6
:1016a000048271002400320036432000c50020006f
:1016b0008383cf000a0039000541b1008283cf0047
:1016c000070039000541b1008183cf0004003900d3
:1016d0000541b1008083cf00010039000541b10010
:1016e00085c353006022b800120032000a003b009c
:1016f00084827200610260008301d1000281d30004
:101700008180d3000080d3000603e8008743e8000f
:10171000f7ff3a00070037000000400081804800d2
:1017200002014900838149000603e9008743e9007b
:10173000f9ff3a00bafd07004f04be0000000600a2
:10174000889fbe008a9fbe00008270000402710064
:1017500004827100260032000004be000200be00b8
:101760006011b8006b092000950220000182cf00b3
:101770000a0039000541b1000082cf00070039009e
:101780000541b1000982cf00040039000541b100d4
:101790000882cf00010039000541b1000542520026
:1017a000120032000a003b00828171006101640076
:1017b0008100d1000080d3008984d3000884d30045
:1017c0008b05e8000442e800f7ff3a000700370005
:1017d0000804440089844c000000480081804800cf
:1017e0008b05e9000442e900f9ff3a004afe0700d0
:0c17f0004f05be004f04be0000000600c4
:020000040000fa
:1017fc001200fa00000f980020cab300204798008e
:10180c000e80e800120020008000780060c7b30052
:10181c00de010700e30047000b0009008058eb00d5
:10182c0063004700c20020008000780060c7b3004e
:10183c000a0207000000eb00000f780013003700cd
:10184c001e007800000040008e0890008080400050
:10185c001e00780000004000630040006e407800dd
:10186c000080fb004801dd001e00780000004000f5
:10187c000000e800630040006e4078000080fb0030
:10188c0000004100800878001e0fe8001e00780060
:10189c00e50f5000eaff34000080fa00000006005b
:1018ac003400fa00889fbe008a9fbe002017980063
:1018bc003117980042179800531798006417980036
:1018cc0075179800061f9800171f980040c4b300a6
:1018dc00405f98007c0047001200200080007800d8
:1018ec0060c7b300a901070050002000ba00070030
:1018fc007d004700320020008000780060c7b300f4
:10190c00d601070040c5b300405f98007c0047003b
:10191c00120020008000780060c7b3009b01070014
:10192c0050002000ac000700000220000e00400018
:10193c00320020008000780060c7b300c7010700a8
:10194c005e5890000080fb008000eb00c001dd00c1
:10195c00020020006e5890000080fb004800dd0063
:10196c00cf80de0002014000838148007e58900049
:10197c000080fb008000eb00001f41000197490034
:10198c000e6090000080fb008000eb00c001dd00c9
:10199c00020020001e6090000080fb004800dd006b
:1019ac00cf80de0002014000838148002e60900051
:1019bc000080fb008000eb000200400083804800a8
:1019cc002007980031079800ceb8970000f02f0040
:1019dc008089b900beb897000080eb008088b90000
:1019ec0000014100beb8970000f02f000008b800bd
:1019fc0001014100820078002e019000be01900090
:101a0c000000410081804900400798005107980070
:101a1c004e009000de009000adfd07006011b80094
:101a2c00fbfb07000004be001eb89700aeb8970081
:101a3c00a7fd07006011b800f5fb07000001be0010
:101a4c000800be007bfe07000200200003b024004b
:101a5c00aefc070002002000a34f2400ecfb0700a3
:101a6c0060079800710798004e109000de109000ef
:101a7c0097fd070002002000038024006dfe070084
:101a8c000004be000e1890009e18900090fd0700f8
:101a9c006011b800defb07000005be004e00900090
:101aac00de0090008afd07006011b800d8fb07002b
:101abc000001be000a00be005efe0700020020000e
:101acc000328240091fc07000001be000800be00a2
:101adc00cffb0700000f9800110f98002e109000fc
:101aec00be1090007afd07006011b800c8fb07001b
:101afc0002002000037824004efe07000004be0004
:101b0c006e109000fe10900071fd07006011b8007f
:101b1c00bffb07000005be004e009000de009000e9
:101b2c006bfd07006011b800b9fb07000001be0097
:101b3c000a00be003ffe0700020020000330240014
:101b4c0072fc07000001be000800be00b0fb0700dd
:101b5c00200f9800310f98001e0078009e00900016
:101b6c005bfd07006011b800a9fb07002e0990006f
:101b7c00be0990002ffe07000200200003a02400e5
:101b8c0062fc07000e0990009e0990009ffb070065
:101b9c0002002000037024005cfc0700400f98003a
:101bac00510f98000eb897004e099000de09900076
:101bbc000288be000eb89700640040006e019000d1
:101bcc00fe0190000288be004f05be004f04be000f
:101bdc000080fa00000006000800fa00889fbe0092
:101bec008a9fbe003007980023fb07000370ef00ac
:101bfc000270ef000068a900c0ff2f002afb07004d
:101c0c00be009000f0032000808f500005003e00c5
:101c1c008000200010079800f0fd2f00000f7800c6
:101c2c0017003700be009000a0202000808f5000cd
:101c3c0005003e000004200010079800f0fe2f0065
:101c4c00000f78000e0037000010200010079800dd
:101c5c000080eb00000f7800be009000f0822000a6
:101c6c00808f500006003600be0090000180880076
:101c7c00008320003007980010c0b30003f0b700b9
:101c8c000000eb0057fb07003e0090008000eb00cb
:101c9c0012fd07006022b80006002400f70b240098
:101cac006efd07000205be000004be001e00900081
:101cbc008000eb0009fd07000203be000002be001d
:101ccc000800be000a01be00b6fb0700bffc0700ff
:101cdc002007980090fb2f001e006000ae009000c3
:101cec0023fb07000000000002d0bf000004a2008c
:101cfc000004e000fcff3a00dffa070070ff2f0041
:101d0c00e9fa07008000eb00f0ff270018fb070042
:101d1c000000eb0033fb07004f05be004f04be0074
:101d2c000080fa00000006000e00fa00881f780000
:101d3c00404f9800514f98004e4890000080fb0097
:101d4c00cf80de00e2fc070002002000031024001c
:101d5c00b8fd0700008fbe00d000200020079800bf
:101d6c0020012000300798003e0090008000eb001e
:101d7c00dcfc070018c0b3001e0178009e01900027
:101d8c0090fc07000000e00001003d000044eb0067
:101d9c000804e000020032000000eb001a003700db
:101dac002e0090008000eb00cefc07000001be006e
:101dbc001e0078009e00900014fb0700020020001b
:101dcc00030c2400d1fb0700400798005107980032
:101ddc005e4890000004e000060032004e009000c7
:101dec00de00900067fb07009efc070000007800f7
:101dfc00050037004e009000de009000bbfc070091
:101e0c0098fc0700000078004f0478000080fa006e
:101e1c00000006000000fa009bfa0700c0ff2f002c
:101e2c00b0fa07000080fa00000006000400fa0077
:101e3c00000f7800110798009e0090002180880008
:101e4c000630ef009e007800418088000000eb0017
:101e5c00e6fa070001f42100d0f82f00c8fa0700b9
:101e6c000080fa00000006000000fa008000eb0081
:101e7c00f0ff2700c2fa07000080fa0000000600fd
:101e8c000000fa0084fa0700c0ff2f00a7fa070031
:101e9c000080fa00000006000400fa00000f780031
:101eac00110798009e009000518088000c30ef00c4
:101ebc009e007800718088000000eb00cdfa0700ce
:101ecc0001f42100d0f82f00b2fa07000080fa00cc
:101edc00000006000000fa008000eb00f0ff270075
:101eec00acfa07000080fa00000006000000fa00bf
:101efc000081eb008081eb00d0fb2f00a9fa0700da
:101f0c006000b800bdfa07000080fa00000006006f
:101f1c000c00fa00aafa0700008fbe001e00780021
:101f2c009e0090006dfc07006022b8000648280057
:101f3c00e71624001bfb07006022b80006002400f3
:101f4c00f7112400c5fc0700200798003107980002
:101f5c0042079800530798002e009000be00900096
:101f6c004e019000de0190000080fa000000060097
:101f7c000000fa0007e2a8003001200020108800c1
:101f8c000782a8000080fa00000006000a00fa0090
:101f9c004047980031079800420798000000eb007a
:101fac00000f78004e409000004040002047980001
:101fbc000602a800000000003010800061006000e4
:101fcc000000e000fcff3a002e4090000080fb0077
:101fdc001010880000000000411080000000240058
:101fec00008060000000e000fbff3a000000eb0006
:101ffc00000f78000d0037001e007800be00900026
:10200c0000804000104078000080fb001010880019
:10201c0000000000411080000000240000806000df
:10202c000000e000fbff3a001e0fe8004e0090009d
:10203c009e007800808f5000efff35000642a8000c
:10204c000000000030108000640060000000e00020
:10205c00fcff3a000080fa00000006000a00fa00bb
:10206c004047980031079800420798000000eb00a9
:10207c00000f78004e4090000080fb0000004000f4
:10208c00004078000004a000204798000602a80039
:10209c000000000030108000610060000000e000d3
:1020ac00fcff3a002e4090000080fb0010108800ce
:1020bc00000000004110800000002400008060003f
:1020cc000000e000fbff3a000000eb00000f78007e
:1020dc00130037000662a8000000000030108000da
:1020ec00680060000000e000fcff3a001e00780071
:1020fc00be009000008040000110800081407800fc
:10210c00014878000682a800000000003010800012
:10211c00700060000000e000fcff3a001e0fe800b9
:10212c004e0090009e007800808f5000e9ff350033
:10213c000642a8000000000030108000640060001f
:10214c000000e000fcff3a000080fa0000000600ee
:10215c000400fa00000f78001107980084ff0700b4
:0c216c000000eb000080fa0000000600fc
:020000040000fa
:1021780000100000100000008000000000000000b7
:020000040000fa
:020000040005f5
:045fe000cfff0000ef
:020000040000fa
:020000040005f5
:045fe400efff0000cb
:020000040000fa
:020000040005f5
:045fe8007fff000037
:020000040000fa
:020000040005f5
:045fec003eff000074
:020000040000fa
:020000040005f5
:045ff000baff0000f4
:020000040000fa
:020000040005f5
:045ff400ffff0000ab
:00000001FF
