:100000000C9435000C945D000C945D000C945D0024
:100010000C945D000C945D000C945D000C945D00EC
:100020000C945D000C945D000C945D000C945D00DC
:100030000C945D000C945D000C945D000C945D00CC
:100040000C945D000C945D000C945D000C945D00BC
:100050000C945D000C945D000C945D000C945D00AC
:100060000C945D000C945D00530111241FBECFEF72
:10007000D8E0DEBFCDBF11E0A0E0B1E0E0E9F3E001
:1000800002C005900D92A631B107D9F721E0A6E193
:10009000B1E001C01D92AE36B207E1F710E0C5E352
:1000A000D0E004C02197FE010E947B01C433D10738
:1000B000C9F70E9465010C94C6010C940000CF930F
:1000C000C82F873049F460916C0170916D018EE00A
:1000D00091E00E9481010BC08A3019F48DE00E94EA
:1000E0005F008091C00085FFFCCFC093C60080E018
:1000F00090E0CF910895EF92FF920F931F93CF93CB
:10010000DF932091660130916701232B09F0ACC089
:10011000EC0106E111E08091C00087FFFCCF8091E7
:10012000C00084FDB4C08091C00083FDB3C0809145
:10013000C6008D3069F48AE0F8018083BE010E9418
:100140005F0086E191E090936701809366018CC027
:100150008A3089F3893009F480E290EE980F9F3558
:1001600010F0803AC0F0F1E005361F0749F46091C5
:100170006C0170916D018EE091E00E948101CBCF06
:1001800078019FEFE91AF90AF8018083BE010E9405
:100190005F008701C0CF823129F130F4833009F448
:1001A00079C0883051F0B7CF873129F08F3729F0E7
:1001B000853159F1B0CF78014FC0F1E006311F070A
:1001C00009F008F4A8CFBE0188E00E945F00BE01DC
:1001D00080E20E945F00BE0188E00E945F00015043
:1001E000110999CFBE018DE00E945F0086E1E82EE3
:1001F00081E0F82EE016F10608F08DCFBE01F70180
:1002000081917F010E945F00F5CFF1E006311F0769
:1002100009F008F480CFBE0188E00E945F00BE01B3
:1002200080E20E945F00BE0188E00E945F000150F2
:100230001109EBCFF70182917F01803209F46BCF76
:10024000BE0188E00E945F00BE0180E20E945F0064
:10025000BE0188E00E945F00870186E1E81681E028
:10026000F80609F038F757CFE0916601F091670181
:10027000CF010196909367018093660180818A3057
:1002800021F4109267011092660190E005C08EEF94
:100290009FEF02C08FEF9FEFDF91CF911F910F91E2
:1002A000FF90EF90089582E08093C00080E18093FA
:1002B000C40088E18093C100E8E6F1E080E091E0CD
:1002C00091838083938382830895259A2D9A2FEFBB
:1002D00089E698E1215080409040E1F700C000009D
:1002E0002D982FEF89E698E1215080409040E1F76A
:1002F00000C00000EBCFEE0FFF1F0590F491E02D42
:100300000994EF92FF920F931F93CF93DF93DB013A
:1003100013962C9121FF18C08B017C01D0E0C0E026
:10032000F70181917F01882361F0D8011896ED9142
:10033000FC911997B8010995892B91F3DFEFCFEF65
:10034000EFCF8D2F9C2F02C08FEF9FEFCDB7DEB781
:10035000E6E00C94B7012A88398848885F846E8467
:100360007D848C849B84AA84B984C884DF80EE80D9
:10037000FD800C811B81AA81B981CE0FD11D0FB6E2
:10038000F894DEBF0FBECDBFED010895F894FFCF06
:1003900000000003000000005F007B0000002A72E4
:0603A000696E672A0A00E5
:00000001FF
