:020000040000fa
:080000000002040000000000f2
:020000040000fa
:04000800bc04000034
:020000040000fa
:04000c00bc04000030
:020000040000fa
:04001000bc0400002c
:020000040000fa
:04001400bc04000028
:020000040000fa
:04001800bc04000024
:020000040000fa
:04001c00bc04000020
:020000040000fa
:04002000bc0400001c
:020000040000fa
:04002400bc04000018
:020000040000fa
:04002800bc04000014
:020000040000fa
:04002c00bc04000010
:020000040000fa
:04003000bc0400000c
:020000040000fa
:04003400780300004d
:020000040000fa
:04003800bc04000004
:020000040000fa
:04003c00bc04000000
:020000040000fa
:04004000bc040000fc
:020000040000fa
:04004400380400007c
:020000040000fa
:040048007a04000036
:020000040000fa
:04004c00bc040000f0
:020000040000fa
:04005000bc040000ec
:020000040000fa
:04005400180300008d
:020000040000fa
:04005800fa020000a8
:020000040000fa
:04005c00bc040000e0
:020000040000fa
:04006000bc040000dc
:020000040000fa
:04006400bc040000d8
:020000040000fa
:04006800bc040000d4
:020000040000fa
:04006c00bc040000d0
:020000040000fa
:04007000bc040000cc
:020000040000fa
:04007400bc040000c8
:020000040000fa
:04007800bc040000c4
:020000040000fa
:04007c00bc040000c0
:020000040000fa
:04008000bc040000bc
:020000040000fa
:04008400bc040000b8
:020000040000fa
:04008800bc040000b4
:020000040000fa
:04008c00bc040000b0
:020000040000fa
:04009000bc040000ac
:020000040000fa
:04009400bc040000a8
:020000040000fa
:04009800bc040000a4
:020000040000fa
:04009c00bc040000a0
:020000040000fa
:0400a000bc0400009c
:020000040000fa
:0400a400bc04000098
:020000040000fa
:0400a800bc04000094
:020000040000fa
:0400ac00bc04000090
:020000040000fa
:0400b000bc0400008c
:020000040000fa
:0400b400bc04000088
:020000040000fa
:0400b800bc04000084
:020000040000fa
:0400bc00bc04000080
:020000040000fa
:0400c000bc0400007c
:020000040000fa
:0400c400bc04000078
:020000040000fa
:0400c800bc04000074
:020000040000fa
:0400cc00bc04000070
:020000040000fa
:0400d000bc0400006c
:020000040000fa
:0400d400bc04000068
:020000040000fa
:0400d800bc04000064
:020000040000fa
:0400dc00bc04000060
:020000040000fa
:0400e000bc0400005c
:020000040000fa
:0400e400bc04000058
:020000040000fa
:0400e800bc04000054
:020000040000fa
:0400ec00bc04000050
:020000040000fa
:0400f000bc0400004c
:020000040000fa
:0400f400bc04000048
:020000040000fa
:0400f800bc04000044
:020000040000fa
:0400fc00bc04000040
:020000040000fa
:04010000bc0400003b
:020000040000fa
:04010400bc04000037
:020000040000fa
:04010800bc04000033
:020000040000fa
:04010c00bc0400002f
:020000040000fa
:04011000bc0400002b
:020000040000fa
:04011400bc04000027
:020000040000fa
:04011800bc04000023
:020000040000fa
:04011c00bc0400001f
:020000040000fa
:04012000bc0400001b
:020000040000fa
:04012400bc04000017
:020000040000fa
:04012800bc04000013
:020000040000fa
:04012c00bc0400000f
:020000040000fa
:04013000bc0400000b
:020000040000fa
:04013400bc04000007
:020000040000fa
:04013800bc04000003
:020000040000fa
:04013c00bc040000ff
:020000040000fa
:04014000bc040000fb
:020000040000fa
:04014400bc040000f7
:020000040000fa
:04014800bc040000f3
:020000040000fa
:04014c00bc040000ef
:020000040000fa
:04015000bc040000eb
:020000040000fa
:04015400bc040000e7
:020000040000fa
:04015800bc040000e3
:020000040000fa
:04015c00bc040000df
:020000040000fa
:04016000bc040000db
:020000040000fa
:04016400bc040000d7
:020000040000fa
:04016800bc040000d3
:020000040000fa
:04016c00bc040000cf
:020000040000fa
:04017000bc040000cb
:020000040000fa
:04017400bc040000c7
:020000040000fa
:04017800bc040000c3
:020000040000fa
:04017c00bc040000bf
:020000040000fa
:04018000bc040000bb
:020000040000fa
:04018400bc040000b7
:020000040000fa
:04018800bc040000b3
:020000040000fa
:04018c00bc040000af
:020000040000fa
:04019000bc040000ab
:020000040000fa
:04019400bc040000a7
:020000040000fa
:04019800bc040000a3
:020000040000fa
:04019c00bc0400009f
:020000040000fa
:0401a000bc0400009b
:020000040000fa
:0401a400bc04000097
:020000040000fa
:0401a800bc04000093
:020000040000fa
:0401ac00bc0400008f
:020000040000fa
:0401b000bc0400008b
:020000040000fa
:0401b400bc04000087
:020000040000fa
:0401b800bc04000083
:020000040000fa
:0401bc00bc0400007f
:020000040000fa
:0401c000bc0400007b
:020000040000fa
:0401c400bc04000077
:020000040000fa
:0401c800bc04000073
:020000040000fa
:0401cc00bc0400006f
:020000040000fa
:0401d000bc0400006b
:020000040000fa
:0401d400bc04000067
:020000040000fa
:0401d800bc04000063
:020000040000fa
:0401dc00bc0400005f
:020000040000fa
:0401e000bc0400005b
:020000040000fa
:0401e400bc04000057
:020000040000fa
:0401e800bc04000053
:020000040000fa
:0401ec00bc0400004f
:020000040000fa
:0401f000bc0400004b
:020000040000fa
:0401f400bc04000047
:020000040000fa
:0401f800bc04000043
:020000040000fa
:0401fc00bc0400003f
:020000040000fa
:04020000bc0400003a
:020000040000fa
:04020400bc04000036
:020000040000fa
:04020800bc04000032
:020000040000fa
:04020c00bc0400002e
:020000040000fa
:04021000bc0400002a
:020000040000fa
:04021400bc04000026
:020000040000fa
:04021800bc04000022
:020000040000fa
:04021c00bc0400001e
:020000040000fa
:04022000bc0400001a
:020000040000fa
:04022400bc04000016
:020000040000fa
:04022800bc04000012
:020000040000fa
:04022c00bc0400000e
:020000040000fa
:04023000bc0400000a
:020000040000fa
:04023400bc04000006
:020000040000fa
:04023800bc04000002
:020000040000fa
:04023c00bc040000fe
:020000040000fa
:04024000bc040000fa
:020000040000fa
:04024400bc040000f6
:020000040000fa
:04024800bc040000f2
:020000040000fa
:04024c00bc040000ee
:020000040000fa
:04025000bc040000ea
:020000040000fa
:04025400bc040000e6
:020000040000fa
:04025800bc040000e2
:020000040000fa
:04025c00bc040000de
:020000040000fa
:04026000bc040000da
:020000040000fa
:04026400bc040000d6
:020000040000fa
:04026800bc040000d2
:020000040000fa
:04026c00bc040000ce
:020000040000fa
:04027000bc040000ca
:020000040000fa
:04027400bc040000c6
:020000040000fa
:04027800bc040000c2
:020000040000fa
:04027c00bc040000be
:020000040000fa
:04028000bc040000ba
:020000040000fa
:100400006f0921000eff27000e0188000000000088
:10041000000020000000e000020032000001200087
:100420002002880014000700e30107000000e0003c
:1004300003003a00e0b8210001002000020037006c
:100440000000200001002000810f70000100320038
:100450000f000700000020000000e0000200320052
:1004600000000200000000000c1902000000000063
:100470000040da000000fe00200020000000e00044
:1004800002003200100020009001880000000600e9
:10049000a1028800800478000000eb001f003700f4
:1004a000e284440054a0b4009905ba00e2844400f8
:1004b00054a0b4009906ba00e284440054a0b400e9
:1004c0000006eb00476fde00fd07b200ae018800ba
:1004d000636ce10003003a000ad801000000eb0061
:1004e0000e003700606ce10008003a00004deb00a0
:1004f0000a05e800020039003420ec000af0a000f0
:100500008b05e900f9ff3e00040037006168e10057
:10051000010032000086eb000b00070019c7ba008b
:100520000e04e0001905ba0003003a000a00e000da
:10053000dbff3a0000000600fe07b200ae028800b2
:100540008a047800f5ff37000cd0a300e20f4d00bd
:100550001c00390089027800354dba000a05e80010
:10056000020039003420ec000af0a0008b05e900fd
:100570000f003200254dba000a05e80002003900dc
:100580003420ec000af0a0008b05e90008003200de
:100590000c00e0000600320015cdba000a05e800a4
:1005a000020039003420ec000af0a0008b05e900bd
:1005b0008984e80054a0b4000b00e000e2ff3a0098
:1005c000000006009902ba00055d78008b05e9007d
:1005d000f7ff3200c82ade00055d78008b05e900d0
:1005e000f3ff32000c00e000f1ff320019ddba0029
:1005f000eeff37003200f8003400f800881f780062
:1006000018002000a8018800180020009801880028
:10061000000000004f0478000000fa000188a900e3
:100620000080fa003400f9003200f90000400600b2
:10063000809fbe00821f78003200f8003400f8006e
:1006400010002000a0018800100020009001880008
:10065000000000000000fa000168a900400121002c
:10066000104078000004e00004003a00818080001f
:1006700090808000808f50001400320080808000c5
:1006800031118000630040000001400000012100a2
:100690000000410001087800808080000000e80030
:1006a000808088008180800000042000808f5000be
:1006b00002003a000000eb00808088004001210029
:1006c0008040eb0001487800030037005001210012
:1006d00011c0b300014878000080fa003400f9002e
:1006e0003200f9004f0178004f00be0000400600c4
:1006f0003600f800809fbe00829fbe00849fbe002f
:10070000869fbe00889fbe008a9fbe003200f80010
:100710003400f80010002000a00188001000200024
:1007200090018800000000000600fa000068a9009f
:1007300003d0bf000004a2000004e0000300320068
:1007400010c0b30002f0b7003e0037000180800007
:1007500000832000808f500003003e0010c0b300d3
:1007600002f0b7003700370001808000007d2f00c5
:10077000008040000080880001808000f08220001e
:10078000808f50002e003e0001808000f00320008a
:10079000808f500005003e00800020001007980068
:1007a000f0fd2f00000f78000d0037000180800061
:1007b000a0202000808f500005003e000004200093
:1007c00010079800f0fe2f00000f7800040037009b
:1007d00000102000100798000080eb00000f780048
:1007e000008080008000eb00db0207006022b80080
:1007f00006002400f70b2400370307000205be00a3
:100800000004be001e0090008000eb00d202070032
:100810000203be000002be000800be000a01be00c6
:1008200051010700880207002007980090fb2f0065
:100830001e006000ae0090008f000700010037002e
:10084000000000000080fa003400f9003200f900d6
:100850004f05be004f04be004f03be004f02be0056
:100860004f01be004f00be003600f90000400600f8
:100870003600f800809fbe00829fbe00849fbe00ad
:10088000869fbe003200f8003400f80010002000ff
:10089000a0018800100020009001880000000000e6
:1008a0000000fa00308080000000e80030808800fe
:1008b0003180800020808000808f500003003a004b
:1008c00040808000000001000630ef0000e8a90031
:1008d0000080fa003400f9003200f9004f03be0036
:1008e0004f02be004f01be004f00be003600f900af
:1008f000004006003600f800809fbe00829fbe00c8
:10090000849fbe00869fbe003200f8003400f800cd
:1009100010002000a0018800100020009001880035
:10092000000000000000fa00608080000000e80085
:10093000608088006180800050808000808f50003f
:1009400003003a0070808000000001000c30ef00ce
:100950000108a9000080fa003400f9003200f90013
:100960004f03be004f02be004f01be004f00be004d
:100970003600f900004006000040da000000fe00ea
:100980002068a90005e1a9000068a9000000060090
:1009900020e8a90011e1a90000e8a9000000060074
:1009a0002108a90013e1a9000108a9000000060020
:1009b0000068a900e7006000f2ff2800cc08dd0015
:1009c0000342800003016100680060000281700042
:1009d00071ff2f0002428800024180008280600087
:1009e00081007000014188000000060000e8a900b5
:1009f000e7006000f2ff2800cc08dd001342800011
:100a00000301610068006000028170004300de00a5
:100a10001242880061006000f1f72f004700dd00fe
:100a200002418000828060008100700001418800e6
:100a3000000006000108a900e700600082ff2f0007
:100a40006800600023428000030161004300de0073
:100a50000281700061006000224288004800dd00d1
:100a6000f1ef2f0002418000828060008100700061
:100a700001418800000006000021ef0011088800f5
:100a800020088800000006000621ef0061088800a9
:100a9000800888001061a900000006000a21ef000c
:100aa0007108880090088800000006001421ef00fb
:100ab0001821ef00d2088800e3088800f0088800b9
:100ac0001e61a80000000600a2088000b008800097
:100ad0008001eb008000eb00c000dd000000200082
:100ae000020070008380700000000600000888008b
:100af000000006003008880000000600500888004a
:100b000000000600b1088800a00888000000060068
:100b100021e2a9002168a9002188a9000168a90093
:100b20000188a900000006000168a900e700600034
:100b30000188a900cc08dd0000017800f3ff28003f
:100b40000207b20024428000848161004411de006b
:100b500083817000e800600023428800c308de0043
:100b600083ff2f00e18060003442800084816100b7
:100b7000cb08dd00830171000008b2003342880019
:100b8000f27f2f004700de00034180000301610077
:100b900061006000028170004c00dd0002418800ad
:100ba000f1ff2e000441800084806000810070000d
:100bb00001418800000006000000050003f0a200cb
:100bc000889fbe008a9fbe008c1f78002902070004
:100bd000300233006450e1004f0032006420e10035
:100be0005200320003826c0007003b000905d00070
:100bf0000306d000820f54000c065d00020039008d
:100c000002003200890178000306780085825500d1
:100c100004003d000003fd008103fd008502ea00a1
:100c20008b854200840f720002003b0060001000c0
:100c3000e08018006011b8000005eb007a28e100a0
:100c40000a00390006007800c75ddd00f707b20032
:100c5000878075002d003700828171000a017800bd
:100c6000610560008180d1000080d3008502e90029
:100c7000f9ff3b00060440008784480002003b0067
:100c800060041400e0841c000988a30007003200ff
:100c90008a81710082817100610164008904d10040
:100ca0000884d3008b05e800170037000978a300fb
:100cb00013003a000b00e000130034008b05e9003c
:100cc0000804440089844c000a4474000978a30095
:100cd0000d003a000b00e000070034008b05e9002e
:100ce0000804440089844c0001003a000b002000f5
:100cf0000978a300f7ff32000001eb000200370083
:100d0000828171000a0178009f0107000cf0a700a2
:100d100001f0a000e80137006420e10002003a0081
:100d2000838f6c00e80133000801be000200be00a2
:100d3000e10137000001eb001a0107000400320056
:100d40000200200003f8230001f0a6009cff07002a
:100d5000000006008f1fd100450307008f87e900c0
:100d60000000e000000006002800fa00889fbe0096
:100d70008a9fbe008c9fbe0003866b00d1000700d7
:100d80006400e100440032006408e1004a003200df
:100d90006100e100460032006108e10049003200d4
:100da000ec0647006000b8003d02be003d03be00f7
:100db000f48657006011b8003d04be003d05be003a
:100dc0007d0320000b0037000000a0008d06e90025
:100dd000130032000402420085824a0006034b00e1
:100de00087834b00000040008180480002014900d9
:100df000838149000802520089825a000a035b007d
:100e00008b835b00f0ff3b000802420089824a00ae
:100e10000a034b008b834b008d06e900edff3a007f
:100e20008482720086827200f707b20087827200a5
:100e300001003200150020001e0490003e0b9000bf
:100e400006035400e63fb0000368a3000700320029
:100e50000000a7000500a0008301d1000281d3009b
:100e60008180d3000080d3000603e8008301d10015
:100e70000281d3008180d3000080d3000002eb0008
:100e80000482d2006300070003f0a1000cf0a70069
:100e900003f0a0009f003700640247006408e100ef
:100ea000990032003400be003401be00f6ff370066
:100eb0006108e100940032006011b8006000b800e1
:100ec000f1ff370003ff270002002000fbff37007f
:100ed000889fbe008a9fbe008c1f780065010700b6
:100ee0006c01330003866c006450e1002e00320078
:100ef0006420e100330032006150e1002f00320035
:100f00006120e1003100320085855500eb07b0001b
:100f100009002000080420000500370008044400f0
:100f200089844c000a0031000603430087834b008c
:100f30000001530081815b00f8ff33000203be0013
:100f40000800a0000804440089844c00f6ff390022
:100f5000c639dd0083017300010032001300200058
:100f60008904d1000884d3000998a3000500320049
:100f70000800a7000300a0008904d1000884d30062
:100f80008b05e8008904d1000884d3000001eb0040
:100f90000281d200fc00070001f0a1000cf0a700c4
:100fa00001f0a000440137006420e1004601320056
:100fb0000801be000200be00f7ff37006120e1001b
:100fc000410132006000b800f3ff3700000020004c
:100fd00001f82700f0ff3700839f68000100e00060
:100fe00002003d0060001000e08018000300e000f7
:100ff00002003d0060011100e08119000d020700b0
:101000004f00e00002003b0060001000e08018008c
:1010100000000600180020005700200008045300bc
:101020000d003d000600200097fc2f000740e10066
:101030001e00340084827200610260008301d100ce
:101040000281d3008180d3000080d3000804e8002f
:10105000f8ff3a00470020006104600005047400b6
:10106000040464000d00320061004000e08048008c
:1010700060014900e081490003b8a5000700320083
:101080000603e8006538e10004003a008301d1005e
:101090000281d3008180d3000080d300f87f20003c
:1010a0000830e10003003500080378006000b80054
:1010b0006011b8004433dd00f300b2008301730017
:1010c00000000600680447000294be000094be00c1
:1010d000fc0447008694be008494be00090078009a
:1010e000ad02070008007800ab0207009900780005
:1010f000814f70000b003b000800be008502070016
:101100004f00b10003003700f3ff2700f2ff2f006c
:101110006110b9004f06be004f05be004f04be006f
:101120000080fa000000060081037800bc00070080
:101130000001be006000b8000478a30013003a006c
:101140006220e10015003e000d0039008301d1004e
:101150000281d3008180d3008301d1000281d300ba
:101160008180d3008301d1000281d3008180d3002c
:101170000538b000c42add00f300b200838172009c
:1011800007f0a70003f0a00000000600f3ff27000f
:10119000f2ff2f006110b900fbff370003ff2700ab
:1011a000f7ff3700889fbe008a9fbe000003be0085
:1011b0009b00070085057800828152000200200014
:1011c0006220e10004003a00f307b100040035009a
:1011d0007718e100040035000600be001400370057
:1011e0006000b8000f003700f50f2000faff2f0055
:1011f0008502d1000a85d3008301e900fcff3b0092
:101200008184620000046500890f7400f2ff3200df
:101210008582ea000a85ea00818462000004650094
:101220005900070007f0a70001f0a0000081eb00c3
:101230000200e0004f05be004f04be0000000600a3
:10124000f4ff2f007b0237001400fa00889fbe00d5
:101250008a9fbe008c9fbe000004be000205be0037
:10126000680047000a90be000890be004a020700ce
:101270000070a7000bf0a1000bf8a30016003a00c5
:101280009e0290003043200080825200b0fe2f006a
:101290000028e1000d003c00b0fc2f000028e10018
:1012a0000d0034001e0990008e0890007e00900012
:1012b0000501b0000201d1008180d3000080d3007d
:1012c0008502e800fbff3a0092ff3700010028008a
:1012d000000020008fff37006000b8008dff37004e
:1012e0000001be004e0007000470a70003f0a1003b
:1012f00003f8a30013003a006509b10010003200a2
:10130000090035006928e1000200350001002800cd
:101310000000050000004000818048008502e900cf
:10132000fcff3a0000000600f88f4200050035007f
:101330008100d1000080d3008502e800fcff3a0064
:10134000000006008000eb00000005004f89de0071
:1013500082017800520237006011b8006002370045
:101360006011b800890237000001eb008dff070013
:10137000040032000200200003f8230001f0a7005f
:101380000efe07000000060081002000618055006d
:101390000b003d000b00200061fe2f000100e1006a
:1013a0001d00340082817100610164008904d10054
:1013b0000884d3000000e800faff3a007100200022
:1013c0006100640003007000020060000900320048
:1013d00061044400e0844c000988a5000500320047
:1013e0008b05e8006808e10002003a008904d1009a
:1013f0000884d300f20f20000258e10005003d00f0
:10140000c75ddd00f907b20089807500080078002b
:10141000000006000bf827008b0078000000050094
:10142000c70ade00f107b200f50fb2000800320073
:10143000e1cf4200020032000170a000240005004c
:10144000810f70000100320004080500440005000f
:10145000810f700002003a00140005008502e900c7
:101460000000400081c04800fcff3b000170a0006c
:10147000240005000004be00e9ff07000003be00d1
:101480000405be000200be00e5ff0700844f7500a2
:10149000000006000200be006450e10005003600b6
:1014a0006420e100020036000968a30001003a0050
:1014b0000800be000160a0004f0678004f05be0086
:1014c0004f04be0000000600f0ff2f00f1ff2700d0
:1014d000f9ff3700000000002800fa00889fbe00d6
:1014e0008a9fbe008c9fbe0003866b00f5fe07003e
:1014f0000028a30064003a000128a30068003a0015
:101500000008a30062003a000108a30066003a0048
:101510001e009000be08900081064000ed3fb10023
:10152000f4805700ee019000111ab8008e09900067
:10153000311bb8009e099000311cb800511db80045
:10154000f485570046000700fe0190003a000700ae
:101550008b85e8003e0007008e09900040000700e0
:10156000ee019000340007008b85e800380007008a
:101570008e099000400007009e0990001b18b800db
:10158000890440000a854800fe01900034000700ed
:101590008b85e80038000700ee019000300007005e
:1015a0008e0990001b18b800890440000a85480085
:1015b0000a98a30008003a000402420085824a000b
:1015c00006034b0087834b0008044c0089844c00c1
:1015d0000a054d008d06e9008482720085027300c1
:1015e0004c3add0085027200010032001500200037
:1015f000443ade001400b2004538de00cb45dd0081
:101600000b007000c540de00cb4ddd008b8070000c
:101610004549de00cb55dd000b017100c551de00f0
:101620000d0378007bfe070003f0a1000cf0a7007b
:1016300003f0a000b7fe37001b18b8008502400079
:1016400006834800e0834b0060044c00070037002d
:101650001b18b8000603400087834800faff3700d4
:101660001b18b8008703400008844800e0844c0041
:1016700060054d00000006001b18b800080440007b
:1016800089844800faff37000108a3009efe3a0053
:101690005800be00000000005801be00e2ff370005
:1016a0000008a30098fe3a0009047800f8ff37000c
:1016b000889fbe008a9fbe008c1f78006dff0700c8
:1016c00074ff330003866c006450e1002400320094
:1016d0006420e100270032006150e1002200320066
:1016e0006120e100210032008b854200eb07b10050
:1016f0000134b800003ab8000804420089844a0066
:10170000013ab8000030b8008880400009014a0062
:1017100004003300000040008180480002014900bd
:101720008b05e900c909dd0083017000010032006a
:1017300013002000c814de004814dd004709de0055
:101740001200b200c808de00088470000eff070017
:1017500001f0a1000cf0a70001f0a00056ff370037
:101760006120e10058ff32000801be000200be0007
:10177000f7ff37006150e100fcff3a0052ff3700ed
:1017800007f0a2003c0037001400fa00889fbe005a
:101790008a9fbe008c9fbe000005be000206be00f0
:1017a000680047000c90be000a90be00fa000700d7
:1017b0006400e1001a00320016003e006100e10002
:1017c0001a0032006e049000fe0490000e0b900090
:1017d0009e0b90006011b8009e0590000b38b10080
:1017e000d501200082817100610164008703d1006e
:1017f0000683d3008984d3000884d3008502e900de
:10180000f8ff3a00e0fe07000df0a70001f0a0008d
:1018100040fe3700f1ff2700f0ff2f003dfe3700ac
:1018200001f8270000002000f7ff37006000b80033
:10183000f5ff37006022b800060220000000d0004b
:101840008180d2000482d2008582d2000000a000f4
:101850000202520083825a00030031000202420059
:1018600083824a000000a1000603e900f3ff3a006a
:1018700000000600000000002800fa00889fbe005b
:101880008a9fbe008c9fbe0007067800878669008d
:101890000c003b00030478008704780008f0a100e6
:1018a00009f0a100840f5000858f5800860f590061
:1018b000890f5c00030033000cf0a20001003a0025
:1018c0000cf0a100fffd07006400e1005f003200a2
:1018d000780147006408e100610032006c014700b4
:1018e000748557003200be001201be003a04be00eb
:1018f0001a05be001e039000be0a90008503530027
:1019000006003d000004fd008104fd000205fd000d
:101910008305fd008703ea00050378000df8a300a6
:101920000400320060041400e0841c0060051d0007
:10193000e0851d006022b8007d0320000d38e10025
:101940008006eb000b0039004433dd00f300b200e9
:101950008301730039003700848272000d02780021
:10196000e10664008b85d1000a85d3008984d30009
:101970000884d3008703e900f7ff3b00080040001c
:10198000898048000a0149008b81490004003b001e
:1019900060001000e080180060011900e08119006b
:1019a0000358a300090032008d8272008482720005
:1019b000610260008301d1000281d3008180d300e5
:1019c0000080d3000603e8001b0037000348a30093
:1019d00017003a000600e000170034000603e90093
:1019e0000d00a3000000480081804800020149006a
:1019f000838149000348a3000f003a000600e0007d
:101a0000090034000603e90000004000818048001e
:101a1000020149008381490001003a000003eb0004
:101a20000348a300f5ff32006022b800020037002f
:101a3000848272006182660076fd070003f0a100d7
:101a40000cf0a70003f0a000b2fd370064014700ce
:101a50006408e10002003a000df8a300aafd3a0074
:101a600032007800b20078001201be00a9fd3700f4
:101a7000889fbe008a9fbe008c9fbe000404be00eb
:101a80000605be00809fbe00829fbe00300007009a
:101a9000040678000800be000a01be002c00070002
:101aa000840678004f03be004f02be008d4f7600c3
:101ab0007fb0970013003300f0ff2f008b8f6b0077
:101ac00006003b000d0666000c00a7000a00370068
:101ad00007f0a600100020000a003700880f52000f
:101ae000898f5a008a0f5b008b8f5b0003003900df
:101af0001000200001003e000000200007f0a700b9
:101b00000000ea004f06be004f05be004f04be00b5
:101b100000000600e48240001078a30007003200b5
:101b2000640240001178a3003400be001401be001e
:101b3000050032000330a7000000060035007800e1
:101b4000b50078001501be000330a00000000600bb
:101b500005ff270005826100070032000428e1002c
:101b600001003200240005000600070001003a00d1
:101b7000440005000408050002000700f9ff3a00d0
:101b8000140005006f8261008102700085027100ff
:101b900085027200000006005002be00e400500002
:101ba0005003be004439de00f700b200f37f20008e
:101bb00003016100090032000218e10016003a003a
:101bc0008501720083017300838173000008200087
:101bd00015003a0040002000130037008501720014
:101be000830173008381730005003a0004a8be00de
:101bf00006a8be00100020000b0037000201e9001b
:101c00000402420085824a0006034b0087834b0092
:101c10000748a300f9ff32000740a00004a8be0057
:101c200006a8be00200020008000980092009800c6
:101c300000000600889fbe008a9fbe00841f7800b7
:101c40000cfe07004f00780011003300f0ff2f005a
:101c5000838f6c0006003b00040565000a00a700a6
:101c60000800370009f0a600100020000800370027
:101c7000820f5400838f5c000300390010002000a5
:101c800001003e000000200009f0a7000000ea006b
:101c90004f05be004f04be000000e000000006003b
:101ca000881f7800030478000300e00007003d006f
:101cb00060001000e080180060011900e081190048
:101cc00002003b0001f02d00030037002f00070049
:101cd00008f0a70001f0a0004f0478000000060003
:101ce000889fbe00008270000402710004827100af
:101cf0002400320036432000c50020008383cf003b
:101d00000a0039000541b1008283cf000700390085
:101d10000541b1008183cf00040039000541b100c5
:101d20008083cf00010039000541b10085c3530015
:101d30006022b800120032000a003b008482720068
:101d4000610260008301d1000281d3008180d30051
:101d50000080d3000603e8008743e800f7ff3a005d
:101d60000700370000004000818048000201490060
:101d7000838149000603e9008743e900f9ff3a003f
:101d8000a4fc07004f04be0000000600889fbe00b0
:101d90008a9fbe00008270000402710004827100fc
:101da000260032000004be000200be006011b80030
:101db0006b092000950220000182cf000a00390043
:101dc0000541b1000082cf00070039000541b10094
:101dd0000982cf00040039000541b1000882cf001c
:101de000010039000541b1000542520012003200e5
:101df0000a003b0082817100610164008100d10012
:101e00000080d3008984d3000884d3008b05e800c8
:101e10000442e800f7ff3a000700370008044400d6
:101e200089844c0000004800818048008b05e9004f
:101e30000442e900f9ff3a0053fd07004f05be00d8
:081e40004f04be000000060083
:020000040000fa
:101e48000400fa0010079800a0cab300004f7800f9
:101e5800120020008e00780070c7b300bc05070090
:101e6800620120009e00900070c7b300ec050700d7
:101e78000080fa00000006008000fa00889fbe007b
:101e88008a9fbe008c9fbe0060279800712798002b
:101e98006e209000104078000080fb00c800dd0034
:101ea8006e2090000000e800104078000080fb00e1
:101eb80000804000200798006e2090000080e80015
:101ec800104078000080fb00c800dd006e20900004
:101ed80063004000104078000080fb000080400054
:101ee800300798006e209000640040001040780091
:101ef8000080fb00c800dd006e20900065004000f7
:101f0800104078000080fb000080400040079800e7
:101f18006e20900066004000104078000080fb00b2
:101f2800c800dd006e209000670040001040780077
:101f38000080fb0000804000500798006e20900051
:101f480068004000104078000080fb00c800dd00f9
:101f58006e20900069004000104078000080fb006f
:101f680000804000600798006e2090006a004000e2
:101f7800104078000080fb00c800dd006e20900053
:101f88006b004000104078000080fb00008040009b
:101f9800700798006e2090006c0040001040780098
:101fa8000080fb00c800dd006e2090006d0040003e
:101fb800104078000080fb0000804000000f98006f
:101fc8006e2090006e004000104078000080fb00fa
:101fd800c800dd006e2090006f00400010407800bf
:101fe8000080fb0000804000100f98006e209000d9
:101ff80072004000104078000080fb00c800dd003f
:102008006e20900073004000104078000080fb00b4
:1020180000804000200f98006e209000740040005f
:10202800104078000080fb00c800dd006e209000a2
:1020380075004000104078000080fb0000804000e0
:10204800300f980040cfb30040c79800e0c2b300fb
:1020580050c79800400420000e00400022002000d5
:102068008000780070c7b3003905070050002000d1
:102078008103070060cfb30060c7980060042000a8
:102088000e004000120020008000780070c7b300e6
:102098002f0507008e0078007104b00001000900c8
:1020a8008058eb00700420000e0040002200200041
:1020b8008000780070c7b3005905070015eea90025
:1020c8007ec090000080fb00c800dd000ec89000b4
:1020d8000080fb0000804000cf80de00400f9800a9
:1020e800510f980040cfb30040c7980040c7b300d5
:1020f80050c79800400420000e0040002200200035
:102108008000780070c7b300110507008000200028
:1021180059030700600420000e0040001200200050
:102128008000780070c7b3000905070090042000fc
:102138000e004000220020008000780070c7b30025
:10214800370507001ec890000080fb00c800dd00ae
:102158002ec890000080fb0000804000cf80de0089
:10216800600f9800710f98007e0090006101b80020
:102178004e089000de08900002015000838158004c
:102188006e0090008000eb00809ab900840278000d
:10219800828ab900848242000010b800818242001d
:1021a800850078000001be00e00f5100e08f590063
:1021b80004003d00f0ff2300010020000201400060
:1021c80083814800c21add004e14de0008847200c4
:1021d800ce9cde0008179800191798002e0890006a
:1021e8004a00dd006102b9003e0890006101b900b3
:1021f8000e1090009e10900002004000838048005e
:102208000001be000400be0071fb07002017980003
:10221800311798000e1190009e1190002e1090001a
:10222800be109000020040008380480040179800cc
:10223800511798004e109000de1090006800400082
:10224800e0804800e00f5000e08f580002003d0099
:102258006f004000e08048004c0bdd004405de00c4
:102268000a057300c48dde006a1798007b17980072
:102278004e119000de11900000062f00f1ff2f0094
:102288000200400083804800001f9800111f98003a
:102298001e0890006102b9009e1890000e18900068
:1022a8008089b9009e1890000e1890008088b900a7
:1022b800000141008e1890000e1890000008b80028
:1022c80001014100820078000001be00e00f5100ca
:1022d800e08f590004003d00f07f2000010020003d
:1022e8000201400083814800c518dd004b16de005e
:1022f8000c867000cb9ede000c00be0080a9b900e1
:10230800820178008489b900828141000020b800e8
:102318008181410083007800e00f5000e08f580071
:1023280002003d00f03fb0000180b000460add0029
:10233800ca01de0083017200032f9800ca8ade00fa
:10234800152f98000e2990009e29900002179800da
:10235800131798003e0090006101b9000e18900014
:102368008382b9001e1890008280b90000024200e2
:102378000e1890000200b8000102420084007800a4
:10238800e00f5000e08f580002003d00f03fb00021
:102398000180b000460add00ca01de008301720038
:1023a800232f9800ca8ade00352f98002e29900026
:1023b800be29900022179800331798000e1190003c
:1023c8009e1190002e109000be1090000200400058
:1023d80083804800201f9800311f98002e0090002d
:1023e8004200dd006101b9002e189000be1890006f
:1023f800020040008380480062004000e0804800fe
:10240800e00f5000e08f580002003d0063004000dc
:10241800e08048004e0add00c201de008301720040
:10242800432f9800c28ade00552f98004e2990004d
:10243800de299000421f9800531f98004e0090001c
:102448006101b9000e1890008382b9001e1890002f
:102458008280b900000242000e1890000200b80005
:1024680001024200840078000001be00e00f510024
:10247800e08f590004003d00f0ff2000010020001b
:102488000201400083814800c41add004c12de00be
:1024980004827200642f98004c9bde00762f98000f
:1024a8006e299000fe2990000217980013179800d3
:1024b8000e0890006102b9009e1890000e18900056
:1024c8008089b9009e1890000e1890008088b90085
:1024d800000141008e1890000e1890000008b80006
:1024e80001014100820078000001be00e00f5100a8
:1024f800e08f590004003d00f07f2000010020001b
:102508000201400083814800c518dd004b13de003e
:1025180006837000063798004b9bde00163798003c
:102528000e3090009e30900080a9b900820178009a
:102538008489b900828141000020b800818141006e
:10254800830078000001be00e00f5100e08f5900c1
:1025580004003d00f0ff27000100200002014000b8
:1025680083814800c11add004f12de000482720028
:10257800243798004f9bde00363798002e319000a4
:10258800be31900022179800331798000e11900062
:102598009e1190002e109000be1090000200400086
:1025a8008380480062004000e0804800e00f50004f
:1025b800e08f580002003d0063004000e0804800c2
:1025c8004e0add00c201de00830172004337980025
:1025d800c28ade00553798004e319000de319000f7
:1025e800221f9800331f98005e0090006102b80017
:1025f8002e199000be19900000002800010020004c
:10260800020040008380480080a9b900848bb9008b
:1026180086017800030141000020b8000101410053
:10262800820078004209dd004e00de0000007100e3
:10263800ce08de00601f9800711f98006e09900098
:10264800fe0990004e189000de189000000051001e
:1026580081805900823821008289b900e002b900de
:102668008401780003014100833821000300b80089
:102678000101410082007800002798001127980086
:1026880000279800112798000e2090009e209000a7
:10269800e00f5000e08f5800090035000e20900030
:1026a8009e20900000004000818048006e19900034
:1026b800fe1990005dfc0700008fbe00080037007f
:1026c8006e199000fe1990000e2090009e20900038
:1026d80056fc07000000400081804800008fbe00c3
:1026e8001e0078009e009000e00f5000e08f580018
:1026f80002003d00f00fb0000180b000480bdd0083
:10270800c802de0085027300653798004889de003c
:10271800723798006e319000fe3190001e007800ec
:102728009e009000e00f5000e08f580002003d002e
:10273800f00fb0000180b000c80add004802de00da
:1027480004827200043f9800488bde00163f980010
:102758000e3890009e389000809ab900828bb9009c
:1027680086027800050242000010b800010242000b
:102778008400780000179800111798000017980037
:10278800111798009e109000e0bd20008089b900c4
:102798000e109000e000b900000141008e1090007a
:1027a800e0bd20000008b800010141008200780067
:1027b800e00f5000e08f580004003d00f2ff2700b2
:1027c800030020000000410081804900c109dd00ac
:1027d8004f01de0002817100223f98004f8ade001f
:1027e800343f98002e399000be39900002179800a7
:1027f800131798009e00900030342e008089b9008d
:102808009e0078000080eb008088b900000141003c
:102818009e00780030342e000008b8000101410005
:1028280082007800e00f5000e08f580004003d005f
:10283800f2ff2700030020000000410081804900ca
:10284800410add00cf01de0083017200433f98009a
:10285800cf8ade00553f98004e399000de3990004f
:1028680022179800331798000e1190009e119000bf
:102878002e109000be109000020140008381480095
:10288800f0ec200001002000020040008380480096
:10289800e00f5000e08f580002003d006f0040003c
:1028a800e08048004c0add00c401de0083017200ac
:1028b800633f9800c48ade00753f98006e38900028
:1028c800fe3890001e0f40005e9748007e20900062
:1028d8003e1878002e1078007e209000640040009a
:1028e8006e119000fe1190000288be004f06be00d7
:1028f8004f05be004f04be000080fa00000006002d
:102908003c00fa00889fbe00301f9800411f9800c5
:10291800521f98007cf807003e189000ce189000cf
:102928008bfa07000203be000002be006000b80078
:1029380002482800e311240009f907006022b800c2
:102948000600200007ff23008bfb070050079800b4
:102958006107980072079800030f98005e009000c6
:10296800ee0090007e0190008e09900084fb070025
:102978007bfa070058fa0700100f98005e009000d5
:10298800ee0090007e0190008e0990007cfb07000d
:10299800e6f8070050fa0700200f98001e0890007c
:1029a8000000e8008000eb0069fa07000203be009f
:1029b8000002be006000b80002482800e3112400ad
:1029c800e7f80700300f9800410f9800520f980061
:1029d800630f98002e0890000000e8008000eb00cc
:1029e8005bfa07000203be000002be006000b800e8
:1029f80002482800e3112400d9f80700700f980056
:102a08000117980012179800231798003e18900095
:102a1800ce1890004efa07000203be000002be0066
:102a28003e089000ce0890005e099000ee099000e4
:102a380051fb070052fb07000004be0009f0a1008b
:102a48003e189000ce18900043fa07000001be001f
:102a58000800be001cf90700b1f9070030179800fc
:102a68004117980052179800631798003e18900075
:102a7800ce18900036fa07000203be000002be001e
:102a88007e0890008e1090001e119000ae119000ec
:102a980039fb07003afb07000004be0009f0a1005b
:102aa8003e189000ce1890002bfa07000001be00d7
:102ab8000800be0004f9070099f90700701798008c
:102ac800011f9800121f9800231f98009e0890006d
:102ad800010f78003e0a9000ce0a90005e0b90002d
:102ae800ee0b900014079800250798003607980009
:102af800470798005e189000e10f5000050032006b
:102b0800e10f500019003900e20f50000c003200ac
:102b18003b003700ae0a9000050f78007e0a90004f
:102b28008e1290001e139000ae13900014079800a8
:102b380025079800360798004707980030003700a7
:102b48009e0a9000050f78003e0a9000ce0a900079
:102b58005e0b9000ee0b9000140798002507980074
:102b680036079800470798002500370018c0b300bb
:102b78003e129000ce1290005e139000ee1390006b
:102b88007e1090008e1890001e199000ae199000cb
:102b98006ef807000000e000010035000044eb007b
:102ba8000804e0000b003200ae0a9000050f780020
:102bb8007e0a90008e1290001e139000ae139000b3
:102bc80014079800250798003607980047079800cb
:102bd8000b0037009e0a9000050f78003e0a90000f
:102be800ce0a90005e0b9000ee0b90001407980040
:102bf800250798003607980047079800000000004e
:102c0800b0f22f00c6f707009e0278004511880031
:102c18000080200000118800001028001011880092
:102c280021e2a8002342a8001e009000ae009000f8
:102c38003e019000ce0190004f04be000080fa00d3
:102c4800000006000000fa000000000011118000da
:102c580000102000008060000000e000fbff320050
:102c68000080fa00000006000a00fa002007980019
:102c780031079800024f9800ae00900011079800a5
:102c88000000eb00000f78000e0037000000000085
:102c98001111800000202000008060000000e0008a
:102ca800fbff3a001e009000104078000080fb00f7
:102cb800201188001e0fe8001e0090000000e800a8
:102cc800100798003e0090009e007800808f50000a
:102cd800eeff39000e4890000004e00001003200c9
:102ce800d8ff07000080fa00000006000a00fa007a
:102cf8002007980031079800024f98000000eb0069
:102d0800000f7800ae009000110798000000eb005b
:102d1800000f7800340037000e4890000004e000ef
:102d28000400320040012100104078000004e00057
:102d3800f9ff3a00ff3ffc001e0090000000e00091
:102d48000c0032009080800063004000800040004a
:102d580000012100008040001000780080407800c9
:102d68001e009000014878001e0090000000e80056
:102d78001007980091808000f0032000808f500099
:102d880003003200908080000000e8000100370056
:102d98000000eb0090808800818080009080800097
:102da8000080680000f0a7000000ea000000e900c9
:102db8004f00de0080407800400121000148780083
:102dc80040012100104078000004e00004003200b7
:102dd8000000eb00808088000000eb0090808800f5
:102de8000000fc001e0fe8003e0090009e007800e6
:102df800808f500008003100400121001040780009
:102e08000004a2000004e000c3ff3a000e4890004e
:102e18000004e000c0ff3a001e0078000080fa00bd
:102e2800000006000200fa00818080009080800087
:102e3800008050000104200080804000f003200042
:102e4800008f60001e0078000000e00007003a00d4
:102e580040012100104078000004a2000004e000b6
:102e68000200320000042000010037001e00780034
:102e78000080fa00000006000800fa00889fbe00e3
:102e88008a9fbe0030079800bbf607000370ef006a
:102e98000270ef000068a900c0ff2f00c2f607000b
:102ea800be009000f0032000808f500005003e0017
:102eb8008000200010079800f0fd2f00000f780018
:102ec80017003700be009000a0202000808f50001f
:102ed80005003e000004200010079800f0fe2f00b7
:102ee800000f78000e00370000102000100798002f
:102ef8000080eb00000f7800be009000f0822000f8
:102f0800808f500006003600be00900001808800c7
:102f1800008320003007980010c0b30003f0b7000a
:102f28000000eb00eff607003e0090008000eb0089
:102f380007f907006022b80006002400f70b2400f8
:102f480063f907000205be000004be001e009000e1
:102f58008000eb00fef807000203be000002be007e
:102f68000800be000a01be007df70700b4f807009c
:102f78002007980090fb2f001e006000ae00900014
:102f8800bbf607000000000002d0bf000004a2004a
:102f98000004e000fcff3a0077f6070070ff2f00fe
:102fa80081f607008000eb00f0ff2700b0f607006d
:102fb8000000eb00cbf607004f05be004f04be0033
:102fc8000080fa00000006000e00fa00881f780052
:102fd800404f9800514f98004e4890000080fb00e9
:102fe800cf80de00d7f8070002002000031024007d
:102ff800adf90700008fbe00d00020002007980020
:1030080020012000300798003e0090008000eb006f
:10301800d1f8070018c0b3001e0178009e01900087
:1030280085f807000000e00001003d000044eb00c7
:103038000804e000020032000000eb001a0037002c
:103048002e0090008000eb00c3f807000001be00ce
:103058001e0078009e009000d6f6070002002000af
:10306800030c240098f707004007980051079800c0
:103078005e4890000004e000060032004e00900018
:10308800de00900029f7070093f807000000780099
:10309800050037004e009000de009000b0f80700f1
:1030a8008df80700000078004f0478000080fa00cf
:1030b800000006000000fa0033f60700c0ff2f00ea
:1030c80048f607000080fa00000006000400fa0035
:1030d800000f7800110798009e009000218088005a
:1030e8000630ef009e007800418088000000eb0069
:1030f8007ef6070001f42100d0f82f0060f60700e3
:103108000080fa00000006000000fa008000eb00d2
:10311800f0ff27005af607000080fa0000000600ba
:103128000000fa001cf60700c0ff2f003ff607005a
:103138000080fa00000006000400fa00000f780082
:10314800110798009e009000518088000c30ef0015
:103158009e007800718088000000eb0065f607008b
:1031680001f42100d0f82f004af607000080fa0089
:10317800000006000000fa008000eb00f0ff2700c6
:1031880044f607000080fa00000006000000fa007c
:103198000081eb008081eb00d0fb2f0041f6070097
:1031a8006000b80055f607000080fa00000006002d
:1031b8000c00fa0042f60700008fbe001e007800df
:1031c8009e00900062f807006022b80006482800b8
:1031d800e7162400e2f607006022b8000600240083
:1031e800f7112400baf80700200798003107980063
:1031f80042079800530798002e009000be009000e8
:103208004e019000de0190000080fa0000000600e8
:103218002a00fa003017980041179800002eef0096
:10322800102eef0011eea900110ea800112ea80013
:1032380015eea800116ea900114ea80042c7bf00e4
:103248008080fb00f00b20000081600060042000fb
:103258007105200023742000804978008149780096
:10326800824978002136800000f82f0080806000b5
:10327800a002200001007000203688004134800040
:10328800f00f2c00008060000080a000403488000f
:1032980042c7bf000064a0000081fb00600420005a
:1032a8007105200023742000804978008149780046
:1032b800824978000001eb0000582200010020003c
:1032c8008ffd070040c6b3003047980063004700f1
:1032d80012c0b3001100200084fe0700950007000b
:1032e800e40047000a0009008018eb00640047006a
:1032f800d3fa07006400470012c0b3006101200040
:1033080059fe07006000b8006011b800500f98001f
:10331800610f9800720f980003179800fa00470091
:1033280064004700d4fa07005e099000ee09900097
:10333800f00f200001002800020278000301780045
:10334800800178000100780003026200000061003b
:103358006101b800c011dd00020020000200be00bb
:103368006121b8000200700083807000e00f5000f7
:10337800e08f580008003d0061005000e0805800d0
:1033880002f02f00f3ff2f0002007000838070000e
:1033980061004000e0804800004f78005e0990001e
:1033a800ee0990001e80fb008000eb000000510039
:1033b80081805900500f9800610f98005e099000b5
:1033c800ee099000f00f20000100280002027800aa
:1033d8000301780080017800010078000302620090
:1033e800000061006101b800c011dd00020020008a
:1033f8000200be006121b8000200700083807000e6
:10340800e00f5000e08f580008003d0061005000b8
:10341800e080580002f02f00f3ff2f000200700038
:103428008380700061004000e080480010479800e9
:103438005e099000ee0990001e4090000080fb009d
:103448004800dd00cf80de00000051008180590077
:10345800500f9800610f98005e099000ee099000e7
:10346800f00f200001002800020278000301780014
:10347800800178000100780003026200000061000a
:103488006101b800c011dd00020020000200be008a
:103498006121b8000200700083807000e00f5000c6
:1034a800e08f580008003d0061005000e08058009f
:1034b80002f02f00f3ff2f000200700083807000dd
:1034c80061004000e0804800204798005e099000b5
:1034d800ee0990002e4090000080fb004800dd00bf
:1034e800cf80de000000510081805900500f980005
:1034f800610f98005e089000ee0890000040780088
:1035080020679800ae409000316798009e40900078
:10351800416798009e40780051679800200220007b
:103528000e00400012c0b30041002000cefd07008d
:10353800ffff37000000fa0007e2a8003001200072
:10354800201088000782a8000080fa00000006000a
:103558000a00fa004047980031079800420798008f
:103568000000eb00000f78004e4090000040400043
:10357800204798000602a8000000000030108000d4
:10358800610060000000e000fcff3a002e4090005f
:103598000080fb001010880000000000411080002f
:1035a80000002400008060000000e000fbff3a00fb
:1035b8000000eb00000f78000d0037001e007800b7
:1035c800be00900000804000104078000080fb00a2
:1035d8001010880000000000411080000000240046
:1035e800008060000000e000fbff3a001e0fe800ca
:1035f8004e0090009e007800808f5000efff35004d
:103608000642a8000000000030108000640060003e
:103618000000e000fcff3a000080fa00000006000d
:103628000a00fa00404798003107980042079800be
:103638000000eb00000f78004e4090000080fb0077
:1036480000004000004078000004a00020479800d7
:103658000602a80000000000301080006100600031
:103668000000e000fcff3a002e4090000080fb00c4
:1036780010108800000000004110800000002400a5
:10368800008060000000e000fbff3a000000eb0053
:10369800000f7800130037000662a8000000000041
:1036a80030108000680060000000e000fcff3a0075
:1036b8001e007800be0090000080400001108000cd
:1036c80081407800014878000682a80000000000c8
:1036d80030108000700060000000e000fcff3a003d
:1036e8001e0fe8004e0090009e007800808f50006a
:1036f800e9ff35000642a8000000000030108000f5
:10370800640060000000e000fcff3a000080fa005e
:0437180000000600a7
:020000040000fa
:10371c001010000086000000820000000000000075
:10372c00000100000000000000000000000000008c
:10373c00000000000000000000000000000000007d
:10374c00000000000000000000000000000000006d
:10375c00000000000000000000000000000000005d
:10376c00000000000000000000000000000000004d
:10377c00000000000000000000000000000000003d
:10378c00000000000000000000000000000000002d
:10379c00000000000000000000000000000000001d
:1037ac00000000000000000000000000000000000d
:1037bc0000000000000000000000000000000000fd
:1037cc0000000000000000000000000000000000ed
:1037dc00001000001000000080000000000000003d
:020000040000fa
:020000040005f5
:045fe000cfff0000ef
:020000040000fa
:020000040005f5
:045fe400efff0000cb
:020000040000fa
:020000040005f5
:045fe8007fff000037
:020000040000fa
:020000040005f5
:045fec003eff000074
:020000040000fa
:020000040005f5
:045ff000baff0000f4
:020000040000fa
:020000040005f5
:045ff400ffff0000ab
:00000001FF
