:020000040000FA
:0600000093EF7DF01200F9
:0600080004EF50F01200AD
:060018000CEF50F0120095
:06A0000093EF7DF0120059
:02A00600120046
:06A00800B9EF75F0120033
:02A00E00000050
:04A01000000000004C
:06A01800C2EF75F012001A
:02A01E0002003E
:10A020000EA000009604000006000000C9F6000023
:08A03000FE0000000100000029
:08A03800D9CFE6FFE1CFD9FF0B
:10A04000060EE12672BA4AD080EC5AF0040EF36E86
:10A05000050EF3CFDBFF828CE668FBEC59F0E5528E
:10A06000829C050EDB06E66AE66AE66AE66AE66A4E
:10A070005CDAEECF14F0EECF15F0EECF16F0EECFA7
:10A0800017F0EECF18F0196E050EE15E195014C0EE
:10A09000DFFF010E15C0DBFF020E16C0DBFF030E53
:10A0A00017C0DBFF040E18C0DBFFDF0403E0050E62
:10A0B000DB50D1E1DF0405E0BCEC59F0000E4DD0DF
:10A0C0000CD086EC5AF00001B95103E1010E45D0E5
:10A0D00004D0BCEC59F0000E40D03DD0E66AE66AF0
:10A0E000E66AE66AE66E60D8EECF14F0EECF15F0C1
:10A0F000EECF16F0EECF17F0EECF18F0196E050E7A
:10A10000E15E195014C0DFFF010E15C0DBFF020E27
:10A1100016C0DBFF030E17C0DBFF040E18C0DBFF09
:10A12000DECF14F0DDCF15F00C0E1416EC0E151664
:10A13000145015100EE0BCEC59F086EC5AF00001FA
:10A14000B95103E1010E09D006D0BCEC59F0000E64
:10A1500004D0010E02D0010E00D0146E060EE15C98
:10A1600002E2E16AE552E16E1450E552E7CFD9FF11
:10A170001200B6C0F3FFB7C0F4FF00D01200B2C0A7
:10A1800006F0B3C007F0B4C008F0B5C009F000D0C5
:10A1900012009388828C949C92861200BCEC59F039
:10A1A000828C000E00D01200D9CFE6FFE1CFD9FF9C
:10A1B000110EE126829C920E146EFA0E156E000EA0
:10A1C000166EFE0EDBCF17F0186A196A020ED890D1
:10A1D000173618361936E806FAE114501724F36ECC
:10A1E00015501820F46E16501920F86EF4CFF7FFB2
:10A1F000F3CFF6FF08000A0EF5CFDBFFD950FA0FB8
:10A20000E96EFF0EDA20EA6E060EEECFDBFF070ED8
:10A21000EECFDBFF080EEECFDBFF090EEECFDBFF4C
:10A22000920E146EFA0E156E000E166EFE0EDBCF39
:10A2300017F0186A196A020ED890173618361936B0
:10A24000E806FAE114501724F36E15501820F46E46
:10A2500016501920F86EF4CFF7FFF3CFF6FFF62A69
:10A26000000EF722F8220800050EF5CFDBFF0A0EDC
:10A27000DB8CDBCFE6FFBEEC59F0E552090EDBCFFD
:10A28000E6FFBEEC59F0E552080EDBCFE6FFBEEC70
:10A2900059F0E552070EDBCFE6FFBEEC59F0E55270
:10A2A000060EDBCFE6FFBEEC59F0E552050EDBCF24
:10A2B000E6FFBEEC59F0E552FE0EDB50050802E168
:10A2C000D7EC59F0140EF36E0B0EF3CFDBFF0C0E30
:10A2D000DB6AD7EC59F0DF6E0B0EDB060C0E01E2E9
:10A2E000DB06FF0EDF5C08E1D9500B0FE96EDACF19
:10A2F000EAFFEE50ED10EDE1920E146EFA0E156EBF
:10A30000000E166EFE0EDBCF17F0186A196A020EE9
:10A31000D890173618361936E806FAE11450172483
:10A32000F36E15501820F46E16501920F86EF4CF05
:10A33000F7FFF3CFF6FF020EF626000EF722F82203
:10A340000800F550020807E1010EDFCFDBFFD7EC74
:10A3500059F0DF6E95D0920E146EFA0E156E000E47
:10A36000166EFE0EDBCF17F0186A196A020ED8902F
:10A37000173618361936E806FAE114501724F36E2A
:10A3800015501820F46E16501920F86EF4CFF7FF10
:10A39000F3CFF6FF020EF626000EF722F822080091
:10A3A000F55001082DE10D0EDB6A0E0EDB6A0A0E78
:10A3B000F36E0F0EF3CFDBFF100EDB6AD7EC59F014
:10A3C000DF6ED9500D0FE96EDACFEAFFEE06000E10
:10A3D000EE5AEE5AEE5ADF5011E10D0EDBCF14F0BB
:10A3E0000E0EDBCF15F00F0EDBCF16F0100EDBCF0D
:10A3F00017F01450151016101710E0E1DF6A40D066
:10A40000920E146EFA0E156E000E166EFE0EDBCF57
:10A4100017F0186A196A020ED890173618361936CE
:10A42000E806FAE114501724F36E15501820F46E64
:10A4300016501920F86EF4CFF7FFF3CFF6FF020E97
:10A44000F626000EF722F8220800F550040818E15D
:10A45000D7EC59F0E76E040EE7CFDBFFD7EC59F0ED
:10A46000E76E030EE7CFDBFFD7EC59F0E76E020E85
:10A47000E7CFDBFFD7EC59F0E76E010EE7CFDBFF4C
:10A48000E668BEEC59F0E552920E146EFA0E156EA7
:10A49000000E166EFE0EDBCF17F0186A196A020E58
:10A4A000D890173618361936E806FAE114501724F2
:10A4B000F36E15501820F46E16501920F86EF4CF74
:10A4C000F7FFF3CFF6FF030EF626000EF722F82271
:10A4D0000800F55001E1828CD9CFE9FFDACFEAFF1D
:10A4E000EECF14F0EECF15F0EECF16F0EECF17F062
:10A4F000EFCF18F0D9CFE9FFDACFEAFFED50ED50FA
:10A5000018C0EDFF17C0EDFF16C0EDFF15C0EDFF41
:10A5100014C0EFFF110EE15C03E200D0E16AE552E6
:10A52000E16EE552E7CFD9FF1200D9CFE6FFE1CFC8
:10A53000D9FF0E0EE126829C920E146EFA0E156E55
:10A54000000E166EFE0EDBCF17F0186A196A020EA7
:10A55000D890173618361936E806FAE11450172441
:10A56000F36E15501820F46E16501920F86EF4CFC3
:10A57000F7FFF3CFF6FF08000B0EF5CFDBFFD95046
:10A58000FA0FE96EFF0EDA20EA6E070EEECFDBFF60
:10A59000080EEECFDBFF090EEECFDBFF0A0EEECF8B
:10A5A000DBFF920E146EFA0E156E000E166EFE0E86
:10A5B000DBCF17F0186A196A020ED89017361836D2
:10A5C0001936E806FAE114501724F36E15501820D6
:10A5D000F46E16501920F86EF4CFF7FFF3CFF6FFA4
:10A5E000F62A000EF722F8220800060EF5CFDBFF50
:10A5F0000B0EDB8CDBCFE6FFFBEC59F0E5520A0ECD
:10A60000DBCFE6FFFBEC59F0E552090EDBCFE6FFAE
:10A61000FBEC59F0E552080EDBCFE6FFFBEC59F0FE
:10A62000E552070EDBCFE6FFFBEC59F0E552060ED4
:10A63000DBCFE6FFFBEC59F0E552FE0EDB500508E0
:10A6400002E13DEC5AF0140EF36E0C0EF3CFDBFF7B
:10A650000D0EDB6A3DEC5AF0E76E010EE7CFDBFF33
:10A660000C0EDB060D0E01E2DB06010EDB50FF08CF
:10A6700008E1D9500C0FE96EDACFEAFFEE50ED1089
:10A68000E9E1920E146EFA0E156E000E166EFE0EB5
:10A69000DBCF17F0186A196A020ED89017361836F1
:10A6A0001936E806FAE114501724F36E15501820F5
:10A6B000F46E16501920F86EF4CFF7FFF3CFF6FFC3
:10A6C000020EF626000EF722F8220800F5500208C6
:10A6D0000DE1010EDB50E76E020EE7CFDBFF3DEC34
:10A6E0005AF0E76E010EE7CFDBFF85D0920E146EB5
:10A6F000FA0E156E000E166EFE0EDBCF17F0186AFE
:10A70000196A020ED890173618361936E806FAE19B
:10A7100014501724F36E15501820F46E165019209B
:10A72000F86EF4CFF7FFF3CFF6FF020EF626000E19
:10A73000F722F8220800F55001081DE10C0EDB6835
:10A740000D0EDB683DEC5AF0E76E010EE7CFDBFF44
:10A750000C0EDB060D0E01E2DB06010EDB5008E1FC
:10A76000D9500C0FE96EDACFEAFFEE50ED10EAE1B6
:10A77000010EDB6A40D0920E146EFA0E156E000EBA
:10A78000166EFE0EDBCF17F0186A196A020ED8900B
:10A79000173618361936E806FAE114501724F36E06
:10A7A00015501820F46E16501920F86EF4CFF7FFEC
:10A7B000F3CFF6FF020EF626000EF722F82208006D
:10A7C000F550040818E13DEC5AF0E76E050EE7CFAE
:10A7D000DBFF3DEC5AF0E76E040EE7CFDBFF3DEC0C
:10A7E0005AF0E76E030EE7CFDBFF3DEC5AF0E76E61
:10A7F000020EE7CFDBFFE668FBEC59F0E552920E64
:10A80000146EFA0E156E000E166EFE0EDBCF17F0EC
:10A81000186A196A020ED890173618361936E806E3
:10A82000FAE114501724F36E15501820F46E1650E8
:10A830001920F86EF4CFF7FFF3CFF6FF030EF626DC
:10A84000000EF722F8220800F55001E1828C010E7B
:10A85000DBCF14F0020EDBCF15F0030EDBCF16F0CA
:10A86000040EDBCF17F0050EDBCF18F0D9CFE9FFD0
:10A87000DACFEAFFED50ED5018C0EDFF17C0EDFF45
:10A8800016C0EDFF15C0EDFF14C0EFFF0E0EE15C2A
:10A8900003E200D0E16AE552E16EE552E7CFD9FF6D
:10A8A0001200D9CFE6FFE1CFD9FF0E0EE126DE6A16
:10A8B000020EDD6EDB6AF36E030EF3CFDBFF040ED8
:10A8C000DB6A050EDB6AF90EDBCF08F0FA0EDBCF90
:10A8D00009F0060E08C0DBFF070E09C0DBFFD950E8
:10A8E000FB0FE96EFF0EDA20EA6E080EEECFDBFFFB
:10A8F000090EEECFDBFF0A0EEECFDBFF0B0EEECF25
:10A90000DBFF010EF36E0C0EF3CFDBFFD9CFE6FFBA
:10A91000DACFE6FF20D8E552E552E76E0D0EE7CF1D
:10A92000DBFFDB5003E1010E0AD006D00D0EDB5039
:10A93000FF0802E1000E03D0E9D7000E00D0146E2C
:10A940000E0EE15C02E2E16AE552E16E1450E5525E
:10A95000E7CFD9FF1200D9CFE6FFE1CFD9FF060E2E
:10A96000E126FD0EDBCFE9FFFE0EDBCFEAFF0C0E8A
:10A97000E926000EEA22EF50FF0A01E1A3D1010A05
:10A9800001E170D1FC0A01E1FED0010A01E1BBD076
:10A99000020A05E0010A01E095D1000E9BD10001F9
:10A9A000CB6B020ECC6FFD0EDBCFE9FFFE0EDBCFD3
:10A9B000EAFFEECFBEF0EECFBFF0EECFC0F0EECFAD
:10A9C000C1F0EECFC2F0EECFC3F0EECFC4F0EECFC9
:10A9D000C5F0EECFC6F0EECFC7F0EECFC8F0EECFA9
:10A9E000C9F0EFCFCAF0B85108E1090ED890C637C8
:10A9F000C737C837C937E806F9E1D880000E00012B
:10AA0000C055020EC155000EC255000EC3552CE3B1
:10AA1000010ED16FC6C0E6FFC7C0E6FFC8C0E6FFA3
:10AA2000C9C0E6FF080EE66ED4EC50F0EECF14F08D
:10AA3000EECF15F0EECF16F0EECF17F0EECF18F008
:10AA4000196E050EE15E1950010E14C0DBFF020EF7
:10AA500015C0DBFF030E16C0DBFF040E17C0DBFFC3
:10AA6000050E18C0DBFF2AD0D16BC6C0E6FFC7C0F9
:10AA7000E6FFC8C0E6FFC9C0E6FF090EE66ED4ECEB
:10AA800050F0EECF14F0EECF15F0EECF16F0EECF83
:10AA900017F0EECF18F0196E050EE15E1950010E99
:10AAA00014C0DBFF020E15C0DBFF030E16C0DBFF78
:10AAB000040E17C0DBFF050E18C0DBFF010EDB50D4
:10AAC0000EE0FD0EDBCFE9FFFE0EDBCFEAFF0C0E42
:10AAD000E926000EEA22FE0EEF6E010EFBD0000109
:10AAE000CD6BCE6B040ECF6FD06BFD0EDBCFE9FFCD
:10AAF000FE0EDBCFEAFF0C0EE926000EEA22030E63
:10AB0000EF6E010EE7D00001CD51CE11CF11D01163
:10AB10002CE0CD07000ECE5BCF5BD05BD7EC59F0BD
:10AB2000DF6EFF0EDF5C1FE0FE0EDF5C0EE1FD0E50
:10AB3000DBCFE9FFFE0EDBCFEAFF0C0EE926000EAD
:10AB4000EA22020EEF6EC6D01ED0FD0EDBCFE9FF6B
:10AB5000FE0EDBCFEAFF0C0EE926000EEA22FE0E07
:10AB6000EF6E010EB7D0010EB5D0FD0EDBCFE9FFC1
:10AB7000FE0EDBCFEAFF0C0EE926000EEA22FE0EE7
:10AB8000EF6E010EA7D00001C051C111C211C31157
:10AB90004BE0FD0EDBCFE9FFFE0EDBCFEAFFEECF91
:10ABA000BEF0EDCFBFF0FD0EDBCFE9FFFE0EDBCF39
:10ABB000EAFF060EE926000EEA22EECFC4F0EDCF42
:10ABC000C5F0BEC014F0BFC015F0166A176A145065
:10ABD000C05F1550C15B1650C25B1750C35BBE51BE
:10ABE000CB5FBF51CC5B82D80001CB51CC1119E1B6
:10ABF000DEDBDDDB0001C051C111C211C3110CE06D
:10AC0000FD0EDBCFE9FFFE0EDBCFEAFF0C0EE926DF
:10AC1000000EEA22030EEF6ECB6B020ECC6F010E1C
:10AC200059D0020E57D01ED0D1510CE1E66AE66A27
:10AC3000E66AE66A050EE66ED4EC50F0146E050E78
:10AC4000E15E1450828CE66899DBE552FD0EDBCFA5
:10AC5000E9FFFE0EDBCFEAFF0C0EE926000EEA222A
:10AC6000EF6A38D0FD0EDBCFE9FFFE0EDBCFEAFF47
:10AC70000C0EE926000EEA22EF68E66AE66AE66A4A
:10AC8000E66A050EE66ED4EC50F0EECF14F0EECF8F
:10AC900015F0EECF16F0EECF17F0EECF18F0196EDC
:10ACA000050EE15E1950010E14C0DBFF020E15C047
:10ACB000DBFF030E16C0DBFF040E17C0DBFF050E23
:10ACC00018C0DBFF828CE66859DBE552FF0E02D02C
:10ACD000FF0E00D0146E060EE15C02E2E16AE5525E
:10ACE000E16E1450E552E7CFD9FF12000001BE51CA
:10ACF000BF1101E12ED0E9CFD2F0EACFD3F0F3CFEC
:10AD0000D4F0F4CFD5F0BEC0F3FFBFC0F4FFC4C091
:10AD1000E9FFC5C0EAFF7550E86EA49E756806D0CD
:10AD2000A4AEFED7A49E75507568EE6E000EF306B5
:10AD3000F45AF350F410F4E1A4AEFED775CFEEFF51
:10AD4000A49ED4C0F3FFD5C0F4FFD2C0E9FFD3C0A6
:10AD5000EAFF1200D9CFE6FFE1CFD9FF090EE126C5
:10AD6000FD0EDBCFE9FFFE0EDBCFEAFF0C0EE9267E
:10AD7000000EEA22EF50FE0A01E100D2FA0A01E1D8
:10AD8000DBD1070A01E174D1010A01E1FED0030A17
:10AD900005E0010A01E00DD2000E1BD20001D76BC5
:10ADA000020ED86FFD0EDBCFE9FFFE0EDBCFEAFF10
:10ADB000EECFBEF0EECFBFF0EECFC0F0EECFC1F0E1
:10ADC000EECFC2F0EECFC3F0EECFC4F0EECFC5F0C1
:10ADD000EECFC6F0EECFC7F0EECFC8F0EECFC9F0A1
:10ADE000EFCFCAF0D880000EC055020EC155000E3C
:10ADF000C255000EC35503E30A0EDD6F73D00B0E70
:10AE0000DD6FC0C014F0C1C015F0C2C016F0C3C0E1
:10AE100017F0090ED8901732163215321432E806A0
:10AE2000F9E114C0DFFF010E15C0DBFF020E16C0F2
:10AE3000DBFF030E17C0DBFFD9CFE9FFDACFEAFF54
:10AE4000EECF14F0EECF15F0EECF16F0EFCF17F0F7
:10AE5000145015101610171009E1D9CFE9FFDACFF9
:10AE6000EAFFEE2A000EEE22EE22EE22E66AE66A03
:10AE7000E66AE66A0F0EE66ED4EC50F0EECF14F000
:10AE8000EECF15F0EECF16F0EECF17F0EECF18F0B4
:10AE9000196E050EE15E1950040E14C0DBFF050E9D
:10AEA00015C0DBFF060E16C0DBFF070E17C0DBFF69
:10AEB000080E18C0DBFF040EDB5014E1D9CFE9FF08
:10AEC000DACFEAFFEECFE6FFEECFE6FFEECFE6FF0A
:10AED000EFCFE6FF130EE66ED4EC50F0146E050EC5
:10AEE000E15E14500001B85108E1090ED890C63750
:10AEF000C737C837C937E806F9E1C6C0E6FFC7C09B
:10AF0000E6FFC8C0E6FFC9C0E6FFDDC0E6FFD4EC3F
:10AF100050F0EECF14F0EECF15F0EECF16F0EECFEE
:10AF200017F0EECF18F0196E050EE15E1950040E01
:10AF300014C0DBFF050E15C0DBFF060E16C0DBFFDD
:10AF4000070E17C0DBFF080E18C0DBFF040EDB5036
:10AF50000EE0FD0EDBCFE9FFFE0EDBCFEAFF0C0EAD
:10AF6000E926000EEA22EF68FF0E33D10CD0FD0E69
:10AF7000DBCFE9FFFE0EDBCFEAFF0C0EE926000E69
:10AF8000EA22020EEF6E020E24D10001D75102E137
:10AF9000020ED8190CE10B0EDD5D05E1FC0EE66E2C
:10AFA000EDD9E55204D0FE0EE66EE8D9E552FD0E6D
:10AFB000DBCFE9FFFE0EDBCFEAFFEECFBEF0EDCF39
:10AFC000BFF0FD0EDBCFE9FFFE0EDBCFEAFF060E82
:10AFD000E926000EEA22EECFC4F0EDCFC5F0BEC0E8
:10AFE00014F0BFC015F0166A176A14500001C05F54
:10AFF0001550C15B1650C25B1750C35BBE51D75F83
:10B00000BF51D85BF2D80001D751D8112FE1D76BCF
:10B01000020ED86FE668B2D9E552E668AFD9E552BC
:10B02000C6D91F0B05080EE0FD0EDBCFE9FFFE0EB3
:10B03000DBCFEAFF0C0EE926000EEA22FE0EEF6ED1
:10B04000030EC7D0FD0EDBCFE9FFFE0EDBCFEAFF1C
:10B050000C0EE926000EEA22030EEF6E0001D96BFA
:10B06000DA6B0A0EDB6FDC6B030EB3D0020EB1D0CD
:10B070000001D951DA11DB11DC1150E0D907000EC3
:10B08000DA5BDB5BDC5BE66879D9E55290D90001DD
:10B09000D66FD65141E0C051C111C211C3112EE18A
:10B0A000D96BDA6B0A0EDB6FDC6B0B0EDD5D16E124
:10B0B000FD0EE66E63D9E552E66860D9E552FD0EF5
:10B0C000DBCFE9FFFE0EDBCFEAFF0C0EE926000E18
:10B0D000EA22040EEF6E030E7CD010D0828CE6685C
:10B0E0004DD9E552FD0EDBCFE9FFFE0EDBCFEAFFC7
:10B0F0000C0EE926000EEA22EF6A6BD0FD0EDBCFC4
:10B10000E9FFFE0EDBCFEAFF0C0EE926000EEA2275
:10B11000020EEF6E5ED010D0030E5BD0FD0EDBCFC3
:10B12000E9FFFE0EDBCFEAFF0C0EE926000EEA2255
:10B13000FE0EEF6E030E4DD00001D951DA11DB1176
:10B14000DC111CE0D907000EDA5BDB5BDC5B2FD97E
:10B150000001D66FD65110E0828CE6680FD9E55217
:10B16000FD0EDBCFE9FFFE0EDBCFEAFF0C0EE9267A
:10B17000000EEA22EF6A2DD0030E2BD0E66AE66AB3
:10B18000E66AE66A050EE66ED4EC50F0146E050E23
:10B19000E15E1450828CE668F1D8E552FD0EDBCFFB
:10B1A000E9FFFE0EDBCFEAFF0C0EE926000EEA22D5
:10B1B000EF68FF0E0ED0FD0EDBCFE9FFFE0EDBCFFA
:10B1C000EAFF0C0EE926000EEA22FE0EEF6E030ED9
:10B1D00000D0146E090EE15C02E2E16AE552E16E14
:10B1E0001450E552E7CFD9FF12000001BE51BF1144
:10B1F00001E12AD0E9CFDFF0EACFE0F0F3CFE1F0D0
:10B20000F4CFE2F0BEC0F3FFBFC0F4FFC4C0E9FF5B
:10B21000C5C0EAFFEE5003D0EE50A4AEFED7A49E08
:10B22000756E000EF306F45AF350F410F5E1A4AE77
:10B23000FED775CFDEF0A49EE1C0F3FFE2C0F4FFBD
:10B24000DFC0E9FFE0C0EAFF1200D9CFE6FFE1CF9F
:10B25000D9FFE652F80EDB5013E1FB0EDBCF14F002
:10B26000FC0EDBCF15F0FD0EDBCF16F0FE0EDBCFB4
:10B2700017F0145015101610171002E1000E31D0FF
:10B280000001E36B020EE46FE56BE66FE76BE86BC2
:10B29000F90EDBCFE9F0FA0EDBCFEAF0FB0EDBCFE5
:10B2A000EBF0FC0EDBCFECF0FD0EDBCFEDF0FE0E95
:10B2B000DBCFEEF0010EEF6FE30EE66E000EE66EF2
:10B2C00049DDE552E552DF6EDF5003E1010E09D0A2
:10B2D00005D0FF0EDF5C02E1000E03D0EDD7010EBA
:10B2E00000D0E552E552E7CFD9FF12008050080B9D
:10B2F00001E0010E00D01200D9CFE6FFE1CFD9FF67
:10B30000050EE126FE0EDB50DF6EDF50DF06000982
:10B3100027E06B0EF36E010EF3CFDBFF170EF36E1B
:10B32000020EF3CFDBFF030EDB6A040EDB6AD9509B
:10B33000010FE96EDACFEAFFEFCF14F0EE06000E50
:10B34000EFCF15F0EE5AEFCF16F0EE5AEFCF17F021
:10B35000EF5A145015101610171001E0E8D7D5D782
:10B36000000000D0050EE15C02E2E16AE552E16E08
:10B37000E552E7CFD9FF1200729A1200D9CFE6FF4B
:10B38000E1CFD9FFE6527550DF6EA49EFE0EDB5072
:10B39000756E72AE03D0FF0E05D002D0A4AEFED7FC
:10B3A000000E00D0E552E552E7CFD9FF1200D9CF09
:10B3B000E6FFE1CFD9FFE6527550DF6EA49E7568B7
:10B3C000A4AEFED7755000D0E552E552E7CFD9FFC5
:10B3D0001200D9CFE6FFE1CFD9FF736A726AFE0E81
:10B3E000DB507212738C94949396958C728AE5520A
:10B3F000E7CFD9FF1200D9CFE6FFE1CFD9FF020E88
:10B40000E1268B948A8694949396DF6A080EDF5C1B
:10B4100025E28B94FE0EDBAE02D08A8601D08A969E
:10B42000DB50020DFE0EF3CFDBFFDE52010EDD6EB0
:10B43000010EDBCFF3FFDB06F350000901E0F8D784
:10B440008B84DE52010EDD6E010EDBCFF3FFDB06D7
:10B45000F350000901E0F8D7DF2AD8D78B94000E0B
:10B46000146E020EE15C03E200D0E16AE552E16E87
:10B470001450E552E7CFD9FF1200D9CFE6FFE1CF54
:10B48000D9FF030EE126020EDB6A8A869396958C1D
:10B490008B949494DF6A080EDF5C22E28B94DE5278
:10B4A000010EDD6E010EDBCFF3FFDB06F35000096A
:10B4B00001E0F8D78B84DE52010EDD6E010EDBCF8A
:10B4C000F3FFDB06F350000901E0F8D7020EDB5072
:10B4D000020D020EF3CFDBFF83BCDB2ADF2ADBD7B2
:10B4E0008B94020EDB50146E030EE15C03E200D07D
:10B4F000E16AE552E16E1450E552E7CFD9FF120040
:10B50000726A8B948A86949493961200D9CFE6FF40
:10B51000E1CFD9FF230EE1260001B96BBA6BB26B04
:10B52000B36BB46BB56BB86B828CEADF1E0EE66E44
:10B53000E3DEE552828CDE6ADD6ADECF14F0DDCF19
:10B5400015F00A0E145C000E155808E2E66853DF89
:10B55000E552DF2A010E01E3DB2AEFD7640EDE6E2F
:10B56000DD6A828CE66847DFE552829CDF06010EC9
:10B5700001E2DB06E66AE66AE66AE66AE66A95ECF6
:10B5800052F0EECF14F0EECF15F0EECF16F0EECF76
:10B5900017F0EECF18F0196E050EE15E1950020E8D
:10B5A00014C0DBFF030E15C0DBFF040E16C0DBFF6B
:10B5B000050E17C0DBFF060E18C0DBFF020EDB0412
:10B5C00007E0D9CFE9FFDACFEAFFEE50ED10C9E18D
:10B5D000D9CFE9FFDACFEAFFEE50ED105FE1828CC0
:10B5E000E66809DFE552829CE66AE66AE66AE66A90
:10B5F000050EE66E95EC52F0EECF14F0EECF15F09E
:10B60000EECF16F0EECF17F0EECF18F0196E050E54
:10B61000E15E1950020E14C0DBFF030E15C0DBFF04
:10B62000040E16C0DBFF050E17C0DBFF060E18C0A8
:10B63000DBFFE66AE66AE66AE66AE66A95EC52F0DD
:10B64000EECF14F0EECF15F0EECF16F0EECF17F0F0
:10B65000EECF18F0196E050EE15E1950020E14C0FF
:10B66000DBFF030E15C0DBFF040E16C0DBFF050E6B
:10B6700017C0DBFF060E18C0DBFF020EDB040DE077
:10B680000001020EB96FB90E146E000E156E14C0D3
:10B69000F3FF15C0F4FF4BD300D000D0AA0EE66E26
:10B6A000010EE66EE66AE66A020EE66E95EC52F070
:10B6B000EECF14F0EECF15F0EECF16F0EECF17F080
:10B6C000EECF18F0196E050EE15E1950020E14C08F
:10B6D000DBFF030E15C0DBFF040E16C0DBFF050EFB
:10B6E00017C0DBFF060E18C0DBFF14680F0E156EC7
:10B6F000166A176AD950030FE96EDACFEAFFEE50E7
:10B700001416EE501516EE501616EE501716AA0E19
:10B71000141806E1010E151803E1165001E1175047
:10B7200001E0C3D0D950020FE96EDACFEAFFEF5043
:10B73000040B01E0BAD0E66AE66AE66AE66A100E31
:10B74000E66E95EC52F0EECF14F0EECF15F0EECFA2
:10B7500016F0EECF17F0EECF18F0196E050EE15E81
:10B760001950020E14C0DBFF030E15C0DBFF040EE0
:10B7700016C0DBFF050E17C0DBFF060E18C0DBFF8F
:10B78000DE6ADD6ADECF14F0DDCF15F0FF0E145C4B
:10B79000FF0E15583BE2E66AE66AE66AE66A0F0EB5
:10B7A000E66E95EC52F0146E050EE15E1450E66AFA
:10B7B000E66AE66A400EE66E120EE66E95EC52F010
:10B7C000EECF14F0EECF15F0EECF16F0EECF17F06F
:10B7D000EECF18F0196E050EE15E1950020E14C07E
:10B7E000DBFF030E15C0DBFF040E16C0DBFF050EEA
:10B7F00017C0DBFF060E18C0DBFF020EDB5001E1B5
:10B8000005D0DF2A010E01E3DB2ABCD7DECF14F01E
:10B81000DDCF15F0FF0E145CFF0E155803E3000199
:10B82000020EB96FE66AE66AE66AE66A100EE66E2E
:10B8300095EC52F0EECF14F0EECF15F0EECF16F0FF
:10B84000EECF17F0EECF18F0196E050EE15E19502D
:10B85000020E14C0DBFF030E15C0DBFF040E16C082
:10B86000DBFF050E17C0DBFF060E18C0DBFF146AF6
:10B87000156A166A400E176ED950030FE96EDACFBB
:10B88000EAFFEE501416EE501516EE501616EE5056
:10B890001716145015101610171004E00001010EB1
:10B8A000B86F02D00001B86B4AD0828C010EE66EF0
:10B8B00023DDE552829C0001B86BDE681F0EDD6E51
:10B8C000E66AE66AE66AE66A010EE66E95EC52F012
:10B8D000EECF14F0EECF15F0EECF16F0EECF17F05E
:10B8E000EECF18F0196E050EE15E1950020E14C06D
:10B8F000DBFF030E15C0DBFF040E16C0DBFF050ED9
:10B9000017C0DBFF060E18C0DBFFDF06010E01E2E9
:10B91000DB06020EDB5007E0D9CFE9FFDACFEAFF02
:10B92000EE50ED10CDE1D9CFE9FFDACFEAFFEE50CE
:10B93000ED1005E10001020EB96F828C00D0828CFF
:10B94000E66A47DDE552829C140EDE6EDD6AE66A29
:10B95000E66AE66AE66A030EE66ED4EC50F0EECFD5
:10B9600014F0EECF15F0EECF16F0EECF17F0EECFCD
:10B9700018F0196E050EE15E1950020E14C0DBFFBF
:10B98000030E15C0DBFF040E16C0DBFF050E17C04B
:10B99000DBFF060E18C0DBFFDF06010E01E2DB064F
:10B9A000020EDB5007E0D9CFE9FFDACFEAFFEE5015
:10B9B000ED10CDE1D9CFE9FFDACFEAFFEE50ED107F
:10B9C00001E00DD00001020EB96F828CB90E146E29
:10B9D000000E156E14C0F3FF15C0F4FFA8D11C0EA5
:10B9E000DB6A1B0EDB6A140EF36E1B0EDBCFF4FF5B
:10B9F000F350F45C20E2DBDCE66ED950070F146EE6
:10BA0000DACF15F01C0EDB500F011424E96E000E86
:10BA10001520EA6EE552E750EF6E1C0EDB2A1B0E76
:10BA2000DB5006E1070EDB50FE0802E11C0EDB6A6C
:10BA30001B0EDB2AD8D70001B66B020EB76FBB6BAB
:10BA4000BC6FBA81070EDB50C00B60E00E0EDBCF7F
:10BA500014F0156A166A176A3F0E1416156A166AEC
:10BA6000176A100E1F0B07E0D890143615361636DD
:10BA70001736E806F9E10F0EDBCF18F018C019F001
:10BA8000186A1A6A1B6A18501412195015121A50A3
:10BA900016121B501712100EDBCF1CF01D6A1E6A07
:10BAA0001F6A1C5014121D5015121E5016121F50E2
:10BAB00017121D0E14C0DBFF1E0E15C0DBFF1F0E7C
:10BAC00016C0DBFF200E17C0DBFF1D0EDBCFB2F070
:10BAD0001E0EDBCFB3F01F0EDBCFB4F0200EDBCF9A
:10BAE000B5F00001B22B000EB323B423B5230A0E28
:10BAF000D890B237B337B437B537E806F9E100016B
:10BB0000B207000EB35BB45BB55BE5D00D0EDBCFC7
:10BB100014F0156A166A176A100E1F0B07E0D8900A
:10BB20001436153616361736E806F9E10E0EDBCF59
:10BB300018F018C019F0186A1A6A1B6A1850141203
:10BB4000195015121A5016121B5017120F0EDBCF78
:10BB50001CF01D6A1E6A1F6A1C5014121D5015121B
:10BB60001E5016121F5017121D0E14C0DBFF1E0EA2
:10BB700015C0DBFF1F0E16C0DBFF200E17C0DBFF5A
:10BB8000D9501D0FE96EDACFEAFFC00EEE16EE5265
:10BB9000030EEE16EE6A1D0EDBCF14F01E0EDBCF89
:10BBA00015F01F0EDBCF16F0200EDBCF17F0060EC0
:10BBB000D8901732163215321432E806F9E11D0E0C
:10BBC00014C0DBFF1E0E15C0DBFF1F0E16C0DBFF0F
:10BBD000200E17C0DBFF100EDB50030BE824146EA1
:10BBE000110EDB50800BE844010B1410E76E210EA0
:10BBF000E7CFDBFF0C0EDB500F0BE76E220EE7CF1B
:10BC0000DBFFDB50F70F146E010E145204E0E84620
:10BC1000FE0B1406FCE1E76E220EE7CFDBFFDBCF65
:10BC200020F0216A226A236A210EDB50020FA1EC68
:10BC30007DF0F3CF1CF0F4CF1DF01E6A1F6A010ED9
:10BC4000186E196A1A6A1B6AD9501D0FE96EDACF8D
:10BC5000EAFFEE501826EE501922EE501A22EE504E
:10BC60001B2218C006F019C007F01AC008F01BC04C
:10BC700009F01CC00BF01DC00CF01EC00DF01FC061
:10BC80000EF011EC7DF002C014F003C015F004C0FA
:10BC900016F005C017F014C006F015C007F016C066
:10BCA00008F017C009F020C00BF021C00CF022C032
:10BCB0000DF023C00EF011EC7DF002C0B2F003C015
:10BCC000B3F004C0B4F005C0B5F00001B207000E37
:10BCD000B35BB45BB55BE66AE66AE66AE66A110ED8
:10BCE000E66ED4EC50F0146E050EE15E1450B6C052
:10BCF00014F0B7C015F0166A176A14C0E6FF15C035
:10BD0000E6FF16C0E6FF17C0E6FF070EE66ED4ECAE
:10BD100050F0186E050EE15E1850828CB90E146E4C
:10BD2000000E156E14C0F3FF15C0F4FF00D0230EF3
:10BD3000E15C02E2E16AE552E16EE552E7CFD9FF4C
:02BD40001200EF
:0EBD4200D9CFE6FFE1CFD9FFE652A098636AA1
:10BD5000626A0F01266B010EE66EE66AE66A270E3E
:10BD6000E66E0F0EE66EF7EC7CF0146E050EE15EEB
:10BD700014500F01160E396F9F0E376F7B0E366F02
:10BD8000DF6ADF50146E156A080E145C000E155839
:10BD900010E2DF50040DF3CFE9FFF4CFEAFF000E0D
:10BDA000E926040EEA22EE6AEE6AEE6AEE6ADF2AFD
:10BDB000E8D7658C0F01386B6598659C62A607D043
:10BDC00062960401706B756B766B776BF7D7040125
:10BDD000010E886F896F8A6B8B6B7E6BDF6A020E38
:10BDE000DF5C26E2EA6ADF34FE0BEA36E96E670EB4
:10BDF000E926040EEA22EE6AED6AEA6ADF34FE0BF7
:10BE0000EA36E96E630EE926040EEA22EE6AED6A6E
:10BE1000DF50EA6A820FE96E040EEA22EF6ADF5011
:10BE2000EA6A840FE96E040EEA22EF6ADF2AD7D7A6
:10BE30000401080E676F040E686F0F01160E266F5F
:10BE40000401200E026F040E036F080E016F840EB2
:10BE5000006F04015D6B5C6BE552E552E7CFD9FFE3
:10BE60001200D9CFE6FFE1CFD9FFE65204015C51C1
:10BE700018E107D0656A0F01366B04015C6BA1986D
:10BE8000C0D0656A0F01366B160E396F9F0E376F83
:10BE90007B0E366F65B602D06586FCD70401010EB5
:10BEA0005C6F5C050AE165BA08D0626A0F01366B07
:10BEB000368136890401020E5C6F6250040B07E084
:10BEC0000F013651040B03E06294A2EC65F065A209
:10BED00002D0A19896D06250010B09E00F013651B3
:10BEE000010B05E02EDF0401040E5C6F62906250CE
:10BEF000100B07E00F013651100B03E08CEC65F0DE
:10BF0000629862AC13D00F0136AD0FD0010EE66E11
:10BF1000E66A000EE66EE66A730EE66EE66AE0EC2E
:10BF200078F0146E060EE15E1450629C6250200B95
:10BF300006E00F013651200B02E072EC65F0625012
:10BF4000020B14E00F013651020B10E0010EE66EF9
:10BF5000E66A000EE66EE66AE6687F0EE66EE0ECE4
:10BF600078F0146E060EE15E1450636A040E04014C
:10BF7000E76E5C19E8AE02D0E73402D0E7505C5DB2
:10BF800002E2A1983ED00F0136A73AD0DF6A040E34
:10BF9000DF5C36E262A631D064CF7FF404017F51CA
:10BFA000780BE842E842E842806F62967FB508D09D
:10BFB0008051EA6A840FE96E040EEA22EF7007D01E
:10BFC0008051EA6A820FE96E040EEA22EF70805116
:10BFD00003E1BAEC65F010D0000EE66EE66A7F0E63
:10BFE000E66E040EE66E720EE66EE66AE0EC78F03F
:10BFF000146E060EE15E145001D002D0DF2AC7D7BE
:10C00000A198E552E552E7CFD9FF1200D9CFE6FF5C
:10C01000E1CFD9FF020EE126FD0EDBA407D0E66AD0
:10C02000FE0EDBCFE6FF05DAE552E552FD0EDBA2A0
:10C0300008D0010EE66EFE0EDBCFE6FFFAD9E55220
:10C04000E552FE0EDB50156A260F146E0F0E1522F8
:10C0500014C0DEFF15C0DDFFDECFE9FFDDCFEAFF54
:10C06000FD0EDBCFEFFF020EE15C02E2E16AE5527A
:10C07000E16EE552E7CFD9FF1200D9CFE6FFE1CF5D
:10C08000D9FF020EE126FD0EDB500FE0FE0EEA6A3C
:10C09000DB34FE0BEA36E96E670EE926040EEA226F
:10C0A000EECFDEFFEDCFDDFF0ED0FE0EEA6ADB3411
:10C0B000FE0BEA36E96E630EE926040EEA22EECFA5
:10C0C000DEFFEDCFDDFFD9CFE9FFDACFEAFFEE509B
:10C0D000ED1003E1F36AF46A49D0DECFE9FFDDCF6A
:10C0E000EAFF020EE926000EEA22FB0EDBCFEEFF8E
:10C0F000FC0EDBCFEDFFDECFE9FFDDCFEAFFEE5236
:10C10000FA0EDBCFEFFF400E146EDECFE9FFDDCF7E
:10C11000EAFF1450EF16880E146EDECFE9FFDDCF74
:10C12000EAFF1450EF12FD0EDB500CE0FE0EEA6A3F
:10C13000DB34FE0BEA36E96E670EE926040EEA22CE
:10C14000EF740BD0FE0EEA6ADB34FE0BEA36E96EC2
:10C15000630EE926040EEA22EF74DECF14F0DDCF81
:10C1600015F014C0F3FF15C0F4FF00D0020EE15C1F
:10C1700002E2E16AE552E16EE552E7CFD9FF120033
:10C18000D9CFE6FFE1CFD9FF020EE126FE0EDB504C
:10C1900020E161C4E9FF62C4EAFFEE52080EEF6ECF
:10C1A00061C4E9FF62C4EAFF020EE926000EEA223A
:10C1B000200EEE6E040EED6E61C4E9FF62C4EAFF6C
:10C1C0008C0EEF6E67C4E9FF68C4EAFF840EEF6E61
:10C1D0003DD0FD0EDB50E824166EFE0EDB50040D44
:10C1E000F3501624040DF3CF14F0F4CF15F0000E25
:10C1F0001426040E152214C0DEFF15C0DDFF840EC8
:10C20000146EDECFE9FFDDCFEAFF1450EF12FD0E12
:10C21000DB50E824166EFE0EDB50040DF35016249E
:10C22000010F040DF3CF14F0F4CF15F0000E142617
:10C23000040E152214C0DEFF15C0DDFF840E146E3F
:10C24000DECFE9FFDDCFEAFF1450EF12020EE15C12
:10C2500002E2E16AE552E16EE552E7CFD9FF120052
:10C26000D9CFE6FFE1CFD9FF65A84ED0FE0EEA6A2E
:10C27000DB34FE0BEA36E96E670EE926040EEA228D
:10C28000EE50EFCFEAFFE96E400EEE16EE6AEE6A70
:10C29000EE6AFE0EEA6ADB34FE0BEA36E96E670EE2
:10C2A000E926040EEA22EE50EFCFEAFFE96EEE7CBB
:10C2B000FE0EEA6ADB34FE0BEA36E96E670EE9260B
:10C2C000040EEA22EF74400E146EFE0EEA6ADB34AE
:10C2D000FE0BEA36E96E670EE926040EEA22EE50FE
:10C2E000EFCFEAFFE96E1450EF16FE0EEA6ADB3478
:10C2F000FE0BEA36E96E670EE926040EEA22EE50DE
:10C30000EFCFEAFFE96EEF7CE552E7CFD9FF1200ED
:10C31000040188514DE1010E886F895149E1010EF8
:10C32000896F020E6C5D0DE167C4E9FF68C4EAFF26
:10C33000EE52EF6A67C4E9FF68C4EAFFC80EEF6E09
:10C3400037D06C0535E1816B5FC4E9FF60C4EAFF5B
:10C35000EE52080EEF6E5FC4E9FF60C4EAFF020E02
:10C36000E926000EEA22200EEE6E040EED6E5FC48A
:10C37000E9FF60C4EAFF840EEF6E010E816F61C4B5
:10C38000E9FF62C4EAFFEE52080EEF6E61C4E9FFF6
:10C3900062C4EAFF020EE926000EEA22200EEE6ECB
:10C3A000040EED6E61C4E9FF62C4EAFF800EEF6E19
:10C3B000120004018A6B8B6B020E6C5D1AE161C482
:10C3C000E9FF62C4EAFFEE52080EEF6E61C4E9FFB6
:10C3D00062C4EAFF020EE926000EEA22280EEE6E83
:10C3E000040EED6E61C4E9FF62C4EAFFC80EEF6E91
:10C3F0001FD071510401265D0401725104012759B7
:10C4000004E226C471F427C472F4D1D867C4E9FFEA
:10C4100068C4EAFF020EE926000EEA22280EEE6E3C
:10C42000040EED6E67C4E9FF68C4EAFFC80EEF6E44
:10C430001200D9CFE6FFE1CFD9FF020EE126000EB0
:10C44000DE6E040EDD6EFD0EDB50E824166EFE0E71
:10C45000DB50040DF3501624040DF3CF14F0F4CF89
:10C4600015F0D9CFE9FFDACFEAFF1450EE261550C8
:10C47000ED22DECFE9FFDDCFEAFFEF9EFD0EDB50C0
:10C480000FE1FE0EEA6ADB34FE0BEA36E96E630E5C
:10C49000E926040EEA22DECFEEFFDDCFEDFF0ED05F
:10C4A000FE0EEA6ADB34FE0BEA36E96E670EE92619
:10C4B000040EEA22DECFEEFFDDCFEDFFDECFE9FF97
:10C4C000DDCFEAFFEF9CDECFE9FFDDCFEAFF040E10
:10C4D000E926000EEA22EF8C020EE15C02E2E16A3C
:10C4E000E552E16EE552E7CFD9FF120065980401ED
:10C4F00070BF2BD075AF09D0020E6C6F8B5101E16C
:10C5000058DF0401896B886B1FD061C4E9FF62C4E6
:10C51000EAFFEE52080EEF6E61C4E9FF62C4EAFF63
:10C52000020EE926000EEA22200EEE6E040EED6EDB
:10C5300061C4E9FF62C4EAFF8C0EEF6E67C4E9FFD5
:10C5400068C4EAFF840EEF6E31D0040120AF0DD035
:10C550000401010E6C6F8A5101E12BDF0401896B2C
:10C56000886B875101E1D4DE21D00401020E6C6F8B
:10C5700061C4E9FF62C4EAFFEE52080EEF6E61C4C7
:10C58000E9FF62C4EAFF020EE926000EEA22200E4D
:10C59000EE6E040EED6E61C4E9FF62C4EAFF840E24
:10C5A000EF6E896B886B875101E1B2DE1200D9CF43
:10C5B000E6FFE1CFD9FFE652080EDF6E0401715DA0
:10C5C000000E72590BE271C4DFFF6B5103E1010EE3
:10C5D0006B6F04D06B0502E1020E6B6FDF50146EBF
:10C5E000156A1450715D716F15507259726F67C47E
:10C5F000E9FF68C4EAFFEE52DFCFEFFF280E7B6F42
:10C60000040E7C6F70B11CD0DF5019E06DC4F6FFD2
:10C610006D2B6EC4F7FF000E6E236FC4F8FF6F23FF
:10C620000800F550E66E7BC4E9FF7CC4EAFF7B2B73
:10C63000000E7C23E552E750EF6EDF06E5D717D0FA
:10C64000DF5015E06DC4E9FF6EC4EAFF6D2B000EEC
:10C650006E23EF50E66E7BC4E9FF7CC4EAFF7B2BC0
:10C66000000E7C23E552E750EF6EDF06E9D7E55276
:10C67000E552E7CFD9FF1200D9CFE6FFE1CFD9FFCE
:10C68000020EE1265FC4E9FF60C4EAFFEE52EFCF7D
:10C69000DFFFDFCF14F014500401765D000E7759F0
:10C6A00002E276C4DFFFDF50146E156A1450765D27
:10C6B000766F15507759776F010EDB6ADF50F36E96
:10C6C000010EDBCFF4FFF350F45C16E2010EDB50F9
:10C6D000EA6A280FE96E040EEA22EF50E66E73C490
:10C6E000E9FF74C4EAFF732B000E7423E552E75090
:10C6F000EF6E010EDB2AE2D7000ED8807655000ED1
:10C70000775528E261C4E9FF62C4EAFFEE52080EE1
:10C71000EF6E61C4E9FF62C4EAFF020EE926000E73
:10C72000EA22280EEE6E040EED6E5FC4E9FF60C4CF
:10C73000EAFFEF50400B07E161C4E9FF62C4EAFF82
:10C74000C80EEF6E06D061C4E9FF62C4EAFF880E2E
:10C75000EF6E2BD061C4E9FF62C4EAFFEE52080E0F
:10C76000EF6E61C4E9FF62C4EAFF020EE926000E23
:10C77000EA22200EEE6E040EED6E61C4E9FF62C483
:10C78000EAFF840EEF6E785179117A1109E007D033
:10C790007AC4FBFF79C4FAFF04017851F96EF8DF1F
:10C7A0000401759F875101E1B3DD020EE15C02E2F5
:10C7B000E16AE552E16EE552E7CFD9FF1200D9CF29
:10C7C000E6FFE1CFD9FFE6520401708F010EE66E5D
:10C7D000E66AE66A270EE66E0F0EE66EF7EC7CF070
:10C7E000146E050EE15E1450200EE66EE66AE66AEF
:10C7F000000EE66E040EE66EF7EC7CF0146E050E8D
:10C80000E15E1450658CDF6A020EDF5C10E2DF50DF
:10C81000EA6A820FE96E040EEA22EF6ADF50EA6AE2
:10C82000840FE96E040EEA22EF6ADF2AEDD7010ECB
:10C83000E66EE66AE66A5E0EE66E040EE66EF7ECFB
:10C840007CF0146E050EE15E1450659C0401080E28
:10C85000676F040E686F000E5F6F040E606F5FC439
:10C8600061F460C462F422C45DF45D5103E1100E12
:10C870005C6F13D0010EE66EE66A5D0EE66E040E86
:10C88000E66E010EE66EE66AE0EC78F0146E060ED7
:10C89000E15E14500401200E5C6FE552E552E7CFD3
:10C8A000D9FF1200800E0401205D01E0B2D0040126
:10C8B000C00E706F04012351030A67E0010A10E003
:10C8C000030A03E00401706BA4D00401C80E6D6F6D
:10C8D000F70E6E6F000E6F6F120E716F726B99D044
:10C8E000010E225D4FE26C0E146EF80E156E000EF6
:10C8F000166E22C417F0186A196A030E0C6E0D6AC0
:10C900000E6A17C007F018C008F019C009F08BECC8
:10C910007CF004C017F005C018F006C019F01450E0
:10C920001724F36E15501820F46E16501920F86E67
:10C93000F4CFF7FFF3CFF6FF0900F5CF6DF4090050
:10C94000F5CF6EF40800F5CF6FF46DC4F6FF6EC43A
:10C95000F7FF6FC4F8FF020EF626000EF722F8224A
:10C960000800F5CF71F46DC4F6FF6EC4F7FF6FC415
:10C97000F8FF030EF626000EF722F8220800F5CF86
:10C9800072F402D00401706B44D0030E225D3EE2CB
:10C990006F0E146EF80E156E000E166E22C417F090
:10C9A000186A196A030E0C6E0D6A0E6A17C007F03A
:10C9B00018C008F019C009F08BEC7CF004C017F027
:10C9C00005C018F006C019F014501724F36E155066
:10C9D0001820F46E16501920F86EF4CFF7FFF3CF3D
:10C9E000F6FF0900F5CF6DF40900F5CF6EF40800ED
:10C9F000F5CF6FF46DC4F6FF6EC4F7FF6FC4F8FF98
:10CA00000800F5500401716F726B02D00401706B65
:10CA100000D01200D9CFE6FFE1CFD9FF020EE12608
:10CA20000401286B296B20511F0B020A12E0030A34
:10CA30000DE0010A01E042D00401708F0401288159
:10CA400004017D0502E10401288338D00401708FC0
:10CA500035D00401708F040124BF10D024510F0B76
:10CA6000E96EEA6AD890E936EA36630EE926040EE2
:10CA7000EA22EECFDEFFEDCFDDFF0FD024510F0B0A
:10CA8000E96EEA6AD890E936EA36670EE926040EBE
:10CA9000EA22EECFDEFFEDCFDDFFDECFE9FFDDCF17
:10CAA000EAFFEF50800B09E0DECFE9FFDDCFEAFFC0
:10CAB000EF50040B02E0010E286F00D0040170AFAC
:10CAC00007D0280E6D6F040E6E6F7081020E716FAD
:10CAD000020EE15C02E2E16AE552E16EE552E7CF67
:10CAE000D9FF12000F0126A115D05FC4E9FF60C471
:10CAF000EAFFEF5080080DE167C4E9FF68C4EAFF70
:10CB0000EF50840806E15FC4E9FF60C4EAFF8C0EC1
:10CB1000EF6E2691629A12000F0136856298658247
:10CB20000401010E7E6F000EE66EE66AE66EE66AAE
:10CB3000750EE66EE66AE0EC78F0146E060EE15EC5
:10CB40001450120004017E6B000EE66EE66AE66E7B
:10CB5000E66A740EE66EE66AE0EC78F0146E060E95
:10CB6000E15E145065920F01369562A402D0629482
:10CB7000FCD71200D9CFE6FFE1CFD9FFE652FD0E78
:10CB800004017F1553E17E0E7F15E8407F0B040DF5
:10CB9000F3CF5FF4F4CF60F4000E5F27040E602340
:10CBA0005FC461F460C462F461755FC4E9FF60C48E
:10CBB000EAFFEF503C0BE842E8420D0835E1DF6A3E
:10CBC000080EDF5C23E25FC4E9FF60C4EAFF020EE7
:10CBD000E926000EEA22EE50EFCFEAFFE96EEF50B1
:10CBE000E66EDF50EA6A200FE96E040EEA22E55293
:10CBF000E750EF6E5FC4E9FF60C4EAFF020EE9266A
:10CC0000000EEA22EE2AEF22DF2ADAD75FC4E9FF1C
:10CC100060C4EAFF020EE926000EEA22200EEE6E44
:10CC2000040EED6E0DD801D03AD805D0FD0E7F155B
:10CC3000040801E159D8E552E552E7CFD9FF1200C7
:10CC400004016B6B876B8A6B8B6B816B6C6B67C43E
:10CC5000E9FF68C4EAFFEF9E677567C4E9FF68C42F
:10CC6000EAFFEF9E677561C4E9FF62C4EAFFEF9EC9
:10CC7000706B716B726B756B766B776B95D8000E02
:10CC8000E66EE66AE66EE66A030EE66EE66AE0ECDB
:10CC900078F0146E060EE15E145076EF62F0020E2C
:10CCA00004016C5D02E1E8DC1ED06C6B81511AE17D
:10CCB00061C4E9FF62C4EAFFEE52080EEF6E61C480
:10CCC000E9FF62C4EAFF020EE926000EEA22200E06
:10CCD000EE6E040EED6E61C4E9FF62C4EAFF8C0ED5
:10CCE000EF6E01D0816B1200D9CFE6FFE1CFD9FF03
:10CCF000E65267C4E9FF68C4EAFFEF50400B01E069
:10CD0000010EDF6E04016775080E5C5D0CE122C444
:10CD100038FF0F01385104E00401100E5C6F03D09E
:10CD20000401040E5C6F6C0528E167C4E9FF68C468
:10CD3000EAFF020EE926000EEA22280EEE6E040E2D
:10CD4000ED6E35DC020E04016B5D07E167C4E9FF9F
:10CD500068C4EAFF840EEF6E0FD0DF5007E167C4AE
:10CD6000E9FF68C4EAFFC80EEF6E06D067C4E9FFAA
:10CD700068C4EAFF880EEF6E12D075AF0FD07851FD
:10CD800079117A1109E007D07AC4FBFF79C4FAFF60
:10CD900004017851F96EF8DF0401759F6C6BE55260
:10CDA000E552E7CFD9FF120004012051600BE842A1
:10CDB000E842E842E842E842000901E058D0215147
:10CDC0000C0A54E00B0A43E00C0A35E0010A26E0A5
:10CDD0000B0A22E0020A20E0030A1CE0080A10E025
:10CDE000010A0CE00F0A08E0030A01E03FD0040149
:10CDF000708F080E5C6F3BD055DD39D0E0DC37D04A
:10CE000004015D0E6D6F040E6E6F7081010E716F07
:10CE1000708F2DD0FFDD2BD02BD829D024510401C9
:10CE20006D6F6E6B5E0E6D27040E6E237081010EAA
:10CE3000716F708F1CD00401708F04012451EA6A55
:10CE40005E0FE96E040EEA2222C4EFFF10D0000E3E
:10CE5000E66EE66AE66EE66A020EE66EE66AE0EC0A
:10CE600078F0146E060EE15E145001D000D012006E
:10CE7000D9CFE6FFE1CFD9FF050EE1260401220557
:10CE800010E120511F0B00090CE10401708F030E0B
:10CE90000401215D04E10401010E7D6F02D0040153
:10CEA0007D6B0401225101E020D120511F0B0208AB
:10CEB00001E01BD124510F0B000901E116D12451CF
:10CEC0000F0B010801E211D1200E04015C5D01E0AD
:10CED0000CD1708F040124BF1AD024510F0BE96EBE
:10CEE000EA6AD890E936EA36630EE926040EEA22A9
:10CEF000EECFDEFFEDCFDDFF24510F0BEA6A840F8A
:10CF0000E96E040EEA22020EEFCFDBFF19D02451A6
:10CF10000F0BE96EEA6AD890E936EA36670EE92621
:10CF2000040EEA22EECFDEFFEDCFDDFF24510F0B22
:10CF3000EA6A820FE96E040EEA22020EEFCFDBFFEF
:10CF4000D950020FE96EDACFEAFFEF50010B03E18F
:10CF5000000EDF9401D0DF8424BF10D024510F0BCA
:10CF6000E96EEA6AD890E936EA36630EE926040EDD
:10CF7000EA22DECFEEFFDDCFEDFF0FD024510F0B05
:10CF8000E96EEA6AD890E936EA36670EE926040EB9
:10CF9000EA22DECFEEFFDDCFEDFF030E215D23E1C0
:10CFA000DECFE9FFDDCFEAFFEF50800B13E024BFB7
:10CFB00009D024510F0BEA6A840FE96E040EEA22AD
:10CFC000EF8208D024510F0BEA6A820FE96E040E3B
:10CFD000EA22EF82840E146EDECFE9FFDDCFEAFF96
:10CFE0001450EF1282D0DF74DECFE9FFDDCFEAFF0D
:10CFF000EF50800B1BE0DECFE9FFDDCFEAFFEF9EB5
:10D00000DECFE9FFDDCFEAFFEF8C020EE66EE66AC7
:10D01000DECFE6FFDDCFE6FF050EE66EE66AE0EC6A
:10D0200078F0146E060EE15E145005D0DECFE9FFF5
:10D03000DDCFEAFFEF8CDF74D950020FE96EDACF53
:10D04000EAFFEF50020B07E1DECFE9FFDDCFEAFF99
:10D05000EF50800B2DE0040124BF09D024510F0BA9
:10D06000EA6A840FE96E040EEA22EF9208D0245196
:10D070000F0BEA6A820FE96E040EEA22EF923B0E72
:10D08000146EDECFE9FFDDCFEAFF1450EF16020E7B
:10D09000E66EE66ADECFE6FFDDCFE6FF050EE66E62
:10D0A000E66AE0EC78F0146E060EE15E145008D0EB
:10D0B0003B0E146EDECFE9FFDDCFEAFF1450EF1612
:10D0C000040124510F0B156A260F146E0F0E152242
:10D0D000030E14C0DBFF040E15C0DBFF030EDBCF15
:10D0E000E9FF040EDBCFEAFFEF90050EE15C02E200
:0ED0F000E16AE552E16EE552E7CFD9FF12008A
:02D0FE00400EE2
:10D10000E66E300EE66E040EE66EE66A010EE66E20
:10D110003DEC60F0146E050EE15E1450F3CF99F013
:10D12000F4CF9AF069C49BF06AC49CF00001606B74
:10D130006169626B636BA26BAA6BAB6BAC6BAD6B23
:10D14000AE6BAF6BB06BB16B010EA36F9F6BA06B3F
:10D15000726B010E725D22E27251EA6AA10FE96EF2
:10D16000000EEA22EF6A1CEC50F0000912E086EC97
:10D170005AF0F3CF14F0F4CF15F01450151009E065
:10D1800000017251A1EC7DF0F35000019F13F450A7
:10D19000A013F1EC6EF00001722BDBD7120004013A
:10D1A00020511F0B010801E054D0245101E051D05F
:10D1B0002151FE0A38E0010A01E04BD0225123112F
:10D1C00003E12651271101E044D00001606B616941
:10D1D000626B636B010EA36F04016551661102E17E
:10D1E000000E08D065C4E9FF66C4EAFFEF50800B6B
:10D1F00001E0010E000913E1400EE66E300EE66E0E
:10D20000040EE66EE66A010EE66E3DEC60F0146E0A
:10D21000050EE15E1450F3CF99F0F4CF9AF00401BB
:10D22000800E706F16D02251231105E1010E2619D0
:10D2300001E1275101E00DD00401286B0401280E03
:10D240006D6F040E6E6F010E716F726BC10E706F99
:10D2500000D01200D9CFE6FFE1CFD9FFE652200E71
:10D2600004015C5D02E0000E1FD100016051030A61
:10D2700001E1C2D0010A01E1AED0030A01E1A4D06C
:10D28000010A01E003D199519A1102E1000E08D080
:10D2900099C0E9FF9AC0EAFFEF50800B01E0010E50
:10D2A000000901E090D0DF6A1F0EDF5C13E2DF505F
:10D2B000EA6A300FE96E040EEA22EF50E66EDF50A4
:10D2C000EA6A650FE96E000EEA22E552E750EF6E5A
:10D2D000DF2AEAD799C0E9FF9AC0EAFFEE52EF5081
:10D2E0001F0861E1550E0001651908E1530E66192A
:10D2F00005E1420E671902E1430E681954E1010E7F
:10D30000A36F7251000840E3735110083DE3010E12
:10D31000735D3AE33F0E711537E10401550E4F6F0F
:10D32000530E506F420E516F530E526F69C053F43B
:10D330006AC054F46BC055F46CC056F4576B586B0C
:10D34000596B5A6B5B6B00016169626B636B646B59
:10D35000030E745D06E08791879387958797916B9D
:10D36000926B71AF03D0010E606F02D0020E606F3E
:10D370006D516E116F11701102E0A26B02D0010E9F
:10D38000A26F74C061F00ED0010EE66EE66EC0ECC6
:10D3900060F0E552E552E66A010EE66EC0EC60F020
:10D3A000E552E55210D0010EE66EE66EC0EC60F07C
:10D3B000E552E552E66A010EE66EC0EC60F0E55219
:10D3C000E5520001A36B6DD074D8FF0803E10001A2
:10D3D000030E606F66D06DD8FF080DE104015B514C
:10D3E00007E15751581159115A1102E0020E5B6FB3
:10D3F0000001030E606F55D0040169516A1102E10A
:10D40000000E08D069C4E9FF6AC4EAFFEF50800B40
:10D4100001E0010E000901E044D00D0EE66E4F0E52
:10D42000E66E040EE66E010EE66EE66E3DEC60F012
:10D43000146E050EE15E1450F3CF9BF0F4CF9CF018
:10D44000000199519A1102E1000E08D099C0E9FF3C
:10D450009AC0EAFFEF50800B01E0010E000913E1D2
:10D46000400EE66E300EE66E040EE66EE66A010EC3
:10D47000E66E3DEC60F0146E050EE15E1450F3CFE5
:10D4800099F0F4CF9AF00001606B0BD0606B04014F
:10D49000020E5B6FE66A010EE66EC0EC60F0E552CC
:10D4A000E5520001605100D0E552E552E7CFD9FFC7
:10D4B00012001CEC50F0000909E000017251EA6A08
:10D4C000A10FE96E000EEA22EF0411E10001725192
:10D4D000A1EC7DF0F3CF14F0F4CF15F0141E151E5F
:10D4E000145000019F171550A01733D82ED0725139
:10D4F000A1EC7DF000019F51F314146EA051F414BF
:10D50000156E1450151020E186EC5AF0F3CF14F08C
:10D51000F4CF15F01450151015E000017251A1EC74
:10D520007DF0F35000019F13F450A013879187837F
:10D5300087858797280E916F926B0401010E5B6FB0
:10D5400031D801D006D801D02DD80001615100D0CA
:10D55000120000016151FD0A22E0EF0A1EE00C0AF0
:10D5600016E01E0A14E0030A06E07F0EE66EBAEC2F
:10D570006FF0E55216D0F1EC6EF0000187918783D1
:10D58000879587973A0E916F926B0CD80AD0040159
:10D59000010E5B6F0001616904D004D802D002D88B
:10D5A00000D01200D9CFE6FFE1CFD9FF0A0EE12665
:10D5B00000016151FE0A01E194D1030A01E125D184
:10D5C000D20A01E11AD1340A01E117D11B0A01E1A3
:10D5D000F4D01E0A01E1E0D0040A01E1C2D0190A28
:10D5E00001E193D0260A4EE0370A11E0380A09E03B
:10D5F000020A01E076D1D0D9000902E10001616997
:10D6000075D1B8DA000902E1000161696FD1A205A4
:10D6100002E161696BD177C0A5F078C0A4F0A4C025
:10D6200014F0A5C015F0166A176A14C0E6FF15C0FD
:10D63000E6FF16C0E6FF17C0E6FFF5DBE552E55250
:10D64000E552E552000901E051D1240EE66EE66A8A
:10D6500057D9E552E552240EE66EE66AE20EE66E12
:10D66000FA0EE66E000EE66E000EE66E060EE66E32
:10D67000D4EC7CF0146E070EE15E14500001FD0E38
:10D68000616F34D1BFEC50F0060E06C0DBFF070E11
:10D6900007C0DBFF080E08C0DBFF090E09C0DBFF77
:10D6A000B9EC50F0F3CF14F0F4CF15F0020E14C023
:10D6B000DBFF030E15C0DBFF040EDB6A050EDB6A21
:10D6C000090EDBCF00F6080EDBCF01F6070EDBCF2D
:10D6D00002F6060EDBCF03F6050EDBCF04F6040ED2
:10D6E000DBCF05F6030EDBCF06F6020EDBCF07F627
:10D6F000080E0001A46FA56BE66EE66A01D9E5523B
:10D70000E5520001FD0E616FF1D0A20502E16169F1
:10D71000EDD0120EA46FA56BE66EE66AF1D8E55265
:10D72000E552DF6ADF50146E156A120E145C000EAB
:10D73000155813E2DF50EA6A850FE96E000EEA22FF
:10D74000EF50E66EDF50EA6A000FE96E060EEA223D
:10D75000E552E750EF6EDF2AE5D70001FD0E616F5D
:10D76000C5D00601030E006F016B76EC59F000097D
:10D7700002E0800E01D0000E0601026F036B040E62
:10D780000001A46FA56BE66EE66ABAD8E552E552D1
:10D790000001FD0E616FAAD08781879387858797E7
:10D7A000200E916F926B0401010E5B6F576B586BEB
:10D7B000596B5A6B0001616999D0E66AE66AE66ABC
:10D7C000E66A31DBE552E552E552E552000901E037
:10D7D0008DD0000187510F0B060806E104015B059F
:10D7E00003E10001616908D0FCDA0401576B586B52
:10D7F000596B5A6B0001616979D00401576B586B02
:10D80000596B5A6B0001616971D09B519C1102E107
:10D81000000E08D09BC0E9FF9CC0EAFFEF50800BD0
:10D8200001E0010E00095CE1400E6D5D000E6E59D5
:10D83000000E6F59000E705909E3DE52400EDD6E86
:10D840006D5F000E6E5B6F5B705B07D0010E6DC08D
:10D85000DBFF6D6B6E6B6F6B706B010EDB50146ECC
:10D86000156A1450A45D1550A55909E3010EDB504B
:10D87000146E156A1450A45F1550A55B15D0DF6AAD
:10D88000010EDB50DF5C10E2A451A51104E0A407F7
:10D89000000EA55B07D0DF50EA6A000FE96E060EA6
:10D8A000EA22EF6ADF2AECD7010EDBCFE6FF000E9B
:10D8B000E66E060EE66E010EE66EE66E3DEC60F07C
:10D8C000146E050EE15E1450F3CF9BF0F4CF9CF084
:10D8D00000016D516E116F11701102E1616906D086
:10D8E00005D07F0EE66E46DBE55200D00A0EE15C05
:10D8F00002E2E16AE552E16EE552E7CFD9FF12009C
:10D90000D9CFE6FFE1CFD9FFFD0EDBCF14F0FE0E3D
:10D91000DBCF15F0166A176A145000016D5D1550C3
:10D920006E5916506F59175070590AE20401576B1F
:10D93000586B596B5A6B6DC0A4F06EC0A5F028D01F
:10D94000FD0EDBCF14F0FE0EDBCF15F0A451145CFE
:10D95000A551155806E2FD0EDBCFA4F0FE0EDBCF7D
:10D96000A5F0A4C014F0A5C015F0166A176A6D0ED4
:10D97000E96E000EEA6E1450EE5C0401576F15500C
:10D98000EE58586F1650EE58596F1750EE585A6FA0
:10D99000E552E7CFD9FF120000016251040A01E10C
:10D9A000A0D0070A01E190D0010A3CE0030A30E070
:10D9B000010A01E0CFD076C0A9F077C0A8F078C006
:10D9C000A7F079C0A6F07BC0A5F07CC0A4F0A4C0ED
:10D9D00014F0A5C015F0166A176A090ED89014360F
:10D9E000153616361736E806F9E114C0E6FF15C0FD
:10D9F000E6FF16C0E6FF17C0E6FF15DAE552E5526E
:10DA0000E552E552000901E0B1D00001010E626F5C
:10DA1000A451A51102E1626BA9D0A407000EA55B79
:10DA2000020E626F9B519C1102E1000E08D09BC058
:10DA3000E9FF9CC0EAFFEF50800B01E0010E0009F6
:10DA400001E094D0000EE66E060EE66EA6C0E6FF7C
:10DA5000A7C0E6FFA8C0E6FFA9C0E6FF51EC54F05E
:10DA6000146E060EE15E145001081BE0640E000106
:10DA7000645D03E2642B7AD014D00401020E5B6F64
:10DA800000018781878387958797916B926B010E41
:10DA9000E66EE66EC0EC60F0E552E5520001626BA6
:10DAA00065D00001A62B000EA723A823A9230401FB
:10DAB000576B020E586F596B5A6B0001000E976F2F
:10DAC000060E986F030E626F0401575158115911D9
:10DAD0005A1104E10001010E626F48D00001040EEA
:10DAE000626F9B519C1102E1000E08D09BC0E9FFC0
:10DAF0009CC0EAFFEF50800B01E0010E000901E03D
:10DB000035D0400EE66E97C0E6FF98C0E6FF010EE6
:10DB1000E66EE66E3DEC60F0146E050EE15E1450AC
:10DB2000F3CF9BF0F4CF9CF00001030E626F400E28
:10DB30006D5F000E6E5B6F5B705B400E0401575FA4
:10DB4000000E585B595B5A5B400E00019727000E90
:10DB500098230CD00401020E5B6F010EE66EE66E98
:10DB6000C0EC60F0E552E5520001626B00016251C9
:10DB700000D0120000016351020A01E1E5D0060A5B
:10DB800001E1A5D0070A5DE0020A4AE0010A01E0CE
:10DB900018D176C0A9F077C0A8F078C0A7F079C0F6
:10DBA000A6F07BC0A5F07CC0A4F0A4C014F0A5C072
:10DBB00015F0166A176A090ED890143615361636FF
:10DBC0001736E806F9E114C0E6FF15C0E6FF16C0F7
:10DBD000E6FF17C0E6FF27D9E552E552E552E552C8
:10DBE000000901E0FAD076EC59F0000916E00401D2
:10DBF000010E5B6F00018781878387858797270EDA
:10DC0000916F926BE66A010EE66EC0EC60F0E55231
:10DC1000E5520001636B6351E3D00001010E606FB8
:10DC2000A451A51102E1636BD8D0030E636F000EFF
:10DC3000976F060E986F0401576B020E586F596B61
:10DC40005A6BD880000E04015755000E5855000E2F
:10DC50005955000E5A5528E2000199519A1102E1D6
:10DC6000000E08D099C0E9FF9AC0EAFFEF50800B80
:10DC700001E0010E000901E0B0D0400EE66E97C051
:10DC8000E6FF98C0E6FFE66A010EE66E3DEC60F046
:10DC9000146E050EE15E1450F3CF99F0F4CF9AF0B4
:10DCA0000001040E636F13D076EC59F000090BE00D
:10DCB0000401010E5B6F0001879187838795879729
:10DCC000270E916F926B0001020E636F86D09951FF
:10DCD0009A1102E1000E08D099C0E9FF9AC0EAFF4C
:10DCE000EF50800B01E0010E000901E076D099C0F1
:10DCF000E9FF9AC0EAFFEE52EFCF14F0156A166AF8
:10DD0000176A14506D5F15506E5B16506F5B17509D
:10DD1000705B99C0E9FF9AC0EAFFEE52EFCF14F0B2
:10DD2000156A166A176A14500401575F1550585B3C
:10DD30001650595B17505A5B400E00019727000E92
:10DD40009823030E636F49D004015B512FE100015A
:10DD5000A651A711A811A91102E1010E01D0000ED0
:10DD6000E66E000EE66E060EE66EA6C0E6FFA7C0E3
:10DD7000E6FFA8C0E6FFA9C0E6FF25EC59F0146E47
:10DD8000070EE15E1450010811E0640E0001645DAD
:10DD900003E2642B22D00AD00401010E5B6F000164
:10DDA0008781878387958797916B926B0001A62B5C
:10DDB000000EA723A823A923A407A55B010E636F68
:10DDC0000CD00401020E5B6FE66A010EE66EC0EC39
:10DDD00060F0E552E5520001636B0001635100D031
:10DDE0001200000185918593859585978589858B9E
:10DDF000858D859F866B8791879387958797879B6E
:10DE0000879D879F886B896B8A6B8B6B0A0E8C6FE3
:10DE10008D6B8E6B8F6B906B916B926B936B946B26
:10DE2000956B966B1200D9CFE6FFE1CFD9FF030EB9
:10DE3000E126FB0EDBCF14F0FC0EDBCF15F0FD0E60
:10DE4000DBCF16F0FE0EDBCF17F0145015101610B6
:10DE5000171006E1010EF36E020EF3CFDBFF02D0C6
:10DE6000020EDB6A0001A20505E1020EDB0402E1FD
:10DE7000000E74D0D950FB0FE96EFF0EDA20EA6E67
:10DE80006D51EE1809E16E51EE1806E16F51EE1872
:10DE900003E17051EE1800E10DE1600506E12A0E84
:10DEA000615D02E0000E5AD005D02A0E615D02E1EC
:10DEB000000E54D0D950FB0FE96EFF0EDA20EA6E47
:10DEC0006D51EE5C6E51EE586F51EE587051EE5838
:10DED00004E2DE52010EDD6E02D0010EDB6A020E9C
:10DEE000605D1DE12A0E615D06E0020EDB5003E17C
:10DEF000050EDF6E13D0A20503E1010EDF6E0ED01A
:10DF0000020EDB0403E1040EDF6E08D0010EDB0419
:10DF100003E1040EDF6E02D0050EDF6E19D02A0E6B
:10DF2000615D03E1030EDF6E13D0A20503E1010E74
:10DF3000DF6E0ED0020EDB0403E1020EDF6E08D0AE
:10DF4000010EDB0403E1020EDF6E02D0030EDF6E72
:10DF5000DFCFE6FF0FD8E552DF5000D0146E030E7E
:10DF6000E15C02E2E16AE552E16E1450E552E7CF6E
:10DF7000D9FF1200D9CFE6FFE1CFD9FFE652000169
:10DF80009B519C1102E1000E08D09BC0E9FF9CC090
:10DF9000EAFFEF50800B01E0010E00090FE19951FB
:10DFA0009A1102E1000E08D099C0E9FF9AC0EAFF79
:10DFB000EF50800B01E0010E000901E06DD060C060
:10DFC000DFFF6169626B636B6DC057F46EC058F41C
:10DFD0006FC059F470C05AF40401010E5B6F000168
:10DFE000030E606FFE0EDB507F0A35E07A0A28E0F0
:10DFF000010A1EE0070A11E0010A07E0030A01E036
:10E000004BD00401020E5B6F47D0010EE66EE66E48
:10E01000C0EC60F0E552E5523FD00401020E5B6FA8
:10E02000010EE66EE66EC0EC60F0E552E55234D0CB
:10E03000E66A010EE66EC0EC60F0E552E5522CD0C7
:10E040000401020E5B6FE66A010EE66EC0EC60F042
:10E05000E552E55221D0C5DE00018781879387858F
:10E060008797200E916F926B020EDF5C0DE16D5170
:10E070006E116F11701108E0E66A010EE66EC0ECD9
:10E0800060F0E552E55207D0010EE66EE66EC0EC98
:10E0900060F0E552E55200D0E552E552E7CFD9FFF6
:02E0A00012006C
:0EE0A200D9CFE6FFE1CFD9FF020EE126FD0E39
:10E0B000DBCF14F0DB06FE0EDBCF15F001E2DB0652
:10E0C0001450151011E0DE6ADD6ADECF14F0DDCFEA
:10E0D00015F0E30E145C0D0E155805E2DF2A010E53
:10E0E00001E3DB2AF2D7E3D7020EE15C02E2E16A48
:10E0F000E552E16EE552E7CFD9FF1200D9CFE6FF36
:10E10000E1CFD9FF040EE1268D9296928D909690E4
:10E110008D8496948A9A939A8A8893988A98DE6ACC
:10E12000DE6ADE6ADD6ADD52DD52D9CFE9FFDACF81
:10E13000EAFF640EEE5C000EEE58000EEE58000E84
:10E14000EE580AE2D9CFE9FFDACFEAFFEE2A000E55
:10E15000EE22EE22EE22E9D78A88DE6ADE6ADE6AE5
:10E16000DD6ADD52DD52D9CFE9FFDACFEAFF640E76
:10E17000EE5C000EEE58000EEE58000EEE580AE26D
:10E18000D9CFE9FFDACFEAFFEE2A000EEE22EE2227
:10E19000EE22E9D7AE0EE66E73D8E552DB0EE66EE0
:10E1A0006FD8E552230EE66E6BD8E552D90EE66EB7
:10E1B00067D8E552220EE66E63D8E552A10EE66EF0
:10E1C0005FD8E552C80EE66E5BD8E552DA0EE66E11
:10E1D00057D8E552120EE66E53D8E552A80EE66EF9
:10E1E0004FD8E5523F0EE66E4BD8E552D50EE66E9F
:10E1F00047D8E552A00EE66E43D8E552810EE66E92
:10E200003FD8E552600EE66E3BD8E552D30EE66E7F
:10E2100037D8E552E66A34D8E552A60EE66E30D815
:10E22000E552AD0EE66E2CD8E5528B0EE66E28D880
:10E23000E552E66A75D8E552AF0EE66E21D8E55292
:10E24000960EE66EE66A2DDFE552E552A40EE66E06
:10E2500017D8E552400EE66E13D8E552020EE66E70
:10E260000FD8E552100EE66E0BD8E552040EE15CB5
:10E2700002E2E16AE552E16EE552E7CFD9FF120012
:10E28000D9CFE6FFE1CFD9FF956AFE0EDB508C6E49
:10E290008D808D828A9A8D9400008D9200008D82EF
:10E2A00000008D8400009568E552E7CFD9FF120089
:10E2B000D9CFE6FFE1CFD9FF956AFE0EDB508C6E19
:10E2C0008D808D828A9A8D9400008D9200008D82BF
:10E2D0000000FD0EDB508C6E00008D9200008D82E0
:10E2E00000008D8400009568E552E7CFD9FF120049
:10E2F000D9CFE6FFE1CFD9FF956AFE0EDB508C6ED9
:10E300008D808D828A8A8D9400008D9200008D828E
:10E3100000008D8400009568E552E7CFD9FF120018
:10E32000D9CFE6FFE1CFD9FF020EE126B00EDF6EB6
:10E33000B80EDF5C22E2DFCFE6FFA2DFE552E66A3D
:10E340009FDFE552100EE66E9BDFE552010EDB6AA1
:10E35000DB50146E156AD890155004E6840E145CD8
:10E36000000E155808E2FE0EDBCFE6FFC1DFE552D6
:10E37000010EDB2AEDD7DF2ADBD7020EE15C03E2D8
:10E3800000D0E16AE552E16EE552E7CFD9FF120015
:10E39000D9CFE6FFE1CFD9FF200E146EFE0EDBCF02
:10E3A000E7FF1450E75EFE0EE7CFDBFF020E146EB0
:10E3B000FC0EDBCFE7FF1450E726FC0EE7CFDBFFB8
:10E3C000FD0EDBCFE6FF5CDFE552FC0EDB500F0BF2
:10E3D000E66E56DFE552FC0EDB380F0B0F0B100F0D
:10E3E000E66E4EDFE552FB0EDB5001E14BD1C20E73
:10E3F000146EF20E156E000E166EFE0EDBCF17F0C9
:10E40000186A196A17AE02D018681968060E0C6EE1
:10E410000D6A0E6A17C007F018C008F019C009F09D
:10E420008BEC7CF004C017F005C018F006C019F0A2
:10E4300014501724F36E15501820F46E165019203E
:10E44000F86EF4CFF7FFF3CFF6FF0800F51CE66E89
:10E450004FDFE552C20E146EF20E156E000E166EF0
:10E46000FE0EDBCF17F0186A196A17AE02D01868D3
:10E470001968060E0C6E0D6A0E6A17C007F018C0F8
:10E4800008F019C009F08BEC7CF004C017F005C04F
:10E4900018F006C019F014501724F36E1550182008
:10E4A000F46E16501920F86EF4CFF7FFF3CFF6FF95
:10E4B000F62A000EF722F8220800F51CE66E18DF97
:10E4C000E552C20E146EF20E156E000E166EFE0EA2
:10E4D000DBCF17F0186A196A17AE02D018681968EE
:10E4E000060E0C6E0D6A0E6A17C007F018C008F011
:10E4F00019C009F08BEC7CF004C017F005C018F0CF
:10E5000006C019F014501724F36E15501820F46E3D
:10E5100016501920F86EF4CFF7FFF3CFF6FF020E76
:10E52000F626000EF722F8220800F51CE66EE0DE63
:10E53000E552C20E146EF20E156E000E166EFE0E31
:10E54000DBCF17F0186A196A17AE02D0186819687D
:10E55000060E0C6E0D6A0E6A17C007F018C008F0A0
:10E5600019C009F08BEC7CF004C017F005C018F05E
:10E5700006C019F014501724F36E15501820F46ECD
:10E5800016501920F86EF4CFF7FFF3CFF6FF030E05
:10E59000F626000EF722F8220800F51CE66EA8DE2B
:10E5A000E552C20E146EF20E156E000E166EFE0EC1
:10E5B000DBCF17F0186A196A17AE02D0186819680D
:10E5C000060E0C6E0D6A0E6A17C007F018C008F030
:10E5D00019C009F08BEC7CF004C017F005C018F0EE
:10E5E00006C019F014501724F36E15501820F46E5D
:10E5F00016501920F86EF4CFF7FFF3CFF6FF040E94
:10E60000F626000EF722F8220800F51CE66E70DEF2
:10E61000E552C20E146EF20E156E000E166EFE0E50
:10E62000DBCF17F0186A196A17AE02D0186819689C
:10E63000060E0C6E0D6A0E6A17C007F018C008F0BF
:10E6400019C009F08BEC7CF004C017F005C018F07D
:10E6500006C019F014501724F36E15501820F46EEC
:10E6600016501920F86EF4CFF7FFF3CFF6FF050E22
:10E67000F626000EF722F8220800F51CE66E38DEBA
:10E68000E5524AD1C20E146EF20E156E000E166ED1
:10E69000FE0EDBCF17F0186A196A17AE02D01868A1
:10E6A0001968060E0C6E0D6A0E6A17C007F018C0C6
:10E6B00008F019C009F08BEC7CF004C017F005C01D
:10E6C00018F006C019F014501724F36E15501820D6
:10E6D000F46E16501920F86EF4CFF7FFF3CFF6FF63
:10E6E0000800F550E66E04DEE552C20E146EF20E1E
:10E6F000156E000E166EFE0EDBCF17F0186A196A43
:10E7000017AE02D018681968060E0C6E0D6A0E6AF4
:10E7100017C007F018C008F019C009F08BEC7CF0A6
:10E7200004C017F005C018F006C019F014501724E3
:10E73000F36E15501820F46E16501920F86EF4CFB1
:10E74000F7FFF3CFF6FFF62A000EF722F8220800B3
:10E75000F550E66ECDDDE552C20E146EF20E156E6A
:10E76000000E166EFE0EDBCF17F0186A196A17AE90
:10E7700002D018681968060E0C6E0D6A0E6A17C072
:10E7800007F018C008F019C009F08BEC7CF004C049
:10E7900017F005C018F006C019F014501724F36ED6
:10E7A00015501820F46E16501920F86EF4CFF7FFAC
:10E7B000F3CFF6FF020EF626000EF722F82208002D
:10E7C000F550E66E95DDE552C20E146EF20E156E32
:10E7D000000E166EFE0EDBCF17F0186A196A17AE20
:10E7E00002D018681968060E0C6E0D6A0E6A17C002
:10E7F00007F018C008F019C009F08BEC7CF004C0D9
:10E8000017F005C018F006C019F014501724F36E65
:10E8100015501820F46E16501920F86EF4CFF7FF3B
:10E82000F3CFF6FF030EF626000EF722F8220800BB
:10E83000F550E66E5DDDE552C20E146EF20E156EF9
:10E84000000E166EFE0EDBCF17F0186A196A17AEAF
:10E8500002D018681968060E0C6E0D6A0E6A17C091
:10E8600007F018C008F019C009F08BEC7CF004C068
:10E8700017F005C018F006C019F014501724F36EF5
:10E8800015501820F46E16501920F86EF4CFF7FFCB
:10E89000F3CFF6FF040EF626000EF722F82208004A
:10E8A000F550E66E25DDE552C20E146EF20E156EC1
:10E8B000000E166EFE0EDBCF17F0186A196A17AE3F
:10E8C00002D018681968060E0C6E0D6A0E6A17C021
:10E8D00007F018C008F019C009F08BEC7CF004C0F8
:10E8E00017F005C018F006C019F014501724F36E85
:10E8F00015501820F46E16501920F86EF4CFF7FF5B
:10E90000F3CFF6FF050EF626000EF722F8220800D8
:10E91000F550E66EEDDCE55200D0E552E7CFD9FFC9
:10E920001200D9CFE6FFE1CFD9FFE652FB0EDB5054
:10E93000070801E24BD0FA0EDB50DF6EB00E146E0A
:10E94000FB0EDBCFE7FF1450E726FB0EE7CFDBFF24
:10E95000FC0EDBCFF6FFFD0EDBCFF7FFFE0EDBCFAD
:10E96000F8FF0800F55032E0DF50146E156AD890B9
:10E97000155004E6840E145C000E155801E326D0F1
:10E98000F90EDBCFE6FFDFCFE6FFFB0EDBCFE6FFC6
:10E99000FC0EDBCFF6FFFD0EDBCFF7FFFE0EDBCF6D
:10E9A000F8FF0800F550E66EF3DCE552E552E5525B
:10E9B000E552D950FC0FE96EFF0EDA20EA6EEE2A1E
:10E9C000000EEE22EE22060EDF26C2D7E552E552F9
:10E9D000E7CFD9FF1200D9CFE6FFE1CFD9FFE6524A
:10E9E000FC0EDB50070801E23ED0FB0EDB50DF6E71
:10E9F000B00E146EFC0EDBCFE7FF1450E726FC0EC2
:10EA0000E7CFDBFFFD0EDBCFE9FFFE0EDBCFEAFF3A
:10EA1000EF5029E0DF50146E156AD890155004E6C7
:10EA2000840E145C000E155801E31DD0FA0EDBCFE6
:10EA3000E6FFDFCFE6FFFC0EDBCFE6FFFD0EDBCF10
:10EA4000E9FFFE0EDBCFEAFFEF50E66EA1DCE552F8
:10EA5000E552E552E552FD0EDB2AFE0E01E3DB2A0C
:10EA6000060EDF26CFD7E552E552E7CFD9FF1200D9
:10EA7000D9CFE6FFE1CFD9FF050EE126030EDB6A11
:10EA8000040EDB6AFB0EDB50146E156A153404E2CB
:10EA900014508408000E155405E2840EF36EFB0E2C
:10EAA000F3CFDBFFFA0EDB50400805E2400EF36EB9
:10EAB000FA0EF3CFDBFF020E146EF90EDBCFE7FF89
:10EAC0001450E726F90EE7CFDBFFF80EDB50B00F4E
:10EAD000DF6EFA0EDB50B00FDF5C40E2DFCFE6FF07
:10EAE00040EC71F0E552F90EDB500F0BE66E40EC96
:10EAF00071F0E552F90EDB380F0B0F0B1009E66EC3
:10EB000040EC71F0E552010EDB6AFB0EDB50F36E58
:10EB1000010EDBCFF4FFF350F45C1EE2030EDB2AA0
:10EB2000040E01E3DB2AD950FC0FE96EFF0EDA2058
:10EB3000EA6EEFCFF6FFEE2AEFCFF7FF000EEE22E0
:10EB4000EFCFF8FFEE220800F550E66E78EC71F09A
:10EB5000E552010EDB2AD9D7DF2ABBD7050EE15CCF
:10EB600003E200D0E16AE552E16EE552E7CFD9FF5A
:02EB7000120091
:0EEB7200DACFE4FFE2CFDAFFE652E552E5CF5C
:10EB8000DAFF1100D8CFE4FFE0CFE4FFE46EDACF84
:10EB9000E4FFE2CFDAFFE652E552E5CFDAFFE550D7
:10EBA000E5CFE0FFE5CFD8FF10007BDA31EC5FF076
:10EBB000B5DAFCD7120004019651080A01E1C3D16D
:10EBC0000F0A01E1BAD1010A01E145D1030A01E1CD
:10EBD0003CD1010A01E1C6D0070A01E1BDD0010A1A
:10EBE00044E0030A3CE0010A01E01FD27EEC70F031
:10EBF000E66A90EC71F0E552E66AE66AE66AB30E00
:10EC0000E66EF60EE66E000EE66E91EC74F0146E93
:10EC1000060EE15E1450E66AE66A010EE66E9D0E8F
:10EC2000E66EF60EE66E000EE66E91EC74F0146E73
:10EC3000060EE15E1450E66AE66A060EE66E870E80
:10EC4000E66EF60EE66E000EE66E91EC74F0146E53
:10EC5000060EE15E14500401010E966FE6D1E6D96E
:10EC6000010802E10401962BE0D1E66A90EC71F014
:10EC7000E552E66AE66AE66A710EE66EF60EE66E42
:10EC8000000EE66E91EC74F0146E060EE15E145008
:10EC9000E66AE66A010EE66E5B0EE66EF60EE66E5C
:10ECA000000EE66E91EC74F0146E060EE15E1450E8
:10ECB000E66AE66A020EE66E450EE66EF60EE66E51
:10ECC000000EE66E91EC74F0146E060EE15E1450C8
:10ECD000E66AE66A030EE66E2F0EE66EF60EE66E46
:10ECE000000EE66E91EC74F0146E060EE15E1450A8
:10ECF000E66AE66A040EE66E190EE66EF60EE66E3B
:10ED0000000EE66E91EC74F0146E060EE15E145087
:10ED1000E66AE66A050EE66E190EE66EF60EE66E19
:10ED2000000EE66E91EC74F0146E060EE15E145067
:10ED3000E66AE66A060EE66E870EE66EF60EE66E8A
:10ED4000000EE66E91EC74F0146E060EE15E145047
:10ED50000401030E966F69D169D9010802E104012B
:10ED6000962B63D1E66AE66AE66A030EE66EF60E55
:10ED7000E66E000EE66E91EC74F0146E060EE15E27
:10ED80001450E66AE66A010EE66EED0EE66EF50ECA
:10ED9000E66E000EE66E91EC74F0146E060EE15E07
:10EDA0001450E66AE66A020EE66ED70EE66EF50EBF
:10EDB000E66E000EE66E91EC74F0146E060EE15EE7
:10EDC0001450E66AE66A030EE66EC10EE66EF50EB4
:10EDD000E66E000EE66E91EC74F0146E060EE15EC7
:10EDE0001450E66AE66A040EE66E190EE66EF60E3A
:10EDF000E66E000EE66E91EC74F0146E060EE15EA7
:10EE00001450E66AE66A050EE66E190EE66EF60E18
:10EE1000E66E000EE66E91EC74F0146E060EE15E86
:10EE20001450E66AE66A060EE66E870EE66EF60E89
:10EE3000E66E000EE66E91EC74F0146E060EE15E66
:10EE400014500401050E966FF0D0F0D8010802E1CD
:10EE50000401962BEAD0E66AE66AE66AAB0EE66E35
:10EE6000F50EE66E000EE66E91EC74F0146E060E72
:10EE7000E15E1450E66AE66A010EE66E950EE66EF5
:10EE8000F50EE66E000EE66E91EC74F0146E060E52
:10EE9000E15E1450E66AE66A020EE66E7F0EE66EEA
:10EEA000F50EE66E000EE66E91EC74F0146E060E32
:10EEB000E15E1450E66AE66A030EE66E690EE66EDF
:10EEC000F50EE66E000EE66E91EC74F0146E060E12
:10EED000E15E1450E66AE66A040EE66E530EE66ED4
:10EEE000F50EE66E000EE66E91EC74F0146E060EF2
:10EEF000E15E1450E66AE66A050EE66E190EE66EED
:10EF0000F60EE66E000EE66E91EC74F0146E060ED0
:10EF1000E15E1450E66AE66A060EE66E870EE66E5D
:10EF2000F60EE66E000EE66E91EC74F0146E060EB0
:10EF3000E15E14500401962B78D078D8010802E1E4
:10EF40000401962B72D0E66AE66AE66A3D0EE66E2A
:10EF5000F50EE66E000EE66E91EC74F0146E060E81
:10EF6000E15E1450E66AE66A010EE66E270EE66E72
:10EF7000F50EE66E000EE66E91EC74F0146E060E61
:10EF8000E15E1450E66AE66A020EE66E110EE66E67
:10EF9000F50EE66E000EE66E91EC74F0146E060E41
:10EFA000E15E1450E66AE66A030EE66E190EE66E3E
:10EFB000F60EE66E000EE66E91EC74F0146E060E20
:10EFC000E15E1450E66AE66A040EE66E190EE66E1D
:10EFD000F60EE66E000EE66E91EC74F0146E060E00
:10EFE000E15E1450E66AE66A050EE66E190EE66EFC
:10EFF000F60EE66E000EE66E91EC74F0146E060EE0
:10F00000E15E1450E66AE66A060EE66E190EE66EDA
:10F01000F60EE66E000EE66E91EC74F0146E060EBF
:10F02000E15E14500401966900D0120081B01FD037
:10F03000040198C414F099C415F09AC416F09BC446
:10F0400017F0982B000E99239A239B23D880F40E57
:10F050001454010E1554000E1654000E175406E2F7
:10F06000986B996B9A6B9B6B010E976F11D0040193
:10F0700097050EE1985199119A119B1104E1976B34
:10F08000010E08D005D09807000E995B9A5B9B5B38
:10F09000000E00D01200CADF010801E1FF0000D01D
:10F0A0001200D9CFE6FFE1CFD9FF020EE1260F0E05
:10F0B000C112580EDE6E020EDD6E9B8CDFCF14F097
:10F0C000DF06010EDBCF15F001E2DB061450151050
:10F0D00001E0F4D70F0148693F0E496F550EA76E46
:10F0E000AA0EA76E0E01FF91090ECC6F0A0ED36F08
:10F0F000170EFB6F550EA76EAA0EA76EFF81F19E2D
:10F10000C9EC50F0A1EC5EF0020EE15C02E2E16AB3
:10F11000E552E16EE552E7CFD9FF1200FF0E040180
:10F12000965D01E1B8DF200E0401E76E5C19E8AEE0
:10F1300002D0E73402D0E7505C5D03E36550020B78
:10F1400001E008D092EC7BF0000901E103D033DD4F
:10F150002AEC69F012008CEF7BF092EF7BF012004A
:10F160001200CFEF68F012001E0EE66E010EE66E82
:10F1700006EC60F0E552E5527FEF68F004017D0592
:10F180001EE104017E051BE1E8DF659204017E6B50
:10F190000001100EFB6F0E0EFC6FFB07000EFC5BF8
:10F1A000FB51FC11FAE16584080EFB6F070EFC6F42
:10F1B000FB07000EFC5BFB51FC11FAE165941200A9
:10F1C000D9CFE6FFE1CFD9FFFD0EDBCF08F0FE0E71
:10F1D000DBCF09F0050E081801E1095039E0E868B5
:10F1E000081802E17F0E091831E0030E081801E14A
:10F1F00009502AE0020E081801E1095023E0010E2F
:10F20000081801E109501CE0740E081801E10950CA
:10F2100015E0750E081801E109500EE0730E08188C
:10F2200001E1095007E0720E081801E1095001E000
:10F2300042D041D094DF3FD08EDF3DD08EDF3BD037
:10F2400093DF39D090DF37D08CDF35D089DF33D0F2
:10F250000001A3510FE1010EE66EE66EC0EC60F016
:10F26000E552E552E66A010EE66EC0EC60F0E5524A
:10F27000E55220D0FB0EDBCF14F0FC0EDBCF15F0F7
:10F2800004016551141802E16651151813E1400E8E
:10F29000E66E300EE66E040EE66EE66A010EE66E6F
:10F2A0003DEC60F0146E050EE15E1450F3CF99F062
:10F2B000F4CF9AF000D0010E00D0E552E7CFD9FF8D
:02F2C00012003A
:0EF2C20000000000000000004F0000000007E8
:10F2D00000070000147F147F1400242A7F2A1200E4
:10F2E00023130864620036495522500000050300CC
:10F2F0000000001C224100000041221C00001408F4
:10F300003E08140008083E080800005030000000C5
:10F3100008080808080000606000000020100804C9
:10F3200002003E5149453E0000427F4000004261DC
:10F33000514946002141454B31001814127F1000FD
:10F340002745454539003C4A4949300001710905C6
:10F350000300364949493600064949291E0000364E
:10F36000360000000056360000000814224100005C
:10F37000141414141400004122140800020151094D
:10F380000600324979413E007E1111117E007F490D
:10F39000494936003E41414122007F4141221C0043
:10F3A0007F49494941007F09090901003E41494916
:10F3B0007A007F0808087F0000417F41000020405C
:10F3C000413F01007F08142241007F40404040003F
:10F3D0007F020C027F007F0408107F003E41414104
:10F3E0003E007F09090906003E4151215E007F0968
:10F3F0001929460046494949310001017F010100B0
:10F400003F4040403F001F2040201F003F40384009
:10F410003F00631408146300070870080700615177
:10F4200049454300007F41410000020408102000CC
:10F430000041417F000004020102040040404040BE
:10F4400040000001020400002054545478007F481A
:10F4500044443800384444442000384444487F0041
:10F46000385454541800087E090102000C525252BC
:10F470003E007F080404780000447D4000002040E6
:10F48000443D00007F102844000000417F40000000
:10F490007C04180478007C08040478003844444450
:10F4A00038007C1414140800081414187C007C081C
:10F4B00004040800485454542000043F44402000F1
:10F4C0003C4040207C001C2040201C003C40304040
:10F4D0003C004428102844000C5050503C00446428
:10F4E000544C440000083641000000007F0000003A
:10F4F0000041360800000201020402000000000082
:10F500000000007F45454547444444447C008081D9
:01F5100000FA
:0FF51100202064656D6F206D656E752E202020A3
:10F52000202020202020002020746F207265747518
:10F53000726E20746F2074686520202000486F6C04
:10F540006420746865206D656E7520627574746FD3
:10F550006E2000202074686520636F6D707574657F
:10F56000722E202020202020002020616E79206F24
:10F5700074686572206472697665206F6E20002061
:10F58000206D616E6970756C61746564206C696B67
:10F590006520202000202064656C657465642C2043
:10F5A000616E64202020202020200046696C657355
:10F5B0002063616E20626520726561642C202020CA
:10F5C000002020636F6D70757465722E20202020DE
:10F5D000202020202020002020626F61726420748F
:10F5E0006F2074686520686F73742020002020618C
:10F5F0006E6420636F6E6E6563742074686520208E
:10F60000202000496E736572742061204D69637219
:10F610006F5344206361726400202020202020204A
:10F6200020202020202020202020202020200020FA
:10F63000204465766963652020202020202020203A
:10F64000202020200020206120555342204D61734E
:10F65000732053746F7261676520002020626F61B0
:10F6600072642077696C6C20616374206C696B65CF
:10F6700000496E20746869732064656D6F2C207476
:10F68000686520202020005072657373204D656EE0
:10F690007520746F2070726F6365656400436172DA
:10F6A00064205265616465722044656D6F20763117
:10F6B0002E31002050494331384620537461727412
:09F6C0006572204B6974202000E2
:01F6C9000040
:06F6CA000001FEB123D097
:10F6D000FE838B809490550EA76EAA0EA76E0E0126
:10F6E000FF910E0ED16F550EA76EAA0EA76EFF8169
:10F6F0000F0EBA6ECF0EBA140009BA6E100EBB6EA2
:10F700000F01526B800ECB6E040ECA6EA4960A0EC9
:10F71000776E7F0E766E12000001FE91FE938B8055
:10F72000949012000001FEA10BD08B50010B06E15A
:10F730009450010B03E1010E46D002D0FE91C5DFCB
:10F740000001FEA3C2DFA4A63CD0A496BA50300BA1
:10F75000E842E842E842E84203081AE1500EBB5C86
:10F7600011E18B909490BA6ACA6A0E01D16B0F01B5
:10F77000526BCB68766A7768A4960001FE81FE938F
:10F78000010E21D0BB2ACF0EBA140009BA6E19D0CF
:10F79000BA0EE96E0F0EEA6EEF50300BE842E84207
:10F7A000E842E842E82AF36EF350030BF36EF46E7E
:10F7B000F346F346F346F346CF0EEF14F310EF6E25
:08F7C000F450000E00D012000D
:08F7C80012010002000000081C
:10F7D000D804090001000102000109022000010112
:10F7E00000C09609040000020806500007058102C7
:10F7F000400001070501024000010403090434032D
:10F800004D006900630072006F00630068006900CA
:10F810007000200054006500630068006E006F00F7
:10F820006C006F0067007900200049006E006300E3
:10F830002E003A034D006900630072006F00630000
:10F8400068006900700020004D00610073007300C3
:10F850002000530074006F007200610067006500B3
:10F86000200044007200690076006500DAF700FAB3
:08F87000F700FEF70032F8007A
:08F878001E0EF66EA00EF76EE5
:10F88000000EF86E04010900F550916F0900F55063
:10F89000926F03E1916701D03DD00900F5508C6F64
:10F8A0000900F5508D6F0900F5508E6F09000900B1
:10F8B000F550E96E0900F550EA6E090009000900EB
:10F8C000F5508F6F0900F550906F09000900F6CFD1
:10F8D00093F4F7CF94F4F8CF95F48CC4F6FF8DC46D
:10F8E000F7FF8EC4F8FF04018F5302E1905307E045
:10F8F0000900F550EE6E8F07F8E29007F9D793C430
:10F90000F6FF94C4F7FF95C4F8FF04019107000EB9
:06F91000925BBFD712005C
:0AF9160009C013F008C012F007C08A
:10F9200011F007500C02F4CF05F0F3CF04F00850AB
:10F930000D02F4CF07F0F3CF06F00C02F3500526CA
:10F94000F4500622E86A072211500D02F3500526F2
:10F95000F4500622E86A072209500C02F3500626EA
:10F96000F450072209500D02086AE86A0822F35091
:10F970000726F450082211500E02F3500626F450C8
:10F980000722096AE86A0822092212500E02F3507F
:10F990000726F4500822E86A092213500E02F35099
:08F9A0000826F4500922000CB6
:08F9A800FB0EE3CFF6FFFC0E9D
:10F9B000E3CFF7FFFD0EE3CFF8FFFE0EE3CFE9FF45
:10F9C000FF0EE3CFEAFFE9CFF3FFEACFF4FFF90E32
:10F9D000E35003E1FA0EE35009E0F90EE30602E218
:10F9E000FA0EE3060900F5CFEEFFF1D71200FE0E86
:10F9F000E3CFE9FFFF0EE3CFEAFFE9CFF3FFEACF62
:10FA0000F4FFFB0EE35003E1FC0EE35009E0FB0EB4
:10FA1000E30602E2FC0EE306FD0EE350EE6EF1D7C4
:02FA20001200D2
:0EFA220006500B02F3CF02F0F4CF03F00C02FB
:10FA3000F3500326000EF420046E06500D02F3501E
:10FA40000426000EF420056E06500E02F350052623
:10FA500007500B02F3500326F4500422000E052237
:10FA600007500C02F3500426F450052207500D02F3
