:0600000000008031082819
:0C0008008031893104290900803136283C
:100038008B013F00ED0121001708C13918389700DE
:1000480080316220803164008331D7238031883148
:10005800BD2080318331362380318031B320803117
:1000680080312728200038288C193D2880311C2011
:10007800803123001513093092001E3091001514A9
:1000880000000000230013086D3A031D5E281408C1
:10009800343A031D5E2809309200910115140000BE
:1000A80000002300130A3F300319140603195E28C1
:1000B8008931002980311C208031082809268031A7
:1000C8008E1121008E11A62B093023009200910178
:1000D8001513FC011514000000007C08203E860062
:1000E80003308700230013088100FC0A7C08203EA7
:1000F800860014088100FC0AC1278031031C6E2881
:100108006D302600DC003430DD0064000930230047
:1001180092001E30DE2780317222803115151513AA
:1001280015120930920091019516FC017C083E3A9F
:10013800031995127C08C72780319300FC0A7C08B4
:10014800203E860001089400B530FC0A72228031F6
:10015800C1278031031C9A28951615110800210023
:100168006D08063A031D08003D008E18080022009D
:10017800E908031D532A2000AC1B08004030F0009A
:10018800A030032380312200E901E90AFB017B0842
:10019800203E86000230870040308101FB0A7B0246
:1001A80003180800CB282000B01B080002302400E8
:1001B800A0003A30A1001230A201A20AA301A30AAA
:1001C800A701A601A5002D30A401AB01AA01A90031
:1001D800FE30A8000330AC000130B001AF000E3093
:1001E800AE01AD000430B100B201B301B401B500F5
:1001F8000130B901B8000630B701B601BA00FF30C6
:10020800BB01BC01BD01BE00A530D9004030F000E3
:1002180020307A232200E90108002200EA01EA0AD4
:100228002500A108031D0E292200EA010E2922003B
:100238000930E001E1006400220061082300920017
:10024800220060082300DE278031722280312030AE
:100258002200E0070318E10A1F306102FF3003198A
:100268006002031C1F29230091019201151715161E
:10027800B530722280310E2900302402031D4E2928
:1002880001302302031D4E2900302202031D4E298E
:1002980000302102031C672900302402031D5E2957
:1002A80001302302031D5E2900302202031D5E294E
:1002B8000E302102031C64292200EA08031D0E29BE
:1002C800372380310E292200620A0319630A031DAD
:1002D8007529250022082200E300250021082200B4
:1002E800E2009F2780316206031D7C29413F630697
:1002F800031D0E29FB01250025087B0203180E2982
:1003080021006708203E860003308700E030F500B2
:1003180098278031D32780312100E70A2200E20A9A
:100328000319E30A21006708403A031D9D298C221E
:100338008031FB0A7F298C228031FF302200E200C5
:10034800E3000E292000B01B080007302400A0009D
:100358009F278031A100413FA200423FA300433FB5
:10036800A400250025082400A5000130A03E860031
:100378000230403FF700413FF800423FF900433F59
:10038800FA00FA36F90CF80CF70C780823009200FA
:1003980077089100FB01250025087B0203180A292C
:1003A80000307A02031DE22901307902031DE22997
:1003B80000307802031DE2290E307702031CE82979
:1003C800230015179201EA292300151315140000BC
:1003D80000006030F50098278031860002308700E1
:1003E800230013088100FB0A250025087B02031857
:1003F8000A292300130A3F30031914066030F50058
:100408000319102A25002508F5027B087507F60050
:10041800860023001408162A9827803186000230A7
:100428008700FF3081002300910A0319920AFB0A12
:10043800CF29682080310E290C302400A00001301B
:10044800A100A2002030840089308500003FA3006D
:10045800013FA4001230A801A701A6003C30A50066
:100468006D30A9003430AA004030AB00FF30AC0139
:10047800AD01AE01AF00B000B100B200B300B400EE
:10048800B500B600B700B800B900BA00BB00BC00A0
:100498002000B01B08000A29752380310E29250089
:1004A8002008023A0319D728013A03191129073AF3
:1004B80003191B29013A03194029033A03199F29F3
:1004C800013A0319A6290F3A0319502A013A0319C8
:1004D8001D2A053A0319202A0E290800F0008B135B
:1004E800362380317008B53A03197F2A033021007A
:1004F800990063007D2A6400230015155530960085
:10050800AA30960095140000000023001511080079
:100518002100E60122006308F4006208F3002100CC
:100528006708F302031CF4030930F436F30C740271
:10053800003003197302031C0800203074020030D5
:100548000319730203180800740823009200730843
:10055800910011082200E8001F30E805E030230070
:100568009105FD01151315127D081F3A031DBE2ABA
:100578009512BF2A95162200E808031DDC2A2100DF
:1005880067080319D92A6608C72780312300930012
:100598002100E60AE7036608203E860001082300DA
:1005A80094002100E60AE703E02ACD278031E02AFB
:1005B800CD2780312200E803B53072228031910ABC
:1005C8000319920A2030FD0A7D02031CB62AFD0198
:1005D800210067087D02031808007D08203E860078
:1005E8000330870020307D07F10066087107F200AC
:1005F80084000330850000088100FD0AEC2AF2001F
:100608002100EB012000AC1B080070082D02031824
:100618000F2B2D08F0002100EB0170086B02031866
:10062800232B6B087207F1008600023087006B08E5
:10063800A03E8400850100088100EB0A112B4030A0
:100648002000AD00AC0500302C1F0130F100F10E88
:10065800F10DF10D2C087106BF397106AC00AC150F
:10066800AC17080008009F278031F100413FF200D5
:10067800F236F10C7108230091009201250025083B
:10068800FE3E2200E7002100E501250025082100A3
:10069800650203180800650822006706031D572B2A
:1006A80023009512592B23009516E0308E278031B0
:1006B800023087000108230093002100E030E50A9A
:1006C8008E27803101082300940015171512951202
:1006D800B53072228031910A0319920A2100E50A85
:1006E800492BC0230100000000000800F20041303F
:1006F8007002031C812B4030F000F3017008730274
:100708000318922B7308203E860001308700730877
:100718007207F100D3278031F30A822B700820007A
:10072800B1004030B0050030301F0130F100F10E4B
:10073800F10DF10D30087106BF397106B000B01522
:10074800B01708003D008E1DAB2BC023803122005E
:10075800EB016B2C22006B0BB32BC02380313D00C7
:100768008E011530910092018E1543242100ED0170
:10077800ED0A2200EB010800FF302300A800A900C1
:1007880001302300A8020030A93B280A0319290ACE
:100798000319D42B3D008E108E0169248031C42B9F
:1007A8002100ED0108006B2480312100ED080319B8
:1007B80008003D00101DE22B732480318E180800BC
:1007C800101CE82B432480313D00101EED2B8D2496
:1007D8008031033021006D02031C0800E9013D004F
:1007E800901D08000F080F087C39031D332C8F1843
:1007F800FF2B2030002C24302100E4003D00901114
:100808002100640886008701010C890C0F390D3A14
:10081800031D3C2CE3016308AC3E860001308700D1
:100828006408023E84008501003FF200013FF300A6
:100838007208840073088500000881006408023E7D
:10084800860001308701810741310318810A083089
:10085800E30A6302031C0F2CA32480313C2C0F08ED
:10086800043A031D3B2C9011B12580313C2C90118A
:1008780021000430E90A690203180800F32B033049
:100888002100ED003D00970190017B309200960118
:1008980086278031163098000E173D00901D582C81
:1008A800901169248031512C0E130E12043023004C
:1008B800A0000030562580312100E801E80A220016
:1008C800ED0121000030EE01F42D64000800220043
:1008D8006B0B6F2C08003D008E190800AE2B7C2492
:1008E80080313D008E101211101D08001011782C57
:1008F800D5302300AA000230AB0001302300AA0241
:100908000030AB3B2A0A03192B0A031908006400BC
:10091800812C12082200E60004303D0092001012DB
:100928008E1420001211210012150B1728260B1304
:1009380021001211220066083D00920408002000E0
:10094800A8012100EC012000A01FAD2CA00121006E
:10095800E8012000A41FB42CA4012100E801E80A42
:100968002200EC012100EA012300B401B5013D0099
:100978000E12C2248031B0258031F52C23002C0EB4
:10098800890C0339031D0800EA2C080021000430F3
:10099800EA01EA0AED000800A92ED72D2100EE3061
:1009A800EA01EA0A2200E4000030E500D92FF32E1C
:1009B8002F2FA62780312200E4000030E501DA2C31
:1009C800A627860087012E08810008002D088400CC
:1009D8000D3004020318080087310435E23E820016
:1009E80008002100EA08031D0E2D04302000A8008D
:1009F800A81704302300A0002100680B082D01303F
:100A080056252100E8010800003056252100E8019C
:100A1800E80A08002300AC1F332D2200EC01EC0A81
:100A2800230035083302031D1B2D34083202031836
:100A3800212D3308B5003208B400792580314830BB
:100A48002300A00001305625803100305625503053
:100A58002000AA00AB014830A800A81708000230FF
:100A68002200EC0004302300A00033083204031DE8
:100A78003F2D4830A0002100680B482D0130562535
:100A880080312100E8014E2D0030562580312100AB
:100A9800E801E80A230033083204031D0800200097
:100AA800A9012F2DF00008302300A1004830A20032
:100AB800A301F008031D652D4030A2002030A301DA
:100AC800662D2430A600A701860027088700200885
:100AD800C03F2108C13F2208C23F2308C33F260860
:100AE8008600270887008117080008302100E200E7
:100AF8000030230035020830031934020318912D01
:100B080034082100E200EC08031D8D2DEC01EC0AED
:100B1800912D6C0B912D0230EC0021006208200011
:100B2800A900210062082300B402031CB503503059
:100B38002100E0002200ED18A42DAB2D7327803191
:100B48002100E20803190800A22D73278031210033
:100B5800E20803190800A92D302E21006D08043A77
:100B6800031DC22D23002E083D0096001608031908
:100B7800BF2D0530C02D03302100ED0022006C0B85
:100B88000800792580316C08023A031DD22D043003
:100B98002000CF2D4830A800A81708002000281FE3
:100BA800CE2D0830CF2D2100EA01EA0A3D00862724
:100BB8008031EF30F001F00AFE25803123002E0845
:100BC8002100EE00F42580312300AE08031DF02D2E
:100BD80005302100ED00080006302100ED00080076
:100BE800F000F008031DFB2D3D00862708001426A1
:100BF8008031092EF100F0080319080071088600F9
:100C080087018101F10AF003FF2D2200FF30E9017D
:100C1800E200E3002100E7012200EA01EA0A0800F5
:100C28001E30EB013D00990040302000AD00A0309F
:100C3800AE00AF010830AC00AC172030B200013074
:100C4800B3004030B000080022008E11630020007D
:100C58001219080063002B2E23002C081F39013AB3
:100C6800031D08003008031D08002D08063A031963
:100C78005A2E672E02302100EA004D302200E4008F
:100C88008830E5000930562E02302100EA006E0B4C
:100C9800522E8A302200E4008830E50021006E0BD5
:100CA800652E1D302300B400B501652E2F08213AAA
:100CB80003193E2E033A0319482E013A0319652EEB
:100CC800652E2200ED1423002C0E890C0339013AFD
:100CD800031D0800922EA72EA82E02302100EA003C
:100CE8006F302200E4000130E500D92F02302100E6
:100CF800EA0023002F082200EF000800023021003C
:100D0800EA006E302200E4000130782E0230210023
:100D1800EA0023002E082200EE0008002D08013A00
:100D280003196F2E033A0319712E013A0319822E03
:100D38000A3A0319702E033A03197A2E013A031955
:100D48008A2EA62E08000800080023002C08803AE6
:100D5800031D0800E52E2100A730EA01EA0A220057
:100D6800E4008830E50012302300B400F02EAE080D
:100D7800031DF02E21003B30EA01EA0A2200E400BC
:100D88008830E5002930E12E2100EA01EA0A230033
:100D98002E08F0000130F101F035F10D70078400E4
:100DA8008830713D8500003F2200E400013FE500E6
:100DB800640884006508850000082300B400B501B4
:100DC800F02E2F08013A0319AF2E033A0319BB2E50
:100DD800013A0319C82EF02E2200ED140800200055
:100DE800D001D101172F2100EA01EA0A22006D1C67
:100DF800232F2000D014232F2100EA01EA0A232FF1
:100E08002100B3278031F000F035F035BA27803162
:100E180070072100E00086008701011D232F0130A3
:100E28002000D000232F23002C081F390319F72E88
:100E3800013A0319002F033A0319042F232F210025
:100E48006A0B080050302200E4000230E501ED1082
:100E58002300B400080023002E0B432F2C081F3951
:100E6800031D432F2100EA01EA0A23002D08033A53
:100E7800031D412F22006D14432F22006D10230003
:100E8800AE08031D08002C081F39023A031D08008C
:100E980030080F39031908002100B3278031F0000A
:100EA800F035F035BA27803170072100E0002300C3
:100EB8002D08033A031D652F2100600886000430C1
:100EC800AD2FB01F6E2F21006008860040308701CB
:100ED800810008002100600886000830AD2F6008F6
:100EE80086008701220064088400650885000008E0
:100EF80081002100E00A2200E40A0319E50A210022
:100F0800E203080099019A019B019C019D019E0141
:100F18009F010800F10025002508F102210065085D
:100F28007107F2008600080025002508F5027B08F5
:100F38007507F60008000130A03E860002308700E1
:100F4800403F08002100EA01EA0A23003008EF3E8A
:100F58000800870181006008860081170800EA01FF
:100F6800EA0A2300300D300D0139080030080F3926
:100F7800090709070907243E0800910A0319920A7C
:100F880040307C020800203E8600033087000108BC
:100F980008003F3023009400FF30930008008400CD
:100FA80002308500000881000800ED102300B4011C
:100FB800B40A0800910015131516B5348431DB2CDA
:100FC8008431DC2C8431F42C8431DC2C8431F42CF5
:100FD8008431CA2C8431D02C8431C92C8431D22C50
:100FE8008431D12C8431DD2C8431E42C8431F42CEF
:101000000034B93488340734883464348834343450
:1010100003344D34003469340034633400347234A2
:1010200000346F340034633400346834003469347D
:1010300000347034003420340034543400346534C7
:10104000003463340034683400346E3400346F3458
:1010500000346C3400346F34003467340034793435
:10106000003420340034493400346E3400346334A6
:1010700000342E340034093402342934003401346D
:101080000134003480343234093404340034003400
:101090000234033400340034003409342134113470
:1010A00001340034013422341D3400340734053453
:1010B00081340334403400340134073405340134BE
:1010C00003344034003401342634033448340034CB
:1010D000493400344434003420340034553400346E
:1010E0005334003442340034203400344234003469
:1010F0006F3400346F340034743400346C34003492
:101100006F340034613400346434003465340034A6
:101110007234003406340034FF3409340134A1340D
:101120000134193401342934403415340034263460
:10113000FF3400347534083495344034813400343D
:10114000193401342934403491340034C034123419
:101150000134003402340034003400340834D8340C
:1011600004343C340034013401340134023400349A
:101170000134043403340934043401302300A4025C
:101180000030A53B25082404031D08004E30A401AF
:10119000A500063021006D020318D12822008E150B
:1011A0000800003022008E1D0130F000F00DF00D1F
:0E11B000F00D0E087006F73970068E0008006C
:06120000000089310829FD
:10120800893195314E2509008C31532C64008001B9
:081218000131890B0B290034A0
:02123C006D340F
:10124C0020004008803A031D0800C030D8007E29D9
:10125C00B130D6009830D7001230D900DA0108002E
:10126C004208031D61294208F0000730F101F035F6
:10127C00F10D700784009830713D8500003FD60059
:10128C00013FD7005708F1005608F000023E8400D9
:10129C0071080318710A85000008D9005708F1007D
:1012AC005608F000033E840071080318710A85008B
:1012BC000008DA000800D8010800033042020318C5
:1012CC0061294208F0000130F101F035F10D700791
:1012DC0084009830713D8500003FD600013FD70057
:1012EC0056088400570885000008D900DA01080068
:1012FC004308013A03192E29033A03193629013AF6
:10130C000319632961290800530886008701413FAE
:10131C00F500F200F301730823002402031D982941
:10132C007208230203189C292308F5002408F300F3
:10133C0075082302F200031CF303A3007308A40036
:10134C00F401750874020318B72920088600870178
:10135C007408483E8400850100088100A00AF40A44
:10136C00A7290330A03E8600013087001600010437
:10137C000319DE292000540A8600083087018100F9
:10138C004830F200F3015408023E86007208C03F58
:10139C007308C13F530886005408011BD9298600E5
:1013AC00C830810008008600883087018100080061
:1013BC002000540A86000830870181004030F2007A
:1013CC00F3015408023E86007208C03F7308C13F07
:1013DC005408860084308100230025080319F9295C
:1013EC0025088931F829A2132200EE08031D0800F4
:1013FC0096313C2E9531EE2D9531EF2D9531F02D0A
:10140C009631042E9631042E9631042E9631042EEC
:10141C009631042E9631042E9631042E9631042EDC
:10142C009631042E9631042E9631042E9631042ECC
:10143C009631042E9631042E9631042E9631042EBC
:10144C009631042E9631042E9631042E9631042EAC
:10145C009631042E9631042E9631042E9631042E9C
:10146C009631042E9631042E9631042E9631042E8C
:10147C009631042E9631042E9631042E9631042E7C
:10148C009631042E9631042E9631042E9631042E6C
:10149C009631042E9631042E9631042E9631042E5C
:1014AC009631042E9631042E9631042E9631042E4C
:1014BC009631042E9631042E9631042E9631042E3C
:1014CC009631042E9631042E9631042E9631042E2C
:1014DC009631042E9631042E9631042E9631042E1C
:1014EC009631042E9631042E9631042E9631042E0C
:1014FC009631042E9631042E9631042E9631042EFC
:10150C009631042E9631042E9631042E9631042EEB
:10151C009631042E9631042E9631042E9631042EDB
:10152C009631042E9631042E9631042E9631042ECB
:10153C009631042E9631042E9631042E9631042EBB
:10154C009631042E9631042E9631042E9631042EAB
:10155C009631042E9631042E9631042E9631042E9B
:10156C009631042E9631042E9631042E9631042E8B
:10157C009631042E9631042E9631042E9631042E7B
:10158C009631042E9631042E9631042E9631042E6B
:10159C009631042E9631042E9631042E9631042E5B
:1015AC009631042E9631042E9631042E9631042E4B
:1015BC009631042E9631042E9631042E9531EB2D56
:1015CC009531ED2D9531EC2D9731CA2F97319D2FFB
:1015DC009731AD2F9731CA2F9731CA2F9731CA2F18
:1015EC009731CA2F9731CA2F9731CA2F9731A72F0E
:0415FC009731B72F3D
:1016300021006D08860000308701011B0130F50094
:101640000430ED0620005008083A031D322B4208F2
:101650003D009600160803192F2B1030302B043054
:101660002000D000510B5F2B4830F300F401210023
:101670006D08023E860087017308C03F7408C13FB1
:10168000FD238B3120005508023A031D4E2B21000B
:101690006D0886008430870181000800F508031D6D
:1016A000582B21006D088600C83087018100080092
:1016B00021006D0886008830870181000800230022
:1016C000A21F692B25080319682B25088B31672B6E
:1016D000A2132000D10108003D000E122000D81BEB
:1016E0009A2B2300A21F802B02302000D100230060
:1016F000AE08031D7C2BC3232300B201B1010800F7
:101700002000540A86000830870181004030F5002F
:10171000F6015408023E86007508C03F7608C13FB6
:10172000540886008C30810021006D0886008430CA
:1017300081000800C01FAD2B0130D1002300AD088F
:10174000031DA42BC3238B312300B201B10122005E
:10175000EE08031D080096313C2E0230D100540AD9
:1017600086000830870181004030F500F6015408FA
:10177000023E86007508C03F7608C13F54088600C7
:1017800084308100A42BAD01AE0120005108023A43
:10179000031DDE2B540A8600083087018100483083
:1017A000F300F4015408023E86007308C03F740839
:1017B000C13F54088600C830810008005A0847021B
:1017C000031DE42B590846020318EA2B4708DA00E8
:1017D0004608D900FD238B314830F300F401210085
:1017E0006D08023E860087017308C03F7408C13F40
:1017F0006D088600C830810008000830F200003013
:1018000020005A020830031959020318122C5908F3
:10181000F200D508031D0E2C0130112C550B122C93
:101820000230D5005A08F10072085902F000031C7A
:10183000F103D9007108DA0021006D0A86008701E2
:101840007208810048302300B4002000581C3A2C54
:101850004F2C23003408860087012000560884009E
:101860005708850000088100D60A0319D70A23000B
:10187000B40AF203F20803190800292C23003408E3
:10188000860087012000560884005708850000085C
:101890008100D60A0319D70A2300B40AF203F2081A
:1018A000031908003E2C50308400003085000E30B3
:1018B00089310A218C312100ED01EE01683084006C
:1018C00001308500073089310A218C31A030840035
:1018D00001308500183089310A218C312030840094
:1018E00002308500503089310A218C3123000130CB
:1018F000C40020007B2C15258C31C1248C312000A4
:101900008C19A82C3D008E108E110F3021008E04F2
:1019100023000630BF01BE001A30BD008030BC007D
:101920003F083E043D043C040319A72C20008C1DF5
:10193000882C01302300B800B901BA01BB01BC02F8
:101940003908BD3B3A08BE3B3B08BF3B902C010029
:1019500038258C31E5268C316108600403197F2C11
:1019600018278C312300C00016302100E000993088
:10197000E100DA248C31C030E001E00A70278C31BC
:101980007F2CD008031D08003D008E019201163007
:1019900091009F3097007B309200210012150B17A9
:1019A0008B173D008E19D62C8E15D12C01302000BE
:1019B000D00008002300C108031DE02CF9248C315D
:1019C00021006008840061088500000800380319C0
:1019D000080023009E1CE92C210060088400610897
:1019E0008500000823009A002100E00A0319E10A9B
:1019F000E02C22000E1621000E128E162430230039
:101A00009E0010309D0008309F00E1309B000430A4
:101A10009C009D170000000023002030A801A901B0
:101A2000C300C200C101C10A080023008C011030AC
:101A30008D008E0126258C31F9248C31C730210090
:101A4000E0009830E100DA248C318A2FF030220057
:101A50008E0521008E058E160D1629309D00E03072
:101A60009E009F012300B001AF01C401C40A080019
:101A70002300440803193E2D5A268C3120302000C3
:101A80005002031C08003D008E1808002300300897
:101A90000319532D300886008701010D010D01390E
:101AA0002200E000552D2200E001E1016108600400
:101AB000031D0800062E2300C40122000E0C210085
:101AC000E800E80C680C0139E90022000E0C890CD2
:101AD000013921006906031DA92D003022000E1DC9
:101AE00001302100E800E80DE80D22000E08210079
:101AF0006806FB39680622008E0000308E1D01301A
:101B00002100E800E80DE80DE80D22000E08210094
:101B10006806F739680622008E0000300E1C01307E
:101B20002100E80022000E0821006806FE39680640
:101B300022008E0000308E1C01302100E800E80DEC
:101B400022000E0821006806FD39680622008E007A
:101B5000122E22000E1DB02D8E150E148E14122E74
:101B60008E110E108E10122E23002F080319C12D76
:101B70002F0886008701010D010D01392200E200C6
:101B8000C32D2200E201E30163086204031D122E4B
:101B90008130A00020008E1ED12D2200A101A10ABB
:101BA000F72D2200A101F72D23002F080319E12DA5
:101BB0002F0886008701010D010D01392200E40084
:101BC000E32D2200E401E50165086404031D122EE3
:101BD000D8268C3161082200E7002100600822002D
:101BE000E6003730A0006608A1006708A2002100C7
:101BF0002030E001E00AE1000130E2004030E30083
:101C000001301E268C312300AF00122E2100200847
:101C1000373A0319D42DB73A03195B2D013A03194A
:101C2000B42D122E2100A030E001E1004030E2018D
:101C3000E30001301E262300B0000800E600600823
:101C40000319272E6608ED3E860087012C2E6608B4
:101C50006C3E8600013087000108E700E7080319A1
:101C600000346108E4007F306205E5006708023E49
:101C7000860087016408C03F6508C13F670A860087
:101C80006308810067088600403081056708860088
:101C90008830810460080319512E6608ED3E8600E5
:101CA000562E66086C3E860001308700043081069F
:101CB0006708080027082604031D622E1030A600BE
:101CC0002730A7000130A6020030A73B3D008E1C44
:101CD000842E230027082604031D0800003022005C
:101CE0000E1D01302100E000E00DE00D22000E0885
:101CF00021006006FB39600622008E000E1D822E38
:101D00008E1508008E1108002000D008031D8C2EAF
:101D100022000E118E110800500B922E22000E157B
:101D20008E1508005008023A031D9A2E22000E1547
:101D30008E1108005008043A031DA22E22000E1135
:101D40008E1508005008103A031DBC2E23002708EA
:101D50002604031D0800003022000E1D0130210062
:101D6000E000E00DE00D22000E0821006006FB39C6
:101D7000600622008E00822E5008203A031D0800C3
:101D8000230027082604031D0800003022000E1D32
:101D900001302100E000E00DE00D22000E082100DE
:101DA0006006FB39600622008E000E19822E802EFE
:101DB00021009D149D18DA2E1B08E2001C08E30088
:101DC0006308E1006208E00008002300C108031D69
:101DD000EB2EF9248C312000911E0D2F23001908C1
:101DE0002100E200003023002902503003192802AC
:101DF0000318EB2E70304302031C002F2030C30069
:101E00004308860002308700210062088100230019
:101E1000C30AA80A0319A90AEB2E23009D189D10D6
:101E200029082100E100230028082100E000080023
:101E3000B530E301E30AE40129278C316408EC00A2
:101E40006308EB006B036C04031D003423003508AA
:101E50000800EA00E801E901E5268C3123002908A1
:101E6000280403196A2F2100E601E70164086702CC
:101E7000031D3C2F6308660203186A2F703023008D
:101E80004202031C452F2030C20021006A080319BA
:101E9000562F6A088600013087002300420884001C
:101EA00002308500000881002100EA0A2300C20AEE
:101EB0002100E80A0319E90A01302300A8020030D2
:101EC000A93B2908280403196A2F2100E60A0319EF
:101ED000E70A362F21006908E4006808E3000800DB
:101EE000E1002300C108031D772FF9248C31210064
:101EF000E0080319080023009E1C7B2F21006108C5
:101F0000860001308700010823009A002100E10AC1
:101F1000E003772F12113D009301900198010E30DC
:101F20002100E3009930E200E401620886006308C2
:101F300087008101E20A0319E30AE40A0319952FD5
:101F400016303D0091009F3097007B3092002100B9
:101F5000E501650809070907203E86000030870172
:101F6000C03FC13FC23FC33F0830E50A6502031CC2
:101F7000A92F3D000E1796010E120E133D00901D65
:101F8000C92F90112000D8012300A201A301A401B0
:101F9000BE2F01302300B100B200AD01AE01AC0193
:101FA0002100E5016508ED3E860087018101650895
:101FB0006C3E86000130870081016508683E86001E
:101FC000810165086A3E860002308101E50A6502EA
:101FD000031CD22F2830ED0016303D009800403011
:101FE0002100E000E1012000A200210061082000A2
:101FF000A3000830A1008430A000DB01D00108005C
:102000009431652C9431672C9431532C9431672C86
:102010009431532C9431542C9431582C9431752C88
:1020200094315C2C94315A2C9431682C94316D2C61
:042030009431532C68
:1025DC00F60070080319F72A7608ED3E860087018D
:1025EC00FC2A76086C3E8600013087000108F70053
:1025FC00F708031D032B210000347108F4007F3011
:10260C007205F5007708023E860087017408C03F0A
:10261C007508C13F770A8600730881007708860029
:10262C0040308105770886008830810470080319D2
:10263C00232B7608ED3E8600282B76086C3E860010
:10264C000130870004308106770808002000C8019B
:10265C00C901562BD817481423002B0B612B2000D3
:10266C00C814612BD817612BD817C41B442B4408F2
:10267C000F396C3E860001308700492B44080F3916
:10268C00ED3E860087010108F00086008701811F5E
:10269C00612B70088600011D612B0130C800612B75
:1026AC0040081F390319302B013A0319382B033A10
:1026BC0003193A2B612B2000D81F08004830D60094
:1026CC00D70158140230D9000800F900741D712B81
:1026DC00F0018A239331F41C772BF001F00A79086E
:1026EC008A237908983EF5000E30F601F63D750800
:1026FC00F7007608F8007408F5007708860078086B
:10270C008700750881000800F2002030F300700883
:10271C00F100F13572080907090771070907090764
:10272C00F3077308860087018113F008031DA42B9F
:10273C0072086C3E860001308700A82B7208ED3EB3
:10274C0086008701730881007308860087010113D6
:10275C007308043E8600011708002000D8170E30BD
:10276C00FB009930FA00FC017A0886007B08870090
:10277C008101FA0A0319FB0AFC0A0319BA2B20304F
:10278C00F001F101F200F301052493313D000E1725
:10279C00FD017D08683E86000130870081017D08BF
:1027AC006A3E860002308101FD0A7D02031CCF2B9C
:1027BC005C30F001F101F201F20AF30105249331CE
:1027CC003D000E1328302100ED0020302000D300F6
:1027DC00D4004208DB00DB08031DF72B1030D000BF
:1027EC0008005B30DE01DE0ADF01E000E101E10AF6
:1027FC00E2019531E32520302000D0000800F400E0
:10280C00F5000130F2020030F33B720A0319730A2F
:10281C000319080075088600870170088100F50A05
:10282C00072CD5012200EE012300AD01AE01AA0157
:10283C002000D10121006D0886000430870181132E
:10284C00ED066D08860004308113ED062000540857
:10285C0086008113D801D901DA012300A201A3015A
:10286C00A4014324943103302000DE00DF01E00199
:10287C00E101E201E3258B316C2B2000400E890C29
:10288C000339031D0800410884000D3004020318AD
:10289C00080090310435003E82000800D81708303B
:1028AC00D0000800893126299331B32B5B30D60038
:1028BC000030D70058140130D900D81708009331D4
:1028CC002C2B7C2C44085C3ED600D701602CD817EE
:1028DC0044085C3E860087014208810008000230F3
:1028EC00DE00DF01E001E101E201E32D2000420BFB
:1028FC008E2C40081F39031D8E2CD8174108033A23
:10290C00031D8C2C01302300AB008E2C2300AB015B
:10291C0020004208031D080040081F39023A031D1D
:10292C00080044080F390319080044080F39FA004D
:10293C0002307A02031808005008203A031D0800E0
:10294C00D817C41BB62C44080F396C3E86000130D6
:10295C0087000108E60044080F396A3E8600C32C44
:10296C0044080F39ED3E860087010108E600440853
:10297C000F39683E8600013087000108E5006518B4
:10298C00C92C6611CA2C6615C41BD32C44080F39EC
:10299C006C3E860001308700D82C44080F39ED3E80
:1029AC0086008701660881004108033A031DF62C56
:1029BC00660886008701811FF02CC41BE92C440893
:1029CC000F396A3EEC2C44080F39683E8600013002
:1029DC008700811466088600843087018104080012
:1029EC000430E6066608860087016608811F0D2DF7
:1029FC0086008113860005300117DE00DF016608B2
:102A0C00E000E101E10AE201E3259431102D86009A
:102A1C008701011704302000E606E5181A2D660818
:102A2C0086008701811F372DC41B202D44080F39C8
:102A3C006A3E232D44080F39683E8600013087001A
:102A4C008110660886003B30870181050530DE0069
:102A5C00DF016608E000E101E10AE201E3259431BF
:102A6C003C2D660886003B30870181052000440818
:102A7C000F39983EFA000E30FB01FB3D7A08E3005B
:102A8C007B08E400630886006408870001100800D6
:102A9C0020005003031D5B2D3D008E1A5B2D900111
:102AAC001214121602302000D0003D001019121D15
:102ABC00622D1011052694318E1C672D20001211E9
:102ACC0008001018121C732DD326943121001215F6
:102ADC0004302000D0003D001010101A121E7A2D68
:102AEC00142694313D001012101F932D121F882DA7
:102AFC0073302000DE00DF01E001E101E10AE201B8
:102B0C00E32594313D00101323003308031DB30358
:102B1C00B308031D932D3C2694313D00901A921E50
:102B2C00992D222694319018921CA92DFF3020004B
:102B3C00DE007F30DF00E001E101E10AE201E32584
:102B4C0094313D009301043020005002031C642D8D
:102B5C003D00921D642D2000EB013D00901D642D65
:102B6C000F082000DD005D0CEA00EA0C6A0C0F393E
:102B7C00D2003D00901120005D19C72D52086A3E0D
:102B8C00C92D5208683E8600013087008106D208A4
:102B9C00031DD32D84269431DC2D7230DE005D3084
:102BAC00DF01E000E101E201E32594312000043073
:102BBC00EB0A6B020318642DB32D5F08003A03195E
:102BCC00F22D7F3A0319FF2D042E692F432F682F06
:102BDC00CC2FCB2F6B2F6A2F5E08FF3E031C0800F7
:102BEC00840075300402031808008A310435003E55
:102BFC0082005E08FF3A0319F12D042E0800230011
:102C0C00AC0174302000DE00DF01E001E101E201E3
:102C1C00E3253D008E101211101108001215101230
:102C2C008E1401302300AC0075302000DE00DF0173
:102C3C00E001E101E201E32D181C3A2E20005308BB
:102C4C00860087010108803A031D382E21006D088B
:102C5C0086000108843A031D382E20005308860094
:102C6C008C3081003D001810901208002300B10830
:102C7C00031D08000130B100B208031D0800B200AA
:102C8C0020005108023A031D552E21006D0A8600C2
:102C9C00870181016D088600C83081000800510B46
:102CAC0008002300AA012000530A8600083087017F
:102CBC0081004030F000F1015308023E860070089C
:102CCC00C03F7108C13F5308860084308100013039
:102CDC002300AA002000540A8600083081004030EE
:102CEC00F000F1015408023E86007008C03F7108E4
:102CFC00C13F540886008030810008002D3023002D
:102D0C00B30020005D08FD39031DCB2E5D363F3925
:102D1C0009070907203ED300D4000430D406530819
:102D2C0086008701010C890C0F390D3A031DCA2E40
:102D3C00E9016908403E860087015308023E840081
:102D4C008501003FE700013FE80067088400680840
:102D5C008500000881005308023E8600013081077F
:102D6C0041310318810A0830E90A6902031C9F2EBD
:102D7C004030E700E8015308023E860087016708EF
:102D8C00C03F6808C13F172CDE2FFD305D05E70002
:102D9C00043A031D08008B31182B210012113D0041
:102DAC009301900198010E30F3009930F200F40178
:102DBC0072088600730887008101F20A0319F30A6E
:102DCC00F40A0319DE2E163091009F3097007B30E9
:102DDC009200F501750809070907203E86000030AE
:102DEC008701C03FC13FC23FC33F0830F50A75029F
:102DFC00031CF02E0E1796010E120E133D00901DA3
:102E0C000F2F90112000D8012300A201A301A401CF
:102E1C00042F01302300B100B200AD01AE01AC01B2
:102E2C00F5017508ED3E86008701810175086C3E41
:102E3C0086000130870081017508683E860081019B
:102E4C0075086A3E860002308101F50A7502031C82
:102E5C00172F28302100ED0016303D00980040302F
:102E6C00F000F1012000A2007108A3000830A100BD
:102E7C008430A000DB01D001080022000E118E115D
:102E8C000E108E100B08F00007308B052100110876
:102E9C00F10091011208F200043092003D0012087A
:102EAC00F300053092000B1763000B1373083D0001
:102EBC009200720821009200710891007008F83994
:102ECC008B0408000800080008006C2F40081F390C
:102EDC00013A031D08004408031D08004108063A86
:102EEC0003198B2F962F5B0B962F7D30D6009830C5
:102EFC00D7000930862F9430D6009830D7001D307B
:102F0C00D900DA01C030D800962F4308213A0319B2
:102F1C00792F033A0319812F013A0319962F962F13
:102F2C00400E890C0339013A031D0800BD2FB73040
:102F3C00D6000130D7000130D900DA01C130D800F9
:102F4C0008008030D80043082300B7000800B630D2
:102F5C00D6000130D7000130D900DA018130D80019
:102F6C0008008030D80042082300B6000800410851
:102F7C00FF3E031C080084000B30040203180800F9
:102F8C008A310435EA3E8200080008001E30F40045
:102F9C00013093316B239431A030F001F1004030BB
:102FAC00F201F30001309231EE222300B000080050
:102FBC005108023A031DE42F89318A29D1012300DB
:102FCC00AA08031DFE2F2000540A86000830870132
:102FDC0081004030F600F7015408023E8600760866
:102FEC00C03F7708C13F540886008C308100080030
:102FFC00AA0108000034C3349834093498343D34A1
:10300C0098346B349834343403344D34003469348C
:10301C00003463340034723400346F34003463345D
:10302C000034683400346934003470340034203493
:10303C000034543400346534003463340034683460
:10304C0000346E3400346F3400346C3400346F341C
:10305C00003467340034793400342034003449347B
:10306C0000346E340034633400342E3400342E3487
:10307C00033453340034693400346D340034703408
:10308C0000346C340034653400342034003448345B
:10309C000034493400344434003420340034443493
:1030AC0000346534003476340034693400346334CD
:1030BC000034653400342034003444340034653436
:1030CC0000346D3400346F34003409340234293444
:1030DC000034013401340034C03432340934043443
:1030EC000034003402340334003400340034093426
:1030FC002134113401340034013422341D340034B1
:10310C00073405348134033440340034013407343B
:10311C0005340134033440340034013406340034B3
:10312C00FF3409340134A134013419340134293405
:10313C004034153400342634FF34003475340834EC
:10314C0095344034813400341934013429344034FA
:10315C0091340034C034123401340034023400345D
:10316C00003400340834D83404343F34003401348F
:10317C00013401340234003401340434033409348E
:10318C0004340D340A340D340A340D340A34483402
:10319C0065346C346C346F34203457346F3472347F
:1031AC006C3464342C342034663472346F346D34A3
:1031BC002034743468346534203450344934433406
:1031CC0031343634463431343434353439342034B3
:1031DC006F346E34203474346834653420344C3499
:1031EC006F3477342034503469346E3420344334A3
:1031FC006F3475346E347434203455345334423453
:10320C00203444346534763420344B34693474348B
:10321C00203462346F346134723464342E340034AC
:10322C000D340A34553473346534723420347034AC
:10323C0072346534733473346534643420346234DA
:10324C007534743474346F346E343A34203400343E
:020000040001F9
:04000E0082CF4FDB73
:00000001FF
