:020000040000fa
:080000000002040000000000f2
:020000040000fa
:04000800bc04000034
:020000040000fa
:04000c00bc04000030
:020000040000fa
:04001000bc0400002c
:020000040000fa
:04001400bc04000028
:020000040000fa
:04001800bc04000024
:020000040000fa
:04001c00bc04000020
:020000040000fa
:04002000bc0400001c
:020000040000fa
:04002400bc04000018
:020000040000fa
:04002800bc04000014
:020000040000fa
:04002c00bc04000010
:020000040000fa
:04003000bc0400000c
:020000040000fa
:04003400780300004d
:020000040000fa
:04003800bc04000004
:020000040000fa
:04003c00bc04000000
:020000040000fa
:04004000bc040000fc
:020000040000fa
:04004400380400007c
:020000040000fa
:040048007a04000036
:020000040000fa
:04004c00bc040000f0
:020000040000fa
:04005000bc040000ec
:020000040000fa
:04005400180300008d
:020000040000fa
:04005800fa020000a8
:020000040000fa
:04005c00bc040000e0
:020000040000fa
:04006000bc040000dc
:020000040000fa
:04006400bc040000d8
:020000040000fa
:04006800bc040000d4
:020000040000fa
:04006c00bc040000d0
:020000040000fa
:04007000bc040000cc
:020000040000fa
:04007400bc040000c8
:020000040000fa
:04007800bc040000c4
:020000040000fa
:04007c00bc040000c0
:020000040000fa
:04008000bc040000bc
:020000040000fa
:04008400bc040000b8
:020000040000fa
:04008800bc040000b4
:020000040000fa
:04008c00bc040000b0
:020000040000fa
:04009000bc040000ac
:020000040000fa
:04009400bc040000a8
:020000040000fa
:04009800bc040000a4
:020000040000fa
:04009c00bc040000a0
:020000040000fa
:0400a000bc0400009c
:020000040000fa
:0400a400bc04000098
:020000040000fa
:0400a800bc04000094
:020000040000fa
:0400ac00bc04000090
:020000040000fa
:0400b000bc0400008c
:020000040000fa
:0400b400bc04000088
:020000040000fa
:0400b800bc04000084
:020000040000fa
:0400bc00bc04000080
:020000040000fa
:0400c000bc0400007c
:020000040000fa
:0400c400bc04000078
:020000040000fa
:0400c800bc04000074
:020000040000fa
:0400cc00bc04000070
:020000040000fa
:0400d000bc0400006c
:020000040000fa
:0400d400bc04000068
:020000040000fa
:0400d800bc04000064
:020000040000fa
:0400dc00bc04000060
:020000040000fa
:0400e000bc0400005c
:020000040000fa
:0400e400bc04000058
:020000040000fa
:0400e800bc04000054
:020000040000fa
:0400ec00bc04000050
:020000040000fa
:0400f000bc0400004c
:020000040000fa
:0400f400bc04000048
:020000040000fa
:0400f800bc04000044
:020000040000fa
:0400fc00bc04000040
:020000040000fa
:04010000bc0400003b
:020000040000fa
:04010400bc04000037
:020000040000fa
:04010800bc04000033
:020000040000fa
:04010c00bc0400002f
:020000040000fa
:04011000bc0400002b
:020000040000fa
:04011400bc04000027
:020000040000fa
:04011800bc04000023
:020000040000fa
:04011c00bc0400001f
:020000040000fa
:04012000bc0400001b
:020000040000fa
:04012400bc04000017
:020000040000fa
:04012800bc04000013
:020000040000fa
:04012c00bc0400000f
:020000040000fa
:04013000bc0400000b
:020000040000fa
:04013400bc04000007
:020000040000fa
:04013800bc04000003
:020000040000fa
:04013c00bc040000ff
:020000040000fa
:04014000bc040000fb
:020000040000fa
:04014400bc040000f7
:020000040000fa
:04014800bc040000f3
:020000040000fa
:04014c00bc040000ef
:020000040000fa
:04015000bc040000eb
:020000040000fa
:04015400bc040000e7
:020000040000fa
:04015800bc040000e3
:020000040000fa
:04015c00bc040000df
:020000040000fa
:04016000bc040000db
:020000040000fa
:04016400bc040000d7
:020000040000fa
:04016800bc040000d3
:020000040000fa
:04016c00bc040000cf
:020000040000fa
:04017000bc040000cb
:020000040000fa
:04017400bc040000c7
:020000040000fa
:04017800bc040000c3
:020000040000fa
:04017c00bc040000bf
:020000040000fa
:04018000bc040000bb
:020000040000fa
:04018400bc040000b7
:020000040000fa
:04018800bc040000b3
:020000040000fa
:04018c00bc040000af
:020000040000fa
:04019000bc040000ab
:020000040000fa
:04019400bc040000a7
:020000040000fa
:04019800bc040000a3
:020000040000fa
:04019c00bc0400009f
:020000040000fa
:0401a000bc0400009b
:020000040000fa
:0401a400bc04000097
:020000040000fa
:0401a800bc04000093
:020000040000fa
:0401ac00bc0400008f
:020000040000fa
:0401b000bc0400008b
:020000040000fa
:0401b400bc04000087
:020000040000fa
:0401b800bc04000083
:020000040000fa
:0401bc00bc0400007f
:020000040000fa
:0401c000bc0400007b
:020000040000fa
:0401c400bc04000077
:020000040000fa
:0401c800bc04000073
:020000040000fa
:0401cc00bc0400006f
:020000040000fa
:0401d000bc0400006b
:020000040000fa
:0401d400bc04000067
:020000040000fa
:0401d800bc04000063
:020000040000fa
:0401dc00bc0400005f
:020000040000fa
:0401e000bc0400005b
:020000040000fa
:0401e400bc04000057
:020000040000fa
:0401e800bc04000053
:020000040000fa
:0401ec00bc0400004f
:020000040000fa
:0401f000bc0400004b
:020000040000fa
:0401f400bc04000047
:020000040000fa
:0401f800bc04000043
:020000040000fa
:0401fc00bc0400003f
:020000040000fa
:04020000bc0400003a
:020000040000fa
:04020400bc04000036
:020000040000fa
:04020800bc04000032
:020000040000fa
:04020c00bc0400002e
:020000040000fa
:04021000bc0400002a
:020000040000fa
:04021400bc04000026
:020000040000fa
:04021800bc04000022
:020000040000fa
:04021c00bc0400001e
:020000040000fa
:04022000bc0400001a
:020000040000fa
:04022400bc04000016
:020000040000fa
:04022800bc04000012
:020000040000fa
:04022c00bc0400000e
:020000040000fa
:04023000bc0400000a
:020000040000fa
:04023400bc04000006
:020000040000fa
:04023800bc04000002
:020000040000fa
:04023c00bc040000fe
:020000040000fa
:04024000bc040000fa
:020000040000fa
:04024400bc040000f6
:020000040000fa
:04024800bc040000f2
:020000040000fa
:04024c00bc040000ee
:020000040000fa
:04025000bc040000ea
:020000040000fa
:04025400bc040000e6
:020000040000fa
:04025800bc040000e2
:020000040000fa
:04025c00bc040000de
:020000040000fa
:04026000bc040000da
:020000040000fa
:04026400bc040000d6
:020000040000fa
:04026800bc040000d2
:020000040000fa
:04026c00bc040000ce
:020000040000fa
:04027000bc040000ca
:020000040000fa
:04027400bc040000c6
:020000040000fa
:04027800bc040000c2
:020000040000fa
:04027c00bc040000be
:020000040000fa
:04028000bc040000ba
:020000040000fa
:100400000f2021000eff27000e01880000000000d1
:10041000000020000000e000020032000001200087
:100420002002880014000700e30107000000e0003c
:1004300003003a00c0a8210001002000020037009c
:100440000000200001002000810f70000100320038
:100450000f000700000020000000e0000200320052
:100460000000020000000000c419020000000000ab
:100470000040da000000fe00400820000000e0001c
:1004800002003200002020009001880000000600d9
:10049000a1028800800478000000eb001f003700f4
:1004a000e284440054a0b4009905ba00e2844400f8
:1004b00054a0b4009906ba00e284440054a0b400e9
:1004c0000006eb00476fde00fd07b200ae018800ba
:1004d000636ce10003003a000ad801000000eb0061
:1004e0000e003700606ce10008003a00004deb00a0
:1004f0000a05e800020039003420ec000af0a000f0
:100500008b05e900f9ff3e00040037006168e10057
:10051000010032000086eb000b00070019c7ba008b
:100520000e04e0001905ba0003003a000a00e000da
:10053000dbff3a0000000600fe07b200ae028800b2
:100540008a047800f5ff37000cd0a300e20f4d00bd
:100550001c00390089027800354dba000a05e80010
:10056000020039003420ec000af0a0008b05e900fd
:100570000f003200254dba000a05e80002003900dc
:100580003420ec000af0a0008b05e90008003200de
:100590000c00e0000600320015cdba000a05e800a4
:1005a000020039003420ec000af0a0008b05e900bd
:1005b0008984e80054a0b4000b00e000e2ff3a0098
:1005c000000006009902ba00055d78008b05e9007d
:1005d000f7ff3200c82ade00055d78008b05e900d0
:1005e000f3ff32000c00e000f1ff320019ddba0029
:1005f000eeff37003200f8003400f800881f780062
:1006000018002000a8018800082020009801880018
:10061000000000004f0478000000fa000188a900e3
:100620000080fa003400f9003200f90000400600b2
:10063000809fbe00821f78003200f8003400f8006e
:1006400010002000a00188000020200090018800f8
:10065000000000000000fa000168a900600121000c
:10066000104078000004e00004003a00918080000f
:10067000a0808000808f50001400320090808000a5
:100680003111800063004000000140002001210082
:100690000000410001087800908080000000e80020
:1006a000908088009180800000042000808f50009e
:1006b00002003a000000eb009080880060012100f9
:1006c0008040eb00014878000300370070012100f2
:1006d00011c0b300014878000080fa003400f9002e
:1006e0003200f9004f0178004f00be0000400600c4
:1006f0003600f800809fbe00829fbe00849fbe002f
:10070000869fbe00889fbe008a9fbe003200f80010
:100710003400f80010002000a00188000020200014
:1007200090018800000000000600fa000068a9009f
:1007300003d0bf000004a2000004e0000300320068
:1007400010c0b30002f0b7003e0037000180800007
:1007500000832000808f500003003e0010c0b300d3
:1007600002f0b7003700370001808000007d2f00c5
:10077000008040000080880001808000f08220001e
:10078000808f50002e003e0001808000f00320008a
:10079000808f500005003e00800020001007980068
:1007a000f0fd2f00000f78000d0037000180800061
:1007b000a0202000808f500005003e000004200093
:1007c00010079800f0fe2f00000f7800040037009b
:1007d00000102000100798000080eb00000f780048
:1007e000008080008000eb00cc0207006022b8008f
:1007f00006002400f70b2400270307000205be00b3
:100800000004be001e0090008000eb00c302070041
:100810000203be000002be000800be000a01be00c6
:1008200051010700790207002007980090fb2f0074
:100830001e006000ae0090008f000700010037002e
:10084000000000000080fa003400f9003200f900d6
:100850004f05be004f04be004f03be004f02be0056
:100860004f01be004f00be003600f90000400600f8
:100870003600f800809fbe00829fbe00849fbe00ad
:10088000869fbe003200f8003400f80010002000ff
:10089000a0018800002020009001880000000000d6
:1008a0000000fa00308080000000e80030808800fe
:1008b0003180800020808000808f500003003a004b
:1008c00040808000000001000630ef0000e8a90031
:1008d0000080fa003400f9003200f9004f03be0036
:1008e0004f02be004f01be004f00be003600f900af
:1008f000004006003600f800809fbe00829fbe00c8
:10090000849fbe00869fbe003200f8003400f800cd
:1009100010002000a0018800002020009001880025
:10092000000000000000fa00608080000000e80085
:10093000608088006180800050808000808f50003f
:1009400003003a0070808000000001000c30ef00ce
:100950000108a9000080fa003400f9003200f90013
:100960004f03be004f02be004f01be004f00be004d
:100970003600f900004006000040da000000fe00ea
:100980002068a90005e1a9000068a9000000060090
:1009900020e8a90011e1a90000e8a9000000060074
:1009a0002108a90013e1a9000108a9000000060020
:1009b0000068a900e7006000f2ff2800cc08dd0015
:1009c0000342800003016100680060000281700042
:1009d00071ff2f0002428800024180008280600087
:1009e00081007000014188000000060000e8a900b5
:1009f000e7006000f2ff2800cc08dd001342800011
:100a00000301610068006000028170004300de00a5
:100a10001242880061006000f1f72f004700dd00fe
:100a200002418000828060008100700001418800e6
:100a3000000006000108a900e700600082ff2f0007
:100a40006800600023428000030161004300de0073
:100a50000281700061006000224288004800dd00d1
:100a6000f1ef2f0002418000828060008100700061
:100a700001418800000006000021ef0011088800f5
:100a800020088800000006000621ef0061088800a9
:100a9000800888001061a900000006000a21ef000c
:100aa0007108880090088800000006001421ef00fb
:100ab0001821ef00d2088800e3088800f0088800b9
:100ac0001e61a80000000600a2088000b008800097
:100ad0008001eb008000eb00c000dd000000200082
:100ae000020070008380700000000600000888008b
:100af000000006003008880000000600500888004a
:100b000000000600b1088800a00888000000060068
:100b100021e2a9002168a9002188a9000168a90093
:100b20000188a900000006000168a900e700600034
:100b30000188a900cc08dd0000017800f3ff28003f
:100b40000207b20024428000848161004411de006b
:100b500083817000e800600023428800c308de0043
:100b600083ff2f00e18060003442800084816100b7
:100b7000cb08dd00830171000008b2003342880019
:100b8000f27f2f004700de00034180000301610077
:100b900061006000028170004c00dd0002418800ad
:100ba000f1ff2e000441800084806000810070000d
:100bb00001418800000006000000050003f0a200cb
:100bc000889fbe008a9fbe008c1f78001a02070013
:100bd000210233006450e1004f0032006420e10044
:100be0005200320003826c0007003b000905d00070
:100bf0000306d000820f54000c065d00020039008d
:100c000002003200890178000306780085825500d1
:100c100004003d000003fd008103fd008502ea00a1
:100c20008b854200840f720002003b0060001000c0
:100c3000e08018006011b8000005eb007a28e100a0
:100c40000a00390006007800c75ddd00f707b20032
:100c5000878075002d003700828171000a017800bd
:100c6000610560008180d1000080d3008502e90029
:100c7000f9ff3b00060440008784480002003b0067
:100c800060041400e0841c000988a30007003200ff
:100c90008a81710082817100610164008904d10040
:100ca0000884d3008b05e800170037000978a300fb
:100cb00013003a000b00e000130034008b05e9003c
:100cc0000804440089844c000a4474000978a30095
:100cd0000d003a000b00e000070034008b05e9002e
:100ce0000804440089844c0001003a000b002000f5
:100cf0000978a300f7ff32000001eb000200370083
:100d0000828171000a017800900107000cf0a700b1
:100d100001f0a000d90137006420e10002003a0090
:100d2000838f6c00d90133000801be000200be00b1
:100d3000d20137000001eb000b0107000400320074
:100d40000200200003f8230001f0a6009cff07002a
:100d5000000006008f1fd100250307008f87e900e0
:100d60000000e000000006002800fa00889fbe0096
:100d70008a9fbe008c9fbe0003866b00c2000700e6
:100d80006400e100440032006408e1004a003200df
:100d90006100e100460032006108e10049003200d4
:100da000ec0647006000b8003d02be003d03be00f7
:100db000f48657006011b8003d04be003d05be003a
:100dc0007d0320000b0037000000a0008d06e90025
:100dd000130032000402420085824a0006034b00e1
:100de00087834b00000040008180480002014900d9
:100df000838149000802520089825a000a035b007d
:100e00008b835b00f0ff3b000802420089824a00ae
:100e10000a034b008b834b008d06e900edff3a007f
:100e20008482720086827200f707b20087827200a5
:100e300001003200150020001e0490003e0b9000bf
:100e400006035400e63fb0000368a3000700320029
:100e50000000a7000500a0008301d1000281d3009b
:100e60008180d3000080d3000603e8008301d10015
:100e70000281d3008180d3000080d3000002eb0008
:100e80000482d2005400070003f0a1000cf0a70078
:100e900003f0a00090003700640247006408e100fe
:100ea0008a0032003400be003401be00f6ff370075
:100eb0006108e100850032006011b8006000b800f0
:100ec000f1ff370003ff270002002000fbff37007f
:100ed000889fbe008a9fbe008c1f780056010700c5
:100ee0005d01330003866c006450e1002e00320087
:100ef0006420e100330032006150e1002f00320035
:100f00006120e1003100320085855500eb07b0001b
:100f100009002000080420000500370008044400f0
:100f200089844c000a0031000603430087834b008c
:100f30000001530081815b00f8ff33000203be0013
:100f40000800a0000804440089844c00f6ff390022
:100f5000c639dd0083017300010032001300200058
:100f60008904d1000884d3000998a3000500320049
:100f70000800a7000300a0008904d1000884d30062
:100f80008b05e8008904d1000884d3000001eb0040
:100f90000281d200ed00070001f0a1000cf0a700d3
:100fa00001f0a000350137006420e1003701320074
:100fb0000801be000200be00f7ff37006120e1001b
:100fc000320132006000b800f3ff3700000020005b
:100fd00001f82700f0ff370018002000570020001c
:100fe000080453000d003d000600200097fc2f0070
:100ff0000740e1001e00340084827200610260003c
:101000008301d1000281d3008180d3000080d3000e
:101010000804e800f8ff3a0047002000610460007f
:1010200005047400040464000d00320061004000f7
:10103000e080480060014900e081490003b8a50054
:10104000070032000603e8006538e10004003a00ba
:101050008301d1000281d3008180d3000080d300be
:10106000f87f20000830e100030035000803780015
:101070006000b8006011b8004433dd00f300b20036
:101080008301730000000600680447000294be005c
:101090000094be00fc0447008694be008494be0009
:1010a000090078009c020700080078009a020700f7
:1010b00099007800814f70000b003b000800be00d3
:1010c000740207004f00b10003003700f3ff270050
:1010d000f2ff2f006110b9004f06be004f05be00a1
:1010e0004f04be000080fa00000006008103780073
:1010f000bc0007000001be006000b8000478a30037
:1011000013003a006220e10015003e000d00390096
:101110008301d1000281d3008180d3008301d100fb
:101120000281d3008180d3008301d1000281d300ea
:101130008180d3000538b000c42add00f300b2007e
:101140008381720007f0a70003f0a00000000600f2
:10115000f3ff2700f2ff2f006110b900fbff3700fb
:1011600003ff2700f7ff3700889fbe008a9fbe005d
:101170000003be009b0007008505780082815200b5
:10118000020020006220e10004003a00f307b100f1
:10119000040035007718e100040035000600be00a9
:1011a000140037006000b8000f003700f50f200072
:1011b000faff2f008502d1000a85d3008301e900e0
:1011c000fcff3b008184620000046500890f74000d
:1011d000f2ff32008582ea000a85ea00818462001b
:1011e000000465005900070007f0a70001f0a00007
:1011f0000081eb000200e0004f05be004f04be007e
:1012000000000600f4ff2f006a0237001400fa0005
:10121000889fbe008a9fbe008c9fbe000004be0057
:101220000205be00680047000a90be000890be009c
:10123000390207000070a7000bf0a1000bf8a30013
:1012400016003a009e029000304320008082520037
:10125000b0fe2f000028e1000d003c00b0fc2f0084
:101260000028e1000d0034001e0990008e08900057
:101270007e0090000501b0000201d1008180d30002
:101280000080d3008502e800fbff3a0092ff3700a0
:1012900001002800000020008fff37006000b80028
:1012a0008dff37000001be004e0007000470a7004c
:1012b00003f0a10003f8a30013003a006509b10090
:1012c00010003200090035006928e10002003500f5
:1012d0000100280000000500000040008180480057
:1012e0008502e900fcff3a0000000600f88f42008a
:1012f000050035008100d1000080d3008502e800a0
:10130000fcff3a00000006008000eb000000050032
:101310004f89de0082017800410237006011b80079
:101320004f0237006011b800780237000001eb006f
:101330008dff0700040032000200200003f82300a4
:1013400001f0a7001dfe070000000600810020003c
:10135000618055000b003d000b00200061fe2f0056
:101360000100e1001d003400828171006101640010
:101370008904d1000884d3000000e800faff3a0095
:101380007100200061006400030070000200600032
:101390000900320061044400e0844c000988a50083
:1013a000050032008b05e8006808e10002003a0001
:1013b0008904d1000884d300f20f20000258e10014
:1013c00005003d00c75ddd00f907b20089807500aa
:1013d00008007800000006000bf827008b0078005a
:1013e00000000500c70ade00f107b200f50fb200e9
:1013f00008003200e1cf4200020032000170a0007c
:1014000024000500810f700001003200040805006f
:1014100044000500810f700002003a00140005002e
:101420008502e9000000400081c04800fcff3b004d
:101430000170a000240005000004be00e9ff0700c1
:101440000003be000405be000200be00e5ff070069
:10145000844f7500000006000200be006450e100e9
:10146000050036006420e100020036000968a30090
:1014700001003a000800be000160a0004f0678009d
:101480004f05be004f04be0000000600f0ff2f0015
:10149000f1ff2700f9ff37002800fa00889fbe00ff
:1014a0008a9fbe008c9fbe0003866b00f6fe07007d
:1014b0000028a30064003a000128a30068003a0055
:1014c0000008a30062003a000108a30066003a0089
:1014d0001e009000be08900081064000ed3fb10064
:1014e000f4805700ee019000111ab8008e099000a8
:1014f000311bb8009e099000311cb800511db80086
:10150000f485570046000700fe0190003a000700ee
:101510008b85e8003e0007008e0990004000070020
:10152000ee019000340007008b85e80038000700ca
:101530008e099000400007009e0990001b18b8001b
:10154000890440000a854800fe019000340007002d
:101550008b85e80038000700ee019000300007009e
:101560008e0990001b18b800890440000a854800c5
:101570000a98a30008003a000402420085824a004b
:1015800006034b0087834b0008044c0089844c0001
:101590000a054d008d06e900848272008502730001
:1015a0004c3add0085027200010032001500200077
:1015b000443ade001400b2004538de00cb45dd00c1
:1015c0000b007000c540de00cb4ddd008b8070004d
:1015d0004549de00cb55dd000b017100c551de0031
:1015e0000d0378007cfe070003f0a1000cf0a700bb
:1015f00003f0a000b8fe37001b18b80085024000b9
:1016000006834800e0834b0060044c00070037006d
:101610001b18b8000603400087834800faff370014
:101620001b18b8008703400008844800e0844c0081
:1016300060054d00000006001b18b80008044000bb
:1016400089844800faff37000108a3009ffe3a0092
:101650005800be00000000005801be00e2ff370045
:101660000008a30099fe3a0009047800f8ff37004b
:10167000889fbe008a9fbe008c1f78006eff070007
:1016800075ff330003866c006450e10024003200d3
:101690006420e100270032006150e10022003200a6
:1016a0006120e100210032008b854200eb07b10090
:1016b0000134b800003ab8000804420089844a00a6
:1016c000013ab8000030b8008880400009014a00a3
:1016d00004003300000040008180480002014900fe
:1016e0008b05e900c909dd008301700001003200ab
:1016f00013002000c814de004814dd004709de0096
:101700001200b200c808de00088470000fff070056
:1017100001f0a1000cf0a70001f0a00057ff370076
:101720006120e10059ff32000801be000200be0046
:10173000f7ff37006150e100fcff3a0053ff37002c
:1017400007f0a2002c0037001400fa00889fbe00aa
:101750008a9fbe008c9fbe000005be000206be0030
:10176000680047000c90be000a90be00ea00070027
:101770006400e1001a00320016003e006100e10042
:101780001a0032006e049000fe0490000e0b9000d0
:101790009e0b90006011b8009e0590000b38b100c0
:1017a000d501200082817100610164008703d100ae
:1017b0000683d3008984d3000884d3008502e9001e
:1017c000f8ff3a00e1fe07000df0a70001f0a000cd
:1017d00041fe3700f1ff2700f0ff2f003efe3700eb
:1017e00001f8270000002000f7ff37006000b80074
:1017f000f5ff3700000000002800fa00889fbe00b7
:101800008a9fbe008c9fbe0007067800878669000d
:101810000c003b00030478008704780008f0a10066
:1018200009f0a100840f5000858f5800860f5900e1
:10183000890f5c00030033000cf0a20001003a00a5
:101840000cf0a10010fe07006400e1005f00320010
:10185000780147006408e100610032006c01470034
:10186000748557003200be001201be003a04be006b
:101870001a05be001e039000be0a900085035300a7
:1018800006003d000004fd008104fd000205fd008e
:101890008305fd008703ea00050378000df8a30027
:1018a0000400320060041400e0841c0060051d0088
:1018b000e0851d006022b8007d0320000d38e100a6
:1018c0008006eb000b0039004433dd00f300b2006a
:1018d0008301730039003700848272000d027800a2
:1018e000e10664008b85d1000a85d3008984d3008a
:1018f0000884d3008703e900f7ff3b00080040009d
:10190000898048000a0149008b81490004003b009e
:1019100060001000e080180060011900e0811900eb
:101920000358a300090032008d8272008482720085
:10193000610260008301d1000281d3008180d30065
:101940000080d3000603e8001b0037000348a30013
:1019500017003a000600e000170034000603e90013
:101960000d00a300000048008180480002014900ea
:10197000838149000348a3000f003a000600e000fd
:10198000090034000603e90000004000818048009f
:10199000020149008381490001003a000003eb0085
:1019a0000348a300f5ff32006022b80002003700b0
:1019b000848272006182660087fd070003f0a10047
:1019c0000cf0a70003f0a000c3fd3700640147003e
:1019d0006408e10002003a000df8a300bbfd3a00e4
:1019e00032007800b20078001201be00bafd370064
:1019f000889fbe008a9fbe008c9fbe000404be006c
:101a00000605be00809fbe00829fbe00300007001a
:101a1000040678000800be000a01be002c00070082
:101a2000840678004f03be004f02be008d4f760043
:101a30007fb0970013003300f0ff2f008b8f6b00f7
:101a400006003b000d0666000c00a7000a003700e8
:101a500007f0a600100020000a003700880f52008f
:101a6000898f5a008a0f5b008b8f5b00030039005f
:101a70001000200001003e000000200007f0a70039
:101a80000000ea004f06be004f05be004f04be0036
:101a900000000600e48240001078a3000700320036
:101aa000640240001178a3003400be001401be009f
:101ab000050032000330a700000006003500780062
:101ac000b50078001501be000330a000000006003c
:101ad00005ff270005826100070032000428e100ad
:101ae00001003200240005000600070001003a0052
:101af000440005000408050002000700f9ff3a0051
:101b0000140005006f82610081027000850271007f
:101b100085027200000006005002be00e400500082
:101b20005003be004439de00f700b200f37f20000e
:101b300003016100090032000218e10016003a00ba
:101b40008501720083017300838173000008200007
:101b500015003a0040002000130037008501720094
:101b6000830173008381730005003a0004a8be005e
:101b700006a8be00100020000b0037000201e9009b
:101b80000402420085824a0006034b0087834b0013
:101b90000748a300f9ff32000740a00004a8be00d8
:101ba00006a8be0020002000800098009200980047
:101bb00000000600889fbe008a9fbe00841f780038
:101bc0001dfe07004f00780011003300f0ff2f00ca
:101bd000838f6c0006003b00040565000a00a70027
:101be0000800370009f0a6001000200008003700a8
:101bf000820f5400838f5c00030039001000200026
:101c000001003e000000200009f0a7000000ea00eb
:101c10004f05be004f04be000000e00000000600bb
:101c2000881f7800030478000300e00007003d00ef
:101c300060001000e080180060011900e0811900c8
:101c400002003b0001f02d00030037002f000700c9
:101c500008f0a70001f0a0004f0478000000060083
:101c6000889fbe000082700004027100048271002f
:101c70002400320036432000c50020008383cf00bb
:101c80000a0039000541b1008283cf000700390006
:101c90000541b1008183cf00040039000541b10046
:101ca0008083cf00010039000541b10085c3530096
:101cb0006022b800120032000a003b0084827200e9
:101cc000610260008301d1000281d3008180d300d2
:101cd0000080d3000603e8008743e800f7ff3a00de
:101ce00007003700000040008180480002014900e1
:101cf000838149000603e9008743e900f9ff3a00c0
:101d0000b5fc07004f04be0000000600889fbe001f
:101d10008a9fbe000082700004027100048271007c
:101d2000260032000004be000200be006011b800b0
:101d30006b092000950220000182cf000a003900c3
:101d40000541b1000082cf00070039000541b10014
:101d50000982cf00040039000541b1000882cf009c
:101d6000010039000541b100054252001200320065
:101d70000a003b0082817100610164008100d10092
:101d80000080d3008984d3000884d3008b05e80049
:101d90000442e800f7ff3a00070037000804440057
:101da00089844c0000004800818048008b05e900d0
:101db0000442e900f9ff3a0064fd07004f05be0048
:081dc0004f04be000000060004
:020000040000fa
:101dc80001000000020000000400000008000000fc
:101dd800100000002000000040000000800000000b
:101de80000010000000200000004000000080000dc
:101df80000100000002000000040000000800000eb
:101e080001000000020000000400000008000000bb
:101e180010000000200000004000000080000000ca
:101e2800000100000002000000040000000800009b
:101e380000100000002000000040000000800000aa
:101e4800300400003404000038040000400400009e
:101e580044040000480400004c0400005004000042
:101e680054040000580400005c04000060040000f2
:101e780064040000680400006c04000070040000a2
:101e88007404000078040000686500006c6c0000b1
:101e98006f000000736100006c7500007420000082
:101ea8006c65000073200000746500007272000009
:101eb800696500006e7300000041000041410000a8
:081ec800414100000000000090
:020000040000fa
:101ed0000400fa00000f780011079800012080002c
:101ee000f08f2f000080600000a0a000002088007c
:101ef0000000000001208000000e200080806000b3
:101f000000082000808f5000faff3a000004a8006b
:101f10001e0078008000400040f228000080400051
:101f2000100078009e009000c508dd000130a00080
:101f3000010878000004a9000080fa0000000600f3
:101f40000800fa001007980021079800320798004f
:101f50000000eb00000f7800090037001e00900021
:101f60004300dd001e004000800040000010210002
:101f7000008040008000eb00010878001e0fe800a0
:101f80001e007800e70f5000f4ff360001208000ab
:101f9000f08f2f000080600000a0a00000208800cb
:101fa0000000000001208000000e20008080600002
:101fb00000082000808f5000faff3a000004a800bb
:101fc0009e00900080ff270000804000000040003d
:101fd000310020000008dd000080ea008000780069
:101fe000d020800000806000d02088009e009000fb
:101ff00080ff27000080400000004000be009000ed
:102000008008dd00d020800001007000d020880012
:102010001e00900080004000a0f2280000804000d8
:1020200010007800ae009000c508dd0001087800bf
:102030001e009000e30f500011003e001e009000b3
:102040004200dd00f10020000008dd000080ea0011
:10205000800078000021800000806000002188005e
:102060001e0090004200dd009e0090008008dd0010
:10207000002180000100700000218800440037002a
:102080001e009000e70f500015003e009e009000db
:10209000c0ff2300008040004200dd00f10020006e
:1020a0000008dd000080ea00800078001021800038
:1020b00000806000102188009e009000c0ff230077
:1020c000008040004200dd009e0090008008dd009e
:1020d0001021800001007000102188002c003700c2
:1020e0001e009000ea0f500015003e009e00900078
:1020f00080ff2300008040004200dd00f10020004e
:102100000008dd000080ea008000780020218000c7
:1021100000806000202188009e00900080ff230046
:10212000008040004200dd009e0090008008dd003d
:102130002021800001007000202188001400370059
:102140009e00900040ff2300008040004200dd0020
:10215000f10020000008dd000080ea008000780027
:102160003021800000806000302188009e009000b7
:1021700040ff2300008040004200dd009e009000f0
:102180008008dd00302180000100700030218800cf
:102190001e0090008000400040ee280000804000bb
:1021a00090007800a020800001007000a02088002e
:1021b0000004a90010c0b30010f0b7000080fa00be
:1021c000000006000c00fa00100798004147980034
:1021d00032079800430798005407980001208000b8
:1021e000f08f2f000080600000a0a0000020880079
:1021f0000000000001208000000e200080806000b0
:1022000000082000808f5000faff3a000004a90067
:10221000f001280030208800ce0090005e00900081
:10222000008040000080ea00700f40000164a900b7
:102230005e00900000407800674060000040e900c8
:10224000674060000080fb00670060004300dd0025
:102250009220800071fc2f0081006100010070005d
:102260009020880012e4a8001e007800004078004a
:10227000674060000040e900674060000080fb00ac
:10228000670060004800dd0092208000f18f2f0081
:102290008100610001007000902088004e009000d5
:1022a00000407800674060000040e900674060003f
:1022b0000080fb00670060009220800081ff2f00fb
:1022c0008100610001007000902088004e40900065
:1022d000614060000080fb00610060004600dd009e
:1022e00092208000f1fb2f0081006100010070004e
:1022f000902088003e00900000407800634060001d
:102300000040e900634060000080fb006300600063
:102310004600dd0082208000f1f32f008100610083
:1023200001007000802088001e00900000407800ae
:10233000f043b2008080fb00f003200000806000ca
:102340008220800001fc2f008100610001007000ec
:102350008020880001cba90001aba80001588000b3
:10236000f0fc2f00008060000050a00000588800a2
:1023700001588000c0ff2f000080600000588800d6
:1023800060042000105888007000200070588800f9
:102390002044200060588800001021002058880048
:1023a000001021003058880001eba80030e4a8009c
:1023b000802180003000b3008021880031e4a80033
:1023c0008121800000302000010070008021880001
:1023d00032e4a800902180003000b30090218800f2
:1023e00033e4a8009121800000302000010070003b
:1023f0009021880034e4a800a02180003000b300c0
:10240000a021880035e4a800a12180000030200030
:1024100001007000a021880036e4a800b0218000ef
:102420003000b300b021880037e4a800b12180005b
:102430000030200001007000b021880010d0bf00e3
:102440000004e0001600320011cba90011aba90076
:1024500081588000f0fc2f00008060000050a00038
:102460008058880081588000c0ff2f0000806000e5
:1024700080588800200220009058880070002000ba
:10248000f058880000442000e05888000010210027
:10249000a058880000102100b058880011eba80057
:1024a00001208000f08f2f00008060000020880055
:1024b0000000000001208000000e2000008060006d
:1024c0000000e000fbff3a000080fa000000060078
:1024d0000c00fa0020079800310798004207980086
:1024e000530798005e009000e30f50001600320082
:1024f000e30f500005003e00e10f50000e003200d7
:10250000e10f50000e003e0009003700e50f5000bb
:1025100011003200e50f50000d003900e60f5000a9
:102520000f003200e70f50000f003200100037009c
:102530003064a9000e0037003164a9000c00370098
:102540003264a9000a0037003364a900080037008c
:102550003464a900060037003564a9000400370080
:102560003664a900020037003764a90000000000ab
:102570002e009000c200dd005e0090004401dd00ee
:102580000010210000004100010878005e0090006a
:10259000c400dd0020102100008040008000eb001e
:1025a000010878005e009000c400dd0040102100aa
:1025b00000804000ce00900001087800011021004a
:1025c0005e0090004400dd00660040000080400096
:1025d000100798000000eb00000f7800070037009c
:1025e0001e0090001e004000be0090009e80400033
:1025f00091407800014878001e0fe8004e009000de
:102600009e007800808f5000f5ff39005e0090003a
:10261000e30f500016003200e30f500005003e00ab
:10262000e10f50000e003200e10f50000e003e009e
:1026300009003700e50f500011003200e50f50008f
:102640000d003900e60f50000f003200e70f500078
:102650000f003200100037003064a8000e00370071
:102660003164a8000c0037003264a8000a0037006b
:102670003364a800080037003464a800060037005f
:102680003564a800040037003664a8000200370053
:102690003764a800000000000080fa000000060077
:1026a0000800fa00000f7800110798002207980030
:1026b000330798002e0190009e0090001e007800c5
:1026c000be01900082ff07000080fa0000000600b3
:1026d0000200fa00000f78001e007800e30f50009f
:1026e00029003200e30f500005003e00e10f5000ca
:1026f00014003200e10f50001b003e0009003700bb
:10270000e50f500031003200e50f5000270039007e
:10271000e60f500036003200e70f50003c00320058
:1027200044003700802180006800600000f0a700ae
:102730000000ea000000e9004f00de0000407800e1
:102740003d00370081218000008020000080600073
:1027500000f0a7000000ea000000e9004f00de00e2
:10276000004078003400370090218000680060004d
:1027700000f0a7000000ea000000e9004f00de00c2
:10278000004078002c00370091218000008020005c
:102790000080600000f0a7000000ea000000e900ef
:1027a0004f00de000040780023003700a0218000a9
:1027b0006800600000f0a7000000ea000000e900e7
:1027c0004f00de00004078001b003700a121800090
:1027d000008020000080600000f0a7000000ea00f8
:1027e0000000e9004f00de000040780012003700d2
:1027f000b02180006800600000f0a7000000ea003f
:102800000000e9004f00de00004078000a003700b9
:10281000b1218000008020000080600000f0a7004f
:102820000000ea000000e9004f00de0000407800f0
:10283000010037000040eb000080fa0000000600b5
:102840000a00fa0031079800024f98008e48900065
:102850000104e00009003200be0090000181400048
:1028600041ee280081004100110178000121800023
:10287000810061000100e000f4ff3200be00900022
:102880004409dd0001102100810041009100780021
:102890004209de00f17f200081006100010f780015
:1028a000be009000c408dd006481400001102100da
:1028b0008100410091007800ef80600021079800be
:1028c00002102100be009000c408dd00e680400038
:1028d0008100410011079800be0090000181400076
:1028e00041ee280081004100910078000181ea005a
:1028f0000121800081006100012188003e187800dc
:102900002e107800ae009000210098000080fa00a0
:10291000000006000200fa00000f78001e00780098
:102920008000400040ee28000080400090007800c9
:10293000002180000080600000f0a7000000ea0095
:102940000000ea004f00de00004078000080fa003e
:10295000000006003c00fa00889fbe00301f98006f
:10296000411f9800521f980069f807003e18900018
:10297000ce18900069fa07000203be000002be00f4
:102980006000b80002482800e3112400f6f80700b0
:102990006022b8000600200007ff230068fb070044
:1029a000500798006107980072079800030f98007d
:1029b0005e009000ee0090007e0190008e09900075
:1029c00061fb070059fa070036fa0700100f98005c
:1029d0005e009000ee0090007e0190008e09900055
:1029e00059fb0700d3f807002efa0700200f9800c4
:1029f0001e0890000000e8008000eb0047fa070086
:102a00000203be000002be006000b80002482800b9
:102a1000e3112400d4f80700300f9800410f98000c
:102a2000520f9800630f98002e0890000000e800f5
:102a30008000eb0039fa07000203be000002be006e
:102a40006000b80002482800e3112400c6f807001f
:102a5000700f98000117980012179800231798001c
:102a60003e189000ce1890002cfa07000203be001a
:102a70000002be003e089000ce0890005e09900063
:102a8000ee0990002efb07002ffb07000004be009c
:102a900009f0a1003e189000ce18900021fa07001e
:102aa0000001be000800be0009f907008ff9070009
:102ab0003017980041179800521798006317980034
:102ac0003e189000ce18900014fa07000203be00d2
:102ad0000002be007e0890008e1090001e11900033
:102ae000ae11900016fb070017fb07000004be00a4
:102af00009f0a1003e189000ce18900009fa0700d6
:102b00000001be000800be00f1f8070077f90700d9
:102b100070179800011f9800121f9800231f98003b
:102b20009e089000010f78003e0a9000ce0a9000a7
:102b30005e0b9000ee0b900014079800250798009c
:102b400036079800470798005e189000e10f500084
:102b500005003200e10f500019003900e20f50006b
:102b60000c0032003b003700ae0a9000050f7800e1
:102b70007e0a90008e1290001e139000ae139000fb
:102b80001407980025079800360798004707980013
:102b9000300037009e0a9000050f78003e0a900032
:102ba000ce0a90005e0b9000ee0b90001407980088
:102bb000250798003607980047079800250037003a
:102bc00018c0b3003e129000ce1290005e13900029
:102bd000ee1390007e1090008e1890001e19900049
:102be000ae1990005bf807000000e000010035001e
:102bf0000044eb000804e0000b003200ae0a900035
:102c0000050f78007e0a90008e1290001e1390002f
:102c1000ae13900014079800250798003607980017
:102c2000470798000b0037009e0a9000050f7800b8
:102c30003e0a9000ce0a90005e0b9000ee0b9000d2
:102c40001407980025079800360798004707980052
:102c500000000000b0f22f00b3f707009e027800da
:102c60004511880000802000001188000010280015
:102c70001011880021e2a8002342a8001e00900045
:102c8000ae0090003e019000ce0190004f04be00c7
:102c90000080fa00000006000000fa0000000000ba
:102ca0001111800000102000008060000000e00092
:102cb000fbff32000080fa00000006000a00fa0064
:102cc0002007980031079800024f9800ae0090004e
:102cd000110798000000eb00000f78000e0037008d
:102ce0000000000011118000002020000080600022
:102cf0000000e000fbff3a001e009000104078004a
:102d00000080fb00201188001e0fe8001e009000cc
:102d10000000e800100798003e0090009e00780038
:102d2000808f5000eeff39000e4890000004e00054
:102d300001003200d8ff07000080fa000000060002
:102d40000a00fa002007980031079800024f980007
:102d50000000eb00000f7800ae0090001107980013
:102d60000000eb00000f7800340037000e489000a0
:102d70000004e000040032006001210010407800ef
:102d80000004e000f9ff3a00ff3ffc001e00900045
:102d90000000e0000c003200a080800063004000d2
:102da00080004000200121000080400010007800d9
:102db000804078001e009000014878001e009000be
:102dc0000000e80010079800a1808000f0032000b8
:102dd000808f500003003200a08080000000e800d7
:102de000010037000000eb00a08088009180800087
:102df000a08080000080680000f0a7000000ea00ca
:102e00000000e9004f00de008040780060012100f2
:102e10000148780060012100104078000004e000c3
:102e2000040032000000eb00908088000000eb00fe
:102e3000a08088000000fc001e0fe8003e0090000b
:102e40009e007800808f5000080031006001210052
:102e5000104078000004a2000004e000c3ff3a0024
:102e60000e4890000004e000c0ff3a001e00780009
:102e70000080fa00000006000200fa009180800045
:102e8000a08080000080500001042000808040006d
:102e9000f0032000008f60001e0078000000e000ba
:102ea00007003a0060012100104078000004a200f1
:102eb0000004e0000200320000042000010037009e
:102ec0001e0078000080fa00000006000600fa00ec
:102ed000200798000000eb00000f78000000eb00d6
:102ee00010079800040037001e0fe8001e00900035
:102ef0000000e800100798001e009000ae0090004f
:102f000000804000104078000004e000060032001d
:102f10001e009000ae00900000804000104078003d
:102f2000ea4f5000f0ff3a001e00e8000080fa006f
:102f3000000006000a00fa00889fbe0040079800c3
:102f40000f0478000f007800800478004e00900095
:102f5000deff0700100798001e0090008000e900c7
:102f6000210798000000e8000000e8000000d10000
:102f7000800040000f007800818747000000e800d3
:102f80000000d10000004000300798000000eb0076
:102f9000000f7800090037001e007800ce00900076
:102fa0000080400010407800804078003e00900093
:102fb0001e004000014878001e0fe8001e0090002f
:102fc0009e007800808f5000f3ff35009e00900037
:102fd0003e00900012c0b30038ff07008907780058
:102fe000880778004f04be000080fa000000060049
:102ff0000800fa00889fbe008a9fbe003007980034
:103000005ff607000370ef000270ef000068a90090
:10301000c0ff2f0066f60700be009000f0032000fe
:10302000808f500005003e008000200010079800af
:10303000f0fd2f00000f780017003700be00900051
:10304000a0202000808f500005003e0000042000da
:1030500010079800f0fe2f00000f78000e003700d8
:1030600000102000100798000080eb00000f78008f
:10307000be009000f0822000808f500006003600d5
:10308000be00900001808800008320003007980077
:1030900010c0b30003f0b7000000eb0093f6070088
:1030a0003e0090008000eb009cf807006022b80012
:1030b00006002400f70b2400f7f807000205be0005
:1030c0000004be001e0090008000eb0093f8070093
:1030d0000203be000002be000800be000a01be00de
:1030e00021f7070049f807002007980090fb2f0000
:1030f0001e006000ae0090005ff6070000000000b8
:1031000002d0bf000004a2000004e000fcff3a006f
:103110001bf6070070ff2f0025f607008000eb006c
:10312000f0ff270054f607000000eb006ff60700e1
:103130004f05be004f04be000080fa0000000600ec
:103140000e00fa00881f7800404f9800514f9800f9
:103150004e4890000080fb00cf80de006cf8070036
:10316000020020000310240041f90700008fbe0078
:10317000d000200020079800200120003007980090
:103180003e0090008000eb0066f8070018c0b30016
:103190001e0178009e0190001af807000000e00070
:1031a00001003d000044eb000804e0000200320092
:1031b0000000eb001a0037002e0090008000eb00aa
:1031c00058f807000001be001e0078009e00900025
:1031d0007af6070002002000030c24003cf70700e9
:1031e00040079800510798005e4890000004e000f6
:1031f000060032004e009000de009000cdf6070081
:1032000028f8070000007800050037004e00900005
:10321000de00900045f8070022f807000000780063
:103220004f0478000080fa00000006000000fa0059
:10323000d7f50700c0ff2f00ecf507000080fa006b
:10324000000006000400fa00000f78001107980043
:103250009e009000218088000630ef009e007800dc
:10326000418088000000eb0022f6070001f42100f5
:10327000d0f82f0004f607000080fa0000000600d6
:103280000000fa008000eb00f0ff2700fef50700c9
:103290000080fa00000006000000fa00c0f50700f8
:1032a000c0ff2f00e3f507000080fa0000000600d1
:1032b0000400fa00000f7800110798009e009000ab
:1032c000518088000c30ef009e00780071808800eb
:1032d0000000eb0009f6070001f42100d0f82f00f0
:1032e000eef507000080fa00000006000000fa007a
:1032f0008000eb00f0ff2700e8f507000080fa00ef
:10330000000006000000fa000081eb008081eb0065
:10331000d0fb2f00e5f507006000b800f9f50700c5
:103320000080fa00000006000c00fa00e6f5070035
:10333000008fbe001e0078009e009000f7f7070087
:103340006022b80006482800e716240086f6070029
:103350006022b80006002400f71124004ef8070090
:1033600020079800310798004207980053079800fb
:103370002e009000be0090004e019000de019000f3
:103380000080fa00000006001800fa00200f9800e4
:10339000310f980042c7bf008080fb00f00b200077
:1033a000008160006004200071052000237420006b
:1033b0008049780081497800824978002136800070
:1033c00000f82f0080806000a00220000100700043
:1033d0002036880041348000f00f2c00008060000f
:1033e0000080a00040348800a136800000f82f0043
:1033f000808060009002200001007000a0368800ec
:103400003134800000fc2f0000806000e000b30039
:103410003034880042c7bf000064a0000081fb0078
:10342000600420007105200023742000804978008a
:10343000814978008249780000582200010020006c
:10344000008fbe000001eb001e0078009e0090007f
:1034500040fd07006400470012c0b30021002000b7
:1034600037fe07006400470012c0b30021002000af
:1034700012fe0700e600470012f6280005000900ca
:10348000b25878006600470012c0b3006100200007
:103490000afe070080f42800a6fe0700e0f42800da
:1034a000a4fe0700f17f20000000eb0088fa07006f
:1034b0000001eb003112200080002000a0fa07007c
:1034c00074002000630020001200200011c0b3002f
:1034d000100020003bfb070020c1b300404f9800c4
:1034e00000102000700798006c004700000f980043
:1034f00010002000100f98008001eb007e0090006b
:103500008e0890001e09900065fc07000000eb008b
:083510000080fa000000060033
:020000040000fa
:1035180000110000000100008000000010100000f1
:103528000200000080000000121000008600000069
:103538008200000000000000000100000000000000
:103548000000000000000000000000000000000073
:103558000000000000000000000000000000000063
:103568000000000000000000000000000000000053
:103578000000000000000000000000000000000043
:103588000000000000000000000000000000000033
:103598000000000000000000000000000000000023
:1035a8000000000000000000000000000000000013
:1035b8000000000000000000000000000000000003
:1035c80000000000000000000000000000000000f3
:1035d80000000000000000000000000000000000e3
:1035e80000000000000000000010000010000000b3
:0835f80080000000000000004b
:020000040000fa
:020000040005f5
:045fe000cfff0000ef
:020000040000fa
:020000040005f5
:045fe400efff0000cb
:020000040000fa
:020000040005f5
:045fe8007fff000037
:020000040000fa
:020000040005f5
:045fec003eff000074
:020000040000fa
:020000040005f5
:045ff000baff0000f4
:020000040000fa
:020000040005f5
:045ff400ffff0000ab
:00000001FF
