:020000040000fa
:080000000002040000000000f2
:020000040000fa
:1000080086040000860400008604000086040000c0
:1000180086040000860400008604000086040000b0
:1000280086040000860400008604000086040000a0
:100038008604000086040000860400008604000090
:1000480026030000860400008604000086040000e1
:100058008604000086040000860400008604000070
:100068008604000086040000860400008604000060
:100078008604000086040000860400008604000050
:100088008604000086040000860400008604000040
:100098008604000086040000860400008604000030
:1000a8008604000086040000860400008604000020
:1000b8008604000086040000860400008604000010
:1000c8008604000086040000860400008604000000
:1000d80086040000860400008604000086040000f0
:1000e80086040000860400008604000086040000e0
:1000f80086040000860400008604000086040000d0
:1001080086040000860400008604000086040000bf
:1001180086040000860400008604000086040000af
:10012800860400008604000086040000860400009f
:10013800860400008604000086040000860400008f
:10014800860400008604000086040000860400007f
:10015800860400008604000086040000860400006f
:10016800860400008604000086040000860400005f
:10017800860400008604000086040000860400004f
:10018800860400008604000086040000860400003f
:10019800860400008604000086040000860400002f
:1001a800860400008604000086040000860400001f
:1001b800860400008604000086040000860400000f
:1001c80086040000860400008604000086040000ff
:1001d80086040000860400008604000086040000ef
:1001e80086040000860400008604000086040000df
:0801f8008604000086040000eb
:020000040000fa
:1002080086040000860400008604000086040000be
:1002180086040000860400008604000086040000ae
:10022800860400008604000086040000860400009e
:10023800860400008604000086040000860400008e
:1002480026030000860400008604000086040000df
:10025800860400008604000086040000860400006e
:10026800860400008604000086040000860400005e
:10027800860400008604000086040000860400004e
:10028800860400008604000086040000860400003e
:10029800860400008604000086040000860400002e
:1002a800860400008604000086040000860400001e
:1002b800860400008604000086040000860400000e
:1002c80086040000860400008604000086040000fe
:1002d80086040000860400008604000086040000ee
:1002e80086040000860400008604000086040000de
:1002f80086040000860400008604000086040000ce
:1003080086040000860400008604000086040000bd
:1003180086040000860400008604000086040000ad
:10032800860400008604000086040000860400009d
:10033800860400008604000086040000860400008d
:10034800860400008604000086040000860400007d
:10035800860400008604000086040000860400006d
:10036800860400008604000086040000860400005d
:10037800860400008604000086040000860400004d
:10038800860400008604000086040000860400003d
:10039800860400008604000086040000860400002d
:1003a800860400008604000086040000860400001d
:1003b800860400008604000086040000860400000d
:1003c80086040000860400008604000086040000fd
:1003d80086040000860400008604000086040000ed
:1003e80086040000860400008604000086040000dd
:0803f8008604000086040000e9
:020000040000fa
:100400006fdc21000e7f22000e018800000000003a
:10041000000020000000e000020032000001200087
:10042000200288000c000700c026240011002000d4
:100430000f000700000020000000e0000200320072
:100440000000020000000000842c020001000000f7
:100450000040da000000fe0040f622000000e0004c
:1004600002003200002020009001880000000600f9
:10047000a1028800800078000000eb001a0037001d
:10048000e280400054a0b4009101ba00e280400034
:1004900054a0b4009102ba00e280400054a0b4001d
:1004a0000002eb00472bde00f507b200a601880032
:1004b000602ce10008003a000049eb000201e8006e
:1004c000020039003420ec0002f0a0008301e900b2
:1004d000f9ff3e00040037006128e100010032000e
:1004e0000082eb00040007001101ba000200e000e6
:1004f000e3ff3a000000060004d0a300e20f490029
:100500001c003900810278003549ba000201e80078
:10051000020039003420ec0002f0a0008301e90061
:100520000f0032002549ba000201e800020039003c
:100530003420ec0002f0a0008301e9000800320042
:100540000400e0000600320015c9ba000201e8000c
:10055000020039003420ec0002f0a0008301e90021
:100560008180e80054a0b4000300e000e2ff3a00fc
:10057000000006009102ba00055978008301e900e5
:10058000f7ff3200c82ade00055978008301e90030
:10059000f3ff32000400e000f1ff320011d9ba008d
:1005a000eeff3700600b040001000000543504002a
:1005b0000100000082340400010000005c340400eb
:1005c00001000000f649040001000000c4490400d5
:1005d00001000000a81b040001000000ba1a04007a
:1005e00001000000ac210400010000000a1f04000b
:1005f000010000005e250400010000001c22040030
:10060000010000009228040001000000a03f040047
:1006100001000000643f040001000000fa3a0400f9
:1006200001000000603a040001000000043a0400e8
:1006300001000000b23a0400010000003e2904005d
:1006400001000000782d04000100000000a0fe0061
:100650003600f800849fbe00869fbe003200f8007e
:100660003400f80014002000a401880004202000b9
:1006700094018800304f8000414f800061004000ad
:10068000e0804800304f8800414f88000a21ef0089
:100690008500a900162f0200010000003400f900b7
:1006a0003200f9004f03be004f02be003600f900d1
:1006b0000080fe00004006000a21ef00e039200023
:1006c000700888008500a9009500a80013e1a80023
:1006d000000006001000fa0010002000a0bf9f00dc
:1006e00030002000b0bf9f0060002000c0bf9f000e
:1006f0000040eb00a0ff9f0030052000e0bf9f00fe
:100700000000eb00f0bf9f00d802a900dc02a900a6
:10071000cde2a900c9e2a900e0e4a900e0c4a90073
:10072000e764a900e884a900e8a4a900e8c4a90036
:10073000e8e4a900e6c4a900e6e4a900e284a9006f
:10074000e264a900d9a2a800d982a900dd82a8008c
:10075000e842a900ec42a800d902a900e902a900d8
:10076000d922a800e8a2a900e882a800103a8000d7
:10077000f00bb200620420007305200021742000f9
:1007800082487800834878008048780000fc2f0079
:100790003435800084006000a100b300313588004a
:1007a000f40f2c008136800081026200015020008d
:1007b00085807000813688001536800085006000d5
:1007c0000130a00011368800a806b6000020a00065
:1007d0004035880070368000000262000070200002
:1007e0000400700070368800103a80000060a0009d
:1007f000217420008248780083487800804878007f
:100800005cfe0200000000006c805700fe3b02000e
:10081000010000006e815700ef8057007080570084
:10082000203c020001000000a3ff07008ff09700aa
:100830000180fb004800dd00aff097008180fb00e5
:1008400000807000e10b240001004000e10f500027
:1008500005003e008001eb00e23020002131200045
:1008600060312000020037006011b8006000b8005d
:10087000143f0200010000000080fa0000000600a2
:10088000a2312000613120002031200016520200e8
:10089000010000000010270021002000f254040095
:1008a00001000000881f7800810278009000780025
:1008b00016302000868f50000600320016002100fe
:1008c000868f5000030032000004eb00e18f5000df
:1008d0000b003a0020039000b0039000100090003d
:1008e000180020000000e00005003a00060041006a
:1008f000878049000401be00603a02000100000048
:10090000080078004f047800000006000040da007c
:100910000000fe00889fbe0080047800a0af800029
:100920000000e00004003a000e0007000084eb0025
:100930000000e00008003500a8af80000900e000da
:100940000500320009004400060007000000e00036
:1009500001003d000084eb00080078004f04be0059
:1009600000000600800078000100e00003003a006b
:10097000605f2100a0af8800000005000080eb0050
:1009800062dc2100828f500002003e00a1af88008f
:100990000000eb0000000600839f68000100e000fb
:1009a00002003d0060001000e08018000300e0003d
:1009b00002003d0060011100e08119000500070000
:1009c0004f00e00002003b0060001000e0801800d3
:1009d000000006006022b800060220000000d000df
:1009e0008180d2000482d2008582d2000000a00063
:1009f0000202520083825a000300310002024200c8
:100a000083824a000000a1000603e900f3ff3a00d8
:100a100000000600020ab900001bb9000200b8007d
:100a20008100420081004300000006000000e00059
:100a30002f003200c0017800e38f51002c003600f7
:100a40000308a3002a003a0061af80000100e00023
:100a500002003200810f50000400310011009800a4
:100a600060af880016003700820078001101900006
:100a70000200e00002003200800f5100faff39004e
:100a80001102780084824000850f50001800390060
:100a9000808f520003003a00830842000100780072
:100aa000070037000200e00003003200830140002d
:100ab000830f51000e00390012009800900098003a
:100ac000900090000100e000090032001001400099
:100ad000828f500006003a00a25e21000009eb0060
:100ae0001001780011084100910090001100980059
:100af00000000600889fbe000004780051af80000f
:100b00000100e00002003200010078000d00370013
:100b100061af8000c05e210004003700910f5400d7
:100b2000250036000180e800910090000100e000ff
:100b3000faff3a0010003700920f54001e003600f2
:100b40000280e800100178000200e000faff3a009d
:100b50001101780061af8000c05e21000400370001
:100b6000910f5400140036000180e80091009000bd
:100b7000828f5000faff3a0099af8000888f5400ae
:100b80000100310088047800090078008e00070019
:100b90000000e00004003a00888f54000500320095
:100ba0008904d100f5ff3700091878009fff07007e
:100bb000d2ff37000000eb004f04be00000006002b
:100bc000881f7800630440000800a1008000eb004b
:100bd000800f540021003600e30f540001003e0056
:100be0004800200008007800c2ff07008000eb00ea
:100bf0000000e000190032009000780091017800b8
:100c000064815100880f51000300310011019000f0
:100c100002087800070037000881400002087800c9
:100c2000910190001301980010017800110914003f
:100c300088087800100178000000eb000200e00056
:100c400004003200920190000300e0000100320035
:100c50000280e80050af88008180e8000100780041
:100c60004f04780000000600889fbe00f09c8000c2
:100c70000000e0000100320000000100009d800043
:100c80000000e0000100320000000100c039210036
:100c90001004e00022003a0070af800081af8000b5
:100ca00088002000d26026009301200059ff070031
:100cb000f2352f00e3c62300000041008180490087
:100cc0000804e900f7ff3a00283a2100090820004b
:100cd00088844400d2602600930120004dff070065
:100ce000f2352f00e3c62300000041008180490057
:100cf00000acbe00890f5400f6ff3a0070af8800c8
:100d000081af880010a1800021a18000109d880083
:100d1000219d880011c0b300c0392100014878002e
:100d2000d26026009301200070af800081af800068
:100d300038ff0700f2352f00e3c623000002410010
:100d40008182490074af880085af8800203a210075
:100d5000100078007f0160004211dd00603a210040
:100d6000020140001200be00109d8800219d8800f5
:100d70000489be000100780000f0a1004f04be000d
:100d800000000600889fbe0000047800f09c8000f0
:100d90000000e0000100320000000100c039210025
:100da0000048eb00009d80000000e00001003200e0
:100db000000001008004eb0078af880089af880054
:100dc0004f04be0000000600800078000000eb0029
:100dd0000100e0000500340001007800cdfe0700ae
:100de000e10f400001003a000000eb0000000600a7
:020000040000fa
:100df00000040000200000003d0000001100000081
:100e0000058000000000000009a2000000000000b2
:100e100009d50000000000000908000001000000e2
:100e2000093b000001000000096e00000100000005
:100e300009a100000100000009d400000100000029
:100e40000a07000002000000083a0000020000004b
:100e5000065c0000020000000d7e000002000000a1
:100e60000bc200000200000009f5000002000000b3
:100e700009280000030000000b5b000003000000d5
:100e8000088e00000300000008b00000030000000e
:100e900009d2000003000000080500000400000063
:100ea00005270000040000000549000004000000c0
:100eb0000e6b00000400000009af000004000000f9
:100ec00009e2000004000000061500000500000013
:100ed000083700000500000006590000050000006a
:100ee000097b00000500000008ae000005000000be
:100ef00000000000000000000000000000000000f2
:100f000000000000000000000000000000000000e1
:100f100000000000000000000000000000000000d1
:100f200000000000000000000000000000000000c1
:100f300000000000000000000000000000000000b1
:100f400000000000004000000f000000d00f000073
:100f500000b000000e000000000e000000000000c5
:100f60000e000000000e0000000000000e00000057
:100f7000000e0000000000000e000000000e000047
:100f80000000000000000000000000000000000061
:100f90000000000000000000000000000000000051
:100fa000000000000000000000000000e46f0000ee
:100fb00000b80000f500000000e0000001000000a3
:100fc000f001000000f40000000000003d000000ff
:100fd000400f000000d0000003000000f8550000a2
:100fe00001fc0000ff010000000000000000000004
:100ff00000000000000000000000000000000000f1
:1010000000000000000000000000000000000000e0
:1010100000f400006f00000078f500000000000000
:10102000e000000000f9000000f000002f000000c8
:1010300050f9000000000000f000000000f0000087
:10104000007c0000f9000000f82f00000000000004
:101050000000000000000000000000000000000090
:101060000000000000000000000000000000000080
:101070000000000000000000007c000000000000f4
:101080007e000000407b000000c0000077000000f0
:10109000d075000000f400007400000078b9000072
:1010a00001fc0000ff0300000074000000000000cd
:1010b00074000000000000000000000000000000bc
:1010c0000000000000000000000000000000000020
:1010d0000000000000000000000000000090000080
:1010e0003f000000f016000000b400000000000007
:1010f0007c00000000fc00006f000000bcf4000059
:10110000003c0000e000000078e0000000f4000077
:10111000f5000000d02f00000000000000000000db
:1011200000000000000000000000000000000000bf
:1011300000000000000000000000000000000000af
:1011400000000000fcff000000540000f50000005b
:1011500000b40000000000003c000000002d000072
:10116000000000000f000000400b000000c0000065
:1011700003000000d002000000f0000000000000aa
:10118000000000000000000000000000000000005f
:10119000000000000000000000000000000000004f
:1011a000000000000000000000e400006f000000ec
:1011b000bcf50000003c0000e0000000b8f40000b6
:1011c00000e000003f000000f47d0000003c000053
:1011d000f00000003ce0000000b80000f500000056
:1011e000e46f0000000000000000000000000000ac
:1011f00000000000000000000000000000000000ef
:1012000000000000000000000000000000000000de
:10121000000f0000004000001f000000c07a000026
:1012200000d00000f5000000f0f0000001f4000024
:10123000d0020000fcff0000023d0000400b000057
:101240001e0000000f0f0000000e00000000000054
:10125000000000000000000000000000000000008e
:10126000000000000000000000000000000000007e
:10127000fc3f00003c0000003c0000003c0000007f
:10128000fc3f00003c0000003c0000003c0000006f
:101290003c000000fc3f00000000000000000000d7
:1012a000000000000000000000000000000000003e
:1012b00000000000fd070000f0000000f00000004a
:1012c000f0000000f0000000f0000000f00000005e
:1012d000f0000000f0000000fd070000000000002a
:1012e00000000000000000000000000000000000fe
:1012f00000000000000000000000000000000000ee
:1013000000000000bc000000f4000000fc00000031
:10131000f8000000ec020000ed000000ec0300000b
:10132000ee0000007c070000e70000003c4f0000da
:10133000e70000003cde0000e30000003ced0000a0
:10134000e10000003cf80000e00000003cb40000b8
:10135000e0000000000000000000000000000000ad
:10136000000000000000000000000000000000007d
:10137000000000000000000000000000000000006d
:101380000000000000bc0000000e0000fc00000097
:101390000eec0000030e00007c0f00000e3c00006d
:1013a0001e0e00003c3d00000e3c0000b40e00008c
:1013b0003ce000000e3c0000d00f00003c4000006c
:1013c0000f0000000000000000000000000000000e
:1013d000000000000000000000000000000000000d
:1013e000000000000000000000000000fc2f0000d2
:1013f000003c0000f50000003cf00000003c000054
:10140000f00000003cf9000000fc00001f0000009c
:101410003c000000003c0000000000003c00000018
:10142000003c000000000000000000000000000080
:1014300000000000000000000000000000000000ac
:10144000000000000000000000000000000000009c
:1014500000fc00002f0000003cf50000003c0000f4
:10146000f00100003cf00000013c0000f50000002d
:10147000fc1f0000003c00002d0000003c3c000070
:10148000003c0000f40000003cf0000001000000ff
:10149000000000000000000000000000000000004c
:1014a000000000000000000000000000000000003c
:1014b00000000000000000003c0000000e3c0000a6
:1014c000000e00003c0000000e3c0000000e00007a
:1014d0003c0000000e3c0000000e00003c0000003c
:1014e0000e3c0000000f0000f49100000bd0000043
:1014f000ff010000000000000000000000000000ec
:1015000000000000000000000000000000000000db
:1015100000000000000000000000000000000000cb
:10152000f41f0000543d000000380000e43f0000bc
:10153000f83900003c3c00007c3d0000f43700001e
:10154000000000000000000000000000000000009b
:10155000000000000000000000000000000000008b
:1015600000000000d02f0000f41500007c000000f7
:101570003c0000003c0000007c000000f41500006e
:10158000d02f00000000000000000000000000005c
:10159000000000000000000000000000000000004b
:1015a000000000000000000000000000000000003b
:1015b00000d000002f000000f4f50000003c000007
:1015c000f0000000fcff0000003c000000000000f4
:1015d0007c00000000f4000055000000d07f0000f7
:1015e00000000000000000000000000000000000fb
:1015f00000000000000000000000000000000000eb
:1016000000000000000000000000000000f40000e6
:10161000ff7800003d3c0000787c00003df40000b5
:101620001ff0000000e000007fb80000e53c000073
:10163000d07c0000f4f400006f0000000000000007
:1016400000000000003c0000003c00000000000022
:10165000003c0000003c0000003c0000003c00009a
:10166000003c0000003c0000003c0000003c00008a
:10167000000000000000000000000000000000006a
:101680000000000000000000003c0000003c0000e2
:10169000003c0000003c0000003c0000003c00005a
:1016a000003c0000003c0000003c0000003c00004a
:1016b000003c0000000000000000000000000000ee
:1016c000000000000000000000000000000000001a
:1016d000000000000000000000000000000000000a
:1016e00000000000000000000000000000ec00000e
:1016f0006ffe0000017c0000f5d60000033c0000f6
:10170000f0810000033c0000f0400000033c0000ba
:10171000f0400000033c0000f0400000033c0000eb
:10172000f0400000033c0000f04000000300000017
:1017300000000000000000000000000000000000a9
:101740000000000000000000000000000000000099
:101750000000000000000000000000000000000089
:10176000000000000000000000000000ec7f00000e
:1017700000fc0000f50000003ce00000003c000020
:10178000e00000003ce00000003c0000e000000041
:101790003ce00000003c0000e00000000000000011
:1017a0000000000000000000000000000000000039
:1017b0000000000000000000000000000000000029
:1017c0000000000000000000000000000000000019
:1017d00000d000001f000000f4f50000007c0000b5
:1017e000f00000003ce00000003c0000e0000000d1
:1017f0007cf0000000f40000f4000000d01f0000a6
:1018000000000000000000000000000000000000d8
:1018100000000000000000000000000000000000c8
:1018200000000000000000000000000000ac00000c
:101830000ffc0000057c0000003c0000003c0000a4
:10184000003c0000003c0000003c000000000000e4
:101850000000000000000000000000000000000088
:101860000000000000000000000000000000000078
:1018700000f400002f7c0000157c000000f4000044
:10188000074000003f0000003c1800003dfc000045
:101890001b0000000000000000000000000000002d
:1018a00000000000000000000000000000740000c4
:1018b000003c000000ff00000f3c0000003c000066
:1018c000003c0000003c0000003c000000bc0000a8
:1018d0000cf400000f0000000000000000000000f9
:1018e00000000000000000000000000000000000f8
:1018f00000000000000000000000000000000000e8
:10190000000000003ce00000003c0000e00000009f
:101910003ce00000003c0000e00000003ce0000073
:10192000003c0000f0000000bcf5000000f40000e6
:10193000eb000000000000000000000000000000bc
:101940000000000000000000000000000000000097
:101950000000000000000000000000000000000087
:101960001ef400003c3c0000b41e0000d007000044
:10197000d00b0000b42d00003d7c00001ef40000e0
:101980000000000000000000000000000000000057
:1019900000000000200000007e0000001b0000008e
:1019a0000584000001000000069f00000100000007
:1019b0000aba0000010000000bf000000100000066
:1019c0000b26000002000000105c00000200000076
:1019d000109200000200000006c800000200000093
:1019e00007e300000200000007fe00000200000004
:1019f0000a19000003000000094f00000300000066
:101a0000058500000300000008a00000030000009e
:101a100005bb0000030000000bd60000030000001f
:101a20000b0c0000040000000b420000040000004a
:101a30000b780000040000000bae00000400000062
:101a40000be40000040000000b1a00000500000079
:101a50000b500000050000000b8600000500000090
:101a60000bbc0000050000000bf2000005000000a8
:101a700005280000060000000543000006000000e5
:101a80000a5e0000060000000a9400000600000044
:101a90000aca0000060000000a000000070000005b
:101aa00013360000070000000e870000070000004a
:101ab0000cbd0000070000000cf300000700000050
:101ac0000e290000080000000b5f00000800000065
:101ad0000b950000080000000dcb0000080000007e
:101ae0000f01000009000000073700000900000096
:101af00007520000090000000d6d00000900000001
:101b00000ba300000900000013d900000900000029
:101b10000f2a00000a0000000e6000000a0000000a
:101b20000c9600000a0000000ecc00000a00000025
:101b30000d0200000b0000000b3800000b0000003d
:101b40000d6e00000b0000000fa400000b00000051
:101b50000fda00000b000000141000000c00000061
:101b60000e6100000c0000000e9700000c00000049
:101b70000ccd00000c000000070300000d00000069
:101b80000b1e00000d000000085400000d000000b6
:101b90000b6f00000d0000000ba500000d00000001
:101ba00007db00000d0000000bf600000d00000038
:101bb0000c2c00000e0000000a6200000e00000065
:101bc0000c9800000e0000000bce00000e0000007c
:101bd000070400000f0000000c1f00000f000000b1
:101be0000d5500000f000000068b00000f000000e4
:101bf00006a600000f0000000cc100000f0000004e
:101c000006f700000f000000141200001000000092
:101c10000d630000100000000c990000100000008f
:101c20000ccf0000100000000c05000011000000a7
:101c3000093b0000110000000971000011000000c4
:101c400008a70000110000000cc2000011000000f5
:101c50000bf8000011000000102e00001200000020
:101c60000c640000120000000b9a0000120000003b
:101c70000ad0000012000000080600001300000057
:101c80000521000013000000083c000013000000c4
:101c90000b570000130000000000000000000000cf
:101ca0000000000000000000000000000000000034
:101cb0000000000000000000000000000000000024
:101cc0000000000000000000000000000000000014
:101cd00000000000080c00000c0c00000c0c0000c0
:101ce0000c0c00000c0c00000c0c000004000000a8
:101cf0000c0c00000c0000000000000000000000c0
:101d000000000000000000000000000000000000d3
:101d1000cc000000cc000000cc000000cc00000093
:101d2000cc000000cc000000cc000000c40000008b
:101d300000000000000000000000000000000000a3
:101d40000000000000000000000000000000000093
:101d50000000000000000000000000000000000083
:101d60000000000000000000000000000000000073
:101d70000000000000000000000000000000000063
:101d800000000000000000006002000020030000ce
:101d90002001000020010000fc070000900100006d
:101da0009000000098000000fe03000048000000c2
:101db0004c0000004400000064000000000000002f
:101dc0000000000000000000000000000000000013
:101dd0000000000000000000000000000000000003
:101de0000000000000000000000000006000000093
:101df00060000000f80100006c03000066010000b4
:101e0000660000006e0000007c000000f801000089
:101e1000e0010000e0030000600300006203000036
:101e20006203000066010000fc000000600000008a
:101e30006000000000000000000000000000000042
:101e40000000000000000000000000000000000092
:101e50000000000000000000000000000000000082
:101e60003830000024180000660c000066040000f2
:101e70006606000066030000a40100009c38000014
:101e8000c06400006066000020660000106600006c
:101e9000182400000c1c00000000000000000000de
:101ea0000000000000000000000000000000000032
:101eb0000000000000000000000000000000000022
:101ec00000000000e00100003003000018030000e3
:101ed00018030000180100009801000078000000bd
:101ee000787e00007c1c0000cc180000c6190000a1
:101ef000861b0000060f0000060e00000c1a0000f2
:101f0000f871000000000000000000000000000068
:101f100000000000000000000000000000000000c1
:101f200000000000000c00000c0c00000c0c000075
:101f30000c0c000004000000000000000000000085
:101f40000000000000000000000000000000000091
:101f500000000000000000000060000030100000e1
:101f6000080c00000c040000060600000606000035
:101f70000606000006060000040c00000c08000025
:101f800018300000600000000000000000000000a9
:101f9000030600000c0800001818000010300000b4
:101fa00030300000303000003030000030100000d1
:101fb00018180000080400000603000000000000dc
:101fc00000000000000000000030000000300000b1
:101fd0000022000001ae000003780000007800003d
:101fe00000ae0000012200000130000000300000bf
:101ff00000000000000000000000000000000000e1
:1020000000000000000000000000000000000000d0
:1020100000000000000000000000000000000000c0
:1020200000000000000000000000000000000000b0
:1020300000000000000000000000000000000000a0
:102040000000000000000000000000000000000090
:1020500000000000003000000030000000300000f0
:1020600000fe0000013000000030000000300000e1
:102070000030000000000000000000000000000030
:102080000000000000000000000000000000000050
:102090000000000000000000000000000000000040
:1020a0000000000000000000000000000000000030
:1020b0000000000000000000000000000e0f000003
:1020c0000c0c0000040200000000000000000000f2
:1020d0000000000000000000000000000000000000
:1020e0000000000000000000000000007e00000072
:1020f00000000000000000000000000000000000e0
:1021000000000000000000000000000000000000cf
:1021100000000000000000000000000000000000bf
:1021200000000000000000000c0c00000c0000008b
:10213000000000000000000000000000000000009f
:102140000000000000020000000300000001000089
:10215000800100008001000080000000c00000003d
:10216000c0000000600000006000000020000000cf
:1021700030000000300000001000000018000000d7
:10218000180000000c0000000c000000040000001b
:102190000600000006000000020000000000000031
:1021a000000000000000000000000000000000002f
:1021b000000000000000000000000000000000001f
:1021c000f0000000c80100008c0100008403000042
:1021d00006030000060300000603000006030000db
:1021e0000603000006030000060100000c010000c9
:1021f0008c000000700000000000000000000000e3
:1022000000000000000000000000000000000000ce
:1022100000000000000000000000000000000000be
:10222000000000000000000000000000600000004e
:102230007800000064000000600000006000000002
:10224000600000006000000060000000600000000e
:1022500060000000600000006000000060000000fe
:10226000fc0300000000000000000000000000006f
:10227000000000000000000000000000000000005e
:10228000000000000000000000000000000000004e
:10229000000000000000000078000000c401000001
:1022a000860100008201000080010000c0000000e3
:1022b000c00000006000000030000000300000009e
:1022c000180000000c01000006010000fe010000e3
:1022d00000000000000000000000000000000000fe
:1022e00000000000000000000000000000000000ee
:1022f00000000000000000000000000000000000de
:1023000000000000f8000000cc0100008601000081
:10231000800100008001000040000000f00000008b
:102320008001000000030000000300000003000023
:10233000000300008601000078000000000000009b
:10234000000000000000000000000000000000008d
:10235000000000000000000000000000000000007d
:10236000000000000000000000000000000000006d
:10237000c0000000e0000000e0000000d00000000d
:10238000d8000000c8000000c4000000c600000023
:10239000c2000000ff030000c0000000c0000000f9
:1023a000c0000000f003000000000000000000007a
:1023b000000000000000000000000000000000001d
:1023c000000000000000000000000000000000000d
:1023d00000000000000000000000000000010000fc
:1023e000fc000000040000000400000006000000e3
:1023f0007e000000c200000080010000800100009b
:10240000800100008001000080000000c300000087
:102410003c00000000000000000000000000000080
:1024200000000000000000000000000000000000ac
:10243000000000000000000000000000000000009c
:1024400000000000000000008001000060000000ab
:1024500018000000080000000c000000f60000005a
:102460008e010000060300000603000006030000c2
:10247000060300000c0100008c010000f0000000c9
:10248000000000000000000000000000000000004c
:10249000000000000000000000000000000000003c
:1024a000000000000000000000000000000000002c
:1024b0000000000000000000fc030000020100001a
:1024c000020100008001000080000000c000000048
:1024d000400000006000000020000000300000000c
:1024e000300000001800000008000000000000009c
:1024f00000000000000000000000000000000000dc
:1025000000000000000000000000000000000000cb
:1025100000000000000000000000000000000000bb
:10252000f8000000cc0100008601000086010000d8
:102530008e010000dc000000f0000000c801000077
:102540008c030000060300000603000006030000e1
:102550008c01000078000000000000000000000076
:10256000000000000000000000000000000000006b
:10257000000000000000000000000000000000005b
:10258000000000000000000000000000f00000005b
:102590008c01000084010000060300000603000017
:1025a00006030000060300008c030000780300000f
:1025b0000001000080010000c000000020000000b9
:1025c0001c000000000000000000000000000000ef
:1025d00000000000000000000000000000000000fb
:1025e00000000000000000000000000000000000eb
:1025f000000c00000c0c00000000000000000000b7
:10260000000c00000c0c00000000000000000000a6
:1026100000000000000000000000000000000000ba
:1026200000000000000000000c0c00000c00000086
:1026300000000000000000000e0f00000c0c000065
:102640000402000000000000000000000000000084
:10265000000000000000000000000000000000007a
:10266000000000000000000000000000000000006a
:102670000000000000010000e00100003c0000003c
:10268000060000001c000000f000000080010000b7
:10269000000000000000000000000000000000003a
:1026a000000000000000000000000000000000002a
:1026b000000000000000000000000000000000001a
:1026c000000000000000000000000000000000000a
:1026d00000000000000000000000000000000000fa
:1026e0000000000000000000fe01000000000000eb
:1026f00000000000fe0100000000000000000000db
:1027000000000000000000000000000000000000c9
:1027100000000000000000000000000000000000b9
:1027200000000000000000000000000000000000a9
:102730000000000000000000000000000000000099
:102740000000000000000000000000000600000083
:102750003c000000e001000080010000f0000000eb
:102760001e00000002000000000000000000000049
:102770000000000000000000000000000000000059
:102780000000000000000000000000000000000049
:10279000000000000000000000000000f800000041
:1027a000cc010000860100008601000080010000cd
:1027b00080010000c0000000600000006000000018
:1027c0003000000030000000300000001000000069
:1027d0000000000030000000300000003000000069
:1027e00000000000000000000000000000000000e9
:1027f00000000000000000000000000000000000d9
:1028000000000000000000000000000000000000c8
:102810000000000000000000000000003f00000079
:10282000c070000000300000c000000018800000f0
:1028300001080000800100000c97000003840000e4
:10284000180300004618000003660000180300008b
:1028500066180000036600001803000066180000f8
:10286000016e000098010000cc9c0000008c00006c
:102870007300000018000000003800008000000015
:10288000e0e00000018000001f00000000000000e8
:102890000000000000000000000000000000000038
:1028a0000000000000000000000000000000000028
:1028b000000000000040000000c0000000a0000078
:1028c00000a0000001a000000110000001100000a5
:1028d0000310000003f800000308000006080000d1
:1028e000060400000c0400000c1f00001e00000085
:1028f00000000000000000000000000000000000d8
:1029000000000000000000000000000000000000c7
:1029100000000000000000000000000000000000b7
:1029200000fe0000008d0000030c0000030c0000fe
:10293000030c0000038c000001fc0000018c00006f
:10294000030c0000070c0000060c0000060c000041
:10295000060c000003ff0000010000000000000062
:102960000000000000000000000000000000000067
:102970000000000000000000000000000000000057
:1029800000000000000000000000000000c0000087
:10299000073000000c080000000c000000040000dc
:1029a000000600000006000000060000000600000f
:1029b00000060000000c0000000c000008380000b9
:1029c00004e0000003000000000000000000000020
:1029d00000000000000000000000000000000000f7
:1029e00000000000000000000000000000000000e7
:1029f000000000000000000000fe0000010d0000cb
:102a0000070c00000e0c00000c0c0000180c00005d
:102a1000180c0000180c0000180c0000180c000026
:102a2000180c00000c0c00000e0c000007ff00004a
:102a30000100000000000000000000000000000095
:102a40000000000000000000000000000000000086
:102a50000000000000000000000000000000000076
:102a60000000000000ff0000030c0000020c00004a
:102a7000020c0000000c0000000c000000fc000034
:102a8000018c0000000c0000000c0000000c000095
:102a9000000c0000040c000006ff00000300000012
:102aa0000000000000000000000000000000000026
:102ab0000000000000000000000000000000000016
:102ac0000000000000000000000000000000000006
:102ad00000ff0000030c0000020c0000020c0000cc
:102ae000000c0000000c000000fc0000018c000045
:102af000000c0000000c0000000c0000000c0000a6
:102b0000000c0000003f000000000000000000007a
:102b100000000000000000000000000000000000b5
:102b200000000000000000000000000000000000a5
:102b300000000000000000000000000000e00000b5
:102b40000310000006080000000c00000006000052
:102b50000006000000060000008600000f060000ce
:102b600006060000060c0000060c00000618000017
:102b700006f000000100000000000000000000005e
:102b80000000000000000000000000000000000045
:102b90000000000000000000000000000000000035
:102ba0000000000000000000003f00007e0c00005c
:102bb000180c0000180c0000180c0000180c000085
:102bc00018fc00001f0c0000180c0000180c00007e
:102bd000180c0000180c0000180c0000183f000032
:102be0007e00000000000000000000000000000067
:102bf00000000000000000000000000000000000d5
:102c00000000000000000000003f00000c0c00006d
:102c10000c0c00000c0c00000c0c00000c0c000054
:102c20000c0c00003f00000000000000000000004d
:102c30000000000000000000000000000000000094
:102c40007e1800001818000018180000181800005e
:102c500018180000181800001818000018080000c4
:102c6000040300000000000000000000000000005d
:102c70000000000000000000000000000000000054
:102c8000003f00000f0c0000020c0000018c00004f
:102c9000004c0000006c0000003c0000006c0000d4
:102ca00000ec000000cc0000008c0000010c0000d3
:102cb000030c0000063f00001c00000000000000a4
:102cc0000000000000000000000000000000000004
:102cd00000000000000000000000000000000000f4
:102ce000000000000000000000000000003f0000a5
:102cf000000c0000000c0000000c0000000c0000a4
:102d0000000c0000000c0000000c0000000c000093
:102d1000000c0000000c0000000c0000040c00007f
:102d200002ff00000300000000000000000000009f
:102d30000000000000000000000000000000000093
:102d40000000000000000000000000000000000083
:102d50000000000000000000000000000000000073
:102d600000000000001e0000c00100001ce0000088
:102d7000001c0000e00000003cf00000002c0000ff
:102d8000d00000006cd00000006c0000c800000003
:102d9000ccc8000000cc0000cc0000008cc50000b6
:102da000008c0000c70000000cc30000000c0000f5
:102db000c30000001ee1000003000000000000004e
:102dc0000000000000000000000000000000000003
:102dd00000000000000000000000000000000000f3
:102de00000000000000000000000000000000000e3
:102df0000000000000000000000000000f7e000046
:102e00000c1800001c1800003c1800002c180000d2
:102e10004c180000cc1800008c1900000c190000a0
:102e20000c1b00000c1e00000c1c00000c1c000001
:102e30003f1800000000000000000000000000003b
:102e40000000000000000000000000000000000082
:102e50000000000000000000000000000000000072
:102e60000000000000000000e00300001806000061
:102e7000080c00000c0c00000618000006180000ea
:102e800006180000061800000618000006180000ca
:102e90000c0c00000c04000018020000f0010000ff
:102ea0000000000000000000000000000000000022
:102eb0000000000000000000000000000000000012
:102ec0000000000000000000000000000000000002
:102ed00000000000fe0100000d0300000c060000d1
:102ee0000c0600000c0600000c0600000c0300009d
:102ef000fc0000000c0000000c0000000c000000b2
:102f00000c0000000c0000003f000000000000006a
:102f100000000000000000000000000000000000b1
:102f200000000000000000000000000000000000a1
:102f30000000000000000000000000000000000091
:102f4000e003000018060000080c00000c0c000054
:102f500006180000061800000618000006180000f9
:102f600006180000061800000c0c00000c0c0000f5
:102f700018060000f0010000000300000006000039
:102f80000038000000000000000000000000000009
:102f90000000000000000000000000000000000031
:102fa000000000000000000000000000fe01000022
:102fb0000d0300000c0600000c0600000c060000cb
:102fc0000c030000fc000000cc000000cc0000005e
:102fd0008c0100000c0300000c0300000c06000034
:102fe0003f1c000000000000000000000000000086
:102ff00000000000000000000000000000000000d1
:1030000000000000000000000000000000000000c0
:103010000000000000000000f80000008c0100002b
:1030200006000000060000000e0000003c0000004a
:10303000f8000000e0010000800300000003000031
:103040000203000002010000860100007c00000075
:103050000000000000000000000000000000000070
:103060000000000000000000000000000000000060
:103070000000000000000000000000000000000050
:1030800000000000ff0f0000610800006108000060
:1030900060000000600000006000000060000000b0
:1030a00060000000600000006000000060000000a0
:1030b0006000000060000000f80100000000000057
:1030c0000000000000000000000000000000000000
:1030d00000000000000000000000000000000000f0
:1030e00000000000000000000000000000000000e0
:1030f0003f7e00000c1800000c1800000c180000a7
:103100000c1800000c1800000c1800000c1800002f
:103110000c1800000c1800000c180000180c00001f
:1031200038060000e003000000000000000000007e
:10313000000000000000000000000000000000008f
:10314000000000000000000000000000000000007f
:103150000000000000000000000000001f3c000014
:103160000c1800000c08000018080000180c0000e3
:1031700018040000300600003002000020020000a9
:103180006003000060010000c0010000c0010000f9
:1031900080000000000000000000000000000000af
:1031a000000000000000000000000000000000001f
:1031b000000000000000000000000000000000000f
:1031c00000000000000000000000000000000000ff
:1031d000000000001fc20000070c000006010000f4
:1031e0000c060000010c0000070100000c8d00001f
:1031f000010800008d000000988900000098000080
:10320000980000009898000000d00000d000000056
:10321000707000000070000070000000706000001e
:10322000002000006000000000000000000000001e
:10323000000000000000000000000000000000008e
:10324000000000000000000000000000000000007e
:10325000000000000000000000000000000000006e
:103260000000000000000000003f00001f0c0000f4
:103270000c180000063800000330000001e00000d8
:1032800001c0000000c0000001a0000001300000eb
:1032900003180000060800000e0c00000c1f0000c0
:1032a0003e000000000000000000000000000000e0
:1032b000000000000000000000000000000000000e
:1032c00000000000000000000000000000000000fe
:1032d00000000000000700003e0c00000c18000079
:1032e00004180000023000000360000001e000004c
:1032f00001c0000000c0000000c0000000c00000cd
:1033000000c0000000c0000000f00000030000004a
:1033100000000000000000000000000000000000ad
:10332000000000000000000000000000000000009d
:10333000000000000000000000000000000000008d
:1033400000fc0000070400000302000003800000ee
:1033500001c0000000c0000000600000007000001c
:10336000003000000018000000180000000c0000f1
:103370000406000004fe000007000000000000003a
:10338000000000000000000000000000000000003d
:103390000000000000000000003e000006060000e3
:1033a00006060000060600000606000006060000ed
:1033b00006060000060600000606000006060000dd
:1033c000060600003e0000000000000000000000b3
:1033d00000000000020000000600000006000000df
:1033e000040000000c0000000800000018000000ad
:1033f0001800000010000000300000003000000045
:1034000020000000600000004000000040000000bc
:10341000c00000008000000080010000800100006a
:103420000001000000030000000200000000000096
:103430000000000000000000000000003e3000001e
:1034400030300000303000003030000030300000fc
:1034500030300000303000003030000030300000ec
:1034600030300000303e000000000000000000008e
:1034700000000000000000000020000000600000cc
:103480000070000000d0000000d80000008800009c
:1034900000880000018c000001040000030400000b
:1034a0000302000003000000000000000000000014
:1034b000000000000000000000000000000000000c
:1034c00000000000000000000000000000000000fc
:1034d00000000000000000000000000000000000ec
:1034e00000000000000000000000000000000000dc
:1034f00000000000000000000000000000000000cc
:1035000000000000000000000000000000000000bb
:1035100000000000000000000000000000000000ab
:10352000000000000000000000000000000000009b
:1035300000fe00000300000000000000000000008a
:103540000000000000000000000000000306000072
:103550000c08000010000000000000000000000047
:10356000000000000000000000000000000000005b
:10357000000000000000000000000000000000004b
:10358000000000000000000000000000000000003b
:10359000000000000000000000000000000000002b
:1035a00000000000f00000008c0100008601000017
:1035b00080010000f00100008c0100008601000085
:1035c00086010000c6010000bc07000000000000ea
:1035d00000000000000000000000000000000000eb
:1035e00000000000000000000000000000000000db
:1035f000000000000c0000000e0000000c000000a5
:103600000c0000000c0000000c0000000c0000008a
:10361000cc0100003c0300001c0700000c06000069
:103620000c0600000c0600000c0600000c02000056
:103630001c010000f000000000000000000000007d
:10364000000000000000000000000000000000007a
:10365000000000000000000000000000000000006a
:10366000000000000000000000000000000000005a
:10367000000000000000000000000000e001000069
:10368000180300000c000000060000000600000007
:1036900006000000060000000c0000001c030000f3
:1036a000f00000000000000000000000000000002a
:1036b000000000000000000000000000000000000a
:1036c00000000000000000000000000000030000f7
:1036d000c00300000003000000030000000300001e
:1036e0000003000000030000f00300008803000056
:1036f00004030000060300000603000006030000a8
:10370000060300000e030000cc0b00003807000089
:1037100000000000000000000000000000000000a9
:103720000000000000000000000000000000000099
:103730000000000000000000000000000000000089
:103740000000000000000000000000000000000079
:1037500000000000f0000000080300000403000067
:10376000fe03000006000000060000000600000046
:103770000c0000001c030000f0000000000000002e
:103780000000000000000000000000000000000039
:1037900000000000000000000000000000600000c9
:1037a000501800000c0c00000c0c00007e0d0000f6
:1037b0000c0c00000c0c00000c0c00000c3f000076
:1037c00000000000000000000000000000000000f9
:1037d00000000000000000000000000000000000e9
:1037e00000000000000000000000000000000000d9
:1037f0000000000000f800000c8c00000306000030
:103800000306000003060000038c000001f800001e
:1038100000180000001c000000f800000306000073
:103820000e0300000c0300000c06000006fc000064
:103830000100000000000000000000000000000087
:1038400000000000000c0000000f0000000c000051
:10385000000c0000000c0000000c0000000c000038
:1038600000cc0000032c0000061c0000060c000029
:10387000060c0000060c0000060c0000060c000000
:10388000060c000006bf00001f0000000000000042
:103890000000000000000000000000000000000028
:1038a0000000000000000000000000000000000018
:1038b0000c0c000000000000000c00000f0c0000c9
:1038c0000c0c00000c0c00000c0c00003f00000071
:1038d00000000000000000000000000000000000e8
:1038e00000000000000c00000c00000000000000c0
:1038f0000c0f00000c0c00000c0c00000c0c000065
:103900000c0c00000c0c0000040200000100000080
:10391000000000000000000000000000000c00009b
:10392000000f0000000c0000000c0000000c000064
:10393000000c0000000c0000008c0000078c000050
:1039400001cc0000002c0000003c0000006c0000d6
:1039500000cc0000008c0000010c0000031f0000e0
:103960000f00000000000000000000000000000048
:103970000000000000000000000000000000000047
:10398000000000000c0f00000c0c00000c0c0000ec
:103990000c0c00000c0c00000c0c00000c0c0000c7
:1039a0000c0c00003f0000000000000000000000c0
:1039b0000000000000000000000000000000000007
:1039c00000000000000000000000000000000000f7
:1039d00000000000000000000000000000000000e7
:1039e00000000000000000000000000000000000d7
:1039f0008ee30000016d0000160300001c0e0000a5
:103a0000030c0000060300000c060000030c00007d
:103a1000060300000c060000030c00000603000073
:103a20000c06000003bf0000df0f000000000000d4
:103a30000000000000000000000000000000000086
:103a40000000000000000000000000000000000076
:103a50000000000000000000000000000000000066
:103a60000000000000000000000000000000000056
:103a7000000000000000000000000000008e0000b8
:103a8000036d0000061c0000060c0000060c000080
:103a9000060c0000060c0000060c0000060c0000de
:103aa00006bf00001f000000000000000000000032
:103ab0000000000000000000000000000000000006
:103ac00000000000000000000000000000000000f6
:103ad00000000000000000000000000000000000e6
:103ae000000000000000000000f00000008800005e
:103af000030400000306000006060000060600009e
:103b000006060000060c0000021c000001f0000088
:103b100000000000000000000000000000000000a5
:103b20000000000000000000000000000000000095
:103b30000000000000000000000000000000000085
:103b40000000000000000000000000000000000075
:103b50000000000000ce0000013d0000031c00003a
:103b6000070c0000060c0000060c0000060c00000c
:103b7000060c0000021c000003ec0000000c00001a
:103b8000000c0000000c0000000c0000003f0000d2
:103b90000000000000000000000000000000000025
:103ba0000000000000000000000000000000000015
:103bb0000000000000000000000000000000000005
:103bc00000f0000002880000030c00000306000063
:103bd000030600000306000003060000030e0000b9
:103be000038c0000037800000300000003000000c5
:103bf000030000000300000003c000000f000000ed
:103c000000000000000000000000000000000000b4
:103c100000000000000000000000000000000000a4
:103c200000000000000000000000000000cc0000c8
:103c300001af0000019c0000001c0000000c00000f
:103c4000000c0000000c0000000c0000000c000044
:103c5000003f000000000000000000000000000025
:103c60000000000000000000000000000000000054
:103c70000000000000000000000000000000000044
:103c80000000000000000000000000000000000034
:103c90000000000000000000007c00000066000042
:103ca00000060000000e0000003c000000f00000d4
:103cb00000c0000000c2000000c20000003e000082
:103cc00000000000000000000000000000000000f4
:103cd00000000000000000000000000000000000e4
:103ce0000000000000000000000800000c0c0000b4
:103cf0000cfe00000d0c00000c0c00000c0c000071
:103d00000c8c0000780000000000000000000000a3
:103d100000000000000000000000000000000000a3
:103d20000000000000000000000000000000000093
:103d30000000000000000000000000000c03000074
:103d4000ce0300000c0300000c0300000c03000075
:103d50000c0300000c0300000c030000cc0b00005f
:103d60003807000000000000000000000000000014
:103d70000000000000000000000000000000000043
:103d80000000000000000000000000000000000033
:103d90000000000000000000000000000000000023
:103da00000000000000000009f0700000402000067
:103db0000c0100000c0100009801000098000000b8
:103dc0009000000070000000600000002000000073
:103dd00000000000000000000000000000000000e3
:103de00000000000000000000000000000000000d3
:103df00000000000000000000000000000000000c3
:103e000000000000000000000000000000000000b2
:103e1000000000001ff100000441000084230000a6
:103e20008c2300008826000048360000581400004b
:103e3000301c0000301c00003008000000000000b2
:103e40000000000000000000000000000000000072
:103e50000000000000000000000000000000000062
:103e60000000000000000000000000000000000052
:103e70000000000000000000000000000000000042
:103e80009f0700000c01000098000000f0000000f7
:103e90006000000070000000d000000088010000f9
:103ea000040300008f070000000000000000000075
:103eb0000000000000000000000000000000000002
:103ec00000000000000000000000000000000000f2
:103ed00000000000000000000000000000000000e2
:103ee0000000000000000000000000009f0700002c
:103ef000040200000c0100000c0100009801000009
:103f000098000000900000007000000060000000b9
:103f100060000000200000003000000010000000e1
:103f20000f0000000700000000000000000000007b
:103f30000000000000000000000000000000000081
:103f40000000000000000000000000000000000071
:103f50000000000000000000fe01000082010000df
:103f6000c2000000600000002000000030000000df
:103f7000180000000c01000004010000fe01000018
:103f80000000000000000000000000000000000031
:103f90000000000000000000000000000000000021
:103fa00040300000101800001818000038300000e1
:103fb00030100000081e00003030000030300000db
:103fc0001818000018180000304000000000000021
:103fd000000000000c0c00000c0c00000c0c000099
:103fe0000c0c00000c0c00000c0c00000c0c000071
:103ff0000c0c00000c0c00000c0c00000c0c000061
:104000000c0c00000000000000000000020c00008a
:1040100018180000181800000c0c00000c0c000010
:1040200078100000080c00000c1c0000181800009c
:10403000180800000c020000000000000000000052
:104040000000000000000000000000000000000070
:104050000000000000000000000000000000000060
:10406000000000000000000000180000047c0000b8
:1040700002f2000001c20000010000000000000088
:104080000000000000000000000000000000000030
:104090000000000000000000000000000000000020
:1040a000000000000000000000000000000400000c
:1040b000200000002400000016000000071c000083
:1040c00000000000154800000000000015cc0000b2
:1040d00000000000155000000100000015d4000091
:1040e000010000000000000000000000c00000000f
:1040f000d0030000d0030000d0030000d003000074
:10410000d0030000d0020000c0020000c001000087
:10411000c0010000c0010000c0010000c00000009c
:1041200000000000c0000000d0030000d003000029
:10413000000000000000000000000000000000007f
:104140000000000000000000000000001c50000003
:1041500001000000000300003cd00000010000004e
:10416000000f00002cd0000001000000000b000038
:104170002cd0000001000000000b00002cd000003b
:1041800031000000685b00006dd50000b500000044
:10419000649b00007de6000056000000000b00005c
:1041a0002cd0000001000000000b00002cd000000b
:1041b00001000000000b00002cd0000001000000f6
:1041c000000b00002cd0000001000000000b0000dc
:1041d0002cd0000001000000000b00007cf6000065
:1041e00000000000000b00002cd0000001000000c7
:1041f000000b00001450000000000000000b000045
:10420000000000000c000000009b0000aa6a0000f3
:104210003d000000409b0000aaaa000056000000dc
:10422000000300000000000000000000000000008b
:10423000000000000000000000000000000000007e
:10424000000000000000000000000000000000006e
:1042500000740000d00100000000000000740000a5
:10426000d001000000000000002c0000b0000000a1
:1042700000000000001d000074000000300000007d
:10428000000b0000b4950000b5000000401f0000c6
:104290006cad0000b5010000800b00001d1d00008a
:1042a0001c000000900b0000071d0000050000002e
:1042b000708b0000321d0000000000001ccb0000cd
:1042c000b45d0000010000001d0b0000741d000023
:1042d0000b000000000b00002c1d00002d00000052
:1042e000000b00001d1d000074000000000b00000a
:1042f0000b1d0000f4000000004b0000071d000033
:10430000e001000000db0000011d00005000000083
:10431000005b0000001d000000000000000b00001a
:10432000a40f000000000000000b00004007000088
:10433000000000000000000000000000000000007d
:10434000000000000000000000000000000000006d
:104350000000000000000000001d00000000000040
:1043600000000000001d0000a96a00002d000000f0
:10437000001d0000a96a00006d00000000cb0000d5
:10438000004000000b0000006ddf000007c00000cf
:104390000100000054db0000027400000000000077
:1043a00040c70000027400000000000040c7000089
:1043b0000174000000000000c0d200000174000081
:1043c000b4000000d0d10000fdfa0000fa010000a6
:1043d000d0d100000174000000000000d0b1000046
:1043e0000074000000000000407b0000007400002a
:1043f0000000000000b80000007400000000000091
:1044000000dd0000027400000000000040470000d2
:104410000774000000000000d04100000774000095
:10442000000000002d000000902e000000000000a1
:1044300005000000001d000000000000000000005a
:10444000000000000000000000000000000000006c
:10445000000000000000000000000000000000005c
:1044600000030000004000000100000000ef000019
:10447000faaf00000b000000000b000074400000c9
:1044800007000000000b000074400000070000005f
:1044900000ef0000faaf000007000000000b000072
:1044a0007440000007000000005b0000b5550000ec
:1044b00007000000009f0000f999000007000000bd
:1044c00000030000dd420000010000000040000089
:1044d000071e00000000000000e4000001f40000de
:1044e0000500000000dd0000035d0000be000000cc
:1044f000d0c20000022c0000140000002cc00000fc
:10450000021c00000000000000d00000021c00009f
:104510000000000000d00000011c000000000000ae
:1045200000740000001c000000000000401b0000a0
:10453000001c000000000000b401000000050000a5
:10454000000000000000000000000000000000006b
:104550000000000000000000000000000004000057
:10456000200000002800000019000000082c0000b6
:1045700000000000175e00000000000017f40000bb
:1045800000000000178a0000010000001720000052
:104590000200000017b6000002000000174c0000e7
:1045a0000300000017e2000003000000177800007d
:1045b00004000000000000000000000000000000f7
:1045c0000000000040010000d0030000d003000004
:1045d000c0030000c0030000c0030000c0030000cf
:1045e000c0030000c0020000c0020000c0020000c2
:1045f000c0010000c0010000000000000000000039
:1046000040010000d0070000d0070000400100007a
:10461000000000000000000000000000000000009a
:10462000000000000000000000000000000000008a
:10463000000000000000000000000000000000007a
:10464000000000000000000000000000000000006a
:10465000000000000000000000000000000000005a
:1046600000b40000015400000000000000500000f1
:10467000fafe00000100000000000000405f0000a2
:104680000000000000000000d00200000000000058
:1046900000000000740000000000000000000000a6
:1046a00014000000000000000000000000000000f6
:1046b00000000000000000000000000000000000fa
:1046c0000070000000000000000000000014000066
:1046d0000000000000000000001c000000000000be
:1046e00000000000001c00000000000000000000ae
:1046f000003c0000000000000000000000e400009a
:10470000abea00000700000000400000f95600007e
:104710000500000000000000000000000000000094
:104720000000000000000000000000000000000089
:104730000000000000000000000000000000000079
:104740000000000000000000000000000000000069
:104750000000000000000000000000000000000059
:104760000000000000000000000000000000000049
:104770000000000000000000000000000000000039
:10478000008000002e00000000000000000000007b
:1047900078000000000000000000000074500000dd
:1047a0000000000000000000b0f400000100000064
:1047b00000000000901f000000000000005d0000ed
:1047c000e90200000000000000e40000970700007c
:1047d0000000000000000000400b0000000000008e
:1047e00000000000001d00000000000000000000ac
:1047f000b53d00000000000000d0000057b90000e7
:104800000000000000f00000005000000000000068
:1048100000740000000000000000000000740000b0
:10482000000000000000000000b4000000000000d4
:104830000000000000e0000006140000000000007e
:1048400000900000ff7f000000000000000000005a
:1048500054150000000000000000000000000000ef
:104860000000000000000000000000000000000048
:104870000000000000000000000000000000000038
:104880000000000000000000000000000000000028
:104890000000000000000000000000000000000018
:1048a00000000000150000000000000000000000f3
:1048b000740000000000000000000000b4000000d0
:1048c00000000000000300007479000000000000f8
:1048d00000070000ac1b00000000000000f9000011
:1048e0005f00000000000000000000000f0000005a
:1048f00000000000004000000b000000000000006d
:1049000000400000577e00000100000000c00000d1
:10491000f69500000700000000d000001e00000017
:104920001e00000000d00000070000001d00000075
:1049300000d00000010000002c000000000000007a
:10494000000000001d00000000000000004000000a
:104950000f000000000000000090000007000000b1
:104960000000000000f9000001000000004000000d
:10497000e5170000000000000040000016000000e5
:104980000000000000000000000000000000000027
:104990000000000000000000000000000000000017
:1049a0000000000000000000000000000000000007
:1049b00000000000000000000000000000000000f7
:1049c000000000000c0000000000000000000000db
:1049d000740000000000000000000000b0000000b3
:1049e0000000000000000000740100000000000052
:1049f00000050000a80b00000000000000ac000053
:104a00007e01000000000000005400000ba8000020
:104a10001f0000000040000007d00000ba000000a6
:104a200000c0000002b400000000000000d0000040
:104a3000017800000000000000b00000003c000011
:104a4000000000000074000000780000000000007a
:104a5000002d00000074000000000000400f000066
:104a6000e97b0000000000004047000007f500005f
:104a70000100000000400000017400000f00000071
:104a8000004000005f3d00001d000000000000002d
:104a9000e50700000000000000000000000000002a
:104aa0000000000000000000000000000000000006
:104ab00000000000000000000000000000000000f6
:104ac00000000000000000000000000000000000e6
:104ad00000000000000000000000000000000000d6
:104ae00000000000000000000000000000000000c6
:104af00000000000000000000003000000000000b3
:104b000000000000001d0000000000000000000088
:104b1000007800001400000005000000003c0000c8
:104b2000e0a600001f000000001d0000407e000005
:104b300005000000001d0000000000000000000053
:104b4000000b000000000000000000004007000013
:104b500000000000000000004057000000000000be
:104b6000000000004077000000000000000000008e
:104b7000c07600000c00000000000000c01d000016
:104b80002400000000000000800f000074000000fe
:104b900000000000400f0000f04100001500000080
:104ba000400b000050fe00001f000000000f00003e
:104bb000005400000100000000050000000000009b
:104bc00000000000000000000000000000000000e5
:104bd00000000000000000000000000000000000d5
:104be00000000000000000000000000000000000c5
:104bf00000000000000000000000000000000000b5
:104c000000000000000000000000000000000000a4
:104c10000000000000000000000000000000000094
:104c20000000000000000000000000000000000084
:104c3000000000000014000000000000001d000043
:104c400000f4000001000000003c000000d0000063
:104c500002000000003c000000d000000100000045
:104c6000002d000005d000003d000000001d0000e8
:104c700075e9000017000000000b000090b600006e
:104c8000000000000007000000b00000000000006d
:104c90004007000000b000000000000040170000c6
:104ca00000f00000000000004076000000f000006e
:104cb00000000000c01d000000f000000000000027
:104cc000800b0000a4fe000005000000800b000027
:104cd0001da400002e000000400700001df0000091
:104ce000f5000000400b0000bdba000050000000bd
:104cf00000050000501a0000000000000000000045
:104d000000000000000000000000000000000000a3
:104d10000000000000000000000000000000000093
:104d20000000000000000000000000000000000083
:104d30000000000000000000000000000000000073
:104d40000000000000000000000000000000000063
:104d500000000000000500000000000000c000008e
:104d6000512e000000000000004000006f1f0000f6
:104d70000000000000000000450b000000000000e3
:104d800000000000400700000000000000000000dc
:104d9000c04200000500000000000000d00100003b
:104da0001e00000000000000b40000001d00000014
:104db00000400000790000000f00000000b4000077
:104dc000ae5f00000b000000001f00000b9400000d
:104dd0000b0000004087000007d000007e000000ac
:104de000c0d2000001e00000e5010000c07a000030
:104df00000780000c0020000801f0000401e00007c
:104e00000000000000000000e406000000000000b8
:104e1000004000005b0000000000000000000000f7
:104e20000000000000000000000000000000000082
:104e30000000000000000000000000000000000072
:104e40000000000000000000000000000000000062
:104e50000000000000000000000000000000000052
:104e60000000000000000000000000000000000042
:104e70000000000000000000000000000000000032
:104e8000150000000000000000000000b400000059
:104e90000000000000000000f4000000000000001e
:104ea000000000007800000000000000000000008a
:104eb0001d00000000000000004000000b0000008a
:104ec000000000000080000007000000000000005b
:104ed00000d00000020000000000000000f0000010
:104ee000f501000000000000007400005b070000f6
:104ef0000000000000bd0000010b0000c000000029
:104f0000003d0000000b0000d0000000400f00003a
:104f100040070000b4000000400700004007000008
:104f20003c000000c0030000404700001e000000dd
:104f3000d002000040ef0000070000005000000019
:104f4000007d0000000000000000000000000000e4
:104f50000000000000000000000000000000000051
:104f60000000000000000000000000000000000041
:104f7000000000000000000000050000200000000c
:104f8000290000001f000000800000000000000059
:104f9000040000000000000000000000000000000d
:104fa0008000000000000000080000000100000078
:104fb00005000000000000009f000000000000004d
:104fc000070000000b0000000000000000000000cf
:104fd000fc000000000000000c0000000c000000bd
:104fe0000000000000000000590100000000000067
:104ff0000b0000000b00000000000000000000009b
:10500000b6010000000000000b0000000b000000d3
:10501000000000000000000013020000000000007b
:105020000b0000000b00000000000000000000006a
:1050300070020000000000000000000007000000f7
:10504000f4ff000000000000ae02000000000000bd
:105050000800000008000000000000000000000040
:10506000ec02000000000000090000000a0000003f
:105070000000000000000000000000000000000030
:105080000000000000000000030300000303000014
:1050900003030000030300000300000000030000fe
:1050a0000000000000000000000000000000000000
:1050b00000000000000000000000000000000000f0
:1050c00000400000be010000909500000660000056
:1050d000001d0000700000002470000000000000af
:1050e0006000000000ff00003f000000c000000062
:1050f00000c0000000000000c000000000c0000070
:1051000000000000c000000000c00000000000001f
:10511000c000000000c0000000000000c00000004f
:1051200000c0000000000000c000000000c000003f
:10513000000000000000000000000000000000006f
:10514000000000000000000000000000000000005f
:10515000000000000000000000000000000000004f
:10516000000000000000000000000000000000003f
:10517000000000000000000000000000000000002f
:10518000000000000000000000000000000000001f
:10519000000000000000000000000000000000000f
:1051a000ffff0000ffc0000000030000c00000007f
:1051b00003c0000000030000c000000003c00000a6
:1051c00000030000f8ff000003e4000001030000fa
:1051d000d0010000034000000103000000000000b7
:1051e00003000000000300000000000003000000b6
:1051f00000000000000000000000000000000000af
:10520000000000000000000000000000000000009e
:10521000000000000000000000000000000000008e
:10522000000000000000000000000000000000007e
:10523000000000000000000000000000000000006e
:10524000000000000000000000000000000000005e
:10525000000000000000000000ff0000ff3f000011
:1052600000c0000000000000c000000000c00000fe
:1052700000fd0000ff0000007ec00000002d0000c7
:10528000c000000028c0000000240000c000000092
:1052900000c0000000000000c000000000c00000ce
:1052a00000000000c000000000000000000000003e
:1052b00000000000000000000000000000000000ee
:1052c00000000000000000000000000000000000de
:1052d00000000000000000000000000000000000ce
:1052e00000000000000000000000000000000000be
:1052f00000000000000000000000000000000000ae
:10530000000000000000000000000000000000009d
:1053100000000000ffff00003f000000c000000090
:1053200000c0000000000000c0000000f9ff000005
:10533000001a0000c000000007c0000000060000c6
:10534000c000000019c0000000280000c0000000dc
:10535000a0c0000000900000c100000040c6000096
:10536000000000000000000000000000000000003d
:10537000000000000000000000000000000000002d
:10538000000000000000000000000000000000001d
:10539000000000000000000000000000000000000d
:1053a00000000000000000000000000000000000fd
:1053b00000000000000000000000000000000000ed
:1053c00000000000000000000000000000ff0000de
:1053d000ff2f000000c0000000000000c00000001f
:1053e000e4cb000000590000e400000007d00000fa
:1053f00000060000f400000059ee000000e4000088
:10540000da00000000c0000000000000c000000042
:1054100000c0000000000000c0000000000000000c
:10542000000000000000000000000000000000007c
:10543000000000000000000000000000000000006c
:10544000000000000000000000000000000000005c
:10545000000000000000000000000000000000004c
:1054600000000000b9010000400a00000018000020
:1054700000240000003000000000000000000000d8
:10548000000000000000000000000000000000001c
:10549000000000000000000000000000000000000c
:1054a00000000000000000000000000000000000fc
:1054b00000000000000000000000000000000000ec
:1054c00000000000000000000000000000000000dc
:1054d00000000000000000000000000000000000cc
:1054e00000000000000000000000000000000000bc
:1054f00000000000ffff0000d0010000800200005b
:1055000080020000d5010000fec60000bebe000003
:1055100069000000640000009001000040060000e7
:10552000001900000024000000000000000000003e
:10553000000000000000000000000000000000006b
:10554000000000000000000000000000000000005b
:10555000000000000000000000000000000000004b
:10556000000000000000000000000000000000003b
:10557000000000000000000000000000000000002b
:10558000ffff00000b9000001500000050240000f9
:1055900000600000300000007034000000a0000037
:1055a0003500000090260000006400001400000098
:1055b000f40600000094000006000000001900003e
:1055c0000000000024000000003000000000000087
:1055d00000000000000000000000000000000000cb
:1055e00000000000000000000000000000000000bb
:1055f00000000000000000000000000000000000ab
:105600000000000000000000000000000005000095
:10561000200000002a0000001d0000008c00000097
:10562000000000000800000002000000040000006c
:1056300000000000a90000000000000011000000b0
:105640000e00000001000000000000001d0100002d
:105650000000000012000000100000000100000027
:105660000000000091010000000000001200000096
:105670000e00000001000000000000000502000014
:1056800000000000110000000d00000001000000fb
:10569000000000007902000000000000100000007f
:1056a0000c0000000100000000000000d00200001b
:1056b00000000000110000000e00000001000000ca
:1056c0000000000044030000000000000000000093
:1056d0000e000000f6ff0000fcff0000c803000001
:1056e000000000000e0000000b00000001000000a0
:1056f000000000001f040000000000000200000085
:105700000e000000f1ff0000faff0000ab040000f3
:10571000000000000a0000000c000000ffff000075
:10572000f8ff0000000f00000f0f00000f0f000037
:105730000f0f00000f0f00000f0f00000a0a0000fb
:105740000a0a0000050000000f0f00000f0f000004
:105750000000000000000000000000000000000049
:105760000000000000000000000000000000000039
:105770000000000000000000000000000000000029
:105780000000000000400000f96b000000900000e5
:10579000ffff000001f4000016e5000007bd000057
:1057a000019000000b940000064000000f800000f4
:1057b0001b0000000fd00000060000000fe00000fa
:1057c000010000000ff00000000000000ff00000da
:1057d000000000000ff00000000000000ff00000cb
:1057e000000000000ff00000000000000ff00000bb
:1057f000000000000ff00000000000000ff00000ab
:10580000000000000ff00000000000000f0000008a
:105810000000000000000000000000000000000088
:105820000000000000000000000000000000000078
:105830000000000000000000000000000000000068
:105840000000000000000000000000000000000058
:105850000000000000000000000000000000000048
:105860000000000000000000000000006494000040
:105870001b000000b8f90000be0000006efe000032
:10588000e59100001b5a0000d7fa0000064700000f
:10589000d7fb0000065a0000d79200000bfe000064
:1058a000e24100000fb90000b50000000f00000049
:1058b000780000000f000000380000000f0000001a
:1058c000380000000f000000380000000f0000004a
:1058d000380000000f000000380000000f0000003a
:1058e000384000000f400000ffff00000b400000a8
:1058f000ffff0000060000000000000000000000a4
:105900000000000000000000000000000000000097
:105910000000000000000000000000000000000087
:105920000000000000000000000000000000000077
:105930000000000000000000000000000000000067
:105940000000000000000000000000000000000057
:105950000000000000400000fa6b000000e00000c2
:10596000ffff000001f8000016e50000077d0000c1
:10597000008000000b2e0000e44600000b1f00001a
:10598000f84b00000f0f00006c0e00000f1e00000f
:105990001c0d00000f1e0000680a00000f2d000003
:1059a000e40700000f780000d00100000fe40000c1
:1059b000a50000000fd000007a0000000f9000004a
:1059c0002b0000000f8000001f0000000f400000af
:1059d0000b0000000f8000000b0000000f00000013
:1059e00000000000000000000000000000000000b7
:1059f00000000000000000000000000000000000a7
:105a00000000000000000000000000000000000096
:105a10000000000000000000000000000000000086
:105a20000000000000000000000000000000000076
:105a30000000000000000000000000000040000026
:105a4000fe1a000000e40000ff7f000000b9000023
:105a500045f90000011e000000e000000205000002
:105a600000d00000039000006fc0000003e40000bd
:105a7000ffc1000003b40000e5c700000378000088
:105a800080cb0000037c000000de0000033c00002f
:105a900000ed000003bc00001bf8000003fc000048
:105aa0006ff400000378000074e000000378000049
:105ab00074e0000003f400006fd0000003900000c9
