:020000040000fa
:080000000002040000000000f2
:020000040000fa
:10000800d2020000d2020000d2020000d202000098
:10001800d2020000d2020000d2020000d202000088
:10002800d2020000d2020000d2020000d202000078
:10003800d2020000d2020000d2020000d202000068
:10004800d2020000d2020000d2020000d202000058
:10005800d2020000d2020000d2020000d202000048
:10006800d2020000d2020000d2020000d202000038
:10007800d2020000d2020000d2020000d202000028
:10008800d2020000d2020000d2020000d202000018
:10009800d2020000d2020000d2020000d202000008
:1000a800d2020000d2020000d2020000d2020000f8
:1000b800d2020000d2020000d2020000d2020000e8
:1000c800d2020000d2020000d2020000d2020000d8
:1000d800d2020000d2020000d2020000d2020000c8
:1000e800d2020000d2020000d2020000d2020000b8
:1000f800d2020000d2020000d2020000d2020000a8
:10010800d2020000d2020000d2020000d202000097
:10011800d2020000d2020000d2020000d202000087
:10012800d2020000d2020000d2020000d202000077
:10013800d2020000d2020000d2020000d202000067
:10014800d2020000d2020000d2020000d202000057
:10015800d2020000d2020000d2020000d202000047
:10016800d2020000d2020000d2020000d202000037
:10017800d2020000d2020000d2020000d202000027
:10018800d2020000d2020000d2020000d202000017
:10019800d2020000d2020000d2020000d202000007
:1001a800d2020000d2020000d2020000d2020000f7
:1001b8000c760100d2020000d2020000d202000038
:1001c800d2020000d2020000d2020000d2020000d7
:1001d800d2020000d2020000d2020000d2020000c7
:1001e800d2020000d2020000d2020000d2020000b7
:0801f800d2020000d202000057
:020000040000fa
:10020800d2020000d2020000d2020000d202000096
:10021800d2020000d2020000d2020000d202000086
:10022800d2020000d2020000d2020000d202000076
:10023800d2020000d2020000d2020000d202000066
:10024800d2020000d2020000d2020000d202000056
:10025800d2020000d2020000d2020000d202000046
:10026800d2020000d2020000d2020000d202000036
:10027800d2020000d2020000d2020000d202000026
:10028800d2020000d2020000d2020000d202000016
:10029800d2020000d2020000d2020000d202000006
:1002a800d2020000d2020000d2020000d2020000f6
:1002b800d2020000d2020000d2020000d2020000e6
:1002c800d2020000d2020000d2020000d2020000d6
:1002d800d2020000d2020000d2020000d2020000c6
:1002e800d2020000d2020000d2020000d2020000b6
:1002f800d2020000d2020000d2020000d2020000a6
:10030800d2020000d2020000d2020000d202000095
:10031800d2020000d2020000d2020000d202000085
:10032800d2020000d2020000d2020000d202000075
:10033800d2020000d2020000d2020000d202000065
:10034800d2020000d2020000d2020000d202000055
:10035800d2020000d2020000d2020000d202000045
:10036800d2020000d2020000d2020000d202000035
:10037800d2020000d2020000d2020000d202000025
:10038800d2020000d2020000d2020000d202000015
:10039800d2020000d2020000d2020000d202000005
:1003a800d2020000d2020000d2020000d2020000f5
:1003b8000c760100d2020000d2020000d202000036
:1003c800d2020000d2020000d2020000d2020000d5
:1003d800d2020000d2020000d2020000d2020000c5
:1003e800d2020000d2020000d2020000d2020000b5
:0803f800d2020000d202000055
:020000040000fa
:100400006fde20000eff27000e01880000000000b4
:10041000000020000000e000020032000001200087
:10042000200288000c000700c022280011002000d4
:100430000f000700000020000000e0000200320072
:10044000000002000000000024760200010000000d
:100450000040da000000fe00404923000000e000f8
:1004600002003200002020009001880000000600f9
:10047000a1028800800078000000eb001a0037001d
:10048000e280400054a0b4009101ba00e280400034
:1004900054a0b4009102ba00e280400054a0b4001d
:1004a0000002eb00472bde00f507b200a601880032
:1004b000602ce10008003a000049eb000201e8006e
:1004c000020039003420ec0002f0a0008301e900b2
:1004d000f9ff3e00040037006128e100010032000e
:1004e0000082eb00040007001101ba000200e000e6
:1004f000e3ff3a000000060004d0a300e20f490029
:100500001c003900810278003549ba000201e80078
:10051000020039003420ec0002f0a0008301e90061
:100520000f0032002549ba000201e800020039003c
:100530003420ec0002f0a0008301e9000800320042
:100540000400e0000600320015c9ba000201e8000c
:10055000020039003420ec0002f0a0008301e90021
:100560008180e80054a0b4000300e000e2ff3a00fc
:10057000000006009102ba00055978008301e900e5
:10058000f7ff3200c82ade00055978008301e90030
:10059000f3ff32000400e000f1ff320011d9ba008d
:1005a000eeff37000040da000000fe00839f680085
:1005b0000100e00002003d0060001000e080180033
:1005c0000300e00002003d0060011100e08119001d
:1005d000050007004f00e00002003b006000100033
:1005e000e0801800000006006022b800060220002b
:1005f0000000d0008180d2000482d2008582d20027
:100600000000a0000202520083825a000300310061
:100610000202420083824a000000a1000603e900b2
:10062000f3ff3a0000000600889fbe00d06a8000f9
:100630000000e0000100320000000100e06a8000dc
:100640000000e000010032000000010080d5200021
:100650001004e00022003a00106f8000216f80003b
:1006600088002000d2602600930120004600070089
:10067000f2352f00e3c623000000410081804900cd
:100680000804e900f7ff3a00e8d520000908200037
:1006900088844400d2602600930120003a000700bd
:1006a000f2352f00e3c6230000004100818049009d
:1006b00000acbe00890f5400f6ff3a00106f8800ae
:1006c000216f8800f06e8000016f8000f06a880062
:1006d000016b880011c0b30080d52000014878006c
:1006e000d260260093012000106f8000216f8000ef
:1006f00025000700f2352f00e3c623000002410069
:1007000081824900146f8800256f8800e0d52000a1
:10071000100078007f0160004211dd0020d620002b
:10072000020140001200be00f06a8800016b8800e0
:100730000489be000100780000f0a1004f04be0053
:1007400000000600889fbe0000047800d06a800088
:100750000000e000010032000000010080d5200010
:100760000048eb00e06a80000000e0000100320079
:10077000000001008004eb00186f8800296f8800da
:100780004f04be0000000600020ab900001bb900b9
:100790000200b80081004200810043000000060012
:020000040000fa
:1007a00000000000200000007e0000001b00000090
:1007b0000584000001000000069f00000100000009
:1007c0000aba0000010000000bf000000100000068
:1007d0000b26000002000000105c00000200000078
:1007e000109200000200000006c800000200000095
:1007f00007e300000200000007fe00000200000006
:100800000a19000003000000094f00000300000067
:10081000058500000300000008a0000003000000a0
:1008200005bb0000030000000bd600000300000021
:100830000b0c0000040000000b420000040000004c
:100840000b780000040000000bae00000400000064
:100850000be40000040000000b1a0000050000007b
:100860000b500000050000000b8600000500000092
:100870000bbc0000050000000bf2000005000000aa
:1008800005280000060000000543000006000000e7
:100890000a5e0000060000000a9400000600000046
:1008a0000aca0000060000000a000000070000005d
:1008b00013360000070000000e870000070000004c
:1008c0000cbd0000070000000cf300000700000052
:1008d0000e290000080000000b5f00000800000067
:1008e0000b950000080000000dcb00000800000080
:1008f0000f01000009000000073700000900000098
:1009000007520000090000000d6d00000900000002
:100910000ba300000900000013d90000090000002b
:100920000f2a00000a0000000e6000000a0000000c
:100930000c9600000a0000000ecc00000a00000027
:100940000d0200000b0000000b3800000b0000003f
:100950000d6e00000b0000000fa400000b00000053
:100960000fda00000b000000141000000c00000063
:100970000e6100000c0000000e9700000c0000004b
:100980000ccd00000c000000070300000d0000006b
:100990000b1e00000d000000085400000d000000b8
:1009a0000b6f00000d0000000ba500000d00000003
:1009b00007db00000d0000000bf600000d0000003a
:1009c0000c2c00000e0000000a6200000e00000067
:1009d0000c9800000e0000000bce00000e0000007e
:1009e000070400000f0000000c1f00000f000000b3
:1009f0000d5500000f000000068b00000f000000e6
:100a000006a600000f0000000cc100000f0000004f
:100a100006f700000f000000141200001000000094
:100a20000d630000100000000c9900001000000091
:100a30000ccf0000100000000c05000011000000a9
:100a4000093b0000110000000971000011000000c6
:100a500008a70000110000000cc2000011000000f7
:100a60000bf8000011000000102e00001200000022
:100a70000c640000120000000b9a0000120000003d
:100a80000ad0000012000000080600001300000059
:100a90000521000013000000083c000013000000c6
:100aa0000b570000130000000000000000000000d1
:100ab0000000000000000000000000000000000036
:100ac0000000000000000000000000000000000026
:100ad0000000000000000000000000000000000016
:100ae00000000000080c00000c0c00000c0c0000c2
:100af0000c0c00000c0c00000c0c000004000000aa
:100b00000c0c00000c0000000000000000000000c1
:100b100000000000000000000000000000000000d5
:100b2000cc000000cc000000cc000000cc00000095
:100b3000cc000000cc000000cc000000c40000008d
:100b400000000000000000000000000000000000a5
:100b50000000000000000000000000000000000095
:100b60000000000000000000000000000000000085
:100b70000000000000000000000000000000000075
:100b80000000000000000000000000000000000065
:100b900000000000000000006002000020030000d0
:100ba0002001000020010000fc070000900100006f
:100bb0009000000098000000fe03000048000000c4
:100bc0004c00000044000000640000000000000031
:100bd0000000000000000000000000000000000015
:100be0000000000000000000000000000000000005
:100bf0000000000000000000000000006000000095
:100c000060000000f80100006c03000066010000b5
:100c1000660000006e0000007c000000f80100008b
:100c2000e0010000e0030000600300006203000038
:100c30006203000066010000fc000000600000008c
:100c40006000000000000000000000000000000044
:100c50000000000000000000000000000000000094
:100c60000000000000000000000000000000000084
:100c70003830000024180000660c000066040000f4
:100c80006606000066030000a40100009c38000016
:100c9000c06400006066000020660000106600006e
:100ca000182400000c1c00000000000000000000e0
:100cb0000000000000000000000000000000000034
:100cc0000000000000000000000000000000000024
:100cd00000000000e00100003003000018030000e5
:100ce00018030000180100009801000078000000bf
:100cf000787e00007c1c0000cc180000c6190000a3
:100d0000861b0000060f0000060e00000c1a0000f3
:100d1000f87100000000000000000000000000006a
:100d200000000000000000000000000000000000c3
:100d300000000000000c00000c0c00000c0c000077
:100d40000c0c000004000000000000000000000087
:100d50000000000000000000000000000000000093
:100d600000000000000000000060000030100000e3
:100d7000080c00000c040000060600000606000037
:100d80000606000006060000040c00000c08000027
:100d900018300000600000000000000000000000ab
:100da000030600000c0800001818000010300000b6
:100db00030300000303000003030000030100000d3
:100dc00018180000080400000603000000000000de
:100dd00000000000000000000030000000300000b3
:100de0000022000001ae000003780000007800003f
:100df00000ae0000012200000130000000300000c1
:100e000000000000000000000000000000000000e2
:100e100000000000000000000000000000000000d2
:100e200000000000000000000000000000000000c2
:100e300000000000000000000000000000000000b2
:100e400000000000000000000000000000000000a2
:100e50000000000000000000000000000000000092
:100e600000000000003000000030000000300000f2
:100e700000fe0000013000000030000000300000e3
:100e80000030000000000000000000000000000032
:100e90000000000000000000000000000000000052
:100ea0000000000000000000000000000000000042
:100eb0000000000000000000000000000000000032
:100ec0000000000000000000000000000e0f000005
:100ed0000c0c0000040200000000000000000000f4
:100ee0000000000000000000000000000000000002
:100ef0000000000000000000000000007e00000074
:100f000000000000000000000000000000000000e1
:100f100000000000000000000000000000000000d1
:100f200000000000000000000000000000000000c1
:100f300000000000000000000c0c00000c0000008d
:100f400000000000000000000000000000000000a1
:100f5000000000000002000000030000000100008b
:100f6000800100008001000080000000c00000003f
:100f7000c0000000600000006000000020000000d1
:100f800030000000300000001000000018000000d9
:100f9000180000000c0000000c000000040000001d
:100fa0000600000006000000020000000000000033
:100fb0000000000000000000000000000000000031
:100fc0000000000000000000000000000000000021
:100fd000f0000000c80100008c0100008403000044
:100fe00006030000060300000603000006030000dd
:100ff0000603000006030000060100000c010000cb
:101000008c000000700000000000000000000000e4
:1010100000000000000000000000000000000000d0
:1010200000000000000000000000000000000000c0
:101030000000000000000000000000006000000050
:101040007800000064000000600000006000000004
:101050006000000060000000600000006000000010
:101060006000000060000000600000006000000000
:10107000fc03000000000000000000000000000071
:101080000000000000000000000000000000000060
:101090000000000000000000000000000000000050
:1010a000000000000000000078000000c401000003
:1010b000860100008201000080010000c0000000e5
:1010c000c0000000600000003000000030000000a0
:1010d000180000000c01000006010000fe010000e5
:1010e0000000000000000000000000000000000000
:1010f00000000000000000000000000000000000f0
:1011000000000000000000000000000000000000df
:1011100000000000f8000000cc0100008601000083
:10112000800100008001000040000000f00000008d
:101130008001000000030000000300000003000025
:10114000000300008601000078000000000000009d
:10115000000000000000000000000000000000008f
:10116000000000000000000000000000000000007f
:10117000000000000000000000000000000000006f
:10118000c0000000e0000000e0000000d00000000f
:10119000d8000000c8000000c4000000c600000025
:1011a000c2000000ff030000c0000000c0000000fb
:1011b000c0000000f003000000000000000000007c
:1011c000000000000000000000000000000000001f
:1011d000000000000000000000000000000000000f
:1011e00000000000000000000000000000010000fe
:1011f000fc000000040000000400000006000000e5
:101200007e000000c200000080010000800100009c
:10121000800100008001000080000000c300000089
:101220003c00000000000000000000000000000082
:1012300000000000000000000000000000000000ae
:10124000000000000000000000000000000000009e
:1012500000000000000000008001000060000000ad
:1012600018000000080000000c000000f60000005c
:101270008e010000060300000603000006030000c4
:10128000060300000c0100008c010000f0000000cb
:10129000000000000000000000000000000000004e
:1012a000000000000000000000000000000000003e
:1012b000000000000000000000000000000000002e
:1012c0000000000000000000fc030000020100001c
:1012d000020100008001000080000000c00000004a
:1012e000400000006000000020000000300000000e
:1012f000300000001800000008000000000000009e
:1013000000000000000000000000000000000000dd
:1013100000000000000000000000000000000000cd
:1013200000000000000000000000000000000000bd
:10133000f8000000cc0100008601000086010000da
:101340008e010000dc000000f0000000c801000079
:101350008c030000060300000603000006030000e3
:101360008c01000078000000000000000000000078
:10137000000000000000000000000000000000006d
:10138000000000000000000000000000000000005d
:10139000000000000000000000000000f00000005d
:1013a0008c01000084010000060300000603000019
:1013b00006030000060300008c0300007803000011
:1013c0000001000080010000c000000020000000bb
:1013d0001c000000000000000000000000000000f1
:1013e00000000000000000000000000000000000fd
:1013f00000000000000000000000000000000000ed
:10140000000c00000c0c00000000000000000000b8
:10141000000c00000c0c00000000000000000000a8
:1014200000000000000000000000000000000000bc
:1014300000000000000000000c0c00000c00000088
:1014400000000000000000000e0f00000c0c000067
:101450000402000000000000000000000000000086
:10146000000000000000000000000000000000007c
:10147000000000000000000000000000000000006c
:101480000000000000010000e00100003c0000003e
:10149000060000001c000000f000000080010000b9
:1014a000000000000000000000000000000000003c
:1014b000000000000000000000000000000000002c
:1014c000000000000000000000000000000000001c
:1014d000000000000000000000000000000000000c
:1014e00000000000000000000000000000000000fc
:1014f0000000000000000000fe01000000000000ed
:1015000000000000fe0100000000000000000000dc
:1015100000000000000000000000000000000000cb
:1015200000000000000000000000000000000000bb
:1015300000000000000000000000000000000000ab
:10154000000000000000000000000000000000009b
:101550000000000000000000000000000600000085
:101560003c000000e001000080010000f0000000ed
:101570001e0000000200000000000000000000004b
:10158000000000000000000000000000000000005b
:10159000000000000000000000000000000000004b
:1015a000000000000000000000000000f800000043
:1015b000cc010000860100008601000080010000cf
:1015c00080010000c000000060000000600000001a
:1015d000300000003000000030000000100000006b
:1015e000000000003000000030000000300000006b
:1015f00000000000000000000000000000000000eb
:1016000000000000000000000000000000000000da
:1016100000000000000000000000000000000000ca
:101620000000000000000000000000003f0000007b
:10163000c070000000300000c000000018800000f2
:1016400001080000800100000c97000003840000e6
:10165000180300004618000003660000180300008d
:1016600066180000036600001803000066180000fa
:10167000016e000098010000cc9c0000008c00006e
:101680007300000018000000003800008000000017
:10169000e0e00000018000001f00000000000000ea
:1016a000000000000000000000000000000000003a
:1016b000000000000000000000000000000000002a
:1016c000000000000040000000c0000000a000007a
:1016d00000a0000001a000000110000001100000a7
:1016e0000310000003f800000308000006080000d3
:1016f000060400000c0400000c1f00001e00000087
:1017000000000000000000000000000000000000d9
:1017100000000000000000000000000000000000c9
:1017200000000000000000000000000000000000b9
:1017300000fe0000008d0000030c0000030c000000
:10174000030c0000038c000001fc0000018c000071
:10175000030c0000070c0000060c0000060c000043
:10176000060c000003ff0000010000000000000064
:101770000000000000000000000000000000000069
:101780000000000000000000000000000000000059
:1017900000000000000000000000000000c0000089
:1017a000073000000c080000000c000000040000de
:1017b0000006000000060000000600000006000011
:1017c00000060000000c0000000c000008380000bb
:1017d00004e0000003000000000000000000000022
:1017e00000000000000000000000000000000000f9
:1017f00000000000000000000000000000000000e9
:10180000000000000000000000fe0000010d0000cc
:10181000070c00000e0c00000c0c0000180c00005f
:10182000180c0000180c0000180c0000180c000028
:10183000180c00000c0c00000e0c000007ff00004c
:101840000100000000000000000000000000000097
:101850000000000000000000000000000000000088
:101860000000000000000000000000000000000078
:101870000000000000ff0000030c0000020c00004c
:10188000020c0000000c0000000c000000fc000036
:10189000018c0000000c0000000c0000000c000097
:1018a000000c0000040c000006ff00000300000014
:1018b0000000000000000000000000000000000028
:1018c0000000000000000000000000000000000018
:1018d0000000000000000000000000000000000008
:1018e00000ff0000030c0000020c0000020c0000ce
:1018f000000c0000000c000000fc0000018c000047
:10190000000c0000000c0000000c0000000c0000a7
:10191000000c0000003f000000000000000000007c
:1019200000000000000000000000000000000000b7
:1019300000000000000000000000000000000000a7
:1019400000000000000000000000000000e00000b7
:101950000310000006080000000c00000006000054
:101960000006000000060000008600000f060000d0
:1019700006060000060c0000060c00000618000019
:1019800006f0000001000000000000000000000060
:101990000000000000000000000000000000000047
:1019a0000000000000000000000000000000000037
:1019b0000000000000000000003f00007e0c00005e
:1019c000180c0000180c0000180c0000180c000087
:1019d00018fc00001f0c0000180c0000180c000080
:1019e000180c0000180c0000180c0000183f000034
:1019f0007e00000000000000000000000000000069
:101a000000000000000000000000000000000000d6
:101a10000000000000000000003f00000c0c00006f
:101a20000c0c00000c0c00000c0c00000c0c000056
:101a30000c0c00003f00000000000000000000004f
:101a40000000000000000000000000000000000096
:101a50007e18000018180000181800001818000060
:101a600018180000181800001818000018080000c6
:101a7000040300000000000000000000000000005f
:101a80000000000000000000000000000000000056
:101a9000003f00000f0c0000020c0000018c000051
:101aa000004c0000006c0000003c0000006c0000d6
:101ab00000ec000000cc0000008c0000010c0000d5
:101ac000030c0000063f00001c00000000000000a6
:101ad0000000000000000000000000000000000006
:101ae00000000000000000000000000000000000f6
:101af000000000000000000000000000003f0000a7
:101b0000000c0000000c0000000c0000000c0000a5
:101b1000000c0000000c0000000c0000000c000095
:101b2000000c0000000c0000000c0000040c000081
:101b300002ff0000030000000000000000000000a1
:101b40000000000000000000000000000000000095
:101b50000000000000000000000000000000000085
:101b60000000000000000000000000000000000075
:101b700000000000001e0000c00100001ce000008a
:101b8000001c0000e00000003cf00000002c000001
:101b9000d00000006cd00000006c0000c800000005
:101ba000ccc8000000cc0000cc0000008cc50000b8
:101bb000008c0000c70000000cc30000000c0000f7
:101bc000c30000001ee10000030000000000000050
:101bd0000000000000000000000000000000000005
:101be00000000000000000000000000000000000f5
:101bf00000000000000000000000000000000000e5
:101c00000000000000000000000000000f7e000047
:101c10000c1800001c1800003c1800002c180000d4
:101c20004c180000cc1800008c1900000c190000a2
:101c30000c1b00000c1e00000c1c00000c1c000003
:101c40003f1800000000000000000000000000003d
:101c50000000000000000000000000000000000084
:101c60000000000000000000000000000000000074
:101c70000000000000000000e00300001806000063
:101c8000080c00000c0c00000618000006180000ec
:101c900006180000061800000618000006180000cc
:101ca0000c0c00000c04000018020000f001000001
:101cb0000000000000000000000000000000000024
:101cc0000000000000000000000000000000000014
:101cd0000000000000000000000000000000000004
:101ce00000000000fe0100000d0300000c060000d3
:101cf0000c0600000c0600000c0600000c0300009f
:101d0000fc0000000c0000000c0000000c000000b3
:101d10000c0000000c0000003f000000000000006c
:101d200000000000000000000000000000000000b3
:101d300000000000000000000000000000000000a3
:101d40000000000000000000000000000000000093
:101d5000e003000018060000080c00000c0c000056
:101d600006180000061800000618000006180000fb
:101d700006180000061800000c0c00000c0c0000f7
:101d800018060000f001000000030000000600003b
:101d9000003800000000000000000000000000000b
:101da0000000000000000000000000000000000033
:101db000000000000000000000000000fe01000024
:101dc0000d0300000c0600000c0600000c060000cd
:101dd0000c030000fc000000cc000000cc00000060
:101de0008c0100000c0300000c0300000c06000036
:101df0003f1c000000000000000000000000000088
:101e000000000000000000000000000000000000d2
:101e100000000000000000000000000000000000c2
:101e20000000000000000000f80000008c0100002d
:101e300006000000060000000e0000003c0000004c
:101e4000f8000000e0010000800300000003000033
:101e50000203000002010000860100007c00000077
:101e60000000000000000000000000000000000072
:101e70000000000000000000000000000000000062
:101e80000000000000000000000000000000000052
:101e900000000000ff0f0000610800006108000062
:101ea00060000000600000006000000060000000b2
:101eb00060000000600000006000000060000000a2
:101ec0006000000060000000f80100000000000059
:101ed0000000000000000000000000000000000002
:101ee00000000000000000000000000000000000f2
:101ef00000000000000000000000000000000000e2
:101f00003f7e00000c1800000c1800000c180000a8
:101f10000c1800000c1800000c1800000c18000031
:101f20000c1800000c1800000c180000180c000021
:101f300038060000e0030000000000000000000080
:101f40000000000000000000000000000000000091
:101f50000000000000000000000000000000000081
:101f60000000000000000000000000001f3c000016
:101f70000c1800000c08000018080000180c0000e5
:101f800018040000300600003002000020020000ab
:101f90006003000060010000c0010000c0010000fb
:101fa00080000000000000000000000000000000b1
:101fb0000000000000000000000000000000000021
:101fc0000000000000000000000000000000000011
:101fd0000000000000000000000000000000000001
:101fe000000000001fc20000070c000006010000f6
:101ff0000c060000010c0000070100000c8d000021
:10200000010800008d000000988900000098000081
:10201000980000009898000000d00000d000000058
:102020007070000000700000700000007060000020
:102030000020000060000000000000000000000020
:102040000000000000000000000000000000000090
:102050000000000000000000000000000000000080
:102060000000000000000000000000000000000070
:102070000000000000000000003f00001f0c0000f6
:102080000c180000063800000330000001e00000da
:1020900001c0000000c0000001a0000001300000ed
:1020a00003180000060800000e0c00000c1f0000c2
:1020b0003e000000000000000000000000000000e2
:1020c0000000000000000000000000000000000010
:1020d0000000000000000000000000000000000000
:1020e00000000000000700003e0c00000c1800007b
:1020f00004180000023000000360000001e000004e
:1021000001c0000000c0000000c0000000c00000ce
:1021100000c0000000c0000000f00000030000004c
:1021200000000000000000000000000000000000af
:10213000000000000000000000000000000000009f
:10214000000000000000000000000000000000008f
:1021500000fc0000070400000302000003800000f0
:1021600001c0000000c0000000600000007000001e
:10217000003000000018000000180000000c0000f3
:102180000406000004fe000007000000000000003c
:10219000000000000000000000000000000000003f
:1021a0000000000000000000003e000006060000e5
:1021b00006060000060600000606000006060000ef
:1021c00006060000060600000606000006060000df
:1021d000060600003e0000000000000000000000b5
:1021e00000000000020000000600000006000000e1
:1021f000040000000c0000000800000018000000af
:102200001800000010000000300000003000000046
:1022100020000000600000004000000040000000be
:10222000c00000008000000080010000800100006c
:102230000001000000030000000200000000000098
:102240000000000000000000000000003e30000020
:1022500030300000303000003030000030300000fe
:1022600030300000303000003030000030300000ee
:1022700030300000303e0000000000000000000090
:1022800000000000000000000020000000600000ce
:102290000070000000d0000000d80000008800009e
:1022a00000880000018c000001040000030400000d
:1022b0000302000003000000000000000000000016
:1022c000000000000000000000000000000000000e
:1022d00000000000000000000000000000000000fe
:1022e00000000000000000000000000000000000ee
:1022f00000000000000000000000000000000000de
:1023000000000000000000000000000000000000cd
:1023100000000000000000000000000000000000bd
:1023200000000000000000000000000000000000ad
:10233000000000000000000000000000000000009d
:1023400000fe00000300000000000000000000008c
:102350000000000000000000000000000306000074
:102360000c08000010000000000000000000000049
:10237000000000000000000000000000000000005d
:10238000000000000000000000000000000000004d
:10239000000000000000000000000000000000003d
:1023a000000000000000000000000000000000002d
:1023b00000000000f00000008c0100008601000019
:1023c00080010000f00100008c0100008601000087
:1023d00086010000c6010000bc07000000000000ec
:1023e00000000000000000000000000000000000ed
:1023f00000000000000000000000000000000000dd
:10240000000000000c0000000e0000000c000000a6
:102410000c0000000c0000000c0000000c0000008c
:10242000cc0100003c0300001c0700000c0600006b
:102430000c0600000c0600000c0600000c02000058
:102440001c010000f000000000000000000000007f
:10245000000000000000000000000000000000007c
:10246000000000000000000000000000000000006c
:10247000000000000000000000000000000000005c
:10248000000000000000000000000000e00100006b
:10249000180300000c000000060000000600000009
:1024a00006000000060000000c0000001c030000f5
:1024b000f00000000000000000000000000000002c
:1024c000000000000000000000000000000000000c
:1024d00000000000000000000000000000030000f9
:1024e000c003000000030000000300000003000020
:1024f0000003000000030000f00300008803000058
:1025000004030000060300000603000006030000a9
:10251000060300000e030000cc0b0000380700008b
:1025200000000000000000000000000000000000ab
:10253000000000000000000000000000000000009b
:10254000000000000000000000000000000000008b
:10255000000000000000000000000000000000007b
:1025600000000000f0000000080300000403000069
:10257000fe03000006000000060000000600000048
:102580000c0000001c030000f00000000000000030
:10259000000000000000000000000000000000003b
:1025a00000000000000000000000000000600000cb
:1025b000501800000c0c00000c0c00007e0d0000f8
:1025c0000c0c00000c0c00000c0c00000c3f000078
:1025d00000000000000000000000000000000000fb
:1025e00000000000000000000000000000000000eb
:1025f00000000000000000000000000000000000db
:102600000000000000f800000c8c00000306000031
:102610000306000003060000038c000001f8000020
:1026200000180000001c000000f800000306000075
:102630000e0300000c0300000c06000006fc000066
:102640000100000000000000000000000000000089
:1026500000000000000c0000000f0000000c000053
:10266000000c0000000c0000000c0000000c00003a
:1026700000cc0000032c0000061c0000060c00002b
:10268000060c0000060c0000060c0000060c000002
:10269000060c000006bf00001f0000000000000044
:1026a000000000000000000000000000000000002a
:1026b000000000000000000000000000000000001a
:1026c0000c0c000000000000000c00000f0c0000cb
:1026d0000c0c00000c0c00000c0c00003f00000073
:1026e00000000000000000000000000000000000ea
:1026f00000000000000c00000c00000000000000c2
:102700000c0f00000c0c00000c0c00000c0c000066
:102710000c0c00000c0c0000040200000100000082
:10272000000000000000000000000000000c00009d
:10273000000f0000000c0000000c0000000c000066
:10274000000c0000000c0000008c0000078c000052
:1027500001cc0000002c0000003c0000006c0000d8
:1027600000cc0000008c0000010c0000031f0000e2
:102770000f0000000000000000000000000000004a
:102780000000000000000000000000000000000049
:10279000000000000c0f00000c0c00000c0c0000ee
:1027a0000c0c00000c0c00000c0c00000c0c0000c9
:1027b0000c0c00003f0000000000000000000000c2
:1027c0000000000000000000000000000000000009
:1027d00000000000000000000000000000000000f9
:1027e00000000000000000000000000000000000e9
:1027f00000000000000000000000000000000000d9
:102800008ee30000016d0000160300001c0e0000a6
:10281000030c0000060300000c060000030c00007f
:10282000060300000c060000030c00000603000075
:102830000c06000003bf0000df0f000000000000d6
:102840000000000000000000000000000000000088
:102850000000000000000000000000000000000078
:102860000000000000000000000000000000000068
:102870000000000000000000000000000000000058
:10288000000000000000000000000000008e0000ba
:10289000036d0000061c0000060c0000060c000082
:1028a000060c0000060c0000060c0000060c0000e0
:1028b00006bf00001f000000000000000000000034
:1028c0000000000000000000000000000000000008
:1028d00000000000000000000000000000000000f8
:1028e00000000000000000000000000000000000e8
:1028f000000000000000000000f000000088000060
:10290000030400000306000006060000060600009f
:1029100006060000060c0000021c000001f000008a
:1029200000000000000000000000000000000000a7
:102930000000000000000000000000000000000097
:102940000000000000000000000000000000000087
:102950000000000000000000000000000000000077
:102960000000000000ce0000013d0000031c00003c
:10297000070c0000060c0000060c0000060c00000e
:10298000060c0000021c000003ec0000000c00001c
:10299000000c0000000c0000000c0000003f0000d4
:1029a0000000000000000000000000000000000027
:1029b0000000000000000000000000000000000017
:1029c0000000000000000000000000000000000007
:1029d00000f0000002880000030c00000306000065
:1029e000030600000306000003060000030e0000bb
:1029f000038c0000037800000300000003000000c7
:102a0000030000000300000003c000000f000000ee
:102a100000000000000000000000000000000000b6
:102a200000000000000000000000000000000000a6
:102a300000000000000000000000000000cc0000ca
:102a400001af0000019c0000001c0000000c000011
:102a5000000c0000000c0000000c0000000c000046
:102a6000003f000000000000000000000000000027
:102a70000000000000000000000000000000000056
:102a80000000000000000000000000000000000046
:102a90000000000000000000000000000000000036
:102aa0000000000000000000007c00000066000044
:102ab00000060000000e0000003c000000f00000d6
:102ac00000c0000000c2000000c20000003e000084
:102ad00000000000000000000000000000000000f6
:102ae00000000000000000000000000000000000e6
:102af0000000000000000000000800000c0c0000b6
:102b00000cfe00000d0c00000c0c00000c0c000072
:102b10000c8c0000780000000000000000000000a5
:102b200000000000000000000000000000000000a5
:102b30000000000000000000000000000000000095
:102b40000000000000000000000000000c03000076
:102b5000ce0300000c0300000c0300000c03000077
:102b60000c0300000c0300000c030000cc0b000061
:102b70003807000000000000000000000000000016
:102b80000000000000000000000000000000000045
:102b90000000000000000000000000000000000035
:102ba0000000000000000000000000000000000025
:102bb00000000000000000009f0700000402000069
:102bc0000c0100000c0100009801000098000000ba
:102bd0009000000070000000600000002000000075
:102be00000000000000000000000000000000000e5
:102bf00000000000000000000000000000000000d5
:102c000000000000000000000000000000000000c4
:102c100000000000000000000000000000000000b4
:102c2000000000001ff100000441000084230000a8
:102c30008c2300008826000048360000581400004d
:102c4000301c0000301c00003008000000000000b4
:102c50000000000000000000000000000000000074
:102c60000000000000000000000000000000000064
:102c70000000000000000000000000000000000054
:102c80000000000000000000000000000000000044
:102c90009f0700000c01000098000000f0000000f9
:102ca0006000000070000000d000000088010000fb
:102cb000040300008f070000000000000000000077
:102cc0000000000000000000000000000000000004
:102cd00000000000000000000000000000000000f4
:102ce00000000000000000000000000000000000e4
:102cf0000000000000000000000000009f0700002e
:102d0000040200000c0100000c010000980100000a
:102d100098000000900000007000000060000000bb
:102d200060000000200000003000000010000000e3
:102d30000f0000000700000000000000000000007d
:102d40000000000000000000000000000000000083
:102d50000000000000000000000000000000000073
:102d60000000000000000000fe01000082010000e1
:102d7000c2000000600000002000000030000000e1
:102d8000180000000c01000004010000fe0100001a
:102d90000000000000000000000000000000000033
:102da0000000000000000000000000000000000023
:102db00040300000101800001818000038300000e3
:102dc00030100000081e00003030000030300000dd
:102dd0001818000018180000304000000000000023
:102de000000000000c0c00000c0c00000c0c00009b
:102df0000c0c00000c0c00000c0c00000c0c000073
:102e00000c0c00000c0c00000c0c00000c0c000062
:102e10000c0c00000000000000000000020c00008c
:102e200018180000181800000c0c00000c0c000012
:102e300078100000080c00000c1c0000181800009e
:102e4000180800000c020000000000000000000054
:102e50000000000000000000000000000000000072
:102e60000000000000000000000000000000000062
:102e7000000000000000000000180000047c0000ba
:102e800002f2000001c2000001000000000000008a
:102e90000000000000000000000000000000000032
:102ea0000000000000000000000000000000000022
:102eb0000000000000000000000000000000000012
:102ec000200000007e000000210000000e840000b1
:102ed000010000000ec60000010000000e08000006
:102ee000020000000e4a0000020000000e8c0000ec
:102ef000020000000ece0000020000000e100000d4
:102f0000030000000e520000030000000e940000b9
:102f1000030000000ed60000030000000e180000a1
:102f2000040000000e5a0000040000000e9c000087
:102f3000040000000ede0000040000000e2000006f
:102f4000050000000e620000050000000ea4000055
:102f5000050000000ee60000050000000e2800003d
:102f6000060000000e6a0000060000000eac000023
:102f7000060000000eee0000060000000e3000000b
:102f8000070000000e720000070000000eb40000f1
:102f9000070000000ef60000070000000e380000d9
:102fa000080000000e7a0000080000000ebc0000bf
:102fb000080000000efe0000080000000e400000a7
:102fc000090000000e820000090000000ec400008d
:102fd000090000000e0600000a0000000e48000074
:102fe0000a0000000e8a00000a0000000ecc00005b
:102ff0000a0000000e0e00000b0000000e50000042
:103000000b0000000e9200000b0000000ed4000028
:103010000b0000000e1600000c0000000e5800000f
:103020000c0000000e9a00000c0000000edc0000f6
:103030000c0000000e1e00000d0000000e600000dd
:103040000d0000000ea200000d0000000ee40000c4
:103050000d0000000e2600000e0000000e680000ab
:103060000e0000000eaa00000e0000000eec000092
:103070000e0000000e2e00000f0000000e70000079
:103080000f0000000eb200000f0000000ef4000060
:103090000f0000000e360000100000000e78000047
:1030a000100000000eba0000100000000efc00002e
:1030b000100000000e3e0000110000000e80000015
:1030c000110000000ec20000110000000e040000fc
:1030d000120000000e460000120000000e880000e2
:1030e000120000000eca0000120000000e0c0000ca
:1030f000130000000e4e0000130000000e900000b0
:10310000130000000ed20000130000000e14000097
:10311000140000000e560000140000000e9800007d
:10312000140000000eda0000140000000e1c000065
:10313000150000000e5e0000150000000ea000004b
:10314000150000000ee20000150000000e24000033
:10315000160000000e660000160000000ea8000019
:10316000160000000eea0000160000000e2c000001
:10317000170000000e6e0000170000000eb00000e7
:10318000170000000ef20000170000000e340000cf
:10319000180000000e760000180000000eb80000b5
:1031a000180000000efa0000180000000e3c00009d
:1031b000190000000e7e0000190000000ec0000083
:1031c00019000000000000000000000000000000e6
:1031d00000000000000000000000000000000000ef
:1031e00000000000000000000000000000000000df
:1031f00000000000000000000000000000000000cf
:1032000000000000000000000000000000000000be
:1032100000000000000000000000000000000000ae
:10322000000000000000000000000000000000009e
:10323000000000000000000000000000000000008e
:10324000000000000000000000000000000000007e
:10325000000000000000000000000000000000006e
:10326000000000000000000000000000c00100009d
:10327000c0010000c0010000c0010000c00100004a
:10328000c0010000800000008000000080000000fd
:1032900080000000800000008000000000000000ae
:1032a00000000000c0010000c0010000c0010000db
:1032b000000000000000000000000000000000000e
:1032c00000000000000000000000000000000000fe
:1032d00000000000000000000000000000000000ee
:1032e00000000000000000000000000000000000de
:1032f00038070000380700003807000018030000f6
:103300001803000018030000000000000000000087
:1033100000000000000000000000000000000000ad
:10332000000000000000000000000000000000009d
:10333000000000000000000000000000000000008d
:10334000000000000000000000000000000000007d
:10335000000000000000000000000000000000006d
:10336000000000000000000000000000000000005d
:1033700000000000300600003006000030060000ab
:103380001006000010020000fe1f0000fe1f0000db
:10339000180300001803000018030000ff0f0000ce
:1033a000ff0f0000080100008c0100008c010000ec
:1033b0008c0100008c0100000000000000000000f3
:1033c00000000000000000000000000000000000fd
:1033d00000000000000000000000000000000000ed
:1033e00000000000000000000000000000000000dd
:1033f00000000000c0000000c0000000f007000056
:10340000f8070000dc000000cc000000cc00000049
:10341000dc000000f8000000e0030000c00700002e
:10342000c00e0000c00c0000c00c0000c40e000064
:10343000fc070000f8010000c0000000c000000010
:10344000c0000000000000000000000000000000bc
:10345000000000000000000000000000000000006c
:10346000000000000000000000000000000000005c
:103470000000000000000000000000001c0c000024
:1034800036060000630600006303000063030000cb
:10349000e3010000b6000000dc0000004000000076
:1034a00060070000b00d0000f0180000d818000000
:1034b000d8180000cc1800008c0d00000607000092
:1034c00000000000000000000000000000000000fc
:1034d00000000000000000000000000000000000ec
:1034e00000000000000000000000000000000000dc
:1034f00000000000000000000000000000000000cc
:10350000f0000000f80100000c0300000c030000b4
:103510000c0300009c010000d8010000f000000036
:1035200078000000fc180000ce190000860f000093
:10353000060f0000060600000e0f0000fc1f000032
:10354000f83800000000000000000000000000004b
:10355000000000000000000000000000000000006b
:10356000000000000000000000000000000000005b
:10357000000000000000000000000000000000004b
:1035800000000000e0000000e0000000e00000009b
:10359000600000006000000060000000000000000b
:1035a000000000000000000000000000000000001b
:1035b000000000000000000000000000000000000b
:1035c00000000000000000000000000000000000fb
:1035d00000000000000000000000000000000000eb
:1035e00000000000000000000000000000000000db
:1035f00000000000000000000000000000000000cb
:103600000000000000000000000300008001000036
:10361000c0000000e000000060000000300000007a
:103620003000000038000000180000001800000002
:10363000180000001800000018000000380000000a
:10364000300000003000000060000000600000005a
:10365000c000000080010000000300000000000026
:10366000000000000000000000000000000000005a
:10367000000000000000000000000000000000004a
:10368000000000000000000000000000300000000a
:1036900060000000c0000000c001000080010000c8
:1036a0000003000000030000000700000006000007
:1036b00000060000000600000006000000060000f2
:1036c000000700000003000000030000800100006c
:1036d00080010000c0000000600000003000000019
:1036e00000000000000000000000000000000000da
:1036f00000000000000000000000000000000000ca
:10370000000000000000000000000000c0000000f9
:10371000c0000000c0000000c0000000fc1f00004e
:10372000fe1f0000e0010000e00100003003000087
:103730003807000010020000000000000000000038
:103740000000000000000000000000000000000079
:103750000000000000000000000000000000000069
:103760000000000000000000000000000000000059
:103770000000000000000000000000000000000049
:103780000000000000000000000000000000000039
:103790000000000000000000000000000000000029
:1037a000c0000000c0000000c0000000c000000019
:1037b000c0000000fe0f0000fe0f0000c00000006f
:1037c000c0000000c0000000c000000000000000b9
:1037d00000000000000000000000000000000000e9
:1037e00000000000000000000000000000000000d9
:1037f00000000000000000000000000000000000c9
:1038000000000000000000000000000000000000b8
:1038100000000000000000000000000000000000a8
:103820000000000000000000000000000000000098
:103830000000000000000000000000000000000088
:103840000000000000000000000000000000000078
:10385000e0000000e00000006000000060000000e8
:1038600030000000300000000000000000000000f8
:103870000000000000000000000000000000000048
:103880000000000000000000000000000000000038
:103890000000000000000000000000000000000028
:1038a0000000000000000000000000000000000018
:1038b0000000000000000000000000000000000008
:1038c00000000000f8070000f807000000000000fa
:1038d00000000000000000000000000000000000e8
:1038e00000000000000000000000000000000000d8
:1038f00000000000000000000000000000000000c8
:1039000000000000000000000000000000000000b7
:1039100000000000000000000000000000000000a7
:103920000000000000000000000000000000000097
:103930000000000000000000000000000000000087
:103940000000000000000000000000000000000077
:103950000000000000000000e0000000e0000000a7
:10396000e000000000000000000000000000000077
:103970000000000000000000000000000000000047
:103980000000000000000000000000000000000037
:103990000000000000000000000000000000000027
:1039a00000000000000c00000006000000060000ff
:1039b00000030000000300008001000080010000ff
:1039c000c0010000c0000000e00000006000000036
:1039d000600000003000000030000000180000000f
:1039e000180000000c0000000000000000000000b3
:1039f00000000000000000000000000000000000c7
:103a000000000000000000000000000000000000b6
:103a100000000000000000000000000000000000a6
:103a20000000000000000000f0010000f8030000aa
:103a30001c0700000c0600000e0e0000060c000023
:103a4000060c0000060c0000060c0000060c00002e
:103a5000060c0000060c00000e0e00000c06000014
:103a60001c070000f8030000f00100000000000047
:103a70000000000000000000000000000000000046
:103a80000000000000000000000000000000000036
:103a90000000000000000000000000000000000026
:103aa0000000000000000000000000008001000095
:103ab000e0010000f0010000b801000090010000ea
:103ac00080010000800100008001000080010000f2
:103ad00080010000800100008001000080010000e2
:103ae00080010000800100008001000080010000d2
:103af00000000000000000000000000000000000c6
:103b000000000000000000000000000000000000b5
:103b100000000000000000000000000000000000a5
:103b20000000000000000000000000000000000095
:103b3000e0030000f8070000180e0000000c000071
:103b4000000c0000000c0000000e00000006000049
:103b50000007000080030000c0010000c00000005a
:103b6000600000003000000018000000fc1f000092
:103b7000fc1f00000000000000000000000000002a
:103b80000000000000000000000000000000000035
:103b90000000000000000000000000000000000025
:103ba0000000000000000000000000000000000015
:103bb00000000000f0010000fc0300000807000006
:103bc000000600000006000000070000800300005f
:103bd000f0000000f003000000060000000c0000f0
:103be000000c0000000c0000000e000004060000a5
:103bf000fc070000f80100000000000000000000c9
:103c000000000000000000000000000000000000b4
:103c100000000000000000000000000000000000a4
:103c20000000000000000000000000000000000094
:103c3000000000000000000080030000800300007e
:103c4000c0030000400300006003000030030000d8
:103c50003003000018030000180300000c030000ec
:103c600006030000fe1f0000fe1f0000000300000e
:103c7000000300000003000000030000000000003b
:103c80000000000000000000000000000000000034
:103c90000000000000000000000000000000000024
:103ca0000000000000000000000000000000000014
:103cb000000000000000000000000000f807000005
:103cc000f80700000c0000000c0000000c000000d1
:103cd0000c000000fc010000fc07000000060000d2
:103ce000000e0000000c0000000c0000000c0000a2
:103cf000000e000004060000fc030000f8010000b4
:103d000000000000000000000000000000000000b3
:103d100000000000000000000000000000000000a3
:103d20000000000000000000000000000000000093
:103d30000000000000000000000000000000000083
:103d4000c0070000f0070000380000001c00000061
:103d50000c0000000e000000e6010000f607000065
:103d60000e0600000e0c0000060c0000060c000001
:103d7000060c00000c0e00001c060000f8070000f6
:103d8000f001000000000000000000000000000042
:103d90000000000000000000000000000000000023
:103da0000000000000000000000000000000000013
:103db0000000000000000000000000000000000003
:103dc00000000000fe0f0000fe0f0000000e0000cb
:103dd00000060000000600000003000000030000d1
:103de0008001000080010000c0010000c000000050
:103df000e0000000600000006000000030000000f3
:103e0000300000001800000000000000000000006a
:103e100000000000000000000000000000000000a2
:103e20000000000000000000000000000000000092
:103e30000000000000000000000000000000000082
:103e40000000000000000000f0010000f803000086
:103e50001c0700000c0600000c0600001c060000f9
:103e600038030000f0010000f00100001c07000012
:103e70000c060000060c0000060c0000060c0000fa
:103e80000e0e0000fc070000f00100000000000022
:103e90000000000000000000000000000000000022
:103ea0000000000000000000000000000000000012
:103eb0000000000000000000000000000000000002
:103ec000000000000000000000000000f001000001
:103ed000fc0300000c0700000e060000060c0000aa
:103ee000060c0000060c0000060e00000c0e000080
:103ef000fc0d0000f00c0000000e000000060000a9
:103f00000007000080030000fc0100007c000000ae
:103f100000000000000000000000000000000000a1
:103f20000000000000000000000000000000000091
:103f30000000000000000000000000000000000081
:103f40000000000000000000000000000000000071
:103f50000000000000000000000000000000000061
:103f6000e0000000e0000000e000000000000000b1
:103f70000000000000000000000000000000000041
:103f80000000000000000000e0000000e000000071
:103f9000e000000000000000000000000000000041
:103fa0000000000000000000000000000000000011
:103fb0000000000000000000000000000000000001
:103fc00000000000000000000000000000000000f1
:103fd00000000000000000000000000000000000e1
:103fe00000000000e0000000e0000000e000000031
:103ff00000000000000000000000000000000000c1
:10400000000000000000000000000000e0000000d0
:10401000e0000000600000006000000030000000d0
:104020003000000000000000000000000000000060
:104030000000000000000000000000000000000080
:104040000000000000000000000000000000000070
:104050000000000000000000000000000000000060
:104060000000000000080000000e000080070000b3
:10407000c0010000700000001c0000001c000000d7
:1040800070000000c001000080070000000e00006a
:104090000008000000000000000000000000000018
:1040a0000000000000000000000000000000000010
:1040b0000000000000000000000000000000000000
:1040c00000000000000000000000000000000000f0
:1040d00000000000000000000000000000000000e0
:1040e00000000000000000000000000000000000d0
:1040f000fc0f0000fc0f00000000000000000000aa
:1041000000000000fc0f0000fc0f00000000000099
:10411000000000000000000000000000000000009f
:10412000000000000000000000000000000000008f
:10413000000000000000000000000000000000007f
:10414000000000000000000000000000000000006f
:10415000000000000000000000000000000000005f
:10416000000000000000000000000000040000004b
:104170001c00000078000000e00000008003000048
:10418000000e0000000e000080030000e0000000b0
:10419000780000001c000000040000000000000087
:1041a000000000000000000000000000000000000f
:1041b00000000000000000000000000000000000ff
:1041c00000000000000000000000000000000000ef
:1041d00000000000000000000000000000000000df
:1041e00000000000f0030000fc070000080e0000c3
:1041f000000c0000000c0000000c00000006000095
:104200000007000080010000c0000000c0000000a6
:10421000600000000000000000000000e00000005e
:10422000e0000000e00000000000000000000000ce
:10423000000000000000000000000000000000007e
:10424000000000000000000000000000000000006e
:10425000000000000000000000000000000000005e
:104260000000000000000000e0030000f80f000064
:104270000c0c00000618000006100000e2330000dd
:10428000f33300001b3300001b3300001b3300001e
:104290001b3300001b330000f31f0000e30c000081
:1042a00006000000060000000c000000f80f0000ef
:1042b000e007000000000000000000000000000017
:1042c00000000000000000000000000000000000ee
:1042d00000000000000000000000000000000000de
:1042e000000000000000000000000000c00000000e
:1042f000e0010000e0010000e001000030030000e8
:10430000300300003003000018060000180600000b
:1043100018060000fc0f0000fc0f00000c0c000051
:104320000618000006180000061800000330000000
:10433000000000000000000000000000000000007d
:10434000000000000000000000000000000000006d
:10435000000000000000000000000000000000005d
:10436000000000000000000000000000000000004d
:10437000fe030000fe0f0000061c000006180000ef
:1043800006180000061c0000060c0000fe070000d6
:10439000fe070000060c0000061c000006180000c6
:1043a00006180000061c0000060e0000fe0f0000ac
:1043b000fe030000000000000000000000000000fc
:1043c00000000000000000000000000000000000ed
:1043d00000000000000000000000000000000000dd
:1043e00000000000000000000000000000000000cd
:1043f00000000000c00f0000f01f0000380800009f
:104400001c0000000c0000000e0000000e00000068
:104410000600000006000000060000000600000084
:104420000e0000000c0000001c000000380000001e
:10443000f01f0000c00f000000000000000000009e
:10444000000000000000000000000000000000006c
:10445000000000000000000000000000000000005c
:10446000000000000000000000000000000000004c
:104470000000000000000000fe000000fe0300003d
:1044800006070000060e0000060c0000061c0000d7
:1044900006180000061800000618000006180000a4
:1044a00006180000061c0000060c0000060e0000a6
:1044b00006070000fe030000fe00000000000000f0
:1044c00000000000000000000000000000000000ec
:1044d00000000000000000000000000000000000dc
:1044e00000000000000000000000000000000000cc
:1044f000000000000000000000000000fc0f0000b1
:10450000fc0f00000c0000000c0000000c0000007c
:104510000c0000000c000000fc0f0000fc0f00006d
:104520000c0000000c0000000c0000000c0000005b
:104530000c0000000c000000fc0f0000fc0f00004d
:10454000000000000000000000000000000000006b
:10455000000000000000000000000000000000005b
:10456000000000000000000000000000000000004b
:10457000000000000000000000000000000000003b
:10458000fc0f0000fc0f00000c0000000c000000fd
:104590000c0000000c0000000c000000fc0f0000ec
:1045a000fc0f00000c0000000c0000000c000000dc
:1045b0000c0000000c0000000c0000000c000000cb
:1045c0000c000000000000000000000000000000df
:1045d00000000000000000000000000000000000db
:1045e00000000000000000000000000000000000cb
:1045f00000000000000000000000000000000000bb
:1046000000000000e0070000f00f00003804000088
:104610001c0000000c0000000e000000060000005e
:10462000860f0000860f0000060c0000060c00003c
:104630000e0c00000c0c00000c0c0000180c00000c
:10464000f80f0000e007000000000000000000007c
:10465000000000000000000000000000000000005a
:10466000000000000000000000000000000000004a
:10467000000000000000000000000000000000003a
:104680000000000000000000060c0000060c000006
:10469000060c0000060c0000060c0000060c0000d2
:1046a000060c0000fe0f0000fe0f0000060c0000cc
:1046b000060c0000060c0000060c0000060c0000b2
:1046c000060c0000060c0000060c000000000000b4
:1046d00000000000000000000000000000000000da
:1046e00000000000000000000000000000000000ca
:1046f00000000000000000000000000000000000ba
:10470000000000000000000000000000f80f0000a2
:10471000f80f0000c0000000c0000000c000000052
:10472000c0000000c0000000c0000000c000000089
:10473000c0000000c0000000c0000000c000000079
:10474000c0000000c0000000f80f0000f80f0000db
:104750000000000000000000000000000000000059
:104760000000000000000000000000000000000049
:104770000000000000000000000000000000000039
:104780000000000000000000000000000000000029
:104790000006000000060000000600000006000001
:1047a00000060000000600000006000000060000f1
:1047b00000060000000600000006000000060000e1
:1047c000000600000007000080030000fe0100005a
:1047d000fe000000000000000000000000000000db
:1047e00000000000000000000000000000000000c9
:1047f00000000000000000000000000000000000b9
:1048000000000000000000000000000000000000a8
:10481000000000000c1800000c0c00000c0600004a
:104820000c0300008c010000cc010000cc00000053
:104830006c000000fc000000dc0000008c010000a7
:104840008c0300000c0300000c0600000c0e00009e
:104850000c0c00000c18000000000000000000001c
:104860000000000000000000000000000000000048
:104870000000000000000000000000000000000038
:104880000000000000000000000000000000000028
:1048900000000000000000000c0000000c00000000
:1048a0000c0000000c0000000c0000000c000000d8
:1048b0000c0000000c0000000c0000000c000000c8
:1048c0000c0000000c0000000c0000000c000000b8
:1048d0000c000000fc0f0000fc0f000000000000b6
:1048e00000000000000000000000000000000000c8
:1048f00000000000000000000000000000000000b8
:1049000000000000000000000000000000000000a7
:104910000000000000000000000000000e0e00007b
:104920000e0e00000e0e00000e0e00000e0d000018
:10493000160d0000160d0000160d0000160d0000eb
:10494000960d0000a60c0000a60c0000a60c0000ae
:10495000a60c0000e60c0000460c0000460c00000f
:104960000000000000000000000000000000000047
:104970000000000000000000000000000000000037
:104980000000000000000000000000000000000027
:104990000000000000000000000000000000000017
:1049a0000e0c00000e0c00001e0c00001e0c00007f
:1049b000160c0000360c0000260c0000660c0000ef
:1049c000460c0000c60c0000860c0000860d00009e
:1049d000060d0000060f0000060f0000060e000086
:1049e000060e0000000000000000000000000000b3
:1049f00000000000000000000000000000000000b7
:104a000000000000000000000000000000000000a6
:104a10000000000000000000000000000000000096
:104a200000000000f0010000f80700001c0e00006c
:104a30000c0c00000e1c00000e1c000006180000ec
:104a400006180000061800000618000006180000ee
:104a50000e1c00000e0c00000c0c00001c0e0000d0
:104a6000f8070000f0010000000000000000000056
:104a70000000000000000000000000000000000036
:104a80000000000000000000000000000000000026
:104a90000000000000000000000000000000000016
:104aa0000000000000000000fc030000fc0f0000fc
:104ab0000c0e00000c1c00000c1800000c1800006c
:104ac0000c1800000c1c00000c0e0000fc0700007d
:104ad000fc0100000c0000000c0000000c000000b5
:104ae0000c0000000c0000000c00000000000000a2
:104af00000000000000000000000000000000000b6
:104b000000000000000000000000000000000000a5
:104b10000000000000000000000000000000000095
:104b2000000000000000000000000000f001000094
:104b3000f80700001c0e00000c0c00000e1c00000a
:104b40000e1c0000061800000618000006180000e1
:104b500006180000061800000e1c00000e1c0000c5
:104b60000c0c00001c0e0000f8070000f003000011
:104b70000003000000060000000e0000001c000002
:104b8000000800000000000000000000000000001d
:104b90000000000000000000000000000000000015
:104ba0000000000000000000000000000000000005
:104bb000fc010000fc0700000c0e00000c0e0000c1
:104bc0000c0c00000c0c00000c0e00000c07000088
:104bd000fc030000fc0100008c0100000c0300003d
:104be0000c0700000c0600000c0e00000c0c00006e
:104bf0000c18000000000000000000000000000091
:104c000000000000000000000000000000000000a4
:104c10000000000000000000000000000000000094
:104c20000000000000000000000000000000000084
:104c300000000000e0070000f80f00001c04000066
:104c40000c0000000c0000000c0000001800000028
:104c5000f8000000e003000080070000000e0000e4
:104c6000000c0000000c0000000c0000040e00000e
:104c7000fc070000f8010000000000000000000038
:104c80000000000000000000000000000000000024
:104c90000000000000000000000000000000000014
:104ca0000000000000000000000000000000000004
:104cb0000000000000000000fe1f0000fe1f0000ba
:104cc000c0000000c0000000c0000000c0000000e4
:104cd000c0000000c0000000c0000000c0000000d4
:104ce000c0000000c0000000c0000000c0000000c4
:104cf000c0000000c0000000c00000000000000074
:104d000000000000000000000000000000000000a3
:104d10000000000000000000000000000000000093
:104d20000000000000000000000000000000000083
:104d3000000000000000000000000000060c000061
:104d4000060c0000060c0000060c0000060c00001b
:104d5000060c0000060c0000060c0000060c00000b
:104d6000060c0000060c0000060c0000060c0000fb
:104d70000e0e00001c070000fc070000f001000000
:104d80000000000000000000000000000000000023
:104d90000000000000000000000000000000000013
:104da0000000000000000000000000000000000003
:104db00000000000000000000000000000000000f3
:104dc0000330000006180000061800000618000056
:104dd0000c0c00000c0c00000c0c0000180600006d
:104de0001806000018060000300300003003000021
:104df00030030000e0010000e0010000e0010000dd
:104e0000c0000000000000000000000000000000e2
:104e10000000000000000000000000000000000092
:104e20000000000000000000000000000000000082
:104e30000000000000000000000000000000000072
:104e400000000000033000000330000003300000c9
:104e50000330000006100000c6180000c61800004d
:104e6000e6190000e619000026190000361b0000b4
:104e7000361b0000340b0000140a0000140a000066
:104e80001c0e00000c0c00000000000000000000e0
:104e90000000000000000000000000000000000012
:104ea0000000000000000000000000000000000002
:104eb00000000000000000000000000000000000f2
:104ec00000000000000000000e1c00000c0c0000a0
:104ed0001c0e000018060000300300003003000024
:104ee000e0010000e0010000c0000000e00100005f
:104ef000e001000030030000380700001806000041
:104f00001c0e00000c0c0000061c0000000000003d
:104f10000000000000000000000000000000000091
:104f20000000000000000000000000000000000081
:104f30000000000000000000000000000000000071
:104f40000000000000000000000000000618000043
:104f50000c0c00000c0c00001806000018060000e5
:104f60003003000030030000e0010000e001000019
:104f7000c0000000c0000000c0000000c000000031
:104f8000c0000000c0000000c0000000c000000021
:104f90000000000000000000000000000000000011
:104fa0000000000000000000000000000000000001
:104fb00000000000000000000000000000000000f1
:104fc00000000000000000000000000000000000e1
:104fd000fe1f0000fe1f0000000c0000000e00007d
:104fe00000060000000300008003000080010000b4
:104ff000c0000000600000007000000030000000f1
:10500000180000001c0000000c000000fe1f000043
:10501000fe1f000000000000000000000000000073
:105020000000000000000000000000000000000080
:105030000000000000000000000000000000000070
:105040000000000000000000000000000000000060
:1050500000000000e0070000e00700006000000022
:1050600060000000600000006000000060000000c0
:1050700060000000600000006000000060000000b0
:1050800060000000600000006000000060000000a0
:105090006000000060000000600000006000000090
:1050a000e0070000e0070000000000000000000032
:1050b00000000000000000000000000000000000f0
:1050c00000000000000000000000000000000000e0
:1050d00000000000000000000c00000018000000ac
:1050e00018000000300000003000000060000000e8
:1050f00060000000e0000000c0000000c0010000ef
:105100008001000080010000000300000003000097
:105110000006000000060000000c00000000000077
:10512000000000000000000000000000000000007f
:10513000000000000000000000000000000000006f
:10514000000000000000000000000000000000005f
:10515000000000000000000000000000fc00000053
:10516000fc000000c0000000c0000000c000000003
:10517000c0000000c0000000c0000000c00000002f
:10518000c0000000c0000000c0000000c00000001f
:10519000c0000000c0000000c0000000c00000000f
:1051a000c0000000c0000000fc000000fc00000087
:1051b00000000000000000000000000000000000ef
:1051c00000000000000000000000000000000000df
:1051d00000000000000000000000000000000000cf
:1051e000c0000000c0000000e0010000200100003d
:1051f000300300001002000018060000180600002e
:105200000c0c00000c0c0000061800000000000050
:10521000000000000000000000000000000000008e
:10522000000000000000000000000000000000007e
:10523000000000000000000000000000000000006e
:10524000000000000000000000000000000000005e
:10525000000000000000000000000000000000004e
:10526000000000000000000000000000000000003e
:10527000000000000000000000000000000000002e
:10528000000000000000000000000000000000001e
:10529000000000000000000000000000000000000e
:1052a00000000000000000000000000000000000fe
:1052b000ff3f0000000000000000000000000000b0
:1052c00000000000000000000000000000000000de
:1052d00000000000000000000000000000000000ce
:1052e0007000000060000000c000000080010000ad
:1052f00000000000000000000000000000000000ae
:10530000000000000000000000000000000000009d
:10531000000000000000000000000000000000008d
:10532000000000000000000000000000000000007d
:10533000000000000000000000000000000000006d
:10534000000000000000000000000000000000005d
:10535000000000000000000000000000000000004d
:10536000000000000000000000000000000000003d
:10537000000000000000000000000000f00300003a
:10538000f8070000000e0000000c0000000c0000f8
:10539000e00f0000f80d00001c0c00000c0c0000d9
:1053a0000c0e00001c0e0000f80f0000f00c0000b6
:1053b00000000000000000000000000000000000ed
:1053c00000000000000000000000000000000000dd
:1053d00000000000000000000000000000000000cd
:1053e0000000000000000000000000000c000000b1
:1053f0000c0000000c0000000c0000000c0000007d
:10540000cc030000fc0700001c0c00001c1c00006a
:105410000c1800000c1800000c1800000c180000fc
:105420000c1800001c1c00001c0c0000fc070000f5
:10543000cc0300000000000000000000000000009d
:10544000000000000000000000000000000000005c
:10545000000000000000000000000000000000004c
:10546000000000000000000000000000000000003c
:10547000000000000000000000000000000000002c
:1054800000000000e0070000f00f000038000000fe
:10549000180000000c0000000c0000000c000000d0
:1054a0000c0000000c0000001c0000003800000090
:1054b000f00f0000e0070000000000000000000006
:1054c00000000000000000000000000000000000dc
:1054d00000000000000000000000000000000000cc
:1054e00000000000000000000000000000000000bc
:1054f00000000000000c0000000c0000000c000088
:10550000000c0000000c0000f00c0000f80f000080
:105510000c0e00000e0e0000060c0000060c000031
:10552000060c0000060c0000060c00000e0e000029
:105530000c0e0000f80f0000f00c0000000000004e
:10554000000000000000000000000000000000005b
:10555000000000000000000000000000000000004b
:10556000000000000000000000000000000000003b
:10557000000000000000000000000000000000002b
:10558000000000000000000000000000e003000038
:10559000f80700001c0c00000c18000006180000a2
:1055a000fe1f0000fe1f00000600000006000000b5
:1055b0000c0000001c000000f80f0000e0070000d5
:1055c00000000000000000000000000000000000db
:1055d00000000000000000000000000000000000cb
:1055e00000000000000000000000000000000000bb
:1055f000000000000000000000000000801f00000c
:10560000c01f0000e000000060000000600000001b
:10561000fe0f0000fe0f00006000000060000000b0
:1056200060000000600000006000000060000000fa
:1056300060000000600000006000000060000000ea
:1056400060000000000000000000000000000000fa
:10565000000000000000000000000000000000004a
:10566000000000000000000000000000000000003a
:10567000000000000000000000000000000000002a
:10568000000000000000000000000000000000001a
:1056900000000000f03f0000f80f00001c0e0000aa
:1056a0000c0c00000c0c00000c0c00003807000073
:1056b000f0030000180000001800000018000000af
:1056c000f0070000f80f00000c180000061800009a
:1056d00006180000061c0000fc0f0000f803000084
:1056e00000000000000000000000000000000000ba
:1056f00000000000000000000000000000000000aa
:10570000000000000c0000000c0000000c00000075
:105710000c0000000c000000cc030000fc0700009f
:105720001c0e00001c0c00000c0c00000c0c0000f7
:105730000c0c00000c0c00000c0c00000c0c000009
:105740000c0c00000c0c00000c0c00000000000011
:105750000000000000000000000000000000000049
:105760000000000000000000000000000000000039
:105770000000000000000000000000000000000029
:105780000000000000000000c0000000c000000099
:10579000c00000000000000000000000f800000051
:1057a000f0000000c0000000c0000000c0000000c9
:1057b000c0000000c0000000c0000000c0000000e9
:1057c000c0000000c0000000f8070000fc0f00004f
:1057d00000000000000000000000000000000000c9
:1057e00000000000000000000000000000000000b9
:1057f00000000000000000000000000000000000a9
:105800000000000000000000000000000003000095
:105810008003000000030000000000000000000002
:10582000f8030000e0030000000300000003000094
:10583000000300000003000000030000000300005c
:10584000000300000003000000030000000300004c
:10585000000300000003000000030000000300003c
:1058600080030000fc010000fc00000000000000bc
:105870000000000000000000000000000000000028
:105880000000000000000000000000000000000018
:1058900018000000180000001800000018000000a8
:1058a00018000000181c0000180e00001807000067
:1058b0009803000098010000d8000000f8000000e4
:1058c000b801000098030000180700001806000047
:1058d000180c0000181c0000000000000000000070
:1058e00000000000000000000000000000000000b8
:1058f00000000000000000000000000000000000a8
:105900000000000000000000000000000000000097
:1059100000000000f8000000f0000000c0000000df
:10592000c0000000c0000000c0000000c000000077
:10593000c0000000c0000000c0000000c000000067
:10594000c0000000c0000000c0000000c000000057
:10595000c0000000f8070000fc0f0000000000007d
:105960000000000000000000000000000000000037
:105970000000000000000000000000000000000027
:105980000000000000000000000000000000000017
:105990000000000000000000000000000000000007
:1059a000000000000000000000000000760e000073
:1059b000fe1f0000ce190000c6180000c618000027
:1059c000c6180000c6180000c6180000c61800005f
:1059d000c6180000c6180000c6180000c61800004f
:1059e00000000000000000000000000000000000b7
:1059f00000000000000000000000000000000000a7
:105a00000000000000000000000000000000000096
:105a10000000000000000000000000000000000086
:105a20000000000000000000000000000000000076
:105a3000cc030000fc0700001c0e00001c0c000042
:105a40000c0c00000c0c00000c0c00000c0c0000f6
:105a50000c0c00000c0c00000c0c00000c0c0000e6
:105a60000c0c00000000000000000000000000001e
:105a70000000000000000000000000000000000026
:105a80000000000000000000000000000000000016
:105a90000000000000000000000000000000000006
:105aa00000000000000000000000000000000000f6
:105ab00000000000f0030000f80700001c0e0000ca
